{
	"contracts/KipuBank.sol": {
		"KipuBank": {
			"abi": [
				{
					"inputs": [
						{
							"internalType": "uint256",
							"name": "_bankCap",
							"type": "uint256"
						},
						{
							"internalType": "uint256",
							"name": "_withdrawalLimit",
							"type": "uint256"
						}
					],
					"stateMutability": "nonpayable",
					"type": "constructor"
				},
				{
					"inputs": [],
					"name": "BankCapExceeded",
					"type": "error"
				},
				{
					"inputs": [],
					"name": "ContractPaused",
					"type": "error"
				},
				{
					"inputs": [],
					"name": "DepositTooSmall",
					"type": "error"
				},
				{
					"inputs": [],
					"name": "InsufficientBalance",
					"type": "error"
				},
				{
					"inputs": [],
					"name": "InvalidWithdrawalAmount",
					"type": "error"
				},
				{
					"inputs": [],
					"name": "OnlyOwner",
					"type": "error"
				},
				{
					"inputs": [],
					"name": "TransferFailed",
					"type": "error"
				},
				{
					"inputs": [],
					"name": "WithdrawalLimitExceeded",
					"type": "error"
				},
				{
					"inputs": [],
					"name": "ZeroDeposit",
					"type": "error"
				},
				{
					"anonymous": false,
					"inputs": [
						{
							"indexed": true,
							"internalType": "address",
							"name": "user",
							"type": "address"
						},
						{
							"indexed": false,
							"internalType": "uint256",
							"name": "amount",
							"type": "uint256"
						},
						{
							"indexed": false,
							"internalType": "uint256",
							"name": "newBalance",
							"type": "uint256"
						}
					],
					"name": "Deposit",
					"type": "event"
				},
				{
					"anonymous": false,
					"inputs": [
						{
							"indexed": true,
							"internalType": "address",
							"name": "by",
							"type": "address"
						}
					],
					"name": "Paused",
					"type": "event"
				},
				{
					"anonymous": false,
					"inputs": [
						{
							"indexed": true,
							"internalType": "address",
							"name": "by",
							"type": "address"
						}
					],
					"name": "Unpaused",
					"type": "event"
				},
				{
					"anonymous": false,
					"inputs": [
						{
							"indexed": true,
							"internalType": "address",
							"name": "user",
							"type": "address"
						},
						{
							"indexed": false,
							"internalType": "uint256",
							"name": "amount",
							"type": "uint256"
						},
						{
							"indexed": false,
							"internalType": "uint256",
							"name": "newBalance",
							"type": "uint256"
						}
					],
					"name": "Withdrawal",
					"type": "event"
				},
				{
					"inputs": [],
					"name": "MINIMUM_DEPOSIT",
					"outputs": [
						{
							"internalType": "uint256",
							"name": "",
							"type": "uint256"
						}
					],
					"stateMutability": "view",
					"type": "function"
				},
				{
					"inputs": [],
					"name": "WITHDRAWAL_LIMIT",
					"outputs": [
						{
							"internalType": "uint256",
							"name": "",
							"type": "uint256"
						}
					],
					"stateMutability": "view",
					"type": "function"
				},
				{
					"inputs": [],
					"name": "bankCap",
					"outputs": [
						{
							"internalType": "uint256",
							"name": "",
							"type": "uint256"
						}
					],
					"stateMutability": "view",
					"type": "function"
				},
				{
					"inputs": [],
					"name": "deposit",
					"outputs": [],
					"stateMutability": "payable",
					"type": "function"
				},
				{
					"inputs": [],
					"name": "depositCount",
					"outputs": [
						{
							"internalType": "uint256",
							"name": "",
							"type": "uint256"
						}
					],
					"stateMutability": "view",
					"type": "function"
				},
				{
					"inputs": [
						{
							"internalType": "address",
							"name": "user",
							"type": "address"
						}
					],
					"name": "getBalance",
					"outputs": [
						{
							"internalType": "uint256",
							"name": "",
							"type": "uint256"
						}
					],
					"stateMutability": "view",
					"type": "function"
				},
				{
					"inputs": [],
					"name": "getBankStats",
					"outputs": [
						{
							"internalType": "uint256",
							"name": "_totalDeposits",
							"type": "uint256"
						},
						{
							"internalType": "uint256",
							"name": "_depositCount",
							"type": "uint256"
						},
						{
							"internalType": "uint256",
							"name": "_withdrawalCount",
							"type": "uint256"
						},
						{
							"internalType": "uint256",
							"name": "_availableCapacity",
							"type": "uint256"
						}
					],
					"stateMutability": "view",
					"type": "function"
				},
				{
					"inputs": [
						{
							"internalType": "address",
							"name": "user",
							"type": "address"
						}
					],
					"name": "getMaxWithdrawal",
					"outputs": [
						{
							"internalType": "uint256",
							"name": "",
							"type": "uint256"
						}
					],
					"stateMutability": "view",
					"type": "function"
				},
				{
					"inputs": [],
					"name": "getMyBalance",
					"outputs": [
						{
							"internalType": "uint256",
							"name": "",
							"type": "uint256"
						}
					],
					"stateMutability": "view",
					"type": "function"
				},
				{
					"inputs": [],
					"name": "isPaused",
					"outputs": [
						{
							"internalType": "bool",
							"name": "",
							"type": "bool"
						}
					],
					"stateMutability": "view",
					"type": "function"
				},
				{
					"inputs": [],
					"name": "owner",
					"outputs": [
						{
							"internalType": "address",
							"name": "",
							"type": "address"
						}
					],
					"stateMutability": "view",
					"type": "function"
				},
				{
					"inputs": [],
					"name": "pause",
					"outputs": [],
					"stateMutability": "nonpayable",
					"type": "function"
				},
				{
					"inputs": [],
					"name": "paused",
					"outputs": [
						{
							"internalType": "bool",
							"name": "",
							"type": "bool"
						}
					],
					"stateMutability": "view",
					"type": "function"
				},
				{
					"inputs": [],
					"name": "totalDeposits",
					"outputs": [
						{
							"internalType": "uint256",
							"name": "",
							"type": "uint256"
						}
					],
					"stateMutability": "view",
					"type": "function"
				},
				{
					"inputs": [],
					"name": "unpause",
					"outputs": [],
					"stateMutability": "nonpayable",
					"type": "function"
				},
				{
					"inputs": [
						{
							"internalType": "address",
							"name": "",
							"type": "address"
						}
					],
					"name": "vaults",
					"outputs": [
						{
							"internalType": "uint256",
							"name": "",
							"type": "uint256"
						}
					],
					"stateMutability": "view",
					"type": "function"
				},
				{
					"inputs": [
						{
							"internalType": "uint256",
							"name": "amount",
							"type": "uint256"
						}
					],
					"name": "withdraw",
					"outputs": [],
					"stateMutability": "nonpayable",
					"type": "function"
				},
				{
					"inputs": [],
					"name": "withdrawAll",
					"outputs": [],
					"stateMutability": "nonpayable",
					"type": "function"
				},
				{
					"inputs": [],
					"name": "withdrawalCount",
					"outputs": [
						{
							"internalType": "uint256",
							"name": "",
							"type": "uint256"
						}
					],
					"stateMutability": "view",
					"type": "function"
				}
			],
			"devdoc": {
				"author": "Imanol Valenzuela Eguez",
				"errors": {
					"BankCapExceeded()": [
						{
							"details": "Se lanza si totalDeposits + msg.value > bankCap"
						}
					],
					"ContractPaused()": [
						{
							"details": "Se lanza si se intenta operar mientras paused == true"
						}
					],
					"DepositTooSmall()": [
						{
							"details": "Se lanza si msg.value < MINIMUM_DEPOSIT"
						}
					],
					"InsufficientBalance()": [
						{
							"details": "Se lanza si vaults[msg.sender] < amount solicitado"
						}
					],
					"InvalidWithdrawalAmount()": [
						{
							"details": "Se lanza si amount == 0"
						}
					],
					"OnlyOwner()": [
						{
							"details": "Se lanza si msg.sender != owner"
						}
					],
					"TransferFailed()": [
						{
							"details": "Se lanza si call{value}() retorna false"
						}
					],
					"WithdrawalLimitExceeded()": [
						{
							"details": "Se lanza si amount > WITHDRAWAL_LIMIT"
						}
					],
					"ZeroDeposit()": [
						{
							"details": "Se lanza si msg.value == 0"
						}
					]
				},
				"events": {
					"Deposit(address,uint256,uint256)": {
						"params": {
							"amount": "Cantidad depositada en wei",
							"newBalance": "Nuevo balance total del usuario en su bóveda",
							"user": "Dirección del usuario que realizó el depósito"
						}
					},
					"Paused(address)": {
						"params": {
							"by": "Dirección que pausó el contrato"
						}
					},
					"Unpaused(address)": {
						"params": {
							"by": "Dirección que despausó el contrato"
						}
					},
					"Withdrawal(address,uint256,uint256)": {
						"params": {
							"amount": "Cantidad retirada en wei",
							"newBalance": "Nuevo balance restante del usuario en su bóveda",
							"user": "Dirección del usuario que realizó el retiro"
						}
					}
				},
				"kind": "dev",
				"methods": {
					"constructor": {
						"details": "Ejemplo de despliegue:      - _bankCap: 100 ether (100000000000000000000)      - _withdrawalLimit: 0.1 ether (100000000000000000)      El deployer se convierte automáticamente en el owner",
						"params": {
							"_bankCap": "Límite total de depósitos que el banco puede aceptar (en wei)",
							"_withdrawalLimit": "Límite máximo de retiro por transacción (en wei)"
						}
					},
					"deposit()": {
						"details": "Implementa el patrón checks-effects-interactions:      1. CHECKS: Valida que no esté pausado, monto mínimo y límite del banco      2. EFFECTS: Actualiza estado (vaults, totalDeposits, depositCount)      3. INTERACTIONS: Emite evento  Requisitos: - El contrato no debe estar pausado - msg.value debe ser > 0 - msg.value debe ser >= MINIMUM_DEPOSIT (0.001 ETH) - El depósito no debe hacer que totalDeposits exceda bankCap  Emite un evento {Deposit}  Ejemplo de uso: kipuBank.deposit{value: 0.5 ether}();"
					},
					"getBalance(address)": {
						"details": "Función pública de solo lectura, no modifica el estado  Ejemplo de uso: uint256 myBalance = kipuBank.getBalance(msg.sender);",
						"params": {
							"user": "Dirección del usuario a consultar"
						},
						"returns": {
							"_0": "Balance del usuario en wei"
						}
					},
					"getBankStats()": {
						"details": "Útil para dashboards y monitoreo del estado del banco  Ejemplo de uso: (uint256 total, uint256 deposits, uint256 withdrawals, uint256 available) = kipuBank.getBankStats();",
						"returns": {
							"_availableCapacity": "Capacidad restante del banco (bankCap - totalDeposits)",
							"_depositCount": "Número acumulado de operaciones de depósito",
							"_totalDeposits": "Total de fondos depositados actualmente en el banco",
							"_withdrawalCount": "Número acumulado de operaciones de retiro"
						}
					},
					"getMaxWithdrawal(address)": {
						"params": {
							"user": "Dirección del usuario a consultar"
						},
						"returns": {
							"_0": "Monto máximo que puede retirar (el menor entre su balance y WITHDRAWAL_LIMIT)"
						}
					},
					"getMyBalance()": {
						"details": "Función conveniente para que usuarios consulten su propio balance",
						"returns": {
							"_0": "Balance del msg.sender en wei"
						}
					},
					"isPaused()": {
						"returns": {
							"_0": "true si está pausado, false si está operativo"
						}
					},
					"pause()": {
						"details": "Solo puede ser ejecutado por el owner      Previene depósitos y retiros mientras está pausado  Emite un evento {Paused}"
					},
					"unpause()": {
						"details": "Solo puede ser ejecutado por el owner  Emite un evento {Unpaused}"
					},
					"withdraw(uint256)": {
						"custom:security": "Actualiza el estado antes de la transferencia para prevenir reentrancy  Ejemplo de uso: kipuBank.withdraw(0.05 ether);",
						"details": "Implementa checks-effects-interactions y protección contra reentrancy:      1. CHECKS: Valida que no esté pausado, monto, balance y límite de retiro      2. EFFECTS: Actualiza estado antes de transferir      3. INTERACTIONS: Transfiere ETH usando call (seguro)  Requisitos: - El contrato no debe estar pausado - amount debe ser > 0 (validado por modificador) - Usuario debe tener balance suficiente en su bóveda - amount no debe exceder WITHDRAWAL_LIMIT  Emite un evento {Withdrawal} ",
						"params": {
							"amount": "Cantidad a retirar en wei"
						}
					},
					"withdrawAll()": {
						"details": "Alternativa conveniente a withdraw(amount) que previene errores de cálculo      Respeta el límite de retiro por transacción  Requisitos: - El contrato no debe estar pausado - El usuario debe tener balance > 0  Emite un evento {Withdrawal}  Nota: Si el balance es mayor al WITHDRAWAL_LIMIT, solo retira hasta el límite"
					}
				},
				"stateVariables": {
					"MINIMUM_DEPOSIT": {
						"details": "Definido como constante: 0.001 ETH (1000000000000000 wei)"
					},
					"WITHDRAWAL_LIMIT": {
						"details": "Establecido en el constructor como immutable para optimizar gas      Valor recomendado: 0.1 ETH (100000000000000000 wei)"
					},
					"bankCap": {
						"details": "Se establece en el constructor. Una vez alcanzado, no se permiten más depósitos      Valor recomendado: 100 ETH"
					},
					"depositCount": {
						"details": "Se incrementa cada vez que un usuario deposita, independientemente del monto"
					},
					"owner": {
						"details": "Tiene permisos administrativos como pausar el contrato"
					},
					"paused": {
						"details": "true = contrato pausado, false = contrato operativo"
					},
					"totalDeposits": {
						"details": "Se actualiza en cada depósito (suma) y retiro (resta)"
					},
					"vaults": {
						"details": "Cada dirección tiene su propia bóveda individual      address => balance en wei"
					},
					"withdrawalCount": {
						"details": "Se incrementa cada vez que un usuario retira fondos exitosamente"
					}
				},
				"title": "Storage String",
				"version": 1
			},
			"evm": {
				"assembly": "    /* \"contracts/KipuBank.sol\":126:15168  contract KipuBank{... */\n  mstore(0x40, 0xc0)\n    /* \"contracts/KipuBank.sol\":5624:5816  constructor(uint256 _bankCap, uint256 _withdrawalLimit){... */\n  callvalue\n  dup1\n  iszero\n  tag_1\n  jumpi\n  revert(0x00, 0x00)\ntag_1:\n  pop\n  mload(0x40)\n  sub(codesize, bytecodeSize)\n  dup1\n  bytecodeSize\n  dup4\n  codecopy\n  dup2\n  dup2\n  add\n  0x40\n  mstore\n  dup2\n  add\n  swap1\n  tag_2\n  swap2\n  swap1\n  tag_3\n  jump\t// in\ntag_2:\n    /* \"contracts/KipuBank.sol\":5700:5708  _bankCap */\n  dup2\n    /* \"contracts/KipuBank.sol\":5690:5697  bankCap */\n  0x00\n    /* \"contracts/KipuBank.sol\":5690:5708  bankCap = _bankCap */\n  dup2\n  swap1\n  sstore\n  pop\n    /* \"contracts/KipuBank.sol\":5738:5754  _withdrawalLimit */\n  dup1\n    /* \"contracts/KipuBank.sol\":5719:5754  WITHDRAWAL_LIMIT = _withdrawalLimit */\n  0x80\n  dup2\n  dup2\n  mstore\n  pop\n  pop\n    /* \"contracts/KipuBank.sol\":5773:5783  msg.sender */\n  caller\n    /* \"contracts/KipuBank.sol\":5765:5783  owner = msg.sender */\n  0xffffffffffffffffffffffffffffffffffffffff\n  and\n  0xa0\n  dup2\n  0xffffffffffffffffffffffffffffffffffffffff\n  and\n  dup2\n  mstore\n  pop\n  pop\n    /* \"contracts/KipuBank.sol\":5803:5808  false */\n  0x00\n    /* \"contracts/KipuBank.sol\":5794:5800  paused */\n  0x04\n  0x00\n    /* \"contracts/KipuBank.sol\":5794:5808  paused = false */\n  0x0100\n  exp\n  dup2\n  sload\n  dup2\n  0xff\n  mul\n  not\n  and\n  swap1\n  dup4\n  iszero\n  iszero\n  mul\n  or\n  swap1\n  sstore\n  pop\n    /* \"contracts/KipuBank.sol\":5624:5816  constructor(uint256 _bankCap, uint256 _withdrawalLimit){... */\n  pop\n  pop\n    /* \"contracts/KipuBank.sol\":126:15168  contract KipuBank{... */\n  jump(tag_6)\n    /* \"#utility.yul\":88:205   */\ntag_8:\n    /* \"#utility.yul\":197:198   */\n  0x00\n    /* \"#utility.yul\":194:195   */\n  0x00\n    /* \"#utility.yul\":187:199   */\n  revert\n    /* \"#utility.yul\":334:411   */\ntag_10:\n    /* \"#utility.yul\":371:378   */\n  0x00\n    /* \"#utility.yul\":400:405   */\n  dup2\n    /* \"#utility.yul\":389:405   */\n  swap1\n  pop\n    /* \"#utility.yul\":334:411   */\n  swap2\n  swap1\n  pop\n  jump\t// out\n    /* \"#utility.yul\":417:539   */\ntag_11:\n    /* \"#utility.yul\":490:514   */\n  tag_19\n    /* \"#utility.yul\":508:513   */\n  dup2\n    /* \"#utility.yul\":490:514   */\n  tag_10\n  jump\t// in\ntag_19:\n    /* \"#utility.yul\":483:488   */\n  dup2\n    /* \"#utility.yul\":480:515   */\n  eq\n    /* \"#utility.yul\":470:533   */\n  tag_20\n  jumpi\n    /* \"#utility.yul\":529:530   */\n  0x00\n    /* \"#utility.yul\":526:527   */\n  0x00\n    /* \"#utility.yul\":519:531   */\n  revert\n    /* \"#utility.yul\":470:533   */\ntag_20:\n    /* \"#utility.yul\":417:539   */\n  pop\n  jump\t// out\n    /* \"#utility.yul\":545:688   */\ntag_12:\n    /* \"#utility.yul\":602:607   */\n  0x00\n    /* \"#utility.yul\":633:639   */\n  dup2\n    /* \"#utility.yul\":627:640   */\n  mload\n    /* \"#utility.yul\":618:640   */\n  swap1\n  pop\n    /* \"#utility.yul\":649:682   */\n  tag_22\n    /* \"#utility.yul\":676:681   */\n  dup2\n    /* \"#utility.yul\":649:682   */\n  tag_11\n  jump\t// in\ntag_22:\n    /* \"#utility.yul\":545:688   */\n  swap3\n  swap2\n  pop\n  pop\n  jump\t// out\n    /* \"#utility.yul\":694:1201   */\ntag_3:\n    /* \"#utility.yul\":773:779   */\n  0x00\n    /* \"#utility.yul\":781:787   */\n  0x00\n    /* \"#utility.yul\":830:832   */\n  0x40\n    /* \"#utility.yul\":818:827   */\n  dup4\n    /* \"#utility.yul\":809:816   */\n  dup6\n    /* \"#utility.yul\":805:828   */\n  sub\n    /* \"#utility.yul\":801:833   */\n  slt\n    /* \"#utility.yul\":798:917   */\n  iszero\n  tag_24\n  jumpi\n    /* \"#utility.yul\":836:915   */\n  tag_25\n  tag_8\n  jump\t// in\ntag_25:\n    /* \"#utility.yul\":798:917   */\ntag_24:\n    /* \"#utility.yul\":956:957   */\n  0x00\n    /* \"#utility.yul\":981:1045   */\n  tag_26\n    /* \"#utility.yul\":1037:1044   */\n  dup6\n    /* \"#utility.yul\":1028:1034   */\n  dup3\n    /* \"#utility.yul\":1017:1026   */\n  dup7\n    /* \"#utility.yul\":1013:1035   */\n  add\n    /* \"#utility.yul\":981:1045   */\n  tag_12\n  jump\t// in\ntag_26:\n    /* \"#utility.yul\":971:1045   */\n  swap3\n  pop\n    /* \"#utility.yul\":927:1055   */\n  pop\n    /* \"#utility.yul\":1094:1096   */\n  0x20\n    /* \"#utility.yul\":1120:1184   */\n  tag_27\n    /* \"#utility.yul\":1176:1183   */\n  dup6\n    /* \"#utility.yul\":1167:1173   */\n  dup3\n    /* \"#utility.yul\":1156:1165   */\n  dup7\n    /* \"#utility.yul\":1152:1174   */\n  add\n    /* \"#utility.yul\":1120:1184   */\n  tag_12\n  jump\t// in\ntag_27:\n    /* \"#utility.yul\":1110:1184   */\n  swap2\n  pop\n    /* \"#utility.yul\":1065:1194   */\n  pop\n    /* \"#utility.yul\":694:1201   */\n  swap3\n  pop\n  swap3\n  swap1\n  pop\n  jump\t// out\n    /* \"contracts/KipuBank.sol\":126:15168  contract KipuBank{... */\ntag_6:\n  mload(0x80)\n  mload(0xa0)\n  codecopy(0x00, dataOffset(sub_0), dataSize(sub_0))\n  0x00\n  assignImmutable(\"0x7f8b6b088b6d74c2852fc86c796dca07b44eed6fb3daf5e6b59f7c364db14528\")\n  0x00\n  assignImmutable(\"0xceebf77a833b30520287ddd9478ff51abbdffa30aa90a8d655dba0e8a79ce0c1\")\n  return(0x00, dataSize(sub_0))\nstop\n\nsub_0: assembly {\n        /* \"contracts/KipuBank.sol\":126:15168  contract KipuBank{... */\n      mstore(0x40, 0x80)\n      jumpi(tag_1, lt(calldatasize, 0x04))\n      shr(0xe0, calldataload(0x00))\n      dup1\n      0x853828b6\n      gt\n      tag_21\n      jumpi\n      dup1\n      0xd0e30db0\n      gt\n      tag_22\n      jumpi\n      dup1\n      0xd0e30db0\n      eq\n      tag_16\n      jumpi\n      dup1\n      0xe4393e92\n      eq\n      tag_17\n      jumpi\n      dup1\n      0xecbea24d\n      eq\n      tag_18\n      jumpi\n      dup1\n      0xf19451d8\n      eq\n      tag_19\n      jumpi\n      dup1\n      0xf8b2cb4f\n      eq\n      tag_20\n      jumpi\n      jump(tag_1)\n    tag_22:\n      dup1\n      0x853828b6\n      eq\n      tag_11\n      jumpi\n      dup1\n      0x8da5cb5b\n      eq\n      tag_12\n      jumpi\n      dup1\n      0xa622ee7c\n      eq\n      tag_13\n      jumpi\n      dup1\n      0xb187bd26\n      eq\n      tag_14\n      jumpi\n      dup1\n      0xc6e8e38c\n      eq\n      tag_15\n      jumpi\n      jump(tag_1)\n    tag_21:\n      dup1\n      0x5c975abb\n      gt\n      tag_23\n      jumpi\n      dup1\n      0x5c975abb\n      eq\n      tag_6\n      jumpi\n      dup1\n      0x71706cbe\n      eq\n      tag_7\n      jumpi\n      dup1\n      0x7d882097\n      eq\n      tag_8\n      jumpi\n      dup1\n      0x82ee0d1d\n      eq\n      tag_9\n      jumpi\n      dup1\n      0x8456cb59\n      eq\n      tag_10\n      jumpi\n      jump(tag_1)\n    tag_23:\n      dup1\n      0x2dfdf0b5\n      eq\n      tag_2\n      jumpi\n      dup1\n      0x2e1a7d4d\n      eq\n      tag_3\n      jumpi\n      dup1\n      0x3f4ba83a\n      eq\n      tag_4\n      jumpi\n      dup1\n      0x4c738909\n      eq\n      tag_5\n      jumpi\n    tag_1:\n      revert(0x00, 0x00)\n        /* \"contracts/KipuBank.sol\":1576:1603  uint256 public depositCount */\n    tag_2:\n      callvalue\n      dup1\n      iszero\n      tag_24\n      jumpi\n      revert(0x00, 0x00)\n    tag_24:\n      pop\n      tag_25\n      tag_26\n      jump\t// in\n    tag_25:\n      mload(0x40)\n      tag_27\n      swap2\n      swap1\n      tag_28\n      jump\t// in\n    tag_27:\n      mload(0x40)\n      dup1\n      swap2\n      sub\n      swap1\n      return\n        /* \"contracts/KipuBank.sol\":8990:9682  function withdraw(uint256 amount) external validAmount(amount){... */\n    tag_3:\n      callvalue\n      dup1\n      iszero\n      tag_29\n      jumpi\n      revert(0x00, 0x00)\n    tag_29:\n      pop\n      tag_30\n      0x04\n      dup1\n      calldatasize\n      sub\n      dup2\n      add\n      swap1\n      tag_31\n      swap2\n      swap1\n      tag_32\n      jump\t// in\n    tag_31:\n      tag_33\n      jump\t// in\n    tag_30:\n      stop\n        /* \"contracts/KipuBank.sol\":11586:11693  function unpause() external onlyOwner {... */\n    tag_4:\n      callvalue\n      dup1\n      iszero\n      tag_34\n      jumpi\n      revert(0x00, 0x00)\n    tag_34:\n      pop\n      tag_35\n      tag_36\n      jump\t// in\n    tag_35:\n      stop\n        /* \"contracts/KipuBank.sol\":12456:12556  function getMyBalance() external view returns (uint256) {... */\n    tag_5:\n      callvalue\n      dup1\n      iszero\n      tag_37\n      jumpi\n      revert(0x00, 0x00)\n    tag_37:\n      pop\n      tag_38\n      tag_39\n      jump\t// in\n    tag_38:\n      mload(0x40)\n      tag_40\n      swap2\n      swap1\n      tag_28\n      jump\t// in\n    tag_40:\n      mload(0x40)\n      dup1\n      swap2\n      sub\n      swap1\n      return\n        /* \"contracts/KipuBank.sol\":1979:1997  bool public paused */\n    tag_6:\n      callvalue\n      dup1\n      iszero\n      tag_41\n      jumpi\n      revert(0x00, 0x00)\n    tag_41:\n      pop\n      tag_42\n      tag_43\n      jump\t// in\n    tag_42:\n      mload(0x40)\n      tag_44\n      swap2\n      swap1\n      tag_45\n      jump\t// in\n    tag_44:\n      mload(0x40)\n      dup1\n      swap2\n      sub\n      swap1\n      return\n        /* \"contracts/KipuBank.sol\":1774:1804  uint256 public withdrawalCount */\n    tag_7:\n      callvalue\n      dup1\n      iszero\n      tag_46\n      jumpi\n      revert(0x00, 0x00)\n    tag_46:\n      pop\n      tag_47\n      tag_48\n      jump\t// in\n    tag_47:\n      mload(0x40)\n      tag_49\n      swap2\n      swap1\n      tag_28\n      jump\t// in\n    tag_49:\n      mload(0x40)\n      dup1\n      swap2\n      sub\n      swap1\n      return\n        /* \"contracts/KipuBank.sol\":1362:1390  uint256 public totalDeposits */\n    tag_8:\n      callvalue\n      dup1\n      iszero\n      tag_50\n      jumpi\n      revert(0x00, 0x00)\n    tag_50:\n      pop\n      tag_51\n      tag_52\n      jump\t// in\n    tag_51:\n      mload(0x40)\n      tag_53\n      swap2\n      swap1\n      tag_28\n      jump\t// in\n    tag_53:\n      mload(0x40)\n      dup1\n      swap2\n      sub\n      swap1\n      return\n        /* \"contracts/KipuBank.sol\":436:477  uint256 public immutable WITHDRAWAL_LIMIT */\n    tag_9:\n      callvalue\n      dup1\n      iszero\n      tag_54\n      jumpi\n      revert(0x00, 0x00)\n    tag_54:\n      pop\n      tag_55\n      tag_56\n      jump\t// in\n    tag_55:\n      mload(0x40)\n      tag_57\n      swap2\n      swap1\n      tag_28\n      jump\t// in\n    tag_57:\n      mload(0x40)\n      dup1\n      swap2\n      sub\n      swap1\n      return\n        /* \"contracts/KipuBank.sol\":11291:11393  function pause() external onlyOwner {... */\n    tag_10:\n      callvalue\n      dup1\n      iszero\n      tag_58\n      jumpi\n      revert(0x00, 0x00)\n    tag_58:\n      pop\n      tag_59\n      tag_60\n      jump\t// in\n    tag_59:\n      stop\n        /* \"contracts/KipuBank.sol\":10185:11028  function withdrawAll() external whenNotPaused {... */\n    tag_11:\n      callvalue\n      dup1\n      iszero\n      tag_61\n      jumpi\n      revert(0x00, 0x00)\n    tag_61:\n      pop\n      tag_62\n      tag_63\n      jump\t// in\n    tag_62:\n      stop\n        /* \"contracts/KipuBank.sol\":843:873  address public immutable owner */\n    tag_12:\n      callvalue\n      dup1\n      iszero\n      tag_64\n      jumpi\n      revert(0x00, 0x00)\n    tag_64:\n      pop\n      tag_65\n      tag_66\n      jump\t// in\n    tag_65:\n      mload(0x40)\n      tag_67\n      swap2\n      swap1\n      tag_68\n      jump\t// in\n    tag_67:\n      mload(0x40)\n      dup1\n      swap2\n      sub\n      swap1\n      return\n        /* \"contracts/KipuBank.sol\":2246:2287  mapping(address => uint256) public vaults */\n    tag_13:\n      callvalue\n      dup1\n      iszero\n      tag_69\n      jumpi\n      revert(0x00, 0x00)\n    tag_69:\n      pop\n      tag_70\n      0x04\n      dup1\n      calldatasize\n      sub\n      dup2\n      add\n      swap1\n      tag_71\n      swap2\n      swap1\n      tag_72\n      jump\t// in\n    tag_71:\n      tag_73\n      jump\t// in\n    tag_70:\n      mload(0x40)\n      tag_74\n      swap2\n      swap1\n      tag_28\n      jump\t// in\n    tag_74:\n      mload(0x40)\n      dup1\n      swap2\n      sub\n      swap1\n      return\n        /* \"contracts/KipuBank.sol\":13690:13771  function isPaused() external view returns (bool) {... */\n    tag_14:\n      callvalue\n      dup1\n      iszero\n      tag_75\n      jumpi\n      revert(0x00, 0x00)\n    tag_75:\n      pop\n      tag_76\n      tag_77\n      jump\t// in\n    tag_76:\n      mload(0x40)\n      tag_78\n      swap2\n      swap1\n      tag_45\n      jump\t// in\n    tag_78:\n      mload(0x40)\n      dup1\n      swap2\n      sub\n      swap1\n      return\n        /* \"contracts/KipuBank.sol\":13179:13530  function getBankStats() external view returns (... */\n    tag_15:\n      callvalue\n      dup1\n      iszero\n      tag_79\n      jumpi\n      revert(0x00, 0x00)\n    tag_79:\n      pop\n      tag_80\n      tag_81\n      jump\t// in\n    tag_80:\n      mload(0x40)\n      tag_82\n      swap5\n      swap4\n      swap3\n      swap2\n      swap1\n      tag_83\n      jump\t// in\n    tag_82:\n      mload(0x40)\n      dup1\n      swap2\n      sub\n      swap1\n      return\n        /* \"contracts/KipuBank.sol\":7481:8018  function deposit() external payable {... */\n    tag_16:\n      tag_84\n      tag_85\n      jump\t// in\n    tag_84:\n      stop\n        /* \"contracts/KipuBank.sol\":14036:14242  function getMaxWithdrawal(address user) external view returns (uint256) {... */\n    tag_17:\n      callvalue\n      dup1\n      iszero\n      tag_86\n      jumpi\n      revert(0x00, 0x00)\n    tag_86:\n      pop\n      tag_87\n      0x04\n      dup1\n      calldatasize\n      sub\n      dup2\n      add\n      swap1\n      tag_88\n      swap2\n      swap1\n      tag_72\n      jump\t// in\n    tag_88:\n      tag_89\n      jump\t// in\n    tag_87:\n      mload(0x40)\n      tag_90\n      swap2\n      swap1\n      tag_28\n      jump\t// in\n    tag_90:\n      mload(0x40)\n      dup1\n      swap2\n      sub\n      swap1\n      return\n        /* \"contracts/KipuBank.sol\":1167:1189  uint256 public bankCap */\n    tag_18:\n      callvalue\n      dup1\n      iszero\n      tag_91\n      jumpi\n      revert(0x00, 0x00)\n    tag_91:\n      pop\n      tag_92\n      tag_93\n      jump\t// in\n    tag_92:\n      mload(0x40)\n      tag_94\n      swap2\n      swap1\n      tag_28\n      jump\t// in\n    tag_94:\n      mload(0x40)\n      dup1\n      swap2\n      sub\n      swap1\n      return\n        /* \"contracts/KipuBank.sol\":638:692  uint256 public constant MINIMUM_DEPOSIT =  0.001 ether */\n    tag_19:\n      callvalue\n      dup1\n      iszero\n      tag_95\n      jumpi\n      revert(0x00, 0x00)\n    tag_95:\n      pop\n      tag_96\n      tag_97\n      jump\t// in\n    tag_96:\n      mload(0x40)\n      tag_98\n      swap2\n      swap1\n      tag_28\n      jump\t// in\n    tag_98:\n      mload(0x40)\n      dup1\n      swap2\n      sub\n      swap1\n      return\n        /* \"contracts/KipuBank.sol\":12129:12232  function getBalance(address user) external view returns (uint256){... */\n    tag_20:\n      callvalue\n      dup1\n      iszero\n      tag_99\n      jumpi\n      revert(0x00, 0x00)\n    tag_99:\n      pop\n      tag_100\n      0x04\n      dup1\n      calldatasize\n      sub\n      dup2\n      add\n      swap1\n      tag_101\n      swap2\n      swap1\n      tag_72\n      jump\t// in\n    tag_101:\n      tag_102\n      jump\t// in\n    tag_100:\n      mload(0x40)\n      tag_103\n      swap2\n      swap1\n      tag_28\n      jump\t// in\n    tag_103:\n      mload(0x40)\n      dup1\n      swap2\n      sub\n      swap1\n      return\n        /* \"contracts/KipuBank.sol\":1576:1603  uint256 public depositCount */\n    tag_26:\n      sload(0x02)\n      dup2\n      jump\t// out\n        /* \"contracts/KipuBank.sol\":8990:9682  function withdraw(uint256 amount) external validAmount(amount){... */\n    tag_33:\n        /* \"contracts/KipuBank.sol\":9045:9051  amount */\n      dup1\n        /* \"contracts/KipuBank.sol\":6137:6138  0 */\n      0x00\n        /* \"contracts/KipuBank.sol\":6127:6133  amount */\n      dup2\n        /* \"contracts/KipuBank.sol\":6127:6138  amount == 0 */\n      sub\n        /* \"contracts/KipuBank.sol\":6123:6172  if (amount == 0) revert InvalidWithdrawalAmount() */\n      tag_105\n      jumpi\n        /* \"contracts/KipuBank.sol\":6147:6172  InvalidWithdrawalAmount() */\n      mload(0x40)\n      0x9abc749100000000000000000000000000000000000000000000000000000000\n      dup2\n      mstore\n      0x04\n      add\n      mload(0x40)\n      dup1\n      swap2\n      sub\n      swap1\n      revert\n        /* \"contracts/KipuBank.sol\":6123:6172  if (amount == 0) revert InvalidWithdrawalAmount() */\n    tag_105:\n        /* \"contracts/KipuBank.sol\":9134:9140  amount */\n      dup2\n        /* \"contracts/KipuBank.sol\":9113:9119  vaults */\n      0x05\n        /* \"contracts/KipuBank.sol\":9113:9131  vaults[msg.sender] */\n      0x00\n        /* \"contracts/KipuBank.sol\":9120:9130  msg.sender */\n      caller\n        /* \"contracts/KipuBank.sol\":9113:9131  vaults[msg.sender] */\n      0xffffffffffffffffffffffffffffffffffffffff\n      and\n      0xffffffffffffffffffffffffffffffffffffffff\n      and\n      dup2\n      mstore\n      0x20\n      add\n      swap1\n      dup2\n      mstore\n      0x20\n      add\n      0x00\n      keccak256\n      sload\n        /* \"contracts/KipuBank.sol\":9113:9140  vaults[msg.sender] < amount */\n      lt\n        /* \"contracts/KipuBank.sol\":9109:9170  if (vaults[msg.sender] < amount) revert InsufficientBalance() */\n      iszero\n      tag_107\n      jumpi\n        /* \"contracts/KipuBank.sol\":9149:9170  InsufficientBalance() */\n      mload(0x40)\n      0xf4d678b800000000000000000000000000000000000000000000000000000000\n      dup2\n      mstore\n      0x04\n      add\n      mload(0x40)\n      dup1\n      swap2\n      sub\n      swap1\n      revert\n        /* \"contracts/KipuBank.sol\":9109:9170  if (vaults[msg.sender] < amount) revert InsufficientBalance() */\n    tag_107:\n        /* \"contracts/KipuBank.sol\":9193:9209  WITHDRAWAL_LIMIT */\n      immutable(\"0xceebf77a833b30520287ddd9478ff51abbdffa30aa90a8d655dba0e8a79ce0c1\")\n        /* \"contracts/KipuBank.sol\":9184:9190  amount */\n      dup3\n        /* \"contracts/KipuBank.sol\":9184:9209  amount > WITHDRAWAL_LIMIT */\n      gt\n        /* \"contracts/KipuBank.sol\":9181:9243  if(amount > WITHDRAWAL_LIMIT) revert WithdrawalLimitExceeded() */\n      iszero\n      tag_108\n      jumpi\n        /* \"contracts/KipuBank.sol\":9218:9243  WithdrawalLimitExceeded() */\n      mload(0x40)\n      0x4e6a369600000000000000000000000000000000000000000000000000000000\n      dup2\n      mstore\n      0x04\n      add\n      mload(0x40)\n      dup1\n      swap2\n      sub\n      swap1\n      revert\n        /* \"contracts/KipuBank.sol\":9181:9243  if(amount > WITHDRAWAL_LIMIT) revert WithdrawalLimitExceeded() */\n    tag_108:\n        /* \"contracts/KipuBank.sol\":9365:9371  amount */\n      dup2\n        /* \"contracts/KipuBank.sol\":9343:9349  vaults */\n      0x05\n        /* \"contracts/KipuBank.sol\":9343:9361  vaults[msg.sender] */\n      0x00\n        /* \"contracts/KipuBank.sol\":9350:9360  msg.sender */\n      caller\n        /* \"contracts/KipuBank.sol\":9343:9361  vaults[msg.sender] */\n      0xffffffffffffffffffffffffffffffffffffffff\n      and\n      0xffffffffffffffffffffffffffffffffffffffff\n      and\n      dup2\n      mstore\n      0x20\n      add\n      swap1\n      dup2\n      mstore\n      0x20\n      add\n      0x00\n      keccak256\n      0x00\n        /* \"contracts/KipuBank.sol\":9343:9371  vaults[msg.sender] -= amount */\n      dup3\n      dup3\n      sload\n      tag_109\n      swap2\n      swap1\n      tag_110\n      jump\t// in\n    tag_109:\n      swap3\n      pop\n      pop\n      dup2\n      swap1\n      sstore\n      pop\n        /* \"contracts/KipuBank.sol\":9399:9405  amount */\n      dup2\n        /* \"contracts/KipuBank.sol\":9382:9395  totalDeposits */\n      0x01\n      0x00\n        /* \"contracts/KipuBank.sol\":9382:9405  totalDeposits -= amount */\n      dup3\n      dup3\n      sload\n      tag_111\n      swap2\n      swap1\n      tag_110\n      jump\t// in\n    tag_111:\n      swap3\n      pop\n      pop\n      dup2\n      swap1\n      sstore\n      pop\n        /* \"contracts/KipuBank.sol\":9483:9513  _sendEther(msg.sender, amount) */\n      tag_112\n        /* \"contracts/KipuBank.sol\":9494:9504  msg.sender */\n      caller\n        /* \"contracts/KipuBank.sol\":9506:9512  amount */\n      dup4\n        /* \"contracts/KipuBank.sol\":9483:9493  _sendEther */\n      tag_113\n        /* \"contracts/KipuBank.sol\":9483:9513  _sendEther(msg.sender, amount) */\n      jump\t// in\n    tag_112:\n        /* \"contracts/KipuBank.sol\":9524:9539  withdrawalCount */\n      0x03\n      0x00\n        /* \"contracts/KipuBank.sol\":9524:9541  withdrawalCount++ */\n      dup2\n      sload\n      dup1\n      swap3\n      swap2\n      swap1\n      tag_114\n      swap1\n      tag_115\n      jump\t// in\n    tag_114:\n      swap2\n      swap1\n      pop\n      sstore\n      pop\n        /* \"contracts/KipuBank.sol\":9635:9645  msg.sender */\n      caller\n        /* \"contracts/KipuBank.sol\":9624:9674  Withdrawal(msg.sender, amount, vaults[msg.sender]) */\n      0xffffffffffffffffffffffffffffffffffffffff\n      and\n      0xdf273cb619d95419a9cd0ec88123a0538c85064229baa6363788f743fff90deb\n        /* \"contracts/KipuBank.sol\":9647:9653  amount */\n      dup4\n        /* \"contracts/KipuBank.sol\":9655:9661  vaults */\n      0x05\n        /* \"contracts/KipuBank.sol\":9655:9673  vaults[msg.sender] */\n      0x00\n        /* \"contracts/KipuBank.sol\":9662:9672  msg.sender */\n      caller\n        /* \"contracts/KipuBank.sol\":9655:9673  vaults[msg.sender] */\n      0xffffffffffffffffffffffffffffffffffffffff\n      and\n      0xffffffffffffffffffffffffffffffffffffffff\n      and\n      dup2\n      mstore\n      0x20\n      add\n      swap1\n      dup2\n      mstore\n      0x20\n      add\n      0x00\n      keccak256\n      sload\n        /* \"contracts/KipuBank.sol\":9624:9674  Withdrawal(msg.sender, amount, vaults[msg.sender]) */\n      mload(0x40)\n      tag_116\n      swap3\n      swap2\n      swap1\n      tag_117\n      jump\t// in\n    tag_116:\n      mload(0x40)\n      dup1\n      swap2\n      sub\n      swap1\n      log2\n        /* \"contracts/KipuBank.sol\":8990:9682  function withdraw(uint256 amount) external validAmount(amount){... */\n      pop\n      pop\n      jump\t// out\n        /* \"contracts/KipuBank.sol\":11586:11693  function unpause() external onlyOwner {... */\n    tag_36:\n        /* \"contracts/KipuBank.sol\":6642:6647  owner */\n      immutable(\"0x7f8b6b088b6d74c2852fc86c796dca07b44eed6fb3daf5e6b59f7c364db14528\")\n        /* \"contracts/KipuBank.sol\":6628:6647  msg.sender != owner */\n      0xffffffffffffffffffffffffffffffffffffffff\n      and\n        /* \"contracts/KipuBank.sol\":6628:6638  msg.sender */\n      caller\n        /* \"contracts/KipuBank.sol\":6628:6647  msg.sender != owner */\n      0xffffffffffffffffffffffffffffffffffffffff\n      and\n      eq\n        /* \"contracts/KipuBank.sol\":6624:6667  if (msg.sender != owner) revert OnlyOwner() */\n      tag_119\n      jumpi\n        /* \"contracts/KipuBank.sol\":6656:6667  OnlyOwner() */\n      mload(0x40)\n      0x5fc483c500000000000000000000000000000000000000000000000000000000\n      dup2\n      mstore\n      0x04\n      add\n      mload(0x40)\n      dup1\n      swap2\n      sub\n      swap1\n      revert\n        /* \"contracts/KipuBank.sol\":6624:6667  if (msg.sender != owner) revert OnlyOwner() */\n    tag_119:\n        /* \"contracts/KipuBank.sol\":11644:11649  false */\n      0x00\n        /* \"contracts/KipuBank.sol\":11635:11641  paused */\n      0x04\n      0x00\n        /* \"contracts/KipuBank.sol\":11635:11649  paused = false */\n      0x0100\n      exp\n      dup2\n      sload\n      dup2\n      0xff\n      mul\n      not\n      and\n      swap1\n      dup4\n      iszero\n      iszero\n      mul\n      or\n      swap1\n      sstore\n      pop\n        /* \"contracts/KipuBank.sol\":11674:11684  msg.sender */\n      caller\n        /* \"contracts/KipuBank.sol\":11665:11685  Unpaused(msg.sender) */\n      0xffffffffffffffffffffffffffffffffffffffff\n      and\n      0x5db9ee0a495bf2e6ff9c91a7834c1ba4fdd244a5e8aa4e537bd38aeae4b073aa\n      mload(0x40)\n      mload(0x40)\n      dup1\n      swap2\n      sub\n      swap1\n      log2\n        /* \"contracts/KipuBank.sol\":11586:11693  function unpause() external onlyOwner {... */\n      jump\t// out\n        /* \"contracts/KipuBank.sol\":12456:12556  function getMyBalance() external view returns (uint256) {... */\n    tag_39:\n        /* \"contracts/KipuBank.sol\":12503:12510  uint256 */\n      0x00\n        /* \"contracts/KipuBank.sol\":12530:12536  vaults */\n      0x05\n        /* \"contracts/KipuBank.sol\":12530:12548  vaults[msg.sender] */\n      0x00\n        /* \"contracts/KipuBank.sol\":12537:12547  msg.sender */\n      caller\n        /* \"contracts/KipuBank.sol\":12530:12548  vaults[msg.sender] */\n      0xffffffffffffffffffffffffffffffffffffffff\n      and\n      0xffffffffffffffffffffffffffffffffffffffff\n      and\n      dup2\n      mstore\n      0x20\n      add\n      swap1\n      dup2\n      mstore\n      0x20\n      add\n      0x00\n      keccak256\n      sload\n        /* \"contracts/KipuBank.sol\":12523:12548  return vaults[msg.sender] */\n      swap1\n      pop\n        /* \"contracts/KipuBank.sol\":12456:12556  function getMyBalance() external view returns (uint256) {... */\n      swap1\n      jump\t// out\n        /* \"contracts/KipuBank.sol\":1979:1997  bool public paused */\n    tag_43:\n      0x04\n      0x00\n      swap1\n      sload\n      swap1\n      0x0100\n      exp\n      swap1\n      div\n      0xff\n      and\n      dup2\n      jump\t// out\n        /* \"contracts/KipuBank.sol\":1774:1804  uint256 public withdrawalCount */\n    tag_48:\n      sload(0x03)\n      dup2\n      jump\t// out\n        /* \"contracts/KipuBank.sol\":1362:1390  uint256 public totalDeposits */\n    tag_52:\n      sload(0x01)\n      dup2\n      jump\t// out\n        /* \"contracts/KipuBank.sol\":436:477  uint256 public immutable WITHDRAWAL_LIMIT */\n    tag_56:\n      immutable(\"0xceebf77a833b30520287ddd9478ff51abbdffa30aa90a8d655dba0e8a79ce0c1\")\n      dup2\n      jump\t// out\n        /* \"contracts/KipuBank.sol\":11291:11393  function pause() external onlyOwner {... */\n    tag_60:\n        /* \"contracts/KipuBank.sol\":6642:6647  owner */\n      immutable(\"0x7f8b6b088b6d74c2852fc86c796dca07b44eed6fb3daf5e6b59f7c364db14528\")\n        /* \"contracts/KipuBank.sol\":6628:6647  msg.sender != owner */\n      0xffffffffffffffffffffffffffffffffffffffff\n      and\n        /* \"contracts/KipuBank.sol\":6628:6638  msg.sender */\n      caller\n        /* \"contracts/KipuBank.sol\":6628:6647  msg.sender != owner */\n      0xffffffffffffffffffffffffffffffffffffffff\n      and\n      eq\n        /* \"contracts/KipuBank.sol\":6624:6667  if (msg.sender != owner) revert OnlyOwner() */\n      tag_123\n      jumpi\n        /* \"contracts/KipuBank.sol\":6656:6667  OnlyOwner() */\n      mload(0x40)\n      0x5fc483c500000000000000000000000000000000000000000000000000000000\n      dup2\n      mstore\n      0x04\n      add\n      mload(0x40)\n      dup1\n      swap2\n      sub\n      swap1\n      revert\n        /* \"contracts/KipuBank.sol\":6624:6667  if (msg.sender != owner) revert OnlyOwner() */\n    tag_123:\n        /* \"contracts/KipuBank.sol\":11347:11351  true */\n      0x01\n        /* \"contracts/KipuBank.sol\":11338:11344  paused */\n      0x04\n      0x00\n        /* \"contracts/KipuBank.sol\":11338:11351  paused = true */\n      0x0100\n      exp\n      dup2\n      sload\n      dup2\n      0xff\n      mul\n      not\n      and\n      swap1\n      dup4\n      iszero\n      iszero\n      mul\n      or\n      swap1\n      sstore\n      pop\n        /* \"contracts/KipuBank.sol\":11374:11384  msg.sender */\n      caller\n        /* \"contracts/KipuBank.sol\":11367:11385  Paused(msg.sender) */\n      0xffffffffffffffffffffffffffffffffffffffff\n      and\n      0x62e78cea01bee320cd4e420270b5ea74000d11b0c9f74754ebdbfc544b05a258\n      mload(0x40)\n      mload(0x40)\n      dup1\n      swap2\n      sub\n      swap1\n      log2\n        /* \"contracts/KipuBank.sol\":11291:11393  function pause() external onlyOwner {... */\n      jump\t// out\n        /* \"contracts/KipuBank.sol\":10185:11028  function withdrawAll() external whenNotPaused {... */\n    tag_63:\n        /* \"contracts/KipuBank.sol\":6384:6390  paused */\n      0x04\n      0x00\n      swap1\n      sload\n      swap1\n      0x0100\n      exp\n      swap1\n      div\n      0xff\n      and\n        /* \"contracts/KipuBank.sol\":6380:6415  if (paused) revert ContractPaused() */\n      iszero\n      tag_126\n      jumpi\n        /* \"contracts/KipuBank.sol\":6399:6415  ContractPaused() */\n      mload(0x40)\n      0xab35696f00000000000000000000000000000000000000000000000000000000\n      dup2\n      mstore\n      0x04\n      add\n      mload(0x40)\n      dup1\n      swap2\n      sub\n      swap1\n      revert\n        /* \"contracts/KipuBank.sol\":6380:6415  if (paused) revert ContractPaused() */\n    tag_126:\n        /* \"contracts/KipuBank.sol\":10242:10261  uint256 userBalance */\n      0x00\n        /* \"contracts/KipuBank.sol\":10264:10270  vaults */\n      0x05\n        /* \"contracts/KipuBank.sol\":10264:10282  vaults[msg.sender] */\n      0x00\n        /* \"contracts/KipuBank.sol\":10271:10281  msg.sender */\n      caller\n        /* \"contracts/KipuBank.sol\":10264:10282  vaults[msg.sender] */\n      0xffffffffffffffffffffffffffffffffffffffff\n      and\n      0xffffffffffffffffffffffffffffffffffffffff\n      and\n      dup2\n      mstore\n      0x20\n      add\n      swap1\n      dup2\n      mstore\n      0x20\n      add\n      0x00\n      keccak256\n      sload\n        /* \"contracts/KipuBank.sol\":10242:10282  uint256 userBalance = vaults[msg.sender] */\n      swap1\n      pop\n        /* \"contracts/KipuBank.sol\":10378:10379  0 */\n      0x00\n        /* \"contracts/KipuBank.sol\":10363:10374  userBalance */\n      dup2\n        /* \"contracts/KipuBank.sol\":10363:10379  userBalance == 0 */\n      sub\n        /* \"contracts/KipuBank.sol\":10359:10409  if (userBalance == 0) revert InsufficientBalance() */\n      tag_128\n      jumpi\n        /* \"contracts/KipuBank.sol\":10388:10409  InsufficientBalance() */\n      mload(0x40)\n      0xf4d678b800000000000000000000000000000000000000000000000000000000\n      dup2\n      mstore\n      0x04\n      add\n      mload(0x40)\n      dup1\n      swap2\n      sub\n      swap1\n      revert\n        /* \"contracts/KipuBank.sol\":10359:10409  if (userBalance == 0) revert InsufficientBalance() */\n    tag_128:\n        /* \"contracts/KipuBank.sol\":10507:10531  uint256 amountToWithdraw */\n      0x00\n        /* \"contracts/KipuBank.sol\":10548:10564  WITHDRAWAL_LIMIT */\n      immutable(\"0xceebf77a833b30520287ddd9478ff51abbdffa30aa90a8d655dba0e8a79ce0c1\")\n        /* \"contracts/KipuBank.sol\":10534:10545  userBalance */\n      dup3\n        /* \"contracts/KipuBank.sol\":10534:10564  userBalance > WITHDRAWAL_LIMIT */\n      gt\n        /* \"contracts/KipuBank.sol\":10534:10625  userBalance > WITHDRAWAL_LIMIT ... */\n      tag_129\n      jumpi\n        /* \"contracts/KipuBank.sol\":10614:10625  userBalance */\n      dup2\n        /* \"contracts/KipuBank.sol\":10534:10625  userBalance > WITHDRAWAL_LIMIT ... */\n      jump(tag_130)\n    tag_129:\n        /* \"contracts/KipuBank.sol\":10581:10597  WITHDRAWAL_LIMIT */\n      immutable(\"0xceebf77a833b30520287ddd9478ff51abbdffa30aa90a8d655dba0e8a79ce0c1\")\n        /* \"contracts/KipuBank.sol\":10534:10625  userBalance > WITHDRAWAL_LIMIT ... */\n    tag_130:\n        /* \"contracts/KipuBank.sol\":10507:10625  uint256 amountToWithdraw = userBalance > WITHDRAWAL_LIMIT ... */\n      swap1\n      pop\n        /* \"contracts/KipuBank.sol\":10737:10753  amountToWithdraw */\n      dup1\n        /* \"contracts/KipuBank.sol\":10715:10721  vaults */\n      0x05\n        /* \"contracts/KipuBank.sol\":10715:10733  vaults[msg.sender] */\n      0x00\n        /* \"contracts/KipuBank.sol\":10722:10732  msg.sender */\n      caller\n        /* \"contracts/KipuBank.sol\":10715:10733  vaults[msg.sender] */\n      0xffffffffffffffffffffffffffffffffffffffff\n      and\n      0xffffffffffffffffffffffffffffffffffffffff\n      and\n      dup2\n      mstore\n      0x20\n      add\n      swap1\n      dup2\n      mstore\n      0x20\n      add\n      0x00\n      keccak256\n      0x00\n        /* \"contracts/KipuBank.sol\":10715:10753  vaults[msg.sender] -= amountToWithdraw */\n      dup3\n      dup3\n      sload\n      tag_131\n      swap2\n      swap1\n      tag_110\n      jump\t// in\n    tag_131:\n      swap3\n      pop\n      pop\n      dup2\n      swap1\n      sstore\n      pop\n        /* \"contracts/KipuBank.sol\":10781:10797  amountToWithdraw */\n      dup1\n        /* \"contracts/KipuBank.sol\":10764:10777  totalDeposits */\n      0x01\n      0x00\n        /* \"contracts/KipuBank.sol\":10764:10797  totalDeposits -= amountToWithdraw */\n      dup3\n      dup3\n      sload\n      tag_132\n      swap2\n      swap1\n      tag_110\n      jump\t// in\n    tag_132:\n      swap3\n      pop\n      pop\n      dup2\n      swap1\n      sstore\n      pop\n        /* \"contracts/KipuBank.sol\":10808:10823  withdrawalCount */\n      0x03\n      0x00\n        /* \"contracts/KipuBank.sol\":10808:10825  withdrawalCount++ */\n      dup2\n      sload\n      dup1\n      swap3\n      swap2\n      swap1\n      tag_133\n      swap1\n      tag_115\n      jump\t// in\n    tag_133:\n      swap2\n      swap1\n      pop\n      sstore\n      pop\n        /* \"contracts/KipuBank.sol\":10894:10934  _sendEther(msg.sender, amountToWithdraw) */\n      tag_134\n        /* \"contracts/KipuBank.sol\":10905:10915  msg.sender */\n      caller\n        /* \"contracts/KipuBank.sol\":10917:10933  amountToWithdraw */\n      dup3\n        /* \"contracts/KipuBank.sol\":10894:10904  _sendEther */\n      tag_113\n        /* \"contracts/KipuBank.sol\":10894:10934  _sendEther(msg.sender, amountToWithdraw) */\n      jump\t// in\n    tag_134:\n        /* \"contracts/KipuBank.sol\":10971:10981  msg.sender */\n      caller\n        /* \"contracts/KipuBank.sol\":10960:11020  Withdrawal(msg.sender, amountToWithdraw, vaults[msg.sender]) */\n      0xffffffffffffffffffffffffffffffffffffffff\n      and\n      0xdf273cb619d95419a9cd0ec88123a0538c85064229baa6363788f743fff90deb\n        /* \"contracts/KipuBank.sol\":10983:10999  amountToWithdraw */\n      dup3\n        /* \"contracts/KipuBank.sol\":11001:11007  vaults */\n      0x05\n        /* \"contracts/KipuBank.sol\":11001:11019  vaults[msg.sender] */\n      0x00\n        /* \"contracts/KipuBank.sol\":11008:11018  msg.sender */\n      caller\n        /* \"contracts/KipuBank.sol\":11001:11019  vaults[msg.sender] */\n      0xffffffffffffffffffffffffffffffffffffffff\n      and\n      0xffffffffffffffffffffffffffffffffffffffff\n      and\n      dup2\n      mstore\n      0x20\n      add\n      swap1\n      dup2\n      mstore\n      0x20\n      add\n      0x00\n      keccak256\n      sload\n        /* \"contracts/KipuBank.sol\":10960:11020  Withdrawal(msg.sender, amountToWithdraw, vaults[msg.sender]) */\n      mload(0x40)\n      tag_135\n      swap3\n      swap2\n      swap1\n      tag_117\n      jump\t// in\n    tag_135:\n      mload(0x40)\n      dup1\n      swap2\n      sub\n      swap1\n      log2\n        /* \"contracts/KipuBank.sol\":10231:11028  {... */\n      pop\n      pop\n        /* \"contracts/KipuBank.sol\":10185:11028  function withdrawAll() external whenNotPaused {... */\n      jump\t// out\n        /* \"contracts/KipuBank.sol\":843:873  address public immutable owner */\n    tag_66:\n      immutable(\"0x7f8b6b088b6d74c2852fc86c796dca07b44eed6fb3daf5e6b59f7c364db14528\")\n      dup2\n      jump\t// out\n        /* \"contracts/KipuBank.sol\":2246:2287  mapping(address => uint256) public vaults */\n    tag_73:\n      mstore(0x20, 0x05)\n      dup1\n      0x00\n      mstore\n      keccak256(0x00, 0x40)\n      0x00\n      swap2\n      pop\n      swap1\n      pop\n      sload\n      dup2\n      jump\t// out\n        /* \"contracts/KipuBank.sol\":13690:13771  function isPaused() external view returns (bool) {... */\n    tag_77:\n        /* \"contracts/KipuBank.sol\":13733:13737  bool */\n      0x00\n        /* \"contracts/KipuBank.sol\":13757:13763  paused */\n      0x04\n      0x00\n      swap1\n      sload\n      swap1\n      0x0100\n      exp\n      swap1\n      div\n      0xff\n      and\n        /* \"contracts/KipuBank.sol\":13750:13763  return paused */\n      swap1\n      pop\n        /* \"contracts/KipuBank.sol\":13690:13771  function isPaused() external view returns (bool) {... */\n      swap1\n      jump\t// out\n        /* \"contracts/KipuBank.sol\":13179:13530  function getBankStats() external view returns (... */\n    tag_81:\n        /* \"contracts/KipuBank.sol\":13236:13258  uint256 _totalDeposits */\n      0x00\n        /* \"contracts/KipuBank.sol\":13269:13290  uint256 _depositCount */\n      0x00\n        /* \"contracts/KipuBank.sol\":13301:13325  uint256 _withdrawalCount */\n      0x00\n        /* \"contracts/KipuBank.sol\":13336:13362  uint256 _availableCapacity */\n      0x00\n        /* \"contracts/KipuBank.sol\":13403:13416  totalDeposits */\n      sload(0x01)\n        /* \"contracts/KipuBank.sol\":13431:13443  depositCount */\n      sload(0x02)\n        /* \"contracts/KipuBank.sol\":13458:13473  withdrawalCount */\n      sload(0x03)\n        /* \"contracts/KipuBank.sol\":13498:13511  totalDeposits */\n      sload(0x01)\n        /* \"contracts/KipuBank.sol\":13488:13495  bankCap */\n      sload(0x00)\n        /* \"contracts/KipuBank.sol\":13488:13511  bankCap - totalDeposits */\n      tag_138\n      swap2\n      swap1\n      tag_110\n      jump\t// in\n    tag_138:\n        /* \"contracts/KipuBank.sol\":13381:13522  return (... */\n      swap4\n      pop\n      swap4\n      pop\n      swap4\n      pop\n      swap4\n      pop\n        /* \"contracts/KipuBank.sol\":13179:13530  function getBankStats() external view returns (... */\n      swap1\n      swap2\n      swap3\n      swap4\n      jump\t// out\n        /* \"contracts/KipuBank.sol\":7481:8018  function deposit() external payable {... */\n    tag_85:\n        /* \"contracts/KipuBank.sol\":681:692  0.001 ether */\n      0x038d7ea4c68000\n        /* \"contracts/KipuBank.sol\":7576:7585  msg.value */\n      callvalue\n        /* \"contracts/KipuBank.sol\":7576:7603  msg.value < MINIMUM_DEPOSIT */\n      lt\n        /* \"contracts/KipuBank.sol\":7572:7629  if (msg.value < MINIMUM_DEPOSIT) revert DepositTooSmall() */\n      iszero\n      tag_140\n      jumpi\n        /* \"contracts/KipuBank.sol\":7612:7629  DepositTooSmall() */\n      mload(0x40)\n      0x6ba4a1c700000000000000000000000000000000000000000000000000000000\n      dup2\n      mstore\n      0x04\n      add\n      mload(0x40)\n      dup1\n      swap2\n      sub\n      swap1\n      revert\n        /* \"contracts/KipuBank.sol\":7572:7629  if (msg.value < MINIMUM_DEPOSIT) revert DepositTooSmall() */\n    tag_140:\n        /* \"contracts/KipuBank.sol\":7672:7679  bankCap */\n      sload(0x00)\n        /* \"contracts/KipuBank.sol\":7660:7669  msg.value */\n      callvalue\n        /* \"contracts/KipuBank.sol\":7644:7657  totalDeposits */\n      sload(0x01)\n        /* \"contracts/KipuBank.sol\":7644:7669  totalDeposits + msg.value */\n      tag_141\n      swap2\n      swap1\n      tag_142\n      jump\t// in\n    tag_141:\n        /* \"contracts/KipuBank.sol\":7644:7679  totalDeposits + msg.value > bankCap */\n      gt\n        /* \"contracts/KipuBank.sol\":7640:7705  if (totalDeposits + msg.value > bankCap) revert BankCapExceeded() */\n      iszero\n      tag_143\n      jumpi\n        /* \"contracts/KipuBank.sol\":7688:7705  BankCapExceeded() */\n      mload(0x40)\n      0x448f3ca800000000000000000000000000000000000000000000000000000000\n      dup2\n      mstore\n      0x04\n      add\n      mload(0x40)\n      dup1\n      swap2\n      sub\n      swap1\n      revert\n        /* \"contracts/KipuBank.sol\":7640:7705  if (totalDeposits + msg.value > bankCap) revert BankCapExceeded() */\n    tag_143:\n        /* \"contracts/KipuBank.sol\":7808:7817  msg.value */\n      callvalue\n        /* \"contracts/KipuBank.sol\":7786:7792  vaults */\n      0x05\n        /* \"contracts/KipuBank.sol\":7786:7804  vaults[msg.sender] */\n      0x00\n        /* \"contracts/KipuBank.sol\":7793:7803  msg.sender */\n      caller\n        /* \"contracts/KipuBank.sol\":7786:7804  vaults[msg.sender] */\n      0xffffffffffffffffffffffffffffffffffffffff\n      and\n      0xffffffffffffffffffffffffffffffffffffffff\n      and\n      dup2\n      mstore\n      0x20\n      add\n      swap1\n      dup2\n      mstore\n      0x20\n      add\n      0x00\n      keccak256\n      0x00\n        /* \"contracts/KipuBank.sol\":7786:7817  vaults[msg.sender] += msg.value */\n      dup3\n      dup3\n      sload\n      tag_144\n      swap2\n      swap1\n      tag_142\n      jump\t// in\n    tag_144:\n      swap3\n      pop\n      pop\n      dup2\n      swap1\n      sstore\n      pop\n        /* \"contracts/KipuBank.sol\":7845:7854  msg.value */\n      callvalue\n        /* \"contracts/KipuBank.sol\":7828:7841  totalDeposits */\n      0x01\n      0x00\n        /* \"contracts/KipuBank.sol\":7828:7854  totalDeposits += msg.value */\n      dup3\n      dup3\n      sload\n      tag_145\n      swap2\n      swap1\n      tag_142\n      jump\t// in\n    tag_145:\n      swap3\n      pop\n      pop\n      dup2\n      swap1\n      sstore\n      pop\n        /* \"contracts/KipuBank.sol\":7865:7877  depositCount */\n      0x02\n      0x00\n        /* \"contracts/KipuBank.sol\":7865:7879  depositCount++ */\n      dup2\n      sload\n      dup1\n      swap3\n      swap2\n      swap1\n      tag_146\n      swap1\n      tag_115\n      jump\t// in\n    tag_146:\n      swap2\n      swap1\n      pop\n      sstore\n      pop\n        /* \"contracts/KipuBank.sol\":7968:7978  msg.sender */\n      caller\n        /* \"contracts/KipuBank.sol\":7960:8010  Deposit(msg.sender, msg.value, vaults[msg.sender]) */\n      0xffffffffffffffffffffffffffffffffffffffff\n      and\n      0x90890809c654f11d6e72a28fa60149770a0d11ec6c92319d6ceb2bb0a4ea1a15\n        /* \"contracts/KipuBank.sol\":7980:7989  msg.value */\n      callvalue\n        /* \"contracts/KipuBank.sol\":7991:7997  vaults */\n      0x05\n        /* \"contracts/KipuBank.sol\":7991:8009  vaults[msg.sender] */\n      0x00\n        /* \"contracts/KipuBank.sol\":7998:8008  msg.sender */\n      caller\n        /* \"contracts/KipuBank.sol\":7991:8009  vaults[msg.sender] */\n      0xffffffffffffffffffffffffffffffffffffffff\n      and\n      0xffffffffffffffffffffffffffffffffffffffff\n      and\n      dup2\n      mstore\n      0x20\n      add\n      swap1\n      dup2\n      mstore\n      0x20\n      add\n      0x00\n      keccak256\n      sload\n        /* \"contracts/KipuBank.sol\":7960:8010  Deposit(msg.sender, msg.value, vaults[msg.sender]) */\n      mload(0x40)\n      tag_147\n      swap3\n      swap2\n      swap1\n      tag_117\n      jump\t// in\n    tag_147:\n      mload(0x40)\n      dup1\n      swap2\n      sub\n      swap1\n      log2\n        /* \"contracts/KipuBank.sol\":7481:8018  function deposit() external payable {... */\n      jump\t// out\n        /* \"contracts/KipuBank.sol\":14036:14242  function getMaxWithdrawal(address user) external view returns (uint256) {... */\n    tag_89:\n        /* \"contracts/KipuBank.sol\":14099:14106  uint256 */\n      0x00\n        /* \"contracts/KipuBank.sol\":14119:14138  uint256 userBalance */\n      0x00\n        /* \"contracts/KipuBank.sol\":14141:14147  vaults */\n      0x05\n        /* \"contracts/KipuBank.sol\":14141:14153  vaults[user] */\n      0x00\n        /* \"contracts/KipuBank.sol\":14148:14152  user */\n      dup5\n        /* \"contracts/KipuBank.sol\":14141:14153  vaults[user] */\n      0xffffffffffffffffffffffffffffffffffffffff\n      and\n      0xffffffffffffffffffffffffffffffffffffffff\n      and\n      dup2\n      mstore\n      0x20\n      add\n      swap1\n      dup2\n      mstore\n      0x20\n      add\n      0x00\n      keccak256\n      sload\n        /* \"contracts/KipuBank.sol\":14119:14153  uint256 userBalance = vaults[user] */\n      swap1\n      pop\n        /* \"contracts/KipuBank.sol\":14185:14201  WITHDRAWAL_LIMIT */\n      immutable(\"0xceebf77a833b30520287ddd9478ff51abbdffa30aa90a8d655dba0e8a79ce0c1\")\n        /* \"contracts/KipuBank.sol\":14171:14182  userBalance */\n      dup2\n        /* \"contracts/KipuBank.sol\":14171:14201  userBalance > WITHDRAWAL_LIMIT */\n      gt\n        /* \"contracts/KipuBank.sol\":14171:14234  userBalance > WITHDRAWAL_LIMIT ? WITHDRAWAL_LIMIT : userBalance */\n      tag_149\n      jumpi\n        /* \"contracts/KipuBank.sol\":14223:14234  userBalance */\n      dup1\n        /* \"contracts/KipuBank.sol\":14171:14234  userBalance > WITHDRAWAL_LIMIT ? WITHDRAWAL_LIMIT : userBalance */\n      jump(tag_150)\n    tag_149:\n        /* \"contracts/KipuBank.sol\":14204:14220  WITHDRAWAL_LIMIT */\n      immutable(\"0xceebf77a833b30520287ddd9478ff51abbdffa30aa90a8d655dba0e8a79ce0c1\")\n        /* \"contracts/KipuBank.sol\":14171:14234  userBalance > WITHDRAWAL_LIMIT ? WITHDRAWAL_LIMIT : userBalance */\n    tag_150:\n        /* \"contracts/KipuBank.sol\":14164:14234  return userBalance > WITHDRAWAL_LIMIT ? WITHDRAWAL_LIMIT : userBalance */\n      swap2\n      pop\n      pop\n        /* \"contracts/KipuBank.sol\":14036:14242  function getMaxWithdrawal(address user) external view returns (uint256) {... */\n      swap2\n      swap1\n      pop\n      jump\t// out\n        /* \"contracts/KipuBank.sol\":1167:1189  uint256 public bankCap */\n    tag_93:\n      sload(0x00)\n      dup2\n      jump\t// out\n        /* \"contracts/KipuBank.sol\":638:692  uint256 public constant MINIMUM_DEPOSIT =  0.001 ether */\n    tag_97:\n        /* \"contracts/KipuBank.sol\":681:692  0.001 ether */\n      0x038d7ea4c68000\n        /* \"contracts/KipuBank.sol\":638:692  uint256 public constant MINIMUM_DEPOSIT =  0.001 ether */\n      dup2\n      jump\t// out\n        /* \"contracts/KipuBank.sol\":12129:12232  function getBalance(address user) external view returns (uint256){... */\n    tag_102:\n        /* \"contracts/KipuBank.sol\":12186:12193  uint256 */\n      0x00\n        /* \"contracts/KipuBank.sol\":12212:12218  vaults */\n      0x05\n        /* \"contracts/KipuBank.sol\":12212:12224  vaults[user] */\n      0x00\n        /* \"contracts/KipuBank.sol\":12219:12223  user */\n      dup4\n        /* \"contracts/KipuBank.sol\":12212:12224  vaults[user] */\n      0xffffffffffffffffffffffffffffffffffffffff\n      and\n      0xffffffffffffffffffffffffffffffffffffffff\n      and\n      dup2\n      mstore\n      0x20\n      add\n      swap1\n      dup2\n      mstore\n      0x20\n      add\n      0x00\n      keccak256\n      sload\n        /* \"contracts/KipuBank.sol\":12205:12224  return vaults[user] */\n      swap1\n      pop\n        /* \"contracts/KipuBank.sol\":12129:12232  function getBalance(address user) external view returns (uint256){... */\n      swap2\n      swap1\n      pop\n      jump\t// out\n        /* \"contracts/KipuBank.sol\":14997:15165  function _sendEther(address to, uint256 amount) private {... */\n    tag_113:\n        /* \"contracts/KipuBank.sol\":15065:15077  bool success */\n      0x00\n        /* \"contracts/KipuBank.sol\":15083:15085  to */\n      dup3\n        /* \"contracts/KipuBank.sol\":15083:15090  to.call */\n      0xffffffffffffffffffffffffffffffffffffffff\n      and\n        /* \"contracts/KipuBank.sol\":15098:15104  amount */\n      dup3\n        /* \"contracts/KipuBank.sol\":15083:15109  to.call{value: amount}(\"\") */\n      mload(0x40)\n      tag_153\n      swap1\n      tag_154\n      jump\t// in\n    tag_153:\n      0x00\n      mload(0x40)\n      dup1\n      dup4\n      sub\n      dup2\n      dup6\n      dup8\n      gas\n      call\n      swap3\n      pop\n      pop\n      pop\n      returndatasize\n      dup1\n      0x00\n      dup2\n      eq\n      tag_157\n      jumpi\n      mload(0x40)\n      swap2\n      pop\n      and(add(returndatasize, 0x3f), not(0x1f))\n      dup3\n      add\n      0x40\n      mstore\n      returndatasize\n      dup3\n      mstore\n      returndatasize\n      0x00\n      0x20\n      dup5\n      add\n      returndatacopy\n      jump(tag_156)\n    tag_157:\n      0x60\n      swap2\n      pop\n    tag_156:\n      pop\n        /* \"contracts/KipuBank.sol\":15064:15109  (bool success, ) = to.call{value: amount}(\"\") */\n      pop\n      swap1\n      pop\n        /* \"contracts/KipuBank.sol\":15125:15132  success */\n      dup1\n        /* \"contracts/KipuBank.sol\":15120:15157  if (!success) revert TransferFailed() */\n      tag_158\n      jumpi\n        /* \"contracts/KipuBank.sol\":15141:15157  TransferFailed() */\n      mload(0x40)\n      0x90b8ec1800000000000000000000000000000000000000000000000000000000\n      dup2\n      mstore\n      0x04\n      add\n      mload(0x40)\n      dup1\n      swap2\n      sub\n      swap1\n      revert\n        /* \"contracts/KipuBank.sol\":15120:15157  if (!success) revert TransferFailed() */\n    tag_158:\n        /* \"contracts/KipuBank.sol\":15053:15165  {... */\n      pop\n        /* \"contracts/KipuBank.sol\":14997:15165  function _sendEther(address to, uint256 amount) private {... */\n      pop\n      pop\n      jump\t// out\n        /* \"#utility.yul\":7:84   */\n    tag_159:\n        /* \"#utility.yul\":44:51   */\n      0x00\n        /* \"#utility.yul\":73:78   */\n      dup2\n        /* \"#utility.yul\":62:78   */\n      swap1\n      pop\n        /* \"#utility.yul\":7:84   */\n      swap2\n      swap1\n      pop\n      jump\t// out\n        /* \"#utility.yul\":90:208   */\n    tag_160:\n        /* \"#utility.yul\":177:201   */\n      tag_180\n        /* \"#utility.yul\":195:200   */\n      dup2\n        /* \"#utility.yul\":177:201   */\n      tag_159\n      jump\t// in\n    tag_180:\n        /* \"#utility.yul\":172:175   */\n      dup3\n        /* \"#utility.yul\":165:202   */\n      mstore\n        /* \"#utility.yul\":90:208   */\n      pop\n      pop\n      jump\t// out\n        /* \"#utility.yul\":214:436   */\n    tag_28:\n        /* \"#utility.yul\":307:311   */\n      0x00\n        /* \"#utility.yul\":345:347   */\n      0x20\n        /* \"#utility.yul\":334:343   */\n      dup3\n        /* \"#utility.yul\":330:348   */\n      add\n        /* \"#utility.yul\":322:348   */\n      swap1\n      pop\n        /* \"#utility.yul\":358:429   */\n      tag_182\n        /* \"#utility.yul\":426:427   */\n      0x00\n        /* \"#utility.yul\":415:424   */\n      dup4\n        /* \"#utility.yul\":411:428   */\n      add\n        /* \"#utility.yul\":402:408   */\n      dup5\n        /* \"#utility.yul\":358:429   */\n      tag_160\n      jump\t// in\n    tag_182:\n        /* \"#utility.yul\":214:436   */\n      swap3\n      swap2\n      pop\n      pop\n      jump\t// out\n        /* \"#utility.yul\":523:640   */\n    tag_162:\n        /* \"#utility.yul\":632:633   */\n      0x00\n        /* \"#utility.yul\":629:630   */\n      0x00\n        /* \"#utility.yul\":622:634   */\n      revert\n        /* \"#utility.yul\":769:891   */\n    tag_164:\n        /* \"#utility.yul\":842:866   */\n      tag_187\n        /* \"#utility.yul\":860:865   */\n      dup2\n        /* \"#utility.yul\":842:866   */\n      tag_159\n      jump\t// in\n    tag_187:\n        /* \"#utility.yul\":835:840   */\n      dup2\n        /* \"#utility.yul\":832:867   */\n      eq\n        /* \"#utility.yul\":822:885   */\n      tag_188\n      jumpi\n        /* \"#utility.yul\":881:882   */\n      0x00\n        /* \"#utility.yul\":878:879   */\n      0x00\n        /* \"#utility.yul\":871:883   */\n      revert\n        /* \"#utility.yul\":822:885   */\n    tag_188:\n        /* \"#utility.yul\":769:891   */\n      pop\n      jump\t// out\n        /* \"#utility.yul\":897:1036   */\n    tag_165:\n        /* \"#utility.yul\":943:948   */\n      0x00\n        /* \"#utility.yul\":981:987   */\n      dup2\n        /* \"#utility.yul\":968:988   */\n      calldataload\n        /* \"#utility.yul\":959:988   */\n      swap1\n      pop\n        /* \"#utility.yul\":997:1030   */\n      tag_190\n        /* \"#utility.yul\":1024:1029   */\n      dup2\n        /* \"#utility.yul\":997:1030   */\n      tag_164\n      jump\t// in\n    tag_190:\n        /* \"#utility.yul\":897:1036   */\n      swap3\n      swap2\n      pop\n      pop\n      jump\t// out\n        /* \"#utility.yul\":1042:1371   */\n    tag_32:\n        /* \"#utility.yul\":1101:1107   */\n      0x00\n        /* \"#utility.yul\":1150:1152   */\n      0x20\n        /* \"#utility.yul\":1138:1147   */\n      dup3\n        /* \"#utility.yul\":1129:1136   */\n      dup5\n        /* \"#utility.yul\":1125:1148   */\n      sub\n        /* \"#utility.yul\":1121:1153   */\n      slt\n        /* \"#utility.yul\":1118:1237   */\n      iszero\n      tag_192\n      jumpi\n        /* \"#utility.yul\":1156:1235   */\n      tag_193\n      tag_162\n      jump\t// in\n    tag_193:\n        /* \"#utility.yul\":1118:1237   */\n    tag_192:\n        /* \"#utility.yul\":1276:1277   */\n      0x00\n        /* \"#utility.yul\":1301:1354   */\n      tag_194\n        /* \"#utility.yul\":1346:1353   */\n      dup5\n        /* \"#utility.yul\":1337:1343   */\n      dup3\n        /* \"#utility.yul\":1326:1335   */\n      dup6\n        /* \"#utility.yul\":1322:1344   */\n      add\n        /* \"#utility.yul\":1301:1354   */\n      tag_165\n      jump\t// in\n    tag_194:\n        /* \"#utility.yul\":1291:1354   */\n      swap2\n      pop\n        /* \"#utility.yul\":1247:1364   */\n      pop\n        /* \"#utility.yul\":1042:1371   */\n      swap3\n      swap2\n      pop\n      pop\n      jump\t// out\n        /* \"#utility.yul\":1377:1467   */\n    tag_166:\n        /* \"#utility.yul\":1411:1418   */\n      0x00\n        /* \"#utility.yul\":1454:1459   */\n      dup2\n        /* \"#utility.yul\":1447:1460   */\n      iszero\n        /* \"#utility.yul\":1440:1461   */\n      iszero\n        /* \"#utility.yul\":1429:1461   */\n      swap1\n      pop\n        /* \"#utility.yul\":1377:1467   */\n      swap2\n      swap1\n      pop\n      jump\t// out\n        /* \"#utility.yul\":1473:1582   */\n    tag_167:\n        /* \"#utility.yul\":1554:1575   */\n      tag_197\n        /* \"#utility.yul\":1569:1574   */\n      dup2\n        /* \"#utility.yul\":1554:1575   */\n      tag_166\n      jump\t// in\n    tag_197:\n        /* \"#utility.yul\":1549:1552   */\n      dup3\n        /* \"#utility.yul\":1542:1576   */\n      mstore\n        /* \"#utility.yul\":1473:1582   */\n      pop\n      pop\n      jump\t// out\n        /* \"#utility.yul\":1588:1798   */\n    tag_45:\n        /* \"#utility.yul\":1675:1679   */\n      0x00\n        /* \"#utility.yul\":1713:1715   */\n      0x20\n        /* \"#utility.yul\":1702:1711   */\n      dup3\n        /* \"#utility.yul\":1698:1716   */\n      add\n        /* \"#utility.yul\":1690:1716   */\n      swap1\n      pop\n        /* \"#utility.yul\":1726:1791   */\n      tag_199\n        /* \"#utility.yul\":1788:1789   */\n      0x00\n        /* \"#utility.yul\":1777:1786   */\n      dup4\n        /* \"#utility.yul\":1773:1790   */\n      add\n        /* \"#utility.yul\":1764:1770   */\n      dup5\n        /* \"#utility.yul\":1726:1791   */\n      tag_167\n      jump\t// in\n    tag_199:\n        /* \"#utility.yul\":1588:1798   */\n      swap3\n      swap2\n      pop\n      pop\n      jump\t// out\n        /* \"#utility.yul\":1804:1930   */\n    tag_168:\n        /* \"#utility.yul\":1841:1848   */\n      0x00\n        /* \"#utility.yul\":1881:1923   */\n      0xffffffffffffffffffffffffffffffffffffffff\n        /* \"#utility.yul\":1874:1879   */\n      dup3\n        /* \"#utility.yul\":1870:1924   */\n      and\n        /* \"#utility.yul\":1859:1924   */\n      swap1\n      pop\n        /* \"#utility.yul\":1804:1930   */\n      swap2\n      swap1\n      pop\n      jump\t// out\n        /* \"#utility.yul\":1936:2032   */\n    tag_169:\n        /* \"#utility.yul\":1973:1980   */\n      0x00\n        /* \"#utility.yul\":2002:2026   */\n      tag_202\n        /* \"#utility.yul\":2020:2025   */\n      dup3\n        /* \"#utility.yul\":2002:2026   */\n      tag_168\n      jump\t// in\n    tag_202:\n        /* \"#utility.yul\":1991:2026   */\n      swap1\n      pop\n        /* \"#utility.yul\":1936:2032   */\n      swap2\n      swap1\n      pop\n      jump\t// out\n        /* \"#utility.yul\":2038:2156   */\n    tag_170:\n        /* \"#utility.yul\":2125:2149   */\n      tag_204\n        /* \"#utility.yul\":2143:2148   */\n      dup2\n        /* \"#utility.yul\":2125:2149   */\n      tag_169\n      jump\t// in\n    tag_204:\n        /* \"#utility.yul\":2120:2123   */\n      dup3\n        /* \"#utility.yul\":2113:2150   */\n      mstore\n        /* \"#utility.yul\":2038:2156   */\n      pop\n      pop\n      jump\t// out\n        /* \"#utility.yul\":2162:2384   */\n    tag_68:\n        /* \"#utility.yul\":2255:2259   */\n      0x00\n        /* \"#utility.yul\":2293:2295   */\n      0x20\n        /* \"#utility.yul\":2282:2291   */\n      dup3\n        /* \"#utility.yul\":2278:2296   */\n      add\n        /* \"#utility.yul\":2270:2296   */\n      swap1\n      pop\n        /* \"#utility.yul\":2306:2377   */\n      tag_206\n        /* \"#utility.yul\":2374:2375   */\n      0x00\n        /* \"#utility.yul\":2363:2372   */\n      dup4\n        /* \"#utility.yul\":2359:2376   */\n      add\n        /* \"#utility.yul\":2350:2356   */\n      dup5\n        /* \"#utility.yul\":2306:2377   */\n      tag_170\n      jump\t// in\n    tag_206:\n        /* \"#utility.yul\":2162:2384   */\n      swap3\n      swap2\n      pop\n      pop\n      jump\t// out\n        /* \"#utility.yul\":2390:2512   */\n    tag_171:\n        /* \"#utility.yul\":2463:2487   */\n      tag_208\n        /* \"#utility.yul\":2481:2486   */\n      dup2\n        /* \"#utility.yul\":2463:2487   */\n      tag_169\n      jump\t// in\n    tag_208:\n        /* \"#utility.yul\":2456:2461   */\n      dup2\n        /* \"#utility.yul\":2453:2488   */\n      eq\n        /* \"#utility.yul\":2443:2506   */\n      tag_209\n      jumpi\n        /* \"#utility.yul\":2502:2503   */\n      0x00\n        /* \"#utility.yul\":2499:2500   */\n      0x00\n        /* \"#utility.yul\":2492:2504   */\n      revert\n        /* \"#utility.yul\":2443:2506   */\n    tag_209:\n        /* \"#utility.yul\":2390:2512   */\n      pop\n      jump\t// out\n        /* \"#utility.yul\":2518:2657   */\n    tag_172:\n        /* \"#utility.yul\":2564:2569   */\n      0x00\n        /* \"#utility.yul\":2602:2608   */\n      dup2\n        /* \"#utility.yul\":2589:2609   */\n      calldataload\n        /* \"#utility.yul\":2580:2609   */\n      swap1\n      pop\n        /* \"#utility.yul\":2618:2651   */\n      tag_211\n        /* \"#utility.yul\":2645:2650   */\n      dup2\n        /* \"#utility.yul\":2618:2651   */\n      tag_171\n      jump\t// in\n    tag_211:\n        /* \"#utility.yul\":2518:2657   */\n      swap3\n      swap2\n      pop\n      pop\n      jump\t// out\n        /* \"#utility.yul\":2663:2992   */\n    tag_72:\n        /* \"#utility.yul\":2722:2728   */\n      0x00\n        /* \"#utility.yul\":2771:2773   */\n      0x20\n        /* \"#utility.yul\":2759:2768   */\n      dup3\n        /* \"#utility.yul\":2750:2757   */\n      dup5\n        /* \"#utility.yul\":2746:2769   */\n      sub\n        /* \"#utility.yul\":2742:2774   */\n      slt\n        /* \"#utility.yul\":2739:2858   */\n      iszero\n      tag_213\n      jumpi\n        /* \"#utility.yul\":2777:2856   */\n      tag_214\n      tag_162\n      jump\t// in\n    tag_214:\n        /* \"#utility.yul\":2739:2858   */\n    tag_213:\n        /* \"#utility.yul\":2897:2898   */\n      0x00\n        /* \"#utility.yul\":2922:2975   */\n      tag_215\n        /* \"#utility.yul\":2967:2974   */\n      dup5\n        /* \"#utility.yul\":2958:2964   */\n      dup3\n        /* \"#utility.yul\":2947:2956   */\n      dup6\n        /* \"#utility.yul\":2943:2965   */\n      add\n        /* \"#utility.yul\":2922:2975   */\n      tag_172\n      jump\t// in\n    tag_215:\n        /* \"#utility.yul\":2912:2975   */\n      swap2\n      pop\n        /* \"#utility.yul\":2868:2985   */\n      pop\n        /* \"#utility.yul\":2663:2992   */\n      swap3\n      swap2\n      pop\n      pop\n      jump\t// out\n        /* \"#utility.yul\":2998:3551   */\n    tag_83:\n        /* \"#utility.yul\":3175:3179   */\n      0x00\n        /* \"#utility.yul\":3213:3216   */\n      0x80\n        /* \"#utility.yul\":3202:3211   */\n      dup3\n        /* \"#utility.yul\":3198:3217   */\n      add\n        /* \"#utility.yul\":3190:3217   */\n      swap1\n      pop\n        /* \"#utility.yul\":3227:3298   */\n      tag_217\n        /* \"#utility.yul\":3295:3296   */\n      0x00\n        /* \"#utility.yul\":3284:3293   */\n      dup4\n        /* \"#utility.yul\":3280:3297   */\n      add\n        /* \"#utility.yul\":3271:3277   */\n      dup8\n        /* \"#utility.yul\":3227:3298   */\n      tag_160\n      jump\t// in\n    tag_217:\n        /* \"#utility.yul\":3308:3380   */\n      tag_218\n        /* \"#utility.yul\":3376:3378   */\n      0x20\n        /* \"#utility.yul\":3365:3374   */\n      dup4\n        /* \"#utility.yul\":3361:3379   */\n      add\n        /* \"#utility.yul\":3352:3358   */\n      dup7\n        /* \"#utility.yul\":3308:3380   */\n      tag_160\n      jump\t// in\n    tag_218:\n        /* \"#utility.yul\":3390:3462   */\n      tag_219\n        /* \"#utility.yul\":3458:3460   */\n      0x40\n        /* \"#utility.yul\":3447:3456   */\n      dup4\n        /* \"#utility.yul\":3443:3461   */\n      add\n        /* \"#utility.yul\":3434:3440   */\n      dup6\n        /* \"#utility.yul\":3390:3462   */\n      tag_160\n      jump\t// in\n    tag_219:\n        /* \"#utility.yul\":3472:3544   */\n      tag_220\n        /* \"#utility.yul\":3540:3542   */\n      0x60\n        /* \"#utility.yul\":3529:3538   */\n      dup4\n        /* \"#utility.yul\":3525:3543   */\n      add\n        /* \"#utility.yul\":3516:3522   */\n      dup5\n        /* \"#utility.yul\":3472:3544   */\n      tag_160\n      jump\t// in\n    tag_220:\n        /* \"#utility.yul\":2998:3551   */\n      swap6\n      swap5\n      pop\n      pop\n      pop\n      pop\n      pop\n      jump\t// out\n        /* \"#utility.yul\":3557:3737   */\n    tag_173:\n        /* \"#utility.yul\":3605:3682   */\n      0x4e487b7100000000000000000000000000000000000000000000000000000000\n        /* \"#utility.yul\":3602:3603   */\n      0x00\n        /* \"#utility.yul\":3595:3683   */\n      mstore\n        /* \"#utility.yul\":3702:3706   */\n      0x11\n        /* \"#utility.yul\":3699:3700   */\n      0x04\n        /* \"#utility.yul\":3692:3707   */\n      mstore\n        /* \"#utility.yul\":3726:3730   */\n      0x24\n        /* \"#utility.yul\":3723:3724   */\n      0x00\n        /* \"#utility.yul\":3716:3731   */\n      revert\n        /* \"#utility.yul\":3743:3937   */\n    tag_110:\n        /* \"#utility.yul\":3783:3787   */\n      0x00\n        /* \"#utility.yul\":3803:3823   */\n      tag_223\n        /* \"#utility.yul\":3821:3822   */\n      dup3\n        /* \"#utility.yul\":3803:3823   */\n      tag_159\n      jump\t// in\n    tag_223:\n        /* \"#utility.yul\":3798:3823   */\n      swap2\n      pop\n        /* \"#utility.yul\":3837:3857   */\n      tag_224\n        /* \"#utility.yul\":3855:3856   */\n      dup4\n        /* \"#utility.yul\":3837:3857   */\n      tag_159\n      jump\t// in\n    tag_224:\n        /* \"#utility.yul\":3832:3857   */\n      swap3\n      pop\n        /* \"#utility.yul\":3881:3882   */\n      dup3\n        /* \"#utility.yul\":3878:3879   */\n      dup3\n        /* \"#utility.yul\":3874:3883   */\n      sub\n        /* \"#utility.yul\":3866:3883   */\n      swap1\n      pop\n        /* \"#utility.yul\":3905:3906   */\n      dup2\n        /* \"#utility.yul\":3899:3903   */\n      dup2\n        /* \"#utility.yul\":3896:3907   */\n      gt\n        /* \"#utility.yul\":3893:3930   */\n      iszero\n      tag_225\n      jumpi\n        /* \"#utility.yul\":3910:3928   */\n      tag_226\n      tag_173\n      jump\t// in\n    tag_226:\n        /* \"#utility.yul\":3893:3930   */\n    tag_225:\n        /* \"#utility.yul\":3743:3937   */\n      swap3\n      swap2\n      pop\n      pop\n      jump\t// out\n        /* \"#utility.yul\":3943:4176   */\n    tag_115:\n        /* \"#utility.yul\":3982:3985   */\n      0x00\n        /* \"#utility.yul\":4005:4029   */\n      tag_228\n        /* \"#utility.yul\":4023:4028   */\n      dup3\n        /* \"#utility.yul\":4005:4029   */\n      tag_159\n      jump\t// in\n    tag_228:\n        /* \"#utility.yul\":3996:4029   */\n      swap2\n      pop\n        /* \"#utility.yul\":4051:4117   */\n      0xffffffffffffffffffffffffffffffffffffffffffffffffffffffffffffffff\n        /* \"#utility.yul\":4044:4049   */\n      dup3\n        /* \"#utility.yul\":4041:4118   */\n      sub\n        /* \"#utility.yul\":4038:4141   */\n      tag_229\n      jumpi\n        /* \"#utility.yul\":4121:4139   */\n      tag_230\n      tag_173\n      jump\t// in\n    tag_230:\n        /* \"#utility.yul\":4038:4141   */\n    tag_229:\n        /* \"#utility.yul\":4168:4169   */\n      0x01\n        /* \"#utility.yul\":4161:4166   */\n      dup3\n        /* \"#utility.yul\":4157:4170   */\n      add\n        /* \"#utility.yul\":4150:4170   */\n      swap1\n      pop\n        /* \"#utility.yul\":3943:4176   */\n      swap2\n      swap1\n      pop\n      jump\t// out\n        /* \"#utility.yul\":4182:4514   */\n    tag_117:\n        /* \"#utility.yul\":4303:4307   */\n      0x00\n        /* \"#utility.yul\":4341:4343   */\n      0x40\n        /* \"#utility.yul\":4330:4339   */\n      dup3\n        /* \"#utility.yul\":4326:4344   */\n      add\n        /* \"#utility.yul\":4318:4344   */\n      swap1\n      pop\n        /* \"#utility.yul\":4354:4425   */\n      tag_232\n        /* \"#utility.yul\":4422:4423   */\n      0x00\n        /* \"#utility.yul\":4411:4420   */\n      dup4\n        /* \"#utility.yul\":4407:4424   */\n      add\n        /* \"#utility.yul\":4398:4404   */\n      dup6\n        /* \"#utility.yul\":4354:4425   */\n      tag_160\n      jump\t// in\n    tag_232:\n        /* \"#utility.yul\":4435:4507   */\n      tag_233\n        /* \"#utility.yul\":4503:4505   */\n      0x20\n        /* \"#utility.yul\":4492:4501   */\n      dup4\n        /* \"#utility.yul\":4488:4506   */\n      add\n        /* \"#utility.yul\":4479:4485   */\n      dup5\n        /* \"#utility.yul\":4435:4507   */\n      tag_160\n      jump\t// in\n    tag_233:\n        /* \"#utility.yul\":4182:4514   */\n      swap4\n      swap3\n      pop\n      pop\n      pop\n      jump\t// out\n        /* \"#utility.yul\":4520:4711   */\n    tag_142:\n        /* \"#utility.yul\":4560:4563   */\n      0x00\n        /* \"#utility.yul\":4579:4599   */\n      tag_235\n        /* \"#utility.yul\":4597:4598   */\n      dup3\n        /* \"#utility.yul\":4579:4599   */\n      tag_159\n      jump\t// in\n    tag_235:\n        /* \"#utility.yul\":4574:4599   */\n      swap2\n      pop\n        /* \"#utility.yul\":4613:4633   */\n      tag_236\n        /* \"#utility.yul\":4631:4632   */\n      dup4\n        /* \"#utility.yul\":4613:4633   */\n      tag_159\n      jump\t// in\n    tag_236:\n        /* \"#utility.yul\":4608:4633   */\n      swap3\n      pop\n        /* \"#utility.yul\":4656:4657   */\n      dup3\n        /* \"#utility.yul\":4653:4654   */\n      dup3\n        /* \"#utility.yul\":4649:4658   */\n      add\n        /* \"#utility.yul\":4642:4658   */\n      swap1\n      pop\n        /* \"#utility.yul\":4677:4680   */\n      dup1\n        /* \"#utility.yul\":4674:4675   */\n      dup3\n        /* \"#utility.yul\":4671:4681   */\n      gt\n        /* \"#utility.yul\":4668:4704   */\n      iszero\n      tag_237\n      jumpi\n        /* \"#utility.yul\":4684:4702   */\n      tag_238\n      tag_173\n      jump\t// in\n    tag_238:\n        /* \"#utility.yul\":4668:4704   */\n    tag_237:\n        /* \"#utility.yul\":4520:4711   */\n      swap3\n      swap2\n      pop\n      pop\n      jump\t// out\n        /* \"#utility.yul\":4717:4864   */\n    tag_174:\n        /* \"#utility.yul\":4818:4829   */\n      0x00\n        /* \"#utility.yul\":4855:4858   */\n      dup2\n        /* \"#utility.yul\":4840:4858   */\n      swap1\n      pop\n        /* \"#utility.yul\":4717:4864   */\n      swap3\n      swap2\n      pop\n      pop\n      jump\t// out\n        /* \"#utility.yul\":4870:4984   */\n    tag_175:\n      pop\n      jump\t// out\n        /* \"#utility.yul\":4990:5388   */\n    tag_176:\n        /* \"#utility.yul\":5149:5152   */\n      0x00\n        /* \"#utility.yul\":5170:5253   */\n      tag_242\n        /* \"#utility.yul\":5251:5252   */\n      0x00\n        /* \"#utility.yul\":5246:5249   */\n      dup4\n        /* \"#utility.yul\":5170:5253   */\n      tag_174\n      jump\t// in\n    tag_242:\n        /* \"#utility.yul\":5163:5253   */\n      swap2\n      pop\n        /* \"#utility.yul\":5262:5355   */\n      tag_243\n        /* \"#utility.yul\":5351:5354   */\n      dup3\n        /* \"#utility.yul\":5262:5355   */\n      tag_175\n      jump\t// in\n    tag_243:\n        /* \"#utility.yul\":5380:5381   */\n      0x00\n        /* \"#utility.yul\":5375:5378   */\n      dup3\n        /* \"#utility.yul\":5371:5382   */\n      add\n        /* \"#utility.yul\":5364:5382   */\n      swap1\n      pop\n        /* \"#utility.yul\":4990:5388   */\n      swap2\n      swap1\n      pop\n      jump\t// out\n        /* \"#utility.yul\":5394:5773   */\n    tag_154:\n        /* \"#utility.yul\":5578:5581   */\n      0x00\n        /* \"#utility.yul\":5600:5747   */\n      tag_245\n        /* \"#utility.yul\":5743:5746   */\n      dup3\n        /* \"#utility.yul\":5600:5747   */\n      tag_176\n      jump\t// in\n    tag_245:\n        /* \"#utility.yul\":5593:5747   */\n      swap2\n      pop\n        /* \"#utility.yul\":5764:5767   */\n      dup2\n        /* \"#utility.yul\":5757:5767   */\n      swap1\n      pop\n        /* \"#utility.yul\":5394:5773   */\n      swap2\n      swap1\n      pop\n      jump\t// out\n\n    auxdata: 0xa2646970667358221220cccb0f5628293db8fff496cbbf8ca8b88f80b94a1ee990b797a20ae4d706fd8d64736f6c634300081e0033\n}\n",
				"bytecode": {
					"linkReferences": {},
					"object": "60c060405234801561000f575f5ffd5b506040516112de3803806112de833981810160405281019061003191906100ca565b815f8190555080608081815250503373ffffffffffffffffffffffffffffffffffffffff1660a08173ffffffffffffffffffffffffffffffffffffffff16815250505f60045f6101000a81548160ff0219169083151502179055505050610108565b5f5ffd5b5f819050919050565b6100a981610097565b81146100b3575f5ffd5b50565b5f815190506100c4816100a0565b92915050565b5f5f604083850312156100e0576100df610093565b5b5f6100ed858286016100b6565b92505060206100fe858286016100b6565b9150509250929050565b60805160a05161118461015a5f395f8181610640015281816107a90152610abc01525f81816104c9015281816107850152818161094e0152818161097b01528181610d100152610d3d01526111845ff3fe608060405260043610610113575f3560e01c8063853828b61161009f578063d0e30db011610063578063d0e30db01461033a578063e4393e9214610344578063ecbea24d14610380578063f19451d8146103aa578063f8b2cb4f146103d457610113565b8063853828b6146102675780638da5cb5b1461027d578063a622ee7c146102a7578063b187bd26146102e3578063c6e8e38c1461030d57610113565b80635c975abb116100e65780635c975abb146101a957806371706cbe146101d35780637d882097146101fd57806382ee0d1d146102275780638456cb591461025157610113565b80632dfdf0b5146101175780632e1a7d4d146101415780633f4ba83a146101695780634c7389091461017f575b5f5ffd5b348015610122575f5ffd5b5061012b610410565b6040516101389190610e77565b60405180910390f35b34801561014c575f5ffd5b5061016760048036038101906101629190610ebe565b610416565b005b348015610174575f5ffd5b5061017d61063e565b005b34801561018a575f5ffd5b50610193610721565b6040516101a09190610e77565b60405180910390f35b3480156101b4575f5ffd5b506101bd610765565b6040516101ca9190610f03565b60405180910390f35b3480156101de575f5ffd5b506101e7610777565b6040516101f49190610e77565b60405180910390f35b348015610208575f5ffd5b5061021161077d565b60405161021e9190610e77565b60405180910390f35b348015610232575f5ffd5b5061023b610783565b6040516102489190610e77565b60405180910390f35b34801561025c575f5ffd5b506102656107a7565b005b348015610272575f5ffd5b5061027b61088b565b005b348015610288575f5ffd5b50610291610aba565b60405161029e9190610f5b565b60405180910390f35b3480156102b2575f5ffd5b506102cd60048036038101906102c89190610f9e565b610ade565b6040516102da9190610e77565b60405180910390f35b3480156102ee575f5ffd5b506102f7610af3565b6040516103049190610f03565b60405180910390f35b348015610318575f5ffd5b50610321610b08565b6040516103319493929190610fc9565b60405180910390f35b610342610b32565b005b34801561034f575f5ffd5b5061036a60048036038101906103659190610f9e565b610ccc565b6040516103779190610e77565b60405180910390f35b34801561038b575f5ffd5b50610394610d65565b6040516103a19190610e77565b60405180910390f35b3480156103b5575f5ffd5b506103be610d6a565b6040516103cb9190610e77565b60405180910390f35b3480156103df575f5ffd5b506103fa60048036038101906103f59190610f9e565b610d75565b6040516104079190610e77565b60405180910390f35b60025481565b805f8103610450576040517f9abc749100000000000000000000000000000000000000000000000000000000815260040160405180910390fd5b8160055f3373ffffffffffffffffffffffffffffffffffffffff1673ffffffffffffffffffffffffffffffffffffffff1681526020019081526020015f205410156104c7576040517ff4d678b800000000000000000000000000000000000000000000000000000000815260040160405180910390fd5b7f0000000000000000000000000000000000000000000000000000000000000000821115610521576040517f4e6a369600000000000000000000000000000000000000000000000000000000815260040160405180910390fd5b8160055f3373ffffffffffffffffffffffffffffffffffffffff1673ffffffffffffffffffffffffffffffffffffffff1681526020019081526020015f205f82825461056d9190611039565b925050819055508160015f8282546105859190611039565b925050819055506105963383610dbb565b60035f8154809291906105a89061106c565b91905055503373ffffffffffffffffffffffffffffffffffffffff167fdf273cb619d95419a9cd0ec88123a0538c85064229baa6363788f743fff90deb8360055f3373ffffffffffffffffffffffffffffffffffffffff1673ffffffffffffffffffffffffffffffffffffffff1681526020019081526020015f20546040516106329291906110b3565b60405180910390a25050565b7f000000000000000000000000000000000000000000000000000000000000000073ffffffffffffffffffffffffffffffffffffffff163373ffffffffffffffffffffffffffffffffffffffff16146106c3576040517f5fc483c500000000000000000000000000000000000000000000000000000000815260040160405180910390fd5b5f60045f6101000a81548160ff0219169083151502179055503373ffffffffffffffffffffffffffffffffffffffff167f5db9ee0a495bf2e6ff9c91a7834c1ba4fdd244a5e8aa4e537bd38aeae4b073aa60405160405180910390a2565b5f60055f3373ffffffffffffffffffffffffffffffffffffffff1673ffffffffffffffffffffffffffffffffffffffff1681526020019081526020015f2054905090565b60045f9054906101000a900460ff1681565b60035481565b60015481565b7f000000000000000000000000000000000000000000000000000000000000000081565b7f000000000000000000000000000000000000000000000000000000000000000073ffffffffffffffffffffffffffffffffffffffff163373ffffffffffffffffffffffffffffffffffffffff161461082c576040517f5fc483c500000000000000000000000000000000000000000000000000000000815260040160405180910390fd5b600160045f6101000a81548160ff0219169083151502179055503373ffffffffffffffffffffffffffffffffffffffff167f62e78cea01bee320cd4e420270b5ea74000d11b0c9f74754ebdbfc544b05a25860405160405180910390a2565b60045f9054906101000a900460ff16156108d1576040517fab35696f00000000000000000000000000000000000000000000000000000000815260040160405180910390fd5b5f60055f3373ffffffffffffffffffffffffffffffffffffffff1673ffffffffffffffffffffffffffffffffffffffff1681526020019081526020015f205490505f810361094b576040517ff4d678b800000000000000000000000000000000000000000000000000000000815260040160405180910390fd5b5f7f00000000000000000000000000000000000000000000000000000000000000008211610979578161099b565b7f00000000000000000000000000000000000000000000000000000000000000005b90508060055f3373ffffffffffffffffffffffffffffffffffffffff1673ffffffffffffffffffffffffffffffffffffffff1681526020019081526020015f205f8282546109e99190611039565b925050819055508060015f828254610a019190611039565b9250508190555060035f815480929190610a1a9061106c565b9190505550610a293382610dbb565b3373ffffffffffffffffffffffffffffffffffffffff167fdf273cb619d95419a9cd0ec88123a0538c85064229baa6363788f743fff90deb8260055f3373ffffffffffffffffffffffffffffffffffffffff1673ffffffffffffffffffffffffffffffffffffffff1681526020019081526020015f2054604051610aae9291906110b3565b60405180910390a25050565b7f000000000000000000000000000000000000000000000000000000000000000081565b6005602052805f5260405f205f915090505481565b5f60045f9054906101000a900460ff16905090565b5f5f5f5f6001546002546003546001545f54610b249190611039565b935093509350935090919293565b66038d7ea4c68000341015610b73576040517f6ba4a1c700000000000000000000000000000000000000000000000000000000815260040160405180910390fd5b5f5434600154610b8391906110da565b1115610bbb576040517f448f3ca800000000000000000000000000000000000000000000000000000000815260040160405180910390fd5b3460055f3373ffffffffffffffffffffffffffffffffffffffff1673ffffffffffffffffffffffffffffffffffffffff1681526020019081526020015f205f828254610c0791906110da565b925050819055503460015f828254610c1f91906110da565b9250508190555060025f815480929190610c389061106c565b91905055503373ffffffffffffffffffffffffffffffffffffffff167f90890809c654f11d6e72a28fa60149770a0d11ec6c92319d6ceb2bb0a4ea1a153460055f3373ffffffffffffffffffffffffffffffffffffffff1673ffffffffffffffffffffffffffffffffffffffff1681526020019081526020015f2054604051610cc29291906110b3565b60405180910390a2565b5f5f60055f8473ffffffffffffffffffffffffffffffffffffffff1673ffffffffffffffffffffffffffffffffffffffff1681526020019081526020015f205490507f00000000000000000000000000000000000000000000000000000000000000008111610d3b5780610d5d565b7f00000000000000000000000000000000000000000000000000000000000000005b915050919050565b5f5481565b66038d7ea4c6800081565b5f60055f8373ffffffffffffffffffffffffffffffffffffffff1673ffffffffffffffffffffffffffffffffffffffff1681526020019081526020015f20549050919050565b5f8273ffffffffffffffffffffffffffffffffffffffff1682604051610de09061113a565b5f6040518083038185875af1925050503d805f8114610e1a576040519150601f19603f3d011682016040523d82523d5f602084013e610e1f565b606091505b5050905080610e5a576040517f90b8ec1800000000000000000000000000000000000000000000000000000000815260040160405180910390fd5b505050565b5f819050919050565b610e7181610e5f565b82525050565b5f602082019050610e8a5f830184610e68565b92915050565b5f5ffd5b610e9d81610e5f565b8114610ea7575f5ffd5b50565b5f81359050610eb881610e94565b92915050565b5f60208284031215610ed357610ed2610e90565b5b5f610ee084828501610eaa565b91505092915050565b5f8115159050919050565b610efd81610ee9565b82525050565b5f602082019050610f165f830184610ef4565b92915050565b5f73ffffffffffffffffffffffffffffffffffffffff82169050919050565b5f610f4582610f1c565b9050919050565b610f5581610f3b565b82525050565b5f602082019050610f6e5f830184610f4c565b92915050565b610f7d81610f3b565b8114610f87575f5ffd5b50565b5f81359050610f9881610f74565b92915050565b5f60208284031215610fb357610fb2610e90565b5b5f610fc084828501610f8a565b91505092915050565b5f608082019050610fdc5f830187610e68565b610fe96020830186610e68565b610ff66040830185610e68565b6110036060830184610e68565b95945050505050565b7f4e487b71000000000000000000000000000000000000000000000000000000005f52601160045260245ffd5b5f61104382610e5f565b915061104e83610e5f565b92508282039050818111156110665761106561100c565b5b92915050565b5f61107682610e5f565b91507fffffffffffffffffffffffffffffffffffffffffffffffffffffffffffffffff82036110a8576110a761100c565b5b600182019050919050565b5f6040820190506110c65f830185610e68565b6110d36020830184610e68565b9392505050565b5f6110e482610e5f565b91506110ef83610e5f565b92508282019050808211156111075761110661100c565b5b92915050565b5f81905092915050565b50565b5f6111255f8361110d565b915061113082611117565b5f82019050919050565b5f6111448261111a565b915081905091905056fea2646970667358221220cccb0f5628293db8fff496cbbf8ca8b88f80b94a1ee990b797a20ae4d706fd8d64736f6c634300081e0033",
					"opcodes": "PUSH1 0xC0 PUSH1 0x40 MSTORE CALLVALUE DUP1 ISZERO PUSH2 0xF JUMPI PUSH0 PUSH0 REVERT JUMPDEST POP PUSH1 0x40 MLOAD PUSH2 0x12DE CODESIZE SUB DUP1 PUSH2 0x12DE DUP4 CODECOPY DUP2 DUP2 ADD PUSH1 0x40 MSTORE DUP2 ADD SWAP1 PUSH2 0x31 SWAP2 SWAP1 PUSH2 0xCA JUMP JUMPDEST DUP2 PUSH0 DUP2 SWAP1 SSTORE POP DUP1 PUSH1 0x80 DUP2 DUP2 MSTORE POP POP CALLER PUSH20 0xFFFFFFFFFFFFFFFFFFFFFFFFFFFFFFFFFFFFFFFF AND PUSH1 0xA0 DUP2 PUSH20 0xFFFFFFFFFFFFFFFFFFFFFFFFFFFFFFFFFFFFFFFF AND DUP2 MSTORE POP POP PUSH0 PUSH1 0x4 PUSH0 PUSH2 0x100 EXP DUP2 SLOAD DUP2 PUSH1 0xFF MUL NOT AND SWAP1 DUP4 ISZERO ISZERO MUL OR SWAP1 SSTORE POP POP POP PUSH2 0x108 JUMP JUMPDEST PUSH0 PUSH0 REVERT JUMPDEST PUSH0 DUP2 SWAP1 POP SWAP2 SWAP1 POP JUMP JUMPDEST PUSH2 0xA9 DUP2 PUSH2 0x97 JUMP JUMPDEST DUP2 EQ PUSH2 0xB3 JUMPI PUSH0 PUSH0 REVERT JUMPDEST POP JUMP JUMPDEST PUSH0 DUP2 MLOAD SWAP1 POP PUSH2 0xC4 DUP2 PUSH2 0xA0 JUMP JUMPDEST SWAP3 SWAP2 POP POP JUMP JUMPDEST PUSH0 PUSH0 PUSH1 0x40 DUP4 DUP6 SUB SLT ISZERO PUSH2 0xE0 JUMPI PUSH2 0xDF PUSH2 0x93 JUMP JUMPDEST JUMPDEST PUSH0 PUSH2 0xED DUP6 DUP3 DUP7 ADD PUSH2 0xB6 JUMP JUMPDEST SWAP3 POP POP PUSH1 0x20 PUSH2 0xFE DUP6 DUP3 DUP7 ADD PUSH2 0xB6 JUMP JUMPDEST SWAP2 POP POP SWAP3 POP SWAP3 SWAP1 POP JUMP JUMPDEST PUSH1 0x80 MLOAD PUSH1 0xA0 MLOAD PUSH2 0x1184 PUSH2 0x15A PUSH0 CODECOPY PUSH0 DUP2 DUP2 PUSH2 0x640 ADD MSTORE DUP2 DUP2 PUSH2 0x7A9 ADD MSTORE PUSH2 0xABC ADD MSTORE PUSH0 DUP2 DUP2 PUSH2 0x4C9 ADD MSTORE DUP2 DUP2 PUSH2 0x785 ADD MSTORE DUP2 DUP2 PUSH2 0x94E ADD MSTORE DUP2 DUP2 PUSH2 0x97B ADD MSTORE DUP2 DUP2 PUSH2 0xD10 ADD MSTORE PUSH2 0xD3D ADD MSTORE PUSH2 0x1184 PUSH0 RETURN INVALID PUSH1 0x80 PUSH1 0x40 MSTORE PUSH1 0x4 CALLDATASIZE LT PUSH2 0x113 JUMPI PUSH0 CALLDATALOAD PUSH1 0xE0 SHR DUP1 PUSH4 0x853828B6 GT PUSH2 0x9F JUMPI DUP1 PUSH4 0xD0E30DB0 GT PUSH2 0x63 JUMPI DUP1 PUSH4 0xD0E30DB0 EQ PUSH2 0x33A JUMPI DUP1 PUSH4 0xE4393E92 EQ PUSH2 0x344 JUMPI DUP1 PUSH4 0xECBEA24D EQ PUSH2 0x380 JUMPI DUP1 PUSH4 0xF19451D8 EQ PUSH2 0x3AA JUMPI DUP1 PUSH4 0xF8B2CB4F EQ PUSH2 0x3D4 JUMPI PUSH2 0x113 JUMP JUMPDEST DUP1 PUSH4 0x853828B6 EQ PUSH2 0x267 JUMPI DUP1 PUSH4 0x8DA5CB5B EQ PUSH2 0x27D JUMPI DUP1 PUSH4 0xA622EE7C EQ PUSH2 0x2A7 JUMPI DUP1 PUSH4 0xB187BD26 EQ PUSH2 0x2E3 JUMPI DUP1 PUSH4 0xC6E8E38C EQ PUSH2 0x30D JUMPI PUSH2 0x113 JUMP JUMPDEST DUP1 PUSH4 0x5C975ABB GT PUSH2 0xE6 JUMPI DUP1 PUSH4 0x5C975ABB EQ PUSH2 0x1A9 JUMPI DUP1 PUSH4 0x71706CBE EQ PUSH2 0x1D3 JUMPI DUP1 PUSH4 0x7D882097 EQ PUSH2 0x1FD JUMPI DUP1 PUSH4 0x82EE0D1D EQ PUSH2 0x227 JUMPI DUP1 PUSH4 0x8456CB59 EQ PUSH2 0x251 JUMPI PUSH2 0x113 JUMP JUMPDEST DUP1 PUSH4 0x2DFDF0B5 EQ PUSH2 0x117 JUMPI DUP1 PUSH4 0x2E1A7D4D EQ PUSH2 0x141 JUMPI DUP1 PUSH4 0x3F4BA83A EQ PUSH2 0x169 JUMPI DUP1 PUSH4 0x4C738909 EQ PUSH2 0x17F JUMPI JUMPDEST PUSH0 PUSH0 REVERT JUMPDEST CALLVALUE DUP1 ISZERO PUSH2 0x122 JUMPI PUSH0 PUSH0 REVERT JUMPDEST POP PUSH2 0x12B PUSH2 0x410 JUMP JUMPDEST PUSH1 0x40 MLOAD PUSH2 0x138 SWAP2 SWAP1 PUSH2 0xE77 JUMP JUMPDEST PUSH1 0x40 MLOAD DUP1 SWAP2 SUB SWAP1 RETURN JUMPDEST CALLVALUE DUP1 ISZERO PUSH2 0x14C JUMPI PUSH0 PUSH0 REVERT JUMPDEST POP PUSH2 0x167 PUSH1 0x4 DUP1 CALLDATASIZE SUB DUP2 ADD SWAP1 PUSH2 0x162 SWAP2 SWAP1 PUSH2 0xEBE JUMP JUMPDEST PUSH2 0x416 JUMP JUMPDEST STOP JUMPDEST CALLVALUE DUP1 ISZERO PUSH2 0x174 JUMPI PUSH0 PUSH0 REVERT JUMPDEST POP PUSH2 0x17D PUSH2 0x63E JUMP JUMPDEST STOP JUMPDEST CALLVALUE DUP1 ISZERO PUSH2 0x18A JUMPI PUSH0 PUSH0 REVERT JUMPDEST POP PUSH2 0x193 PUSH2 0x721 JUMP JUMPDEST PUSH1 0x40 MLOAD PUSH2 0x1A0 SWAP2 SWAP1 PUSH2 0xE77 JUMP JUMPDEST PUSH1 0x40 MLOAD DUP1 SWAP2 SUB SWAP1 RETURN JUMPDEST CALLVALUE DUP1 ISZERO PUSH2 0x1B4 JUMPI PUSH0 PUSH0 REVERT JUMPDEST POP PUSH2 0x1BD PUSH2 0x765 JUMP JUMPDEST PUSH1 0x40 MLOAD PUSH2 0x1CA SWAP2 SWAP1 PUSH2 0xF03 JUMP JUMPDEST PUSH1 0x40 MLOAD DUP1 SWAP2 SUB SWAP1 RETURN JUMPDEST CALLVALUE DUP1 ISZERO PUSH2 0x1DE JUMPI PUSH0 PUSH0 REVERT JUMPDEST POP PUSH2 0x1E7 PUSH2 0x777 JUMP JUMPDEST PUSH1 0x40 MLOAD PUSH2 0x1F4 SWAP2 SWAP1 PUSH2 0xE77 JUMP JUMPDEST PUSH1 0x40 MLOAD DUP1 SWAP2 SUB SWAP1 RETURN JUMPDEST CALLVALUE DUP1 ISZERO PUSH2 0x208 JUMPI PUSH0 PUSH0 REVERT JUMPDEST POP PUSH2 0x211 PUSH2 0x77D JUMP JUMPDEST PUSH1 0x40 MLOAD PUSH2 0x21E SWAP2 SWAP1 PUSH2 0xE77 JUMP JUMPDEST PUSH1 0x40 MLOAD DUP1 SWAP2 SUB SWAP1 RETURN JUMPDEST CALLVALUE DUP1 ISZERO PUSH2 0x232 JUMPI PUSH0 PUSH0 REVERT JUMPDEST POP PUSH2 0x23B PUSH2 0x783 JUMP JUMPDEST PUSH1 0x40 MLOAD PUSH2 0x248 SWAP2 SWAP1 PUSH2 0xE77 JUMP JUMPDEST PUSH1 0x40 MLOAD DUP1 SWAP2 SUB SWAP1 RETURN JUMPDEST CALLVALUE DUP1 ISZERO PUSH2 0x25C JUMPI PUSH0 PUSH0 REVERT JUMPDEST POP PUSH2 0x265 PUSH2 0x7A7 JUMP JUMPDEST STOP JUMPDEST CALLVALUE DUP1 ISZERO PUSH2 0x272 JUMPI PUSH0 PUSH0 REVERT JUMPDEST POP PUSH2 0x27B PUSH2 0x88B JUMP JUMPDEST STOP JUMPDEST CALLVALUE DUP1 ISZERO PUSH2 0x288 JUMPI PUSH0 PUSH0 REVERT JUMPDEST POP PUSH2 0x291 PUSH2 0xABA JUMP JUMPDEST PUSH1 0x40 MLOAD PUSH2 0x29E SWAP2 SWAP1 PUSH2 0xF5B JUMP JUMPDEST PUSH1 0x40 MLOAD DUP1 SWAP2 SUB SWAP1 RETURN JUMPDEST CALLVALUE DUP1 ISZERO PUSH2 0x2B2 JUMPI PUSH0 PUSH0 REVERT JUMPDEST POP PUSH2 0x2CD PUSH1 0x4 DUP1 CALLDATASIZE SUB DUP2 ADD SWAP1 PUSH2 0x2C8 SWAP2 SWAP1 PUSH2 0xF9E JUMP JUMPDEST PUSH2 0xADE JUMP JUMPDEST PUSH1 0x40 MLOAD PUSH2 0x2DA SWAP2 SWAP1 PUSH2 0xE77 JUMP JUMPDEST PUSH1 0x40 MLOAD DUP1 SWAP2 SUB SWAP1 RETURN JUMPDEST CALLVALUE DUP1 ISZERO PUSH2 0x2EE JUMPI PUSH0 PUSH0 REVERT JUMPDEST POP PUSH2 0x2F7 PUSH2 0xAF3 JUMP JUMPDEST PUSH1 0x40 MLOAD PUSH2 0x304 SWAP2 SWAP1 PUSH2 0xF03 JUMP JUMPDEST PUSH1 0x40 MLOAD DUP1 SWAP2 SUB SWAP1 RETURN JUMPDEST CALLVALUE DUP1 ISZERO PUSH2 0x318 JUMPI PUSH0 PUSH0 REVERT JUMPDEST POP PUSH2 0x321 PUSH2 0xB08 JUMP JUMPDEST PUSH1 0x40 MLOAD PUSH2 0x331 SWAP5 SWAP4 SWAP3 SWAP2 SWAP1 PUSH2 0xFC9 JUMP JUMPDEST PUSH1 0x40 MLOAD DUP1 SWAP2 SUB SWAP1 RETURN JUMPDEST PUSH2 0x342 PUSH2 0xB32 JUMP JUMPDEST STOP JUMPDEST CALLVALUE DUP1 ISZERO PUSH2 0x34F JUMPI PUSH0 PUSH0 REVERT JUMPDEST POP PUSH2 0x36A PUSH1 0x4 DUP1 CALLDATASIZE SUB DUP2 ADD SWAP1 PUSH2 0x365 SWAP2 SWAP1 PUSH2 0xF9E JUMP JUMPDEST PUSH2 0xCCC JUMP JUMPDEST PUSH1 0x40 MLOAD PUSH2 0x377 SWAP2 SWAP1 PUSH2 0xE77 JUMP JUMPDEST PUSH1 0x40 MLOAD DUP1 SWAP2 SUB SWAP1 RETURN JUMPDEST CALLVALUE DUP1 ISZERO PUSH2 0x38B JUMPI PUSH0 PUSH0 REVERT JUMPDEST POP PUSH2 0x394 PUSH2 0xD65 JUMP JUMPDEST PUSH1 0x40 MLOAD PUSH2 0x3A1 SWAP2 SWAP1 PUSH2 0xE77 JUMP JUMPDEST PUSH1 0x40 MLOAD DUP1 SWAP2 SUB SWAP1 RETURN JUMPDEST CALLVALUE DUP1 ISZERO PUSH2 0x3B5 JUMPI PUSH0 PUSH0 REVERT JUMPDEST POP PUSH2 0x3BE PUSH2 0xD6A JUMP JUMPDEST PUSH1 0x40 MLOAD PUSH2 0x3CB SWAP2 SWAP1 PUSH2 0xE77 JUMP JUMPDEST PUSH1 0x40 MLOAD DUP1 SWAP2 SUB SWAP1 RETURN JUMPDEST CALLVALUE DUP1 ISZERO PUSH2 0x3DF JUMPI PUSH0 PUSH0 REVERT JUMPDEST POP PUSH2 0x3FA PUSH1 0x4 DUP1 CALLDATASIZE SUB DUP2 ADD SWAP1 PUSH2 0x3F5 SWAP2 SWAP1 PUSH2 0xF9E JUMP JUMPDEST PUSH2 0xD75 JUMP JUMPDEST PUSH1 0x40 MLOAD PUSH2 0x407 SWAP2 SWAP1 PUSH2 0xE77 JUMP JUMPDEST PUSH1 0x40 MLOAD DUP1 SWAP2 SUB SWAP1 RETURN JUMPDEST PUSH1 0x2 SLOAD DUP2 JUMP JUMPDEST DUP1 PUSH0 DUP2 SUB PUSH2 0x450 JUMPI PUSH1 0x40 MLOAD PUSH32 0x9ABC749100000000000000000000000000000000000000000000000000000000 DUP2 MSTORE PUSH1 0x4 ADD PUSH1 0x40 MLOAD DUP1 SWAP2 SUB SWAP1 REVERT JUMPDEST DUP2 PUSH1 0x5 PUSH0 CALLER PUSH20 0xFFFFFFFFFFFFFFFFFFFFFFFFFFFFFFFFFFFFFFFF AND PUSH20 0xFFFFFFFFFFFFFFFFFFFFFFFFFFFFFFFFFFFFFFFF AND DUP2 MSTORE PUSH1 0x20 ADD SWAP1 DUP2 MSTORE PUSH1 0x20 ADD PUSH0 KECCAK256 SLOAD LT ISZERO PUSH2 0x4C7 JUMPI PUSH1 0x40 MLOAD PUSH32 0xF4D678B800000000000000000000000000000000000000000000000000000000 DUP2 MSTORE PUSH1 0x4 ADD PUSH1 0x40 MLOAD DUP1 SWAP2 SUB SWAP1 REVERT JUMPDEST PUSH32 0x0 DUP3 GT ISZERO PUSH2 0x521 JUMPI PUSH1 0x40 MLOAD PUSH32 0x4E6A369600000000000000000000000000000000000000000000000000000000 DUP2 MSTORE PUSH1 0x4 ADD PUSH1 0x40 MLOAD DUP1 SWAP2 SUB SWAP1 REVERT JUMPDEST DUP2 PUSH1 0x5 PUSH0 CALLER PUSH20 0xFFFFFFFFFFFFFFFFFFFFFFFFFFFFFFFFFFFFFFFF AND PUSH20 0xFFFFFFFFFFFFFFFFFFFFFFFFFFFFFFFFFFFFFFFF AND DUP2 MSTORE PUSH1 0x20 ADD SWAP1 DUP2 MSTORE PUSH1 0x20 ADD PUSH0 KECCAK256 PUSH0 DUP3 DUP3 SLOAD PUSH2 0x56D SWAP2 SWAP1 PUSH2 0x1039 JUMP JUMPDEST SWAP3 POP POP DUP2 SWAP1 SSTORE POP DUP2 PUSH1 0x1 PUSH0 DUP3 DUP3 SLOAD PUSH2 0x585 SWAP2 SWAP1 PUSH2 0x1039 JUMP JUMPDEST SWAP3 POP POP DUP2 SWAP1 SSTORE POP PUSH2 0x596 CALLER DUP4 PUSH2 0xDBB JUMP JUMPDEST PUSH1 0x3 PUSH0 DUP2 SLOAD DUP1 SWAP3 SWAP2 SWAP1 PUSH2 0x5A8 SWAP1 PUSH2 0x106C JUMP JUMPDEST SWAP2 SWAP1 POP SSTORE POP CALLER PUSH20 0xFFFFFFFFFFFFFFFFFFFFFFFFFFFFFFFFFFFFFFFF AND PUSH32 0xDF273CB619D95419A9CD0EC88123A0538C85064229BAA6363788F743FFF90DEB DUP4 PUSH1 0x5 PUSH0 CALLER PUSH20 0xFFFFFFFFFFFFFFFFFFFFFFFFFFFFFFFFFFFFFFFF AND PUSH20 0xFFFFFFFFFFFFFFFFFFFFFFFFFFFFFFFFFFFFFFFF AND DUP2 MSTORE PUSH1 0x20 ADD SWAP1 DUP2 MSTORE PUSH1 0x20 ADD PUSH0 KECCAK256 SLOAD PUSH1 0x40 MLOAD PUSH2 0x632 SWAP3 SWAP2 SWAP1 PUSH2 0x10B3 JUMP JUMPDEST PUSH1 0x40 MLOAD DUP1 SWAP2 SUB SWAP1 LOG2 POP POP JUMP JUMPDEST PUSH32 0x0 PUSH20 0xFFFFFFFFFFFFFFFFFFFFFFFFFFFFFFFFFFFFFFFF AND CALLER PUSH20 0xFFFFFFFFFFFFFFFFFFFFFFFFFFFFFFFFFFFFFFFF AND EQ PUSH2 0x6C3 JUMPI PUSH1 0x40 MLOAD PUSH32 0x5FC483C500000000000000000000000000000000000000000000000000000000 DUP2 MSTORE PUSH1 0x4 ADD PUSH1 0x40 MLOAD DUP1 SWAP2 SUB SWAP1 REVERT JUMPDEST PUSH0 PUSH1 0x4 PUSH0 PUSH2 0x100 EXP DUP2 SLOAD DUP2 PUSH1 0xFF MUL NOT AND SWAP1 DUP4 ISZERO ISZERO MUL OR SWAP1 SSTORE POP CALLER PUSH20 0xFFFFFFFFFFFFFFFFFFFFFFFFFFFFFFFFFFFFFFFF AND PUSH32 0x5DB9EE0A495BF2E6FF9C91A7834C1BA4FDD244A5E8AA4E537BD38AEAE4B073AA PUSH1 0x40 MLOAD PUSH1 0x40 MLOAD DUP1 SWAP2 SUB SWAP1 LOG2 JUMP JUMPDEST PUSH0 PUSH1 0x5 PUSH0 CALLER PUSH20 0xFFFFFFFFFFFFFFFFFFFFFFFFFFFFFFFFFFFFFFFF AND PUSH20 0xFFFFFFFFFFFFFFFFFFFFFFFFFFFFFFFFFFFFFFFF AND DUP2 MSTORE PUSH1 0x20 ADD SWAP1 DUP2 MSTORE PUSH1 0x20 ADD PUSH0 KECCAK256 SLOAD SWAP1 POP SWAP1 JUMP JUMPDEST PUSH1 0x4 PUSH0 SWAP1 SLOAD SWAP1 PUSH2 0x100 EXP SWAP1 DIV PUSH1 0xFF AND DUP2 JUMP JUMPDEST PUSH1 0x3 SLOAD DUP2 JUMP JUMPDEST PUSH1 0x1 SLOAD DUP2 JUMP JUMPDEST PUSH32 0x0 DUP2 JUMP JUMPDEST PUSH32 0x0 PUSH20 0xFFFFFFFFFFFFFFFFFFFFFFFFFFFFFFFFFFFFFFFF AND CALLER PUSH20 0xFFFFFFFFFFFFFFFFFFFFFFFFFFFFFFFFFFFFFFFF AND EQ PUSH2 0x82C JUMPI PUSH1 0x40 MLOAD PUSH32 0x5FC483C500000000000000000000000000000000000000000000000000000000 DUP2 MSTORE PUSH1 0x4 ADD PUSH1 0x40 MLOAD DUP1 SWAP2 SUB SWAP1 REVERT JUMPDEST PUSH1 0x1 PUSH1 0x4 PUSH0 PUSH2 0x100 EXP DUP2 SLOAD DUP2 PUSH1 0xFF MUL NOT AND SWAP1 DUP4 ISZERO ISZERO MUL OR SWAP1 SSTORE POP CALLER PUSH20 0xFFFFFFFFFFFFFFFFFFFFFFFFFFFFFFFFFFFFFFFF AND PUSH32 0x62E78CEA01BEE320CD4E420270B5EA74000D11B0C9F74754EBDBFC544B05A258 PUSH1 0x40 MLOAD PUSH1 0x40 MLOAD DUP1 SWAP2 SUB SWAP1 LOG2 JUMP JUMPDEST PUSH1 0x4 PUSH0 SWAP1 SLOAD SWAP1 PUSH2 0x100 EXP SWAP1 DIV PUSH1 0xFF AND ISZERO PUSH2 0x8D1 JUMPI PUSH1 0x40 MLOAD PUSH32 0xAB35696F00000000000000000000000000000000000000000000000000000000 DUP2 MSTORE PUSH1 0x4 ADD PUSH1 0x40 MLOAD DUP1 SWAP2 SUB SWAP1 REVERT JUMPDEST PUSH0 PUSH1 0x5 PUSH0 CALLER PUSH20 0xFFFFFFFFFFFFFFFFFFFFFFFFFFFFFFFFFFFFFFFF AND PUSH20 0xFFFFFFFFFFFFFFFFFFFFFFFFFFFFFFFFFFFFFFFF AND DUP2 MSTORE PUSH1 0x20 ADD SWAP1 DUP2 MSTORE PUSH1 0x20 ADD PUSH0 KECCAK256 SLOAD SWAP1 POP PUSH0 DUP2 SUB PUSH2 0x94B JUMPI PUSH1 0x40 MLOAD PUSH32 0xF4D678B800000000000000000000000000000000000000000000000000000000 DUP2 MSTORE PUSH1 0x4 ADD PUSH1 0x40 MLOAD DUP1 SWAP2 SUB SWAP1 REVERT JUMPDEST PUSH0 PUSH32 0x0 DUP3 GT PUSH2 0x979 JUMPI DUP2 PUSH2 0x99B JUMP JUMPDEST PUSH32 0x0 JUMPDEST SWAP1 POP DUP1 PUSH1 0x5 PUSH0 CALLER PUSH20 0xFFFFFFFFFFFFFFFFFFFFFFFFFFFFFFFFFFFFFFFF AND PUSH20 0xFFFFFFFFFFFFFFFFFFFFFFFFFFFFFFFFFFFFFFFF AND DUP2 MSTORE PUSH1 0x20 ADD SWAP1 DUP2 MSTORE PUSH1 0x20 ADD PUSH0 KECCAK256 PUSH0 DUP3 DUP3 SLOAD PUSH2 0x9E9 SWAP2 SWAP1 PUSH2 0x1039 JUMP JUMPDEST SWAP3 POP POP DUP2 SWAP1 SSTORE POP DUP1 PUSH1 0x1 PUSH0 DUP3 DUP3 SLOAD PUSH2 0xA01 SWAP2 SWAP1 PUSH2 0x1039 JUMP JUMPDEST SWAP3 POP POP DUP2 SWAP1 SSTORE POP PUSH1 0x3 PUSH0 DUP2 SLOAD DUP1 SWAP3 SWAP2 SWAP1 PUSH2 0xA1A SWAP1 PUSH2 0x106C JUMP JUMPDEST SWAP2 SWAP1 POP SSTORE POP PUSH2 0xA29 CALLER DUP3 PUSH2 0xDBB JUMP JUMPDEST CALLER PUSH20 0xFFFFFFFFFFFFFFFFFFFFFFFFFFFFFFFFFFFFFFFF AND PUSH32 0xDF273CB619D95419A9CD0EC88123A0538C85064229BAA6363788F743FFF90DEB DUP3 PUSH1 0x5 PUSH0 CALLER PUSH20 0xFFFFFFFFFFFFFFFFFFFFFFFFFFFFFFFFFFFFFFFF AND PUSH20 0xFFFFFFFFFFFFFFFFFFFFFFFFFFFFFFFFFFFFFFFF AND DUP2 MSTORE PUSH1 0x20 ADD SWAP1 DUP2 MSTORE PUSH1 0x20 ADD PUSH0 KECCAK256 SLOAD PUSH1 0x40 MLOAD PUSH2 0xAAE SWAP3 SWAP2 SWAP1 PUSH2 0x10B3 JUMP JUMPDEST PUSH1 0x40 MLOAD DUP1 SWAP2 SUB SWAP1 LOG2 POP POP JUMP JUMPDEST PUSH32 0x0 DUP2 JUMP JUMPDEST PUSH1 0x5 PUSH1 0x20 MSTORE DUP1 PUSH0 MSTORE PUSH1 0x40 PUSH0 KECCAK256 PUSH0 SWAP2 POP SWAP1 POP SLOAD DUP2 JUMP JUMPDEST PUSH0 PUSH1 0x4 PUSH0 SWAP1 SLOAD SWAP1 PUSH2 0x100 EXP SWAP1 DIV PUSH1 0xFF AND SWAP1 POP SWAP1 JUMP JUMPDEST PUSH0 PUSH0 PUSH0 PUSH0 PUSH1 0x1 SLOAD PUSH1 0x2 SLOAD PUSH1 0x3 SLOAD PUSH1 0x1 SLOAD PUSH0 SLOAD PUSH2 0xB24 SWAP2 SWAP1 PUSH2 0x1039 JUMP JUMPDEST SWAP4 POP SWAP4 POP SWAP4 POP SWAP4 POP SWAP1 SWAP2 SWAP3 SWAP4 JUMP JUMPDEST PUSH7 0x38D7EA4C68000 CALLVALUE LT ISZERO PUSH2 0xB73 JUMPI PUSH1 0x40 MLOAD PUSH32 0x6BA4A1C700000000000000000000000000000000000000000000000000000000 DUP2 MSTORE PUSH1 0x4 ADD PUSH1 0x40 MLOAD DUP1 SWAP2 SUB SWAP1 REVERT JUMPDEST PUSH0 SLOAD CALLVALUE PUSH1 0x1 SLOAD PUSH2 0xB83 SWAP2 SWAP1 PUSH2 0x10DA JUMP JUMPDEST GT ISZERO PUSH2 0xBBB JUMPI PUSH1 0x40 MLOAD PUSH32 0x448F3CA800000000000000000000000000000000000000000000000000000000 DUP2 MSTORE PUSH1 0x4 ADD PUSH1 0x40 MLOAD DUP1 SWAP2 SUB SWAP1 REVERT JUMPDEST CALLVALUE PUSH1 0x5 PUSH0 CALLER PUSH20 0xFFFFFFFFFFFFFFFFFFFFFFFFFFFFFFFFFFFFFFFF AND PUSH20 0xFFFFFFFFFFFFFFFFFFFFFFFFFFFFFFFFFFFFFFFF AND DUP2 MSTORE PUSH1 0x20 ADD SWAP1 DUP2 MSTORE PUSH1 0x20 ADD PUSH0 KECCAK256 PUSH0 DUP3 DUP3 SLOAD PUSH2 0xC07 SWAP2 SWAP1 PUSH2 0x10DA JUMP JUMPDEST SWAP3 POP POP DUP2 SWAP1 SSTORE POP CALLVALUE PUSH1 0x1 PUSH0 DUP3 DUP3 SLOAD PUSH2 0xC1F SWAP2 SWAP1 PUSH2 0x10DA JUMP JUMPDEST SWAP3 POP POP DUP2 SWAP1 SSTORE POP PUSH1 0x2 PUSH0 DUP2 SLOAD DUP1 SWAP3 SWAP2 SWAP1 PUSH2 0xC38 SWAP1 PUSH2 0x106C JUMP JUMPDEST SWAP2 SWAP1 POP SSTORE POP CALLER PUSH20 0xFFFFFFFFFFFFFFFFFFFFFFFFFFFFFFFFFFFFFFFF AND PUSH32 0x90890809C654F11D6E72A28FA60149770A0D11EC6C92319D6CEB2BB0A4EA1A15 CALLVALUE PUSH1 0x5 PUSH0 CALLER PUSH20 0xFFFFFFFFFFFFFFFFFFFFFFFFFFFFFFFFFFFFFFFF AND PUSH20 0xFFFFFFFFFFFFFFFFFFFFFFFFFFFFFFFFFFFFFFFF AND DUP2 MSTORE PUSH1 0x20 ADD SWAP1 DUP2 MSTORE PUSH1 0x20 ADD PUSH0 KECCAK256 SLOAD PUSH1 0x40 MLOAD PUSH2 0xCC2 SWAP3 SWAP2 SWAP1 PUSH2 0x10B3 JUMP JUMPDEST PUSH1 0x40 MLOAD DUP1 SWAP2 SUB SWAP1 LOG2 JUMP JUMPDEST PUSH0 PUSH0 PUSH1 0x5 PUSH0 DUP5 PUSH20 0xFFFFFFFFFFFFFFFFFFFFFFFFFFFFFFFFFFFFFFFF AND PUSH20 0xFFFFFFFFFFFFFFFFFFFFFFFFFFFFFFFFFFFFFFFF AND DUP2 MSTORE PUSH1 0x20 ADD SWAP1 DUP2 MSTORE PUSH1 0x20 ADD PUSH0 KECCAK256 SLOAD SWAP1 POP PUSH32 0x0 DUP2 GT PUSH2 0xD3B JUMPI DUP1 PUSH2 0xD5D JUMP JUMPDEST PUSH32 0x0 JUMPDEST SWAP2 POP POP SWAP2 SWAP1 POP JUMP JUMPDEST PUSH0 SLOAD DUP2 JUMP JUMPDEST PUSH7 0x38D7EA4C68000 DUP2 JUMP JUMPDEST PUSH0 PUSH1 0x5 PUSH0 DUP4 PUSH20 0xFFFFFFFFFFFFFFFFFFFFFFFFFFFFFFFFFFFFFFFF AND PUSH20 0xFFFFFFFFFFFFFFFFFFFFFFFFFFFFFFFFFFFFFFFF AND DUP2 MSTORE PUSH1 0x20 ADD SWAP1 DUP2 MSTORE PUSH1 0x20 ADD PUSH0 KECCAK256 SLOAD SWAP1 POP SWAP2 SWAP1 POP JUMP JUMPDEST PUSH0 DUP3 PUSH20 0xFFFFFFFFFFFFFFFFFFFFFFFFFFFFFFFFFFFFFFFF AND DUP3 PUSH1 0x40 MLOAD PUSH2 0xDE0 SWAP1 PUSH2 0x113A JUMP JUMPDEST PUSH0 PUSH1 0x40 MLOAD DUP1 DUP4 SUB DUP2 DUP6 DUP8 GAS CALL SWAP3 POP POP POP RETURNDATASIZE DUP1 PUSH0 DUP2 EQ PUSH2 0xE1A JUMPI PUSH1 0x40 MLOAD SWAP2 POP PUSH1 0x1F NOT PUSH1 0x3F RETURNDATASIZE ADD AND DUP3 ADD PUSH1 0x40 MSTORE RETURNDATASIZE DUP3 MSTORE RETURNDATASIZE PUSH0 PUSH1 0x20 DUP5 ADD RETURNDATACOPY PUSH2 0xE1F JUMP JUMPDEST PUSH1 0x60 SWAP2 POP JUMPDEST POP POP SWAP1 POP DUP1 PUSH2 0xE5A JUMPI PUSH1 0x40 MLOAD PUSH32 0x90B8EC1800000000000000000000000000000000000000000000000000000000 DUP2 MSTORE PUSH1 0x4 ADD PUSH1 0x40 MLOAD DUP1 SWAP2 SUB SWAP1 REVERT JUMPDEST POP POP POP JUMP JUMPDEST PUSH0 DUP2 SWAP1 POP SWAP2 SWAP1 POP JUMP JUMPDEST PUSH2 0xE71 DUP2 PUSH2 0xE5F JUMP JUMPDEST DUP3 MSTORE POP POP JUMP JUMPDEST PUSH0 PUSH1 0x20 DUP3 ADD SWAP1 POP PUSH2 0xE8A PUSH0 DUP4 ADD DUP5 PUSH2 0xE68 JUMP JUMPDEST SWAP3 SWAP2 POP POP JUMP JUMPDEST PUSH0 PUSH0 REVERT JUMPDEST PUSH2 0xE9D DUP2 PUSH2 0xE5F JUMP JUMPDEST DUP2 EQ PUSH2 0xEA7 JUMPI PUSH0 PUSH0 REVERT JUMPDEST POP JUMP JUMPDEST PUSH0 DUP2 CALLDATALOAD SWAP1 POP PUSH2 0xEB8 DUP2 PUSH2 0xE94 JUMP JUMPDEST SWAP3 SWAP2 POP POP JUMP JUMPDEST PUSH0 PUSH1 0x20 DUP3 DUP5 SUB SLT ISZERO PUSH2 0xED3 JUMPI PUSH2 0xED2 PUSH2 0xE90 JUMP JUMPDEST JUMPDEST PUSH0 PUSH2 0xEE0 DUP5 DUP3 DUP6 ADD PUSH2 0xEAA JUMP JUMPDEST SWAP2 POP POP SWAP3 SWAP2 POP POP JUMP JUMPDEST PUSH0 DUP2 ISZERO ISZERO SWAP1 POP SWAP2 SWAP1 POP JUMP JUMPDEST PUSH2 0xEFD DUP2 PUSH2 0xEE9 JUMP JUMPDEST DUP3 MSTORE POP POP JUMP JUMPDEST PUSH0 PUSH1 0x20 DUP3 ADD SWAP1 POP PUSH2 0xF16 PUSH0 DUP4 ADD DUP5 PUSH2 0xEF4 JUMP JUMPDEST SWAP3 SWAP2 POP POP JUMP JUMPDEST PUSH0 PUSH20 0xFFFFFFFFFFFFFFFFFFFFFFFFFFFFFFFFFFFFFFFF DUP3 AND SWAP1 POP SWAP2 SWAP1 POP JUMP JUMPDEST PUSH0 PUSH2 0xF45 DUP3 PUSH2 0xF1C JUMP JUMPDEST SWAP1 POP SWAP2 SWAP1 POP JUMP JUMPDEST PUSH2 0xF55 DUP2 PUSH2 0xF3B JUMP JUMPDEST DUP3 MSTORE POP POP JUMP JUMPDEST PUSH0 PUSH1 0x20 DUP3 ADD SWAP1 POP PUSH2 0xF6E PUSH0 DUP4 ADD DUP5 PUSH2 0xF4C JUMP JUMPDEST SWAP3 SWAP2 POP POP JUMP JUMPDEST PUSH2 0xF7D DUP2 PUSH2 0xF3B JUMP JUMPDEST DUP2 EQ PUSH2 0xF87 JUMPI PUSH0 PUSH0 REVERT JUMPDEST POP JUMP JUMPDEST PUSH0 DUP2 CALLDATALOAD SWAP1 POP PUSH2 0xF98 DUP2 PUSH2 0xF74 JUMP JUMPDEST SWAP3 SWAP2 POP POP JUMP JUMPDEST PUSH0 PUSH1 0x20 DUP3 DUP5 SUB SLT ISZERO PUSH2 0xFB3 JUMPI PUSH2 0xFB2 PUSH2 0xE90 JUMP JUMPDEST JUMPDEST PUSH0 PUSH2 0xFC0 DUP5 DUP3 DUP6 ADD PUSH2 0xF8A JUMP JUMPDEST SWAP2 POP POP SWAP3 SWAP2 POP POP JUMP JUMPDEST PUSH0 PUSH1 0x80 DUP3 ADD SWAP1 POP PUSH2 0xFDC PUSH0 DUP4 ADD DUP8 PUSH2 0xE68 JUMP JUMPDEST PUSH2 0xFE9 PUSH1 0x20 DUP4 ADD DUP7 PUSH2 0xE68 JUMP JUMPDEST PUSH2 0xFF6 PUSH1 0x40 DUP4 ADD DUP6 PUSH2 0xE68 JUMP JUMPDEST PUSH2 0x1003 PUSH1 0x60 DUP4 ADD DUP5 PUSH2 0xE68 JUMP JUMPDEST SWAP6 SWAP5 POP POP POP POP POP JUMP JUMPDEST PUSH32 0x4E487B7100000000000000000000000000000000000000000000000000000000 PUSH0 MSTORE PUSH1 0x11 PUSH1 0x4 MSTORE PUSH1 0x24 PUSH0 REVERT JUMPDEST PUSH0 PUSH2 0x1043 DUP3 PUSH2 0xE5F JUMP JUMPDEST SWAP2 POP PUSH2 0x104E DUP4 PUSH2 0xE5F JUMP JUMPDEST SWAP3 POP DUP3 DUP3 SUB SWAP1 POP DUP2 DUP2 GT ISZERO PUSH2 0x1066 JUMPI PUSH2 0x1065 PUSH2 0x100C JUMP JUMPDEST JUMPDEST SWAP3 SWAP2 POP POP JUMP JUMPDEST PUSH0 PUSH2 0x1076 DUP3 PUSH2 0xE5F JUMP JUMPDEST SWAP2 POP PUSH32 0xFFFFFFFFFFFFFFFFFFFFFFFFFFFFFFFFFFFFFFFFFFFFFFFFFFFFFFFFFFFFFFFF DUP3 SUB PUSH2 0x10A8 JUMPI PUSH2 0x10A7 PUSH2 0x100C JUMP JUMPDEST JUMPDEST PUSH1 0x1 DUP3 ADD SWAP1 POP SWAP2 SWAP1 POP JUMP JUMPDEST PUSH0 PUSH1 0x40 DUP3 ADD SWAP1 POP PUSH2 0x10C6 PUSH0 DUP4 ADD DUP6 PUSH2 0xE68 JUMP JUMPDEST PUSH2 0x10D3 PUSH1 0x20 DUP4 ADD DUP5 PUSH2 0xE68 JUMP JUMPDEST SWAP4 SWAP3 POP POP POP JUMP JUMPDEST PUSH0 PUSH2 0x10E4 DUP3 PUSH2 0xE5F JUMP JUMPDEST SWAP2 POP PUSH2 0x10EF DUP4 PUSH2 0xE5F JUMP JUMPDEST SWAP3 POP DUP3 DUP3 ADD SWAP1 POP DUP1 DUP3 GT ISZERO PUSH2 0x1107 JUMPI PUSH2 0x1106 PUSH2 0x100C JUMP JUMPDEST JUMPDEST SWAP3 SWAP2 POP POP JUMP JUMPDEST PUSH0 DUP2 SWAP1 POP SWAP3 SWAP2 POP POP JUMP JUMPDEST POP JUMP JUMPDEST PUSH0 PUSH2 0x1125 PUSH0 DUP4 PUSH2 0x110D JUMP JUMPDEST SWAP2 POP PUSH2 0x1130 DUP3 PUSH2 0x1117 JUMP JUMPDEST PUSH0 DUP3 ADD SWAP1 POP SWAP2 SWAP1 POP JUMP JUMPDEST PUSH0 PUSH2 0x1144 DUP3 PUSH2 0x111A JUMP JUMPDEST SWAP2 POP DUP2 SWAP1 POP SWAP2 SWAP1 POP JUMP INVALID LOG2 PUSH5 0x6970667358 0x22 SLT KECCAK256 0xCC 0xCB 0xF JUMP 0x28 0x29 RETURNDATASIZE 0xB8 SELFDESTRUCT DELEGATECALL SWAP7 0xCB 0xBF DUP13 0xA8 0xB8 DUP16 DUP1 0xB9 BLOBBASEFEE 0x1E 0xE9 SWAP1 0xB7 SWAP8 LOG2 EXP RETF 0xD7 MOD REVERT DUP14 PUSH5 0x736F6C6343 STOP ADDMOD 0x1E STOP CALLER "
				},
				"gasEstimates": {
					"creation": {
						"codeDepositCost": "896800",
						"executionCost": "infinite",
						"totalCost": "infinite"
					},
					"external": {
						"MINIMUM_DEPOSIT()": "413",
						"WITHDRAWAL_LIMIT()": "infinite",
						"bankCap()": "2490",
						"deposit()": "infinite",
						"depositCount()": "2449",
						"getBalance(address)": "2939",
						"getBankStats()": "infinite",
						"getMaxWithdrawal(address)": "infinite",
						"getMyBalance()": "2609",
						"isPaused()": "2562",
						"owner()": "infinite",
						"pause()": "infinite",
						"paused()": "2489",
						"totalDeposits()": "2492",
						"unpause()": "infinite",
						"vaults(address)": "2869",
						"withdraw(uint256)": "infinite",
						"withdrawAll()": "infinite",
						"withdrawalCount()": "2470"
					},
					"internal": {
						"_sendEther(address,uint256)": "infinite"
					}
				},
				"methodIdentifiers": {
					"MINIMUM_DEPOSIT()": "f19451d8",
					"WITHDRAWAL_LIMIT()": "82ee0d1d",
					"bankCap()": "ecbea24d",
					"deposit()": "d0e30db0",
					"depositCount()": "2dfdf0b5",
					"getBalance(address)": "f8b2cb4f",
					"getBankStats()": "c6e8e38c",
					"getMaxWithdrawal(address)": "e4393e92",
					"getMyBalance()": "4c738909",
					"isPaused()": "b187bd26",
					"owner()": "8da5cb5b",
					"pause()": "8456cb59",
					"paused()": "5c975abb",
					"totalDeposits()": "7d882097",
					"unpause()": "3f4ba83a",
					"vaults(address)": "a622ee7c",
					"withdraw(uint256)": "2e1a7d4d",
					"withdrawAll()": "853828b6",
					"withdrawalCount()": "71706cbe"
				}
			},
			"storageLayout": {
				"storage": [
					{
						"astId": 15,
						"contract": "contracts/KipuBank.sol:KipuBank",
						"label": "bankCap",
						"offset": 0,
						"slot": "0",
						"type": "t_uint256"
					},
					{
						"astId": 18,
						"contract": "contracts/KipuBank.sol:KipuBank",
						"label": "totalDeposits",
						"offset": 0,
						"slot": "1",
						"type": "t_uint256"
					},
					{
						"astId": 21,
						"contract": "contracts/KipuBank.sol:KipuBank",
						"label": "depositCount",
						"offset": 0,
						"slot": "2",
						"type": "t_uint256"
					},
					{
						"astId": 24,
						"contract": "contracts/KipuBank.sol:KipuBank",
						"label": "withdrawalCount",
						"offset": 0,
						"slot": "3",
						"type": "t_uint256"
					},
					{
						"astId": 27,
						"contract": "contracts/KipuBank.sol:KipuBank",
						"label": "paused",
						"offset": 0,
						"slot": "4",
						"type": "t_bool"
					},
					{
						"astId": 32,
						"contract": "contracts/KipuBank.sol:KipuBank",
						"label": "vaults",
						"offset": 0,
						"slot": "5",
						"type": "t_mapping(t_address,t_uint256)"
					}
				],
				"types": {
					"t_address": {
						"encoding": "inplace",
						"label": "address",
						"numberOfBytes": "20"
					},
					"t_bool": {
						"encoding": "inplace",
						"label": "bool",
						"numberOfBytes": "1"
					},
					"t_mapping(t_address,t_uint256)": {
						"encoding": "mapping",
						"key": "t_address",
						"label": "mapping(address => uint256)",
						"numberOfBytes": "32",
						"value": "t_uint256"
					},
					"t_uint256": {
						"encoding": "inplace",
						"label": "uint256",
						"numberOfBytes": "32"
					}
				}
			},
			"userdoc": {
				"errors": {
					"BankCapExceeded()": [
						{
							"notice": "Error cuando el depósito excedería el límite total del banco"
						}
					],
					"ContractPaused()": [
						{
							"notice": "Error cuando el contrato está pausado"
						}
					],
					"DepositTooSmall()": [
						{
							"notice": "Error cuando el monto depositado es menor al mínimo permitido"
						}
					],
					"InsufficientBalance()": [
						{
							"notice": "Error cuando el usuario no tiene fondos suficientes para retirar"
						}
					],
					"InvalidWithdrawalAmount()": [
						{
							"notice": "Error cuando se intenta retirar cero o un monto inválido"
						}
					],
					"OnlyOwner()": [
						{
							"notice": "Error cuando alguien que no es el owner intenta ejecutar funciones administrativas"
						}
					],
					"TransferFailed()": [
						{
							"notice": "Error cuando la transferencia de ETH falla"
						}
					],
					"WithdrawalLimitExceeded()": [
						{
							"notice": "Error cuando el retiro solicitado excede el límite por transacción"
						}
					],
					"ZeroDeposit()": [
						{
							"notice": "Error cuando se intenta depositar 0 ETH"
						}
					]
				},
				"events": {
					"Deposit(address,uint256,uint256)": {
						"notice": "Se emite cuando un usuario deposita fondos exitosamente"
					},
					"Paused(address)": {
						"notice": "Se emite cuando el contrato es pausado"
					},
					"Unpaused(address)": {
						"notice": "Se emite cuando el contrato es despausado"
					},
					"Withdrawal(address,uint256,uint256)": {
						"notice": "Se emite cuando un usuario retira fondos exitosamente"
					}
				},
				"kind": "user",
				"methods": {
					"MINIMUM_DEPOSIT()": {
						"notice": "Depósito mínimo requerido para usar el banco"
					},
					"WITHDRAWAL_LIMIT()": {
						"notice": "Límite máximo de retiro por transacción"
					},
					"bankCap()": {
						"notice": "Límite total de depósitos que el banco puede aceptar"
					},
					"constructor": {
						"notice": "Inicializa el contrato KipuBank con parámetros configurables"
					},
					"deposit()": {
						"notice": "Permite a los usuarios depositar ETH en su bóveda personal"
					},
					"depositCount()": {
						"notice": "Contador global del número de depósitos realizados"
					},
					"getBalance(address)": {
						"notice": "Obtiene el balance de una dirección específica en su bóveda"
					},
					"getBankStats()": {
						"notice": "Obtiene estadísticas generales del banco"
					},
					"getMaxWithdrawal(address)": {
						"notice": "Calcula cuánto puede retirar un usuario en la próxima transacción"
					},
					"getMyBalance()": {
						"notice": "Obtiene el balance del caller (quien llama la función)"
					},
					"isPaused()": {
						"notice": "Verifica si el contrato está actualmente pausado"
					},
					"owner()": {
						"notice": "Dirección del propietario del contrato"
					},
					"pause()": {
						"notice": "Pausa el contrato en caso de emergencia (circuit breaker)"
					},
					"paused()": {
						"notice": "Estado del circuit breaker para pausar el contrato en emergencias"
					},
					"totalDeposits()": {
						"notice": "Total acumulado de fondos depositados actualmente en el banco"
					},
					"unpause()": {
						"notice": "Despausa el contrato y reanuda operaciones normales"
					},
					"vaults(address)": {
						"notice": "Mapeo de direcciones de usuarios a sus balances en la bóveda"
					},
					"withdraw(uint256)": {
						"notice": "Permite a los usuarios retirar ETH de su bóveda personal"
					},
					"withdrawAll()": {
						"notice": "Permite al usuario retirar todo su balance disponible"
					},
					"withdrawalCount()": {
						"notice": "Contador global del número de retiros realizados"
					}
				},
				"version": 1
			}
		}
	}
}