{
	"contracts/KipuBank.sol": {
		"KipuBankV2": {
			"abi": [
				{
					"inputs": [
						{
							"internalType": "address",
							"name": "_ethUsdPriceFeed",
							"type": "address"
						},
						{
							"internalType": "uint256",
							"name": "_bankCapUsd",
							"type": "uint256"
						},
						{
							"internalType": "uint256",
							"name": "_withdrawalLimitUsd",
							"type": "uint256"
						}
					],
					"stateMutability": "nonpayable",
					"type": "constructor"
				},
				{
					"inputs": [],
					"name": "AccessControlBadConfirmation",
					"type": "error"
				},
				{
					"inputs": [
						{
							"internalType": "address",
							"name": "account",
							"type": "address"
						},
						{
							"internalType": "bytes32",
							"name": "neededRole",
							"type": "bytes32"
						}
					],
					"name": "AccessControlUnauthorizedAccount",
					"type": "error"
				},
				{
					"inputs": [],
					"name": "BankCapExceeded",
					"type": "error"
				},
				{
					"inputs": [],
					"name": "DepositTooSmall",
					"type": "error"
				},
				{
					"inputs": [],
					"name": "EnforcedPause",
					"type": "error"
				},
				{
					"inputs": [],
					"name": "ExpectedPause",
					"type": "error"
				},
				{
					"inputs": [],
					"name": "InsufficientBalance",
					"type": "error"
				},
				{
					"inputs": [],
					"name": "InvalidAmount",
					"type": "error"
				},
				{
					"inputs": [],
					"name": "InvalidPrice",
					"type": "error"
				},
				{
					"inputs": [],
					"name": "InvalidPriceFeed",
					"type": "error"
				},
				{
					"inputs": [],
					"name": "InvalidTokenAddress",
					"type": "error"
				},
				{
					"inputs": [],
					"name": "ReentrancyGuardReentrantCall",
					"type": "error"
				},
				{
					"inputs": [
						{
							"internalType": "address",
							"name": "token",
							"type": "address"
						}
					],
					"name": "SafeERC20FailedOperation",
					"type": "error"
				},
				{
					"inputs": [],
					"name": "StalePrice",
					"type": "error"
				},
				{
					"inputs": [],
					"name": "TokenAlreadySupported",
					"type": "error"
				},
				{
					"inputs": [],
					"name": "TokenNotSupported",
					"type": "error"
				},
				{
					"inputs": [],
					"name": "TransferFailed",
					"type": "error"
				},
				{
					"inputs": [],
					"name": "WithdrawalLimitExceeded",
					"type": "error"
				},
				{
					"anonymous": false,
					"inputs": [
						{
							"indexed": true,
							"internalType": "address",
							"name": "user",
							"type": "address"
						},
						{
							"indexed": true,
							"internalType": "address",
							"name": "token",
							"type": "address"
						},
						{
							"indexed": false,
							"internalType": "uint256",
							"name": "amount",
							"type": "uint256"
						},
						{
							"indexed": false,
							"internalType": "uint256",
							"name": "amountUsd",
							"type": "uint256"
						}
					],
					"name": "Deposit",
					"type": "event"
				},
				{
					"anonymous": false,
					"inputs": [
						{
							"indexed": false,
							"internalType": "address",
							"name": "account",
							"type": "address"
						}
					],
					"name": "Paused",
					"type": "event"
				},
				{
					"anonymous": false,
					"inputs": [
						{
							"indexed": true,
							"internalType": "bytes32",
							"name": "role",
							"type": "bytes32"
						},
						{
							"indexed": true,
							"internalType": "bytes32",
							"name": "previousAdminRole",
							"type": "bytes32"
						},
						{
							"indexed": true,
							"internalType": "bytes32",
							"name": "newAdminRole",
							"type": "bytes32"
						}
					],
					"name": "RoleAdminChanged",
					"type": "event"
				},
				{
					"anonymous": false,
					"inputs": [
						{
							"indexed": true,
							"internalType": "bytes32",
							"name": "role",
							"type": "bytes32"
						},
						{
							"indexed": true,
							"internalType": "address",
							"name": "account",
							"type": "address"
						},
						{
							"indexed": true,
							"internalType": "address",
							"name": "sender",
							"type": "address"
						}
					],
					"name": "RoleGranted",
					"type": "event"
				},
				{
					"anonymous": false,
					"inputs": [
						{
							"indexed": true,
							"internalType": "bytes32",
							"name": "role",
							"type": "bytes32"
						},
						{
							"indexed": true,
							"internalType": "address",
							"name": "account",
							"type": "address"
						},
						{
							"indexed": true,
							"internalType": "address",
							"name": "sender",
							"type": "address"
						}
					],
					"name": "RoleRevoked",
					"type": "event"
				},
				{
					"anonymous": false,
					"inputs": [
						{
							"indexed": true,
							"internalType": "address",
							"name": "token",
							"type": "address"
						},
						{
							"indexed": false,
							"internalType": "uint8",
							"name": "decimals",
							"type": "uint8"
						},
						{
							"indexed": false,
							"internalType": "address",
							"name": "priceFeed",
							"type": "address"
						}
					],
					"name": "TokenAdded",
					"type": "event"
				},
				{
					"anonymous": false,
					"inputs": [
						{
							"indexed": true,
							"internalType": "address",
							"name": "token",
							"type": "address"
						}
					],
					"name": "TokenRemoved",
					"type": "event"
				},
				{
					"anonymous": false,
					"inputs": [
						{
							"indexed": false,
							"internalType": "address",
							"name": "account",
							"type": "address"
						}
					],
					"name": "Unpaused",
					"type": "event"
				},
				{
					"anonymous": false,
					"inputs": [
						{
							"indexed": true,
							"internalType": "address",
							"name": "user",
							"type": "address"
						},
						{
							"indexed": true,
							"internalType": "address",
							"name": "token",
							"type": "address"
						},
						{
							"indexed": false,
							"internalType": "uint256",
							"name": "amount",
							"type": "uint256"
						},
						{
							"indexed": false,
							"internalType": "uint256",
							"name": "amountUsd",
							"type": "uint256"
						}
					],
					"name": "Withdrawal",
					"type": "event"
				},
				{
					"inputs": [],
					"name": "ACCOUNTING_DECIMALS",
					"outputs": [
						{
							"internalType": "uint8",
							"name": "",
							"type": "uint8"
						}
					],
					"stateMutability": "view",
					"type": "function"
				},
				{
					"inputs": [],
					"name": "ADMIN_ROLE",
					"outputs": [
						{
							"internalType": "bytes32",
							"name": "",
							"type": "bytes32"
						}
					],
					"stateMutability": "view",
					"type": "function"
				},
				{
					"inputs": [],
					"name": "DEFAULT_ADMIN_ROLE",
					"outputs": [
						{
							"internalType": "bytes32",
							"name": "",
							"type": "bytes32"
						}
					],
					"stateMutability": "view",
					"type": "function"
				},
				{
					"inputs": [],
					"name": "MINIMUM_DEPOSIT_USD",
					"outputs": [
						{
							"internalType": "uint256",
							"name": "",
							"type": "uint256"
						}
					],
					"stateMutability": "view",
					"type": "function"
				},
				{
					"inputs": [],
					"name": "NATIVE_TOKEN",
					"outputs": [
						{
							"internalType": "address",
							"name": "",
							"type": "address"
						}
					],
					"stateMutability": "view",
					"type": "function"
				},
				{
					"inputs": [],
					"name": "OPERATOR_ROLE",
					"outputs": [
						{
							"internalType": "bytes32",
							"name": "",
							"type": "bytes32"
						}
					],
					"stateMutability": "view",
					"type": "function"
				},
				{
					"inputs": [],
					"name": "PRICE_FEED_DECIMALS",
					"outputs": [
						{
							"internalType": "uint8",
							"name": "",
							"type": "uint8"
						}
					],
					"stateMutability": "view",
					"type": "function"
				},
				{
					"inputs": [
						{
							"internalType": "address",
							"name": "token",
							"type": "address"
						},
						{
							"internalType": "address",
							"name": "priceFeed",
							"type": "address"
						}
					],
					"name": "addToken",
					"outputs": [],
					"stateMutability": "nonpayable",
					"type": "function"
				},
				{
					"inputs": [],
					"name": "bankCapUsd",
					"outputs": [
						{
							"internalType": "uint256",
							"name": "",
							"type": "uint256"
						}
					],
					"stateMutability": "view",
					"type": "function"
				},
				{
					"inputs": [
						{
							"internalType": "address",
							"name": "token",
							"type": "address"
						},
						{
							"internalType": "uint256",
							"name": "amountUsd",
							"type": "uint256"
						}
					],
					"name": "convertFromUsd",
					"outputs": [
						{
							"internalType": "uint256",
							"name": "",
							"type": "uint256"
						}
					],
					"stateMutability": "view",
					"type": "function"
				},
				{
					"inputs": [
						{
							"internalType": "address",
							"name": "token",
							"type": "address"
						},
						{
							"internalType": "uint256",
							"name": "amount",
							"type": "uint256"
						}
					],
					"name": "convertToUsd",
					"outputs": [
						{
							"internalType": "uint256",
							"name": "",
							"type": "uint256"
						}
					],
					"stateMutability": "view",
					"type": "function"
				},
				{
					"inputs": [
						{
							"internalType": "address",
							"name": "token",
							"type": "address"
						},
						{
							"internalType": "uint256",
							"name": "amount",
							"type": "uint256"
						}
					],
					"name": "deposit",
					"outputs": [],
					"stateMutability": "nonpayable",
					"type": "function"
				},
				{
					"inputs": [],
					"name": "depositCount",
					"outputs": [
						{
							"internalType": "uint256",
							"name": "",
							"type": "uint256"
						}
					],
					"stateMutability": "view",
					"type": "function"
				},
				{
					"inputs": [],
					"name": "depositNative",
					"outputs": [],
					"stateMutability": "payable",
					"type": "function"
				},
				{
					"inputs": [],
					"name": "ethUsdPriceFeed",
					"outputs": [
						{
							"internalType": "contract AggregatorV3Interface",
							"name": "",
							"type": "address"
						}
					],
					"stateMutability": "view",
					"type": "function"
				},
				{
					"inputs": [
						{
							"internalType": "address",
							"name": "user",
							"type": "address"
						}
					],
					"name": "getAllBalances",
					"outputs": [
						{
							"internalType": "address[]",
							"name": "tokens",
							"type": "address[]"
						},
						{
							"internalType": "uint256[]",
							"name": "balances",
							"type": "uint256[]"
						},
						{
							"internalType": "uint256[]",
							"name": "balancesUsd",
							"type": "uint256[]"
						}
					],
					"stateMutability": "view",
					"type": "function"
				},
				{
					"inputs": [
						{
							"internalType": "address",
							"name": "user",
							"type": "address"
						},
						{
							"internalType": "address",
							"name": "token",
							"type": "address"
						}
					],
					"name": "getBalance",
					"outputs": [
						{
							"internalType": "uint256",
							"name": "",
							"type": "uint256"
						}
					],
					"stateMutability": "view",
					"type": "function"
				},
				{
					"inputs": [
						{
							"internalType": "address",
							"name": "user",
							"type": "address"
						},
						{
							"internalType": "address",
							"name": "token",
							"type": "address"
						}
					],
					"name": "getBalanceInUsd",
					"outputs": [
						{
							"internalType": "uint256",
							"name": "",
							"type": "uint256"
						}
					],
					"stateMutability": "view",
					"type": "function"
				},
				{
					"inputs": [],
					"name": "getBankStats",
					"outputs": [
						{
							"internalType": "uint256",
							"name": "_totalDepositsUsd",
							"type": "uint256"
						},
						{
							"internalType": "uint256",
							"name": "_depositCount",
							"type": "uint256"
						},
						{
							"internalType": "uint256",
							"name": "_withdrawalCount",
							"type": "uint256"
						},
						{
							"internalType": "uint256",
							"name": "_availableCapacityUsd",
							"type": "uint256"
						}
					],
					"stateMutability": "view",
					"type": "function"
				},
				{
					"inputs": [
						{
							"internalType": "address",
							"name": "user",
							"type": "address"
						},
						{
							"internalType": "address",
							"name": "token",
							"type": "address"
						}
					],
					"name": "getMaxWithdrawal",
					"outputs": [
						{
							"internalType": "uint256",
							"name": "",
							"type": "uint256"
						}
					],
					"stateMutability": "view",
					"type": "function"
				},
				{
					"inputs": [
						{
							"internalType": "bytes32",
							"name": "role",
							"type": "bytes32"
						}
					],
					"name": "getRoleAdmin",
					"outputs": [
						{
							"internalType": "bytes32",
							"name": "",
							"type": "bytes32"
						}
					],
					"stateMutability": "view",
					"type": "function"
				},
				{
					"inputs": [],
					"name": "getSupportedTokens",
					"outputs": [
						{
							"internalType": "address[]",
							"name": "",
							"type": "address[]"
						}
					],
					"stateMutability": "view",
					"type": "function"
				},
				{
					"inputs": [
						{
							"internalType": "address",
							"name": "token",
							"type": "address"
						}
					],
					"name": "getTokenInfo",
					"outputs": [
						{
							"components": [
								{
									"internalType": "address",
									"name": "tokenAddress",
									"type": "address"
								},
								{
									"internalType": "uint8",
									"name": "decimals",
									"type": "uint8"
								},
								{
									"internalType": "bool",
									"name": "isSupported",
									"type": "bool"
								},
								{
									"internalType": "address",
									"name": "priceFeed",
									"type": "address"
								}
							],
							"internalType": "struct KipuBankV2.TokenInfo",
							"name": "info",
							"type": "tuple"
						}
					],
					"stateMutability": "view",
					"type": "function"
				},
				{
					"inputs": [
						{
							"internalType": "address",
							"name": "token",
							"type": "address"
						}
					],
					"name": "getTokenPrice",
					"outputs": [
						{
							"internalType": "uint256",
							"name": "",
							"type": "uint256"
						}
					],
					"stateMutability": "view",
					"type": "function"
				},
				{
					"inputs": [
						{
							"internalType": "bytes32",
							"name": "role",
							"type": "bytes32"
						},
						{
							"internalType": "address",
							"name": "account",
							"type": "address"
						}
					],
					"name": "grantRole",
					"outputs": [],
					"stateMutability": "nonpayable",
					"type": "function"
				},
				{
					"inputs": [
						{
							"internalType": "bytes32",
							"name": "role",
							"type": "bytes32"
						},
						{
							"internalType": "address",
							"name": "account",
							"type": "address"
						}
					],
					"name": "hasRole",
					"outputs": [
						{
							"internalType": "bool",
							"name": "",
							"type": "bool"
						}
					],
					"stateMutability": "view",
					"type": "function"
				},
				{
					"inputs": [
						{
							"internalType": "address",
							"name": "",
							"type": "address"
						}
					],
					"name": "isTokenSupported",
					"outputs": [
						{
							"internalType": "bool",
							"name": "",
							"type": "bool"
						}
					],
					"stateMutability": "view",
					"type": "function"
				},
				{
					"inputs": [],
					"name": "pause",
					"outputs": [],
					"stateMutability": "nonpayable",
					"type": "function"
				},
				{
					"inputs": [],
					"name": "paused",
					"outputs": [
						{
							"internalType": "bool",
							"name": "",
							"type": "bool"
						}
					],
					"stateMutability": "view",
					"type": "function"
				},
				{
					"inputs": [
						{
							"internalType": "address",
							"name": "token",
							"type": "address"
						}
					],
					"name": "removeToken",
					"outputs": [],
					"stateMutability": "nonpayable",
					"type": "function"
				},
				{
					"inputs": [
						{
							"internalType": "bytes32",
							"name": "role",
							"type": "bytes32"
						},
						{
							"internalType": "address",
							"name": "callerConfirmation",
							"type": "address"
						}
					],
					"name": "renounceRole",
					"outputs": [],
					"stateMutability": "nonpayable",
					"type": "function"
				},
				{
					"inputs": [
						{
							"internalType": "bytes32",
							"name": "role",
							"type": "bytes32"
						},
						{
							"internalType": "address",
							"name": "account",
							"type": "address"
						}
					],
					"name": "revokeRole",
					"outputs": [],
					"stateMutability": "nonpayable",
					"type": "function"
				},
				{
					"inputs": [
						{
							"internalType": "uint256",
							"name": "",
							"type": "uint256"
						}
					],
					"name": "supportedTokens",
					"outputs": [
						{
							"internalType": "address",
							"name": "",
							"type": "address"
						}
					],
					"stateMutability": "view",
					"type": "function"
				},
				{
					"inputs": [
						{
							"internalType": "bytes4",
							"name": "interfaceId",
							"type": "bytes4"
						}
					],
					"name": "supportsInterface",
					"outputs": [
						{
							"internalType": "bool",
							"name": "",
							"type": "bool"
						}
					],
					"stateMutability": "view",
					"type": "function"
				},
				{
					"inputs": [
						{
							"internalType": "address",
							"name": "",
							"type": "address"
						}
					],
					"name": "tokenDecimals",
					"outputs": [
						{
							"internalType": "uint8",
							"name": "",
							"type": "uint8"
						}
					],
					"stateMutability": "view",
					"type": "function"
				},
				{
					"inputs": [
						{
							"internalType": "address",
							"name": "",
							"type": "address"
						}
					],
					"name": "tokenPriceFeeds",
					"outputs": [
						{
							"internalType": "contract AggregatorV3Interface",
							"name": "",
							"type": "address"
						}
					],
					"stateMutability": "view",
					"type": "function"
				},
				{
					"inputs": [],
					"name": "totalDepositsUsd",
					"outputs": [
						{
							"internalType": "uint256",
							"name": "",
							"type": "uint256"
						}
					],
					"stateMutability": "view",
					"type": "function"
				},
				{
					"inputs": [],
					"name": "unpause",
					"outputs": [],
					"stateMutability": "nonpayable",
					"type": "function"
				},
				{
					"inputs": [
						{
							"internalType": "address",
							"name": "",
							"type": "address"
						},
						{
							"internalType": "address",
							"name": "",
							"type": "address"
						}
					],
					"name": "vaults",
					"outputs": [
						{
							"internalType": "uint256",
							"name": "",
							"type": "uint256"
						}
					],
					"stateMutability": "view",
					"type": "function"
				},
				{
					"inputs": [
						{
							"internalType": "address",
							"name": "token",
							"type": "address"
						},
						{
							"internalType": "uint256",
							"name": "amount",
							"type": "uint256"
						}
					],
					"name": "withdraw",
					"outputs": [],
					"stateMutability": "nonpayable",
					"type": "function"
				},
				{
					"inputs": [
						{
							"internalType": "address",
							"name": "token",
							"type": "address"
						}
					],
					"name": "withdrawAll",
					"outputs": [],
					"stateMutability": "nonpayable",
					"type": "function"
				},
				{
					"inputs": [],
					"name": "withdrawalCount",
					"outputs": [
						{
							"internalType": "uint256",
							"name": "",
							"type": "uint256"
						}
					],
					"stateMutability": "view",
					"type": "function"
				},
				{
					"inputs": [],
					"name": "withdrawalLimitUsd",
					"outputs": [
						{
							"internalType": "uint256",
							"name": "",
							"type": "uint256"
						}
					],
					"stateMutability": "view",
					"type": "function"
				}
			],
			"devdoc": {
				"author": "ImaaValenzuela",
				"details": "Implementa:      - Soporte multi-token (ETH y ERC20)      - Control de acceso basado en roles (OpenZeppelin AccessControl)      - Oracle de Chainlink para conversión ETH/USD      - Contabilidad interna normalizada a decimales USDC (6 decimales)      - Pausabilidad con OpenZeppelin Pausable      - Protección contra reentrancy con OpenZeppelin ReentrancyGuard      - Límite del banco en USD  Arquitectura: - address(0) representa depósitos en ETH nativo - Todos los montos se normalizan a 6 decimales (estándar USDC) internamente - Los límites se manejan en USD usando Chainlink Price Feeds",
				"errors": {
					"AccessControlBadConfirmation()": [
						{
							"details": "The caller of a function is not the expected one. NOTE: Don't confuse with {AccessControlUnauthorizedAccount}."
						}
					],
					"AccessControlUnauthorizedAccount(address,bytes32)": [
						{
							"details": "The `account` is missing a role."
						}
					],
					"EnforcedPause()": [
						{
							"details": "The operation failed because the contract is paused."
						}
					],
					"ExpectedPause()": [
						{
							"details": "The operation failed because the contract is not paused."
						}
					],
					"ReentrancyGuardReentrantCall()": [
						{
							"details": "Unauthorized reentrant call."
						}
					],
					"SafeERC20FailedOperation(address)": [
						{
							"details": "An operation with an ERC-20 token failed."
						}
					]
				},
				"events": {
					"Deposit(address,address,uint256,uint256)": {
						"params": {
							"amount": "Cantidad depositada en decimales nativos del token",
							"amountUsd": "Valor del depósito en USD normalizado",
							"token": "Dirección del token (address(0) para ETH)",
							"user": "Dirección del usuario"
						}
					},
					"Paused(address)": {
						"details": "Emitted when the pause is triggered by `account`."
					},
					"RoleAdminChanged(bytes32,bytes32,bytes32)": {
						"details": "Emitted when `newAdminRole` is set as ``role``'s admin role, replacing `previousAdminRole` `DEFAULT_ADMIN_ROLE` is the starting admin for all roles, despite {RoleAdminChanged} not being emitted to signal this."
					},
					"RoleGranted(bytes32,address,address)": {
						"details": "Emitted when `account` is granted `role`. `sender` is the account that originated the contract call. This account bears the admin role (for the granted role). Expected in cases where the role was granted using the internal {AccessControl-_grantRole}."
					},
					"RoleRevoked(bytes32,address,address)": {
						"details": "Emitted when `account` is revoked `role`. `sender` is the account that originated the contract call:   - if using `revokeRole`, it is the admin role bearer   - if using `renounceRole`, it is the role bearer (i.e. `account`)"
					},
					"TokenAdded(address,uint8,address)": {
						"params": {
							"decimals": "Decimales del token",
							"priceFeed": "Dirección del oracle de precio",
							"token": "Dirección del token"
						}
					},
					"TokenRemoved(address)": {
						"params": {
							"token": "Dirección del token removido"
						}
					},
					"Unpaused(address)": {
						"details": "Emitted when the pause is lifted by `account`."
					},
					"Withdrawal(address,address,uint256,uint256)": {
						"params": {
							"amount": "Cantidad retirada en decimales nativos del token",
							"amountUsd": "Valor del retiro en USD normalizado",
							"token": "Dirección del token (address(0) para ETH)",
							"user": "Dirección del usuario"
						}
					}
				},
				"kind": "dev",
				"methods": {
					"addToken(address,address)": {
						"details": "Solo ADMIN_ROLE puede ejecutar",
						"params": {
							"priceFeed": "Dirección del oracle Chainlink para este token",
							"token": "Dirección del token ERC20"
						}
					},
					"constructor": {
						"details": "El deployer recibe DEFAULT_ADMIN_ROLE, ADMIN_ROLE y OPERATOR_ROLE  Ejemplo Sepolia: _ethUsdPriceFeed: 0x694AA1769357215DE4FAC081bf1f309aDC325306 _bankCapUsd: 100000000000 (100,000 USD) _withdrawalLimitUsd: 1000000000 (1,000 USD)",
						"params": {
							"_bankCapUsd": "Límite del banco en USD (con 6 decimales)",
							"_ethUsdPriceFeed": "Dirección del oracle Chainlink ETH/USD",
							"_withdrawalLimitUsd": "Límite de retiro en USD (con 6 decimales)"
						}
					},
					"convertFromUsd(address,uint256)": {
						"params": {
							"amountUsd": "Monto en USD con ACCOUNTING_DECIMALS",
							"token": "Dirección del token"
						},
						"returns": {
							"_0": "Cantidad en decimales nativos del token"
						}
					},
					"convertToUsd(address,uint256)": {
						"params": {
							"amount": "Cantidad en decimales nativos del token",
							"token": "Dirección del token"
						},
						"returns": {
							"_0": "Valor en USD con ACCOUNTING_DECIMALS"
						}
					},
					"deposit(address,uint256)": {
						"details": "Requiere aprobación previa del token",
						"params": {
							"amount": "Cantidad a depositar en decimales nativos del token",
							"token": "Dirección del token ERC20"
						}
					},
					"depositNative()": {
						"details": "Función payable que acepta ETH"
					},
					"getAllBalances(address)": {
						"params": {
							"user": "Dirección del usuario"
						},
						"returns": {
							"balances": "Array de balances correspondientes",
							"balancesUsd": "Array de balances en USD",
							"tokens": "Array de direcciones de tokens"
						}
					},
					"getBalance(address,address)": {
						"params": {
							"token": "Dirección del token",
							"user": "Dirección del usuario"
						},
						"returns": {
							"_0": "Balance en decimales nativos del token"
						}
					},
					"getBalanceInUsd(address,address)": {
						"params": {
							"token": "Dirección del token",
							"user": "Dirección del usuario"
						},
						"returns": {
							"_0": "Balance en USD con ACCOUNTING_DECIMALS"
						}
					},
					"getBankStats()": {
						"returns": {
							"_availableCapacityUsd": "Capacidad restante en USD",
							"_depositCount": "Número de depósitos",
							"_totalDepositsUsd": "Total depositado en USD",
							"_withdrawalCount": "Número de retiros"
						}
					},
					"getMaxWithdrawal(address,address)": {
						"params": {
							"token": "Dirección del token",
							"user": "Dirección del usuario"
						},
						"returns": {
							"_0": "Cantidad máxima en decimales nativos del token"
						}
					},
					"getRoleAdmin(bytes32)": {
						"details": "Returns the admin role that controls `role`. See {grantRole} and {revokeRole}. To change a role's admin, use {_setRoleAdmin}."
					},
					"getSupportedTokens()": {
						"returns": {
							"_0": "Array de direcciones de tokens soportados"
						}
					},
					"getTokenInfo(address)": {
						"params": {
							"token": "Dirección del token"
						},
						"returns": {
							"info": "Estructura con información del token"
						}
					},
					"getTokenPrice(address)": {
						"params": {
							"token": "Dirección del token"
						},
						"returns": {
							"_0": "Precio en USD con PRICE_FEED_DECIMALS"
						}
					},
					"grantRole(bytes32,address)": {
						"details": "Grants `role` to `account`. If `account` had not been already granted `role`, emits a {RoleGranted} event. Requirements: - the caller must have ``role``'s admin role. May emit a {RoleGranted} event."
					},
					"hasRole(bytes32,address)": {
						"details": "Returns `true` if `account` has been granted `role`."
					},
					"pause()": {
						"details": "Solo OPERATOR_ROLE puede ejecutar"
					},
					"paused()": {
						"details": "Returns true if the contract is paused, and false otherwise."
					},
					"removeToken(address)": {
						"details": "No se puede remover ETH nativo. Solo ADMIN_ROLE puede ejecutar",
						"params": {
							"token": "Dirección del token a remover"
						}
					},
					"renounceRole(bytes32,address)": {
						"details": "Revokes `role` from the calling account. Roles are often managed via {grantRole} and {revokeRole}: this function's purpose is to provide a mechanism for accounts to lose their privileges if they are compromised (such as when a trusted device is misplaced). If the calling account had been revoked `role`, emits a {RoleRevoked} event. Requirements: - the caller must be `callerConfirmation`. May emit a {RoleRevoked} event."
					},
					"revokeRole(bytes32,address)": {
						"details": "Revokes `role` from `account`. If `account` had been granted `role`, emits a {RoleRevoked} event. Requirements: - the caller must have ``role``'s admin role. May emit a {RoleRevoked} event."
					},
					"supportsInterface(bytes4)": {
						"details": "Solución: override explícito por si AccessControl y otros generan ambigüedad"
					},
					"unpause()": {
						"details": "Solo OPERATOR_ROLE puede ejecutar"
					},
					"withdraw(address,uint256)": {
						"params": {
							"amount": "Cantidad a retirar en decimales nativos del token",
							"token": "Dirección del token (address(0) para ETH)"
						}
					},
					"withdrawAll(address)": {
						"details": "Respeta el límite de retiro en USD",
						"params": {
							"token": "Dirección del token (address(0) para ETH)"
						}
					}
				},
				"stateVariables": {
					"tokenPriceFeeds": {
						"details": "ETH usa ethUsdPriceFeed directamente"
					}
				},
				"title": "KipuBankV2",
				"version": 1
			},
			"evm": {
				"assembly": "    /* \"contracts/KipuBank.sol\":1332:23119  contract KipuBankV2 is AccessControl, ReentrancyGuard, Pausable {... */\n  mstore(0x40, 0xe0)\n    /* \"contracts/KipuBank.sol\":6705:7555  constructor(... */\n  callvalue\n  dup1\n  iszero\n  tag_1\n  jumpi\n  revert(0x00, 0x00)\ntag_1:\n  pop\n  mload(0x40)\n  sub(codesize, bytecodeSize)\n  dup1\n  bytecodeSize\n  dup4\n  codecopy\n  dup2\n  dup2\n  add\n  0x40\n  mstore\n  dup2\n  add\n  swap1\n  tag_2\n  swap2\n  swap1\n  tag_3\n  jump\t// in\ntag_2:\n    /* \"@openzeppelin/contracts/utils/ReentrancyGuard.sol\":1857:1858  1 */\n  0x01\n    /* \"@openzeppelin/contracts/utils/ReentrancyGuard.sol\":2061:2068  _status */\n  dup1\n    /* \"@openzeppelin/contracts/utils/ReentrancyGuard.sol\":2061:2082  _status = NOT_ENTERED */\n  dup2\n  swap1\n  sstore\n  pop\n    /* \"contracts/KipuBank.sol\":6870:6871  0 */\n  0x00\n    /* \"contracts/KipuBank.sol\":6842:6872  _ethUsdPriceFeed == address(0) */\n  0xffffffffffffffffffffffffffffffffffffffff\n  and\n    /* \"contracts/KipuBank.sol\":6842:6858  _ethUsdPriceFeed */\n  dup4\n    /* \"contracts/KipuBank.sol\":6842:6872  _ethUsdPriceFeed == address(0) */\n  0xffffffffffffffffffffffffffffffffffffffff\n  and\n  sub\n    /* \"contracts/KipuBank.sol\":6838:6899  if (_ethUsdPriceFeed == address(0)) revert InvalidPriceFeed() */\n  tag_8\n  jumpi\n    /* \"contracts/KipuBank.sol\":6881:6899  InvalidPriceFeed() */\n  mload(0x40)\n  0x52cc3f7d00000000000000000000000000000000000000000000000000000000\n  dup2\n  mstore\n  0x04\n  add\n  mload(0x40)\n  dup1\n  swap2\n  sub\n  swap1\n  revert\n    /* \"contracts/KipuBank.sol\":6838:6899  if (_ethUsdPriceFeed == address(0)) revert InvalidPriceFeed() */\ntag_8:\n    /* \"contracts/KipuBank.sol\":6929:6930  0 */\n  0x00\n    /* \"contracts/KipuBank.sol\":6914:6925  _bankCapUsd */\n  dup3\n    /* \"contracts/KipuBank.sol\":6914:6930  _bankCapUsd == 0 */\n  sub\n    /* \"contracts/KipuBank.sol\":6910:6954  if (_bankCapUsd == 0) revert InvalidAmount() */\n  tag_9\n  jumpi\n    /* \"contracts/KipuBank.sol\":6939:6954  InvalidAmount() */\n  mload(0x40)\n  0x2c5211c600000000000000000000000000000000000000000000000000000000\n  dup2\n  mstore\n  0x04\n  add\n  mload(0x40)\n  dup1\n  swap2\n  sub\n  swap1\n  revert\n    /* \"contracts/KipuBank.sol\":6910:6954  if (_bankCapUsd == 0) revert InvalidAmount() */\ntag_9:\n    /* \"contracts/KipuBank.sol\":6992:6993  0 */\n  0x00\n    /* \"contracts/KipuBank.sol\":6969:6988  _withdrawalLimitUsd */\n  dup2\n    /* \"contracts/KipuBank.sol\":6969:6993  _withdrawalLimitUsd == 0 */\n  sub\n    /* \"contracts/KipuBank.sol\":6965:7017  if (_withdrawalLimitUsd == 0) revert InvalidAmount() */\n  tag_10\n  jumpi\n    /* \"contracts/KipuBank.sol\":7002:7017  InvalidAmount() */\n  mload(0x40)\n  0x2c5211c600000000000000000000000000000000000000000000000000000000\n  dup2\n  mstore\n  0x04\n  add\n  mload(0x40)\n  dup1\n  swap2\n  sub\n  swap1\n  revert\n    /* \"contracts/KipuBank.sol\":6965:7017  if (_withdrawalLimitUsd == 0) revert InvalidAmount() */\ntag_10:\n    /* \"contracts/KipuBank.sol\":7054:7065  _bankCapUsd */\n  dup2\n    /* \"contracts/KipuBank.sol\":7032:7051  _withdrawalLimitUsd */\n  dup2\n    /* \"contracts/KipuBank.sol\":7032:7065  _withdrawalLimitUsd > _bankCapUsd */\n  gt\n    /* \"contracts/KipuBank.sol\":7028:7099  if (_withdrawalLimitUsd > _bankCapUsd) revert WithdrawalLimitExceeded() */\n  iszero\n  tag_11\n  jumpi\n    /* \"contracts/KipuBank.sol\":7074:7099  WithdrawalLimitExceeded() */\n  mload(0x40)\n  0x4e6a369600000000000000000000000000000000000000000000000000000000\n  dup2\n  mstore\n  0x04\n  add\n  mload(0x40)\n  dup1\n  swap2\n  sub\n  swap1\n  revert\n    /* \"contracts/KipuBank.sol\":7028:7099  if (_withdrawalLimitUsd > _bankCapUsd) revert WithdrawalLimitExceeded() */\ntag_11:\n    /* \"contracts/KipuBank.sol\":7152:7168  _ethUsdPriceFeed */\n  dup3\n    /* \"contracts/KipuBank.sol\":7112:7169  ethUsdPriceFeed = AggregatorV3Interface(_ethUsdPriceFeed) */\n  0xffffffffffffffffffffffffffffffffffffffff\n  and\n  0x80\n  dup2\n  0xffffffffffffffffffffffffffffffffffffffff\n  and\n  dup2\n  mstore\n  pop\n  pop\n    /* \"contracts/KipuBank.sol\":7193:7204  _bankCapUsd */\n  dup2\n    /* \"contracts/KipuBank.sol\":7180:7204  bankCapUsd = _bankCapUsd */\n  0xa0\n  dup2\n  dup2\n  mstore\n  pop\n  pop\n    /* \"contracts/KipuBank.sol\":7236:7255  _withdrawalLimitUsd */\n  dup1\n    /* \"contracts/KipuBank.sol\":7215:7255  withdrawalLimitUsd = _withdrawalLimitUsd */\n  0xc0\n  dup2\n  dup2\n  mstore\n  pop\n  pop\n    /* \"contracts/KipuBank.sol\":7297:7339  _grantRole(DEFAULT_ADMIN_ROLE, msg.sender) */\n  tag_12\n    /* \"@openzeppelin/contracts/access/AccessControl.sol\":2241:2245  0x00 */\n  0x00\n    /* \"contracts/KipuBank.sol\":7308:7326  DEFAULT_ADMIN_ROLE */\n  0x00\n  shl\n    /* \"contracts/KipuBank.sol\":7328:7338  msg.sender */\n  caller\n    /* \"contracts/KipuBank.sol\":7297:7307  _grantRole */\n  shl(0x20, tag_13)\n    /* \"contracts/KipuBank.sol\":7297:7339  _grantRole(DEFAULT_ADMIN_ROLE, msg.sender) */\n  0x20\n  shr\n  jump\t// in\ntag_12:\n  pop\n    /* \"contracts/KipuBank.sol\":7350:7384  _grantRole(ADMIN_ROLE, msg.sender) */\n  tag_14\n    /* \"contracts/KipuBank.sol\":1576:1599  keccak256(\"ADMIN_ROLE\") */\n  0xa49807205ce4d355092ef5a8a18f56e8913cf4a201fbe287825b095693c21775\n    /* \"contracts/KipuBank.sol\":7373:7383  msg.sender */\n  caller\n    /* \"contracts/KipuBank.sol\":7350:7360  _grantRole */\n  shl(0x20, tag_13)\n    /* \"contracts/KipuBank.sol\":7350:7384  _grantRole(ADMIN_ROLE, msg.sender) */\n  0x20\n  shr\n  jump\t// in\ntag_14:\n  pop\n    /* \"contracts/KipuBank.sol\":7395:7432  _grantRole(OPERATOR_ROLE, msg.sender) */\n  tag_15\n    /* \"contracts/KipuBank.sol\":1727:1753  keccak256(\"OPERATOR_ROLE\") */\n  0x97667070c54ef182b0f5858b034beac1b6f3089aa2d3188bb1e8929f4fa9b929\n    /* \"contracts/KipuBank.sol\":7421:7431  msg.sender */\n  caller\n    /* \"contracts/KipuBank.sol\":7395:7405  _grantRole */\n  shl(0x20, tag_13)\n    /* \"contracts/KipuBank.sol\":7395:7432  _grantRole(OPERATOR_ROLE, msg.sender) */\n  0x20\n  shr\n  jump\t// in\ntag_15:\n  pop\n    /* \"contracts/KipuBank.sol\":7502:7547  _addToken(NATIVE_TOKEN, 18, _ethUsdPriceFeed) */\n  tag_16\n    /* \"contracts/KipuBank.sol\":1918:1919  0 */\n  0x00\n    /* \"contracts/KipuBank.sol\":7526:7528  18 */\n  0x12\n    /* \"contracts/KipuBank.sol\":7530:7546  _ethUsdPriceFeed */\n  dup6\n    /* \"contracts/KipuBank.sol\":7502:7511  _addToken */\n  shl(0x20, tag_17)\n    /* \"contracts/KipuBank.sol\":7502:7547  _addToken(NATIVE_TOKEN, 18, _ethUsdPriceFeed) */\n  0x20\n  shr\n  jump\t// in\ntag_16:\n    /* \"contracts/KipuBank.sol\":6705:7555  constructor(... */\n  pop\n  pop\n  pop\n    /* \"contracts/KipuBank.sol\":1332:23119  contract KipuBankV2 is AccessControl, ReentrancyGuard, Pausable {... */\n  jump(tag_18)\n    /* \"@openzeppelin/contracts/access/AccessControl.sol\":6155:6471  function _grantRole(bytes32 role, address account) internal virtual returns (bool) {... */\ntag_13:\n    /* \"@openzeppelin/contracts/access/AccessControl.sol\":6232:6236  bool */\n  0x00\n    /* \"@openzeppelin/contracts/access/AccessControl.sol\":6253:6275  hasRole(role, account) */\n  tag_20\n    /* \"@openzeppelin/contracts/access/AccessControl.sol\":6261:6265  role */\n  dup4\n    /* \"@openzeppelin/contracts/access/AccessControl.sol\":6267:6274  account */\n  dup4\n    /* \"@openzeppelin/contracts/access/AccessControl.sol\":6253:6260  hasRole */\n  shl(0x20, tag_21)\n    /* \"@openzeppelin/contracts/access/AccessControl.sol\":6253:6275  hasRole(role, account) */\n  0x20\n  shr\n  jump\t// in\ntag_20:\n    /* \"@openzeppelin/contracts/access/AccessControl.sol\":6248:6465  if (!hasRole(role, account)) {... */\n  tag_22\n  jumpi\n    /* \"@openzeppelin/contracts/access/AccessControl.sol\":6323:6327  true */\n  0x01\n    /* \"@openzeppelin/contracts/access/AccessControl.sol\":6291:6297  _roles */\n  0x00\n    /* \"@openzeppelin/contracts/access/AccessControl.sol\":6291:6303  _roles[role] */\n  0x00\n    /* \"@openzeppelin/contracts/access/AccessControl.sol\":6298:6302  role */\n  dup6\n    /* \"@openzeppelin/contracts/access/AccessControl.sol\":6291:6303  _roles[role] */\n  dup2\n  mstore\n  0x20\n  add\n  swap1\n  dup2\n  mstore\n  0x20\n  add\n  0x00\n  keccak256\n    /* \"@openzeppelin/contracts/access/AccessControl.sol\":6291:6311  _roles[role].hasRole */\n  0x00\n  add\n    /* \"@openzeppelin/contracts/access/AccessControl.sol\":6291:6320  _roles[role].hasRole[account] */\n  0x00\n    /* \"@openzeppelin/contracts/access/AccessControl.sol\":6312:6319  account */\n  dup5\n    /* \"@openzeppelin/contracts/access/AccessControl.sol\":6291:6320  _roles[role].hasRole[account] */\n  0xffffffffffffffffffffffffffffffffffffffff\n  and\n  0xffffffffffffffffffffffffffffffffffffffff\n  and\n  dup2\n  mstore\n  0x20\n  add\n  swap1\n  dup2\n  mstore\n  0x20\n  add\n  0x00\n  keccak256\n  0x00\n    /* \"@openzeppelin/contracts/access/AccessControl.sol\":6291:6327  _roles[role].hasRole[account] = true */\n  0x0100\n  exp\n  dup2\n  sload\n  dup2\n  0xff\n  mul\n  not\n  and\n  swap1\n  dup4\n  iszero\n  iszero\n  mul\n  or\n  swap1\n  sstore\n  pop\n    /* \"@openzeppelin/contracts/access/AccessControl.sol\":6373:6385  _msgSender() */\n  tag_23\n    /* \"@openzeppelin/contracts/access/AccessControl.sol\":6373:6383  _msgSender */\n  shl(0x20, tag_24)\n    /* \"@openzeppelin/contracts/access/AccessControl.sol\":6373:6385  _msgSender() */\n  0x20\n  shr\n  jump\t// in\ntag_23:\n    /* \"@openzeppelin/contracts/access/AccessControl.sol\":6346:6386  RoleGranted(role, account, _msgSender()) */\n  0xffffffffffffffffffffffffffffffffffffffff\n  and\n    /* \"@openzeppelin/contracts/access/AccessControl.sol\":6364:6371  account */\n  dup3\n    /* \"@openzeppelin/contracts/access/AccessControl.sol\":6346:6386  RoleGranted(role, account, _msgSender()) */\n  0xffffffffffffffffffffffffffffffffffffffff\n  and\n    /* \"@openzeppelin/contracts/access/AccessControl.sol\":6358:6362  role */\n  dup5\n    /* \"@openzeppelin/contracts/access/AccessControl.sol\":6346:6386  RoleGranted(role, account, _msgSender()) */\n  0x2f8788117e7eff1d82e926ec794901d17c78024a50270940304540a733656f0d\n  mload(0x40)\n  mload(0x40)\n  dup1\n  swap2\n  sub\n  swap1\n  log4\n    /* \"@openzeppelin/contracts/access/AccessControl.sol\":6407:6411  true */\n  0x01\n    /* \"@openzeppelin/contracts/access/AccessControl.sol\":6400:6411  return true */\n  swap1\n  pop\n  jump(tag_19)\n    /* \"@openzeppelin/contracts/access/AccessControl.sol\":6248:6465  if (!hasRole(role, account)) {... */\ntag_22:\n    /* \"@openzeppelin/contracts/access/AccessControl.sol\":6449:6454  false */\n  0x00\n    /* \"@openzeppelin/contracts/access/AccessControl.sol\":6442:6454  return false */\n  swap1\n  pop\n    /* \"@openzeppelin/contracts/access/AccessControl.sol\":6155:6471  function _grantRole(bytes32 role, address account) internal virtual returns (bool) {... */\ntag_19:\n  swap3\n  swap2\n  pop\n  pop\n  jump\t// out\n    /* \"contracts/KipuBank.sol\":18849:19214  function _addToken(... */\ntag_17:\n    /* \"contracts/KipuBank.sol\":18998:19002  true */\n  0x01\n    /* \"contracts/KipuBank.sol\":18972:18988  isTokenSupported */\n  0x08\n    /* \"contracts/KipuBank.sol\":18972:18995  isTokenSupported[token] */\n  0x00\n    /* \"contracts/KipuBank.sol\":18989:18994  token */\n  dup6\n    /* \"contracts/KipuBank.sol\":18972:18995  isTokenSupported[token] */\n  0xffffffffffffffffffffffffffffffffffffffff\n  and\n  0xffffffffffffffffffffffffffffffffffffffff\n  and\n  dup2\n  mstore\n  0x20\n  add\n  swap1\n  dup2\n  mstore\n  0x20\n  add\n  0x00\n  keccak256\n  0x00\n    /* \"contracts/KipuBank.sol\":18972:19002  isTokenSupported[token] = true */\n  0x0100\n  exp\n  dup2\n  sload\n  dup2\n  0xff\n  mul\n  not\n  and\n  swap1\n  dup4\n  iszero\n  iszero\n  mul\n  or\n  swap1\n  sstore\n  pop\n    /* \"contracts/KipuBank.sol\":19036:19044  decimals */\n  dup2\n    /* \"contracts/KipuBank.sol\":19013:19026  tokenDecimals */\n  0x09\n    /* \"contracts/KipuBank.sol\":19013:19033  tokenDecimals[token] */\n  0x00\n    /* \"contracts/KipuBank.sol\":19027:19032  token */\n  dup6\n    /* \"contracts/KipuBank.sol\":19013:19033  tokenDecimals[token] */\n  0xffffffffffffffffffffffffffffffffffffffff\n  and\n  0xffffffffffffffffffffffffffffffffffffffff\n  and\n  dup2\n  mstore\n  0x20\n  add\n  swap1\n  dup2\n  mstore\n  0x20\n  add\n  0x00\n  keccak256\n  0x00\n    /* \"contracts/KipuBank.sol\":19013:19044  tokenDecimals[token] = decimals */\n  0x0100\n  exp\n  dup2\n  sload\n  dup2\n  0xff\n  mul\n  not\n  and\n  swap1\n  dup4\n  0xff\n  and\n  mul\n  or\n  swap1\n  sstore\n  pop\n    /* \"contracts/KipuBank.sol\":19102:19111  priceFeed */\n  dup1\n    /* \"contracts/KipuBank.sol\":19055:19070  tokenPriceFeeds */\n  0x0a\n    /* \"contracts/KipuBank.sol\":19055:19077  tokenPriceFeeds[token] */\n  0x00\n    /* \"contracts/KipuBank.sol\":19071:19076  token */\n  dup6\n    /* \"contracts/KipuBank.sol\":19055:19077  tokenPriceFeeds[token] */\n  0xffffffffffffffffffffffffffffffffffffffff\n  and\n  0xffffffffffffffffffffffffffffffffffffffff\n  and\n  dup2\n  mstore\n  0x20\n  add\n  swap1\n  dup2\n  mstore\n  0x20\n  add\n  0x00\n  keccak256\n  0x00\n    /* \"contracts/KipuBank.sol\":19055:19112  tokenPriceFeeds[token] = AggregatorV3Interface(priceFeed) */\n  0x0100\n  exp\n  dup2\n  sload\n  dup2\n  0xffffffffffffffffffffffffffffffffffffffff\n  mul\n  not\n  and\n  swap1\n  dup4\n  0xffffffffffffffffffffffffffffffffffffffff\n  and\n  mul\n  or\n  swap1\n  sstore\n  pop\n    /* \"contracts/KipuBank.sol\":19123:19138  supportedTokens */\n  0x06\n    /* \"contracts/KipuBank.sol\":19144:19149  token */\n  dup4\n    /* \"contracts/KipuBank.sol\":19123:19150  supportedTokens.push(token) */\n  swap1\n  dup1\n  0x01\n  dup2\n  sload\n  add\n  dup1\n  dup3\n  sstore\n  dup1\n  swap2\n  pop\n  pop\n  0x01\n  swap1\n  sub\n  swap1\n  0x00\n  mstore\n  keccak256(0x00, 0x20)\n  add\n  0x00\n  swap1\n  swap2\n  swap1\n  swap2\n  swap1\n  swap2\n  0x0100\n  exp\n  dup2\n  sload\n  dup2\n  0xffffffffffffffffffffffffffffffffffffffff\n  mul\n  not\n  and\n  swap1\n  dup4\n  0xffffffffffffffffffffffffffffffffffffffff\n  and\n  mul\n  or\n  swap1\n  sstore\n  pop\n    /* \"contracts/KipuBank.sol\":19179:19184  token */\n  dup3\n    /* \"contracts/KipuBank.sol\":19168:19206  TokenAdded(token, decimals, priceFeed) */\n  0xffffffffffffffffffffffffffffffffffffffff\n  and\n  0x71eedf6e504658772ec96be84d876ae5c35b713cfdbfb47fe2c0053e9bdfe37b\n    /* \"contracts/KipuBank.sol\":19186:19194  decimals */\n  dup4\n    /* \"contracts/KipuBank.sol\":19196:19205  priceFeed */\n  dup4\n    /* \"contracts/KipuBank.sol\":19168:19206  TokenAdded(token, decimals, priceFeed) */\n  mload(0x40)\n  tag_28\n  swap3\n  swap2\n  swap1\n  tag_29\n  jump\t// in\ntag_28:\n  mload(0x40)\n  dup1\n  swap2\n  sub\n  swap1\n  log2\n    /* \"contracts/KipuBank.sol\":18849:19214  function _addToken(... */\n  pop\n  pop\n  pop\n  jump\t// out\n    /* \"@openzeppelin/contracts/access/AccessControl.sol\":2830:2966  function hasRole(bytes32 role, address account) public view virtual returns (bool) {... */\ntag_21:\n    /* \"@openzeppelin/contracts/access/AccessControl.sol\":2907:2911  bool */\n  0x00\n    /* \"@openzeppelin/contracts/access/AccessControl.sol\":2930:2936  _roles */\n  0x00\n    /* \"@openzeppelin/contracts/access/AccessControl.sol\":2930:2942  _roles[role] */\n  0x00\n    /* \"@openzeppelin/contracts/access/AccessControl.sol\":2937:2941  role */\n  dup5\n    /* \"@openzeppelin/contracts/access/AccessControl.sol\":2930:2942  _roles[role] */\n  dup2\n  mstore\n  0x20\n  add\n  swap1\n  dup2\n  mstore\n  0x20\n  add\n  0x00\n  keccak256\n    /* \"@openzeppelin/contracts/access/AccessControl.sol\":2930:2950  _roles[role].hasRole */\n  0x00\n  add\n    /* \"@openzeppelin/contracts/access/AccessControl.sol\":2930:2959  _roles[role].hasRole[account] */\n  0x00\n    /* \"@openzeppelin/contracts/access/AccessControl.sol\":2951:2958  account */\n  dup4\n    /* \"@openzeppelin/contracts/access/AccessControl.sol\":2930:2959  _roles[role].hasRole[account] */\n  0xffffffffffffffffffffffffffffffffffffffff\n  and\n  0xffffffffffffffffffffffffffffffffffffffff\n  and\n  dup2\n  mstore\n  0x20\n  add\n  swap1\n  dup2\n  mstore\n  0x20\n  add\n  0x00\n  keccak256\n  0x00\n  swap1\n  sload\n  swap1\n  0x0100\n  exp\n  swap1\n  div\n  0xff\n  and\n    /* \"@openzeppelin/contracts/access/AccessControl.sol\":2923:2959  return _roles[role].hasRole[account] */\n  swap1\n  pop\n    /* \"@openzeppelin/contracts/access/AccessControl.sol\":2830:2966  function hasRole(bytes32 role, address account) public view virtual returns (bool) {... */\n  swap3\n  swap2\n  pop\n  pop\n  jump\t// out\n    /* \"@openzeppelin/contracts/utils/Context.sol\":656:752  function _msgSender() internal view virtual returns (address) {... */\ntag_24:\n    /* \"@openzeppelin/contracts/utils/Context.sol\":709:716  address */\n  0x00\n    /* \"@openzeppelin/contracts/utils/Context.sol\":735:745  msg.sender */\n  caller\n    /* \"@openzeppelin/contracts/utils/Context.sol\":728:745  return msg.sender */\n  swap1\n  pop\n    /* \"@openzeppelin/contracts/utils/Context.sol\":656:752  function _msgSender() internal view virtual returns (address) {... */\n  swap1\n  jump\t// out\n    /* \"#utility.yul\":88:205   */\ntag_33:\n    /* \"#utility.yul\":197:198   */\n  0x00\n    /* \"#utility.yul\":194:195   */\n  0x00\n    /* \"#utility.yul\":187:199   */\n  revert\n    /* \"#utility.yul\":334:460   */\ntag_35:\n    /* \"#utility.yul\":371:378   */\n  0x00\n    /* \"#utility.yul\":411:453   */\n  0xffffffffffffffffffffffffffffffffffffffff\n    /* \"#utility.yul\":404:409   */\n  dup3\n    /* \"#utility.yul\":400:454   */\n  and\n    /* \"#utility.yul\":389:454   */\n  swap1\n  pop\n    /* \"#utility.yul\":334:460   */\n  swap2\n  swap1\n  pop\n  jump\t// out\n    /* \"#utility.yul\":466:562   */\ntag_36:\n    /* \"#utility.yul\":503:510   */\n  0x00\n    /* \"#utility.yul\":532:556   */\n  tag_51\n    /* \"#utility.yul\":550:555   */\n  dup3\n    /* \"#utility.yul\":532:556   */\n  tag_35\n  jump\t// in\ntag_51:\n    /* \"#utility.yul\":521:556   */\n  swap1\n  pop\n    /* \"#utility.yul\":466:562   */\n  swap2\n  swap1\n  pop\n  jump\t// out\n    /* \"#utility.yul\":568:690   */\ntag_37:\n    /* \"#utility.yul\":641:665   */\n  tag_53\n    /* \"#utility.yul\":659:664   */\n  dup2\n    /* \"#utility.yul\":641:665   */\n  tag_36\n  jump\t// in\ntag_53:\n    /* \"#utility.yul\":634:639   */\n  dup2\n    /* \"#utility.yul\":631:666   */\n  eq\n    /* \"#utility.yul\":621:684   */\n  tag_54\n  jumpi\n    /* \"#utility.yul\":680:681   */\n  0x00\n    /* \"#utility.yul\":677:678   */\n  0x00\n    /* \"#utility.yul\":670:682   */\n  revert\n    /* \"#utility.yul\":621:684   */\ntag_54:\n    /* \"#utility.yul\":568:690   */\n  pop\n  jump\t// out\n    /* \"#utility.yul\":696:839   */\ntag_38:\n    /* \"#utility.yul\":753:758   */\n  0x00\n    /* \"#utility.yul\":784:790   */\n  dup2\n    /* \"#utility.yul\":778:791   */\n  mload\n    /* \"#utility.yul\":769:791   */\n  swap1\n  pop\n    /* \"#utility.yul\":800:833   */\n  tag_56\n    /* \"#utility.yul\":827:832   */\n  dup2\n    /* \"#utility.yul\":800:833   */\n  tag_37\n  jump\t// in\ntag_56:\n    /* \"#utility.yul\":696:839   */\n  swap3\n  swap2\n  pop\n  pop\n  jump\t// out\n    /* \"#utility.yul\":845:922   */\ntag_39:\n    /* \"#utility.yul\":882:889   */\n  0x00\n    /* \"#utility.yul\":911:916   */\n  dup2\n    /* \"#utility.yul\":900:916   */\n  swap1\n  pop\n    /* \"#utility.yul\":845:922   */\n  swap2\n  swap1\n  pop\n  jump\t// out\n    /* \"#utility.yul\":928:1050   */\ntag_40:\n    /* \"#utility.yul\":1001:1025   */\n  tag_59\n    /* \"#utility.yul\":1019:1024   */\n  dup2\n    /* \"#utility.yul\":1001:1025   */\n  tag_39\n  jump\t// in\ntag_59:\n    /* \"#utility.yul\":994:999   */\n  dup2\n    /* \"#utility.yul\":991:1026   */\n  eq\n    /* \"#utility.yul\":981:1044   */\n  tag_60\n  jumpi\n    /* \"#utility.yul\":1040:1041   */\n  0x00\n    /* \"#utility.yul\":1037:1038   */\n  0x00\n    /* \"#utility.yul\":1030:1042   */\n  revert\n    /* \"#utility.yul\":981:1044   */\ntag_60:\n    /* \"#utility.yul\":928:1050   */\n  pop\n  jump\t// out\n    /* \"#utility.yul\":1056:1199   */\ntag_41:\n    /* \"#utility.yul\":1113:1118   */\n  0x00\n    /* \"#utility.yul\":1144:1150   */\n  dup2\n    /* \"#utility.yul\":1138:1151   */\n  mload\n    /* \"#utility.yul\":1129:1151   */\n  swap1\n  pop\n    /* \"#utility.yul\":1160:1193   */\n  tag_62\n    /* \"#utility.yul\":1187:1192   */\n  dup2\n    /* \"#utility.yul\":1160:1193   */\n  tag_40\n  jump\t// in\ntag_62:\n    /* \"#utility.yul\":1056:1199   */\n  swap3\n  swap2\n  pop\n  pop\n  jump\t// out\n    /* \"#utility.yul\":1205:1868   */\ntag_3:\n    /* \"#utility.yul\":1293:1299   */\n  0x00\n    /* \"#utility.yul\":1301:1307   */\n  0x00\n    /* \"#utility.yul\":1309:1315   */\n  0x00\n    /* \"#utility.yul\":1358:1360   */\n  0x60\n    /* \"#utility.yul\":1346:1355   */\n  dup5\n    /* \"#utility.yul\":1337:1344   */\n  dup7\n    /* \"#utility.yul\":1333:1356   */\n  sub\n    /* \"#utility.yul\":1329:1361   */\n  slt\n    /* \"#utility.yul\":1326:1445   */\n  iszero\n  tag_64\n  jumpi\n    /* \"#utility.yul\":1364:1443   */\n  tag_65\n  tag_33\n  jump\t// in\ntag_65:\n    /* \"#utility.yul\":1326:1445   */\ntag_64:\n    /* \"#utility.yul\":1484:1485   */\n  0x00\n    /* \"#utility.yul\":1509:1573   */\n  tag_66\n    /* \"#utility.yul\":1565:1572   */\n  dup7\n    /* \"#utility.yul\":1556:1562   */\n  dup3\n    /* \"#utility.yul\":1545:1554   */\n  dup8\n    /* \"#utility.yul\":1541:1563   */\n  add\n    /* \"#utility.yul\":1509:1573   */\n  tag_38\n  jump\t// in\ntag_66:\n    /* \"#utility.yul\":1499:1573   */\n  swap4\n  pop\n    /* \"#utility.yul\":1455:1583   */\n  pop\n    /* \"#utility.yul\":1622:1624   */\n  0x20\n    /* \"#utility.yul\":1648:1712   */\n  tag_67\n    /* \"#utility.yul\":1704:1711   */\n  dup7\n    /* \"#utility.yul\":1695:1701   */\n  dup3\n    /* \"#utility.yul\":1684:1693   */\n  dup8\n    /* \"#utility.yul\":1680:1702   */\n  add\n    /* \"#utility.yul\":1648:1712   */\n  tag_41\n  jump\t// in\ntag_67:\n    /* \"#utility.yul\":1638:1712   */\n  swap3\n  pop\n    /* \"#utility.yul\":1593:1722   */\n  pop\n    /* \"#utility.yul\":1761:1763   */\n  0x40\n    /* \"#utility.yul\":1787:1851   */\n  tag_68\n    /* \"#utility.yul\":1843:1850   */\n  dup7\n    /* \"#utility.yul\":1834:1840   */\n  dup3\n    /* \"#utility.yul\":1823:1832   */\n  dup8\n    /* \"#utility.yul\":1819:1841   */\n  add\n    /* \"#utility.yul\":1787:1851   */\n  tag_41\n  jump\t// in\ntag_68:\n    /* \"#utility.yul\":1777:1851   */\n  swap2\n  pop\n    /* \"#utility.yul\":1732:1861   */\n  pop\n    /* \"#utility.yul\":1205:1868   */\n  swap3\n  pop\n  swap3\n  pop\n  swap3\n  jump\t// out\n    /* \"#utility.yul\":1874:1960   */\ntag_42:\n    /* \"#utility.yul\":1909:1916   */\n  0x00\n    /* \"#utility.yul\":1949:1953   */\n  0xff\n    /* \"#utility.yul\":1942:1947   */\n  dup3\n    /* \"#utility.yul\":1938:1954   */\n  and\n    /* \"#utility.yul\":1927:1954   */\n  swap1\n  pop\n    /* \"#utility.yul\":1874:1960   */\n  swap2\n  swap1\n  pop\n  jump\t// out\n    /* \"#utility.yul\":1966:2078   */\ntag_43:\n    /* \"#utility.yul\":2049:2071   */\n  tag_71\n    /* \"#utility.yul\":2065:2070   */\n  dup2\n    /* \"#utility.yul\":2049:2071   */\n  tag_42\n  jump\t// in\ntag_71:\n    /* \"#utility.yul\":2044:2047   */\n  dup3\n    /* \"#utility.yul\":2037:2072   */\n  mstore\n    /* \"#utility.yul\":1966:2078   */\n  pop\n  pop\n  jump\t// out\n    /* \"#utility.yul\":2084:2202   */\ntag_44:\n    /* \"#utility.yul\":2171:2195   */\n  tag_73\n    /* \"#utility.yul\":2189:2194   */\n  dup2\n    /* \"#utility.yul\":2171:2195   */\n  tag_36\n  jump\t// in\ntag_73:\n    /* \"#utility.yul\":2166:2169   */\n  dup3\n    /* \"#utility.yul\":2159:2196   */\n  mstore\n    /* \"#utility.yul\":2084:2202   */\n  pop\n  pop\n  jump\t// out\n    /* \"#utility.yul\":2208:2532   */\ntag_29:\n    /* \"#utility.yul\":2325:2329   */\n  0x00\n    /* \"#utility.yul\":2363:2365   */\n  0x40\n    /* \"#utility.yul\":2352:2361   */\n  dup3\n    /* \"#utility.yul\":2348:2366   */\n  add\n    /* \"#utility.yul\":2340:2366   */\n  swap1\n  pop\n    /* \"#utility.yul\":2376:2443   */\n  tag_75\n    /* \"#utility.yul\":2440:2441   */\n  0x00\n    /* \"#utility.yul\":2429:2438   */\n  dup4\n    /* \"#utility.yul\":2425:2442   */\n  add\n    /* \"#utility.yul\":2416:2422   */\n  dup6\n    /* \"#utility.yul\":2376:2443   */\n  tag_43\n  jump\t// in\ntag_75:\n    /* \"#utility.yul\":2453:2525   */\n  tag_76\n    /* \"#utility.yul\":2521:2523   */\n  0x20\n    /* \"#utility.yul\":2510:2519   */\n  dup4\n    /* \"#utility.yul\":2506:2524   */\n  add\n    /* \"#utility.yul\":2497:2503   */\n  dup5\n    /* \"#utility.yul\":2453:2525   */\n  tag_44\n  jump\t// in\ntag_76:\n    /* \"#utility.yul\":2208:2532   */\n  swap4\n  swap3\n  pop\n  pop\n  pop\n  jump\t// out\n    /* \"contracts/KipuBank.sol\":1332:23119  contract KipuBankV2 is AccessControl, ReentrancyGuard, Pausable {... */\ntag_18:\n  mload(0x80)\n  mload(0xa0)\n  mload(0xc0)\n  codecopy(0x00, dataOffset(sub_0), dataSize(sub_0))\n  0x00\n  assignImmutable(\"0x0ad5ed9120aa8a04681507dedba04ffff4b870152c81d035df19946bb0353897\")\n  0x00\n  assignImmutable(\"0xb5195a635a48815a20a70a61690787ee680d046bb10d1baaa6f731fa674ca1c3\")\n  0x00\n  assignImmutable(\"0xbad1b344d34b455fbd62473d291e4203218b71bf49ff9d2fee56820689d318af\")\n  return(0x00, dataSize(sub_0))\nstop\n\nsub_0: assembly {\n        /* \"contracts/KipuBank.sol\":1332:23119  contract KipuBankV2 is AccessControl, ReentrancyGuard, Pausable {... */\n      mstore(0x40, 0x80)\n      jumpi(tag_1, lt(calldatasize, 0x04))\n      shr(0xe0, calldataload(0x00))\n      dup1\n      0x75151b63\n      gt\n      tag_45\n      jumpi\n      dup1\n      0xc6e8e38c\n      gt\n      tag_46\n      jumpi\n      dup1\n      0xdb6b5246\n      gt\n      tag_47\n      jumpi\n      dup1\n      0xdb6b5246\n      eq\n      tag_39\n      jumpi\n      dup1\n      0xee957996\n      eq\n      tag_40\n      jumpi\n      dup1\n      0xf3fef3a3\n      eq\n      tag_41\n      jumpi\n      dup1\n      0xf5b541a6\n      eq\n      tag_42\n      jumpi\n      dup1\n      0xfa09e630\n      eq\n      tag_43\n      jumpi\n      dup1\n      0xffecbc17\n      eq\n      tag_44\n      jumpi\n      jump(tag_1)\n    tag_47:\n      dup1\n      0xc6e8e38c\n      eq\n      tag_34\n      jumpi\n      dup1\n      0xd02641a0\n      eq\n      tag_35\n      jumpi\n      dup1\n      0xd3c7c2c7\n      eq\n      tag_36\n      jumpi\n      dup1\n      0xd4fac45d\n      eq\n      tag_37\n      jumpi\n      dup1\n      0xd547741f\n      eq\n      tag_38\n      jumpi\n      jump(tag_1)\n    tag_46:\n      dup1\n      0x965e12dc\n      gt\n      tag_48\n      jumpi\n      dup1\n      0x965e12dc\n      eq\n      tag_28\n      jumpi\n      dup1\n      0xa217fddf\n      eq\n      tag_29\n      jumpi\n      dup1\n      0xac4543ba\n      eq\n      tag_30\n      jumpi\n      dup1\n      0xbd9c47e3\n      eq\n      tag_31\n      jumpi\n      dup1\n      0xc53d6ce1\n      eq\n      tag_32\n      jumpi\n      dup1\n      0xc6255626\n      eq\n      tag_33\n      jumpi\n      jump(tag_1)\n    tag_48:\n      dup1\n      0x75151b63\n      eq\n      tag_23\n      jumpi\n      dup1\n      0x75b238fc\n      eq\n      tag_24\n      jumpi\n      dup1\n      0x8456cb59\n      eq\n      tag_25\n      jumpi\n      dup1\n      0x8ee573ac\n      eq\n      tag_26\n      jumpi\n      dup1\n      0x91d14854\n      eq\n      tag_27\n      jumpi\n      jump(tag_1)\n    tag_45:\n      dup1\n      0x45037ac9\n      gt\n      tag_49\n      jumpi\n      dup1\n      0x5476bd72\n      gt\n      tag_50\n      jumpi\n      dup1\n      0x5476bd72\n      eq\n      tag_17\n      jumpi\n      dup1\n      0x57f1915d\n      eq\n      tag_18\n      jumpi\n      dup1\n      0x5c975abb\n      eq\n      tag_19\n      jumpi\n      dup1\n      0x5fa7b584\n      eq\n      tag_20\n      jumpi\n      dup1\n      0x70d397e9\n      eq\n      tag_21\n      jumpi\n      dup1\n      0x71706cbe\n      eq\n      tag_22\n      jumpi\n      jump(tag_1)\n    tag_50:\n      dup1\n      0x45037ac9\n      eq\n      tag_12\n      jumpi\n      dup1\n      0x47e7ef24\n      eq\n      tag_13\n      jumpi\n      dup1\n      0x4d635e70\n      eq\n      tag_14\n      jumpi\n      dup1\n      0x4ed94b24\n      eq\n      tag_15\n      jumpi\n      dup1\n      0x51247424\n      eq\n      tag_16\n      jumpi\n      jump(tag_1)\n    tag_49:\n      dup1\n      0x2f2ff15d\n      gt\n      tag_51\n      jumpi\n      dup1\n      0x2f2ff15d\n      eq\n      tag_7\n      jumpi\n      dup1\n      0x31f7d964\n      eq\n      tag_8\n      jumpi\n      dup1\n      0x36568abe\n      eq\n      tag_9\n      jumpi\n      dup1\n      0x3f4ba83a\n      eq\n      tag_10\n      jumpi\n      dup1\n      0x42f6fb29\n      eq\n      tag_11\n      jumpi\n      jump(tag_1)\n    tag_51:\n      dup1\n      0x01ffc9a7\n      eq\n      tag_2\n      jumpi\n      dup1\n      0x1f69565f\n      eq\n      tag_3\n      jumpi\n      dup1\n      0x248a9ca3\n      eq\n      tag_4\n      jumpi\n      dup1\n      0x2b825ad6\n      eq\n      tag_5\n      jumpi\n      dup1\n      0x2dfdf0b5\n      eq\n      tag_6\n      jumpi\n    tag_1:\n      revert(0x00, 0x00)\n        /* \"contracts/KipuBank.sol\":22898:23116  function supportsInterface(bytes4 interfaceId)... */\n    tag_2:\n      callvalue\n      dup1\n      iszero\n      tag_52\n      jumpi\n      revert(0x00, 0x00)\n    tag_52:\n      pop\n      tag_53\n      0x04\n      dup1\n      calldatasize\n      sub\n      dup2\n      add\n      swap1\n      tag_54\n      swap2\n      swap1\n      tag_55\n      jump\t// in\n    tag_54:\n      tag_56\n      jump\t// in\n    tag_53:\n      mload(0x40)\n      tag_57\n      swap2\n      swap1\n      tag_58\n      jump\t// in\n    tag_57:\n      mload(0x40)\n      dup1\n      swap2\n      sub\n      swap1\n      return\n        /* \"contracts/KipuBank.sol\":16497:16815  function getTokenInfo(address token) external view returns (TokenInfo memory info) {... */\n    tag_3:\n      callvalue\n      dup1\n      iszero\n      tag_59\n      jumpi\n      revert(0x00, 0x00)\n    tag_59:\n      pop\n      tag_60\n      0x04\n      dup1\n      calldatasize\n      sub\n      dup2\n      add\n      swap1\n      tag_61\n      swap2\n      swap1\n      tag_62\n      jump\t// in\n    tag_61:\n      tag_63\n      jump\t// in\n    tag_60:\n      mload(0x40)\n      tag_64\n      swap2\n      swap1\n      tag_65\n      jump\t// in\n    tag_64:\n      mload(0x40)\n      dup1\n      swap2\n      sub\n      swap1\n      return\n        /* \"@openzeppelin/contracts/access/AccessControl.sol\":3786:3906  function getRoleAdmin(bytes32 role) public view virtual returns (bytes32) {... */\n    tag_4:\n      callvalue\n      dup1\n      iszero\n      tag_66\n      jumpi\n      revert(0x00, 0x00)\n    tag_66:\n      pop\n      tag_67\n      0x04\n      dup1\n      calldatasize\n      sub\n      dup2\n      add\n      swap1\n      tag_68\n      swap2\n      swap1\n      tag_69\n      jump\t// in\n    tag_68:\n      tag_70\n      jump\t// in\n    tag_67:\n      mload(0x40)\n      tag_71\n      swap2\n      swap1\n      tag_72\n      jump\t// in\n    tag_71:\n      mload(0x40)\n      dup1\n      swap2\n      sub\n      swap1\n      return\n        /* \"contracts/KipuBank.sol\":2016:2061  uint8 public constant ACCOUNTING_DECIMALS = 6 */\n    tag_5:\n      callvalue\n      dup1\n      iszero\n      tag_73\n      jumpi\n      revert(0x00, 0x00)\n    tag_73:\n      pop\n      tag_74\n      tag_75\n      jump\t// in\n    tag_74:\n      mload(0x40)\n      tag_76\n      swap2\n      swap1\n      tag_77\n      jump\t// in\n    tag_76:\n      mload(0x40)\n      dup1\n      swap2\n      sub\n      swap1\n      return\n        /* \"contracts/KipuBank.sol\":3024:3051  uint256 public depositCount */\n    tag_6:\n      callvalue\n      dup1\n      iszero\n      tag_78\n      jumpi\n      revert(0x00, 0x00)\n    tag_78:\n      pop\n      tag_79\n      tag_80\n      jump\t// in\n    tag_79:\n      mload(0x40)\n      tag_81\n      swap2\n      swap1\n      tag_82\n      jump\t// in\n    tag_81:\n      mload(0x40)\n      dup1\n      swap2\n      sub\n      swap1\n      return\n        /* \"@openzeppelin/contracts/access/AccessControl.sol\":4202:4338  function grantRole(bytes32 role, address account) public virtual onlyRole(getRoleAdmin(role)) {... */\n    tag_7:\n      callvalue\n      dup1\n      iszero\n      tag_83\n      jumpi\n      revert(0x00, 0x00)\n    tag_83:\n      pop\n      tag_84\n      0x04\n      dup1\n      calldatasize\n      sub\n      dup2\n      add\n      swap1\n      tag_85\n      swap2\n      swap1\n      tag_86\n      jump\t// in\n    tag_85:\n      tag_87\n      jump\t// in\n    tag_84:\n      stop\n        /* \"contracts/KipuBank.sol\":1871:1920  address public constant NATIVE_TOKEN = address(0) */\n    tag_8:\n      callvalue\n      dup1\n      iszero\n      tag_88\n      jumpi\n      revert(0x00, 0x00)\n    tag_88:\n      pop\n      tag_89\n      tag_90\n      jump\t// in\n    tag_89:\n      mload(0x40)\n      tag_91\n      swap2\n      swap1\n      tag_92\n      jump\t// in\n    tag_91:\n      mload(0x40)\n      dup1\n      swap2\n      sub\n      swap1\n      return\n        /* \"@openzeppelin/contracts/access/AccessControl.sol\":5304:5549  function renounceRole(bytes32 role, address callerConfirmation) public virtual {... */\n    tag_9:\n      callvalue\n      dup1\n      iszero\n      tag_93\n      jumpi\n      revert(0x00, 0x00)\n    tag_93:\n      pop\n      tag_94\n      0x04\n      dup1\n      calldatasize\n      sub\n      dup2\n      add\n      swap1\n      tag_95\n      swap2\n      swap1\n      tag_86\n      jump\t// in\n    tag_95:\n      tag_96\n      jump\t// in\n    tag_94:\n      stop\n        /* \"contracts/KipuBank.sol\":9610:9691  function unpause() external onlyRole(OPERATOR_ROLE) {... */\n    tag_10:\n      callvalue\n      dup1\n      iszero\n      tag_97\n      jumpi\n      revert(0x00, 0x00)\n    tag_97:\n      pop\n      tag_98\n      tag_99\n      jump\t// in\n    tag_98:\n      stop\n        /* \"contracts/KipuBank.sol\":2458:2512  AggregatorV3Interface public immutable ethUsdPriceFeed */\n    tag_11:\n      callvalue\n      dup1\n      iszero\n      tag_100\n      jumpi\n      revert(0x00, 0x00)\n    tag_100:\n      pop\n      tag_101\n      tag_102\n      jump\t// in\n    tag_101:\n      mload(0x40)\n      tag_103\n      swap2\n      swap1\n      tag_104\n      jump\t// in\n    tag_103:\n      mload(0x40)\n      dup1\n      swap2\n      sub\n      swap1\n      return\n        /* \"contracts/KipuBank.sol\":2919:2950  uint256 public totalDepositsUsd */\n    tag_12:\n      callvalue\n      dup1\n      iszero\n      tag_105\n      jumpi\n      revert(0x00, 0x00)\n    tag_105:\n      pop\n      tag_106\n      tag_107\n      jump\t// in\n    tag_106:\n      mload(0x40)\n      tag_108\n      swap2\n      swap1\n      tag_82\n      jump\t// in\n    tag_108:\n      mload(0x40)\n      dup1\n      swap2\n      sub\n      swap1\n      return\n        /* \"contracts/KipuBank.sol\":10353:10829  function deposit(... */\n    tag_13:\n      callvalue\n      dup1\n      iszero\n      tag_109\n      jumpi\n      revert(0x00, 0x00)\n    tag_109:\n      pop\n      tag_110\n      0x04\n      dup1\n      calldatasize\n      sub\n      dup2\n      add\n      swap1\n      tag_111\n      swap2\n      swap1\n      tag_112\n      jump\t// in\n    tag_111:\n      tag_113\n      jump\t// in\n    tag_110:\n      stop\n        /* \"contracts/KipuBank.sol\":3416:3477  mapping(address => mapping(address => uint256)) public vaults */\n    tag_14:\n      callvalue\n      dup1\n      iszero\n      tag_114\n      jumpi\n      revert(0x00, 0x00)\n    tag_114:\n      pop\n      tag_115\n      0x04\n      dup1\n      calldatasize\n      sub\n      dup2\n      add\n      swap1\n      tag_116\n      swap2\n      swap1\n      tag_117\n      jump\t// in\n    tag_116:\n      tag_118\n      jump\t// in\n    tag_115:\n      mload(0x40)\n      tag_119\n      swap2\n      swap1\n      tag_82\n      jump\t// in\n    tag_119:\n      mload(0x40)\n      dup1\n      swap2\n      sub\n      swap1\n      return\n        /* \"contracts/KipuBank.sol\":2291:2336  uint8 public constant PRICE_FEED_DECIMALS = 8 */\n    tag_15:\n      callvalue\n      dup1\n      iszero\n      tag_120\n      jumpi\n      revert(0x00, 0x00)\n    tag_120:\n      pop\n      tag_121\n      tag_122\n      jump\t// in\n    tag_121:\n      mload(0x40)\n      tag_123\n      swap2\n      swap1\n      tag_77\n      jump\t// in\n    tag_123:\n      mload(0x40)\n      dup1\n      swap2\n      sub\n      swap1\n      return\n        /* \"contracts/KipuBank.sol\":2734:2777  uint256 public immutable withdrawalLimitUsd */\n    tag_16:\n      callvalue\n      dup1\n      iszero\n      tag_124\n      jumpi\n      revert(0x00, 0x00)\n    tag_124:\n      pop\n      tag_125\n      tag_126\n      jump\t// in\n    tag_125:\n      mload(0x40)\n      tag_127\n      swap2\n      swap1\n      tag_82\n      jump\t// in\n    tag_127:\n      mload(0x40)\n      dup1\n      swap2\n      sub\n      swap1\n      return\n        /* \"contracts/KipuBank.sol\":7861:8409  function addToken(... */\n    tag_17:\n      callvalue\n      dup1\n      iszero\n      tag_128\n      jumpi\n      revert(0x00, 0x00)\n    tag_128:\n      pop\n      tag_129\n      0x04\n      dup1\n      calldatasize\n      sub\n      dup2\n      add\n      swap1\n      tag_130\n      swap2\n      swap1\n      tag_117\n      jump\t// in\n    tag_130:\n      tag_131\n      jump\t// in\n    tag_129:\n      stop\n        /* \"contracts/KipuBank.sol\":17758:17932  function convertFromUsd(... */\n    tag_18:\n      callvalue\n      dup1\n      iszero\n      tag_132\n      jumpi\n      revert(0x00, 0x00)\n    tag_132:\n      pop\n      tag_133\n      0x04\n      dup1\n      calldatasize\n      sub\n      dup2\n      add\n      swap1\n      tag_134\n      swap2\n      swap1\n      tag_112\n      jump\t// in\n    tag_134:\n      tag_135\n      jump\t// in\n    tag_133:\n      mload(0x40)\n      tag_136\n      swap2\n      swap1\n      tag_82\n      jump\t// in\n    tag_136:\n      mload(0x40)\n      dup1\n      swap2\n      sub\n      swap1\n      return\n        /* \"@openzeppelin/contracts/utils/Pausable.sol\":1726:1810  function paused() public view virtual returns (bool) {... */\n    tag_19:\n      callvalue\n      dup1\n      iszero\n      tag_137\n      jumpi\n      revert(0x00, 0x00)\n    tag_137:\n      pop\n      tag_138\n      tag_139\n      jump\t// in\n    tag_138:\n      mload(0x40)\n      tag_140\n      swap2\n      swap1\n      tag_58\n      jump\t// in\n    tag_140:\n      mload(0x40)\n      dup1\n      swap2\n      sub\n      swap1\n      return\n        /* \"contracts/KipuBank.sol\":8608:9293  function removeToken(address token) external onlyRole(ADMIN_ROLE) {... */\n    tag_20:\n      callvalue\n      dup1\n      iszero\n      tag_141\n      jumpi\n      revert(0x00, 0x00)\n    tag_141:\n      pop\n      tag_142\n      0x04\n      dup1\n      calldatasize\n      sub\n      dup2\n      add\n      swap1\n      tag_143\n      swap2\n      swap1\n      tag_62\n      jump\t// in\n    tag_143:\n      tag_144\n      jump\t// in\n    tag_142:\n      stop\n        /* \"contracts/KipuBank.sol\":14158:14372  function getBalanceInUsd(... */\n    tag_21:\n      callvalue\n      dup1\n      iszero\n      tag_145\n      jumpi\n      revert(0x00, 0x00)\n    tag_145:\n      pop\n      tag_146\n      0x04\n      dup1\n      calldatasize\n      sub\n      dup2\n      add\n      swap1\n      tag_147\n      swap2\n      swap1\n      tag_117\n      jump\t// in\n    tag_147:\n      tag_148\n      jump\t// in\n    tag_146:\n      mload(0x40)\n      tag_149\n      swap2\n      swap1\n      tag_82\n      jump\t// in\n    tag_149:\n      mload(0x40)\n      dup1\n      swap2\n      sub\n      swap1\n      return\n        /* \"contracts/KipuBank.sol\":3122:3152  uint256 public withdrawalCount */\n    tag_22:\n      callvalue\n      dup1\n      iszero\n      tag_150\n      jumpi\n      revert(0x00, 0x00)\n    tag_150:\n      pop\n      tag_151\n      tag_152\n      jump\t// in\n    tag_151:\n      mload(0x40)\n      tag_153\n      swap2\n      swap1\n      tag_82\n      jump\t// in\n    tag_153:\n      mload(0x40)\n      dup1\n      swap2\n      sub\n      swap1\n      return\n        /* \"contracts/KipuBank.sol\":3544:3592  mapping(address => bool) public isTokenSupported */\n    tag_23:\n      callvalue\n      dup1\n      iszero\n      tag_154\n      jumpi\n      revert(0x00, 0x00)\n    tag_154:\n      pop\n      tag_155\n      0x04\n      dup1\n      calldatasize\n      sub\n      dup2\n      add\n      swap1\n      tag_156\n      swap2\n      swap1\n      tag_62\n      jump\t// in\n    tag_156:\n      tag_157\n      jump\t// in\n    tag_155:\n      mload(0x40)\n      tag_158\n      swap2\n      swap1\n      tag_58\n      jump\t// in\n    tag_158:\n      mload(0x40)\n      dup1\n      swap2\n      sub\n      swap1\n      return\n        /* \"contracts/KipuBank.sol\":1539:1599  bytes32 public constant ADMIN_ROLE = keccak256(\"ADMIN_ROLE\") */\n    tag_24:\n      callvalue\n      dup1\n      iszero\n      tag_159\n      jumpi\n      revert(0x00, 0x00)\n    tag_159:\n      pop\n      tag_160\n      tag_161\n      jump\t// in\n    tag_160:\n      mload(0x40)\n      tag_162\n      swap2\n      swap1\n      tag_72\n      jump\t// in\n    tag_162:\n      mload(0x40)\n      dup1\n      swap2\n      sub\n      swap1\n      return\n        /* \"contracts/KipuBank.sol\":9423:9500  function pause() external onlyRole(OPERATOR_ROLE) {... */\n    tag_25:\n      callvalue\n      dup1\n      iszero\n      tag_163\n      jumpi\n      revert(0x00, 0x00)\n    tag_163:\n      pop\n      tag_164\n      tag_165\n      jump\t// in\n    tag_164:\n      stop\n        /* \"contracts/KipuBank.sol\":3684:3730  mapping(address => uint8) public tokenDecimals */\n    tag_26:\n      callvalue\n      dup1\n      iszero\n      tag_166\n      jumpi\n      revert(0x00, 0x00)\n    tag_166:\n      pop\n      tag_167\n      0x04\n      dup1\n      calldatasize\n      sub\n      dup2\n      add\n      swap1\n      tag_168\n      swap2\n      swap1\n      tag_62\n      jump\t// in\n    tag_168:\n      tag_169\n      jump\t// in\n    tag_167:\n      mload(0x40)\n      tag_170\n      swap2\n      swap1\n      tag_77\n      jump\t// in\n    tag_170:\n      mload(0x40)\n      dup1\n      swap2\n      sub\n      swap1\n      return\n        /* \"@openzeppelin/contracts/access/AccessControl.sol\":2830:2966  function hasRole(bytes32 role, address account) public view virtual returns (bool) {... */\n    tag_27:\n      callvalue\n      dup1\n      iszero\n      tag_171\n      jumpi\n      revert(0x00, 0x00)\n    tag_171:\n      pop\n      tag_172\n      0x04\n      dup1\n      calldatasize\n      sub\n      dup2\n      add\n      swap1\n      tag_173\n      swap2\n      swap1\n      tag_86\n      jump\t// in\n    tag_173:\n      tag_174\n      jump\t// in\n    tag_172:\n      mload(0x40)\n      tag_175\n      swap2\n      swap1\n      tag_58\n      jump\t// in\n    tag_175:\n      mload(0x40)\n      dup1\n      swap2\n      sub\n      swap1\n      return\n        /* \"contracts/KipuBank.sol\":2143:2195  uint256 public constant MINIMUM_DEPOSIT_USD = 100000 */\n    tag_28:\n      callvalue\n      dup1\n      iszero\n      tag_176\n      jumpi\n      revert(0x00, 0x00)\n    tag_176:\n      pop\n      tag_177\n      tag_178\n      jump\t// in\n    tag_177:\n      mload(0x40)\n      tag_179\n      swap2\n      swap1\n      tag_82\n      jump\t// in\n    tag_179:\n      mload(0x40)\n      dup1\n      swap2\n      sub\n      swap1\n      return\n        /* \"@openzeppelin/contracts/access/AccessControl.sol\":2196:2245  bytes32 public constant DEFAULT_ADMIN_ROLE = 0x00 */\n    tag_29:\n      callvalue\n      dup1\n      iszero\n      tag_180\n      jumpi\n      revert(0x00, 0x00)\n    tag_180:\n      pop\n      tag_181\n      tag_182\n      jump\t// in\n    tag_181:\n      mload(0x40)\n      tag_183\n      swap2\n      swap1\n      tag_72\n      jump\t// in\n    tag_183:\n      mload(0x40)\n      dup1\n      swap2\n      sub\n      swap1\n      return\n        /* \"contracts/KipuBank.sol\":2601:2636  uint256 public immutable bankCapUsd */\n    tag_30:\n      callvalue\n      dup1\n      iszero\n      tag_184\n      jumpi\n      revert(0x00, 0x00)\n    tag_184:\n      pop\n      tag_185\n      tag_186\n      jump\t// in\n    tag_185:\n      mload(0x40)\n      tag_187\n      swap2\n      swap1\n      tag_82\n      jump\t// in\n    tag_187:\n      mload(0x40)\n      dup1\n      swap2\n      sub\n      swap1\n      return\n        /* \"contracts/KipuBank.sol\":3871:3935  mapping(address => AggregatorV3Interface) public tokenPriceFeeds */\n    tag_31:\n      callvalue\n      dup1\n      iszero\n      tag_188\n      jumpi\n      revert(0x00, 0x00)\n    tag_188:\n      pop\n      tag_189\n      0x04\n      dup1\n      calldatasize\n      sub\n      dup2\n      add\n      swap1\n      tag_190\n      swap2\n      swap1\n      tag_62\n      jump\t// in\n    tag_190:\n      tag_191\n      jump\t// in\n    tag_189:\n      mload(0x40)\n      tag_192\n      swap2\n      swap1\n      tag_104\n      jump\t// in\n    tag_192:\n      mload(0x40)\n      dup1\n      swap2\n      sub\n      swap1\n      return\n        /* \"contracts/KipuBank.sol\":14665:15386  function getAllBalances(address user) external view returns (... */\n    tag_32:\n      callvalue\n      dup1\n      iszero\n      tag_193\n      jumpi\n      revert(0x00, 0x00)\n    tag_193:\n      pop\n      tag_194\n      0x04\n      dup1\n      calldatasize\n      sub\n      dup2\n      add\n      swap1\n      tag_195\n      swap2\n      swap1\n      tag_62\n      jump\t// in\n    tag_195:\n      tag_196\n      jump\t// in\n    tag_194:\n      mload(0x40)\n      tag_197\n      swap4\n      swap3\n      swap2\n      swap1\n      tag_198\n      jump\t// in\n    tag_197:\n      mload(0x40)\n      dup1\n      swap2\n      sub\n      swap1\n      return\n        /* \"contracts/KipuBank.sol\":3222:3254  address[] public supportedTokens */\n    tag_33:\n      callvalue\n      dup1\n      iszero\n      tag_199\n      jumpi\n      revert(0x00, 0x00)\n    tag_199:\n      pop\n      tag_200\n      0x04\n      dup1\n      calldatasize\n      sub\n      dup2\n      add\n      swap1\n      tag_201\n      swap2\n      swap1\n      tag_202\n      jump\t// in\n    tag_201:\n      tag_203\n      jump\t// in\n    tag_200:\n      mload(0x40)\n      tag_204\n      swap2\n      swap1\n      tag_92\n      jump\t// in\n    tag_204:\n      mload(0x40)\n      dup1\n      swap2\n      sub\n      swap1\n      return\n        /* \"contracts/KipuBank.sol\":15696:16062  function getBankStats() external view returns (... */\n    tag_34:\n      callvalue\n      dup1\n      iszero\n      tag_205\n      jumpi\n      revert(0x00, 0x00)\n    tag_205:\n      pop\n      tag_206\n      tag_207\n      jump\t// in\n    tag_206:\n      mload(0x40)\n      tag_208\n      swap5\n      swap4\n      swap3\n      swap2\n      swap1\n      tag_209\n      jump\t// in\n    tag_208:\n      mload(0x40)\n      dup1\n      swap2\n      sub\n      swap1\n      return\n        /* \"contracts/KipuBank.sol\":16997:17109  function getTokenPrice(address token) external view returns (uint256) {... */\n    tag_35:\n      callvalue\n      dup1\n      iszero\n      tag_210\n      jumpi\n      revert(0x00, 0x00)\n    tag_210:\n      pop\n      tag_211\n      0x04\n      dup1\n      calldatasize\n      sub\n      dup2\n      add\n      swap1\n      tag_212\n      swap2\n      swap1\n      tag_62\n      jump\t// in\n    tag_212:\n      tag_213\n      jump\t// in\n    tag_211:\n      mload(0x40)\n      tag_214\n      swap2\n      swap1\n      tag_82\n      jump\t// in\n    tag_214:\n      mload(0x40)\n      dup1\n      swap2\n      sub\n      swap1\n      return\n        /* \"contracts/KipuBank.sol\":16200:16312  function getSupportedTokens() external view returns (address[] memory) {... */\n    tag_36:\n      callvalue\n      dup1\n      iszero\n      tag_215\n      jumpi\n      revert(0x00, 0x00)\n    tag_215:\n      pop\n      tag_216\n      tag_217\n      jump\t// in\n    tag_216:\n      mload(0x40)\n      tag_218\n      swap2\n      swap1\n      tag_219\n      jump\t// in\n    tag_218:\n      mload(0x40)\n      dup1\n      swap2\n      sub\n      swap1\n      return\n        /* \"contracts/KipuBank.sol\":13785:13936  function getBalance(... */\n    tag_37:\n      callvalue\n      dup1\n      iszero\n      tag_220\n      jumpi\n      revert(0x00, 0x00)\n    tag_220:\n      pop\n      tag_221\n      0x04\n      dup1\n      calldatasize\n      sub\n      dup2\n      add\n      swap1\n      tag_222\n      swap2\n      swap1\n      tag_117\n      jump\t// in\n    tag_222:\n      tag_223\n      jump\t// in\n    tag_221:\n      mload(0x40)\n      tag_224\n      swap2\n      swap1\n      tag_82\n      jump\t// in\n    tag_224:\n      mload(0x40)\n      dup1\n      swap2\n      sub\n      swap1\n      return\n        /* \"@openzeppelin/contracts/access/AccessControl.sol\":4618:4756  function revokeRole(bytes32 role, address account) public virtual onlyRole(getRoleAdmin(role)) {... */\n    tag_38:\n      callvalue\n      dup1\n      iszero\n      tag_225\n      jumpi\n      revert(0x00, 0x00)\n    tag_225:\n      pop\n      tag_226\n      0x04\n      dup1\n      calldatasize\n      sub\n      dup2\n      add\n      swap1\n      tag_227\n      swap2\n      swap1\n      tag_86\n      jump\t// in\n    tag_227:\n      tag_228\n      jump\t// in\n    tag_226:\n      stop\n        /* \"contracts/KipuBank.sol\":9874:10048  function depositNative() external payable whenNotPaused nonReentrant {... */\n    tag_39:\n      tag_229\n      tag_230\n      jump\t// in\n    tag_229:\n      stop\n        /* \"contracts/KipuBank.sol\":17346:17510  function convertToUsd(... */\n    tag_40:\n      callvalue\n      dup1\n      iszero\n      tag_231\n      jumpi\n      revert(0x00, 0x00)\n    tag_231:\n      pop\n      tag_232\n      0x04\n      dup1\n      calldatasize\n      sub\n      dup2\n      add\n      swap1\n      tag_233\n      swap2\n      swap1\n      tag_112\n      jump\t// in\n    tag_233:\n      tag_234\n      jump\t// in\n    tag_232:\n      mload(0x40)\n      tag_235\n      swap2\n      swap1\n      tag_82\n      jump\t// in\n    tag_235:\n      mload(0x40)\n      dup1\n      swap2\n      sub\n      swap1\n      return\n        /* \"contracts/KipuBank.sol\":11035:11958  function withdraw(... */\n    tag_41:\n      callvalue\n      dup1\n      iszero\n      tag_236\n      jumpi\n      revert(0x00, 0x00)\n    tag_236:\n      pop\n      tag_237\n      0x04\n      dup1\n      calldatasize\n      sub\n      dup2\n      add\n      swap1\n      tag_238\n      swap2\n      swap1\n      tag_112\n      jump\t// in\n    tag_238:\n      tag_239\n      jump\t// in\n    tag_237:\n      stop\n        /* \"contracts/KipuBank.sol\":1687:1753  bytes32 public constant OPERATOR_ROLE = keccak256(\"OPERATOR_ROLE\") */\n    tag_42:\n      callvalue\n      dup1\n      iszero\n      tag_240\n      jumpi\n      revert(0x00, 0x00)\n    tag_240:\n      pop\n      tag_241\n      tag_242\n      jump\t// in\n    tag_241:\n      mload(0x40)\n      tag_243\n      swap2\n      swap1\n      tag_72\n      jump\t// in\n    tag_243:\n      mload(0x40)\n      dup1\n      swap2\n      sub\n      swap1\n      return\n        /* \"contracts/KipuBank.sol\":12159:13492  function withdrawAll(address token) external whenNotPaused nonReentrant {... */\n    tag_43:\n      callvalue\n      dup1\n      iszero\n      tag_244\n      jumpi\n      revert(0x00, 0x00)\n    tag_244:\n      pop\n      tag_245\n      0x04\n      dup1\n      calldatasize\n      sub\n      dup2\n      add\n      swap1\n      tag_246\n      swap2\n      swap1\n      tag_62\n      jump\t// in\n    tag_246:\n      tag_247\n      jump\t// in\n    tag_245:\n      stop\n        /* \"contracts/KipuBank.sol\":18171:18593  function getMaxWithdrawal(... */\n    tag_44:\n      callvalue\n      dup1\n      iszero\n      tag_248\n      jumpi\n      revert(0x00, 0x00)\n    tag_248:\n      pop\n      tag_249\n      0x04\n      dup1\n      calldatasize\n      sub\n      dup2\n      add\n      swap1\n      tag_250\n      swap2\n      swap1\n      tag_117\n      jump\t// in\n    tag_250:\n      tag_251\n      jump\t// in\n    tag_249:\n      mload(0x40)\n      tag_252\n      swap2\n      swap1\n      tag_82\n      jump\t// in\n    tag_252:\n      mload(0x40)\n      dup1\n      swap2\n      sub\n      swap1\n      return\n        /* \"contracts/KipuBank.sol\":22898:23116  function supportsInterface(bytes4 interfaceId)... */\n    tag_56:\n        /* \"contracts/KipuBank.sol\":23043:23047  bool */\n      0x00\n        /* \"contracts/KipuBank.sol\":23072:23108  super.supportsInterface(interfaceId) */\n      tag_254\n        /* \"contracts/KipuBank.sol\":23096:23107  interfaceId */\n      dup3\n        /* \"contracts/KipuBank.sol\":23072:23095  super.supportsInterface */\n      tag_255\n        /* \"contracts/KipuBank.sol\":23072:23108  super.supportsInterface(interfaceId) */\n      jump\t// in\n    tag_254:\n        /* \"contracts/KipuBank.sol\":23065:23108  return super.supportsInterface(interfaceId) */\n      swap1\n      pop\n        /* \"contracts/KipuBank.sol\":22898:23116  function supportsInterface(bytes4 interfaceId)... */\n      swap2\n      swap1\n      pop\n      jump\t// out\n        /* \"contracts/KipuBank.sol\":16497:16815  function getTokenInfo(address token) external view returns (TokenInfo memory info) {... */\n    tag_63:\n        /* \"contracts/KipuBank.sol\":16557:16578  TokenInfo memory info */\n      tag_256\n      tag_257\n      jump\t// in\n    tag_256:\n        /* \"contracts/KipuBank.sol\":16598:16807  TokenInfo({... */\n      mload(0x40)\n      dup1\n      0x80\n      add\n      0x40\n      mstore\n      dup1\n        /* \"contracts/KipuBank.sol\":16637:16642  token */\n      dup4\n        /* \"contracts/KipuBank.sol\":16598:16807  TokenInfo({... */\n      0xffffffffffffffffffffffffffffffffffffffff\n      and\n      dup2\n      mstore\n      0x20\n      add\n        /* \"contracts/KipuBank.sol\":16667:16680  tokenDecimals */\n      0x09\n        /* \"contracts/KipuBank.sol\":16667:16687  tokenDecimals[token] */\n      0x00\n        /* \"contracts/KipuBank.sol\":16681:16686  token */\n      dup6\n        /* \"contracts/KipuBank.sol\":16667:16687  tokenDecimals[token] */\n      0xffffffffffffffffffffffffffffffffffffffff\n      and\n      0xffffffffffffffffffffffffffffffffffffffff\n      and\n      dup2\n      mstore\n      0x20\n      add\n      swap1\n      dup2\n      mstore\n      0x20\n      add\n      0x00\n      keccak256\n      0x00\n      swap1\n      sload\n      swap1\n      0x0100\n      exp\n      swap1\n      div\n      0xff\n      and\n        /* \"contracts/KipuBank.sol\":16598:16807  TokenInfo({... */\n      0xff\n      and\n      dup2\n      mstore\n      0x20\n      add\n        /* \"contracts/KipuBank.sol\":16715:16731  isTokenSupported */\n      0x08\n        /* \"contracts/KipuBank.sol\":16715:16738  isTokenSupported[token] */\n      0x00\n        /* \"contracts/KipuBank.sol\":16732:16737  token */\n      dup6\n        /* \"contracts/KipuBank.sol\":16715:16738  isTokenSupported[token] */\n      0xffffffffffffffffffffffffffffffffffffffff\n      and\n      0xffffffffffffffffffffffffffffffffffffffff\n      and\n      dup2\n      mstore\n      0x20\n      add\n      swap1\n      dup2\n      mstore\n      0x20\n      add\n      0x00\n      keccak256\n      0x00\n      swap1\n      sload\n      swap1\n      0x0100\n      exp\n      swap1\n      div\n      0xff\n      and\n        /* \"contracts/KipuBank.sol\":16598:16807  TokenInfo({... */\n      iszero\n      iszero\n      dup2\n      mstore\n      0x20\n      add\n        /* \"contracts/KipuBank.sol\":16772:16787  tokenPriceFeeds */\n      0x0a\n        /* \"contracts/KipuBank.sol\":16772:16794  tokenPriceFeeds[token] */\n      0x00\n        /* \"contracts/KipuBank.sol\":16788:16793  token */\n      dup6\n        /* \"contracts/KipuBank.sol\":16772:16794  tokenPriceFeeds[token] */\n      0xffffffffffffffffffffffffffffffffffffffff\n      and\n      0xffffffffffffffffffffffffffffffffffffffff\n      and\n      dup2\n      mstore\n      0x20\n      add\n      swap1\n      dup2\n      mstore\n      0x20\n      add\n      0x00\n      keccak256\n      0x00\n      swap1\n      sload\n      swap1\n      0x0100\n      exp\n      swap1\n      div\n      0xffffffffffffffffffffffffffffffffffffffff\n      and\n        /* \"contracts/KipuBank.sol\":16598:16807  TokenInfo({... */\n      0xffffffffffffffffffffffffffffffffffffffff\n      and\n      dup2\n      mstore\n      pop\n        /* \"contracts/KipuBank.sol\":16591:16807  return TokenInfo({... */\n      swap1\n      pop\n        /* \"contracts/KipuBank.sol\":16497:16815  function getTokenInfo(address token) external view returns (TokenInfo memory info) {... */\n      swap2\n      swap1\n      pop\n      jump\t// out\n        /* \"@openzeppelin/contracts/access/AccessControl.sol\":3786:3906  function getRoleAdmin(bytes32 role) public view virtual returns (bytes32) {... */\n    tag_70:\n        /* \"@openzeppelin/contracts/access/AccessControl.sol\":3851:3858  bytes32 */\n      0x00\n        /* \"@openzeppelin/contracts/access/AccessControl.sol\":3877:3883  _roles */\n      0x00\n        /* \"@openzeppelin/contracts/access/AccessControl.sol\":3877:3889  _roles[role] */\n      0x00\n        /* \"@openzeppelin/contracts/access/AccessControl.sol\":3884:3888  role */\n      dup4\n        /* \"@openzeppelin/contracts/access/AccessControl.sol\":3877:3889  _roles[role] */\n      dup2\n      mstore\n      0x20\n      add\n      swap1\n      dup2\n      mstore\n      0x20\n      add\n      0x00\n      keccak256\n        /* \"@openzeppelin/contracts/access/AccessControl.sol\":3877:3899  _roles[role].adminRole */\n      0x01\n      add\n      sload\n        /* \"@openzeppelin/contracts/access/AccessControl.sol\":3870:3899  return _roles[role].adminRole */\n      swap1\n      pop\n        /* \"@openzeppelin/contracts/access/AccessControl.sol\":3786:3906  function getRoleAdmin(bytes32 role) public view virtual returns (bytes32) {... */\n      swap2\n      swap1\n      pop\n      jump\t// out\n        /* \"contracts/KipuBank.sol\":2016:2061  uint8 public constant ACCOUNTING_DECIMALS = 6 */\n    tag_75:\n        /* \"contracts/KipuBank.sol\":2060:2061  6 */\n      0x06\n        /* \"contracts/KipuBank.sol\":2016:2061  uint8 public constant ACCOUNTING_DECIMALS = 6 */\n      dup2\n      jump\t// out\n        /* \"contracts/KipuBank.sol\":3024:3051  uint256 public depositCount */\n    tag_80:\n      sload(0x04)\n      dup2\n      jump\t// out\n        /* \"@openzeppelin/contracts/access/AccessControl.sol\":4202:4338  function grantRole(bytes32 role, address account) public virtual onlyRole(getRoleAdmin(role)) {... */\n    tag_87:\n        /* \"@openzeppelin/contracts/access/AccessControl.sol\":4276:4294  getRoleAdmin(role) */\n      tag_260\n        /* \"@openzeppelin/contracts/access/AccessControl.sol\":4289:4293  role */\n      dup3\n        /* \"@openzeppelin/contracts/access/AccessControl.sol\":4276:4288  getRoleAdmin */\n      tag_70\n        /* \"@openzeppelin/contracts/access/AccessControl.sol\":4276:4294  getRoleAdmin(role) */\n      jump\t// in\n    tag_260:\n        /* \"@openzeppelin/contracts/access/AccessControl.sol\":2473:2489  _checkRole(role) */\n      tag_262\n        /* \"@openzeppelin/contracts/access/AccessControl.sol\":2484:2488  role */\n      dup2\n        /* \"@openzeppelin/contracts/access/AccessControl.sol\":2473:2483  _checkRole */\n      tag_263\n        /* \"@openzeppelin/contracts/access/AccessControl.sol\":2473:2489  _checkRole(role) */\n      jump\t// in\n    tag_262:\n        /* \"@openzeppelin/contracts/access/AccessControl.sol\":4306:4331  _grantRole(role, account) */\n      tag_265\n        /* \"@openzeppelin/contracts/access/AccessControl.sol\":4317:4321  role */\n      dup4\n        /* \"@openzeppelin/contracts/access/AccessControl.sol\":4323:4330  account */\n      dup4\n        /* \"@openzeppelin/contracts/access/AccessControl.sol\":4306:4316  _grantRole */\n      tag_266\n        /* \"@openzeppelin/contracts/access/AccessControl.sol\":4306:4331  _grantRole(role, account) */\n      jump\t// in\n    tag_265:\n      pop\n        /* \"@openzeppelin/contracts/access/AccessControl.sol\":4202:4338  function grantRole(bytes32 role, address account) public virtual onlyRole(getRoleAdmin(role)) {... */\n      pop\n      pop\n      pop\n      jump\t// out\n        /* \"contracts/KipuBank.sol\":1871:1920  address public constant NATIVE_TOKEN = address(0) */\n    tag_90:\n        /* \"contracts/KipuBank.sol\":1918:1919  0 */\n      0x00\n        /* \"contracts/KipuBank.sol\":1871:1920  address public constant NATIVE_TOKEN = address(0) */\n      dup2\n      jump\t// out\n        /* \"@openzeppelin/contracts/access/AccessControl.sol\":5304:5549  function renounceRole(bytes32 role, address callerConfirmation) public virtual {... */\n    tag_96:\n        /* \"@openzeppelin/contracts/access/AccessControl.sol\":5419:5431  _msgSender() */\n      tag_268\n        /* \"@openzeppelin/contracts/access/AccessControl.sol\":5419:5429  _msgSender */\n      tag_269\n        /* \"@openzeppelin/contracts/access/AccessControl.sol\":5419:5431  _msgSender() */\n      jump\t// in\n    tag_268:\n        /* \"@openzeppelin/contracts/access/AccessControl.sol\":5397:5431  callerConfirmation != _msgSender() */\n      0xffffffffffffffffffffffffffffffffffffffff\n      and\n        /* \"@openzeppelin/contracts/access/AccessControl.sol\":5397:5415  callerConfirmation */\n      dup2\n        /* \"@openzeppelin/contracts/access/AccessControl.sol\":5397:5431  callerConfirmation != _msgSender() */\n      0xffffffffffffffffffffffffffffffffffffffff\n      and\n      eq\n        /* \"@openzeppelin/contracts/access/AccessControl.sol\":5393:5495  if (callerConfirmation != _msgSender()) {... */\n      tag_270\n      jumpi\n        /* \"@openzeppelin/contracts/access/AccessControl.sol\":5454:5484  AccessControlBadConfirmation() */\n      mload(0x40)\n      0x6697b23200000000000000000000000000000000000000000000000000000000\n      dup2\n      mstore\n      0x04\n      add\n      mload(0x40)\n      dup1\n      swap2\n      sub\n      swap1\n      revert\n        /* \"@openzeppelin/contracts/access/AccessControl.sol\":5393:5495  if (callerConfirmation != _msgSender()) {... */\n    tag_270:\n        /* \"@openzeppelin/contracts/access/AccessControl.sol\":5505:5542  _revokeRole(role, callerConfirmation) */\n      tag_271\n        /* \"@openzeppelin/contracts/access/AccessControl.sol\":5517:5521  role */\n      dup3\n        /* \"@openzeppelin/contracts/access/AccessControl.sol\":5523:5541  callerConfirmation */\n      dup3\n        /* \"@openzeppelin/contracts/access/AccessControl.sol\":5505:5516  _revokeRole */\n      tag_272\n        /* \"@openzeppelin/contracts/access/AccessControl.sol\":5505:5542  _revokeRole(role, callerConfirmation) */\n      jump\t// in\n    tag_271:\n      pop\n        /* \"@openzeppelin/contracts/access/AccessControl.sol\":5304:5549  function renounceRole(bytes32 role, address callerConfirmation) public virtual {... */\n      pop\n      pop\n      jump\t// out\n        /* \"contracts/KipuBank.sol\":9610:9691  function unpause() external onlyRole(OPERATOR_ROLE) {... */\n    tag_99:\n        /* \"contracts/KipuBank.sol\":1727:1753  keccak256(\"OPERATOR_ROLE\") */\n      0x97667070c54ef182b0f5858b034beac1b6f3089aa2d3188bb1e8929f4fa9b929\n        /* \"@openzeppelin/contracts/access/AccessControl.sol\":2473:2489  _checkRole(role) */\n      tag_274\n        /* \"@openzeppelin/contracts/access/AccessControl.sol\":2484:2488  role */\n      dup2\n        /* \"@openzeppelin/contracts/access/AccessControl.sol\":2473:2483  _checkRole */\n      tag_263\n        /* \"@openzeppelin/contracts/access/AccessControl.sol\":2473:2489  _checkRole(role) */\n      jump\t// in\n    tag_274:\n        /* \"contracts/KipuBank.sol\":9673:9683  _unpause() */\n      tag_276\n        /* \"contracts/KipuBank.sol\":9673:9681  _unpause */\n      tag_277\n        /* \"contracts/KipuBank.sol\":9673:9683  _unpause() */\n      jump\t// in\n    tag_276:\n        /* \"contracts/KipuBank.sol\":9610:9691  function unpause() external onlyRole(OPERATOR_ROLE) {... */\n      pop\n      jump\t// out\n        /* \"contracts/KipuBank.sol\":2458:2512  AggregatorV3Interface public immutable ethUsdPriceFeed */\n    tag_102:\n      immutable(\"0xbad1b344d34b455fbd62473d291e4203218b71bf49ff9d2fee56820689d318af\")\n      dup2\n      jump\t// out\n        /* \"contracts/KipuBank.sol\":2919:2950  uint256 public totalDepositsUsd */\n    tag_107:\n      sload(0x03)\n      dup2\n      jump\t// out\n        /* \"contracts/KipuBank.sol\":10353:10829  function deposit(... */\n    tag_113:\n        /* \"@openzeppelin/contracts/utils/Pausable.sol\":1350:1369  _requireNotPaused() */\n      tag_279\n        /* \"@openzeppelin/contracts/utils/Pausable.sol\":1350:1367  _requireNotPaused */\n      tag_280\n        /* \"@openzeppelin/contracts/utils/Pausable.sol\":1350:1369  _requireNotPaused() */\n      jump\t// in\n    tag_279:\n        /* \"@openzeppelin/contracts/utils/ReentrancyGuard.sol\":2500:2521  _nonReentrantBefore() */\n      tag_282\n        /* \"@openzeppelin/contracts/utils/ReentrancyGuard.sol\":2500:2519  _nonReentrantBefore */\n      tag_283\n        /* \"@openzeppelin/contracts/utils/ReentrancyGuard.sol\":2500:2521  _nonReentrantBefore() */\n      jump\t// in\n    tag_282:\n        /* \"contracts/KipuBank.sol\":1918:1919  0 */\n      0x00\n        /* \"contracts/KipuBank.sol\":10477:10498  token == NATIVE_TOKEN */\n      0xffffffffffffffffffffffffffffffffffffffff\n      and\n        /* \"contracts/KipuBank.sol\":10477:10482  token */\n      dup3\n        /* \"contracts/KipuBank.sol\":10477:10498  token == NATIVE_TOKEN */\n      0xffffffffffffffffffffffffffffffffffffffff\n      and\n      sub\n        /* \"contracts/KipuBank.sol\":10473:10528  if (token == NATIVE_TOKEN) revert InvalidTokenAddress() */\n      tag_285\n      jumpi\n        /* \"contracts/KipuBank.sol\":10507:10528  InvalidTokenAddress() */\n      mload(0x40)\n      0x1eb00b0600000000000000000000000000000000000000000000000000000000\n      dup2\n      mstore\n      0x04\n      add\n      mload(0x40)\n      dup1\n      swap2\n      sub\n      swap1\n      revert\n        /* \"contracts/KipuBank.sol\":10473:10528  if (token == NATIVE_TOKEN) revert InvalidTokenAddress() */\n    tag_285:\n        /* \"contracts/KipuBank.sol\":10553:10554  0 */\n      0x00\n        /* \"contracts/KipuBank.sol\":10543:10549  amount */\n      dup2\n        /* \"contracts/KipuBank.sol\":10543:10554  amount == 0 */\n      sub\n        /* \"contracts/KipuBank.sol\":10539:10578  if (amount == 0) revert InvalidAmount() */\n      tag_286\n      jumpi\n        /* \"contracts/KipuBank.sol\":10563:10578  InvalidAmount() */\n      mload(0x40)\n      0x2c5211c600000000000000000000000000000000000000000000000000000000\n      dup2\n      mstore\n      0x04\n      add\n      mload(0x40)\n      dup1\n      swap2\n      sub\n      swap1\n      revert\n        /* \"contracts/KipuBank.sol\":10539:10578  if (amount == 0) revert InvalidAmount() */\n    tag_286:\n        /* \"contracts/KipuBank.sol\":10594:10610  isTokenSupported */\n      0x08\n        /* \"contracts/KipuBank.sol\":10594:10617  isTokenSupported[token] */\n      0x00\n        /* \"contracts/KipuBank.sol\":10611:10616  token */\n      dup4\n        /* \"contracts/KipuBank.sol\":10594:10617  isTokenSupported[token] */\n      0xffffffffffffffffffffffffffffffffffffffff\n      and\n      0xffffffffffffffffffffffffffffffffffffffff\n      and\n      dup2\n      mstore\n      0x20\n      add\n      swap1\n      dup2\n      mstore\n      0x20\n      add\n      0x00\n      keccak256\n      0x00\n      swap1\n      sload\n      swap1\n      0x0100\n      exp\n      swap1\n      div\n      0xff\n      and\n        /* \"contracts/KipuBank.sol\":10589:10645  if (!isTokenSupported[token]) revert TokenNotSupported() */\n      tag_287\n      jumpi\n        /* \"contracts/KipuBank.sol\":10626:10645  TokenNotSupported() */\n      mload(0x40)\n      0x3dd1b30500000000000000000000000000000000000000000000000000000000\n      dup2\n      mstore\n      0x04\n      add\n      mload(0x40)\n      dup1\n      swap2\n      sub\n      swap1\n      revert\n        /* \"contracts/KipuBank.sol\":10589:10645  if (!isTokenSupported[token]) revert TokenNotSupported() */\n    tag_287:\n        /* \"contracts/KipuBank.sol\":10712:10777  IERC20(token).safeTransferFrom(msg.sender, address(this), amount) */\n      tag_288\n        /* \"contracts/KipuBank.sol\":10743:10753  msg.sender */\n      caller\n        /* \"contracts/KipuBank.sol\":10763:10767  this */\n      address\n        /* \"contracts/KipuBank.sol\":10770:10776  amount */\n      dup4\n        /* \"contracts/KipuBank.sol\":10719:10724  token */\n      dup6\n        /* \"contracts/KipuBank.sol\":10712:10742  IERC20(token).safeTransferFrom */\n      0xffffffffffffffffffffffffffffffffffffffff\n      and\n      tag_289\n      swap1\n        /* \"contracts/KipuBank.sol\":10712:10777  IERC20(token).safeTransferFrom(msg.sender, address(this), amount) */\n      swap4\n      swap3\n      swap2\n      swap1\n      0xffffffff\n      and\n      jump\t// in\n    tag_288:\n        /* \"contracts/KipuBank.sol\":10798:10821  _deposit(token, amount) */\n      tag_290\n        /* \"contracts/KipuBank.sol\":10807:10812  token */\n      dup3\n        /* \"contracts/KipuBank.sol\":10814:10820  amount */\n      dup3\n        /* \"contracts/KipuBank.sol\":10798:10806  _deposit */\n      tag_291\n        /* \"contracts/KipuBank.sol\":10798:10821  _deposit(token, amount) */\n      jump\t// in\n    tag_290:\n        /* \"@openzeppelin/contracts/utils/ReentrancyGuard.sol\":2542:2562  _nonReentrantAfter() */\n      tag_292\n        /* \"@openzeppelin/contracts/utils/ReentrancyGuard.sol\":2542:2560  _nonReentrantAfter */\n      tag_293\n        /* \"@openzeppelin/contracts/utils/ReentrancyGuard.sol\":2542:2562  _nonReentrantAfter() */\n      jump\t// in\n    tag_292:\n        /* \"contracts/KipuBank.sol\":10353:10829  function deposit(... */\n      pop\n      pop\n      jump\t// out\n        /* \"contracts/KipuBank.sol\":3416:3477  mapping(address => mapping(address => uint256)) public vaults */\n    tag_118:\n      mstore(0x20, 0x07)\n      dup2\n      0x00\n      mstore\n      mstore(0x20, keccak256(0x00, 0x40))\n      dup1\n      0x00\n      mstore\n      keccak256(0x00, 0x40)\n      0x00\n      swap2\n      pop\n      swap2\n      pop\n      pop\n      sload\n      dup2\n      jump\t// out\n        /* \"contracts/KipuBank.sol\":2291:2336  uint8 public constant PRICE_FEED_DECIMALS = 8 */\n    tag_122:\n        /* \"contracts/KipuBank.sol\":2335:2336  8 */\n      0x08\n        /* \"contracts/KipuBank.sol\":2291:2336  uint8 public constant PRICE_FEED_DECIMALS = 8 */\n      dup2\n      jump\t// out\n        /* \"contracts/KipuBank.sol\":2734:2777  uint256 public immutable withdrawalLimitUsd */\n    tag_126:\n      immutable(\"0x0ad5ed9120aa8a04681507dedba04ffff4b870152c81d035df19946bb0353897\")\n      dup2\n      jump\t// out\n        /* \"contracts/KipuBank.sol\":7861:8409  function addToken(... */\n    tag_131:\n        /* \"contracts/KipuBank.sol\":1576:1599  keccak256(\"ADMIN_ROLE\") */\n      0xa49807205ce4d355092ef5a8a18f56e8913cf4a201fbe287825b095693c21775\n        /* \"@openzeppelin/contracts/access/AccessControl.sol\":2473:2489  _checkRole(role) */\n      tag_295\n        /* \"@openzeppelin/contracts/access/AccessControl.sol\":2484:2488  role */\n      dup2\n        /* \"@openzeppelin/contracts/access/AccessControl.sol\":2473:2483  _checkRole */\n      tag_263\n        /* \"@openzeppelin/contracts/access/AccessControl.sol\":2473:2489  _checkRole(role) */\n      jump\t// in\n    tag_295:\n        /* \"contracts/KipuBank.sol\":8000:8001  0 */\n      0x00\n        /* \"contracts/KipuBank.sol\":7983:8002  token == address(0) */\n      0xffffffffffffffffffffffffffffffffffffffff\n      and\n        /* \"contracts/KipuBank.sol\":7983:7988  token */\n      dup4\n        /* \"contracts/KipuBank.sol\":7983:8002  token == address(0) */\n      0xffffffffffffffffffffffffffffffffffffffff\n      and\n      sub\n        /* \"contracts/KipuBank.sol\":7979:8032  if (token == address(0)) revert InvalidTokenAddress() */\n      tag_297\n      jumpi\n        /* \"contracts/KipuBank.sol\":8011:8032  InvalidTokenAddress() */\n      mload(0x40)\n      0x1eb00b0600000000000000000000000000000000000000000000000000000000\n      dup2\n      mstore\n      0x04\n      add\n      mload(0x40)\n      dup1\n      swap2\n      sub\n      swap1\n      revert\n        /* \"contracts/KipuBank.sol\":7979:8032  if (token == address(0)) revert InvalidTokenAddress() */\n    tag_297:\n        /* \"contracts/KipuBank.sol\":1918:1919  0 */\n      0x00\n        /* \"contracts/KipuBank.sol\":8047:8068  token == NATIVE_TOKEN */\n      0xffffffffffffffffffffffffffffffffffffffff\n      and\n        /* \"contracts/KipuBank.sol\":8047:8052  token */\n      dup4\n        /* \"contracts/KipuBank.sol\":8047:8068  token == NATIVE_TOKEN */\n      0xffffffffffffffffffffffffffffffffffffffff\n      and\n      sub\n        /* \"contracts/KipuBank.sol\":8043:8100  if (token == NATIVE_TOKEN) revert TokenAlreadySupported() */\n      tag_298\n      jumpi\n        /* \"contracts/KipuBank.sol\":8077:8100  TokenAlreadySupported() */\n      mload(0x40)\n      0xc78e82ad00000000000000000000000000000000000000000000000000000000\n      dup2\n      mstore\n      0x04\n      add\n      mload(0x40)\n      dup1\n      swap2\n      sub\n      swap1\n      revert\n        /* \"contracts/KipuBank.sol\":8043:8100  if (token == NATIVE_TOKEN) revert TokenAlreadySupported() */\n    tag_298:\n        /* \"contracts/KipuBank.sol\":8136:8137  0 */\n      0x00\n        /* \"contracts/KipuBank.sol\":8115:8138  priceFeed == address(0) */\n      0xffffffffffffffffffffffffffffffffffffffff\n      and\n        /* \"contracts/KipuBank.sol\":8115:8124  priceFeed */\n      dup3\n        /* \"contracts/KipuBank.sol\":8115:8138  priceFeed == address(0) */\n      0xffffffffffffffffffffffffffffffffffffffff\n      and\n      sub\n        /* \"contracts/KipuBank.sol\":8111:8165  if (priceFeed == address(0)) revert InvalidPriceFeed() */\n      tag_299\n      jumpi\n        /* \"contracts/KipuBank.sol\":8147:8165  InvalidPriceFeed() */\n      mload(0x40)\n      0x52cc3f7d00000000000000000000000000000000000000000000000000000000\n      dup2\n      mstore\n      0x04\n      add\n      mload(0x40)\n      dup1\n      swap2\n      sub\n      swap1\n      revert\n        /* \"contracts/KipuBank.sol\":8111:8165  if (priceFeed == address(0)) revert InvalidPriceFeed() */\n    tag_299:\n        /* \"contracts/KipuBank.sol\":8180:8196  isTokenSupported */\n      0x08\n        /* \"contracts/KipuBank.sol\":8180:8203  isTokenSupported[token] */\n      0x00\n        /* \"contracts/KipuBank.sol\":8197:8202  token */\n      dup5\n        /* \"contracts/KipuBank.sol\":8180:8203  isTokenSupported[token] */\n      0xffffffffffffffffffffffffffffffffffffffff\n      and\n      0xffffffffffffffffffffffffffffffffffffffff\n      and\n      dup2\n      mstore\n      0x20\n      add\n      swap1\n      dup2\n      mstore\n      0x20\n      add\n      0x00\n      keccak256\n      0x00\n      swap1\n      sload\n      swap1\n      0x0100\n      exp\n      swap1\n      div\n      0xff\n      and\n        /* \"contracts/KipuBank.sol\":8176:8235  if (isTokenSupported[token]) revert TokenAlreadySupported() */\n      iszero\n      tag_300\n      jumpi\n        /* \"contracts/KipuBank.sol\":8212:8235  TokenAlreadySupported() */\n      mload(0x40)\n      0xc78e82ad00000000000000000000000000000000000000000000000000000000\n      dup2\n      mstore\n      0x04\n      add\n      mload(0x40)\n      dup1\n      swap2\n      sub\n      swap1\n      revert\n        /* \"contracts/KipuBank.sol\":8176:8235  if (isTokenSupported[token]) revert TokenAlreadySupported() */\n    tag_300:\n        /* \"contracts/KipuBank.sol\":8294:8308  uint8 decimals */\n      0x00\n        /* \"contracts/KipuBank.sol\":8326:8331  token */\n      dup4\n        /* \"contracts/KipuBank.sol\":8311:8341  IERC20Metadata(token).decimals */\n      0xffffffffffffffffffffffffffffffffffffffff\n      and\n      0x313ce567\n        /* \"contracts/KipuBank.sol\":8311:8343  IERC20Metadata(token).decimals() */\n      mload(0x40)\n      dup2\n      0xffffffff\n      and\n      0xe0\n      shl\n      dup2\n      mstore\n      0x04\n      add\n      0x20\n      mload(0x40)\n      dup1\n      dup4\n      sub\n      dup2\n      dup7\n      gas\n      staticcall\n      iszero\n      dup1\n      iszero\n      tag_302\n      jumpi\n      returndatacopy(0x00, 0x00, returndatasize)\n      revert(0x00, returndatasize)\n    tag_302:\n      pop\n      pop\n      pop\n      pop\n      mload(0x40)\n      returndatasize\n      not(0x1f)\n      0x1f\n      dup3\n      add\n      and\n      dup3\n      add\n      dup1\n      0x40\n      mstore\n      pop\n      dup2\n      add\n      swap1\n      tag_303\n      swap2\n      swap1\n      tag_304\n      jump\t// in\n    tag_303:\n        /* \"contracts/KipuBank.sol\":8294:8343  uint8 decimals = IERC20Metadata(token).decimals() */\n      swap1\n      pop\n        /* \"contracts/KipuBank.sol\":8364:8401  _addToken(token, decimals, priceFeed) */\n      tag_305\n        /* \"contracts/KipuBank.sol\":8374:8379  token */\n      dup5\n        /* \"contracts/KipuBank.sol\":8381:8389  decimals */\n      dup3\n        /* \"contracts/KipuBank.sol\":8391:8400  priceFeed */\n      dup6\n        /* \"contracts/KipuBank.sol\":8364:8373  _addToken */\n      tag_306\n        /* \"contracts/KipuBank.sol\":8364:8401  _addToken(token, decimals, priceFeed) */\n      jump\t// in\n    tag_305:\n        /* \"contracts/KipuBank.sol\":7968:8409  {... */\n      pop\n        /* \"contracts/KipuBank.sol\":7861:8409  function addToken(... */\n      pop\n      pop\n      pop\n      jump\t// out\n        /* \"contracts/KipuBank.sol\":17758:17932  function convertFromUsd(... */\n    tag_135:\n        /* \"contracts/KipuBank.sol\":17864:17871  uint256 */\n      0x00\n        /* \"contracts/KipuBank.sol\":17891:17924  _convertFromUsd(token, amountUsd) */\n      tag_308\n        /* \"contracts/KipuBank.sol\":17907:17912  token */\n      dup4\n        /* \"contracts/KipuBank.sol\":17914:17923  amountUsd */\n      dup4\n        /* \"contracts/KipuBank.sol\":17891:17906  _convertFromUsd */\n      tag_309\n        /* \"contracts/KipuBank.sol\":17891:17924  _convertFromUsd(token, amountUsd) */\n      jump\t// in\n    tag_308:\n        /* \"contracts/KipuBank.sol\":17884:17924  return _convertFromUsd(token, amountUsd) */\n      swap1\n      pop\n        /* \"contracts/KipuBank.sol\":17758:17932  function convertFromUsd(... */\n      swap3\n      swap2\n      pop\n      pop\n      jump\t// out\n        /* \"@openzeppelin/contracts/utils/Pausable.sol\":1726:1810  function paused() public view virtual returns (bool) {... */\n    tag_139:\n        /* \"@openzeppelin/contracts/utils/Pausable.sol\":1773:1777  bool */\n      0x00\n        /* \"@openzeppelin/contracts/utils/Pausable.sol\":1796:1803  _paused */\n      0x02\n      0x00\n      swap1\n      sload\n      swap1\n      0x0100\n      exp\n      swap1\n      div\n      0xff\n      and\n        /* \"@openzeppelin/contracts/utils/Pausable.sol\":1789:1803  return _paused */\n      swap1\n      pop\n        /* \"@openzeppelin/contracts/utils/Pausable.sol\":1726:1810  function paused() public view virtual returns (bool) {... */\n      swap1\n      jump\t// out\n        /* \"contracts/KipuBank.sol\":8608:9293  function removeToken(address token) external onlyRole(ADMIN_ROLE) {... */\n    tag_144:\n        /* \"contracts/KipuBank.sol\":1576:1599  keccak256(\"ADMIN_ROLE\") */\n      0xa49807205ce4d355092ef5a8a18f56e8913cf4a201fbe287825b095693c21775\n        /* \"@openzeppelin/contracts/access/AccessControl.sol\":2473:2489  _checkRole(role) */\n      tag_312\n        /* \"@openzeppelin/contracts/access/AccessControl.sol\":2484:2488  role */\n      dup2\n        /* \"@openzeppelin/contracts/access/AccessControl.sol\":2473:2483  _checkRole */\n      tag_263\n        /* \"@openzeppelin/contracts/access/AccessControl.sol\":2473:2489  _checkRole(role) */\n      jump\t// in\n    tag_312:\n        /* \"contracts/KipuBank.sol\":1918:1919  0 */\n      0x00\n        /* \"contracts/KipuBank.sol\":8689:8710  token == NATIVE_TOKEN */\n      0xffffffffffffffffffffffffffffffffffffffff\n      and\n        /* \"contracts/KipuBank.sol\":8689:8694  token */\n      dup3\n        /* \"contracts/KipuBank.sol\":8689:8710  token == NATIVE_TOKEN */\n      0xffffffffffffffffffffffffffffffffffffffff\n      and\n      sub\n        /* \"contracts/KipuBank.sol\":8685:8740  if (token == NATIVE_TOKEN) revert InvalidTokenAddress() */\n      tag_314\n      jumpi\n        /* \"contracts/KipuBank.sol\":8719:8740  InvalidTokenAddress() */\n      mload(0x40)\n      0x1eb00b0600000000000000000000000000000000000000000000000000000000\n      dup2\n      mstore\n      0x04\n      add\n      mload(0x40)\n      dup1\n      swap2\n      sub\n      swap1\n      revert\n        /* \"contracts/KipuBank.sol\":8685:8740  if (token == NATIVE_TOKEN) revert InvalidTokenAddress() */\n    tag_314:\n        /* \"contracts/KipuBank.sol\":8756:8772  isTokenSupported */\n      0x08\n        /* \"contracts/KipuBank.sol\":8756:8779  isTokenSupported[token] */\n      0x00\n        /* \"contracts/KipuBank.sol\":8773:8778  token */\n      dup4\n        /* \"contracts/KipuBank.sol\":8756:8779  isTokenSupported[token] */\n      0xffffffffffffffffffffffffffffffffffffffff\n      and\n      0xffffffffffffffffffffffffffffffffffffffff\n      and\n      dup2\n      mstore\n      0x20\n      add\n      swap1\n      dup2\n      mstore\n      0x20\n      add\n      0x00\n      keccak256\n      0x00\n      swap1\n      sload\n      swap1\n      0x0100\n      exp\n      swap1\n      div\n      0xff\n      and\n        /* \"contracts/KipuBank.sol\":8751:8807  if (!isTokenSupported[token]) revert TokenNotSupported() */\n      tag_315\n      jumpi\n        /* \"contracts/KipuBank.sol\":8788:8807  TokenNotSupported() */\n      mload(0x40)\n      0x3dd1b30500000000000000000000000000000000000000000000000000000000\n      dup2\n      mstore\n      0x04\n      add\n      mload(0x40)\n      dup1\n      swap2\n      sub\n      swap1\n      revert\n        /* \"contracts/KipuBank.sol\":8751:8807  if (!isTokenSupported[token]) revert TokenNotSupported() */\n    tag_315:\n        /* \"contracts/KipuBank.sol\":8846:8851  false */\n      0x00\n        /* \"contracts/KipuBank.sol\":8820:8836  isTokenSupported */\n      0x08\n        /* \"contracts/KipuBank.sol\":8820:8843  isTokenSupported[token] */\n      0x00\n        /* \"contracts/KipuBank.sol\":8837:8842  token */\n      dup5\n        /* \"contracts/KipuBank.sol\":8820:8843  isTokenSupported[token] */\n      0xffffffffffffffffffffffffffffffffffffffff\n      and\n      0xffffffffffffffffffffffffffffffffffffffff\n      and\n      dup2\n      mstore\n      0x20\n      add\n      swap1\n      dup2\n      mstore\n      0x20\n      add\n      0x00\n      keccak256\n      0x00\n        /* \"contracts/KipuBank.sol\":8820:8851  isTokenSupported[token] = false */\n      0x0100\n      exp\n      dup2\n      sload\n      dup2\n      0xff\n      mul\n      not\n      and\n      swap1\n      dup4\n      iszero\n      iszero\n      mul\n      or\n      swap1\n      sstore\n      pop\n        /* \"contracts/KipuBank.sol\":8869:8882  tokenDecimals */\n      0x09\n        /* \"contracts/KipuBank.sol\":8869:8889  tokenDecimals[token] */\n      0x00\n        /* \"contracts/KipuBank.sol\":8883:8888  token */\n      dup4\n        /* \"contracts/KipuBank.sol\":8869:8889  tokenDecimals[token] */\n      0xffffffffffffffffffffffffffffffffffffffff\n      and\n      0xffffffffffffffffffffffffffffffffffffffff\n      and\n      dup2\n      mstore\n      0x20\n      add\n      swap1\n      dup2\n      mstore\n      0x20\n      add\n      0x00\n      keccak256\n      0x00\n        /* \"contracts/KipuBank.sol\":8862:8889  delete tokenDecimals[token] */\n      0x0100\n      exp\n      dup2\n      sload\n      swap1\n      0xff\n      mul\n      not\n      and\n      swap1\n      sstore\n        /* \"contracts/KipuBank.sol\":8907:8922  tokenPriceFeeds */\n      0x0a\n        /* \"contracts/KipuBank.sol\":8907:8929  tokenPriceFeeds[token] */\n      0x00\n        /* \"contracts/KipuBank.sol\":8923:8928  token */\n      dup4\n        /* \"contracts/KipuBank.sol\":8907:8929  tokenPriceFeeds[token] */\n      0xffffffffffffffffffffffffffffffffffffffff\n      and\n      0xffffffffffffffffffffffffffffffffffffffff\n      and\n      dup2\n      mstore\n      0x20\n      add\n      swap1\n      dup2\n      mstore\n      0x20\n      add\n      0x00\n      keccak256\n      0x00\n        /* \"contracts/KipuBank.sol\":8900:8929  delete tokenPriceFeeds[token] */\n      0x0100\n      exp\n      dup2\n      sload\n      swap1\n      0xffffffffffffffffffffffffffffffffffffffff\n      mul\n      not\n      and\n      swap1\n      sstore\n        /* \"contracts/KipuBank.sol\":8979:8988  uint256 i */\n      0x00\n        /* \"contracts/KipuBank.sol\":8991:8992  0 */\n      0x00\n        /* \"contracts/KipuBank.sol\":8979:8992  uint256 i = 0 */\n      swap1\n      pop\n        /* \"contracts/KipuBank.sol\":8974:9249  for (uint256 i = 0; i < supportedTokens.length; i++) {... */\n    tag_316:\n        /* \"contracts/KipuBank.sol\":8998:9013  supportedTokens */\n      0x06\n        /* \"contracts/KipuBank.sol\":8998:9020  supportedTokens.length */\n      dup1\n      sload\n      swap1\n      pop\n        /* \"contracts/KipuBank.sol\":8994:8995  i */\n      dup2\n        /* \"contracts/KipuBank.sol\":8994:9020  i < supportedTokens.length */\n      lt\n        /* \"contracts/KipuBank.sol\":8974:9249  for (uint256 i = 0; i < supportedTokens.length; i++) {... */\n      iszero\n      tag_317\n      jumpi\n        /* \"contracts/KipuBank.sol\":9068:9073  token */\n      dup3\n        /* \"contracts/KipuBank.sol\":9046:9073  supportedTokens[i] == token */\n      0xffffffffffffffffffffffffffffffffffffffff\n      and\n        /* \"contracts/KipuBank.sol\":9046:9061  supportedTokens */\n      0x06\n        /* \"contracts/KipuBank.sol\":9062:9063  i */\n      dup3\n        /* \"contracts/KipuBank.sol\":9046:9064  supportedTokens[i] */\n      dup2\n      sload\n      dup2\n      lt\n      tag_319\n      jumpi\n      tag_320\n      tag_321\n      jump\t// in\n    tag_320:\n    tag_319:\n      swap1\n      0x00\n      mstore\n      keccak256(0x00, 0x20)\n      add\n      0x00\n      swap1\n      sload\n      swap1\n      0x0100\n      exp\n      swap1\n      div\n      0xffffffffffffffffffffffffffffffffffffffff\n      and\n        /* \"contracts/KipuBank.sol\":9046:9073  supportedTokens[i] == token */\n      0xffffffffffffffffffffffffffffffffffffffff\n      and\n      sub\n        /* \"contracts/KipuBank.sol\":9042:9238  if (supportedTokens[i] == token) {... */\n      tag_323\n      jumpi\n        /* \"contracts/KipuBank.sol\":9115:9130  supportedTokens */\n      0x06\n        /* \"contracts/KipuBank.sol\":9156:9157  1 */\n      0x01\n        /* \"contracts/KipuBank.sol\":9131:9146  supportedTokens */\n      0x06\n        /* \"contracts/KipuBank.sol\":9131:9153  supportedTokens.length */\n      dup1\n      sload\n      swap1\n      pop\n        /* \"contracts/KipuBank.sol\":9131:9157  supportedTokens.length - 1 */\n      tag_324\n      swap2\n      swap1\n      tag_325\n      jump\t// in\n    tag_324:\n        /* \"contracts/KipuBank.sol\":9115:9158  supportedTokens[supportedTokens.length - 1] */\n      dup2\n      sload\n      dup2\n      lt\n      tag_326\n      jumpi\n      tag_327\n      tag_321\n      jump\t// in\n    tag_327:\n    tag_326:\n      swap1\n      0x00\n      mstore\n      keccak256(0x00, 0x20)\n      add\n      0x00\n      swap1\n      sload\n      swap1\n      0x0100\n      exp\n      swap1\n      div\n      0xffffffffffffffffffffffffffffffffffffffff\n      and\n        /* \"contracts/KipuBank.sol\":9094:9109  supportedTokens */\n      0x06\n        /* \"contracts/KipuBank.sol\":9110:9111  i */\n      dup3\n        /* \"contracts/KipuBank.sol\":9094:9112  supportedTokens[i] */\n      dup2\n      sload\n      dup2\n      lt\n      tag_329\n      jumpi\n      tag_330\n      tag_321\n      jump\t// in\n    tag_330:\n    tag_329:\n      swap1\n      0x00\n      mstore\n      keccak256(0x00, 0x20)\n      add\n      0x00\n        /* \"contracts/KipuBank.sol\":9094:9158  supportedTokens[i] = supportedTokens[supportedTokens.length - 1] */\n      0x0100\n      exp\n      dup2\n      sload\n      dup2\n      0xffffffffffffffffffffffffffffffffffffffff\n      mul\n      not\n      and\n      swap1\n      dup4\n      0xffffffffffffffffffffffffffffffffffffffff\n      and\n      mul\n      or\n      swap1\n      sstore\n      pop\n        /* \"contracts/KipuBank.sol\":9177:9192  supportedTokens */\n      0x06\n        /* \"contracts/KipuBank.sol\":9177:9198  supportedTokens.pop() */\n      dup1\n      sload\n      dup1\n      tag_332\n      jumpi\n      tag_333\n      tag_334\n      jump\t// in\n    tag_333:\n    tag_332:\n      0x01\n      swap1\n      sub\n      dup2\n      dup2\n      swap1\n      0x00\n      mstore\n      keccak256(0x00, 0x20)\n      add\n      exp(0x0100, 0x00)\n      dup2\n      sload\n      swap1\n      0xffffffffffffffffffffffffffffffffffffffff\n      mul\n      not\n      and\n      swap1\n      sstore\n      swap1\n      sstore\n        /* \"contracts/KipuBank.sol\":9217:9222  break */\n      jump(tag_317)\n        /* \"contracts/KipuBank.sol\":9042:9238  if (supportedTokens[i] == token) {... */\n    tag_323:\n        /* \"contracts/KipuBank.sol\":9022:9025  i++ */\n      dup1\n      dup1\n      0x01\n      add\n      swap2\n      pop\n      pop\n        /* \"contracts/KipuBank.sol\":8974:9249  for (uint256 i = 0; i < supportedTokens.length; i++) {... */\n      jump(tag_316)\n    tag_317:\n      pop\n        /* \"contracts/KipuBank.sol\":9279:9284  token */\n      dup2\n        /* \"contracts/KipuBank.sol\":9266:9285  TokenRemoved(token) */\n      0xffffffffffffffffffffffffffffffffffffffff\n      and\n      0x4c910b69fe65a61f7531b9c5042b2329ca7179c77290aa7e2eb3afa3c8511fd3\n      mload(0x40)\n      mload(0x40)\n      dup1\n      swap2\n      sub\n      swap1\n      log2\n        /* \"contracts/KipuBank.sol\":8608:9293  function removeToken(address token) external onlyRole(ADMIN_ROLE) {... */\n      pop\n      pop\n      jump\t// out\n        /* \"contracts/KipuBank.sol\":14158:14372  function getBalanceInUsd(... */\n    tag_148:\n        /* \"contracts/KipuBank.sol\":14260:14267  uint256 */\n      0x00\n        /* \"contracts/KipuBank.sol\":14280:14295  uint256 balance */\n      0x00\n        /* \"contracts/KipuBank.sol\":14298:14304  vaults */\n      0x07\n        /* \"contracts/KipuBank.sol\":14298:14310  vaults[user] */\n      0x00\n        /* \"contracts/KipuBank.sol\":14305:14309  user */\n      dup6\n        /* \"contracts/KipuBank.sol\":14298:14310  vaults[user] */\n      0xffffffffffffffffffffffffffffffffffffffff\n      and\n      0xffffffffffffffffffffffffffffffffffffffff\n      and\n      dup2\n      mstore\n      0x20\n      add\n      swap1\n      dup2\n      mstore\n      0x20\n      add\n      0x00\n      keccak256\n        /* \"contracts/KipuBank.sol\":14298:14317  vaults[user][token] */\n      0x00\n        /* \"contracts/KipuBank.sol\":14311:14316  token */\n      dup5\n        /* \"contracts/KipuBank.sol\":14298:14317  vaults[user][token] */\n      0xffffffffffffffffffffffffffffffffffffffff\n      and\n      0xffffffffffffffffffffffffffffffffffffffff\n      and\n      dup2\n      mstore\n      0x20\n      add\n      swap1\n      dup2\n      mstore\n      0x20\n      add\n      0x00\n      keccak256\n      sload\n        /* \"contracts/KipuBank.sol\":14280:14317  uint256 balance = vaults[user][token] */\n      swap1\n      pop\n        /* \"contracts/KipuBank.sol\":14335:14364  _convertToUsd(token, balance) */\n      tag_337\n        /* \"contracts/KipuBank.sol\":14349:14354  token */\n      dup4\n        /* \"contracts/KipuBank.sol\":14356:14363  balance */\n      dup3\n        /* \"contracts/KipuBank.sol\":14335:14348  _convertToUsd */\n      tag_338\n        /* \"contracts/KipuBank.sol\":14335:14364  _convertToUsd(token, balance) */\n      jump\t// in\n    tag_337:\n        /* \"contracts/KipuBank.sol\":14328:14364  return _convertToUsd(token, balance) */\n      swap2\n      pop\n      pop\n        /* \"contracts/KipuBank.sol\":14158:14372  function getBalanceInUsd(... */\n      swap3\n      swap2\n      pop\n      pop\n      jump\t// out\n        /* \"contracts/KipuBank.sol\":3122:3152  uint256 public withdrawalCount */\n    tag_152:\n      sload(0x05)\n      dup2\n      jump\t// out\n        /* \"contracts/KipuBank.sol\":3544:3592  mapping(address => bool) public isTokenSupported */\n    tag_157:\n      mstore(0x20, 0x08)\n      dup1\n      0x00\n      mstore\n      keccak256(0x00, 0x40)\n      0x00\n      swap2\n      pop\n      sload\n      swap1\n      0x0100\n      exp\n      swap1\n      div\n      0xff\n      and\n      dup2\n      jump\t// out\n        /* \"contracts/KipuBank.sol\":1539:1599  bytes32 public constant ADMIN_ROLE = keccak256(\"ADMIN_ROLE\") */\n    tag_161:\n        /* \"contracts/KipuBank.sol\":1576:1599  keccak256(\"ADMIN_ROLE\") */\n      0xa49807205ce4d355092ef5a8a18f56e8913cf4a201fbe287825b095693c21775\n        /* \"contracts/KipuBank.sol\":1539:1599  bytes32 public constant ADMIN_ROLE = keccak256(\"ADMIN_ROLE\") */\n      dup2\n      jump\t// out\n        /* \"contracts/KipuBank.sol\":9423:9500  function pause() external onlyRole(OPERATOR_ROLE) {... */\n    tag_165:\n        /* \"contracts/KipuBank.sol\":1727:1753  keccak256(\"OPERATOR_ROLE\") */\n      0x97667070c54ef182b0f5858b034beac1b6f3089aa2d3188bb1e8929f4fa9b929\n        /* \"@openzeppelin/contracts/access/AccessControl.sol\":2473:2489  _checkRole(role) */\n      tag_340\n        /* \"@openzeppelin/contracts/access/AccessControl.sol\":2484:2488  role */\n      dup2\n        /* \"@openzeppelin/contracts/access/AccessControl.sol\":2473:2483  _checkRole */\n      tag_263\n        /* \"@openzeppelin/contracts/access/AccessControl.sol\":2473:2489  _checkRole(role) */\n      jump\t// in\n    tag_340:\n        /* \"contracts/KipuBank.sol\":9484:9492  _pause() */\n      tag_342\n        /* \"contracts/KipuBank.sol\":9484:9490  _pause */\n      tag_343\n        /* \"contracts/KipuBank.sol\":9484:9492  _pause() */\n      jump\t// in\n    tag_342:\n        /* \"contracts/KipuBank.sol\":9423:9500  function pause() external onlyRole(OPERATOR_ROLE) {... */\n      pop\n      jump\t// out\n        /* \"contracts/KipuBank.sol\":3684:3730  mapping(address => uint8) public tokenDecimals */\n    tag_169:\n      mstore(0x20, 0x09)\n      dup1\n      0x00\n      mstore\n      keccak256(0x00, 0x40)\n      0x00\n      swap2\n      pop\n      sload\n      swap1\n      0x0100\n      exp\n      swap1\n      div\n      0xff\n      and\n      dup2\n      jump\t// out\n        /* \"@openzeppelin/contracts/access/AccessControl.sol\":2830:2966  function hasRole(bytes32 role, address account) public view virtual returns (bool) {... */\n    tag_174:\n        /* \"@openzeppelin/contracts/access/AccessControl.sol\":2907:2911  bool */\n      0x00\n        /* \"@openzeppelin/contracts/access/AccessControl.sol\":2930:2936  _roles */\n      0x00\n        /* \"@openzeppelin/contracts/access/AccessControl.sol\":2930:2942  _roles[role] */\n      0x00\n        /* \"@openzeppelin/contracts/access/AccessControl.sol\":2937:2941  role */\n      dup5\n        /* \"@openzeppelin/contracts/access/AccessControl.sol\":2930:2942  _roles[role] */\n      dup2\n      mstore\n      0x20\n      add\n      swap1\n      dup2\n      mstore\n      0x20\n      add\n      0x00\n      keccak256\n        /* \"@openzeppelin/contracts/access/AccessControl.sol\":2930:2950  _roles[role].hasRole */\n      0x00\n      add\n        /* \"@openzeppelin/contracts/access/AccessControl.sol\":2930:2959  _roles[role].hasRole[account] */\n      0x00\n        /* \"@openzeppelin/contracts/access/AccessControl.sol\":2951:2958  account */\n      dup4\n        /* \"@openzeppelin/contracts/access/AccessControl.sol\":2930:2959  _roles[role].hasRole[account] */\n      0xffffffffffffffffffffffffffffffffffffffff\n      and\n      0xffffffffffffffffffffffffffffffffffffffff\n      and\n      dup2\n      mstore\n      0x20\n      add\n      swap1\n      dup2\n      mstore\n      0x20\n      add\n      0x00\n      keccak256\n      0x00\n      swap1\n      sload\n      swap1\n      0x0100\n      exp\n      swap1\n      div\n      0xff\n      and\n        /* \"@openzeppelin/contracts/access/AccessControl.sol\":2923:2959  return _roles[role].hasRole[account] */\n      swap1\n      pop\n        /* \"@openzeppelin/contracts/access/AccessControl.sol\":2830:2966  function hasRole(bytes32 role, address account) public view virtual returns (bool) {... */\n      swap3\n      swap2\n      pop\n      pop\n      jump\t// out\n        /* \"contracts/KipuBank.sol\":2143:2195  uint256 public constant MINIMUM_DEPOSIT_USD = 100000 */\n    tag_178:\n        /* \"contracts/KipuBank.sol\":2189:2195  100000 */\n      0x0186a0\n        /* \"contracts/KipuBank.sol\":2143:2195  uint256 public constant MINIMUM_DEPOSIT_USD = 100000 */\n      dup2\n      jump\t// out\n        /* \"@openzeppelin/contracts/access/AccessControl.sol\":2196:2245  bytes32 public constant DEFAULT_ADMIN_ROLE = 0x00 */\n    tag_182:\n        /* \"@openzeppelin/contracts/access/AccessControl.sol\":2241:2245  0x00 */\n      0x00\n        /* \"@openzeppelin/contracts/access/AccessControl.sol\":2196:2245  bytes32 public constant DEFAULT_ADMIN_ROLE = 0x00 */\n      0x00\n      shl\n      dup2\n      jump\t// out\n        /* \"contracts/KipuBank.sol\":2601:2636  uint256 public immutable bankCapUsd */\n    tag_186:\n      immutable(\"0xb5195a635a48815a20a70a61690787ee680d046bb10d1baaa6f731fa674ca1c3\")\n      dup2\n      jump\t// out\n        /* \"contracts/KipuBank.sol\":3871:3935  mapping(address => AggregatorV3Interface) public tokenPriceFeeds */\n    tag_191:\n      mstore(0x20, 0x0a)\n      dup1\n      0x00\n      mstore\n      keccak256(0x00, 0x40)\n      0x00\n      swap2\n      pop\n      sload\n      swap1\n      0x0100\n      exp\n      swap1\n      div\n      0xffffffffffffffffffffffffffffffffffffffff\n      and\n      dup2\n      jump\t// out\n        /* \"contracts/KipuBank.sol\":14665:15386  function getAllBalances(address user) external view returns (... */\n    tag_196:\n        /* \"contracts/KipuBank.sol\":14736:14759  address[] memory tokens */\n      0x60\n        /* \"contracts/KipuBank.sol\":14770:14795  uint256[] memory balances */\n      dup1\n        /* \"contracts/KipuBank.sol\":14806:14834  uint256[] memory balancesUsd */\n      0x60\n        /* \"contracts/KipuBank.sol\":14853:14867  uint256 length */\n      0x00\n        /* \"contracts/KipuBank.sol\":14870:14885  supportedTokens */\n      0x06\n        /* \"contracts/KipuBank.sol\":14870:14892  supportedTokens.length */\n      dup1\n      sload\n      swap1\n      pop\n        /* \"contracts/KipuBank.sol\":14853:14892  uint256 length = supportedTokens.length */\n      swap1\n      pop\n        /* \"contracts/KipuBank.sol\":14926:14932  length */\n      dup1\n        /* \"contracts/KipuBank.sol\":14912:14933  new address[](length) */\n      0xffffffffffffffff\n      dup2\n      gt\n      iszero\n      tag_346\n      jumpi\n      tag_347\n      tag_348\n      jump\t// in\n    tag_347:\n    tag_346:\n      mload(0x40)\n      swap1\n      dup1\n      dup3\n      mstore\n      dup1\n      0x20\n      mul\n      0x20\n      add\n      dup3\n      add\n      0x40\n      mstore\n      dup1\n      iszero\n      tag_349\n      jumpi\n      dup2\n      0x20\n      add\n      0x20\n      dup3\n      mul\n      dup1\n      calldatasize\n      dup4\n      calldatacopy\n      dup1\n      dup3\n      add\n      swap2\n      pop\n      pop\n      swap1\n      pop\n    tag_349:\n      pop\n        /* \"contracts/KipuBank.sol\":14903:14933  tokens = new address[](length) */\n      swap4\n      pop\n        /* \"contracts/KipuBank.sol\":14969:14975  length */\n      dup1\n        /* \"contracts/KipuBank.sol\":14955:14976  new uint256[](length) */\n      0xffffffffffffffff\n      dup2\n      gt\n      iszero\n      tag_350\n      jumpi\n      tag_351\n      tag_348\n      jump\t// in\n    tag_351:\n    tag_350:\n      mload(0x40)\n      swap1\n      dup1\n      dup3\n      mstore\n      dup1\n      0x20\n      mul\n      0x20\n      add\n      dup3\n      add\n      0x40\n      mstore\n      dup1\n      iszero\n      tag_352\n      jumpi\n      dup2\n      0x20\n      add\n      0x20\n      dup3\n      mul\n      dup1\n      calldatasize\n      dup4\n      calldatacopy\n      dup1\n      dup3\n      add\n      swap2\n      pop\n      pop\n      swap1\n      pop\n    tag_352:\n      pop\n        /* \"contracts/KipuBank.sol\":14944:14976  balances = new uint256[](length) */\n      swap3\n      pop\n        /* \"contracts/KipuBank.sol\":15015:15021  length */\n      dup1\n        /* \"contracts/KipuBank.sol\":15001:15022  new uint256[](length) */\n      0xffffffffffffffff\n      dup2\n      gt\n      iszero\n      tag_353\n      jumpi\n      tag_354\n      tag_348\n      jump\t// in\n    tag_354:\n    tag_353:\n      mload(0x40)\n      swap1\n      dup1\n      dup3\n      mstore\n      dup1\n      0x20\n      mul\n      0x20\n      add\n      dup3\n      add\n      0x40\n      mstore\n      dup1\n      iszero\n      tag_355\n      jumpi\n      dup2\n      0x20\n      add\n      0x20\n      dup3\n      mul\n      dup1\n      calldatasize\n      dup4\n      calldatacopy\n      dup1\n      dup3\n      add\n      swap2\n      pop\n      pop\n      swap1\n      pop\n    tag_355:\n      pop\n        /* \"contracts/KipuBank.sol\":14987:15022  balancesUsd = new uint256[](length) */\n      swap2\n      pop\n        /* \"contracts/KipuBank.sol\":15040:15049  uint256 i */\n      0x00\n        /* \"contracts/KipuBank.sol\":15052:15053  0 */\n      0x00\n        /* \"contracts/KipuBank.sol\":15040:15053  uint256 i = 0 */\n      swap1\n      pop\n        /* \"contracts/KipuBank.sol\":15035:15328  for (uint256 i = 0; i < length; i++) {... */\n    tag_356:\n        /* \"contracts/KipuBank.sol\":15059:15065  length */\n      dup2\n        /* \"contracts/KipuBank.sol\":15055:15056  i */\n      dup2\n        /* \"contracts/KipuBank.sol\":15055:15065  i < length */\n      lt\n        /* \"contracts/KipuBank.sol\":15035:15328  for (uint256 i = 0; i < length; i++) {... */\n      iszero\n      tag_357\n      jumpi\n        /* \"contracts/KipuBank.sol\":15087:15100  address token */\n      0x00\n        /* \"contracts/KipuBank.sol\":15103:15118  supportedTokens */\n      0x06\n        /* \"contracts/KipuBank.sol\":15119:15120  i */\n      dup3\n        /* \"contracts/KipuBank.sol\":15103:15121  supportedTokens[i] */\n      dup2\n      sload\n      dup2\n      lt\n      tag_359\n      jumpi\n      tag_360\n      tag_321\n      jump\t// in\n    tag_360:\n    tag_359:\n      swap1\n      0x00\n      mstore\n      keccak256(0x00, 0x20)\n      add\n      0x00\n      swap1\n      sload\n      swap1\n      0x0100\n      exp\n      swap1\n      div\n      0xffffffffffffffffffffffffffffffffffffffff\n      and\n        /* \"contracts/KipuBank.sol\":15087:15121  address token = supportedTokens[i] */\n      swap1\n      pop\n        /* \"contracts/KipuBank.sol\":15136:15151  uint256 balance */\n      0x00\n        /* \"contracts/KipuBank.sol\":15154:15160  vaults */\n      0x07\n        /* \"contracts/KipuBank.sol\":15154:15166  vaults[user] */\n      0x00\n        /* \"contracts/KipuBank.sol\":15161:15165  user */\n      dup10\n        /* \"contracts/KipuBank.sol\":15154:15166  vaults[user] */\n      0xffffffffffffffffffffffffffffffffffffffff\n      and\n      0xffffffffffffffffffffffffffffffffffffffff\n      and\n      dup2\n      mstore\n      0x20\n      add\n      swap1\n      dup2\n      mstore\n      0x20\n      add\n      0x00\n      keccak256\n        /* \"contracts/KipuBank.sol\":15154:15173  vaults[user][token] */\n      0x00\n        /* \"contracts/KipuBank.sol\":15167:15172  token */\n      dup4\n        /* \"contracts/KipuBank.sol\":15154:15173  vaults[user][token] */\n      0xffffffffffffffffffffffffffffffffffffffff\n      and\n      0xffffffffffffffffffffffffffffffffffffffff\n      and\n      dup2\n      mstore\n      0x20\n      add\n      swap1\n      dup2\n      mstore\n      0x20\n      add\n      0x00\n      keccak256\n      sload\n        /* \"contracts/KipuBank.sol\":15136:15173  uint256 balance = vaults[user][token] */\n      swap1\n      pop\n        /* \"contracts/KipuBank.sol\":15214:15219  token */\n      dup2\n        /* \"contracts/KipuBank.sol\":15202:15208  tokens */\n      dup8\n        /* \"contracts/KipuBank.sol\":15209:15210  i */\n      dup5\n        /* \"contracts/KipuBank.sol\":15202:15211  tokens[i] */\n      dup2\n      mload\n      dup2\n      lt\n      tag_362\n      jumpi\n      tag_363\n      tag_321\n      jump\t// in\n    tag_363:\n    tag_362:\n      0x20\n      mul\n      0x20\n      add\n      add\n        /* \"contracts/KipuBank.sol\":15202:15219  tokens[i] = token */\n      swap1\n      0xffffffffffffffffffffffffffffffffffffffff\n      and\n      swap1\n      dup2\n      0xffffffffffffffffffffffffffffffffffffffff\n      and\n      dup2\n      mstore\n      pop\n      pop\n        /* \"contracts/KipuBank.sol\":15248:15255  balance */\n      dup1\n        /* \"contracts/KipuBank.sol\":15234:15242  balances */\n      dup7\n        /* \"contracts/KipuBank.sol\":15243:15244  i */\n      dup5\n        /* \"contracts/KipuBank.sol\":15234:15245  balances[i] */\n      dup2\n      mload\n      dup2\n      lt\n      tag_364\n      jumpi\n      tag_365\n      tag_321\n      jump\t// in\n    tag_365:\n    tag_364:\n      0x20\n      mul\n      0x20\n      add\n      add\n        /* \"contracts/KipuBank.sol\":15234:15255  balances[i] = balance */\n      dup2\n      dup2\n      mstore\n      pop\n      pop\n        /* \"contracts/KipuBank.sol\":15287:15316  _convertToUsd(token, balance) */\n      tag_366\n        /* \"contracts/KipuBank.sol\":15301:15306  token */\n      dup3\n        /* \"contracts/KipuBank.sol\":15308:15315  balance */\n      dup3\n        /* \"contracts/KipuBank.sol\":15287:15300  _convertToUsd */\n      tag_338\n        /* \"contracts/KipuBank.sol\":15287:15316  _convertToUsd(token, balance) */\n      jump\t// in\n    tag_366:\n        /* \"contracts/KipuBank.sol\":15270:15281  balancesUsd */\n      dup6\n        /* \"contracts/KipuBank.sol\":15282:15283  i */\n      dup5\n        /* \"contracts/KipuBank.sol\":15270:15284  balancesUsd[i] */\n      dup2\n      mload\n      dup2\n      lt\n      tag_367\n      jumpi\n      tag_368\n      tag_321\n      jump\t// in\n    tag_368:\n    tag_367:\n      0x20\n      mul\n      0x20\n      add\n      add\n        /* \"contracts/KipuBank.sol\":15270:15316  balancesUsd[i] = _convertToUsd(token, balance) */\n      dup2\n      dup2\n      mstore\n      pop\n      pop\n        /* \"contracts/KipuBank.sol\":15072:15328  {... */\n      pop\n      pop\n        /* \"contracts/KipuBank.sol\":15067:15070  i++ */\n      dup1\n      dup1\n      0x01\n      add\n      swap2\n      pop\n      pop\n        /* \"contracts/KipuBank.sol\":15035:15328  for (uint256 i = 0; i < length; i++) {... */\n      jump(tag_356)\n    tag_357:\n      pop\n        /* \"contracts/KipuBank.sol\":15340:15378  return (tokens, balances, balancesUsd) */\n      pop\n        /* \"contracts/KipuBank.sol\":14665:15386  function getAllBalances(address user) external view returns (... */\n      swap2\n      swap4\n      swap1\n      swap3\n      pop\n      jump\t// out\n        /* \"contracts/KipuBank.sol\":3222:3254  address[] public supportedTokens */\n    tag_203:\n      0x06\n      dup2\n      dup2\n      sload\n      dup2\n      lt\n      tag_369\n      jumpi\n      0x00\n      dup1\n      revert\n    tag_369:\n      swap1\n      0x00\n      mstore\n      keccak256(0x00, 0x20)\n      add\n      0x00\n      swap2\n      pop\n      sload\n      swap1\n      0x0100\n      exp\n      swap1\n      div\n      0xffffffffffffffffffffffffffffffffffffffff\n      and\n      dup2\n      jump\t// out\n        /* \"contracts/KipuBank.sol\":15696:16062  function getBankStats() external view returns (... */\n    tag_207:\n        /* \"contracts/KipuBank.sol\":15753:15778  uint256 _totalDepositsUsd */\n      0x00\n        /* \"contracts/KipuBank.sol\":15789:15810  uint256 _depositCount */\n      0x00\n        /* \"contracts/KipuBank.sol\":15821:15845  uint256 _withdrawalCount */\n      0x00\n        /* \"contracts/KipuBank.sol\":15856:15885  uint256 _availableCapacityUsd */\n      0x00\n        /* \"contracts/KipuBank.sol\":15926:15942  totalDepositsUsd */\n      sload(0x03)\n        /* \"contracts/KipuBank.sol\":15957:15969  depositCount */\n      sload(0x04)\n        /* \"contracts/KipuBank.sol\":15984:15999  withdrawalCount */\n      sload(0x05)\n        /* \"contracts/KipuBank.sol\":16027:16043  totalDepositsUsd */\n      sload(0x03)\n        /* \"contracts/KipuBank.sol\":16014:16024  bankCapUsd */\n      immutable(\"0xb5195a635a48815a20a70a61690787ee680d046bb10d1baaa6f731fa674ca1c3\")\n        /* \"contracts/KipuBank.sol\":16014:16043  bankCapUsd - totalDepositsUsd */\n      tag_372\n      swap2\n      swap1\n      tag_325\n      jump\t// in\n    tag_372:\n        /* \"contracts/KipuBank.sol\":15904:16054  return (... */\n      swap4\n      pop\n      swap4\n      pop\n      swap4\n      pop\n      swap4\n      pop\n        /* \"contracts/KipuBank.sol\":15696:16062  function getBankStats() external view returns (... */\n      swap1\n      swap2\n      swap3\n      swap4\n      jump\t// out\n        /* \"contracts/KipuBank.sol\":16997:17109  function getTokenPrice(address token) external view returns (uint256) {... */\n    tag_213:\n        /* \"contracts/KipuBank.sol\":17058:17065  uint256 */\n      0x00\n        /* \"contracts/KipuBank.sol\":17085:17101  _getPrice(token) */\n      tag_374\n        /* \"contracts/KipuBank.sol\":17095:17100  token */\n      dup3\n        /* \"contracts/KipuBank.sol\":17085:17094  _getPrice */\n      tag_375\n        /* \"contracts/KipuBank.sol\":17085:17101  _getPrice(token) */\n      jump\t// in\n    tag_374:\n        /* \"contracts/KipuBank.sol\":17078:17101  return _getPrice(token) */\n      swap1\n      pop\n        /* \"contracts/KipuBank.sol\":16997:17109  function getTokenPrice(address token) external view returns (uint256) {... */\n      swap2\n      swap1\n      pop\n      jump\t// out\n        /* \"contracts/KipuBank.sol\":16200:16312  function getSupportedTokens() external view returns (address[] memory) {... */\n    tag_217:\n        /* \"contracts/KipuBank.sol\":16253:16269  address[] memory */\n      0x60\n        /* \"contracts/KipuBank.sol\":16289:16304  supportedTokens */\n      0x06\n        /* \"contracts/KipuBank.sol\":16282:16304  return supportedTokens */\n      dup1\n      sload\n      dup1\n      0x20\n      mul\n      0x20\n      add\n      mload(0x40)\n      swap1\n      dup2\n      add\n      0x40\n      mstore\n      dup1\n      swap3\n      swap2\n      swap1\n      dup2\n      dup2\n      mstore\n      0x20\n      add\n      dup3\n      dup1\n      sload\n      dup1\n      iszero\n      tag_377\n      jumpi\n      0x20\n      mul\n      dup3\n      add\n      swap2\n      swap1\n      0x00\n      mstore\n      keccak256(0x00, 0x20)\n      swap1\n    tag_378:\n      dup2\n      0x00\n      swap1\n      sload\n      swap1\n      0x0100\n      exp\n      swap1\n      div\n      0xffffffffffffffffffffffffffffffffffffffff\n      and\n      0xffffffffffffffffffffffffffffffffffffffff\n      and\n      dup2\n      mstore\n      0x20\n      add\n      swap1\n      0x01\n      add\n      swap1\n      dup1\n      dup4\n      gt\n      tag_378\n      jumpi\n    tag_377:\n      pop\n      pop\n      pop\n      pop\n      pop\n      swap1\n      pop\n        /* \"contracts/KipuBank.sol\":16200:16312  function getSupportedTokens() external view returns (address[] memory) {... */\n      swap1\n      jump\t// out\n        /* \"contracts/KipuBank.sol\":13785:13936  function getBalance(... */\n    tag_223:\n        /* \"contracts/KipuBank.sol\":13882:13889  uint256 */\n      0x00\n        /* \"contracts/KipuBank.sol\":13909:13915  vaults */\n      0x07\n        /* \"contracts/KipuBank.sol\":13909:13921  vaults[user] */\n      0x00\n        /* \"contracts/KipuBank.sol\":13916:13920  user */\n      dup5\n        /* \"contracts/KipuBank.sol\":13909:13921  vaults[user] */\n      0xffffffffffffffffffffffffffffffffffffffff\n      and\n      0xffffffffffffffffffffffffffffffffffffffff\n      and\n      dup2\n      mstore\n      0x20\n      add\n      swap1\n      dup2\n      mstore\n      0x20\n      add\n      0x00\n      keccak256\n        /* \"contracts/KipuBank.sol\":13909:13928  vaults[user][token] */\n      0x00\n        /* \"contracts/KipuBank.sol\":13922:13927  token */\n      dup4\n        /* \"contracts/KipuBank.sol\":13909:13928  vaults[user][token] */\n      0xffffffffffffffffffffffffffffffffffffffff\n      and\n      0xffffffffffffffffffffffffffffffffffffffff\n      and\n      dup2\n      mstore\n      0x20\n      add\n      swap1\n      dup2\n      mstore\n      0x20\n      add\n      0x00\n      keccak256\n      sload\n        /* \"contracts/KipuBank.sol\":13902:13928  return vaults[user][token] */\n      swap1\n      pop\n        /* \"contracts/KipuBank.sol\":13785:13936  function getBalance(... */\n      swap3\n      swap2\n      pop\n      pop\n      jump\t// out\n        /* \"@openzeppelin/contracts/access/AccessControl.sol\":4618:4756  function revokeRole(bytes32 role, address account) public virtual onlyRole(getRoleAdmin(role)) {... */\n    tag_228:\n        /* \"@openzeppelin/contracts/access/AccessControl.sol\":4693:4711  getRoleAdmin(role) */\n      tag_380\n        /* \"@openzeppelin/contracts/access/AccessControl.sol\":4706:4710  role */\n      dup3\n        /* \"@openzeppelin/contracts/access/AccessControl.sol\":4693:4705  getRoleAdmin */\n      tag_70\n        /* \"@openzeppelin/contracts/access/AccessControl.sol\":4693:4711  getRoleAdmin(role) */\n      jump\t// in\n    tag_380:\n        /* \"@openzeppelin/contracts/access/AccessControl.sol\":2473:2489  _checkRole(role) */\n      tag_382\n        /* \"@openzeppelin/contracts/access/AccessControl.sol\":2484:2488  role */\n      dup2\n        /* \"@openzeppelin/contracts/access/AccessControl.sol\":2473:2483  _checkRole */\n      tag_263\n        /* \"@openzeppelin/contracts/access/AccessControl.sol\":2473:2489  _checkRole(role) */\n      jump\t// in\n    tag_382:\n        /* \"@openzeppelin/contracts/access/AccessControl.sol\":4723:4749  _revokeRole(role, account) */\n      tag_384\n        /* \"@openzeppelin/contracts/access/AccessControl.sol\":4735:4739  role */\n      dup4\n        /* \"@openzeppelin/contracts/access/AccessControl.sol\":4741:4748  account */\n      dup4\n        /* \"@openzeppelin/contracts/access/AccessControl.sol\":4723:4734  _revokeRole */\n      tag_272\n        /* \"@openzeppelin/contracts/access/AccessControl.sol\":4723:4749  _revokeRole(role, account) */\n      jump\t// in\n    tag_384:\n      pop\n        /* \"@openzeppelin/contracts/access/AccessControl.sol\":4618:4756  function revokeRole(bytes32 role, address account) public virtual onlyRole(getRoleAdmin(role)) {... */\n      pop\n      pop\n      pop\n      jump\t// out\n        /* \"contracts/KipuBank.sol\":9874:10048  function depositNative() external payable whenNotPaused nonReentrant {... */\n    tag_230:\n        /* \"@openzeppelin/contracts/utils/Pausable.sol\":1350:1369  _requireNotPaused() */\n      tag_386\n        /* \"@openzeppelin/contracts/utils/Pausable.sol\":1350:1367  _requireNotPaused */\n      tag_280\n        /* \"@openzeppelin/contracts/utils/Pausable.sol\":1350:1369  _requireNotPaused() */\n      jump\t// in\n    tag_386:\n        /* \"@openzeppelin/contracts/utils/ReentrancyGuard.sol\":2500:2521  _nonReentrantBefore() */\n      tag_388\n        /* \"@openzeppelin/contracts/utils/ReentrancyGuard.sol\":2500:2519  _nonReentrantBefore */\n      tag_283\n        /* \"@openzeppelin/contracts/utils/ReentrancyGuard.sol\":2500:2521  _nonReentrantBefore() */\n      jump\t// in\n    tag_388:\n        /* \"contracts/KipuBank.sol\":9971:9972  0 */\n      0x00\n        /* \"contracts/KipuBank.sol\":9958:9967  msg.value */\n      callvalue\n        /* \"contracts/KipuBank.sol\":9958:9972  msg.value == 0 */\n      sub\n        /* \"contracts/KipuBank.sol\":9954:9996  if (msg.value == 0) revert InvalidAmount() */\n      tag_390\n      jumpi\n        /* \"contracts/KipuBank.sol\":9981:9996  InvalidAmount() */\n      mload(0x40)\n      0x2c5211c600000000000000000000000000000000000000000000000000000000\n      dup2\n      mstore\n      0x04\n      add\n      mload(0x40)\n      dup1\n      swap2\n      sub\n      swap1\n      revert\n        /* \"contracts/KipuBank.sol\":9954:9996  if (msg.value == 0) revert InvalidAmount() */\n    tag_390:\n        /* \"contracts/KipuBank.sol\":10007:10040  _deposit(NATIVE_TOKEN, msg.value) */\n      tag_391\n        /* \"contracts/KipuBank.sol\":1918:1919  0 */\n      0x00\n        /* \"contracts/KipuBank.sol\":10030:10039  msg.value */\n      callvalue\n        /* \"contracts/KipuBank.sol\":10007:10015  _deposit */\n      tag_291\n        /* \"contracts/KipuBank.sol\":10007:10040  _deposit(NATIVE_TOKEN, msg.value) */\n      jump\t// in\n    tag_391:\n        /* \"@openzeppelin/contracts/utils/ReentrancyGuard.sol\":2542:2562  _nonReentrantAfter() */\n      tag_392\n        /* \"@openzeppelin/contracts/utils/ReentrancyGuard.sol\":2542:2560  _nonReentrantAfter */\n      tag_293\n        /* \"@openzeppelin/contracts/utils/ReentrancyGuard.sol\":2542:2562  _nonReentrantAfter() */\n      jump\t// in\n    tag_392:\n        /* \"contracts/KipuBank.sol\":9874:10048  function depositNative() external payable whenNotPaused nonReentrant {... */\n      jump\t// out\n        /* \"contracts/KipuBank.sol\":17346:17510  function convertToUsd(... */\n    tag_234:\n        /* \"contracts/KipuBank.sol\":17447:17454  uint256 */\n      0x00\n        /* \"contracts/KipuBank.sol\":17474:17502  _convertToUsd(token, amount) */\n      tag_394\n        /* \"contracts/KipuBank.sol\":17488:17493  token */\n      dup4\n        /* \"contracts/KipuBank.sol\":17495:17501  amount */\n      dup4\n        /* \"contracts/KipuBank.sol\":17474:17487  _convertToUsd */\n      tag_338\n        /* \"contracts/KipuBank.sol\":17474:17502  _convertToUsd(token, amount) */\n      jump\t// in\n    tag_394:\n        /* \"contracts/KipuBank.sol\":17467:17502  return _convertToUsd(token, amount) */\n      swap1\n      pop\n        /* \"contracts/KipuBank.sol\":17346:17510  function convertToUsd(... */\n      swap3\n      swap2\n      pop\n      pop\n      jump\t// out\n        /* \"contracts/KipuBank.sol\":11035:11958  function withdraw(... */\n    tag_239:\n        /* \"@openzeppelin/contracts/utils/Pausable.sol\":1350:1369  _requireNotPaused() */\n      tag_396\n        /* \"@openzeppelin/contracts/utils/Pausable.sol\":1350:1367  _requireNotPaused */\n      tag_280\n        /* \"@openzeppelin/contracts/utils/Pausable.sol\":1350:1369  _requireNotPaused() */\n      jump\t// in\n    tag_396:\n        /* \"@openzeppelin/contracts/utils/ReentrancyGuard.sol\":2500:2521  _nonReentrantBefore() */\n      tag_398\n        /* \"@openzeppelin/contracts/utils/ReentrancyGuard.sol\":2500:2519  _nonReentrantBefore */\n      tag_283\n        /* \"@openzeppelin/contracts/utils/ReentrancyGuard.sol\":2500:2521  _nonReentrantBefore() */\n      jump\t// in\n    tag_398:\n        /* \"contracts/KipuBank.sol\":11170:11171  0 */\n      0x00\n        /* \"contracts/KipuBank.sol\":11160:11166  amount */\n      dup2\n        /* \"contracts/KipuBank.sol\":11160:11171  amount == 0 */\n      sub\n        /* \"contracts/KipuBank.sol\":11156:11195  if (amount == 0) revert InvalidAmount() */\n      tag_400\n      jumpi\n        /* \"contracts/KipuBank.sol\":11180:11195  InvalidAmount() */\n      mload(0x40)\n      0x2c5211c600000000000000000000000000000000000000000000000000000000\n      dup2\n      mstore\n      0x04\n      add\n      mload(0x40)\n      dup1\n      swap2\n      sub\n      swap1\n      revert\n        /* \"contracts/KipuBank.sol\":11156:11195  if (amount == 0) revert InvalidAmount() */\n    tag_400:\n        /* \"contracts/KipuBank.sol\":11211:11227  isTokenSupported */\n      0x08\n        /* \"contracts/KipuBank.sol\":11211:11234  isTokenSupported[token] */\n      0x00\n        /* \"contracts/KipuBank.sol\":11228:11233  token */\n      dup4\n        /* \"contracts/KipuBank.sol\":11211:11234  isTokenSupported[token] */\n      0xffffffffffffffffffffffffffffffffffffffff\n      and\n      0xffffffffffffffffffffffffffffffffffffffff\n      and\n      dup2\n      mstore\n      0x20\n      add\n      swap1\n      dup2\n      mstore\n      0x20\n      add\n      0x00\n      keccak256\n      0x00\n      swap1\n      sload\n      swap1\n      0x0100\n      exp\n      swap1\n      div\n      0xff\n      and\n        /* \"contracts/KipuBank.sol\":11206:11262  if (!isTokenSupported[token]) revert TokenNotSupported() */\n      tag_401\n      jumpi\n        /* \"contracts/KipuBank.sol\":11243:11262  TokenNotSupported() */\n      mload(0x40)\n      0x3dd1b30500000000000000000000000000000000000000000000000000000000\n      dup2\n      mstore\n      0x04\n      add\n      mload(0x40)\n      dup1\n      swap2\n      sub\n      swap1\n      revert\n        /* \"contracts/KipuBank.sol\":11206:11262  if (!isTokenSupported[token]) revert TokenNotSupported() */\n    tag_401:\n        /* \"contracts/KipuBank.sol\":11305:11311  amount */\n      dup1\n        /* \"contracts/KipuBank.sol\":11277:11283  vaults */\n      0x07\n        /* \"contracts/KipuBank.sol\":11277:11295  vaults[msg.sender] */\n      0x00\n        /* \"contracts/KipuBank.sol\":11284:11294  msg.sender */\n      caller\n        /* \"contracts/KipuBank.sol\":11277:11295  vaults[msg.sender] */\n      0xffffffffffffffffffffffffffffffffffffffff\n      and\n      0xffffffffffffffffffffffffffffffffffffffff\n      and\n      dup2\n      mstore\n      0x20\n      add\n      swap1\n      dup2\n      mstore\n      0x20\n      add\n      0x00\n      keccak256\n        /* \"contracts/KipuBank.sol\":11277:11302  vaults[msg.sender][token] */\n      0x00\n        /* \"contracts/KipuBank.sol\":11296:11301  token */\n      dup5\n        /* \"contracts/KipuBank.sol\":11277:11302  vaults[msg.sender][token] */\n      0xffffffffffffffffffffffffffffffffffffffff\n      and\n      0xffffffffffffffffffffffffffffffffffffffff\n      and\n      dup2\n      mstore\n      0x20\n      add\n      swap1\n      dup2\n      mstore\n      0x20\n      add\n      0x00\n      keccak256\n      sload\n        /* \"contracts/KipuBank.sol\":11277:11311  vaults[msg.sender][token] < amount */\n      lt\n        /* \"contracts/KipuBank.sol\":11273:11341  if (vaults[msg.sender][token] < amount) revert InsufficientBalance() */\n      iszero\n      tag_402\n      jumpi\n        /* \"contracts/KipuBank.sol\":11320:11341  InsufficientBalance() */\n      mload(0x40)\n      0xf4d678b800000000000000000000000000000000000000000000000000000000\n      dup2\n      mstore\n      0x04\n      add\n      mload(0x40)\n      dup1\n      swap2\n      sub\n      swap1\n      revert\n        /* \"contracts/KipuBank.sol\":11273:11341  if (vaults[msg.sender][token] < amount) revert InsufficientBalance() */\n    tag_402:\n        /* \"contracts/KipuBank.sol\":11405:11422  uint256 amountUsd */\n      0x00\n        /* \"contracts/KipuBank.sol\":11425:11453  _convertToUsd(token, amount) */\n      tag_403\n        /* \"contracts/KipuBank.sol\":11439:11444  token */\n      dup4\n        /* \"contracts/KipuBank.sol\":11446:11452  amount */\n      dup4\n        /* \"contracts/KipuBank.sol\":11425:11438  _convertToUsd */\n      tag_338\n        /* \"contracts/KipuBank.sol\":11425:11453  _convertToUsd(token, amount) */\n      jump\t// in\n    tag_403:\n        /* \"contracts/KipuBank.sol\":11405:11453  uint256 amountUsd = _convertToUsd(token, amount) */\n      swap1\n      pop\n        /* \"contracts/KipuBank.sol\":11480:11498  withdrawalLimitUsd */\n      immutable(\"0x0ad5ed9120aa8a04681507dedba04ffff4b870152c81d035df19946bb0353897\")\n        /* \"contracts/KipuBank.sol\":11468:11477  amountUsd */\n      dup2\n        /* \"contracts/KipuBank.sol\":11468:11498  amountUsd > withdrawalLimitUsd */\n      gt\n        /* \"contracts/KipuBank.sol\":11464:11532  if (amountUsd > withdrawalLimitUsd) revert WithdrawalLimitExceeded() */\n      iszero\n      tag_404\n      jumpi\n        /* \"contracts/KipuBank.sol\":11507:11532  WithdrawalLimitExceeded() */\n      mload(0x40)\n      0x4e6a369600000000000000000000000000000000000000000000000000000000\n      dup2\n      mstore\n      0x04\n      add\n      mload(0x40)\n      dup1\n      swap2\n      sub\n      swap1\n      revert\n        /* \"contracts/KipuBank.sol\":11464:11532  if (amountUsd > withdrawalLimitUsd) revert WithdrawalLimitExceeded() */\n    tag_404:\n        /* \"contracts/KipuBank.sol\":11604:11610  amount */\n      dup2\n        /* \"contracts/KipuBank.sol\":11575:11581  vaults */\n      0x07\n        /* \"contracts/KipuBank.sol\":11575:11593  vaults[msg.sender] */\n      0x00\n        /* \"contracts/KipuBank.sol\":11582:11592  msg.sender */\n      caller\n        /* \"contracts/KipuBank.sol\":11575:11593  vaults[msg.sender] */\n      0xffffffffffffffffffffffffffffffffffffffff\n      and\n      0xffffffffffffffffffffffffffffffffffffffff\n      and\n      dup2\n      mstore\n      0x20\n      add\n      swap1\n      dup2\n      mstore\n      0x20\n      add\n      0x00\n      keccak256\n        /* \"contracts/KipuBank.sol\":11575:11600  vaults[msg.sender][token] */\n      0x00\n        /* \"contracts/KipuBank.sol\":11594:11599  token */\n      dup6\n        /* \"contracts/KipuBank.sol\":11575:11600  vaults[msg.sender][token] */\n      0xffffffffffffffffffffffffffffffffffffffff\n      and\n      0xffffffffffffffffffffffffffffffffffffffff\n      and\n      dup2\n      mstore\n      0x20\n      add\n      swap1\n      dup2\n      mstore\n      0x20\n      add\n      0x00\n      keccak256\n      0x00\n        /* \"contracts/KipuBank.sol\":11575:11610  vaults[msg.sender][token] -= amount */\n      dup3\n      dup3\n      sload\n      tag_405\n      swap2\n      swap1\n      tag_325\n      jump\t// in\n    tag_405:\n      swap3\n      pop\n      pop\n      dup2\n      swap1\n      sstore\n      pop\n        /* \"contracts/KipuBank.sol\":11641:11650  amountUsd */\n      dup1\n        /* \"contracts/KipuBank.sol\":11621:11637  totalDepositsUsd */\n      0x03\n      0x00\n        /* \"contracts/KipuBank.sol\":11621:11650  totalDepositsUsd -= amountUsd */\n      dup3\n      dup3\n      sload\n      tag_406\n      swap2\n      swap1\n      tag_325\n      jump\t// in\n    tag_406:\n      swap3\n      pop\n      pop\n      dup2\n      swap1\n      sstore\n      pop\n        /* \"contracts/KipuBank.sol\":11661:11676  withdrawalCount */\n      0x05\n      0x00\n        /* \"contracts/KipuBank.sol\":11661:11678  withdrawalCount++ */\n      dup2\n      sload\n      dup1\n      swap3\n      swap2\n      swap1\n      tag_407\n      swap1\n      tag_408\n      jump\t// in\n    tag_407:\n      swap2\n      swap1\n      pop\n      sstore\n      pop\n        /* \"contracts/KipuBank.sol\":1918:1919  0 */\n      0x00\n        /* \"contracts/KipuBank.sol\":11725:11746  token == NATIVE_TOKEN */\n      0xffffffffffffffffffffffffffffffffffffffff\n      and\n        /* \"contracts/KipuBank.sol\":11725:11730  token */\n      dup4\n        /* \"contracts/KipuBank.sol\":11725:11746  token == NATIVE_TOKEN */\n      0xffffffffffffffffffffffffffffffffffffffff\n      and\n      sub\n        /* \"contracts/KipuBank.sol\":11721:11885  if (token == NATIVE_TOKEN) {... */\n      tag_409\n      jumpi\n        /* \"contracts/KipuBank.sol\":11763:11794  _sendNative(msg.sender, amount) */\n      tag_410\n        /* \"contracts/KipuBank.sol\":11775:11785  msg.sender */\n      caller\n        /* \"contracts/KipuBank.sol\":11787:11793  amount */\n      dup4\n        /* \"contracts/KipuBank.sol\":11763:11774  _sendNative */\n      tag_411\n        /* \"contracts/KipuBank.sol\":11763:11794  _sendNative(msg.sender, amount) */\n      jump\t// in\n    tag_410:\n        /* \"contracts/KipuBank.sol\":11721:11885  if (token == NATIVE_TOKEN) {... */\n      jump(tag_412)\n    tag_409:\n        /* \"contracts/KipuBank.sol\":11827:11873  IERC20(token).safeTransfer(msg.sender, amount) */\n      tag_413\n        /* \"contracts/KipuBank.sol\":11854:11864  msg.sender */\n      caller\n        /* \"contracts/KipuBank.sol\":11866:11872  amount */\n      dup4\n        /* \"contracts/KipuBank.sol\":11834:11839  token */\n      dup6\n        /* \"contracts/KipuBank.sol\":11827:11853  IERC20(token).safeTransfer */\n      0xffffffffffffffffffffffffffffffffffffffff\n      and\n      tag_414\n      swap1\n        /* \"contracts/KipuBank.sol\":11827:11873  IERC20(token).safeTransfer(msg.sender, amount) */\n      swap3\n      swap2\n      swap1\n      0xffffffff\n      and\n      jump\t// in\n    tag_413:\n        /* \"contracts/KipuBank.sol\":11721:11885  if (token == NATIVE_TOKEN) {... */\n    tag_412:\n        /* \"contracts/KipuBank.sol\":11925:11930  token */\n      dup3\n        /* \"contracts/KipuBank.sol\":11902:11950  Withdrawal(msg.sender, token, amount, amountUsd) */\n      0xffffffffffffffffffffffffffffffffffffffff\n      and\n        /* \"contracts/KipuBank.sol\":11913:11923  msg.sender */\n      caller\n        /* \"contracts/KipuBank.sol\":11902:11950  Withdrawal(msg.sender, token, amount, amountUsd) */\n      0xffffffffffffffffffffffffffffffffffffffff\n      and\n      0xc2b4a290c20fb28939d29f102514fbffd2b73c059ffba8b78250c94161d5fcc6\n        /* \"contracts/KipuBank.sol\":11932:11938  amount */\n      dup5\n        /* \"contracts/KipuBank.sol\":11940:11949  amountUsd */\n      dup5\n        /* \"contracts/KipuBank.sol\":11902:11950  Withdrawal(msg.sender, token, amount, amountUsd) */\n      mload(0x40)\n      tag_415\n      swap3\n      swap2\n      swap1\n      tag_416\n      jump\t// in\n    tag_415:\n      mload(0x40)\n      dup1\n      swap2\n      sub\n      swap1\n      log3\n        /* \"contracts/KipuBank.sol\":11145:11958  {... */\n      pop\n        /* \"@openzeppelin/contracts/utils/ReentrancyGuard.sol\":2542:2562  _nonReentrantAfter() */\n      tag_417\n        /* \"@openzeppelin/contracts/utils/ReentrancyGuard.sol\":2542:2560  _nonReentrantAfter */\n      tag_293\n        /* \"@openzeppelin/contracts/utils/ReentrancyGuard.sol\":2542:2562  _nonReentrantAfter() */\n      jump\t// in\n    tag_417:\n        /* \"contracts/KipuBank.sol\":11035:11958  function withdraw(... */\n      pop\n      pop\n      jump\t// out\n        /* \"contracts/KipuBank.sol\":1687:1753  bytes32 public constant OPERATOR_ROLE = keccak256(\"OPERATOR_ROLE\") */\n    tag_242:\n        /* \"contracts/KipuBank.sol\":1727:1753  keccak256(\"OPERATOR_ROLE\") */\n      0x97667070c54ef182b0f5858b034beac1b6f3089aa2d3188bb1e8929f4fa9b929\n        /* \"contracts/KipuBank.sol\":1687:1753  bytes32 public constant OPERATOR_ROLE = keccak256(\"OPERATOR_ROLE\") */\n      dup2\n      jump\t// out\n        /* \"contracts/KipuBank.sol\":12159:13492  function withdrawAll(address token) external whenNotPaused nonReentrant {... */\n    tag_247:\n        /* \"@openzeppelin/contracts/utils/Pausable.sol\":1350:1369  _requireNotPaused() */\n      tag_419\n        /* \"@openzeppelin/contracts/utils/Pausable.sol\":1350:1367  _requireNotPaused */\n      tag_280\n        /* \"@openzeppelin/contracts/utils/Pausable.sol\":1350:1369  _requireNotPaused() */\n      jump\t// in\n    tag_419:\n        /* \"@openzeppelin/contracts/utils/ReentrancyGuard.sol\":2500:2521  _nonReentrantBefore() */\n      tag_421\n        /* \"@openzeppelin/contracts/utils/ReentrancyGuard.sol\":2500:2519  _nonReentrantBefore */\n      tag_283\n        /* \"@openzeppelin/contracts/utils/ReentrancyGuard.sol\":2500:2521  _nonReentrantBefore() */\n      jump\t// in\n    tag_421:\n        /* \"contracts/KipuBank.sol\":12247:12263  isTokenSupported */\n      0x08\n        /* \"contracts/KipuBank.sol\":12247:12270  isTokenSupported[token] */\n      0x00\n        /* \"contracts/KipuBank.sol\":12264:12269  token */\n      dup3\n        /* \"contracts/KipuBank.sol\":12247:12270  isTokenSupported[token] */\n      0xffffffffffffffffffffffffffffffffffffffff\n      and\n      0xffffffffffffffffffffffffffffffffffffffff\n      and\n      dup2\n      mstore\n      0x20\n      add\n      swap1\n      dup2\n      mstore\n      0x20\n      add\n      0x00\n      keccak256\n      0x00\n      swap1\n      sload\n      swap1\n      0x0100\n      exp\n      swap1\n      div\n      0xff\n      and\n        /* \"contracts/KipuBank.sol\":12242:12298  if (!isTokenSupported[token]) revert TokenNotSupported() */\n      tag_423\n      jumpi\n        /* \"contracts/KipuBank.sol\":12279:12298  TokenNotSupported() */\n      mload(0x40)\n      0x3dd1b30500000000000000000000000000000000000000000000000000000000\n      dup2\n      mstore\n      0x04\n      add\n      mload(0x40)\n      dup1\n      swap2\n      sub\n      swap1\n      revert\n        /* \"contracts/KipuBank.sol\":12242:12298  if (!isTokenSupported[token]) revert TokenNotSupported() */\n    tag_423:\n        /* \"contracts/KipuBank.sol\":12319:12338  uint256 userBalance */\n      0x00\n        /* \"contracts/KipuBank.sol\":12341:12347  vaults */\n      0x07\n        /* \"contracts/KipuBank.sol\":12341:12359  vaults[msg.sender] */\n      0x00\n        /* \"contracts/KipuBank.sol\":12348:12358  msg.sender */\n      caller\n        /* \"contracts/KipuBank.sol\":12341:12359  vaults[msg.sender] */\n      0xffffffffffffffffffffffffffffffffffffffff\n      and\n      0xffffffffffffffffffffffffffffffffffffffff\n      and\n      dup2\n      mstore\n      0x20\n      add\n      swap1\n      dup2\n      mstore\n      0x20\n      add\n      0x00\n      keccak256\n        /* \"contracts/KipuBank.sol\":12341:12366  vaults[msg.sender][token] */\n      0x00\n        /* \"contracts/KipuBank.sol\":12360:12365  token */\n      dup4\n        /* \"contracts/KipuBank.sol\":12341:12366  vaults[msg.sender][token] */\n      0xffffffffffffffffffffffffffffffffffffffff\n      and\n      0xffffffffffffffffffffffffffffffffffffffff\n      and\n      dup2\n      mstore\n      0x20\n      add\n      swap1\n      dup2\n      mstore\n      0x20\n      add\n      0x00\n      keccak256\n      sload\n        /* \"contracts/KipuBank.sol\":12319:12366  uint256 userBalance = vaults[msg.sender][token] */\n      swap1\n      pop\n        /* \"contracts/KipuBank.sol\":12396:12397  0 */\n      0x00\n        /* \"contracts/KipuBank.sol\":12381:12392  userBalance */\n      dup2\n        /* \"contracts/KipuBank.sol\":12381:12397  userBalance == 0 */\n      sub\n        /* \"contracts/KipuBank.sol\":12377:12427  if (userBalance == 0) revert InsufficientBalance() */\n      tag_424\n      jumpi\n        /* \"contracts/KipuBank.sol\":12406:12427  InsufficientBalance() */\n      mload(0x40)\n      0xf4d678b800000000000000000000000000000000000000000000000000000000\n      dup2\n      mstore\n      0x04\n      add\n      mload(0x40)\n      dup1\n      swap2\n      sub\n      swap1\n      revert\n        /* \"contracts/KipuBank.sol\":12377:12427  if (userBalance == 0) revert InsufficientBalance() */\n    tag_424:\n        /* \"contracts/KipuBank.sol\":12476:12494  uint256 balanceUsd */\n      0x00\n        /* \"contracts/KipuBank.sol\":12497:12530  _convertToUsd(token, userBalance) */\n      tag_425\n        /* \"contracts/KipuBank.sol\":12511:12516  token */\n      dup4\n        /* \"contracts/KipuBank.sol\":12518:12529  userBalance */\n      dup4\n        /* \"contracts/KipuBank.sol\":12497:12510  _convertToUsd */\n      tag_338\n        /* \"contracts/KipuBank.sol\":12497:12530  _convertToUsd(token, userBalance) */\n      jump\t// in\n    tag_425:\n        /* \"contracts/KipuBank.sol\":12476:12530  uint256 balanceUsd = _convertToUsd(token, userBalance) */\n      swap1\n      pop\n        /* \"contracts/KipuBank.sol\":12596:12620  uint256 amountToWithdraw */\n      0x00\n        /* \"contracts/KipuBank.sol\":12631:12648  uint256 amountUsd */\n      0x00\n        /* \"contracts/KipuBank.sol\":12687:12705  withdrawalLimitUsd */\n      immutable(\"0x0ad5ed9120aa8a04681507dedba04ffff4b870152c81d035df19946bb0353897\")\n        /* \"contracts/KipuBank.sol\":12673:12683  balanceUsd */\n      dup4\n        /* \"contracts/KipuBank.sol\":12673:12705  balanceUsd <= withdrawalLimitUsd */\n      gt\n        /* \"contracts/KipuBank.sol\":12669:13027  if (balanceUsd <= withdrawalLimitUsd) {... */\n      tag_426\n      jumpi\n        /* \"contracts/KipuBank.sol\":12776:12787  userBalance */\n      dup4\n        /* \"contracts/KipuBank.sol\":12757:12787  amountToWithdraw = userBalance */\n      swap2\n      pop\n        /* \"contracts/KipuBank.sol\":12814:12824  balanceUsd */\n      dup3\n        /* \"contracts/KipuBank.sol\":12802:12824  amountUsd = balanceUsd */\n      swap1\n      pop\n        /* \"contracts/KipuBank.sol\":12669:13027  if (balanceUsd <= withdrawalLimitUsd) {... */\n      jump(tag_427)\n    tag_426:\n        /* \"contracts/KipuBank.sol\":12928:12970  _convertFromUsd(token, withdrawalLimitUsd) */\n      tag_428\n        /* \"contracts/KipuBank.sol\":12944:12949  token */\n      dup6\n        /* \"contracts/KipuBank.sol\":12951:12969  withdrawalLimitUsd */\n      immutable(\"0x0ad5ed9120aa8a04681507dedba04ffff4b870152c81d035df19946bb0353897\")\n        /* \"contracts/KipuBank.sol\":12928:12943  _convertFromUsd */\n      tag_309\n        /* \"contracts/KipuBank.sol\":12928:12970  _convertFromUsd(token, withdrawalLimitUsd) */\n      jump\t// in\n    tag_428:\n        /* \"contracts/KipuBank.sol\":12909:12970  amountToWithdraw = _convertFromUsd(token, withdrawalLimitUsd) */\n      swap2\n      pop\n        /* \"contracts/KipuBank.sol\":12997:13015  withdrawalLimitUsd */\n      immutable(\"0x0ad5ed9120aa8a04681507dedba04ffff4b870152c81d035df19946bb0353897\")\n        /* \"contracts/KipuBank.sol\":12985:13015  amountUsd = withdrawalLimitUsd */\n      swap1\n      pop\n        /* \"contracts/KipuBank.sol\":12669:13027  if (balanceUsd <= withdrawalLimitUsd) {... */\n    tag_427:\n        /* \"contracts/KipuBank.sol\":13098:13114  amountToWithdraw */\n      dup2\n        /* \"contracts/KipuBank.sol\":13069:13075  vaults */\n      0x07\n        /* \"contracts/KipuBank.sol\":13069:13087  vaults[msg.sender] */\n      0x00\n        /* \"contracts/KipuBank.sol\":13076:13086  msg.sender */\n      caller\n        /* \"contracts/KipuBank.sol\":13069:13087  vaults[msg.sender] */\n      0xffffffffffffffffffffffffffffffffffffffff\n      and\n      0xffffffffffffffffffffffffffffffffffffffff\n      and\n      dup2\n      mstore\n      0x20\n      add\n      swap1\n      dup2\n      mstore\n      0x20\n      add\n      0x00\n      keccak256\n        /* \"contracts/KipuBank.sol\":13069:13094  vaults[msg.sender][token] */\n      0x00\n        /* \"contracts/KipuBank.sol\":13088:13093  token */\n      dup8\n        /* \"contracts/KipuBank.sol\":13069:13094  vaults[msg.sender][token] */\n      0xffffffffffffffffffffffffffffffffffffffff\n      and\n      0xffffffffffffffffffffffffffffffffffffffff\n      and\n      dup2\n      mstore\n      0x20\n      add\n      swap1\n      dup2\n      mstore\n      0x20\n      add\n      0x00\n      keccak256\n      0x00\n        /* \"contracts/KipuBank.sol\":13069:13114  vaults[msg.sender][token] -= amountToWithdraw */\n      dup3\n      dup3\n      sload\n      tag_429\n      swap2\n      swap1\n      tag_325\n      jump\t// in\n    tag_429:\n      swap3\n      pop\n      pop\n      dup2\n      swap1\n      sstore\n      pop\n        /* \"contracts/KipuBank.sol\":13145:13154  amountUsd */\n      dup1\n        /* \"contracts/KipuBank.sol\":13125:13141  totalDepositsUsd */\n      0x03\n      0x00\n        /* \"contracts/KipuBank.sol\":13125:13154  totalDepositsUsd -= amountUsd */\n      dup3\n      dup3\n      sload\n      tag_430\n      swap2\n      swap1\n      tag_325\n      jump\t// in\n    tag_430:\n      swap3\n      pop\n      pop\n      dup2\n      swap1\n      sstore\n      pop\n        /* \"contracts/KipuBank.sol\":13165:13180  withdrawalCount */\n      0x05\n      0x00\n        /* \"contracts/KipuBank.sol\":13165:13182  withdrawalCount++ */\n      dup2\n      sload\n      dup1\n      swap3\n      swap2\n      swap1\n      tag_431\n      swap1\n      tag_408\n      jump\t// in\n    tag_431:\n      swap2\n      swap1\n      pop\n      sstore\n      pop\n        /* \"contracts/KipuBank.sol\":1918:1919  0 */\n      0x00\n        /* \"contracts/KipuBank.sol\":13229:13250  token == NATIVE_TOKEN */\n      0xffffffffffffffffffffffffffffffffffffffff\n      and\n        /* \"contracts/KipuBank.sol\":13229:13234  token */\n      dup6\n        /* \"contracts/KipuBank.sol\":13229:13250  token == NATIVE_TOKEN */\n      0xffffffffffffffffffffffffffffffffffffffff\n      and\n      sub\n        /* \"contracts/KipuBank.sol\":13225:13409  if (token == NATIVE_TOKEN) {... */\n      tag_432\n      jumpi\n        /* \"contracts/KipuBank.sol\":13267:13308  _sendNative(msg.sender, amountToWithdraw) */\n      tag_433\n        /* \"contracts/KipuBank.sol\":13279:13289  msg.sender */\n      caller\n        /* \"contracts/KipuBank.sol\":13291:13307  amountToWithdraw */\n      dup4\n        /* \"contracts/KipuBank.sol\":13267:13278  _sendNative */\n      tag_411\n        /* \"contracts/KipuBank.sol\":13267:13308  _sendNative(msg.sender, amountToWithdraw) */\n      jump\t// in\n    tag_433:\n        /* \"contracts/KipuBank.sol\":13225:13409  if (token == NATIVE_TOKEN) {... */\n      jump(tag_434)\n    tag_432:\n        /* \"contracts/KipuBank.sol\":13341:13397  IERC20(token).safeTransfer(msg.sender, amountToWithdraw) */\n      tag_435\n        /* \"contracts/KipuBank.sol\":13368:13378  msg.sender */\n      caller\n        /* \"contracts/KipuBank.sol\":13380:13396  amountToWithdraw */\n      dup4\n        /* \"contracts/KipuBank.sol\":13348:13353  token */\n      dup8\n        /* \"contracts/KipuBank.sol\":13341:13367  IERC20(token).safeTransfer */\n      0xffffffffffffffffffffffffffffffffffffffff\n      and\n      tag_414\n      swap1\n        /* \"contracts/KipuBank.sol\":13341:13397  IERC20(token).safeTransfer(msg.sender, amountToWithdraw) */\n      swap3\n      swap2\n      swap1\n      0xffffffff\n      and\n      jump\t// in\n    tag_435:\n        /* \"contracts/KipuBank.sol\":13225:13409  if (token == NATIVE_TOKEN) {... */\n    tag_434:\n        /* \"contracts/KipuBank.sol\":13449:13454  token */\n      dup5\n        /* \"contracts/KipuBank.sol\":13426:13484  Withdrawal(msg.sender, token, amountToWithdraw, amountUsd) */\n      0xffffffffffffffffffffffffffffffffffffffff\n      and\n        /* \"contracts/KipuBank.sol\":13437:13447  msg.sender */\n      caller\n        /* \"contracts/KipuBank.sol\":13426:13484  Withdrawal(msg.sender, token, amountToWithdraw, amountUsd) */\n      0xffffffffffffffffffffffffffffffffffffffff\n      and\n      0xc2b4a290c20fb28939d29f102514fbffd2b73c059ffba8b78250c94161d5fcc6\n        /* \"contracts/KipuBank.sol\":13456:13472  amountToWithdraw */\n      dup5\n        /* \"contracts/KipuBank.sol\":13474:13483  amountUsd */\n      dup5\n        /* \"contracts/KipuBank.sol\":13426:13484  Withdrawal(msg.sender, token, amountToWithdraw, amountUsd) */\n      mload(0x40)\n      tag_436\n      swap3\n      swap2\n      swap1\n      tag_416\n      jump\t// in\n    tag_436:\n      mload(0x40)\n      dup1\n      swap2\n      sub\n      swap1\n      log3\n        /* \"contracts/KipuBank.sol\":12231:13492  {... */\n      pop\n      pop\n      pop\n      pop\n        /* \"@openzeppelin/contracts/utils/ReentrancyGuard.sol\":2542:2562  _nonReentrantAfter() */\n      tag_437\n        /* \"@openzeppelin/contracts/utils/ReentrancyGuard.sol\":2542:2560  _nonReentrantAfter */\n      tag_293\n        /* \"@openzeppelin/contracts/utils/ReentrancyGuard.sol\":2542:2562  _nonReentrantAfter() */\n      jump\t// in\n    tag_437:\n        /* \"contracts/KipuBank.sol\":12159:13492  function withdrawAll(address token) external whenNotPaused nonReentrant {... */\n      pop\n      jump\t// out\n        /* \"contracts/KipuBank.sol\":18171:18593  function getMaxWithdrawal(... */\n    tag_251:\n        /* \"contracts/KipuBank.sol\":18274:18281  uint256 */\n      0x00\n        /* \"contracts/KipuBank.sol\":18294:18313  uint256 userBalance */\n      0x00\n        /* \"contracts/KipuBank.sol\":18316:18322  vaults */\n      0x07\n        /* \"contracts/KipuBank.sol\":18316:18328  vaults[user] */\n      0x00\n        /* \"contracts/KipuBank.sol\":18323:18327  user */\n      dup6\n        /* \"contracts/KipuBank.sol\":18316:18328  vaults[user] */\n      0xffffffffffffffffffffffffffffffffffffffff\n      and\n      0xffffffffffffffffffffffffffffffffffffffff\n      and\n      dup2\n      mstore\n      0x20\n      add\n      swap1\n      dup2\n      mstore\n      0x20\n      add\n      0x00\n      keccak256\n        /* \"contracts/KipuBank.sol\":18316:18335  vaults[user][token] */\n      0x00\n        /* \"contracts/KipuBank.sol\":18329:18334  token */\n      dup5\n        /* \"contracts/KipuBank.sol\":18316:18335  vaults[user][token] */\n      0xffffffffffffffffffffffffffffffffffffffff\n      and\n      0xffffffffffffffffffffffffffffffffffffffff\n      and\n      dup2\n      mstore\n      0x20\n      add\n      swap1\n      dup2\n      mstore\n      0x20\n      add\n      0x00\n      keccak256\n      sload\n        /* \"contracts/KipuBank.sol\":18294:18335  uint256 userBalance = vaults[user][token] */\n      swap1\n      pop\n        /* \"contracts/KipuBank.sol\":18346:18364  uint256 balanceUsd */\n      0x00\n        /* \"contracts/KipuBank.sol\":18367:18400  _convertToUsd(token, userBalance) */\n      tag_439\n        /* \"contracts/KipuBank.sol\":18381:18386  token */\n      dup5\n        /* \"contracts/KipuBank.sol\":18388:18399  userBalance */\n      dup4\n        /* \"contracts/KipuBank.sol\":18367:18380  _convertToUsd */\n      tag_338\n        /* \"contracts/KipuBank.sol\":18367:18400  _convertToUsd(token, userBalance) */\n      jump\t// in\n    tag_439:\n        /* \"contracts/KipuBank.sol\":18346:18400  uint256 balanceUsd = _convertToUsd(token, userBalance) */\n      swap1\n      pop\n        /* \"contracts/KipuBank.sol\":18439:18457  withdrawalLimitUsd */\n      immutable(\"0x0ad5ed9120aa8a04681507dedba04ffff4b870152c81d035df19946bb0353897\")\n        /* \"contracts/KipuBank.sol\":18425:18435  balanceUsd */\n      dup2\n        /* \"contracts/KipuBank.sol\":18425:18457  balanceUsd <= withdrawalLimitUsd */\n      gt\n        /* \"contracts/KipuBank.sol\":18421:18586  if (balanceUsd <= withdrawalLimitUsd) {... */\n      tag_440\n      jumpi\n        /* \"contracts/KipuBank.sol\":18481:18492  userBalance */\n      dup2\n        /* \"contracts/KipuBank.sol\":18474:18492  return userBalance */\n      swap3\n      pop\n      pop\n      pop\n      jump(tag_438)\n        /* \"contracts/KipuBank.sol\":18421:18586  if (balanceUsd <= withdrawalLimitUsd) {... */\n    tag_440:\n        /* \"contracts/KipuBank.sol\":18532:18574  _convertFromUsd(token, withdrawalLimitUsd) */\n      tag_442\n        /* \"contracts/KipuBank.sol\":18548:18553  token */\n      dup5\n        /* \"contracts/KipuBank.sol\":18555:18573  withdrawalLimitUsd */\n      immutable(\"0x0ad5ed9120aa8a04681507dedba04ffff4b870152c81d035df19946bb0353897\")\n        /* \"contracts/KipuBank.sol\":18532:18547  _convertFromUsd */\n      tag_309\n        /* \"contracts/KipuBank.sol\":18532:18574  _convertFromUsd(token, withdrawalLimitUsd) */\n      jump\t// in\n    tag_442:\n        /* \"contracts/KipuBank.sol\":18525:18574  return _convertFromUsd(token, withdrawalLimitUsd) */\n      swap3\n      pop\n      pop\n      pop\n        /* \"contracts/KipuBank.sol\":18171:18593  function getMaxWithdrawal(... */\n    tag_438:\n      swap3\n      swap2\n      pop\n      pop\n      jump\t// out\n        /* \"@openzeppelin/contracts/access/AccessControl.sol\":2541:2743  function supportsInterface(bytes4 interfaceId) public view virtual override returns (bool) {... */\n    tag_255:\n        /* \"@openzeppelin/contracts/access/AccessControl.sol\":2626:2630  bool */\n      0x00\n        /* \"@openzeppelin/contracts/access/AccessControl.sol\":2664:2696  type(IAccessControl).interfaceId */\n      0x7965db0b00000000000000000000000000000000000000000000000000000000\n        /* \"@openzeppelin/contracts/access/AccessControl.sol\":2649:2696  interfaceId == type(IAccessControl).interfaceId */\n      not(0xffffffffffffffffffffffffffffffffffffffffffffffffffffffff)\n      and\n        /* \"@openzeppelin/contracts/access/AccessControl.sol\":2649:2660  interfaceId */\n      dup3\n        /* \"@openzeppelin/contracts/access/AccessControl.sol\":2649:2696  interfaceId == type(IAccessControl).interfaceId */\n      not(0xffffffffffffffffffffffffffffffffffffffffffffffffffffffff)\n      and\n      eq\n        /* \"@openzeppelin/contracts/access/AccessControl.sol\":2649:2736  interfaceId == type(IAccessControl).interfaceId || super.supportsInterface(interfaceId) */\n      dup1\n      tag_444\n      jumpi\n      pop\n        /* \"@openzeppelin/contracts/access/AccessControl.sol\":2700:2736  super.supportsInterface(interfaceId) */\n      tag_445\n        /* \"@openzeppelin/contracts/access/AccessControl.sol\":2724:2735  interfaceId */\n      dup3\n        /* \"@openzeppelin/contracts/access/AccessControl.sol\":2700:2723  super.supportsInterface */\n      tag_446\n        /* \"@openzeppelin/contracts/access/AccessControl.sol\":2700:2736  super.supportsInterface(interfaceId) */\n      jump\t// in\n    tag_445:\n        /* \"@openzeppelin/contracts/access/AccessControl.sol\":2649:2736  interfaceId == type(IAccessControl).interfaceId || super.supportsInterface(interfaceId) */\n    tag_444:\n        /* \"@openzeppelin/contracts/access/AccessControl.sol\":2642:2736  return interfaceId == type(IAccessControl).interfaceId || super.supportsInterface(interfaceId) */\n      swap1\n      pop\n        /* \"@openzeppelin/contracts/access/AccessControl.sol\":2541:2743  function supportsInterface(bytes4 interfaceId) public view virtual override returns (bool) {... */\n      swap2\n      swap1\n      pop\n      jump\t// out\n        /* \"@openzeppelin/contracts/access/AccessControl.sol\":3175:3278  function _checkRole(bytes32 role) internal view virtual {... */\n    tag_263:\n        /* \"@openzeppelin/contracts/access/AccessControl.sol\":3241:3271  _checkRole(role, _msgSender()) */\n      tag_448\n        /* \"@openzeppelin/contracts/access/AccessControl.sol\":3252:3256  role */\n      dup2\n        /* \"@openzeppelin/contracts/access/AccessControl.sol\":3258:3270  _msgSender() */\n      tag_449\n        /* \"@openzeppelin/contracts/access/AccessControl.sol\":3258:3268  _msgSender */\n      tag_269\n        /* \"@openzeppelin/contracts/access/AccessControl.sol\":3258:3270  _msgSender() */\n      jump\t// in\n    tag_449:\n        /* \"@openzeppelin/contracts/access/AccessControl.sol\":3241:3251  _checkRole */\n      tag_450\n        /* \"@openzeppelin/contracts/access/AccessControl.sol\":3241:3271  _checkRole(role, _msgSender()) */\n      jump\t// in\n    tag_448:\n        /* \"@openzeppelin/contracts/access/AccessControl.sol\":3175:3278  function _checkRole(bytes32 role) internal view virtual {... */\n      pop\n      jump\t// out\n        /* \"@openzeppelin/contracts/access/AccessControl.sol\":6155:6471  function _grantRole(bytes32 role, address account) internal virtual returns (bool) {... */\n    tag_266:\n        /* \"@openzeppelin/contracts/access/AccessControl.sol\":6232:6236  bool */\n      0x00\n        /* \"@openzeppelin/contracts/access/AccessControl.sol\":6253:6275  hasRole(role, account) */\n      tag_452\n        /* \"@openzeppelin/contracts/access/AccessControl.sol\":6261:6265  role */\n      dup4\n        /* \"@openzeppelin/contracts/access/AccessControl.sol\":6267:6274  account */\n      dup4\n        /* \"@openzeppelin/contracts/access/AccessControl.sol\":6253:6260  hasRole */\n      tag_174\n        /* \"@openzeppelin/contracts/access/AccessControl.sol\":6253:6275  hasRole(role, account) */\n      jump\t// in\n    tag_452:\n        /* \"@openzeppelin/contracts/access/AccessControl.sol\":6248:6465  if (!hasRole(role, account)) {... */\n      tag_453\n      jumpi\n        /* \"@openzeppelin/contracts/access/AccessControl.sol\":6323:6327  true */\n      0x01\n        /* \"@openzeppelin/contracts/access/AccessControl.sol\":6291:6297  _roles */\n      0x00\n        /* \"@openzeppelin/contracts/access/AccessControl.sol\":6291:6303  _roles[role] */\n      0x00\n        /* \"@openzeppelin/contracts/access/AccessControl.sol\":6298:6302  role */\n      dup6\n        /* \"@openzeppelin/contracts/access/AccessControl.sol\":6291:6303  _roles[role] */\n      dup2\n      mstore\n      0x20\n      add\n      swap1\n      dup2\n      mstore\n      0x20\n      add\n      0x00\n      keccak256\n        /* \"@openzeppelin/contracts/access/AccessControl.sol\":6291:6311  _roles[role].hasRole */\n      0x00\n      add\n        /* \"@openzeppelin/contracts/access/AccessControl.sol\":6291:6320  _roles[role].hasRole[account] */\n      0x00\n        /* \"@openzeppelin/contracts/access/AccessControl.sol\":6312:6319  account */\n      dup5\n        /* \"@openzeppelin/contracts/access/AccessControl.sol\":6291:6320  _roles[role].hasRole[account] */\n      0xffffffffffffffffffffffffffffffffffffffff\n      and\n      0xffffffffffffffffffffffffffffffffffffffff\n      and\n      dup2\n      mstore\n      0x20\n      add\n      swap1\n      dup2\n      mstore\n      0x20\n      add\n      0x00\n      keccak256\n      0x00\n        /* \"@openzeppelin/contracts/access/AccessControl.sol\":6291:6327  _roles[role].hasRole[account] = true */\n      0x0100\n      exp\n      dup2\n      sload\n      dup2\n      0xff\n      mul\n      not\n      and\n      swap1\n      dup4\n      iszero\n      iszero\n      mul\n      or\n      swap1\n      sstore\n      pop\n        /* \"@openzeppelin/contracts/access/AccessControl.sol\":6373:6385  _msgSender() */\n      tag_454\n        /* \"@openzeppelin/contracts/access/AccessControl.sol\":6373:6383  _msgSender */\n      tag_269\n        /* \"@openzeppelin/contracts/access/AccessControl.sol\":6373:6385  _msgSender() */\n      jump\t// in\n    tag_454:\n        /* \"@openzeppelin/contracts/access/AccessControl.sol\":6346:6386  RoleGranted(role, account, _msgSender()) */\n      0xffffffffffffffffffffffffffffffffffffffff\n      and\n        /* \"@openzeppelin/contracts/access/AccessControl.sol\":6364:6371  account */\n      dup3\n        /* \"@openzeppelin/contracts/access/AccessControl.sol\":6346:6386  RoleGranted(role, account, _msgSender()) */\n      0xffffffffffffffffffffffffffffffffffffffff\n      and\n        /* \"@openzeppelin/contracts/access/AccessControl.sol\":6358:6362  role */\n      dup5\n        /* \"@openzeppelin/contracts/access/AccessControl.sol\":6346:6386  RoleGranted(role, account, _msgSender()) */\n      0x2f8788117e7eff1d82e926ec794901d17c78024a50270940304540a733656f0d\n      mload(0x40)\n      mload(0x40)\n      dup1\n      swap2\n      sub\n      swap1\n      log4\n        /* \"@openzeppelin/contracts/access/AccessControl.sol\":6407:6411  true */\n      0x01\n        /* \"@openzeppelin/contracts/access/AccessControl.sol\":6400:6411  return true */\n      swap1\n      pop\n      jump(tag_451)\n        /* \"@openzeppelin/contracts/access/AccessControl.sol\":6248:6465  if (!hasRole(role, account)) {... */\n    tag_453:\n        /* \"@openzeppelin/contracts/access/AccessControl.sol\":6449:6454  false */\n      0x00\n        /* \"@openzeppelin/contracts/access/AccessControl.sol\":6442:6454  return false */\n      swap1\n      pop\n        /* \"@openzeppelin/contracts/access/AccessControl.sol\":6155:6471  function _grantRole(bytes32 role, address account) internal virtual returns (bool) {... */\n    tag_451:\n      swap3\n      swap2\n      pop\n      pop\n      jump\t// out\n        /* \"@openzeppelin/contracts/utils/Context.sol\":656:752  function _msgSender() internal view virtual returns (address) {... */\n    tag_269:\n        /* \"@openzeppelin/contracts/utils/Context.sol\":709:716  address */\n      0x00\n        /* \"@openzeppelin/contracts/utils/Context.sol\":735:745  msg.sender */\n      caller\n        /* \"@openzeppelin/contracts/utils/Context.sol\":728:745  return msg.sender */\n      swap1\n      pop\n        /* \"@openzeppelin/contracts/utils/Context.sol\":656:752  function _msgSender() internal view virtual returns (address) {... */\n      swap1\n      jump\t// out\n        /* \"@openzeppelin/contracts/access/AccessControl.sol\":6708:7025  function _revokeRole(bytes32 role, address account) internal virtual returns (bool) {... */\n    tag_272:\n        /* \"@openzeppelin/contracts/access/AccessControl.sol\":6786:6790  bool */\n      0x00\n        /* \"@openzeppelin/contracts/access/AccessControl.sol\":6806:6828  hasRole(role, account) */\n      tag_458\n        /* \"@openzeppelin/contracts/access/AccessControl.sol\":6814:6818  role */\n      dup4\n        /* \"@openzeppelin/contracts/access/AccessControl.sol\":6820:6827  account */\n      dup4\n        /* \"@openzeppelin/contracts/access/AccessControl.sol\":6806:6813  hasRole */\n      tag_174\n        /* \"@openzeppelin/contracts/access/AccessControl.sol\":6806:6828  hasRole(role, account) */\n      jump\t// in\n    tag_458:\n        /* \"@openzeppelin/contracts/access/AccessControl.sol\":6802:7019  if (hasRole(role, account)) {... */\n      iszero\n      tag_459\n      jumpi\n        /* \"@openzeppelin/contracts/access/AccessControl.sol\":6876:6881  false */\n      0x00\n        /* \"@openzeppelin/contracts/access/AccessControl.sol\":6844:6850  _roles */\n      0x00\n        /* \"@openzeppelin/contracts/access/AccessControl.sol\":6844:6856  _roles[role] */\n      0x00\n        /* \"@openzeppelin/contracts/access/AccessControl.sol\":6851:6855  role */\n      dup6\n        /* \"@openzeppelin/contracts/access/AccessControl.sol\":6844:6856  _roles[role] */\n      dup2\n      mstore\n      0x20\n      add\n      swap1\n      dup2\n      mstore\n      0x20\n      add\n      0x00\n      keccak256\n        /* \"@openzeppelin/contracts/access/AccessControl.sol\":6844:6864  _roles[role].hasRole */\n      0x00\n      add\n        /* \"@openzeppelin/contracts/access/AccessControl.sol\":6844:6873  _roles[role].hasRole[account] */\n      0x00\n        /* \"@openzeppelin/contracts/access/AccessControl.sol\":6865:6872  account */\n      dup5\n        /* \"@openzeppelin/contracts/access/AccessControl.sol\":6844:6873  _roles[role].hasRole[account] */\n      0xffffffffffffffffffffffffffffffffffffffff\n      and\n      0xffffffffffffffffffffffffffffffffffffffff\n      and\n      dup2\n      mstore\n      0x20\n      add\n      swap1\n      dup2\n      mstore\n      0x20\n      add\n      0x00\n      keccak256\n      0x00\n        /* \"@openzeppelin/contracts/access/AccessControl.sol\":6844:6881  _roles[role].hasRole[account] = false */\n      0x0100\n      exp\n      dup2\n      sload\n      dup2\n      0xff\n      mul\n      not\n      and\n      swap1\n      dup4\n      iszero\n      iszero\n      mul\n      or\n      swap1\n      sstore\n      pop\n        /* \"@openzeppelin/contracts/access/AccessControl.sol\":6927:6939  _msgSender() */\n      tag_460\n        /* \"@openzeppelin/contracts/access/AccessControl.sol\":6927:6937  _msgSender */\n      tag_269\n        /* \"@openzeppelin/contracts/access/AccessControl.sol\":6927:6939  _msgSender() */\n      jump\t// in\n    tag_460:\n        /* \"@openzeppelin/contracts/access/AccessControl.sol\":6900:6940  RoleRevoked(role, account, _msgSender()) */\n      0xffffffffffffffffffffffffffffffffffffffff\n      and\n        /* \"@openzeppelin/contracts/access/AccessControl.sol\":6918:6925  account */\n      dup3\n        /* \"@openzeppelin/contracts/access/AccessControl.sol\":6900:6940  RoleRevoked(role, account, _msgSender()) */\n      0xffffffffffffffffffffffffffffffffffffffff\n      and\n        /* \"@openzeppelin/contracts/access/AccessControl.sol\":6912:6916  role */\n      dup5\n        /* \"@openzeppelin/contracts/access/AccessControl.sol\":6900:6940  RoleRevoked(role, account, _msgSender()) */\n      0xf6391f5c32d9c69d2a47ea670b442974b53935d1edc7fd64eb21e047a839171b\n      mload(0x40)\n      mload(0x40)\n      dup1\n      swap2\n      sub\n      swap1\n      log4\n        /* \"@openzeppelin/contracts/access/AccessControl.sol\":6961:6965  true */\n      0x01\n        /* \"@openzeppelin/contracts/access/AccessControl.sol\":6954:6965  return true */\n      swap1\n      pop\n      jump(tag_457)\n        /* \"@openzeppelin/contracts/access/AccessControl.sol\":6802:7019  if (hasRole(role, account)) {... */\n    tag_459:\n        /* \"@openzeppelin/contracts/access/AccessControl.sol\":7003:7008  false */\n      0x00\n        /* \"@openzeppelin/contracts/access/AccessControl.sol\":6996:7008  return false */\n      swap1\n      pop\n        /* \"@openzeppelin/contracts/access/AccessControl.sol\":6708:7025  function _revokeRole(bytes32 role, address account) internal virtual returns (bool) {... */\n    tag_457:\n      swap3\n      swap2\n      pop\n      pop\n      jump\t// out\n        /* \"@openzeppelin/contracts/utils/Pausable.sol\":2586:2703  function _unpause() internal virtual whenPaused {... */\n    tag_277:\n        /* \"@openzeppelin/contracts/utils/Pausable.sol\":1597:1613  _requirePaused() */\n      tag_463\n        /* \"@openzeppelin/contracts/utils/Pausable.sol\":1597:1611  _requirePaused */\n      tag_464\n        /* \"@openzeppelin/contracts/utils/Pausable.sol\":1597:1613  _requirePaused() */\n      jump\t// in\n    tag_463:\n        /* \"@openzeppelin/contracts/utils/Pausable.sol\":2654:2659  false */\n      0x00\n        /* \"@openzeppelin/contracts/utils/Pausable.sol\":2644:2651  _paused */\n      0x02\n      0x00\n        /* \"@openzeppelin/contracts/utils/Pausable.sol\":2644:2659  _paused = false */\n      0x0100\n      exp\n      dup2\n      sload\n      dup2\n      0xff\n      mul\n      not\n      and\n      swap1\n      dup4\n      iszero\n      iszero\n      mul\n      or\n      swap1\n      sstore\n      pop\n        /* \"@openzeppelin/contracts/utils/Pausable.sol\":2674:2696  Unpaused(_msgSender()) */\n      0x5db9ee0a495bf2e6ff9c91a7834c1ba4fdd244a5e8aa4e537bd38aeae4b073aa\n        /* \"@openzeppelin/contracts/utils/Pausable.sol\":2683:2695  _msgSender() */\n      tag_466\n        /* \"@openzeppelin/contracts/utils/Pausable.sol\":2683:2693  _msgSender */\n      tag_269\n        /* \"@openzeppelin/contracts/utils/Pausable.sol\":2683:2695  _msgSender() */\n      jump\t// in\n    tag_466:\n        /* \"@openzeppelin/contracts/utils/Pausable.sol\":2674:2696  Unpaused(_msgSender()) */\n      mload(0x40)\n      tag_467\n      swap2\n      swap1\n      tag_92\n      jump\t// in\n    tag_467:\n      mload(0x40)\n      dup1\n      swap2\n      sub\n      swap1\n      log1\n        /* \"@openzeppelin/contracts/utils/Pausable.sol\":2586:2703  function _unpause() internal virtual whenPaused {... */\n      jump\t// out\n        /* \"@openzeppelin/contracts/utils/Pausable.sol\":1878:2006  function _requireNotPaused() internal view virtual {... */\n    tag_280:\n        /* \"@openzeppelin/contracts/utils/Pausable.sol\":1943:1951  paused() */\n      tag_469\n        /* \"@openzeppelin/contracts/utils/Pausable.sol\":1943:1949  paused */\n      tag_139\n        /* \"@openzeppelin/contracts/utils/Pausable.sol\":1943:1951  paused() */\n      jump\t// in\n    tag_469:\n        /* \"@openzeppelin/contracts/utils/Pausable.sol\":1939:2000  if (paused()) {... */\n      iszero\n      tag_470\n      jumpi\n        /* \"@openzeppelin/contracts/utils/Pausable.sol\":1974:1989  EnforcedPause() */\n      mload(0x40)\n      0xd93c066500000000000000000000000000000000000000000000000000000000\n      dup2\n      mstore\n      0x04\n      add\n      mload(0x40)\n      dup1\n      swap2\n      sub\n      swap1\n      revert\n        /* \"@openzeppelin/contracts/utils/Pausable.sol\":1939:2000  if (paused()) {... */\n    tag_470:\n        /* \"@openzeppelin/contracts/utils/Pausable.sol\":1878:2006  function _requireNotPaused() internal view virtual {... */\n      jump\t// out\n        /* \"@openzeppelin/contracts/utils/ReentrancyGuard.sol\":2575:2882  function _nonReentrantBefore() private {... */\n    tag_283:\n        /* \"@openzeppelin/contracts/utils/ReentrancyGuard.sol\":1899:1900  2 */\n      0x02\n        /* \"@openzeppelin/contracts/utils/ReentrancyGuard.sol\":2702:2709  _status */\n      sload(0x01)\n        /* \"@openzeppelin/contracts/utils/ReentrancyGuard.sol\":2702:2720  _status == ENTERED */\n      sub\n        /* \"@openzeppelin/contracts/utils/ReentrancyGuard.sol\":2698:2784  if (_status == ENTERED) {... */\n      tag_472\n      jumpi\n        /* \"@openzeppelin/contracts/utils/ReentrancyGuard.sol\":2743:2773  ReentrancyGuardReentrantCall() */\n      mload(0x40)\n      0x3ee5aeb500000000000000000000000000000000000000000000000000000000\n      dup2\n      mstore\n      0x04\n      add\n      mload(0x40)\n      dup1\n      swap2\n      sub\n      swap1\n      revert\n        /* \"@openzeppelin/contracts/utils/ReentrancyGuard.sol\":2698:2784  if (_status == ENTERED) {... */\n    tag_472:\n        /* \"@openzeppelin/contracts/utils/ReentrancyGuard.sol\":1899:1900  2 */\n      0x02\n        /* \"@openzeppelin/contracts/utils/ReentrancyGuard.sol\":2858:2865  _status */\n      0x01\n        /* \"@openzeppelin/contracts/utils/ReentrancyGuard.sol\":2858:2875  _status = ENTERED */\n      dup2\n      swap1\n      sstore\n      pop\n        /* \"@openzeppelin/contracts/utils/ReentrancyGuard.sol\":2575:2882  function _nonReentrantBefore() private {... */\n      jump\t// out\n        /* \"@openzeppelin/contracts/token/ERC20/utils/SafeERC20.sol\":1618:1806  function safeTransferFrom(IERC20 token, address from, address to, uint256 value) internal {... */\n    tag_289:\n        /* \"@openzeppelin/contracts/token/ERC20/utils/SafeERC20.sol\":1718:1799  _callOptionalReturn(token, abi.encodeCall(token.transferFrom, (from, to, value))) */\n      tag_474\n        /* \"@openzeppelin/contracts/token/ERC20/utils/SafeERC20.sol\":1738:1743  token */\n      dup5\n        /* \"@openzeppelin/contracts/token/ERC20/utils/SafeERC20.sol\":1760:1765  token */\n      dup6\n        /* \"@openzeppelin/contracts/token/ERC20/utils/SafeERC20.sol\":1760:1778  token.transferFrom */\n      0xffffffffffffffffffffffffffffffffffffffff\n      and\n      0x23b872dd\n        /* \"@openzeppelin/contracts/token/ERC20/utils/SafeERC20.sol\":1781:1785  from */\n      dup7\n        /* \"@openzeppelin/contracts/token/ERC20/utils/SafeERC20.sol\":1787:1789  to */\n      dup7\n        /* \"@openzeppelin/contracts/token/ERC20/utils/SafeERC20.sol\":1791:1796  value */\n      dup7\n        /* \"@openzeppelin/contracts/token/ERC20/utils/SafeERC20.sol\":1745:1798  abi.encodeCall(token.transferFrom, (from, to, value)) */\n      add(0x24, mload(0x40))\n      tag_475\n      swap4\n      swap3\n      swap2\n      swap1\n      tag_476\n      jump\t// in\n    tag_475:\n      mload(0x40)\n      0x20\n      dup2\n      dup4\n      sub\n      sub\n      dup2\n      mstore\n      swap1\n      0x40\n      mstore\n      swap2\n      pop\n      0xe0\n      shl\n      0x20\n      dup3\n      add\n      dup1\n      mload\n      0xffffffffffffffffffffffffffffffffffffffffffffffffffffffff\n      dup4\n      dup2\n      dup4\n      and\n      or\n      dup4\n      mstore\n      pop\n      pop\n      pop\n      pop\n        /* \"@openzeppelin/contracts/token/ERC20/utils/SafeERC20.sol\":1718:1737  _callOptionalReturn */\n      tag_477\n        /* \"@openzeppelin/contracts/token/ERC20/utils/SafeERC20.sol\":1718:1799  _callOptionalReturn(token, abi.encodeCall(token.transferFrom, (from, to, value))) */\n      jump\t// in\n    tag_474:\n        /* \"@openzeppelin/contracts/token/ERC20/utils/SafeERC20.sol\":1618:1806  function safeTransferFrom(IERC20 token, address from, address to, uint256 value) internal {... */\n      pop\n      pop\n      pop\n      pop\n      jump\t// out\n        /* \"contracts/KipuBank.sol\":19389:19996  function _deposit(address token, uint256 amount) internal {... */\n    tag_291:\n        /* \"contracts/KipuBank.sol\":19486:19503  uint256 amountUsd */\n      0x00\n        /* \"contracts/KipuBank.sol\":19506:19534  _convertToUsd(token, amount) */\n      tag_479\n        /* \"contracts/KipuBank.sol\":19520:19525  token */\n      dup4\n        /* \"contracts/KipuBank.sol\":19527:19533  amount */\n      dup4\n        /* \"contracts/KipuBank.sol\":19506:19519  _convertToUsd */\n      tag_338\n        /* \"contracts/KipuBank.sol\":19506:19534  _convertToUsd(token, amount) */\n      jump\t// in\n    tag_479:\n        /* \"contracts/KipuBank.sol\":19486:19534  uint256 amountUsd = _convertToUsd(token, amount) */\n      swap1\n      pop\n        /* \"contracts/KipuBank.sol\":2189:2195  100000 */\n      0x0186a0\n        /* \"contracts/KipuBank.sol\":19593:19602  amountUsd */\n      dup2\n        /* \"contracts/KipuBank.sol\":19593:19624  amountUsd < MINIMUM_DEPOSIT_USD */\n      lt\n        /* \"contracts/KipuBank.sol\":19589:19650  if (amountUsd < MINIMUM_DEPOSIT_USD) revert DepositTooSmall() */\n      iszero\n      tag_480\n      jumpi\n        /* \"contracts/KipuBank.sol\":19633:19650  DepositTooSmall() */\n      mload(0x40)\n      0x6ba4a1c700000000000000000000000000000000000000000000000000000000\n      dup2\n      mstore\n      0x04\n      add\n      mload(0x40)\n      dup1\n      swap2\n      sub\n      swap1\n      revert\n        /* \"contracts/KipuBank.sol\":19589:19650  if (amountUsd < MINIMUM_DEPOSIT_USD) revert DepositTooSmall() */\n    tag_480:\n        /* \"contracts/KipuBank.sol\":19746:19756  bankCapUsd */\n      immutable(\"0xb5195a635a48815a20a70a61690787ee680d046bb10d1baaa6f731fa674ca1c3\")\n        /* \"contracts/KipuBank.sol\":19734:19743  amountUsd */\n      dup2\n        /* \"contracts/KipuBank.sol\":19715:19731  totalDepositsUsd */\n      sload(0x03)\n        /* \"contracts/KipuBank.sol\":19715:19743  totalDepositsUsd + amountUsd */\n      tag_481\n      swap2\n      swap1\n      tag_482\n      jump\t// in\n    tag_481:\n        /* \"contracts/KipuBank.sol\":19715:19756  totalDepositsUsd + amountUsd > bankCapUsd */\n      gt\n        /* \"contracts/KipuBank.sol\":19711:19782  if (totalDepositsUsd + amountUsd > bankCapUsd) revert BankCapExceeded() */\n      iszero\n      tag_483\n      jumpi\n        /* \"contracts/KipuBank.sol\":19765:19782  BankCapExceeded() */\n      mload(0x40)\n      0x448f3ca800000000000000000000000000000000000000000000000000000000\n      dup2\n      mstore\n      0x04\n      add\n      mload(0x40)\n      dup1\n      swap2\n      sub\n      swap1\n      revert\n        /* \"contracts/KipuBank.sol\":19711:19782  if (totalDepositsUsd + amountUsd > bankCapUsd) revert BankCapExceeded() */\n    tag_483:\n        /* \"contracts/KipuBank.sol\":19854:19860  amount */\n      dup2\n        /* \"contracts/KipuBank.sol\":19825:19831  vaults */\n      0x07\n        /* \"contracts/KipuBank.sol\":19825:19843  vaults[msg.sender] */\n      0x00\n        /* \"contracts/KipuBank.sol\":19832:19842  msg.sender */\n      caller\n        /* \"contracts/KipuBank.sol\":19825:19843  vaults[msg.sender] */\n      0xffffffffffffffffffffffffffffffffffffffff\n      and\n      0xffffffffffffffffffffffffffffffffffffffff\n      and\n      dup2\n      mstore\n      0x20\n      add\n      swap1\n      dup2\n      mstore\n      0x20\n      add\n      0x00\n      keccak256\n        /* \"contracts/KipuBank.sol\":19825:19850  vaults[msg.sender][token] */\n      0x00\n        /* \"contracts/KipuBank.sol\":19844:19849  token */\n      dup6\n        /* \"contracts/KipuBank.sol\":19825:19850  vaults[msg.sender][token] */\n      0xffffffffffffffffffffffffffffffffffffffff\n      and\n      0xffffffffffffffffffffffffffffffffffffffff\n      and\n      dup2\n      mstore\n      0x20\n      add\n      swap1\n      dup2\n      mstore\n      0x20\n      add\n      0x00\n      keccak256\n      0x00\n        /* \"contracts/KipuBank.sol\":19825:19860  vaults[msg.sender][token] += amount */\n      dup3\n      dup3\n      sload\n      tag_484\n      swap2\n      swap1\n      tag_482\n      jump\t// in\n    tag_484:\n      swap3\n      pop\n      pop\n      dup2\n      swap1\n      sstore\n      pop\n        /* \"contracts/KipuBank.sol\":19891:19900  amountUsd */\n      dup1\n        /* \"contracts/KipuBank.sol\":19871:19887  totalDepositsUsd */\n      0x03\n      0x00\n        /* \"contracts/KipuBank.sol\":19871:19900  totalDepositsUsd += amountUsd */\n      dup3\n      dup3\n      sload\n      tag_485\n      swap2\n      swap1\n      tag_482\n      jump\t// in\n    tag_485:\n      swap3\n      pop\n      pop\n      dup2\n      swap1\n      sstore\n      pop\n        /* \"contracts/KipuBank.sol\":19911:19923  depositCount */\n      0x04\n      0x00\n        /* \"contracts/KipuBank.sol\":19911:19925  depositCount++ */\n      dup2\n      sload\n      dup1\n      swap3\n      swap2\n      swap1\n      tag_486\n      swap1\n      tag_408\n      jump\t// in\n    tag_486:\n      swap2\n      swap1\n      pop\n      sstore\n      pop\n        /* \"contracts/KipuBank.sol\":19963:19968  token */\n      dup3\n        /* \"contracts/KipuBank.sol\":19943:19988  Deposit(msg.sender, token, amount, amountUsd) */\n      0xffffffffffffffffffffffffffffffffffffffff\n      and\n        /* \"contracts/KipuBank.sol\":19951:19961  msg.sender */\n      caller\n        /* \"contracts/KipuBank.sol\":19943:19988  Deposit(msg.sender, token, amount, amountUsd) */\n      0xffffffffffffffffffffffffffffffffffffffff\n      and\n      0xdcbc1c05240f31ff3ad067ef1ee35ce4997762752e3a095284754544f4c709d7\n        /* \"contracts/KipuBank.sol\":19970:19976  amount */\n      dup5\n        /* \"contracts/KipuBank.sol\":19978:19987  amountUsd */\n      dup5\n        /* \"contracts/KipuBank.sol\":19943:19988  Deposit(msg.sender, token, amount, amountUsd) */\n      mload(0x40)\n      tag_487\n      swap3\n      swap2\n      swap1\n      tag_416\n      jump\t// in\n    tag_487:\n      mload(0x40)\n      dup1\n      swap2\n      sub\n      swap1\n      log3\n        /* \"contracts/KipuBank.sol\":19447:19996  {... */\n      pop\n        /* \"contracts/KipuBank.sol\":19389:19996  function _deposit(address token, uint256 amount) internal {... */\n      pop\n      pop\n      jump\t// out\n        /* \"@openzeppelin/contracts/utils/ReentrancyGuard.sol\":2888:3096  function _nonReentrantAfter() private {... */\n    tag_293:\n        /* \"@openzeppelin/contracts/utils/ReentrancyGuard.sol\":1857:1858  1 */\n      0x01\n        /* \"@openzeppelin/contracts/utils/ReentrancyGuard.sol\":3068:3075  _status */\n      dup1\n        /* \"@openzeppelin/contracts/utils/ReentrancyGuard.sol\":3068:3089  _status = NOT_ENTERED */\n      dup2\n      swap1\n      sstore\n      pop\n        /* \"@openzeppelin/contracts/utils/ReentrancyGuard.sol\":2888:3096  function _nonReentrantAfter() private {... */\n      jump\t// out\n        /* \"contracts/KipuBank.sol\":18849:19214  function _addToken(... */\n    tag_306:\n        /* \"contracts/KipuBank.sol\":18998:19002  true */\n      0x01\n        /* \"contracts/KipuBank.sol\":18972:18988  isTokenSupported */\n      0x08\n        /* \"contracts/KipuBank.sol\":18972:18995  isTokenSupported[token] */\n      0x00\n        /* \"contracts/KipuBank.sol\":18989:18994  token */\n      dup6\n        /* \"contracts/KipuBank.sol\":18972:18995  isTokenSupported[token] */\n      0xffffffffffffffffffffffffffffffffffffffff\n      and\n      0xffffffffffffffffffffffffffffffffffffffff\n      and\n      dup2\n      mstore\n      0x20\n      add\n      swap1\n      dup2\n      mstore\n      0x20\n      add\n      0x00\n      keccak256\n      0x00\n        /* \"contracts/KipuBank.sol\":18972:19002  isTokenSupported[token] = true */\n      0x0100\n      exp\n      dup2\n      sload\n      dup2\n      0xff\n      mul\n      not\n      and\n      swap1\n      dup4\n      iszero\n      iszero\n      mul\n      or\n      swap1\n      sstore\n      pop\n        /* \"contracts/KipuBank.sol\":19036:19044  decimals */\n      dup2\n        /* \"contracts/KipuBank.sol\":19013:19026  tokenDecimals */\n      0x09\n        /* \"contracts/KipuBank.sol\":19013:19033  tokenDecimals[token] */\n      0x00\n        /* \"contracts/KipuBank.sol\":19027:19032  token */\n      dup6\n        /* \"contracts/KipuBank.sol\":19013:19033  tokenDecimals[token] */\n      0xffffffffffffffffffffffffffffffffffffffff\n      and\n      0xffffffffffffffffffffffffffffffffffffffff\n      and\n      dup2\n      mstore\n      0x20\n      add\n      swap1\n      dup2\n      mstore\n      0x20\n      add\n      0x00\n      keccak256\n      0x00\n        /* \"contracts/KipuBank.sol\":19013:19044  tokenDecimals[token] = decimals */\n      0x0100\n      exp\n      dup2\n      sload\n      dup2\n      0xff\n      mul\n      not\n      and\n      swap1\n      dup4\n      0xff\n      and\n      mul\n      or\n      swap1\n      sstore\n      pop\n        /* \"contracts/KipuBank.sol\":19102:19111  priceFeed */\n      dup1\n        /* \"contracts/KipuBank.sol\":19055:19070  tokenPriceFeeds */\n      0x0a\n        /* \"contracts/KipuBank.sol\":19055:19077  tokenPriceFeeds[token] */\n      0x00\n        /* \"contracts/KipuBank.sol\":19071:19076  token */\n      dup6\n        /* \"contracts/KipuBank.sol\":19055:19077  tokenPriceFeeds[token] */\n      0xffffffffffffffffffffffffffffffffffffffff\n      and\n      0xffffffffffffffffffffffffffffffffffffffff\n      and\n      dup2\n      mstore\n      0x20\n      add\n      swap1\n      dup2\n      mstore\n      0x20\n      add\n      0x00\n      keccak256\n      0x00\n        /* \"contracts/KipuBank.sol\":19055:19112  tokenPriceFeeds[token] = AggregatorV3Interface(priceFeed) */\n      0x0100\n      exp\n      dup2\n      sload\n      dup2\n      0xffffffffffffffffffffffffffffffffffffffff\n      mul\n      not\n      and\n      swap1\n      dup4\n      0xffffffffffffffffffffffffffffffffffffffff\n      and\n      mul\n      or\n      swap1\n      sstore\n      pop\n        /* \"contracts/KipuBank.sol\":19123:19138  supportedTokens */\n      0x06\n        /* \"contracts/KipuBank.sol\":19144:19149  token */\n      dup4\n        /* \"contracts/KipuBank.sol\":19123:19150  supportedTokens.push(token) */\n      swap1\n      dup1\n      0x01\n      dup2\n      sload\n      add\n      dup1\n      dup3\n      sstore\n      dup1\n      swap2\n      pop\n      pop\n      0x01\n      swap1\n      sub\n      swap1\n      0x00\n      mstore\n      keccak256(0x00, 0x20)\n      add\n      0x00\n      swap1\n      swap2\n      swap1\n      swap2\n      swap1\n      swap2\n      0x0100\n      exp\n      dup2\n      sload\n      dup2\n      0xffffffffffffffffffffffffffffffffffffffff\n      mul\n      not\n      and\n      swap1\n      dup4\n      0xffffffffffffffffffffffffffffffffffffffff\n      and\n      mul\n      or\n      swap1\n      sstore\n      pop\n        /* \"contracts/KipuBank.sol\":19179:19184  token */\n      dup3\n        /* \"contracts/KipuBank.sol\":19168:19206  TokenAdded(token, decimals, priceFeed) */\n      0xffffffffffffffffffffffffffffffffffffffff\n      and\n      0x71eedf6e504658772ec96be84d876ae5c35b713cfdbfb47fe2c0053e9bdfe37b\n        /* \"contracts/KipuBank.sol\":19186:19194  decimals */\n      dup4\n        /* \"contracts/KipuBank.sol\":19196:19205  priceFeed */\n      dup4\n        /* \"contracts/KipuBank.sol\":19168:19206  TokenAdded(token, decimals, priceFeed) */\n      mload(0x40)\n      tag_491\n      swap3\n      swap2\n      swap1\n      tag_492\n      jump\t// in\n    tag_491:\n      mload(0x40)\n      dup1\n      swap2\n      sub\n      swap1\n      log2\n        /* \"contracts/KipuBank.sol\":18849:19214  function _addToken(... */\n      pop\n      pop\n      pop\n      jump\t// out\n        /* \"contracts/KipuBank.sol\":21883:22467  function _convertFromUsd(... */\n    tag_309:\n        /* \"contracts/KipuBank.sol\":21990:21997  uint256 */\n      0x00\n        /* \"contracts/KipuBank.sol\":22027:22028  0 */\n      0x00\n        /* \"contracts/KipuBank.sol\":22014:22023  amountUsd */\n      dup3\n        /* \"contracts/KipuBank.sol\":22014:22028  amountUsd == 0 */\n      sub\n        /* \"contracts/KipuBank.sol\":22010:22038  if (amountUsd == 0) return 0 */\n      tag_494\n      jumpi\n        /* \"contracts/KipuBank.sol\":22037:22038  0 */\n      0x00\n        /* \"contracts/KipuBank.sol\":22030:22038  return 0 */\n      swap1\n      pop\n      jump(tag_493)\n        /* \"contracts/KipuBank.sol\":22010:22038  if (amountUsd == 0) return 0 */\n    tag_494:\n        /* \"contracts/KipuBank.sol\":22051:22064  uint256 price */\n      0x00\n        /* \"contracts/KipuBank.sol\":22067:22083  _getPrice(token) */\n      tag_495\n        /* \"contracts/KipuBank.sol\":22077:22082  token */\n      dup5\n        /* \"contracts/KipuBank.sol\":22067:22076  _getPrice */\n      tag_375\n        /* \"contracts/KipuBank.sol\":22067:22083  _getPrice(token) */\n      jump\t// in\n    tag_495:\n        /* \"contracts/KipuBank.sol\":22051:22083  uint256 price = _getPrice(token) */\n      swap1\n      pop\n        /* \"contracts/KipuBank.sol\":22094:22108  uint8 decimals */\n      0x00\n        /* \"contracts/KipuBank.sol\":22111:22124  tokenDecimals */\n      0x09\n        /* \"contracts/KipuBank.sol\":22111:22131  tokenDecimals[token] */\n      0x00\n        /* \"contracts/KipuBank.sol\":22125:22130  token */\n      dup7\n        /* \"contracts/KipuBank.sol\":22111:22131  tokenDecimals[token] */\n      0xffffffffffffffffffffffffffffffffffffffff\n      and\n      0xffffffffffffffffffffffffffffffffffffffff\n      and\n      dup2\n      mstore\n      0x20\n      add\n      swap1\n      dup2\n      mstore\n      0x20\n      add\n      0x00\n      keccak256\n      0x00\n      swap1\n      sload\n      swap1\n      0x0100\n      exp\n      swap1\n      div\n      0xff\n      and\n        /* \"contracts/KipuBank.sol\":22094:22131  uint8 decimals = tokenDecimals[token] */\n      swap1\n      pop\n        /* \"contracts/KipuBank.sol\":22262:22279  uint256 numerator */\n      0x00\n        /* \"contracts/KipuBank.sol\":2335:2336  8 */\n      0x08\n        /* \"contracts/KipuBank.sol\":22314:22316  10 */\n      0x0a\n        /* \"contracts/KipuBank.sol\":22314:22339  10 ** PRICE_FEED_DECIMALS */\n      tag_496\n      swap2\n      swap1\n      tag_497\n      jump\t// in\n    tag_496:\n        /* \"contracts/KipuBank.sol\":22301:22309  decimals */\n      dup3\n        /* \"contracts/KipuBank.sol\":22295:22297  10 */\n      0x0a\n        /* \"contracts/KipuBank.sol\":22295:22309  10 ** decimals */\n      tag_498\n      swap2\n      swap1\n      tag_497\n      jump\t// in\n    tag_498:\n        /* \"contracts/KipuBank.sol\":22282:22291  amountUsd */\n      dup7\n        /* \"contracts/KipuBank.sol\":22282:22310  amountUsd * (10 ** decimals) */\n      tag_499\n      swap2\n      swap1\n      tag_500\n      jump\t// in\n    tag_499:\n        /* \"contracts/KipuBank.sol\":22282:22340  amountUsd * (10 ** decimals) * (10 ** PRICE_FEED_DECIMALS) */\n      tag_501\n      swap2\n      swap1\n      tag_500\n      jump\t// in\n    tag_501:\n        /* \"contracts/KipuBank.sol\":22262:22340  uint256 numerator = amountUsd * (10 ** decimals) * (10 ** PRICE_FEED_DECIMALS) */\n      swap1\n      pop\n        /* \"contracts/KipuBank.sol\":22351:22370  uint256 denominator */\n      0x00\n        /* \"contracts/KipuBank.sol\":2060:2061  6 */\n      0x06\n        /* \"contracts/KipuBank.sol\":22382:22384  10 */\n      0x0a\n        /* \"contracts/KipuBank.sol\":22382:22407  10 ** ACCOUNTING_DECIMALS */\n      tag_502\n      swap2\n      swap1\n      tag_497\n      jump\t// in\n    tag_502:\n        /* \"contracts/KipuBank.sol\":22373:22378  price */\n      dup5\n        /* \"contracts/KipuBank.sol\":22373:22408  price * (10 ** ACCOUNTING_DECIMALS) */\n      tag_503\n      swap2\n      swap1\n      tag_500\n      jump\t// in\n    tag_503:\n        /* \"contracts/KipuBank.sol\":22351:22408  uint256 denominator = price * (10 ** ACCOUNTING_DECIMALS) */\n      swap1\n      pop\n        /* \"contracts/KipuBank.sol\":22448:22459  denominator */\n      dup1\n        /* \"contracts/KipuBank.sol\":22436:22445  numerator */\n      dup3\n        /* \"contracts/KipuBank.sol\":22436:22459  numerator / denominator */\n      tag_504\n      swap2\n      swap1\n      tag_505\n      jump\t// in\n    tag_504:\n        /* \"contracts/KipuBank.sol\":22429:22459  return numerator / denominator */\n      swap5\n      pop\n      pop\n      pop\n      pop\n      pop\n        /* \"contracts/KipuBank.sol\":21883:22467  function _convertFromUsd(... */\n    tag_493:\n      swap3\n      swap2\n      pop\n      pop\n      jump\t// out\n        /* \"contracts/KipuBank.sol\":20964:21647  function _convertToUsd(... */\n    tag_338:\n        /* \"contracts/KipuBank.sol\":21066:21073  uint256 */\n      0x00\n        /* \"contracts/KipuBank.sol\":21100:21101  0 */\n      0x00\n        /* \"contracts/KipuBank.sol\":21090:21096  amount */\n      dup3\n        /* \"contracts/KipuBank.sol\":21090:21101  amount == 0 */\n      sub\n        /* \"contracts/KipuBank.sol\":21086:21111  if (amount == 0) return 0 */\n      tag_507\n      jumpi\n        /* \"contracts/KipuBank.sol\":21110:21111  0 */\n      0x00\n        /* \"contracts/KipuBank.sol\":21103:21111  return 0 */\n      swap1\n      pop\n      jump(tag_506)\n        /* \"contracts/KipuBank.sol\":21086:21111  if (amount == 0) return 0 */\n    tag_507:\n        /* \"contracts/KipuBank.sol\":21124:21137  uint256 price */\n      0x00\n        /* \"contracts/KipuBank.sol\":21140:21156  _getPrice(token) */\n      tag_508\n        /* \"contracts/KipuBank.sol\":21150:21155  token */\n      dup5\n        /* \"contracts/KipuBank.sol\":21140:21149  _getPrice */\n      tag_375\n        /* \"contracts/KipuBank.sol\":21140:21156  _getPrice(token) */\n      jump\t// in\n    tag_508:\n        /* \"contracts/KipuBank.sol\":21124:21156  uint256 price = _getPrice(token) */\n      swap1\n      pop\n        /* \"contracts/KipuBank.sol\":21167:21181  uint8 decimals */\n      0x00\n        /* \"contracts/KipuBank.sol\":21184:21197  tokenDecimals */\n      0x09\n        /* \"contracts/KipuBank.sol\":21184:21204  tokenDecimals[token] */\n      0x00\n        /* \"contracts/KipuBank.sol\":21198:21203  token */\n      dup7\n        /* \"contracts/KipuBank.sol\":21184:21204  tokenDecimals[token] */\n      0xffffffffffffffffffffffffffffffffffffffff\n      and\n      0xffffffffffffffffffffffffffffffffffffffff\n      and\n      dup2\n      mstore\n      0x20\n      add\n      swap1\n      dup2\n      mstore\n      0x20\n      add\n      0x00\n      keccak256\n      0x00\n      swap1\n      sload\n      swap1\n      0x0100\n      exp\n      swap1\n      div\n      0xff\n      and\n        /* \"contracts/KipuBank.sol\":21167:21204  uint8 decimals = tokenDecimals[token] */\n      swap1\n      pop\n        /* \"contracts/KipuBank.sol\":21445:21462  uint256 numerator */\n      0x00\n        /* \"contracts/KipuBank.sol\":2060:2061  6 */\n      0x06\n        /* \"contracts/KipuBank.sol\":21483:21485  10 */\n      0x0a\n        /* \"contracts/KipuBank.sol\":21483:21508  10 ** ACCOUNTING_DECIMALS */\n      tag_509\n      swap2\n      swap1\n      tag_497\n      jump\t// in\n    tag_509:\n        /* \"contracts/KipuBank.sol\":21474:21479  price */\n      dup4\n        /* \"contracts/KipuBank.sol\":21465:21471  amount */\n      dup7\n        /* \"contracts/KipuBank.sol\":21465:21479  amount * price */\n      tag_510\n      swap2\n      swap1\n      tag_500\n      jump\t// in\n    tag_510:\n        /* \"contracts/KipuBank.sol\":21465:21509  amount * price * (10 ** ACCOUNTING_DECIMALS) */\n      tag_511\n      swap2\n      swap1\n      tag_500\n      jump\t// in\n    tag_511:\n        /* \"contracts/KipuBank.sol\":21445:21509  uint256 numerator = amount * price * (10 ** ACCOUNTING_DECIMALS) */\n      swap1\n      pop\n        /* \"contracts/KipuBank.sol\":21520:21539  uint256 denominator */\n      0x00\n        /* \"contracts/KipuBank.sol\":2335:2336  8 */\n      0x08\n        /* \"contracts/KipuBank.sol\":21562:21564  10 */\n      0x0a\n        /* \"contracts/KipuBank.sol\":21562:21587  10 ** PRICE_FEED_DECIMALS */\n      tag_512\n      swap2\n      swap1\n      tag_497\n      jump\t// in\n    tag_512:\n        /* \"contracts/KipuBank.sol\":21549:21557  decimals */\n      dup4\n        /* \"contracts/KipuBank.sol\":21543:21545  10 */\n      0x0a\n        /* \"contracts/KipuBank.sol\":21543:21557  10 ** decimals */\n      tag_513\n      swap2\n      swap1\n      tag_497\n      jump\t// in\n    tag_513:\n        /* \"contracts/KipuBank.sol\":21542:21588  (10 ** decimals) * (10 ** PRICE_FEED_DECIMALS) */\n      tag_514\n      swap2\n      swap1\n      tag_500\n      jump\t// in\n    tag_514:\n        /* \"contracts/KipuBank.sol\":21520:21588  uint256 denominator = (10 ** decimals) * (10 ** PRICE_FEED_DECIMALS) */\n      swap1\n      pop\n        /* \"contracts/KipuBank.sol\":21628:21639  denominator */\n      dup1\n        /* \"contracts/KipuBank.sol\":21616:21625  numerator */\n      dup3\n        /* \"contracts/KipuBank.sol\":21616:21639  numerator / denominator */\n      tag_515\n      swap2\n      swap1\n      tag_505\n      jump\t// in\n    tag_515:\n        /* \"contracts/KipuBank.sol\":21609:21639  return numerator / denominator */\n      swap5\n      pop\n      pop\n      pop\n      pop\n      pop\n        /* \"contracts/KipuBank.sol\":20964:21647  function _convertToUsd(... */\n    tag_506:\n      swap3\n      swap2\n      pop\n      pop\n      jump\t// out\n        /* \"@openzeppelin/contracts/utils/Pausable.sol\":2339:2454  function _pause() internal virtual whenNotPaused {... */\n    tag_343:\n        /* \"@openzeppelin/contracts/utils/Pausable.sol\":1350:1369  _requireNotPaused() */\n      tag_517\n        /* \"@openzeppelin/contracts/utils/Pausable.sol\":1350:1367  _requireNotPaused */\n      tag_280\n        /* \"@openzeppelin/contracts/utils/Pausable.sol\":1350:1369  _requireNotPaused() */\n      jump\t// in\n    tag_517:\n        /* \"@openzeppelin/contracts/utils/Pausable.sol\":2408:2412  true */\n      0x01\n        /* \"@openzeppelin/contracts/utils/Pausable.sol\":2398:2405  _paused */\n      0x02\n      0x00\n        /* \"@openzeppelin/contracts/utils/Pausable.sol\":2398:2412  _paused = true */\n      0x0100\n      exp\n      dup2\n      sload\n      dup2\n      0xff\n      mul\n      not\n      and\n      swap1\n      dup4\n      iszero\n      iszero\n      mul\n      or\n      swap1\n      sstore\n      pop\n        /* \"@openzeppelin/contracts/utils/Pausable.sol\":2427:2447  Paused(_msgSender()) */\n      0x62e78cea01bee320cd4e420270b5ea74000d11b0c9f74754ebdbfc544b05a258\n        /* \"@openzeppelin/contracts/utils/Pausable.sol\":2434:2446  _msgSender() */\n      tag_519\n        /* \"@openzeppelin/contracts/utils/Pausable.sol\":2434:2444  _msgSender */\n      tag_269\n        /* \"@openzeppelin/contracts/utils/Pausable.sol\":2434:2446  _msgSender() */\n      jump\t// in\n    tag_519:\n        /* \"@openzeppelin/contracts/utils/Pausable.sol\":2427:2447  Paused(_msgSender()) */\n      mload(0x40)\n      tag_520\n      swap2\n      swap1\n      tag_92\n      jump\t// in\n    tag_520:\n      mload(0x40)\n      dup1\n      swap2\n      sub\n      swap1\n      log1\n        /* \"@openzeppelin/contracts/utils/Pausable.sol\":2339:2454  function _pause() internal virtual whenNotPaused {... */\n      jump\t// out\n        /* \"contracts/KipuBank.sol\":20173:20741  function _getPrice(address token) internal view returns (uint256) {... */\n    tag_375:\n        /* \"contracts/KipuBank.sol\":20230:20237  uint256 */\n      0x00\n        /* \"contracts/KipuBank.sol\":20250:20281  AggregatorV3Interface priceFeed */\n      0x00\n        /* \"contracts/KipuBank.sol\":1918:1919  0 */\n      0x00\n        /* \"contracts/KipuBank.sol\":20284:20305  token == NATIVE_TOKEN */\n      0xffffffffffffffffffffffffffffffffffffffff\n      and\n        /* \"contracts/KipuBank.sol\":20284:20289  token */\n      dup4\n        /* \"contracts/KipuBank.sol\":20284:20305  token == NATIVE_TOKEN */\n      0xffffffffffffffffffffffffffffffffffffffff\n      and\n      eq\n        /* \"contracts/KipuBank.sol\":20284:20376  token == NATIVE_TOKEN ... */\n      tag_522\n      jumpi\n        /* \"contracts/KipuBank.sol\":20354:20369  tokenPriceFeeds */\n      0x0a\n        /* \"contracts/KipuBank.sol\":20354:20376  tokenPriceFeeds[token] */\n      0x00\n        /* \"contracts/KipuBank.sol\":20370:20375  token */\n      dup5\n        /* \"contracts/KipuBank.sol\":20354:20376  tokenPriceFeeds[token] */\n      0xffffffffffffffffffffffffffffffffffffffff\n      and\n      0xffffffffffffffffffffffffffffffffffffffff\n      and\n      dup2\n      mstore\n      0x20\n      add\n      swap1\n      dup2\n      mstore\n      0x20\n      add\n      0x00\n      keccak256\n      0x00\n      swap1\n      sload\n      swap1\n      0x0100\n      exp\n      swap1\n      div\n      0xffffffffffffffffffffffffffffffffffffffff\n      and\n        /* \"contracts/KipuBank.sol\":20284:20376  token == NATIVE_TOKEN ... */\n      jump(tag_523)\n    tag_522:\n        /* \"contracts/KipuBank.sol\":20322:20337  ethUsdPriceFeed */\n      immutable(\"0xbad1b344d34b455fbd62473d291e4203218b71bf49ff9d2fee56820689d318af\")\n        /* \"contracts/KipuBank.sol\":20284:20376  token == NATIVE_TOKEN ... */\n    tag_523:\n        /* \"contracts/KipuBank.sol\":20250:20376  AggregatorV3Interface priceFeed = token == NATIVE_TOKEN ... */\n      swap1\n      pop\n        /* \"contracts/KipuBank.sol\":20392:20404  int256 price */\n      0x00\n        /* \"contracts/KipuBank.sol\":20408:20425  uint256 updatedAt */\n      0x00\n        /* \"contracts/KipuBank.sol\":20431:20440  priceFeed */\n      dup3\n        /* \"contracts/KipuBank.sol\":20431:20456  priceFeed.latestRoundData */\n      0xffffffffffffffffffffffffffffffffffffffff\n      and\n      0xfeaf968c\n        /* \"contracts/KipuBank.sol\":20431:20458  priceFeed.latestRoundData() */\n      mload(0x40)\n      dup2\n      0xffffffff\n      and\n      0xe0\n      shl\n      dup2\n      mstore\n      0x04\n      add\n      0xa0\n      mload(0x40)\n      dup1\n      dup4\n      sub\n      dup2\n      dup7\n      gas\n      staticcall\n      iszero\n      dup1\n      iszero\n      tag_525\n      jumpi\n      returndatacopy(0x00, 0x00, returndatasize)\n      revert(0x00, returndatasize)\n    tag_525:\n      pop\n      pop\n      pop\n      pop\n      mload(0x40)\n      returndatasize\n      not(0x1f)\n      0x1f\n      dup3\n      add\n      and\n      dup3\n      add\n      dup1\n      0x40\n      mstore\n      pop\n      dup2\n      add\n      swap1\n      tag_526\n      swap2\n      swap1\n      tag_527\n      jump\t// in\n    tag_526:\n        /* \"contracts/KipuBank.sol\":20389:20458  (, int256 price, , uint256 updatedAt, ) = priceFeed.latestRoundData() */\n      pop\n      swap4\n      pop\n      pop\n      swap3\n      pop\n      pop\n        /* \"contracts/KipuBank.sol\":20492:20493  0 */\n      0x00\n        /* \"contracts/KipuBank.sol\":20483:20488  price */\n      dup3\n        /* \"contracts/KipuBank.sol\":20483:20493  price <= 0 */\n      sgt\n        /* \"contracts/KipuBank.sol\":20479:20516  if (price <= 0) revert InvalidPrice() */\n      tag_528\n      jumpi\n        /* \"contracts/KipuBank.sol\":20502:20516  InvalidPrice() */\n      mload(0x40)\n      0xbfc92100000000000000000000000000000000000000000000000000000000\n      dup2\n      mstore\n      0x04\n      add\n      mload(0x40)\n      dup1\n      swap2\n      sub\n      swap1\n      revert\n        /* \"contracts/KipuBank.sol\":20479:20516  if (price <= 0) revert InvalidPrice() */\n    tag_528:\n        /* \"contracts/KipuBank.sol\":20544:20545  0 */\n      0x00\n        /* \"contracts/KipuBank.sol\":20531:20540  updatedAt */\n      dup2\n        /* \"contracts/KipuBank.sol\":20531:20545  updatedAt == 0 */\n      sub\n        /* \"contracts/KipuBank.sol\":20527:20566  if (updatedAt == 0) revert StalePrice() */\n      tag_529\n      jumpi\n        /* \"contracts/KipuBank.sol\":20554:20566  StalePrice() */\n      mload(0x40)\n      0x19abf40e00000000000000000000000000000000000000000000000000000000\n      dup2\n      mstore\n      0x04\n      add\n      mload(0x40)\n      dup1\n      swap2\n      sub\n      swap1\n      revert\n        /* \"contracts/KipuBank.sol\":20527:20566  if (updatedAt == 0) revert StalePrice() */\n    tag_529:\n        /* \"contracts/KipuBank.sol\":20674:20678  3600 */\n      0x0e10\n        /* \"contracts/KipuBank.sol\":20662:20671  updatedAt */\n      dup2\n        /* \"contracts/KipuBank.sol\":20644:20659  block.timestamp */\n      timestamp\n        /* \"contracts/KipuBank.sol\":20644:20671  block.timestamp - updatedAt */\n      tag_530\n      swap2\n      swap1\n      tag_325\n      jump\t// in\n    tag_530:\n        /* \"contracts/KipuBank.sol\":20644:20678  block.timestamp - updatedAt > 3600 */\n      gt\n        /* \"contracts/KipuBank.sol\":20640:20699  if (block.timestamp - updatedAt > 3600) revert StalePrice() */\n      iszero\n      tag_531\n      jumpi\n        /* \"contracts/KipuBank.sol\":20687:20699  StalePrice() */\n      mload(0x40)\n      0x19abf40e00000000000000000000000000000000000000000000000000000000\n      dup2\n      mstore\n      0x04\n      add\n      mload(0x40)\n      dup1\n      swap2\n      sub\n      swap1\n      revert\n        /* \"contracts/KipuBank.sol\":20640:20699  if (block.timestamp - updatedAt > 3600) revert StalePrice() */\n    tag_531:\n        /* \"contracts/KipuBank.sol\":20727:20732  price */\n      dup2\n        /* \"contracts/KipuBank.sol\":20712:20733  return uint256(price) */\n      swap4\n      pop\n      pop\n      pop\n      pop\n        /* \"contracts/KipuBank.sol\":20173:20741  function _getPrice(address token) internal view returns (uint256) {... */\n      swap2\n      swap1\n      pop\n      jump\t// out\n        /* \"contracts/KipuBank.sol\":22609:22779  function _sendNative(address to, uint256 amount) internal {... */\n    tag_411:\n        /* \"contracts/KipuBank.sol\":22679:22691  bool success */\n      0x00\n        /* \"contracts/KipuBank.sol\":22697:22699  to */\n      dup3\n        /* \"contracts/KipuBank.sol\":22697:22704  to.call */\n      0xffffffffffffffffffffffffffffffffffffffff\n      and\n        /* \"contracts/KipuBank.sol\":22712:22718  amount */\n      dup3\n        /* \"contracts/KipuBank.sol\":22697:22723  to.call{value: amount}(\"\") */\n      mload(0x40)\n      tag_533\n      swap1\n      tag_534\n      jump\t// in\n    tag_533:\n      0x00\n      mload(0x40)\n      dup1\n      dup4\n      sub\n      dup2\n      dup6\n      dup8\n      gas\n      call\n      swap3\n      pop\n      pop\n      pop\n      returndatasize\n      dup1\n      0x00\n      dup2\n      eq\n      tag_537\n      jumpi\n      mload(0x40)\n      swap2\n      pop\n      and(add(returndatasize, 0x3f), not(0x1f))\n      dup3\n      add\n      0x40\n      mstore\n      returndatasize\n      dup3\n      mstore\n      returndatasize\n      0x00\n      0x20\n      dup5\n      add\n      returndatacopy\n      jump(tag_536)\n    tag_537:\n      0x60\n      swap2\n      pop\n    tag_536:\n      pop\n        /* \"contracts/KipuBank.sol\":22678:22723  (bool success, ) = to.call{value: amount}(\"\") */\n      pop\n      swap1\n      pop\n        /* \"contracts/KipuBank.sol\":22739:22746  success */\n      dup1\n        /* \"contracts/KipuBank.sol\":22734:22771  if (!success) revert TransferFailed() */\n      tag_538\n      jumpi\n        /* \"contracts/KipuBank.sol\":22755:22771  TransferFailed() */\n      mload(0x40)\n      0x90b8ec1800000000000000000000000000000000000000000000000000000000\n      dup2\n      mstore\n      0x04\n      add\n      mload(0x40)\n      dup1\n      swap2\n      sub\n      swap1\n      revert\n        /* \"contracts/KipuBank.sol\":22734:22771  if (!success) revert TransferFailed() */\n    tag_538:\n        /* \"contracts/KipuBank.sol\":22667:22779  {... */\n      pop\n        /* \"contracts/KipuBank.sol\":22609:22779  function _sendNative(address to, uint256 amount) internal {... */\n      pop\n      pop\n      jump\t// out\n        /* \"@openzeppelin/contracts/token/ERC20/utils/SafeERC20.sol\":1219:1379  function safeTransfer(IERC20 token, address to, uint256 value) internal {... */\n    tag_414:\n        /* \"@openzeppelin/contracts/token/ERC20/utils/SafeERC20.sol\":1301:1372  _callOptionalReturn(token, abi.encodeCall(token.transfer, (to, value))) */\n      tag_540\n        /* \"@openzeppelin/contracts/token/ERC20/utils/SafeERC20.sol\":1321:1326  token */\n      dup4\n        /* \"@openzeppelin/contracts/token/ERC20/utils/SafeERC20.sol\":1343:1348  token */\n      dup5\n        /* \"@openzeppelin/contracts/token/ERC20/utils/SafeERC20.sol\":1343:1357  token.transfer */\n      0xffffffffffffffffffffffffffffffffffffffff\n      and\n      0xa9059cbb\n        /* \"@openzeppelin/contracts/token/ERC20/utils/SafeERC20.sol\":1360:1362  to */\n      dup6\n        /* \"@openzeppelin/contracts/token/ERC20/utils/SafeERC20.sol\":1364:1369  value */\n      dup6\n        /* \"@openzeppelin/contracts/token/ERC20/utils/SafeERC20.sol\":1328:1371  abi.encodeCall(token.transfer, (to, value)) */\n      add(0x24, mload(0x40))\n      tag_541\n      swap3\n      swap2\n      swap1\n      tag_542\n      jump\t// in\n    tag_541:\n      mload(0x40)\n      0x20\n      dup2\n      dup4\n      sub\n      sub\n      dup2\n      mstore\n      swap1\n      0x40\n      mstore\n      swap2\n      pop\n      0xe0\n      shl\n      0x20\n      dup3\n      add\n      dup1\n      mload\n      0xffffffffffffffffffffffffffffffffffffffffffffffffffffffff\n      dup4\n      dup2\n      dup4\n      and\n      or\n      dup4\n      mstore\n      pop\n      pop\n      pop\n      pop\n        /* \"@openzeppelin/contracts/token/ERC20/utils/SafeERC20.sol\":1301:1320  _callOptionalReturn */\n      tag_477\n        /* \"@openzeppelin/contracts/token/ERC20/utils/SafeERC20.sol\":1301:1372  _callOptionalReturn(token, abi.encodeCall(token.transfer, (to, value))) */\n      jump\t// in\n    tag_540:\n        /* \"@openzeppelin/contracts/token/ERC20/utils/SafeERC20.sol\":1219:1379  function safeTransfer(IERC20 token, address to, uint256 value) internal {... */\n      pop\n      pop\n      pop\n      jump\t// out\n        /* \"@openzeppelin/contracts/utils/introspection/ERC165.sol\":730:876  function supportsInterface(bytes4 interfaceId) public view virtual returns (bool) {... */\n    tag_446:\n        /* \"@openzeppelin/contracts/utils/introspection/ERC165.sol\":806:810  bool */\n      0x00\n        /* \"@openzeppelin/contracts/utils/introspection/ERC165.sol\":844:869  type(IERC165).interfaceId */\n      0x01ffc9a700000000000000000000000000000000000000000000000000000000\n        /* \"@openzeppelin/contracts/utils/introspection/ERC165.sol\":829:869  interfaceId == type(IERC165).interfaceId */\n      not(0xffffffffffffffffffffffffffffffffffffffffffffffffffffffff)\n      and\n        /* \"@openzeppelin/contracts/utils/introspection/ERC165.sol\":829:840  interfaceId */\n      dup3\n        /* \"@openzeppelin/contracts/utils/introspection/ERC165.sol\":829:869  interfaceId == type(IERC165).interfaceId */\n      not(0xffffffffffffffffffffffffffffffffffffffffffffffffffffffff)\n      and\n      eq\n        /* \"@openzeppelin/contracts/utils/introspection/ERC165.sol\":822:869  return interfaceId == type(IERC165).interfaceId */\n      swap1\n      pop\n        /* \"@openzeppelin/contracts/utils/introspection/ERC165.sol\":730:876  function supportsInterface(bytes4 interfaceId) public view virtual returns (bool) {... */\n      swap2\n      swap1\n      pop\n      jump\t// out\n        /* \"@openzeppelin/contracts/access/AccessControl.sol\":3408:3605  function _checkRole(bytes32 role, address account) internal view virtual {... */\n    tag_450:\n        /* \"@openzeppelin/contracts/access/AccessControl.sol\":3496:3518  hasRole(role, account) */\n      tag_545\n        /* \"@openzeppelin/contracts/access/AccessControl.sol\":3504:3508  role */\n      dup3\n        /* \"@openzeppelin/contracts/access/AccessControl.sol\":3510:3517  account */\n      dup3\n        /* \"@openzeppelin/contracts/access/AccessControl.sol\":3496:3503  hasRole */\n      tag_174\n        /* \"@openzeppelin/contracts/access/AccessControl.sol\":3496:3518  hasRole(role, account) */\n      jump\t// in\n    tag_545:\n        /* \"@openzeppelin/contracts/access/AccessControl.sol\":3491:3599  if (!hasRole(role, account)) {... */\n      tag_546\n      jumpi\n        /* \"@openzeppelin/contracts/access/AccessControl.sol\":3574:3581  account */\n      dup1\n        /* \"@openzeppelin/contracts/access/AccessControl.sol\":3583:3587  role */\n      dup3\n        /* \"@openzeppelin/contracts/access/AccessControl.sol\":3541:3588  AccessControlUnauthorizedAccount(account, role) */\n      mload(0x40)\n      0xe2517d3f00000000000000000000000000000000000000000000000000000000\n      dup2\n      mstore\n      0x04\n      add\n      tag_547\n      swap3\n      swap2\n      swap1\n      tag_548\n      jump\t// in\n    tag_547:\n      mload(0x40)\n      dup1\n      swap2\n      sub\n      swap1\n      revert\n        /* \"@openzeppelin/contracts/access/AccessControl.sol\":3491:3599  if (!hasRole(role, account)) {... */\n    tag_546:\n        /* \"@openzeppelin/contracts/access/AccessControl.sol\":3408:3605  function _checkRole(bytes32 role, address account) internal view virtual {... */\n      pop\n      pop\n      jump\t// out\n        /* \"@openzeppelin/contracts/utils/Pausable.sol\":2078:2204  function _requirePaused() internal view virtual {... */\n    tag_464:\n        /* \"@openzeppelin/contracts/utils/Pausable.sol\":2141:2149  paused() */\n      tag_550\n        /* \"@openzeppelin/contracts/utils/Pausable.sol\":2141:2147  paused */\n      tag_139\n        /* \"@openzeppelin/contracts/utils/Pausable.sol\":2141:2149  paused() */\n      jump\t// in\n    tag_550:\n        /* \"@openzeppelin/contracts/utils/Pausable.sol\":2136:2198  if (!paused()) {... */\n      tag_551\n      jumpi\n        /* \"@openzeppelin/contracts/utils/Pausable.sol\":2172:2187  ExpectedPause() */\n      mload(0x40)\n      0x8dfc202b00000000000000000000000000000000000000000000000000000000\n      dup2\n      mstore\n      0x04\n      add\n      mload(0x40)\n      dup1\n      swap2\n      sub\n      swap1\n      revert\n        /* \"@openzeppelin/contracts/utils/Pausable.sol\":2136:2198  if (!paused()) {... */\n    tag_551:\n        /* \"@openzeppelin/contracts/utils/Pausable.sol\":2078:2204  function _requirePaused() internal view virtual {... */\n      jump\t// out\n        /* \"@openzeppelin/contracts/token/ERC20/utils/SafeERC20.sol\":8370:9090  function _callOptionalReturn(IERC20 token, bytes memory data) private {... */\n    tag_477:\n        /* \"@openzeppelin/contracts/token/ERC20/utils/SafeERC20.sol\":8450:8468  uint256 returnSize */\n      0x00\n        /* \"@openzeppelin/contracts/token/ERC20/utils/SafeERC20.sol\":8478:8497  uint256 returnValue */\n      0x00\n        /* \"@openzeppelin/contracts/token/ERC20/utils/SafeERC20.sol\":8616:8620  0x20 */\n      0x20\n        /* \"@openzeppelin/contracts/token/ERC20/utils/SafeERC20.sol\":8613:8614  0 */\n      0x00\n        /* \"@openzeppelin/contracts/token/ERC20/utils/SafeERC20.sol\":8606:8610  data */\n      dup5\n        /* \"@openzeppelin/contracts/token/ERC20/utils/SafeERC20.sol\":8600:8611  mload(data) */\n      mload\n        /* \"@openzeppelin/contracts/token/ERC20/utils/SafeERC20.sol\":8593:8597  0x20 */\n      0x20\n        /* \"@openzeppelin/contracts/token/ERC20/utils/SafeERC20.sol\":8587:8591  data */\n      dup7\n        /* \"@openzeppelin/contracts/token/ERC20/utils/SafeERC20.sol\":8583:8598  add(data, 0x20) */\n      add\n        /* \"@openzeppelin/contracts/token/ERC20/utils/SafeERC20.sol\":8580:8581  0 */\n      0x00\n        /* \"@openzeppelin/contracts/token/ERC20/utils/SafeERC20.sol\":8573:8578  token */\n      dup9\n        /* \"@openzeppelin/contracts/token/ERC20/utils/SafeERC20.sol\":8566:8571  gas() */\n      gas\n        /* \"@openzeppelin/contracts/token/ERC20/utils/SafeERC20.sol\":8561:8621  call(gas(), token, 0, add(data, 0x20), mload(data), 0, 0x20) */\n      call\n        /* \"@openzeppelin/contracts/token/ERC20/utils/SafeERC20.sol\":8673:8680  success */\n      dup1\n        /* \"@openzeppelin/contracts/token/ERC20/utils/SafeERC20.sol\":8663:8839  if iszero(success) {... */\n      tag_553\n      jumpi\n        /* \"@openzeppelin/contracts/token/ERC20/utils/SafeERC20.sol\":8717:8721  0x40 */\n      0x40\n        /* \"@openzeppelin/contracts/token/ERC20/utils/SafeERC20.sol\":8711:8722  mload(0x40) */\n      mload\n        /* \"@openzeppelin/contracts/token/ERC20/utils/SafeERC20.sol\":8762:8778  returndatasize() */\n      returndatasize\n        /* \"@openzeppelin/contracts/token/ERC20/utils/SafeERC20.sol\":8759:8760  0 */\n      0x00\n        /* \"@openzeppelin/contracts/token/ERC20/utils/SafeERC20.sol\":8754:8757  ptr */\n      dup3\n        /* \"@openzeppelin/contracts/token/ERC20/utils/SafeERC20.sol\":8739:8779  returndatacopy(ptr, 0, returndatasize()) */\n      returndatacopy\n        /* \"@openzeppelin/contracts/token/ERC20/utils/SafeERC20.sol\":8808:8824  returndatasize() */\n      returndatasize\n        /* \"@openzeppelin/contracts/token/ERC20/utils/SafeERC20.sol\":8803:8806  ptr */\n      dup2\n        /* \"@openzeppelin/contracts/token/ERC20/utils/SafeERC20.sol\":8796:8825  revert(ptr, returndatasize()) */\n      revert\n        /* \"@openzeppelin/contracts/token/ERC20/utils/SafeERC20.sol\":8663:8839  if iszero(success) {... */\n    tag_553:\n        /* \"@openzeppelin/contracts/token/ERC20/utils/SafeERC20.sol\":8866:8882  returndatasize() */\n      returndatasize\n        /* \"@openzeppelin/contracts/token/ERC20/utils/SafeERC20.sol\":8852:8882  returnSize := returndatasize() */\n      swap3\n      pop\n        /* \"@openzeppelin/contracts/token/ERC20/utils/SafeERC20.sol\":8916:8917  0 */\n      0x00\n        /* \"@openzeppelin/contracts/token/ERC20/utils/SafeERC20.sol\":8910:8918  mload(0) */\n      mload\n        /* \"@openzeppelin/contracts/token/ERC20/utils/SafeERC20.sol\":8895:8918  returnValue := mload(0) */\n      swap2\n      pop\n        /* \"@openzeppelin/contracts/token/ERC20/utils/SafeERC20.sol\":8532:8928  {... */\n      pop\n        /* \"@openzeppelin/contracts/token/ERC20/utils/SafeERC20.sol\":8956:8957  0 */\n      0x00\n        /* \"@openzeppelin/contracts/token/ERC20/utils/SafeERC20.sol\":8942:8952  returnSize */\n      dup3\n        /* \"@openzeppelin/contracts/token/ERC20/utils/SafeERC20.sol\":8942:8957  returnSize == 0 */\n      eq\n        /* \"@openzeppelin/contracts/token/ERC20/utils/SafeERC20.sol\":8942:9010  returnSize == 0 ? address(token).code.length == 0 : returnValue != 1 */\n      tag_554\n      jumpi\n        /* \"@openzeppelin/contracts/token/ERC20/utils/SafeERC20.sol\":9009:9010  1 */\n      0x01\n        /* \"@openzeppelin/contracts/token/ERC20/utils/SafeERC20.sol\":8994:9005  returnValue */\n      dup2\n        /* \"@openzeppelin/contracts/token/ERC20/utils/SafeERC20.sol\":8994:9010  returnValue != 1 */\n      eq\n      iszero\n        /* \"@openzeppelin/contracts/token/ERC20/utils/SafeERC20.sol\":8942:9010  returnSize == 0 ? address(token).code.length == 0 : returnValue != 1 */\n      jump(tag_555)\n    tag_554:\n        /* \"@openzeppelin/contracts/token/ERC20/utils/SafeERC20.sol\":8990:8991  0 */\n      0x00\n        /* \"@openzeppelin/contracts/token/ERC20/utils/SafeERC20.sol\":8968:8973  token */\n      dup5\n        /* \"@openzeppelin/contracts/token/ERC20/utils/SafeERC20.sol\":8960:8986  address(token).code.length */\n      0xffffffffffffffffffffffffffffffffffffffff\n      and\n      extcodesize\n        /* \"@openzeppelin/contracts/token/ERC20/utils/SafeERC20.sol\":8960:8991  address(token).code.length == 0 */\n      eq\n        /* \"@openzeppelin/contracts/token/ERC20/utils/SafeERC20.sol\":8942:9010  returnSize == 0 ? address(token).code.length == 0 : returnValue != 1 */\n    tag_555:\n        /* \"@openzeppelin/contracts/token/ERC20/utils/SafeERC20.sol\":8938:9084  if (returnSize == 0 ? address(token).code.length == 0 : returnValue != 1) {... */\n      iszero\n      tag_556\n      jumpi\n        /* \"@openzeppelin/contracts/token/ERC20/utils/SafeERC20.sol\":9066:9071  token */\n      dup4\n        /* \"@openzeppelin/contracts/token/ERC20/utils/SafeERC20.sol\":9033:9073  SafeERC20FailedOperation(address(token)) */\n      mload(0x40)\n      0x5274afe700000000000000000000000000000000000000000000000000000000\n      dup2\n      mstore\n      0x04\n      add\n      tag_557\n      swap2\n      swap1\n      tag_92\n      jump\t// in\n    tag_557:\n      mload(0x40)\n      dup1\n      swap2\n      sub\n      swap1\n      revert\n        /* \"@openzeppelin/contracts/token/ERC20/utils/SafeERC20.sol\":8938:9084  if (returnSize == 0 ? address(token).code.length == 0 : returnValue != 1) {... */\n    tag_556:\n        /* \"@openzeppelin/contracts/token/ERC20/utils/SafeERC20.sol\":8440:9090  {... */\n      pop\n      pop\n        /* \"@openzeppelin/contracts/token/ERC20/utils/SafeERC20.sol\":8370:9090  function _callOptionalReturn(IERC20 token, bytes memory data) private {... */\n      pop\n      pop\n      jump\t// out\n    tag_257:\n      mload(0x40)\n      dup1\n      0x80\n      add\n      0x40\n      mstore\n      dup1\n      and(0xffffffffffffffffffffffffffffffffffffffff, 0x00)\n      dup2\n      mstore\n      0x20\n      add\n      and(0xff, 0x00)\n      dup2\n      mstore\n      0x20\n      add\n      iszero(iszero(0x00))\n      dup2\n      mstore\n      0x20\n      add\n      and(0xffffffffffffffffffffffffffffffffffffffff, 0x00)\n      dup2\n      mstore\n      pop\n      swap1\n      jump\t// out\n        /* \"#utility.yul\":88:205   */\n    tag_559:\n        /* \"#utility.yul\":197:198   */\n      0x00\n        /* \"#utility.yul\":194:195   */\n      0x00\n        /* \"#utility.yul\":187:199   */\n      revert\n        /* \"#utility.yul\":334:483   */\n    tag_561:\n        /* \"#utility.yul\":370:377   */\n      0x00\n        /* \"#utility.yul\":410:476   */\n      0xffffffff00000000000000000000000000000000000000000000000000000000\n        /* \"#utility.yul\":403:408   */\n      dup3\n        /* \"#utility.yul\":399:477   */\n      and\n        /* \"#utility.yul\":388:477   */\n      swap1\n      pop\n        /* \"#utility.yul\":334:483   */\n      swap2\n      swap1\n      pop\n      jump\t// out\n        /* \"#utility.yul\":489:609   */\n    tag_562:\n        /* \"#utility.yul\":561:584   */\n      tag_626\n        /* \"#utility.yul\":578:583   */\n      dup2\n        /* \"#utility.yul\":561:584   */\n      tag_561\n      jump\t// in\n    tag_626:\n        /* \"#utility.yul\":554:559   */\n      dup2\n        /* \"#utility.yul\":551:585   */\n      eq\n        /* \"#utility.yul\":541:603   */\n      tag_627\n      jumpi\n        /* \"#utility.yul\":599:600   */\n      0x00\n        /* \"#utility.yul\":596:597   */\n      0x00\n        /* \"#utility.yul\":589:601   */\n      revert\n        /* \"#utility.yul\":541:603   */\n    tag_627:\n        /* \"#utility.yul\":489:609   */\n      pop\n      jump\t// out\n        /* \"#utility.yul\":615:752   */\n    tag_563:\n        /* \"#utility.yul\":660:665   */\n      0x00\n        /* \"#utility.yul\":698:704   */\n      dup2\n        /* \"#utility.yul\":685:705   */\n      calldataload\n        /* \"#utility.yul\":676:705   */\n      swap1\n      pop\n        /* \"#utility.yul\":714:746   */\n      tag_629\n        /* \"#utility.yul\":740:745   */\n      dup2\n        /* \"#utility.yul\":714:746   */\n      tag_562\n      jump\t// in\n    tag_629:\n        /* \"#utility.yul\":615:752   */\n      swap3\n      swap2\n      pop\n      pop\n      jump\t// out\n        /* \"#utility.yul\":758:1085   */\n    tag_55:\n        /* \"#utility.yul\":816:822   */\n      0x00\n        /* \"#utility.yul\":865:867   */\n      0x20\n        /* \"#utility.yul\":853:862   */\n      dup3\n        /* \"#utility.yul\":844:851   */\n      dup5\n        /* \"#utility.yul\":840:863   */\n      sub\n        /* \"#utility.yul\":836:868   */\n      slt\n        /* \"#utility.yul\":833:952   */\n      iszero\n      tag_631\n      jumpi\n        /* \"#utility.yul\":871:950   */\n      tag_632\n      tag_559\n      jump\t// in\n    tag_632:\n        /* \"#utility.yul\":833:952   */\n    tag_631:\n        /* \"#utility.yul\":991:992   */\n      0x00\n        /* \"#utility.yul\":1016:1068   */\n      tag_633\n        /* \"#utility.yul\":1060:1067   */\n      dup5\n        /* \"#utility.yul\":1051:1057   */\n      dup3\n        /* \"#utility.yul\":1040:1049   */\n      dup6\n        /* \"#utility.yul\":1036:1058   */\n      add\n        /* \"#utility.yul\":1016:1068   */\n      tag_563\n      jump\t// in\n    tag_633:\n        /* \"#utility.yul\":1006:1068   */\n      swap2\n      pop\n        /* \"#utility.yul\":962:1078   */\n      pop\n        /* \"#utility.yul\":758:1085   */\n      swap3\n      swap2\n      pop\n      pop\n      jump\t// out\n        /* \"#utility.yul\":1091:1181   */\n    tag_564:\n        /* \"#utility.yul\":1125:1132   */\n      0x00\n        /* \"#utility.yul\":1168:1173   */\n      dup2\n        /* \"#utility.yul\":1161:1174   */\n      iszero\n        /* \"#utility.yul\":1154:1175   */\n      iszero\n        /* \"#utility.yul\":1143:1175   */\n      swap1\n      pop\n        /* \"#utility.yul\":1091:1181   */\n      swap2\n      swap1\n      pop\n      jump\t// out\n        /* \"#utility.yul\":1187:1296   */\n    tag_565:\n        /* \"#utility.yul\":1268:1289   */\n      tag_636\n        /* \"#utility.yul\":1283:1288   */\n      dup2\n        /* \"#utility.yul\":1268:1289   */\n      tag_564\n      jump\t// in\n    tag_636:\n        /* \"#utility.yul\":1263:1266   */\n      dup3\n        /* \"#utility.yul\":1256:1290   */\n      mstore\n        /* \"#utility.yul\":1187:1296   */\n      pop\n      pop\n      jump\t// out\n        /* \"#utility.yul\":1302:1512   */\n    tag_58:\n        /* \"#utility.yul\":1389:1393   */\n      0x00\n        /* \"#utility.yul\":1427:1429   */\n      0x20\n        /* \"#utility.yul\":1416:1425   */\n      dup3\n        /* \"#utility.yul\":1412:1430   */\n      add\n        /* \"#utility.yul\":1404:1430   */\n      swap1\n      pop\n        /* \"#utility.yul\":1440:1505   */\n      tag_638\n        /* \"#utility.yul\":1502:1503   */\n      0x00\n        /* \"#utility.yul\":1491:1500   */\n      dup4\n        /* \"#utility.yul\":1487:1504   */\n      add\n        /* \"#utility.yul\":1478:1484   */\n      dup5\n        /* \"#utility.yul\":1440:1505   */\n      tag_565\n      jump\t// in\n    tag_638:\n        /* \"#utility.yul\":1302:1512   */\n      swap3\n      swap2\n      pop\n      pop\n      jump\t// out\n        /* \"#utility.yul\":1518:1644   */\n    tag_566:\n        /* \"#utility.yul\":1555:1562   */\n      0x00\n        /* \"#utility.yul\":1595:1637   */\n      0xffffffffffffffffffffffffffffffffffffffff\n        /* \"#utility.yul\":1588:1593   */\n      dup3\n        /* \"#utility.yul\":1584:1638   */\n      and\n        /* \"#utility.yul\":1573:1638   */\n      swap1\n      pop\n        /* \"#utility.yul\":1518:1644   */\n      swap2\n      swap1\n      pop\n      jump\t// out\n        /* \"#utility.yul\":1650:1746   */\n    tag_567:\n        /* \"#utility.yul\":1687:1694   */\n      0x00\n        /* \"#utility.yul\":1716:1740   */\n      tag_641\n        /* \"#utility.yul\":1734:1739   */\n      dup3\n        /* \"#utility.yul\":1716:1740   */\n      tag_566\n      jump\t// in\n    tag_641:\n        /* \"#utility.yul\":1705:1740   */\n      swap1\n      pop\n        /* \"#utility.yul\":1650:1746   */\n      swap2\n      swap1\n      pop\n      jump\t// out\n        /* \"#utility.yul\":1752:1874   */\n    tag_568:\n        /* \"#utility.yul\":1825:1849   */\n      tag_643\n        /* \"#utility.yul\":1843:1848   */\n      dup2\n        /* \"#utility.yul\":1825:1849   */\n      tag_567\n      jump\t// in\n    tag_643:\n        /* \"#utility.yul\":1818:1823   */\n      dup2\n        /* \"#utility.yul\":1815:1850   */\n      eq\n        /* \"#utility.yul\":1805:1868   */\n      tag_644\n      jumpi\n        /* \"#utility.yul\":1864:1865   */\n      0x00\n        /* \"#utility.yul\":1861:1862   */\n      0x00\n        /* \"#utility.yul\":1854:1866   */\n      revert\n        /* \"#utility.yul\":1805:1868   */\n    tag_644:\n        /* \"#utility.yul\":1752:1874   */\n      pop\n      jump\t// out\n        /* \"#utility.yul\":1880:2019   */\n    tag_569:\n        /* \"#utility.yul\":1926:1931   */\n      0x00\n        /* \"#utility.yul\":1964:1970   */\n      dup2\n        /* \"#utility.yul\":1951:1971   */\n      calldataload\n        /* \"#utility.yul\":1942:1971   */\n      swap1\n      pop\n        /* \"#utility.yul\":1980:2013   */\n      tag_646\n        /* \"#utility.yul\":2007:2012   */\n      dup2\n        /* \"#utility.yul\":1980:2013   */\n      tag_568\n      jump\t// in\n    tag_646:\n        /* \"#utility.yul\":1880:2019   */\n      swap3\n      swap2\n      pop\n      pop\n      jump\t// out\n        /* \"#utility.yul\":2025:2354   */\n    tag_62:\n        /* \"#utility.yul\":2084:2090   */\n      0x00\n        /* \"#utility.yul\":2133:2135   */\n      0x20\n        /* \"#utility.yul\":2121:2130   */\n      dup3\n        /* \"#utility.yul\":2112:2119   */\n      dup5\n        /* \"#utility.yul\":2108:2131   */\n      sub\n        /* \"#utility.yul\":2104:2136   */\n      slt\n        /* \"#utility.yul\":2101:2220   */\n      iszero\n      tag_648\n      jumpi\n        /* \"#utility.yul\":2139:2218   */\n      tag_649\n      tag_559\n      jump\t// in\n    tag_649:\n        /* \"#utility.yul\":2101:2220   */\n    tag_648:\n        /* \"#utility.yul\":2259:2260   */\n      0x00\n        /* \"#utility.yul\":2284:2337   */\n      tag_650\n        /* \"#utility.yul\":2329:2336   */\n      dup5\n        /* \"#utility.yul\":2320:2326   */\n      dup3\n        /* \"#utility.yul\":2309:2318   */\n      dup6\n        /* \"#utility.yul\":2305:2327   */\n      add\n        /* \"#utility.yul\":2284:2337   */\n      tag_569\n      jump\t// in\n    tag_650:\n        /* \"#utility.yul\":2274:2337   */\n      swap2\n      pop\n        /* \"#utility.yul\":2230:2347   */\n      pop\n        /* \"#utility.yul\":2025:2354   */\n      swap3\n      swap2\n      pop\n      pop\n      jump\t// out\n        /* \"#utility.yul\":2360:2468   */\n    tag_570:\n        /* \"#utility.yul\":2437:2461   */\n      tag_652\n        /* \"#utility.yul\":2455:2460   */\n      dup2\n        /* \"#utility.yul\":2437:2461   */\n      tag_567\n      jump\t// in\n    tag_652:\n        /* \"#utility.yul\":2432:2435   */\n      dup3\n        /* \"#utility.yul\":2425:2462   */\n      mstore\n        /* \"#utility.yul\":2360:2468   */\n      pop\n      pop\n      jump\t// out\n        /* \"#utility.yul\":2474:2560   */\n    tag_571:\n        /* \"#utility.yul\":2509:2516   */\n      0x00\n        /* \"#utility.yul\":2549:2553   */\n      0xff\n        /* \"#utility.yul\":2542:2547   */\n      dup3\n        /* \"#utility.yul\":2538:2554   */\n      and\n        /* \"#utility.yul\":2527:2554   */\n      swap1\n      pop\n        /* \"#utility.yul\":2474:2560   */\n      swap2\n      swap1\n      pop\n      jump\t// out\n        /* \"#utility.yul\":2566:2668   */\n    tag_572:\n        /* \"#utility.yul\":2639:2661   */\n      tag_655\n        /* \"#utility.yul\":2655:2660   */\n      dup2\n        /* \"#utility.yul\":2639:2661   */\n      tag_571\n      jump\t// in\n    tag_655:\n        /* \"#utility.yul\":2634:2637   */\n      dup3\n        /* \"#utility.yul\":2627:2662   */\n      mstore\n        /* \"#utility.yul\":2566:2668   */\n      pop\n      pop\n      jump\t// out\n        /* \"#utility.yul\":2674:2773   */\n    tag_573:\n        /* \"#utility.yul\":2745:2766   */\n      tag_657\n        /* \"#utility.yul\":2760:2765   */\n      dup2\n        /* \"#utility.yul\":2745:2766   */\n      tag_564\n      jump\t// in\n    tag_657:\n        /* \"#utility.yul\":2740:2743   */\n      dup3\n        /* \"#utility.yul\":2733:2767   */\n      mstore\n        /* \"#utility.yul\":2674:2773   */\n      pop\n      pop\n      jump\t// out\n        /* \"#utility.yul\":2845:3718   */\n    tag_574:\n        /* \"#utility.yul\":2996:3000   */\n      0x80\n        /* \"#utility.yul\":2991:2994   */\n      dup3\n        /* \"#utility.yul\":2987:3001   */\n      add\n        /* \"#utility.yul\":3091:3095   */\n      0x00\n        /* \"#utility.yul\":3084:3089   */\n      dup3\n        /* \"#utility.yul\":3080:3096   */\n      add\n        /* \"#utility.yul\":3074:3097   */\n      mload\n        /* \"#utility.yul\":3110:3173   */\n      tag_659\n        /* \"#utility.yul\":3167:3171   */\n      0x00\n        /* \"#utility.yul\":3162:3165   */\n      dup6\n        /* \"#utility.yul\":3158:3172   */\n      add\n        /* \"#utility.yul\":3144:3156   */\n      dup3\n        /* \"#utility.yul\":3110:3173   */\n      tag_570\n      jump\t// in\n    tag_659:\n        /* \"#utility.yul\":3011:3183   */\n      pop\n        /* \"#utility.yul\":3269:3273   */\n      0x20\n        /* \"#utility.yul\":3262:3267   */\n      dup3\n        /* \"#utility.yul\":3258:3274   */\n      add\n        /* \"#utility.yul\":3252:3275   */\n      mload\n        /* \"#utility.yul\":3288:3347   */\n      tag_660\n        /* \"#utility.yul\":3341:3345   */\n      0x20\n        /* \"#utility.yul\":3336:3339   */\n      dup6\n        /* \"#utility.yul\":3332:3346   */\n      add\n        /* \"#utility.yul\":3318:3330   */\n      dup3\n        /* \"#utility.yul\":3288:3347   */\n      tag_572\n      jump\t// in\n    tag_660:\n        /* \"#utility.yul\":3193:3357   */\n      pop\n        /* \"#utility.yul\":3446:3450   */\n      0x40\n        /* \"#utility.yul\":3439:3444   */\n      dup3\n        /* \"#utility.yul\":3435:3451   */\n      add\n        /* \"#utility.yul\":3429:3452   */\n      mload\n        /* \"#utility.yul\":3465:3522   */\n      tag_661\n        /* \"#utility.yul\":3516:3520   */\n      0x40\n        /* \"#utility.yul\":3511:3514   */\n      dup6\n        /* \"#utility.yul\":3507:3521   */\n      add\n        /* \"#utility.yul\":3493:3505   */\n      dup3\n        /* \"#utility.yul\":3465:3522   */\n      tag_573\n      jump\t// in\n    tag_661:\n        /* \"#utility.yul\":3367:3532   */\n      pop\n        /* \"#utility.yul\":3619:3623   */\n      0x60\n        /* \"#utility.yul\":3612:3617   */\n      dup3\n        /* \"#utility.yul\":3608:3624   */\n      add\n        /* \"#utility.yul\":3602:3625   */\n      mload\n        /* \"#utility.yul\":3638:3701   */\n      tag_662\n        /* \"#utility.yul\":3695:3699   */\n      0x60\n        /* \"#utility.yul\":3690:3693   */\n      dup6\n        /* \"#utility.yul\":3686:3700   */\n      add\n        /* \"#utility.yul\":3672:3684   */\n      dup3\n        /* \"#utility.yul\":3638:3701   */\n      tag_570\n      jump\t// in\n    tag_662:\n        /* \"#utility.yul\":3542:3711   */\n      pop\n        /* \"#utility.yul\":2965:3718   */\n      pop\n        /* \"#utility.yul\":2845:3718   */\n      pop\n      pop\n      jump\t// out\n        /* \"#utility.yul\":3724:4055   */\n    tag_65:\n        /* \"#utility.yul\":3871:3875   */\n      0x00\n        /* \"#utility.yul\":3909:3912   */\n      0x80\n        /* \"#utility.yul\":3898:3907   */\n      dup3\n        /* \"#utility.yul\":3894:3913   */\n      add\n        /* \"#utility.yul\":3886:3913   */\n      swap1\n      pop\n        /* \"#utility.yul\":3923:4048   */\n      tag_664\n        /* \"#utility.yul\":4045:4046   */\n      0x00\n        /* \"#utility.yul\":4034:4043   */\n      dup4\n        /* \"#utility.yul\":4030:4047   */\n      add\n        /* \"#utility.yul\":4021:4027   */\n      dup5\n        /* \"#utility.yul\":3923:4048   */\n      tag_574\n      jump\t// in\n    tag_664:\n        /* \"#utility.yul\":3724:4055   */\n      swap3\n      swap2\n      pop\n      pop\n      jump\t// out\n        /* \"#utility.yul\":4061:4138   */\n    tag_575:\n        /* \"#utility.yul\":4098:4105   */\n      0x00\n        /* \"#utility.yul\":4127:4132   */\n      dup2\n        /* \"#utility.yul\":4116:4132   */\n      swap1\n      pop\n        /* \"#utility.yul\":4061:4138   */\n      swap2\n      swap1\n      pop\n      jump\t// out\n        /* \"#utility.yul\":4144:4266   */\n    tag_576:\n        /* \"#utility.yul\":4217:4241   */\n      tag_667\n        /* \"#utility.yul\":4235:4240   */\n      dup2\n        /* \"#utility.yul\":4217:4241   */\n      tag_575\n      jump\t// in\n    tag_667:\n        /* \"#utility.yul\":4210:4215   */\n      dup2\n        /* \"#utility.yul\":4207:4242   */\n      eq\n        /* \"#utility.yul\":4197:4260   */\n      tag_668\n      jumpi\n        /* \"#utility.yul\":4256:4257   */\n      0x00\n        /* \"#utility.yul\":4253:4254   */\n      0x00\n        /* \"#utility.yul\":4246:4258   */\n      revert\n        /* \"#utility.yul\":4197:4260   */\n    tag_668:\n        /* \"#utility.yul\":4144:4266   */\n      pop\n      jump\t// out\n        /* \"#utility.yul\":4272:4411   */\n    tag_577:\n        /* \"#utility.yul\":4318:4323   */\n      0x00\n        /* \"#utility.yul\":4356:4362   */\n      dup2\n        /* \"#utility.yul\":4343:4363   */\n      calldataload\n        /* \"#utility.yul\":4334:4363   */\n      swap1\n      pop\n        /* \"#utility.yul\":4372:4405   */\n      tag_670\n        /* \"#utility.yul\":4399:4404   */\n      dup2\n        /* \"#utility.yul\":4372:4405   */\n      tag_576\n      jump\t// in\n    tag_670:\n        /* \"#utility.yul\":4272:4411   */\n      swap3\n      swap2\n      pop\n      pop\n      jump\t// out\n        /* \"#utility.yul\":4417:4746   */\n    tag_69:\n        /* \"#utility.yul\":4476:4482   */\n      0x00\n        /* \"#utility.yul\":4525:4527   */\n      0x20\n        /* \"#utility.yul\":4513:4522   */\n      dup3\n        /* \"#utility.yul\":4504:4511   */\n      dup5\n        /* \"#utility.yul\":4500:4523   */\n      sub\n        /* \"#utility.yul\":4496:4528   */\n      slt\n        /* \"#utility.yul\":4493:4612   */\n      iszero\n      tag_672\n      jumpi\n        /* \"#utility.yul\":4531:4610   */\n      tag_673\n      tag_559\n      jump\t// in\n    tag_673:\n        /* \"#utility.yul\":4493:4612   */\n    tag_672:\n        /* \"#utility.yul\":4651:4652   */\n      0x00\n        /* \"#utility.yul\":4676:4729   */\n      tag_674\n        /* \"#utility.yul\":4721:4728   */\n      dup5\n        /* \"#utility.yul\":4712:4718   */\n      dup3\n        /* \"#utility.yul\":4701:4710   */\n      dup6\n        /* \"#utility.yul\":4697:4719   */\n      add\n        /* \"#utility.yul\":4676:4729   */\n      tag_577\n      jump\t// in\n    tag_674:\n        /* \"#utility.yul\":4666:4729   */\n      swap2\n      pop\n        /* \"#utility.yul\":4622:4739   */\n      pop\n        /* \"#utility.yul\":4417:4746   */\n      swap3\n      swap2\n      pop\n      pop\n      jump\t// out\n        /* \"#utility.yul\":4752:4870   */\n    tag_578:\n        /* \"#utility.yul\":4839:4863   */\n      tag_676\n        /* \"#utility.yul\":4857:4862   */\n      dup2\n        /* \"#utility.yul\":4839:4863   */\n      tag_575\n      jump\t// in\n    tag_676:\n        /* \"#utility.yul\":4834:4837   */\n      dup3\n        /* \"#utility.yul\":4827:4864   */\n      mstore\n        /* \"#utility.yul\":4752:4870   */\n      pop\n      pop\n      jump\t// out\n        /* \"#utility.yul\":4876:5098   */\n    tag_72:\n        /* \"#utility.yul\":4969:4973   */\n      0x00\n        /* \"#utility.yul\":5007:5009   */\n      0x20\n        /* \"#utility.yul\":4996:5005   */\n      dup3\n        /* \"#utility.yul\":4992:5010   */\n      add\n        /* \"#utility.yul\":4984:5010   */\n      swap1\n      pop\n        /* \"#utility.yul\":5020:5091   */\n      tag_678\n        /* \"#utility.yul\":5088:5089   */\n      0x00\n        /* \"#utility.yul\":5077:5086   */\n      dup4\n        /* \"#utility.yul\":5073:5090   */\n      add\n        /* \"#utility.yul\":5064:5070   */\n      dup5\n        /* \"#utility.yul\":5020:5091   */\n      tag_578\n      jump\t// in\n    tag_678:\n        /* \"#utility.yul\":4876:5098   */\n      swap3\n      swap2\n      pop\n      pop\n      jump\t// out\n        /* \"#utility.yul\":5104:5216   */\n    tag_579:\n        /* \"#utility.yul\":5187:5209   */\n      tag_680\n        /* \"#utility.yul\":5203:5208   */\n      dup2\n        /* \"#utility.yul\":5187:5209   */\n      tag_571\n      jump\t// in\n    tag_680:\n        /* \"#utility.yul\":5182:5185   */\n      dup3\n        /* \"#utility.yul\":5175:5210   */\n      mstore\n        /* \"#utility.yul\":5104:5216   */\n      pop\n      pop\n      jump\t// out\n        /* \"#utility.yul\":5222:5436   */\n    tag_77:\n        /* \"#utility.yul\":5311:5315   */\n      0x00\n        /* \"#utility.yul\":5349:5351   */\n      0x20\n        /* \"#utility.yul\":5338:5347   */\n      dup3\n        /* \"#utility.yul\":5334:5352   */\n      add\n        /* \"#utility.yul\":5326:5352   */\n      swap1\n      pop\n        /* \"#utility.yul\":5362:5429   */\n      tag_682\n        /* \"#utility.yul\":5426:5427   */\n      0x00\n        /* \"#utility.yul\":5415:5424   */\n      dup4\n        /* \"#utility.yul\":5411:5428   */\n      add\n        /* \"#utility.yul\":5402:5408   */\n      dup5\n        /* \"#utility.yul\":5362:5429   */\n      tag_579\n      jump\t// in\n    tag_682:\n        /* \"#utility.yul\":5222:5436   */\n      swap3\n      swap2\n      pop\n      pop\n      jump\t// out\n        /* \"#utility.yul\":5442:5519   */\n    tag_580:\n        /* \"#utility.yul\":5479:5486   */\n      0x00\n        /* \"#utility.yul\":5508:5513   */\n      dup2\n        /* \"#utility.yul\":5497:5513   */\n      swap1\n      pop\n        /* \"#utility.yul\":5442:5519   */\n      swap2\n      swap1\n      pop\n      jump\t// out\n        /* \"#utility.yul\":5525:5643   */\n    tag_581:\n        /* \"#utility.yul\":5612:5636   */\n      tag_685\n        /* \"#utility.yul\":5630:5635   */\n      dup2\n        /* \"#utility.yul\":5612:5636   */\n      tag_580\n      jump\t// in\n    tag_685:\n        /* \"#utility.yul\":5607:5610   */\n      dup3\n        /* \"#utility.yul\":5600:5637   */\n      mstore\n        /* \"#utility.yul\":5525:5643   */\n      pop\n      pop\n      jump\t// out\n        /* \"#utility.yul\":5649:5871   */\n    tag_82:\n        /* \"#utility.yul\":5742:5746   */\n      0x00\n        /* \"#utility.yul\":5780:5782   */\n      0x20\n        /* \"#utility.yul\":5769:5778   */\n      dup3\n        /* \"#utility.yul\":5765:5783   */\n      add\n        /* \"#utility.yul\":5757:5783   */\n      swap1\n      pop\n        /* \"#utility.yul\":5793:5864   */\n      tag_687\n        /* \"#utility.yul\":5861:5862   */\n      0x00\n        /* \"#utility.yul\":5850:5859   */\n      dup4\n        /* \"#utility.yul\":5846:5863   */\n      add\n        /* \"#utility.yul\":5837:5843   */\n      dup5\n        /* \"#utility.yul\":5793:5864   */\n      tag_581\n      jump\t// in\n    tag_687:\n        /* \"#utility.yul\":5649:5871   */\n      swap3\n      swap2\n      pop\n      pop\n      jump\t// out\n        /* \"#utility.yul\":5877:6351   */\n    tag_86:\n        /* \"#utility.yul\":5945:5951   */\n      0x00\n        /* \"#utility.yul\":5953:5959   */\n      0x00\n        /* \"#utility.yul\":6002:6004   */\n      0x40\n        /* \"#utility.yul\":5990:5999   */\n      dup4\n        /* \"#utility.yul\":5981:5988   */\n      dup6\n        /* \"#utility.yul\":5977:6000   */\n      sub\n        /* \"#utility.yul\":5973:6005   */\n      slt\n        /* \"#utility.yul\":5970:6089   */\n      iszero\n      tag_689\n      jumpi\n        /* \"#utility.yul\":6008:6087   */\n      tag_690\n      tag_559\n      jump\t// in\n    tag_690:\n        /* \"#utility.yul\":5970:6089   */\n    tag_689:\n        /* \"#utility.yul\":6128:6129   */\n      0x00\n        /* \"#utility.yul\":6153:6206   */\n      tag_691\n        /* \"#utility.yul\":6198:6205   */\n      dup6\n        /* \"#utility.yul\":6189:6195   */\n      dup3\n        /* \"#utility.yul\":6178:6187   */\n      dup7\n        /* \"#utility.yul\":6174:6196   */\n      add\n        /* \"#utility.yul\":6153:6206   */\n      tag_577\n      jump\t// in\n    tag_691:\n        /* \"#utility.yul\":6143:6206   */\n      swap3\n      pop\n        /* \"#utility.yul\":6099:6216   */\n      pop\n        /* \"#utility.yul\":6255:6257   */\n      0x20\n        /* \"#utility.yul\":6281:6334   */\n      tag_692\n        /* \"#utility.yul\":6326:6333   */\n      dup6\n        /* \"#utility.yul\":6317:6323   */\n      dup3\n        /* \"#utility.yul\":6306:6315   */\n      dup7\n        /* \"#utility.yul\":6302:6324   */\n      add\n        /* \"#utility.yul\":6281:6334   */\n      tag_569\n      jump\t// in\n    tag_692:\n        /* \"#utility.yul\":6271:6334   */\n      swap2\n      pop\n        /* \"#utility.yul\":6226:6344   */\n      pop\n        /* \"#utility.yul\":5877:6351   */\n      swap3\n      pop\n      swap3\n      swap1\n      pop\n      jump\t// out\n        /* \"#utility.yul\":6357:6475   */\n    tag_582:\n        /* \"#utility.yul\":6444:6468   */\n      tag_694\n        /* \"#utility.yul\":6462:6467   */\n      dup2\n        /* \"#utility.yul\":6444:6468   */\n      tag_567\n      jump\t// in\n    tag_694:\n        /* \"#utility.yul\":6439:6442   */\n      dup3\n        /* \"#utility.yul\":6432:6469   */\n      mstore\n        /* \"#utility.yul\":6357:6475   */\n      pop\n      pop\n      jump\t// out\n        /* \"#utility.yul\":6481:6703   */\n    tag_92:\n        /* \"#utility.yul\":6574:6578   */\n      0x00\n        /* \"#utility.yul\":6612:6614   */\n      0x20\n        /* \"#utility.yul\":6601:6610   */\n      dup3\n        /* \"#utility.yul\":6597:6615   */\n      add\n        /* \"#utility.yul\":6589:6615   */\n      swap1\n      pop\n        /* \"#utility.yul\":6625:6696   */\n      tag_696\n        /* \"#utility.yul\":6693:6694   */\n      0x00\n        /* \"#utility.yul\":6682:6691   */\n      dup4\n        /* \"#utility.yul\":6678:6695   */\n      add\n        /* \"#utility.yul\":6669:6675   */\n      dup5\n        /* \"#utility.yul\":6625:6696   */\n      tag_582\n      jump\t// in\n    tag_696:\n        /* \"#utility.yul\":6481:6703   */\n      swap3\n      swap2\n      pop\n      pop\n      jump\t// out\n        /* \"#utility.yul\":6709:6769   */\n    tag_583:\n        /* \"#utility.yul\":6737:6740   */\n      0x00\n        /* \"#utility.yul\":6758:6763   */\n      dup2\n        /* \"#utility.yul\":6751:6763   */\n      swap1\n      pop\n        /* \"#utility.yul\":6709:6769   */\n      swap2\n      swap1\n      pop\n      jump\t// out\n        /* \"#utility.yul\":6775:6917   */\n    tag_584:\n        /* \"#utility.yul\":6825:6834   */\n      0x00\n        /* \"#utility.yul\":6858:6911   */\n      tag_699\n        /* \"#utility.yul\":6876:6910   */\n      tag_700\n        /* \"#utility.yul\":6885:6909   */\n      tag_701\n        /* \"#utility.yul\":6903:6908   */\n      dup5\n        /* \"#utility.yul\":6885:6909   */\n      tag_566\n      jump\t// in\n    tag_701:\n        /* \"#utility.yul\":6876:6910   */\n      tag_583\n      jump\t// in\n    tag_700:\n        /* \"#utility.yul\":6858:6911   */\n      tag_566\n      jump\t// in\n    tag_699:\n        /* \"#utility.yul\":6845:6911   */\n      swap1\n      pop\n        /* \"#utility.yul\":6775:6917   */\n      swap2\n      swap1\n      pop\n      jump\t// out\n        /* \"#utility.yul\":6923:7049   */\n    tag_585:\n        /* \"#utility.yul\":6973:6982   */\n      0x00\n        /* \"#utility.yul\":7006:7043   */\n      tag_703\n        /* \"#utility.yul\":7037:7042   */\n      dup3\n        /* \"#utility.yul\":7006:7043   */\n      tag_584\n      jump\t// in\n    tag_703:\n        /* \"#utility.yul\":6993:7043   */\n      swap1\n      pop\n        /* \"#utility.yul\":6923:7049   */\n      swap2\n      swap1\n      pop\n      jump\t// out\n        /* \"#utility.yul\":7055:7209   */\n    tag_586:\n        /* \"#utility.yul\":7133:7142   */\n      0x00\n        /* \"#utility.yul\":7166:7203   */\n      tag_705\n        /* \"#utility.yul\":7197:7202   */\n      dup3\n        /* \"#utility.yul\":7166:7203   */\n      tag_585\n      jump\t// in\n    tag_705:\n        /* \"#utility.yul\":7153:7203   */\n      swap1\n      pop\n        /* \"#utility.yul\":7055:7209   */\n      swap2\n      swap1\n      pop\n      jump\t// out\n        /* \"#utility.yul\":7215:7402   */\n    tag_587:\n        /* \"#utility.yul\":7330:7395   */\n      tag_707\n        /* \"#utility.yul\":7389:7394   */\n      dup2\n        /* \"#utility.yul\":7330:7395   */\n      tag_586\n      jump\t// in\n    tag_707:\n        /* \"#utility.yul\":7325:7328   */\n      dup3\n        /* \"#utility.yul\":7318:7396   */\n      mstore\n        /* \"#utility.yul\":7215:7402   */\n      pop\n      pop\n      jump\t// out\n        /* \"#utility.yul\":7408:7686   */\n    tag_104:\n        /* \"#utility.yul\":7529:7533   */\n      0x00\n        /* \"#utility.yul\":7567:7569   */\n      0x20\n        /* \"#utility.yul\":7556:7565   */\n      dup3\n        /* \"#utility.yul\":7552:7570   */\n      add\n        /* \"#utility.yul\":7544:7570   */\n      swap1\n      pop\n        /* \"#utility.yul\":7580:7679   */\n      tag_709\n        /* \"#utility.yul\":7676:7677   */\n      0x00\n        /* \"#utility.yul\":7665:7674   */\n      dup4\n        /* \"#utility.yul\":7661:7678   */\n      add\n        /* \"#utility.yul\":7652:7658   */\n      dup5\n        /* \"#utility.yul\":7580:7679   */\n      tag_587\n      jump\t// in\n    tag_709:\n        /* \"#utility.yul\":7408:7686   */\n      swap3\n      swap2\n      pop\n      pop\n      jump\t// out\n        /* \"#utility.yul\":7692:7814   */\n    tag_588:\n        /* \"#utility.yul\":7765:7789   */\n      tag_711\n        /* \"#utility.yul\":7783:7788   */\n      dup2\n        /* \"#utility.yul\":7765:7789   */\n      tag_580\n      jump\t// in\n    tag_711:\n        /* \"#utility.yul\":7758:7763   */\n      dup2\n        /* \"#utility.yul\":7755:7790   */\n      eq\n        /* \"#utility.yul\":7745:7808   */\n      tag_712\n      jumpi\n        /* \"#utility.yul\":7804:7805   */\n      0x00\n        /* \"#utility.yul\":7801:7802   */\n      0x00\n        /* \"#utility.yul\":7794:7806   */\n      revert\n        /* \"#utility.yul\":7745:7808   */\n    tag_712:\n        /* \"#utility.yul\":7692:7814   */\n      pop\n      jump\t// out\n        /* \"#utility.yul\":7820:7959   */\n    tag_589:\n        /* \"#utility.yul\":7866:7871   */\n      0x00\n        /* \"#utility.yul\":7904:7910   */\n      dup2\n        /* \"#utility.yul\":7891:7911   */\n      calldataload\n        /* \"#utility.yul\":7882:7911   */\n      swap1\n      pop\n        /* \"#utility.yul\":7920:7953   */\n      tag_714\n        /* \"#utility.yul\":7947:7952   */\n      dup2\n        /* \"#utility.yul\":7920:7953   */\n      tag_588\n      jump\t// in\n    tag_714:\n        /* \"#utility.yul\":7820:7959   */\n      swap3\n      swap2\n      pop\n      pop\n      jump\t// out\n        /* \"#utility.yul\":7965:8439   */\n    tag_112:\n        /* \"#utility.yul\":8033:8039   */\n      0x00\n        /* \"#utility.yul\":8041:8047   */\n      0x00\n        /* \"#utility.yul\":8090:8092   */\n      0x40\n        /* \"#utility.yul\":8078:8087   */\n      dup4\n        /* \"#utility.yul\":8069:8076   */\n      dup6\n        /* \"#utility.yul\":8065:8088   */\n      sub\n        /* \"#utility.yul\":8061:8093   */\n      slt\n        /* \"#utility.yul\":8058:8177   */\n      iszero\n      tag_716\n      jumpi\n        /* \"#utility.yul\":8096:8175   */\n      tag_717\n      tag_559\n      jump\t// in\n    tag_717:\n        /* \"#utility.yul\":8058:8177   */\n    tag_716:\n        /* \"#utility.yul\":8216:8217   */\n      0x00\n        /* \"#utility.yul\":8241:8294   */\n      tag_718\n        /* \"#utility.yul\":8286:8293   */\n      dup6\n        /* \"#utility.yul\":8277:8283   */\n      dup3\n        /* \"#utility.yul\":8266:8275   */\n      dup7\n        /* \"#utility.yul\":8262:8284   */\n      add\n        /* \"#utility.yul\":8241:8294   */\n      tag_569\n      jump\t// in\n    tag_718:\n        /* \"#utility.yul\":8231:8294   */\n      swap3\n      pop\n        /* \"#utility.yul\":8187:8304   */\n      pop\n        /* \"#utility.yul\":8343:8345   */\n      0x20\n        /* \"#utility.yul\":8369:8422   */\n      tag_719\n        /* \"#utility.yul\":8414:8421   */\n      dup6\n        /* \"#utility.yul\":8405:8411   */\n      dup3\n        /* \"#utility.yul\":8394:8403   */\n      dup7\n        /* \"#utility.yul\":8390:8412   */\n      add\n        /* \"#utility.yul\":8369:8422   */\n      tag_589\n      jump\t// in\n    tag_719:\n        /* \"#utility.yul\":8359:8422   */\n      swap2\n      pop\n        /* \"#utility.yul\":8314:8432   */\n      pop\n        /* \"#utility.yul\":7965:8439   */\n      swap3\n      pop\n      swap3\n      swap1\n      pop\n      jump\t// out\n        /* \"#utility.yul\":8445:8919   */\n    tag_117:\n        /* \"#utility.yul\":8513:8519   */\n      0x00\n        /* \"#utility.yul\":8521:8527   */\n      0x00\n        /* \"#utility.yul\":8570:8572   */\n      0x40\n        /* \"#utility.yul\":8558:8567   */\n      dup4\n        /* \"#utility.yul\":8549:8556   */\n      dup6\n        /* \"#utility.yul\":8545:8568   */\n      sub\n        /* \"#utility.yul\":8541:8573   */\n      slt\n        /* \"#utility.yul\":8538:8657   */\n      iszero\n      tag_721\n      jumpi\n        /* \"#utility.yul\":8576:8655   */\n      tag_722\n      tag_559\n      jump\t// in\n    tag_722:\n        /* \"#utility.yul\":8538:8657   */\n    tag_721:\n        /* \"#utility.yul\":8696:8697   */\n      0x00\n        /* \"#utility.yul\":8721:8774   */\n      tag_723\n        /* \"#utility.yul\":8766:8773   */\n      dup6\n        /* \"#utility.yul\":8757:8763   */\n      dup3\n        /* \"#utility.yul\":8746:8755   */\n      dup7\n        /* \"#utility.yul\":8742:8764   */\n      add\n        /* \"#utility.yul\":8721:8774   */\n      tag_569\n      jump\t// in\n    tag_723:\n        /* \"#utility.yul\":8711:8774   */\n      swap3\n      pop\n        /* \"#utility.yul\":8667:8784   */\n      pop\n        /* \"#utility.yul\":8823:8825   */\n      0x20\n        /* \"#utility.yul\":8849:8902   */\n      tag_724\n        /* \"#utility.yul\":8894:8901   */\n      dup6\n        /* \"#utility.yul\":8885:8891   */\n      dup3\n        /* \"#utility.yul\":8874:8883   */\n      dup7\n        /* \"#utility.yul\":8870:8892   */\n      add\n        /* \"#utility.yul\":8849:8902   */\n      tag_569\n      jump\t// in\n    tag_724:\n        /* \"#utility.yul\":8839:8902   */\n      swap2\n      pop\n        /* \"#utility.yul\":8794:8912   */\n      pop\n        /* \"#utility.yul\":8445:8919   */\n      swap3\n      pop\n      swap3\n      swap1\n      pop\n      jump\t// out\n        /* \"#utility.yul\":8925:9039   */\n    tag_590:\n        /* \"#utility.yul\":8992:8998   */\n      0x00\n        /* \"#utility.yul\":9026:9031   */\n      dup2\n        /* \"#utility.yul\":9020:9032   */\n      mload\n        /* \"#utility.yul\":9010:9032   */\n      swap1\n      pop\n        /* \"#utility.yul\":8925:9039   */\n      swap2\n      swap1\n      pop\n      jump\t// out\n        /* \"#utility.yul\":9045:9229   */\n    tag_591:\n        /* \"#utility.yul\":9144:9155   */\n      0x00\n        /* \"#utility.yul\":9178:9184   */\n      dup3\n        /* \"#utility.yul\":9173:9176   */\n      dup3\n        /* \"#utility.yul\":9166:9185   */\n      mstore\n        /* \"#utility.yul\":9218:9222   */\n      0x20\n        /* \"#utility.yul\":9213:9216   */\n      dup3\n        /* \"#utility.yul\":9209:9223   */\n      add\n        /* \"#utility.yul\":9194:9223   */\n      swap1\n      pop\n        /* \"#utility.yul\":9045:9229   */\n      swap3\n      swap2\n      pop\n      pop\n      jump\t// out\n        /* \"#utility.yul\":9235:9367   */\n    tag_592:\n        /* \"#utility.yul\":9302:9306   */\n      0x00\n        /* \"#utility.yul\":9325:9328   */\n      dup2\n        /* \"#utility.yul\":9317:9328   */\n      swap1\n      pop\n        /* \"#utility.yul\":9355:9359   */\n      0x20\n        /* \"#utility.yul\":9350:9353   */\n      dup3\n        /* \"#utility.yul\":9346:9360   */\n      add\n        /* \"#utility.yul\":9338:9360   */\n      swap1\n      pop\n        /* \"#utility.yul\":9235:9367   */\n      swap2\n      swap1\n      pop\n      jump\t// out\n        /* \"#utility.yul\":9373:9552   */\n    tag_593:\n        /* \"#utility.yul\":9442:9452   */\n      0x00\n        /* \"#utility.yul\":9463:9509   */\n      tag_729\n        /* \"#utility.yul\":9505:9508   */\n      dup4\n        /* \"#utility.yul\":9497:9503   */\n      dup4\n        /* \"#utility.yul\":9463:9509   */\n      tag_570\n      jump\t// in\n    tag_729:\n        /* \"#utility.yul\":9541:9545   */\n      0x20\n        /* \"#utility.yul\":9536:9539   */\n      dup4\n        /* \"#utility.yul\":9532:9546   */\n      add\n        /* \"#utility.yul\":9518:9546   */\n      swap1\n      pop\n        /* \"#utility.yul\":9373:9552   */\n      swap3\n      swap2\n      pop\n      pop\n      jump\t// out\n        /* \"#utility.yul\":9558:9671   */\n    tag_594:\n        /* \"#utility.yul\":9628:9632   */\n      0x00\n        /* \"#utility.yul\":9660:9664   */\n      0x20\n        /* \"#utility.yul\":9655:9658   */\n      dup3\n        /* \"#utility.yul\":9651:9665   */\n      add\n        /* \"#utility.yul\":9643:9665   */\n      swap1\n      pop\n        /* \"#utility.yul\":9558:9671   */\n      swap2\n      swap1\n      pop\n      jump\t// out\n        /* \"#utility.yul\":9707:10439   */\n    tag_595:\n        /* \"#utility.yul\":9826:9829   */\n      0x00\n        /* \"#utility.yul\":9855:9909   */\n      tag_732\n        /* \"#utility.yul\":9903:9908   */\n      dup3\n        /* \"#utility.yul\":9855:9909   */\n      tag_590\n      jump\t// in\n    tag_732:\n        /* \"#utility.yul\":9925:10011   */\n      tag_733\n        /* \"#utility.yul\":10004:10010   */\n      dup2\n        /* \"#utility.yul\":9999:10002   */\n      dup6\n        /* \"#utility.yul\":9925:10011   */\n      tag_591\n      jump\t// in\n    tag_733:\n        /* \"#utility.yul\":9918:10011   */\n      swap4\n      pop\n        /* \"#utility.yul\":10035:10091   */\n      tag_734\n        /* \"#utility.yul\":10085:10090   */\n      dup4\n        /* \"#utility.yul\":10035:10091   */\n      tag_592\n      jump\t// in\n    tag_734:\n        /* \"#utility.yul\":10114:10121   */\n      dup1\n        /* \"#utility.yul\":10145:10146   */\n      0x00\n        /* \"#utility.yul\":10130:10414   */\n    tag_735:\n        /* \"#utility.yul\":10155:10161   */\n      dup4\n        /* \"#utility.yul\":10152:10153   */\n      dup2\n        /* \"#utility.yul\":10149:10162   */\n      lt\n        /* \"#utility.yul\":10130:10414   */\n      iszero\n      tag_737\n      jumpi\n        /* \"#utility.yul\":10231:10237   */\n      dup2\n        /* \"#utility.yul\":10225:10238   */\n      mload\n        /* \"#utility.yul\":10258:10321   */\n      tag_738\n        /* \"#utility.yul\":10317:10320   */\n      dup9\n        /* \"#utility.yul\":10302:10315   */\n      dup3\n        /* \"#utility.yul\":10258:10321   */\n      tag_593\n      jump\t// in\n    tag_738:\n        /* \"#utility.yul\":10251:10321   */\n      swap8\n      pop\n        /* \"#utility.yul\":10344:10404   */\n      tag_739\n        /* \"#utility.yul\":10397:10403   */\n      dup4\n        /* \"#utility.yul\":10344:10404   */\n      tag_594\n      jump\t// in\n    tag_739:\n        /* \"#utility.yul\":10334:10404   */\n      swap3\n      pop\n        /* \"#utility.yul\":10190:10414   */\n      pop\n        /* \"#utility.yul\":10177:10178   */\n      0x01\n        /* \"#utility.yul\":10174:10175   */\n      dup2\n        /* \"#utility.yul\":10170:10179   */\n      add\n        /* \"#utility.yul\":10165:10179   */\n      swap1\n      pop\n        /* \"#utility.yul\":10130:10414   */\n      jump(tag_735)\n    tag_737:\n        /* \"#utility.yul\":10134:10148   */\n      pop\n        /* \"#utility.yul\":10430:10433   */\n      dup6\n        /* \"#utility.yul\":10423:10433   */\n      swap4\n      pop\n        /* \"#utility.yul\":9831:10439   */\n      pop\n      pop\n      pop\n        /* \"#utility.yul\":9707:10439   */\n      swap3\n      swap2\n      pop\n      pop\n      jump\t// out\n        /* \"#utility.yul\":10445:10559   */\n    tag_596:\n        /* \"#utility.yul\":10512:10518   */\n      0x00\n        /* \"#utility.yul\":10546:10551   */\n      dup2\n        /* \"#utility.yul\":10540:10552   */\n      mload\n        /* \"#utility.yul\":10530:10552   */\n      swap1\n      pop\n        /* \"#utility.yul\":10445:10559   */\n      swap2\n      swap1\n      pop\n      jump\t// out\n        /* \"#utility.yul\":10565:10749   */\n    tag_597:\n        /* \"#utility.yul\":10664:10675   */\n      0x00\n        /* \"#utility.yul\":10698:10704   */\n      dup3\n        /* \"#utility.yul\":10693:10696   */\n      dup3\n        /* \"#utility.yul\":10686:10705   */\n      mstore\n        /* \"#utility.yul\":10738:10742   */\n      0x20\n        /* \"#utility.yul\":10733:10736   */\n      dup3\n        /* \"#utility.yul\":10729:10743   */\n      add\n        /* \"#utility.yul\":10714:10743   */\n      swap1\n      pop\n        /* \"#utility.yul\":10565:10749   */\n      swap3\n      swap2\n      pop\n      pop\n      jump\t// out\n        /* \"#utility.yul\":10755:10887   */\n    tag_598:\n        /* \"#utility.yul\":10822:10826   */\n      0x00\n        /* \"#utility.yul\":10845:10848   */\n      dup2\n        /* \"#utility.yul\":10837:10848   */\n      swap1\n      pop\n        /* \"#utility.yul\":10875:10879   */\n      0x20\n        /* \"#utility.yul\":10870:10873   */\n      dup3\n        /* \"#utility.yul\":10866:10880   */\n      add\n        /* \"#utility.yul\":10858:10880   */\n      swap1\n      pop\n        /* \"#utility.yul\":10755:10887   */\n      swap2\n      swap1\n      pop\n      jump\t// out\n        /* \"#utility.yul\":10893:11001   */\n    tag_599:\n        /* \"#utility.yul\":10970:10994   */\n      tag_744\n        /* \"#utility.yul\":10988:10993   */\n      dup2\n        /* \"#utility.yul\":10970:10994   */\n      tag_580\n      jump\t// in\n    tag_744:\n        /* \"#utility.yul\":10965:10968   */\n      dup3\n        /* \"#utility.yul\":10958:10995   */\n      mstore\n        /* \"#utility.yul\":10893:11001   */\n      pop\n      pop\n      jump\t// out\n        /* \"#utility.yul\":11007:11186   */\n    tag_600:\n        /* \"#utility.yul\":11076:11086   */\n      0x00\n        /* \"#utility.yul\":11097:11143   */\n      tag_746\n        /* \"#utility.yul\":11139:11142   */\n      dup4\n        /* \"#utility.yul\":11131:11137   */\n      dup4\n        /* \"#utility.yul\":11097:11143   */\n      tag_599\n      jump\t// in\n    tag_746:\n        /* \"#utility.yul\":11175:11179   */\n      0x20\n        /* \"#utility.yul\":11170:11173   */\n      dup4\n        /* \"#utility.yul\":11166:11180   */\n      add\n        /* \"#utility.yul\":11152:11180   */\n      swap1\n      pop\n        /* \"#utility.yul\":11007:11186   */\n      swap3\n      swap2\n      pop\n      pop\n      jump\t// out\n        /* \"#utility.yul\":11192:11305   */\n    tag_601:\n        /* \"#utility.yul\":11262:11266   */\n      0x00\n        /* \"#utility.yul\":11294:11298   */\n      0x20\n        /* \"#utility.yul\":11289:11292   */\n      dup3\n        /* \"#utility.yul\":11285:11299   */\n      add\n        /* \"#utility.yul\":11277:11299   */\n      swap1\n      pop\n        /* \"#utility.yul\":11192:11305   */\n      swap2\n      swap1\n      pop\n      jump\t// out\n        /* \"#utility.yul\":11341:12073   */\n    tag_602:\n        /* \"#utility.yul\":11460:11463   */\n      0x00\n        /* \"#utility.yul\":11489:11543   */\n      tag_749\n        /* \"#utility.yul\":11537:11542   */\n      dup3\n        /* \"#utility.yul\":11489:11543   */\n      tag_596\n      jump\t// in\n    tag_749:\n        /* \"#utility.yul\":11559:11645   */\n      tag_750\n        /* \"#utility.yul\":11638:11644   */\n      dup2\n        /* \"#utility.yul\":11633:11636   */\n      dup6\n        /* \"#utility.yul\":11559:11645   */\n      tag_597\n      jump\t// in\n    tag_750:\n        /* \"#utility.yul\":11552:11645   */\n      swap4\n      pop\n        /* \"#utility.yul\":11669:11725   */\n      tag_751\n        /* \"#utility.yul\":11719:11724   */\n      dup4\n        /* \"#utility.yul\":11669:11725   */\n      tag_598\n      jump\t// in\n    tag_751:\n        /* \"#utility.yul\":11748:11755   */\n      dup1\n        /* \"#utility.yul\":11779:11780   */\n      0x00\n        /* \"#utility.yul\":11764:12048   */\n    tag_752:\n        /* \"#utility.yul\":11789:11795   */\n      dup4\n        /* \"#utility.yul\":11786:11787   */\n      dup2\n        /* \"#utility.yul\":11783:11796   */\n      lt\n        /* \"#utility.yul\":11764:12048   */\n      iszero\n      tag_754\n      jumpi\n        /* \"#utility.yul\":11865:11871   */\n      dup2\n        /* \"#utility.yul\":11859:11872   */\n      mload\n        /* \"#utility.yul\":11892:11955   */\n      tag_755\n        /* \"#utility.yul\":11951:11954   */\n      dup9\n        /* \"#utility.yul\":11936:11949   */\n      dup3\n        /* \"#utility.yul\":11892:11955   */\n      tag_600\n      jump\t// in\n    tag_755:\n        /* \"#utility.yul\":11885:11955   */\n      swap8\n      pop\n        /* \"#utility.yul\":11978:12038   */\n      tag_756\n        /* \"#utility.yul\":12031:12037   */\n      dup4\n        /* \"#utility.yul\":11978:12038   */\n      tag_601\n      jump\t// in\n    tag_756:\n        /* \"#utility.yul\":11968:12038   */\n      swap3\n      pop\n        /* \"#utility.yul\":11824:12048   */\n      pop\n        /* \"#utility.yul\":11811:11812   */\n      0x01\n        /* \"#utility.yul\":11808:11809   */\n      dup2\n        /* \"#utility.yul\":11804:11813   */\n      add\n        /* \"#utility.yul\":11799:11813   */\n      swap1\n      pop\n        /* \"#utility.yul\":11764:12048   */\n      jump(tag_752)\n    tag_754:\n        /* \"#utility.yul\":11768:11782   */\n      pop\n        /* \"#utility.yul\":12064:12067   */\n      dup6\n        /* \"#utility.yul\":12057:12067   */\n      swap4\n      pop\n        /* \"#utility.yul\":11465:12073   */\n      pop\n      pop\n      pop\n        /* \"#utility.yul\":11341:12073   */\n      swap3\n      swap2\n      pop\n      pop\n      jump\t// out\n        /* \"#utility.yul\":12079:12974   */\n    tag_198:\n        /* \"#utility.yul\":12378:12382   */\n      0x00\n        /* \"#utility.yul\":12416:12418   */\n      0x60\n        /* \"#utility.yul\":12405:12414   */\n      dup3\n        /* \"#utility.yul\":12401:12419   */\n      add\n        /* \"#utility.yul\":12393:12419   */\n      swap1\n      pop\n        /* \"#utility.yul\":12465:12474   */\n      dup2\n        /* \"#utility.yul\":12459:12463   */\n      dup2\n        /* \"#utility.yul\":12455:12475   */\n      sub\n        /* \"#utility.yul\":12451:12452   */\n      0x00\n        /* \"#utility.yul\":12440:12449   */\n      dup4\n        /* \"#utility.yul\":12436:12453   */\n      add\n        /* \"#utility.yul\":12429:12476   */\n      mstore\n        /* \"#utility.yul\":12493:12601   */\n      tag_758\n        /* \"#utility.yul\":12596:12600   */\n      dup2\n        /* \"#utility.yul\":12587:12593   */\n      dup7\n        /* \"#utility.yul\":12493:12601   */\n      tag_595\n      jump\t// in\n    tag_758:\n        /* \"#utility.yul\":12485:12601   */\n      swap1\n      pop\n        /* \"#utility.yul\":12648:12657   */\n      dup2\n        /* \"#utility.yul\":12642:12646   */\n      dup2\n        /* \"#utility.yul\":12638:12658   */\n      sub\n        /* \"#utility.yul\":12633:12635   */\n      0x20\n        /* \"#utility.yul\":12622:12631   */\n      dup4\n        /* \"#utility.yul\":12618:12636   */\n      add\n        /* \"#utility.yul\":12611:12659   */\n      mstore\n        /* \"#utility.yul\":12676:12784   */\n      tag_759\n        /* \"#utility.yul\":12779:12783   */\n      dup2\n        /* \"#utility.yul\":12770:12776   */\n      dup6\n        /* \"#utility.yul\":12676:12784   */\n      tag_602\n      jump\t// in\n    tag_759:\n        /* \"#utility.yul\":12668:12784   */\n      swap1\n      pop\n        /* \"#utility.yul\":12831:12840   */\n      dup2\n        /* \"#utility.yul\":12825:12829   */\n      dup2\n        /* \"#utility.yul\":12821:12841   */\n      sub\n        /* \"#utility.yul\":12816:12818   */\n      0x40\n        /* \"#utility.yul\":12805:12814   */\n      dup4\n        /* \"#utility.yul\":12801:12819   */\n      add\n        /* \"#utility.yul\":12794:12842   */\n      mstore\n        /* \"#utility.yul\":12859:12967   */\n      tag_760\n        /* \"#utility.yul\":12962:12966   */\n      dup2\n        /* \"#utility.yul\":12953:12959   */\n      dup5\n        /* \"#utility.yul\":12859:12967   */\n      tag_602\n      jump\t// in\n    tag_760:\n        /* \"#utility.yul\":12851:12967   */\n      swap1\n      pop\n        /* \"#utility.yul\":12079:12974   */\n      swap5\n      swap4\n      pop\n      pop\n      pop\n      pop\n      jump\t// out\n        /* \"#utility.yul\":12980:13309   */\n    tag_202:\n        /* \"#utility.yul\":13039:13045   */\n      0x00\n        /* \"#utility.yul\":13088:13090   */\n      0x20\n        /* \"#utility.yul\":13076:13085   */\n      dup3\n        /* \"#utility.yul\":13067:13074   */\n      dup5\n        /* \"#utility.yul\":13063:13086   */\n      sub\n        /* \"#utility.yul\":13059:13091   */\n      slt\n        /* \"#utility.yul\":13056:13175   */\n      iszero\n      tag_762\n      jumpi\n        /* \"#utility.yul\":13094:13173   */\n      tag_763\n      tag_559\n      jump\t// in\n    tag_763:\n        /* \"#utility.yul\":13056:13175   */\n    tag_762:\n        /* \"#utility.yul\":13214:13215   */\n      0x00\n        /* \"#utility.yul\":13239:13292   */\n      tag_764\n        /* \"#utility.yul\":13284:13291   */\n      dup5\n        /* \"#utility.yul\":13275:13281   */\n      dup3\n        /* \"#utility.yul\":13264:13273   */\n      dup6\n        /* \"#utility.yul\":13260:13282   */\n      add\n        /* \"#utility.yul\":13239:13292   */\n      tag_589\n      jump\t// in\n    tag_764:\n        /* \"#utility.yul\":13229:13292   */\n      swap2\n      pop\n        /* \"#utility.yul\":13185:13302   */\n      pop\n        /* \"#utility.yul\":12980:13309   */\n      swap3\n      swap2\n      pop\n      pop\n      jump\t// out\n        /* \"#utility.yul\":13315:13868   */\n    tag_209:\n        /* \"#utility.yul\":13492:13496   */\n      0x00\n        /* \"#utility.yul\":13530:13533   */\n      0x80\n        /* \"#utility.yul\":13519:13528   */\n      dup3\n        /* \"#utility.yul\":13515:13534   */\n      add\n        /* \"#utility.yul\":13507:13534   */\n      swap1\n      pop\n        /* \"#utility.yul\":13544:13615   */\n      tag_766\n        /* \"#utility.yul\":13612:13613   */\n      0x00\n        /* \"#utility.yul\":13601:13610   */\n      dup4\n        /* \"#utility.yul\":13597:13614   */\n      add\n        /* \"#utility.yul\":13588:13594   */\n      dup8\n        /* \"#utility.yul\":13544:13615   */\n      tag_581\n      jump\t// in\n    tag_766:\n        /* \"#utility.yul\":13625:13697   */\n      tag_767\n        /* \"#utility.yul\":13693:13695   */\n      0x20\n        /* \"#utility.yul\":13682:13691   */\n      dup4\n        /* \"#utility.yul\":13678:13696   */\n      add\n        /* \"#utility.yul\":13669:13675   */\n      dup7\n        /* \"#utility.yul\":13625:13697   */\n      tag_581\n      jump\t// in\n    tag_767:\n        /* \"#utility.yul\":13707:13779   */\n      tag_768\n        /* \"#utility.yul\":13775:13777   */\n      0x40\n        /* \"#utility.yul\":13764:13773   */\n      dup4\n        /* \"#utility.yul\":13760:13778   */\n      add\n        /* \"#utility.yul\":13751:13757   */\n      dup6\n        /* \"#utility.yul\":13707:13779   */\n      tag_581\n      jump\t// in\n    tag_768:\n        /* \"#utility.yul\":13789:13861   */\n      tag_769\n        /* \"#utility.yul\":13857:13859   */\n      0x60\n        /* \"#utility.yul\":13846:13855   */\n      dup4\n        /* \"#utility.yul\":13842:13860   */\n      add\n        /* \"#utility.yul\":13833:13839   */\n      dup5\n        /* \"#utility.yul\":13789:13861   */\n      tag_581\n      jump\t// in\n    tag_769:\n        /* \"#utility.yul\":13315:13868   */\n      swap6\n      swap5\n      pop\n      pop\n      pop\n      pop\n      pop\n      jump\t// out\n        /* \"#utility.yul\":13874:14247   */\n    tag_219:\n        /* \"#utility.yul\":14017:14021   */\n      0x00\n        /* \"#utility.yul\":14055:14057   */\n      0x20\n        /* \"#utility.yul\":14044:14053   */\n      dup3\n        /* \"#utility.yul\":14040:14058   */\n      add\n        /* \"#utility.yul\":14032:14058   */\n      swap1\n      pop\n        /* \"#utility.yul\":14104:14113   */\n      dup2\n        /* \"#utility.yul\":14098:14102   */\n      dup2\n        /* \"#utility.yul\":14094:14114   */\n      sub\n        /* \"#utility.yul\":14090:14091   */\n      0x00\n        /* \"#utility.yul\":14079:14088   */\n      dup4\n        /* \"#utility.yul\":14075:14092   */\n      add\n        /* \"#utility.yul\":14068:14115   */\n      mstore\n        /* \"#utility.yul\":14132:14240   */\n      tag_771\n        /* \"#utility.yul\":14235:14239   */\n      dup2\n        /* \"#utility.yul\":14226:14232   */\n      dup5\n        /* \"#utility.yul\":14132:14240   */\n      tag_595\n      jump\t// in\n    tag_771:\n        /* \"#utility.yul\":14124:14240   */\n      swap1\n      pop\n        /* \"#utility.yul\":13874:14247   */\n      swap3\n      swap2\n      pop\n      pop\n      jump\t// out\n        /* \"#utility.yul\":14253:14371   */\n    tag_603:\n        /* \"#utility.yul\":14324:14346   */\n      tag_773\n        /* \"#utility.yul\":14340:14345   */\n      dup2\n        /* \"#utility.yul\":14324:14346   */\n      tag_571\n      jump\t// in\n    tag_773:\n        /* \"#utility.yul\":14317:14322   */\n      dup2\n        /* \"#utility.yul\":14314:14347   */\n      eq\n        /* \"#utility.yul\":14304:14365   */\n      tag_774\n      jumpi\n        /* \"#utility.yul\":14361:14362   */\n      0x00\n        /* \"#utility.yul\":14358:14359   */\n      0x00\n        /* \"#utility.yul\":14351:14363   */\n      revert\n        /* \"#utility.yul\":14304:14365   */\n    tag_774:\n        /* \"#utility.yul\":14253:14371   */\n      pop\n      jump\t// out\n        /* \"#utility.yul\":14377:14516   */\n    tag_604:\n        /* \"#utility.yul\":14432:14437   */\n      0x00\n        /* \"#utility.yul\":14463:14469   */\n      dup2\n        /* \"#utility.yul\":14457:14470   */\n      mload\n        /* \"#utility.yul\":14448:14470   */\n      swap1\n      pop\n        /* \"#utility.yul\":14479:14510   */\n      tag_776\n        /* \"#utility.yul\":14504:14509   */\n      dup2\n        /* \"#utility.yul\":14479:14510   */\n      tag_603\n      jump\t// in\n    tag_776:\n        /* \"#utility.yul\":14377:14516   */\n      swap3\n      swap2\n      pop\n      pop\n      jump\t// out\n        /* \"#utility.yul\":14522:14869   */\n    tag_304:\n        /* \"#utility.yul\":14590:14596   */\n      0x00\n        /* \"#utility.yul\":14639:14641   */\n      0x20\n        /* \"#utility.yul\":14627:14636   */\n      dup3\n        /* \"#utility.yul\":14618:14625   */\n      dup5\n        /* \"#utility.yul\":14614:14637   */\n      sub\n        /* \"#utility.yul\":14610:14642   */\n      slt\n        /* \"#utility.yul\":14607:14726   */\n      iszero\n      tag_778\n      jumpi\n        /* \"#utility.yul\":14645:14724   */\n      tag_779\n      tag_559\n      jump\t// in\n    tag_779:\n        /* \"#utility.yul\":14607:14726   */\n    tag_778:\n        /* \"#utility.yul\":14765:14766   */\n      0x00\n        /* \"#utility.yul\":14790:14852   */\n      tag_780\n        /* \"#utility.yul\":14844:14851   */\n      dup5\n        /* \"#utility.yul\":14835:14841   */\n      dup3\n        /* \"#utility.yul\":14824:14833   */\n      dup6\n        /* \"#utility.yul\":14820:14842   */\n      add\n        /* \"#utility.yul\":14790:14852   */\n      tag_604\n      jump\t// in\n    tag_780:\n        /* \"#utility.yul\":14780:14852   */\n      swap2\n      pop\n        /* \"#utility.yul\":14736:14862   */\n      pop\n        /* \"#utility.yul\":14522:14869   */\n      swap3\n      swap2\n      pop\n      pop\n      jump\t// out\n        /* \"#utility.yul\":14875:15055   */\n    tag_321:\n        /* \"#utility.yul\":14923:15000   */\n      0x4e487b7100000000000000000000000000000000000000000000000000000000\n        /* \"#utility.yul\":14920:14921   */\n      0x00\n        /* \"#utility.yul\":14913:15001   */\n      mstore\n        /* \"#utility.yul\":15020:15024   */\n      0x32\n        /* \"#utility.yul\":15017:15018   */\n      0x04\n        /* \"#utility.yul\":15010:15025   */\n      mstore\n        /* \"#utility.yul\":15044:15048   */\n      0x24\n        /* \"#utility.yul\":15041:15042   */\n      0x00\n        /* \"#utility.yul\":15034:15049   */\n      revert\n        /* \"#utility.yul\":15061:15241   */\n    tag_605:\n        /* \"#utility.yul\":15109:15186   */\n      0x4e487b7100000000000000000000000000000000000000000000000000000000\n        /* \"#utility.yul\":15106:15107   */\n      0x00\n        /* \"#utility.yul\":15099:15187   */\n      mstore\n        /* \"#utility.yul\":15206:15210   */\n      0x11\n        /* \"#utility.yul\":15203:15204   */\n      0x04\n        /* \"#utility.yul\":15196:15211   */\n      mstore\n        /* \"#utility.yul\":15230:15234   */\n      0x24\n        /* \"#utility.yul\":15227:15228   */\n      0x00\n        /* \"#utility.yul\":15220:15235   */\n      revert\n        /* \"#utility.yul\":15247:15441   */\n    tag_325:\n        /* \"#utility.yul\":15287:15291   */\n      0x00\n        /* \"#utility.yul\":15307:15327   */\n      tag_784\n        /* \"#utility.yul\":15325:15326   */\n      dup3\n        /* \"#utility.yul\":15307:15327   */\n      tag_580\n      jump\t// in\n    tag_784:\n        /* \"#utility.yul\":15302:15327   */\n      swap2\n      pop\n        /* \"#utility.yul\":15341:15361   */\n      tag_785\n        /* \"#utility.yul\":15359:15360   */\n      dup4\n        /* \"#utility.yul\":15341:15361   */\n      tag_580\n      jump\t// in\n    tag_785:\n        /* \"#utility.yul\":15336:15361   */\n      swap3\n      pop\n        /* \"#utility.yul\":15385:15386   */\n      dup3\n        /* \"#utility.yul\":15382:15383   */\n      dup3\n        /* \"#utility.yul\":15378:15387   */\n      sub\n        /* \"#utility.yul\":15370:15387   */\n      swap1\n      pop\n        /* \"#utility.yul\":15409:15410   */\n      dup2\n        /* \"#utility.yul\":15403:15407   */\n      dup2\n        /* \"#utility.yul\":15400:15411   */\n      gt\n        /* \"#utility.yul\":15397:15434   */\n      iszero\n      tag_786\n      jumpi\n        /* \"#utility.yul\":15414:15432   */\n      tag_787\n      tag_605\n      jump\t// in\n    tag_787:\n        /* \"#utility.yul\":15397:15434   */\n    tag_786:\n        /* \"#utility.yul\":15247:15441   */\n      swap3\n      swap2\n      pop\n      pop\n      jump\t// out\n        /* \"#utility.yul\":15447:15627   */\n    tag_334:\n        /* \"#utility.yul\":15495:15572   */\n      0x4e487b7100000000000000000000000000000000000000000000000000000000\n        /* \"#utility.yul\":15492:15493   */\n      0x00\n        /* \"#utility.yul\":15485:15573   */\n      mstore\n        /* \"#utility.yul\":15592:15596   */\n      0x31\n        /* \"#utility.yul\":15589:15590   */\n      0x04\n        /* \"#utility.yul\":15582:15597   */\n      mstore\n        /* \"#utility.yul\":15616:15620   */\n      0x24\n        /* \"#utility.yul\":15613:15614   */\n      0x00\n        /* \"#utility.yul\":15606:15621   */\n      revert\n        /* \"#utility.yul\":15633:15813   */\n    tag_348:\n        /* \"#utility.yul\":15681:15758   */\n      0x4e487b7100000000000000000000000000000000000000000000000000000000\n        /* \"#utility.yul\":15678:15679   */\n      0x00\n        /* \"#utility.yul\":15671:15759   */\n      mstore\n        /* \"#utility.yul\":15778:15782   */\n      0x41\n        /* \"#utility.yul\":15775:15776   */\n      0x04\n        /* \"#utility.yul\":15768:15783   */\n      mstore\n        /* \"#utility.yul\":15802:15806   */\n      0x24\n        /* \"#utility.yul\":15799:15800   */\n      0x00\n        /* \"#utility.yul\":15792:15807   */\n      revert\n        /* \"#utility.yul\":15819:16052   */\n    tag_408:\n        /* \"#utility.yul\":15858:15861   */\n      0x00\n        /* \"#utility.yul\":15881:15905   */\n      tag_791\n        /* \"#utility.yul\":15899:15904   */\n      dup3\n        /* \"#utility.yul\":15881:15905   */\n      tag_580\n      jump\t// in\n    tag_791:\n        /* \"#utility.yul\":15872:15905   */\n      swap2\n      pop\n        /* \"#utility.yul\":15927:15993   */\n      0xffffffffffffffffffffffffffffffffffffffffffffffffffffffffffffffff\n        /* \"#utility.yul\":15920:15925   */\n      dup3\n        /* \"#utility.yul\":15917:15994   */\n      sub\n        /* \"#utility.yul\":15914:16017   */\n      tag_792\n      jumpi\n        /* \"#utility.yul\":15997:16015   */\n      tag_793\n      tag_605\n      jump\t// in\n    tag_793:\n        /* \"#utility.yul\":15914:16017   */\n    tag_792:\n        /* \"#utility.yul\":16044:16045   */\n      0x01\n        /* \"#utility.yul\":16037:16042   */\n      dup3\n        /* \"#utility.yul\":16033:16046   */\n      add\n        /* \"#utility.yul\":16026:16046   */\n      swap1\n      pop\n        /* \"#utility.yul\":15819:16052   */\n      swap2\n      swap1\n      pop\n      jump\t// out\n        /* \"#utility.yul\":16058:16390   */\n    tag_416:\n        /* \"#utility.yul\":16179:16183   */\n      0x00\n        /* \"#utility.yul\":16217:16219   */\n      0x40\n        /* \"#utility.yul\":16206:16215   */\n      dup3\n        /* \"#utility.yul\":16202:16220   */\n      add\n        /* \"#utility.yul\":16194:16220   */\n      swap1\n      pop\n        /* \"#utility.yul\":16230:16301   */\n      tag_795\n        /* \"#utility.yul\":16298:16299   */\n      0x00\n        /* \"#utility.yul\":16287:16296   */\n      dup4\n        /* \"#utility.yul\":16283:16300   */\n      add\n        /* \"#utility.yul\":16274:16280   */\n      dup6\n        /* \"#utility.yul\":16230:16301   */\n      tag_581\n      jump\t// in\n    tag_795:\n        /* \"#utility.yul\":16311:16383   */\n      tag_796\n        /* \"#utility.yul\":16379:16381   */\n      0x20\n        /* \"#utility.yul\":16368:16377   */\n      dup4\n        /* \"#utility.yul\":16364:16382   */\n      add\n        /* \"#utility.yul\":16355:16361   */\n      dup5\n        /* \"#utility.yul\":16311:16383   */\n      tag_581\n      jump\t// in\n    tag_796:\n        /* \"#utility.yul\":16058:16390   */\n      swap4\n      swap3\n      pop\n      pop\n      pop\n      jump\t// out\n        /* \"#utility.yul\":16396:16838   */\n    tag_476:\n        /* \"#utility.yul\":16545:16549   */\n      0x00\n        /* \"#utility.yul\":16583:16585   */\n      0x60\n        /* \"#utility.yul\":16572:16581   */\n      dup3\n        /* \"#utility.yul\":16568:16586   */\n      add\n        /* \"#utility.yul\":16560:16586   */\n      swap1\n      pop\n        /* \"#utility.yul\":16596:16667   */\n      tag_798\n        /* \"#utility.yul\":16664:16665   */\n      0x00\n        /* \"#utility.yul\":16653:16662   */\n      dup4\n        /* \"#utility.yul\":16649:16666   */\n      add\n        /* \"#utility.yul\":16640:16646   */\n      dup7\n        /* \"#utility.yul\":16596:16667   */\n      tag_582\n      jump\t// in\n    tag_798:\n        /* \"#utility.yul\":16677:16749   */\n      tag_799\n        /* \"#utility.yul\":16745:16747   */\n      0x20\n        /* \"#utility.yul\":16734:16743   */\n      dup4\n        /* \"#utility.yul\":16730:16748   */\n      add\n        /* \"#utility.yul\":16721:16727   */\n      dup6\n        /* \"#utility.yul\":16677:16749   */\n      tag_582\n      jump\t// in\n    tag_799:\n        /* \"#utility.yul\":16759:16831   */\n      tag_800\n        /* \"#utility.yul\":16827:16829   */\n      0x40\n        /* \"#utility.yul\":16816:16825   */\n      dup4\n        /* \"#utility.yul\":16812:16830   */\n      add\n        /* \"#utility.yul\":16803:16809   */\n      dup5\n        /* \"#utility.yul\":16759:16831   */\n      tag_581\n      jump\t// in\n    tag_800:\n        /* \"#utility.yul\":16396:16838   */\n      swap5\n      swap4\n      pop\n      pop\n      pop\n      pop\n      jump\t// out\n        /* \"#utility.yul\":16844:17035   */\n    tag_482:\n        /* \"#utility.yul\":16884:16887   */\n      0x00\n        /* \"#utility.yul\":16903:16923   */\n      tag_802\n        /* \"#utility.yul\":16921:16922   */\n      dup3\n        /* \"#utility.yul\":16903:16923   */\n      tag_580\n      jump\t// in\n    tag_802:\n        /* \"#utility.yul\":16898:16923   */\n      swap2\n      pop\n        /* \"#utility.yul\":16937:16957   */\n      tag_803\n        /* \"#utility.yul\":16955:16956   */\n      dup4\n        /* \"#utility.yul\":16937:16957   */\n      tag_580\n      jump\t// in\n    tag_803:\n        /* \"#utility.yul\":16932:16957   */\n      swap3\n      pop\n        /* \"#utility.yul\":16980:16981   */\n      dup3\n        /* \"#utility.yul\":16977:16978   */\n      dup3\n        /* \"#utility.yul\":16973:16982   */\n      add\n        /* \"#utility.yul\":16966:16982   */\n      swap1\n      pop\n        /* \"#utility.yul\":17001:17004   */\n      dup1\n        /* \"#utility.yul\":16998:16999   */\n      dup3\n        /* \"#utility.yul\":16995:17005   */\n      gt\n        /* \"#utility.yul\":16992:17028   */\n      iszero\n      tag_804\n      jumpi\n        /* \"#utility.yul\":17008:17026   */\n      tag_805\n      tag_605\n      jump\t// in\n    tag_805:\n        /* \"#utility.yul\":16992:17028   */\n    tag_804:\n        /* \"#utility.yul\":16844:17035   */\n      swap3\n      swap2\n      pop\n      pop\n      jump\t// out\n        /* \"#utility.yul\":17041:17365   */\n    tag_492:\n        /* \"#utility.yul\":17158:17162   */\n      0x00\n        /* \"#utility.yul\":17196:17198   */\n      0x40\n        /* \"#utility.yul\":17185:17194   */\n      dup3\n        /* \"#utility.yul\":17181:17199   */\n      add\n        /* \"#utility.yul\":17173:17199   */\n      swap1\n      pop\n        /* \"#utility.yul\":17209:17276   */\n      tag_807\n        /* \"#utility.yul\":17273:17274   */\n      0x00\n        /* \"#utility.yul\":17262:17271   */\n      dup4\n        /* \"#utility.yul\":17258:17275   */\n      add\n        /* \"#utility.yul\":17249:17255   */\n      dup6\n        /* \"#utility.yul\":17209:17276   */\n      tag_579\n      jump\t// in\n    tag_807:\n        /* \"#utility.yul\":17286:17358   */\n      tag_808\n        /* \"#utility.yul\":17354:17356   */\n      0x20\n        /* \"#utility.yul\":17343:17352   */\n      dup4\n        /* \"#utility.yul\":17339:17357   */\n      add\n        /* \"#utility.yul\":17330:17336   */\n      dup5\n        /* \"#utility.yul\":17286:17358   */\n      tag_582\n      jump\t// in\n    tag_808:\n        /* \"#utility.yul\":17041:17365   */\n      swap4\n      swap3\n      pop\n      pop\n      pop\n      jump\t// out\n        /* \"#utility.yul\":17371:17473   */\n    tag_606:\n        /* \"#utility.yul\":17413:17421   */\n      0x00\n        /* \"#utility.yul\":17460:17465   */\n      dup2\n        /* \"#utility.yul\":17457:17458   */\n      0x01\n        /* \"#utility.yul\":17453:17466   */\n      shr\n        /* \"#utility.yul\":17432:17466   */\n      swap1\n      pop\n        /* \"#utility.yul\":17371:17473   */\n      swap2\n      swap1\n      pop\n      jump\t// out\n        /* \"#utility.yul\":17479:18327   */\n    tag_607:\n        /* \"#utility.yul\":17540:17545   */\n      0x00\n        /* \"#utility.yul\":17547:17551   */\n      0x00\n        /* \"#utility.yul\":17571:17577   */\n      dup3\n        /* \"#utility.yul\":17562:17577   */\n      swap2\n      pop\n        /* \"#utility.yul\":17595:17600   */\n      dup4\n        /* \"#utility.yul\":17586:17600   */\n      swap1\n      pop\n        /* \"#utility.yul\":17609:18321   */\n    tag_811:\n        /* \"#utility.yul\":17630:17631   */\n      0x01\n        /* \"#utility.yul\":17620:17628   */\n      dup6\n        /* \"#utility.yul\":17617:17632   */\n      gt\n        /* \"#utility.yul\":17609:18321   */\n      iszero\n      tag_813\n      jumpi\n        /* \"#utility.yul\":17725:17729   */\n      dup1\n        /* \"#utility.yul\":17720:17723   */\n      dup7\n        /* \"#utility.yul\":17716:17730   */\n      div\n        /* \"#utility.yul\":17710:17714   */\n      dup2\n        /* \"#utility.yul\":17707:17731   */\n      gt\n        /* \"#utility.yul\":17704:17754   */\n      iszero\n      tag_814\n      jumpi\n        /* \"#utility.yul\":17734:17752   */\n      tag_815\n      tag_605\n      jump\t// in\n    tag_815:\n        /* \"#utility.yul\":17704:17754   */\n    tag_814:\n        /* \"#utility.yul\":17784:17785   */\n      0x01\n        /* \"#utility.yul\":17774:17782   */\n      dup6\n        /* \"#utility.yul\":17770:17786   */\n      and\n        /* \"#utility.yul\":17767:18218   */\n      iszero\n      tag_816\n      jumpi\n        /* \"#utility.yul\":18199:18203   */\n      dup1\n        /* \"#utility.yul\":18192:18197   */\n      dup3\n        /* \"#utility.yul\":18188:18204   */\n      mul\n        /* \"#utility.yul\":18179:18204   */\n      swap2\n      pop\n        /* \"#utility.yul\":17767:18218   */\n    tag_816:\n        /* \"#utility.yul\":18249:18253   */\n      dup1\n        /* \"#utility.yul\":18243:18247   */\n      dup2\n        /* \"#utility.yul\":18239:18254   */\n      mul\n        /* \"#utility.yul\":18231:18254   */\n      swap1\n      pop\n        /* \"#utility.yul\":18279:18311   */\n      tag_817\n        /* \"#utility.yul\":18302:18310   */\n      dup6\n        /* \"#utility.yul\":18279:18311   */\n      tag_606\n      jump\t// in\n    tag_817:\n        /* \"#utility.yul\":18267:18311   */\n      swap5\n      pop\n        /* \"#utility.yul\":17609:18321   */\n      jump(tag_811)\n    tag_813:\n        /* \"#utility.yul\":17479:18327   */\n      swap5\n      pop\n      swap5\n      swap3\n      pop\n      pop\n      pop\n      jump\t// out\n        /* \"#utility.yul\":18333:19406   */\n    tag_608:\n        /* \"#utility.yul\":18387:18392   */\n      0x00\n        /* \"#utility.yul\":18578:18586   */\n      dup3\n        /* \"#utility.yul\":18568:18608   */\n      tag_819\n      jumpi\n        /* \"#utility.yul\":18599:18600   */\n      0x01\n        /* \"#utility.yul\":18590:18600   */\n      swap1\n      pop\n        /* \"#utility.yul\":18601:18606   */\n      jump(tag_818)\n        /* \"#utility.yul\":18568:18608   */\n    tag_819:\n        /* \"#utility.yul\":18627:18631   */\n      dup2\n        /* \"#utility.yul\":18617:18653   */\n      tag_820\n      jumpi\n        /* \"#utility.yul\":18644:18645   */\n      0x00\n        /* \"#utility.yul\":18635:18645   */\n      swap1\n      pop\n        /* \"#utility.yul\":18646:18651   */\n      jump(tag_818)\n        /* \"#utility.yul\":18617:18653   */\n    tag_820:\n        /* \"#utility.yul\":18713:18717   */\n      dup2\n        /* \"#utility.yul\":18761:18762   */\n      0x01\n        /* \"#utility.yul\":18756:18783   */\n      dup2\n      eq\n      tag_822\n      jumpi\n        /* \"#utility.yul\":18797:18798   */\n      0x02\n        /* \"#utility.yul\":18792:18983   */\n      dup2\n      eq\n      tag_823\n      jumpi\n        /* \"#utility.yul\":18706:18983   */\n      jump(tag_821)\n        /* \"#utility.yul\":18756:18783   */\n    tag_822:\n        /* \"#utility.yul\":18774:18775   */\n      0x01\n        /* \"#utility.yul\":18765:18775   */\n      swap2\n      pop\n        /* \"#utility.yul\":18776:18781   */\n      pop\n      jump(tag_818)\n        /* \"#utility.yul\":18792:18983   */\n    tag_823:\n        /* \"#utility.yul\":18837:18840   */\n      0xff\n        /* \"#utility.yul\":18827:18835   */\n      dup5\n        /* \"#utility.yul\":18824:18841   */\n      gt\n        /* \"#utility.yul\":18821:18864   */\n      iszero\n      tag_824\n      jumpi\n        /* \"#utility.yul\":18844:18862   */\n      tag_825\n      tag_605\n      jump\t// in\n    tag_825:\n        /* \"#utility.yul\":18821:18864   */\n    tag_824:\n        /* \"#utility.yul\":18893:18901   */\n      dup4\n        /* \"#utility.yul\":18890:18891   */\n      0x02\n        /* \"#utility.yul\":18886:18902   */\n      exp\n        /* \"#utility.yul\":18877:18902   */\n      swap2\n      pop\n        /* \"#utility.yul\":18928:18931   */\n      dup5\n        /* \"#utility.yul\":18921:18926   */\n      dup3\n        /* \"#utility.yul\":18918:18932   */\n      gt\n        /* \"#utility.yul\":18915:18955   */\n      iszero\n      tag_826\n      jumpi\n        /* \"#utility.yul\":18935:18953   */\n      tag_827\n      tag_605\n      jump\t// in\n    tag_827:\n        /* \"#utility.yul\":18915:18955   */\n    tag_826:\n        /* \"#utility.yul\":18968:18973   */\n      pop\n      jump(tag_818)\n        /* \"#utility.yul\":18706:18983   */\n    tag_821:\n      pop\n        /* \"#utility.yul\":19092:19094   */\n      0x20\n        /* \"#utility.yul\":19082:19090   */\n      dup4\n        /* \"#utility.yul\":19079:19095   */\n      lt\n        /* \"#utility.yul\":19073:19076   */\n      0x0133\n        /* \"#utility.yul\":19067:19071   */\n      dup4\n        /* \"#utility.yul\":19064:19077   */\n      lt\n        /* \"#utility.yul\":19060:19096   */\n      and\n        /* \"#utility.yul\":19042:19044   */\n      0x4e\n        /* \"#utility.yul\":19032:19040   */\n      dup5\n        /* \"#utility.yul\":19029:19045   */\n      lt\n        /* \"#utility.yul\":19024:19026   */\n      0x0b\n        /* \"#utility.yul\":19018:19022   */\n      dup5\n        /* \"#utility.yul\":19015:19027   */\n      lt\n        /* \"#utility.yul\":19011:19046   */\n      and\n        /* \"#utility.yul\":18995:19106   */\n      or\n        /* \"#utility.yul\":18992:19238   */\n      iszero\n      tag_828\n      jumpi\n        /* \"#utility.yul\":19148:19156   */\n      dup3\n        /* \"#utility.yul\":19142:19146   */\n      dup3\n        /* \"#utility.yul\":19138:19157   */\n      exp\n        /* \"#utility.yul\":19129:19157   */\n      swap1\n      pop\n        /* \"#utility.yul\":19183:19186   */\n      dup4\n        /* \"#utility.yul\":19176:19181   */\n      dup2\n        /* \"#utility.yul\":19173:19187   */\n      gt\n        /* \"#utility.yul\":19170:19210   */\n      iszero\n      tag_829\n      jumpi\n        /* \"#utility.yul\":19190:19208   */\n      tag_830\n      tag_605\n      jump\t// in\n    tag_830:\n        /* \"#utility.yul\":19170:19210   */\n    tag_829:\n        /* \"#utility.yul\":19223:19228   */\n      jump(tag_818)\n        /* \"#utility.yul\":18992:19238   */\n    tag_828:\n        /* \"#utility.yul\":19263:19305   */\n      tag_831\n        /* \"#utility.yul\":19301:19304   */\n      dup5\n        /* \"#utility.yul\":19291:19299   */\n      dup5\n        /* \"#utility.yul\":19285:19289   */\n      dup5\n        /* \"#utility.yul\":19282:19283   */\n      0x01\n        /* \"#utility.yul\":19263:19305   */\n      tag_607\n      jump\t// in\n    tag_831:\n        /* \"#utility.yul\":19248:19305   */\n      swap3\n      pop\n      swap1\n      pop\n        /* \"#utility.yul\":19337:19341   */\n      dup2\n        /* \"#utility.yul\":19332:19335   */\n      dup5\n        /* \"#utility.yul\":19328:19342   */\n      div\n        /* \"#utility.yul\":19321:19326   */\n      dup2\n        /* \"#utility.yul\":19318:19343   */\n      gt\n        /* \"#utility.yul\":19315:19366   */\n      iszero\n      tag_832\n      jumpi\n        /* \"#utility.yul\":19346:19364   */\n      tag_833\n      tag_605\n      jump\t// in\n    tag_833:\n        /* \"#utility.yul\":19315:19366   */\n    tag_832:\n        /* \"#utility.yul\":19395:19399   */\n      dup2\n        /* \"#utility.yul\":19388:19393   */\n      dup2\n        /* \"#utility.yul\":19384:19400   */\n      mul\n        /* \"#utility.yul\":19375:19400   */\n      swap1\n      pop\n        /* \"#utility.yul\":18333:19406   */\n    tag_818:\n      swap4\n      swap3\n      pop\n      pop\n      pop\n      jump\t// out\n        /* \"#utility.yul\":19412:19693   */\n    tag_497:\n        /* \"#utility.yul\":19470:19475   */\n      0x00\n        /* \"#utility.yul\":19494:19517   */\n      tag_835\n        /* \"#utility.yul\":19512:19516   */\n      dup3\n        /* \"#utility.yul\":19494:19517   */\n      tag_580\n      jump\t// in\n    tag_835:\n        /* \"#utility.yul\":19486:19517   */\n      swap2\n      pop\n        /* \"#utility.yul\":19538:19563   */\n      tag_836\n        /* \"#utility.yul\":19554:19562   */\n      dup4\n        /* \"#utility.yul\":19538:19563   */\n      tag_571\n      jump\t// in\n    tag_836:\n        /* \"#utility.yul\":19526:19563   */\n      swap3\n      pop\n        /* \"#utility.yul\":19582:19686   */\n      tag_837\n        /* \"#utility.yul\":19619:19685   */\n      0xffffffffffffffffffffffffffffffffffffffffffffffffffffffffffffffff\n        /* \"#utility.yul\":19609:19617   */\n      dup5\n        /* \"#utility.yul\":19603:19607   */\n      dup5\n        /* \"#utility.yul\":19582:19686   */\n      tag_608\n      jump\t// in\n    tag_837:\n        /* \"#utility.yul\":19573:19686   */\n      swap1\n      pop\n        /* \"#utility.yul\":19412:19693   */\n      swap3\n      swap2\n      pop\n      pop\n      jump\t// out\n        /* \"#utility.yul\":19699:20109   */\n    tag_500:\n        /* \"#utility.yul\":19739:19746   */\n      0x00\n        /* \"#utility.yul\":19762:19782   */\n      tag_839\n        /* \"#utility.yul\":19780:19781   */\n      dup3\n        /* \"#utility.yul\":19762:19782   */\n      tag_580\n      jump\t// in\n    tag_839:\n        /* \"#utility.yul\":19757:19782   */\n      swap2\n      pop\n        /* \"#utility.yul\":19796:19816   */\n      tag_840\n        /* \"#utility.yul\":19814:19815   */\n      dup4\n        /* \"#utility.yul\":19796:19816   */\n      tag_580\n      jump\t// in\n    tag_840:\n        /* \"#utility.yul\":19791:19816   */\n      swap3\n      pop\n        /* \"#utility.yul\":19851:19852   */\n      dup3\n        /* \"#utility.yul\":19848:19849   */\n      dup3\n        /* \"#utility.yul\":19844:19853   */\n      mul\n        /* \"#utility.yul\":19873:19903   */\n      tag_841\n        /* \"#utility.yul\":19891:19902   */\n      dup2\n        /* \"#utility.yul\":19873:19903   */\n      tag_580\n      jump\t// in\n    tag_841:\n        /* \"#utility.yul\":19862:19903   */\n      swap2\n      pop\n        /* \"#utility.yul\":20052:20053   */\n      dup3\n        /* \"#utility.yul\":20043:20050   */\n      dup3\n        /* \"#utility.yul\":20039:20054   */\n      div\n        /* \"#utility.yul\":20036:20037   */\n      dup5\n        /* \"#utility.yul\":20033:20055   */\n      eq\n        /* \"#utility.yul\":20013:20014   */\n      dup4\n        /* \"#utility.yul\":20006:20015   */\n      iszero\n        /* \"#utility.yul\":19986:20069   */\n      or\n        /* \"#utility.yul\":19963:20102   */\n      tag_842\n      jumpi\n        /* \"#utility.yul\":20082:20100   */\n      tag_843\n      tag_605\n      jump\t// in\n    tag_843:\n        /* \"#utility.yul\":19963:20102   */\n    tag_842:\n        /* \"#utility.yul\":19747:20109   */\n      pop\n        /* \"#utility.yul\":19699:20109   */\n      swap3\n      swap2\n      pop\n      pop\n      jump\t// out\n        /* \"#utility.yul\":20115:20295   */\n    tag_609:\n        /* \"#utility.yul\":20163:20240   */\n      0x4e487b7100000000000000000000000000000000000000000000000000000000\n        /* \"#utility.yul\":20160:20161   */\n      0x00\n        /* \"#utility.yul\":20153:20241   */\n      mstore\n        /* \"#utility.yul\":20260:20264   */\n      0x12\n        /* \"#utility.yul\":20257:20258   */\n      0x04\n        /* \"#utility.yul\":20250:20265   */\n      mstore\n        /* \"#utility.yul\":20284:20288   */\n      0x24\n        /* \"#utility.yul\":20281:20282   */\n      0x00\n        /* \"#utility.yul\":20274:20289   */\n      revert\n        /* \"#utility.yul\":20301:20486   */\n    tag_505:\n        /* \"#utility.yul\":20341:20342   */\n      0x00\n        /* \"#utility.yul\":20358:20378   */\n      tag_846\n        /* \"#utility.yul\":20376:20377   */\n      dup3\n        /* \"#utility.yul\":20358:20378   */\n      tag_580\n      jump\t// in\n    tag_846:\n        /* \"#utility.yul\":20353:20378   */\n      swap2\n      pop\n        /* \"#utility.yul\":20392:20412   */\n      tag_847\n        /* \"#utility.yul\":20410:20411   */\n      dup4\n        /* \"#utility.yul\":20392:20412   */\n      tag_580\n      jump\t// in\n    tag_847:\n        /* \"#utility.yul\":20387:20412   */\n      swap3\n      pop\n        /* \"#utility.yul\":20431:20432   */\n      dup3\n        /* \"#utility.yul\":20421:20456   */\n      tag_848\n      jumpi\n        /* \"#utility.yul\":20436:20454   */\n      tag_849\n      tag_609\n      jump\t// in\n    tag_849:\n        /* \"#utility.yul\":20421:20456   */\n    tag_848:\n        /* \"#utility.yul\":20478:20479   */\n      dup3\n        /* \"#utility.yul\":20475:20476   */\n      dup3\n        /* \"#utility.yul\":20471:20480   */\n      div\n        /* \"#utility.yul\":20466:20480   */\n      swap1\n      pop\n        /* \"#utility.yul\":20301:20486   */\n      swap3\n      swap2\n      pop\n      pop\n      jump\t// out\n        /* \"#utility.yul\":20492:20597   */\n    tag_610:\n        /* \"#utility.yul\":20528:20535   */\n      0x00\n        /* \"#utility.yul\":20568:20590   */\n      0xffffffffffffffffffff\n        /* \"#utility.yul\":20561:20566   */\n      dup3\n        /* \"#utility.yul\":20557:20591   */\n      and\n        /* \"#utility.yul\":20546:20591   */\n      swap1\n      pop\n        /* \"#utility.yul\":20492:20597   */\n      swap2\n      swap1\n      pop\n      jump\t// out\n        /* \"#utility.yul\":20603:20723   */\n    tag_611:\n        /* \"#utility.yul\":20675:20698   */\n      tag_852\n        /* \"#utility.yul\":20692:20697   */\n      dup2\n        /* \"#utility.yul\":20675:20698   */\n      tag_610\n      jump\t// in\n    tag_852:\n        /* \"#utility.yul\":20668:20673   */\n      dup2\n        /* \"#utility.yul\":20665:20699   */\n      eq\n        /* \"#utility.yul\":20655:20717   */\n      tag_853\n      jumpi\n        /* \"#utility.yul\":20713:20714   */\n      0x00\n        /* \"#utility.yul\":20710:20711   */\n      0x00\n        /* \"#utility.yul\":20703:20715   */\n      revert\n        /* \"#utility.yul\":20655:20717   */\n    tag_853:\n        /* \"#utility.yul\":20603:20723   */\n      pop\n      jump\t// out\n        /* \"#utility.yul\":20729:20870   */\n    tag_612:\n        /* \"#utility.yul\":20785:20790   */\n      0x00\n        /* \"#utility.yul\":20816:20822   */\n      dup2\n        /* \"#utility.yul\":20810:20823   */\n      mload\n        /* \"#utility.yul\":20801:20823   */\n      swap1\n      pop\n        /* \"#utility.yul\":20832:20864   */\n      tag_855\n        /* \"#utility.yul\":20858:20863   */\n      dup2\n        /* \"#utility.yul\":20832:20864   */\n      tag_611\n      jump\t// in\n    tag_855:\n        /* \"#utility.yul\":20729:20870   */\n      swap3\n      swap2\n      pop\n      pop\n      jump\t// out\n        /* \"#utility.yul\":20876:20952   */\n    tag_613:\n        /* \"#utility.yul\":20912:20919   */\n      0x00\n        /* \"#utility.yul\":20941:20946   */\n      dup2\n        /* \"#utility.yul\":20930:20946   */\n      swap1\n      pop\n        /* \"#utility.yul\":20876:20952   */\n      swap2\n      swap1\n      pop\n      jump\t// out\n        /* \"#utility.yul\":20958:21078   */\n    tag_614:\n        /* \"#utility.yul\":21030:21053   */\n      tag_858\n        /* \"#utility.yul\":21047:21052   */\n      dup2\n        /* \"#utility.yul\":21030:21053   */\n      tag_613\n      jump\t// in\n    tag_858:\n        /* \"#utility.yul\":21023:21028   */\n      dup2\n        /* \"#utility.yul\":21020:21054   */\n      eq\n        /* \"#utility.yul\":21010:21072   */\n      tag_859\n      jumpi\n        /* \"#utility.yul\":21068:21069   */\n      0x00\n        /* \"#utility.yul\":21065:21066   */\n      0x00\n        /* \"#utility.yul\":21058:21070   */\n      revert\n        /* \"#utility.yul\":21010:21072   */\n    tag_859:\n        /* \"#utility.yul\":20958:21078   */\n      pop\n      jump\t// out\n        /* \"#utility.yul\":21084:21225   */\n    tag_615:\n        /* \"#utility.yul\":21140:21145   */\n      0x00\n        /* \"#utility.yul\":21171:21177   */\n      dup2\n        /* \"#utility.yul\":21165:21178   */\n      mload\n        /* \"#utility.yul\":21156:21178   */\n      swap1\n      pop\n        /* \"#utility.yul\":21187:21219   */\n      tag_861\n        /* \"#utility.yul\":21213:21218   */\n      dup2\n        /* \"#utility.yul\":21187:21219   */\n      tag_614\n      jump\t// in\n    tag_861:\n        /* \"#utility.yul\":21084:21225   */\n      swap3\n      swap2\n      pop\n      pop\n      jump\t// out\n        /* \"#utility.yul\":21231:21374   */\n    tag_616:\n        /* \"#utility.yul\":21288:21293   */\n      0x00\n        /* \"#utility.yul\":21319:21325   */\n      dup2\n        /* \"#utility.yul\":21313:21326   */\n      mload\n        /* \"#utility.yul\":21304:21326   */\n      swap1\n      pop\n        /* \"#utility.yul\":21335:21368   */\n      tag_863\n        /* \"#utility.yul\":21362:21367   */\n      dup2\n        /* \"#utility.yul\":21335:21368   */\n      tag_588\n      jump\t// in\n    tag_863:\n        /* \"#utility.yul\":21231:21374   */\n      swap3\n      swap2\n      pop\n      pop\n      jump\t// out\n        /* \"#utility.yul\":21380:22351   */\n    tag_527:\n        /* \"#utility.yul\":21483:21489   */\n      0x00\n        /* \"#utility.yul\":21491:21497   */\n      0x00\n        /* \"#utility.yul\":21499:21505   */\n      0x00\n        /* \"#utility.yul\":21507:21513   */\n      0x00\n        /* \"#utility.yul\":21515:21521   */\n      0x00\n        /* \"#utility.yul\":21564:21567   */\n      0xa0\n        /* \"#utility.yul\":21552:21561   */\n      dup7\n        /* \"#utility.yul\":21543:21550   */\n      dup9\n        /* \"#utility.yul\":21539:21562   */\n      sub\n        /* \"#utility.yul\":21535:21568   */\n      slt\n        /* \"#utility.yul\":21532:21652   */\n      iszero\n      tag_865\n      jumpi\n        /* \"#utility.yul\":21571:21650   */\n      tag_866\n      tag_559\n      jump\t// in\n    tag_866:\n        /* \"#utility.yul\":21532:21652   */\n    tag_865:\n        /* \"#utility.yul\":21691:21692   */\n      0x00\n        /* \"#utility.yul\":21716:21779   */\n      tag_867\n        /* \"#utility.yul\":21771:21778   */\n      dup9\n        /* \"#utility.yul\":21762:21768   */\n      dup3\n        /* \"#utility.yul\":21751:21760   */\n      dup10\n        /* \"#utility.yul\":21747:21769   */\n      add\n        /* \"#utility.yul\":21716:21779   */\n      tag_612\n      jump\t// in\n    tag_867:\n        /* \"#utility.yul\":21706:21779   */\n      swap6\n      pop\n        /* \"#utility.yul\":21662:21789   */\n      pop\n        /* \"#utility.yul\":21828:21830   */\n      0x20\n        /* \"#utility.yul\":21854:21917   */\n      tag_868\n        /* \"#utility.yul\":21909:21916   */\n      dup9\n        /* \"#utility.yul\":21900:21906   */\n      dup3\n        /* \"#utility.yul\":21889:21898   */\n      dup10\n        /* \"#utility.yul\":21885:21907   */\n      add\n        /* \"#utility.yul\":21854:21917   */\n      tag_615\n      jump\t// in\n    tag_868:\n        /* \"#utility.yul\":21844:21917   */\n      swap5\n      pop\n        /* \"#utility.yul\":21799:21927   */\n      pop\n        /* \"#utility.yul\":21966:21968   */\n      0x40\n        /* \"#utility.yul\":21992:22056   */\n      tag_869\n        /* \"#utility.yul\":22048:22055   */\n      dup9\n        /* \"#utility.yul\":22039:22045   */\n      dup3\n        /* \"#utility.yul\":22028:22037   */\n      dup10\n        /* \"#utility.yul\":22024:22046   */\n      add\n        /* \"#utility.yul\":21992:22056   */\n      tag_616\n      jump\t// in\n    tag_869:\n        /* \"#utility.yul\":21982:22056   */\n      swap4\n      pop\n        /* \"#utility.yul\":21937:22066   */\n      pop\n        /* \"#utility.yul\":22105:22107   */\n      0x60\n        /* \"#utility.yul\":22131:22195   */\n      tag_870\n        /* \"#utility.yul\":22187:22194   */\n      dup9\n        /* \"#utility.yul\":22178:22184   */\n      dup3\n        /* \"#utility.yul\":22167:22176   */\n      dup10\n        /* \"#utility.yul\":22163:22185   */\n      add\n        /* \"#utility.yul\":22131:22195   */\n      tag_616\n      jump\t// in\n    tag_870:\n        /* \"#utility.yul\":22121:22195   */\n      swap3\n      pop\n        /* \"#utility.yul\":22076:22205   */\n      pop\n        /* \"#utility.yul\":22244:22247   */\n      0x80\n        /* \"#utility.yul\":22271:22334   */\n      tag_871\n        /* \"#utility.yul\":22326:22333   */\n      dup9\n        /* \"#utility.yul\":22317:22323   */\n      dup3\n        /* \"#utility.yul\":22306:22315   */\n      dup10\n        /* \"#utility.yul\":22302:22324   */\n      add\n        /* \"#utility.yul\":22271:22334   */\n      tag_612\n      jump\t// in\n    tag_871:\n        /* \"#utility.yul\":22261:22334   */\n      swap2\n      pop\n        /* \"#utility.yul\":22215:22344   */\n      pop\n        /* \"#utility.yul\":21380:22351   */\n      swap3\n      swap6\n      pop\n      swap3\n      swap6\n      swap1\n      swap4\n      pop\n      jump\t// out\n        /* \"#utility.yul\":22357:22504   */\n    tag_617:\n        /* \"#utility.yul\":22458:22469   */\n      0x00\n        /* \"#utility.yul\":22495:22498   */\n      dup2\n        /* \"#utility.yul\":22480:22498   */\n      swap1\n      pop\n        /* \"#utility.yul\":22357:22504   */\n      swap3\n      swap2\n      pop\n      pop\n      jump\t// out\n        /* \"#utility.yul\":22510:22624   */\n    tag_618:\n      pop\n      jump\t// out\n        /* \"#utility.yul\":22630:23028   */\n    tag_619:\n        /* \"#utility.yul\":22789:22792   */\n      0x00\n        /* \"#utility.yul\":22810:22893   */\n      tag_875\n        /* \"#utility.yul\":22891:22892   */\n      0x00\n        /* \"#utility.yul\":22886:22889   */\n      dup4\n        /* \"#utility.yul\":22810:22893   */\n      tag_617\n      jump\t// in\n    tag_875:\n        /* \"#utility.yul\":22803:22893   */\n      swap2\n      pop\n        /* \"#utility.yul\":22902:22995   */\n      tag_876\n        /* \"#utility.yul\":22991:22994   */\n      dup3\n        /* \"#utility.yul\":22902:22995   */\n      tag_618\n      jump\t// in\n    tag_876:\n        /* \"#utility.yul\":23020:23021   */\n      0x00\n        /* \"#utility.yul\":23015:23018   */\n      dup3\n        /* \"#utility.yul\":23011:23022   */\n      add\n        /* \"#utility.yul\":23004:23022   */\n      swap1\n      pop\n        /* \"#utility.yul\":22630:23028   */\n      swap2\n      swap1\n      pop\n      jump\t// out\n        /* \"#utility.yul\":23034:23413   */\n    tag_534:\n        /* \"#utility.yul\":23218:23221   */\n      0x00\n        /* \"#utility.yul\":23240:23387   */\n      tag_878\n        /* \"#utility.yul\":23383:23386   */\n      dup3\n        /* \"#utility.yul\":23240:23387   */\n      tag_619\n      jump\t// in\n    tag_878:\n        /* \"#utility.yul\":23233:23387   */\n      swap2\n      pop\n        /* \"#utility.yul\":23404:23407   */\n      dup2\n        /* \"#utility.yul\":23397:23407   */\n      swap1\n      pop\n        /* \"#utility.yul\":23034:23413   */\n      swap2\n      swap1\n      pop\n      jump\t// out\n        /* \"#utility.yul\":23419:23751   */\n    tag_542:\n        /* \"#utility.yul\":23540:23544   */\n      0x00\n        /* \"#utility.yul\":23578:23580   */\n      0x40\n        /* \"#utility.yul\":23567:23576   */\n      dup3\n        /* \"#utility.yul\":23563:23581   */\n      add\n        /* \"#utility.yul\":23555:23581   */\n      swap1\n      pop\n        /* \"#utility.yul\":23591:23662   */\n      tag_880\n        /* \"#utility.yul\":23659:23660   */\n      0x00\n        /* \"#utility.yul\":23648:23657   */\n      dup4\n        /* \"#utility.yul\":23644:23661   */\n      add\n        /* \"#utility.yul\":23635:23641   */\n      dup6\n        /* \"#utility.yul\":23591:23662   */\n      tag_582\n      jump\t// in\n    tag_880:\n        /* \"#utility.yul\":23672:23744   */\n      tag_881\n        /* \"#utility.yul\":23740:23742   */\n      0x20\n        /* \"#utility.yul\":23729:23738   */\n      dup4\n        /* \"#utility.yul\":23725:23743   */\n      add\n        /* \"#utility.yul\":23716:23722   */\n      dup5\n        /* \"#utility.yul\":23672:23744   */\n      tag_581\n      jump\t// in\n    tag_881:\n        /* \"#utility.yul\":23419:23751   */\n      swap4\n      swap3\n      pop\n      pop\n      pop\n      jump\t// out\n        /* \"#utility.yul\":23757:24089   */\n    tag_548:\n        /* \"#utility.yul\":23878:23882   */\n      0x00\n        /* \"#utility.yul\":23916:23918   */\n      0x40\n        /* \"#utility.yul\":23905:23914   */\n      dup3\n        /* \"#utility.yul\":23901:23919   */\n      add\n        /* \"#utility.yul\":23893:23919   */\n      swap1\n      pop\n        /* \"#utility.yul\":23929:24000   */\n      tag_883\n        /* \"#utility.yul\":23997:23998   */\n      0x00\n        /* \"#utility.yul\":23986:23995   */\n      dup4\n        /* \"#utility.yul\":23982:23999   */\n      add\n        /* \"#utility.yul\":23973:23979   */\n      dup6\n        /* \"#utility.yul\":23929:24000   */\n      tag_582\n      jump\t// in\n    tag_883:\n        /* \"#utility.yul\":24010:24082   */\n      tag_884\n        /* \"#utility.yul\":24078:24080   */\n      0x20\n        /* \"#utility.yul\":24067:24076   */\n      dup4\n        /* \"#utility.yul\":24063:24081   */\n      add\n        /* \"#utility.yul\":24054:24060   */\n      dup5\n        /* \"#utility.yul\":24010:24082   */\n      tag_578\n      jump\t// in\n    tag_884:\n        /* \"#utility.yul\":23757:24089   */\n      swap4\n      swap3\n      pop\n      pop\n      pop\n      jump\t// out\n\n    auxdata: 0xa26469706673582212209529d26c2c3a1c5115eace0f389cc412bb573832c142f7a07c19e7d0812388c864736f6c634300081e0033\n}\n",
				"bytecode": {
					"linkReferences": {},
					"object": "60e060405234801561000f575f5ffd5b5060405161456e38038061456e833981810160405281019061003191906105e6565b600180819055505f73ffffffffffffffffffffffffffffffffffffffff168373ffffffffffffffffffffffffffffffffffffffff160361009d576040517f52cc3f7d00000000000000000000000000000000000000000000000000000000815260040160405180910390fd5b5f82036100d6576040517f2c5211c600000000000000000000000000000000000000000000000000000000815260040160405180910390fd5b5f810361010f576040517f2c5211c600000000000000000000000000000000000000000000000000000000815260040160405180910390fd5b81811115610149576040517f4e6a369600000000000000000000000000000000000000000000000000000000815260040160405180910390fd5b8273ffffffffffffffffffffffffffffffffffffffff1660808173ffffffffffffffffffffffffffffffffffffffff16815250508160a081815250508060c0818152505061019f5f5f1b3361021c60201b60201c565b506101d07fa49807205ce4d355092ef5a8a18f56e8913cf4a201fbe287825b095693c217753361021c60201b60201c565b506102017f97667070c54ef182b0f5858b034beac1b6f3089aa2d3188bb1e8929f4fa9b9293361021c60201b60201c565b506102145f60128561031160201b60201c565b505050610687565b5f61022d83836104eb60201b60201c565b6103075760015f5f8581526020019081526020015f205f015f8473ffffffffffffffffffffffffffffffffffffffff1673ffffffffffffffffffffffffffffffffffffffff1681526020019081526020015f205f6101000a81548160ff0219169083151502179055506102a461054e60201b60201c565b73ffffffffffffffffffffffffffffffffffffffff168273ffffffffffffffffffffffffffffffffffffffff16847f2f8788117e7eff1d82e926ec794901d17c78024a50270940304540a733656f0d60405160405180910390a46001905061030b565b5f90505b92915050565b600160085f8573ffffffffffffffffffffffffffffffffffffffff1673ffffffffffffffffffffffffffffffffffffffff1681526020019081526020015f205f6101000a81548160ff0219169083151502179055508160095f8573ffffffffffffffffffffffffffffffffffffffff1673ffffffffffffffffffffffffffffffffffffffff1681526020019081526020015f205f6101000a81548160ff021916908360ff16021790555080600a5f8573ffffffffffffffffffffffffffffffffffffffff1673ffffffffffffffffffffffffffffffffffffffff1681526020019081526020015f205f6101000a81548173ffffffffffffffffffffffffffffffffffffffff021916908373ffffffffffffffffffffffffffffffffffffffff160217905550600683908060018154018082558091505060019003905f5260205f20015f9091909190916101000a81548173ffffffffffffffffffffffffffffffffffffffff021916908373ffffffffffffffffffffffffffffffffffffffff1602179055508273ffffffffffffffffffffffffffffffffffffffff167f71eedf6e504658772ec96be84d876ae5c35b713cfdbfb47fe2c0053e9bdfe37b83836040516104de929190610660565b60405180910390a2505050565b5f5f5f8481526020019081526020015f205f015f8373ffffffffffffffffffffffffffffffffffffffff1673ffffffffffffffffffffffffffffffffffffffff1681526020019081526020015f205f9054906101000a900460ff16905092915050565b5f33905090565b5f5ffd5b5f73ffffffffffffffffffffffffffffffffffffffff82169050919050565b5f61058282610559565b9050919050565b61059281610578565b811461059c575f5ffd5b50565b5f815190506105ad81610589565b92915050565b5f819050919050565b6105c5816105b3565b81146105cf575f5ffd5b50565b5f815190506105e0816105bc565b92915050565b5f5f5f606084860312156105fd576105fc610555565b5b5f61060a8682870161059f565b935050602061061b868287016105d2565b925050604061062c868287016105d2565b9150509250925092565b5f60ff82169050919050565b61064b81610636565b82525050565b61065a81610578565b82525050565b5f6040820190506106735f830185610642565b6106806020830184610651565b9392505050565b60805160a05160c051613e7e6106f05f395f8181610e5901528181611ce10152818161205201528181612088015281816120b0015281816122ff015261233401525f818161166b01528181611970015261277f01525f8181610c990152612d8d0152613e7e5ff3fe60806040526004361061025b575f3560e01c806375151b6311610143578063c6e8e38c116100b5578063db6b524611610079578063db6b52461461093e578063ee95799614610948578063f3fef3a314610984578063f5b541a6146109ac578063fa09e630146109d6578063ffecbc17146109fe5761025b565b8063c6e8e38c14610847578063d02641a014610874578063d3c7c2c7146108b0578063d4fac45d146108da578063d547741f146109165761025b565b8063965e12dc11610107578063965e12dc14610713578063a217fddf1461073d578063ac4543ba14610767578063bd9c47e314610791578063c53d6ce1146107cd578063c62556261461080b5761025b565b806375151b631461061f57806375b238fc1461065b5780638456cb59146106855780638ee573ac1461069b57806391d14854146106d75761025b565b806345037ac9116101dc5780635476bd72116101a05780635476bd721461050357806357f1915d1461052b5780635c975abb146105675780635fa7b5841461059157806370d397e9146105b957806371706cbe146105f55761025b565b806345037ac91461042157806347e7ef241461044b5780634d635e70146104735780634ed94b24146104af57806351247424146104d95761025b565b80632f2ff15d116102235780632f2ff15d1461036757806331f7d9641461038f57806336568abe146103b95780633f4ba83a146103e157806342f6fb29146103f75761025b565b806301ffc9a71461025f5780631f69565f1461029b578063248a9ca3146102d75780632b825ad6146103135780632dfdf0b51461033d575b5f5ffd5b34801561026a575f5ffd5b506102856004803603810190610280919061324e565b610a3a565b6040516102929190613293565b60405180910390f35b3480156102a6575f5ffd5b506102c160048036038101906102bc9190613306565b610a4b565b6040516102ce91906133bd565b60405180910390f35b3480156102e2575f5ffd5b506102fd60048036038101906102f89190613409565b610b9a565b60405161030a9190613443565b60405180910390f35b34801561031e575f5ffd5b50610327610bb6565b604051610334919061346b565b60405180910390f35b348015610348575f5ffd5b50610351610bbb565b60405161035e919061349c565b60405180910390f35b348015610372575f5ffd5b5061038d600480360381019061038891906134b5565b610bc1565b005b34801561039a575f5ffd5b506103a3610be3565b6040516103b09190613502565b60405180910390f35b3480156103c4575f5ffd5b506103df60048036038101906103da91906134b5565b610be7565b005b3480156103ec575f5ffd5b506103f5610c62565b005b348015610402575f5ffd5b5061040b610c97565b6040516104189190613576565b60405180910390f35b34801561042c575f5ffd5b50610435610cbb565b604051610442919061349c565b60405180910390f35b348015610456575f5ffd5b50610471600480360381019061046c91906135b9565b610cc1565b005b34801561047e575f5ffd5b50610499600480360381019061049491906135f7565b610e32565b6040516104a6919061349c565b60405180910390f35b3480156104ba575f5ffd5b506104c3610e52565b6040516104d0919061346b565b60405180910390f35b3480156104e4575f5ffd5b506104ed610e57565b6040516104fa919061349c565b60405180910390f35b34801561050e575f5ffd5b50610529600480360381019061052491906135f7565b610e7b565b005b348015610536575f5ffd5b50610551600480360381019061054c91906135b9565b6110d6565b60405161055e919061349c565b60405180910390f35b348015610572575f5ffd5b5061057b6110e9565b6040516105889190613293565b60405180910390f35b34801561059c575f5ffd5b506105b760048036038101906105b29190613306565b6110fe565b005b3480156105c4575f5ffd5b506105df60048036038101906105da91906135f7565b6114d0565b6040516105ec919061349c565b60405180910390f35b348015610600575f5ffd5b50610609611560565b604051610616919061349c565b60405180910390f35b34801561062a575f5ffd5b5061064560048036038101906106409190613306565b611566565b6040516106529190613293565b60405180910390f35b348015610666575f5ffd5b5061066f611583565b60405161067c9190613443565b60405180910390f35b348015610690575f5ffd5b506106996115a7565b005b3480156106a6575f5ffd5b506106c160048036038101906106bc9190613306565b6115dc565b6040516106ce919061346b565b60405180910390f35b3480156106e2575f5ffd5b506106fd60048036038101906106f891906134b5565b6115f9565b60405161070a9190613293565b60405180910390f35b34801561071e575f5ffd5b5061072761165c565b604051610734919061349c565b60405180910390f35b348015610748575f5ffd5b50610751611663565b60405161075e9190613443565b60405180910390f35b348015610772575f5ffd5b5061077b611669565b604051610788919061349c565b60405180910390f35b34801561079c575f5ffd5b506107b760048036038101906107b29190613306565b61168d565b6040516107c49190613576565b60405180910390f35b3480156107d8575f5ffd5b506107f360048036038101906107ee9190613306565b6116bd565b60405161080293929190613794565b60405180910390f35b348015610816575f5ffd5b50610831600480360381019061082c91906137de565b611923565b60405161083e9190613502565b60405180910390f35b348015610852575f5ffd5b5061085b61195e565b60405161086b9493929190613809565b60405180910390f35b34801561087f575f5ffd5b5061089a60048036038101906108959190613306565b6119a7565b6040516108a7919061349c565b60405180910390f35b3480156108bb575f5ffd5b506108c46119b8565b6040516108d1919061384c565b60405180910390f35b3480156108e5575f5ffd5b5061090060048036038101906108fb91906135f7565b611a43565b60405161090d919061349c565b60405180910390f35b348015610921575f5ffd5b5061093c600480360381019061093791906134b5565b611ac5565b005b610946611ae7565b005b348015610953575f5ffd5b5061096e600480360381019061096991906135b9565b611b44565b60405161097b919061349c565b60405180910390f35b34801561098f575f5ffd5b506109aa60048036038101906109a591906135b9565b611b57565b005b3480156109b7575f5ffd5b506109c0611ed8565b6040516109cd9190613443565b60405180910390f35b3480156109e1575f5ffd5b506109fc60048036038101906109f79190613306565b611efc565b005b348015610a09575f5ffd5b50610a246004803603810190610a1f91906135f7565b612273565b604051610a31919061349c565b60405180910390f35b5f610a4482612363565b9050919050565b610a536131a0565b60405180608001604052808373ffffffffffffffffffffffffffffffffffffffff16815260200160095f8573ffffffffffffffffffffffffffffffffffffffff1673ffffffffffffffffffffffffffffffffffffffff1681526020019081526020015f205f9054906101000a900460ff1660ff16815260200160085f8573ffffffffffffffffffffffffffffffffffffffff1673ffffffffffffffffffffffffffffffffffffffff1681526020019081526020015f205f9054906101000a900460ff1615158152602001600a5f8573ffffffffffffffffffffffffffffffffffffffff1673ffffffffffffffffffffffffffffffffffffffff1681526020019081526020015f205f9054906101000a900473ffffffffffffffffffffffffffffffffffffffff1673ffffffffffffffffffffffffffffffffffffffff168152509050919050565b5f5f5f8381526020019081526020015f20600101549050919050565b600681565b60045481565b610bca82610b9a565b610bd3816123dc565b610bdd83836123f0565b50505050565b5f81565b610bef6124d9565b73ffffffffffffffffffffffffffffffffffffffff168173ffffffffffffffffffffffffffffffffffffffff1614610c53576040517f6697b23200000000000000000000000000000000000000000000000000000000815260040160405180910390fd5b610c5d82826124e0565b505050565b7f97667070c54ef182b0f5858b034beac1b6f3089aa2d3188bb1e8929f4fa9b929610c8c816123dc565b610c946125c9565b50565b7f000000000000000000000000000000000000000000000000000000000000000081565b60035481565b610cc961262a565b610cd161266b565b5f73ffffffffffffffffffffffffffffffffffffffff168273ffffffffffffffffffffffffffffffffffffffff1603610d36576040517f1eb00b0600000000000000000000000000000000000000000000000000000000815260040160405180910390fd5b5f8103610d6f576040517f2c5211c600000000000000000000000000000000000000000000000000000000815260040160405180910390fd5b60085f8373ffffffffffffffffffffffffffffffffffffffff1673ffffffffffffffffffffffffffffffffffffffff1681526020019081526020015f205f9054906101000a900460ff16610def576040517f3dd1b30500000000000000000000000000000000000000000000000000000000815260040160405180910390fd5b610e1c3330838573ffffffffffffffffffffffffffffffffffffffff166126b1909392919063ffffffff16565b610e268282612733565b610e2e61290d565b5050565b6007602052815f5260405f20602052805f5260405f205f91509150505481565b600881565b7f000000000000000000000000000000000000000000000000000000000000000081565b7fa49807205ce4d355092ef5a8a18f56e8913cf4a201fbe287825b095693c21775610ea5816123dc565b5f73ffffffffffffffffffffffffffffffffffffffff168373ffffffffffffffffffffffffffffffffffffffff1603610f0a576040517f1eb00b0600000000000000000000000000000000000000000000000000000000815260040160405180910390fd5b5f73ffffffffffffffffffffffffffffffffffffffff168373ffffffffffffffffffffffffffffffffffffffff1603610f6f576040517fc78e82ad00000000000000000000000000000000000000000000000000000000815260040160405180910390fd5b5f73ffffffffffffffffffffffffffffffffffffffff168273ffffffffffffffffffffffffffffffffffffffff1603610fd4576040517f52cc3f7d00000000000000000000000000000000000000000000000000000000815260040160405180910390fd5b60085f8473ffffffffffffffffffffffffffffffffffffffff1673ffffffffffffffffffffffffffffffffffffffff1681526020019081526020015f205f9054906101000a900460ff1615611055576040517fc78e82ad00000000000000000000000000000000000000000000000000000000815260040160405180910390fd5b5f8373ffffffffffffffffffffffffffffffffffffffff1663313ce5676040518163ffffffff1660e01b8152600401602060405180830381865afa15801561109f573d5f5f3e3d5ffd5b505050506040513d601f19601f820116820180604052508101906110c39190613896565b90506110d0848285612916565b50505050565b5f6110e18383612af0565b905092915050565b5f60025f9054906101000a900460ff16905090565b7fa49807205ce4d355092ef5a8a18f56e8913cf4a201fbe287825b095693c21775611128816123dc565b5f73ffffffffffffffffffffffffffffffffffffffff168273ffffffffffffffffffffffffffffffffffffffff160361118d576040517f1eb00b0600000000000000000000000000000000000000000000000000000000815260040160405180910390fd5b60085f8373ffffffffffffffffffffffffffffffffffffffff1673ffffffffffffffffffffffffffffffffffffffff1681526020019081526020015f205f9054906101000a900460ff1661120d576040517f3dd1b30500000000000000000000000000000000000000000000000000000000815260040160405180910390fd5b5f60085f8473ffffffffffffffffffffffffffffffffffffffff1673ffffffffffffffffffffffffffffffffffffffff1681526020019081526020015f205f6101000a81548160ff02191690831515021790555060095f8373ffffffffffffffffffffffffffffffffffffffff1673ffffffffffffffffffffffffffffffffffffffff1681526020019081526020015f205f6101000a81549060ff0219169055600a5f8373ffffffffffffffffffffffffffffffffffffffff1673ffffffffffffffffffffffffffffffffffffffff1681526020019081526020015f205f6101000a81549073ffffffffffffffffffffffffffffffffffffffff02191690555f5f90505b600680549050811015611488578273ffffffffffffffffffffffffffffffffffffffff1660068281548110611349576113486138c1565b5b905f5260205f20015f9054906101000a900473ffffffffffffffffffffffffffffffffffffffff1673ffffffffffffffffffffffffffffffffffffffff160361147b57600660016006805490506113a0919061391b565b815481106113b1576113b06138c1565b5b905f5260205f20015f9054906101000a900473ffffffffffffffffffffffffffffffffffffffff16600682815481106113ed576113ec6138c1565b5b905f5260205f20015f6101000a81548173ffffffffffffffffffffffffffffffffffffffff021916908373ffffffffffffffffffffffffffffffffffffffff16021790555060068054806114445761144361394e565b5b600190038181905f5260205f20015f6101000a81549073ffffffffffffffffffffffffffffffffffffffff02191690559055611488565b8080600101915050611311565b508173ffffffffffffffffffffffffffffffffffffffff167f4c910b69fe65a61f7531b9c5042b2329ca7179c77290aa7e2eb3afa3c8511fd360405160405180910390a25050565b5f5f60075f8573ffffffffffffffffffffffffffffffffffffffff1673ffffffffffffffffffffffffffffffffffffffff1681526020019081526020015f205f8473ffffffffffffffffffffffffffffffffffffffff1673ffffffffffffffffffffffffffffffffffffffff1681526020019081526020015f205490506115578382612bc1565b91505092915050565b60055481565b6008602052805f5260405f205f915054906101000a900460ff1681565b7fa49807205ce4d355092ef5a8a18f56e8913cf4a201fbe287825b095693c2177581565b7f97667070c54ef182b0f5858b034beac1b6f3089aa2d3188bb1e8929f4fa9b9296115d1816123dc565b6115d9612c92565b50565b6009602052805f5260405f205f915054906101000a900460ff1681565b5f5f5f8481526020019081526020015f205f015f8373ffffffffffffffffffffffffffffffffffffffff1673ffffffffffffffffffffffffffffffffffffffff1681526020019081526020015f205f9054906101000a900460ff16905092915050565b620186a081565b5f5f1b81565b7f000000000000000000000000000000000000000000000000000000000000000081565b600a602052805f5260405f205f915054906101000a900473ffffffffffffffffffffffffffffffffffffffff1681565b60608060605f60068054905090508067ffffffffffffffff8111156116e5576116e461397b565b5b6040519080825280602002602001820160405280156117135781602001602082028036833780820191505090505b5093508067ffffffffffffffff8111156117305761172f61397b565b5b60405190808252806020026020018201604052801561175e5781602001602082028036833780820191505090505b5092508067ffffffffffffffff81111561177b5761177a61397b565b5b6040519080825280602002602001820160405280156117a95781602001602082028036833780820191505090505b5091505f5f90505b8181101561191a575f600682815481106117ce576117cd6138c1565b5b905f5260205f20015f9054906101000a900473ffffffffffffffffffffffffffffffffffffffff1690505f60075f8973ffffffffffffffffffffffffffffffffffffffff1673ffffffffffffffffffffffffffffffffffffffff1681526020019081526020015f205f8373ffffffffffffffffffffffffffffffffffffffff1673ffffffffffffffffffffffffffffffffffffffff1681526020019081526020015f2054905081878481518110611888576118876138c1565b5b602002602001019073ffffffffffffffffffffffffffffffffffffffff16908173ffffffffffffffffffffffffffffffffffffffff1681525050808684815181106118d6576118d56138c1565b5b6020026020010181815250506118ec8282612bc1565b8584815181106118ff576118fe6138c1565b5b602002602001018181525050505080806001019150506117b1565b50509193909250565b60068181548110611932575f80fd5b905f5260205f20015f915054906101000a900473ffffffffffffffffffffffffffffffffffffffff1681565b5f5f5f5f6003546004546005546003547f0000000000000000000000000000000000000000000000000000000000000000611999919061391b565b935093509350935090919293565b5f6119b182612cf4565b9050919050565b60606006805480602002602001604051908101604052809291908181526020018280548015611a3957602002820191905f5260205f20905b815f9054906101000a900473ffffffffffffffffffffffffffffffffffffffff1673ffffffffffffffffffffffffffffffffffffffff16815260200190600101908083116119f0575b5050505050905090565b5f60075f8473ffffffffffffffffffffffffffffffffffffffff1673ffffffffffffffffffffffffffffffffffffffff1681526020019081526020015f205f8373ffffffffffffffffffffffffffffffffffffffff1673ffffffffffffffffffffffffffffffffffffffff1681526020019081526020015f2054905092915050565b611ace82610b9a565b611ad7816123dc565b611ae183836124e0565b50505050565b611aef61262a565b611af761266b565b5f3403611b30576040517f2c5211c600000000000000000000000000000000000000000000000000000000815260040160405180910390fd5b611b3a5f34612733565b611b4261290d565b565b5f611b4f8383612bc1565b905092915050565b611b5f61262a565b611b6761266b565b5f8103611ba0576040517f2c5211c600000000000000000000000000000000000000000000000000000000815260040160405180910390fd5b60085f8373ffffffffffffffffffffffffffffffffffffffff1673ffffffffffffffffffffffffffffffffffffffff1681526020019081526020015f205f9054906101000a900460ff16611c20576040517f3dd1b30500000000000000000000000000000000000000000000000000000000815260040160405180910390fd5b8060075f3373ffffffffffffffffffffffffffffffffffffffff1673ffffffffffffffffffffffffffffffffffffffff1681526020019081526020015f205f8473ffffffffffffffffffffffffffffffffffffffff1673ffffffffffffffffffffffffffffffffffffffff1681526020019081526020015f20541015611cd2576040517ff4d678b800000000000000000000000000000000000000000000000000000000815260040160405180910390fd5b5f611cdd8383612bc1565b90507f0000000000000000000000000000000000000000000000000000000000000000811115611d39576040517f4e6a369600000000000000000000000000000000000000000000000000000000815260040160405180910390fd5b8160075f3373ffffffffffffffffffffffffffffffffffffffff1673ffffffffffffffffffffffffffffffffffffffff1681526020019081526020015f205f8573ffffffffffffffffffffffffffffffffffffffff1673ffffffffffffffffffffffffffffffffffffffff1681526020019081526020015f205f828254611dc0919061391b565b925050819055508060035f828254611dd8919061391b565b9250508190555060055f815480929190611df1906139a8565b91905055505f73ffffffffffffffffffffffffffffffffffffffff168373ffffffffffffffffffffffffffffffffffffffff1603611e3857611e333383612ee8565b611e64565b611e6333838573ffffffffffffffffffffffffffffffffffffffff16612f8c9092919063ffffffff16565b5b8273ffffffffffffffffffffffffffffffffffffffff163373ffffffffffffffffffffffffffffffffffffffff167fc2b4a290c20fb28939d29f102514fbffd2b73c059ffba8b78250c94161d5fcc68484604051611ec39291906139ef565b60405180910390a350611ed461290d565b5050565b7f97667070c54ef182b0f5858b034beac1b6f3089aa2d3188bb1e8929f4fa9b92981565b611f0461262a565b611f0c61266b565b60085f8273ffffffffffffffffffffffffffffffffffffffff1673ffffffffffffffffffffffffffffffffffffffff1681526020019081526020015f205f9054906101000a900460ff16611f8c576040517f3dd1b30500000000000000000000000000000000000000000000000000000000815260040160405180910390fd5b5f60075f3373ffffffffffffffffffffffffffffffffffffffff1673ffffffffffffffffffffffffffffffffffffffff1681526020019081526020015f205f8373ffffffffffffffffffffffffffffffffffffffff1673ffffffffffffffffffffffffffffffffffffffff1681526020019081526020015f205490505f8103612041576040517ff4d678b800000000000000000000000000000000000000000000000000000000815260040160405180910390fd5b5f61204c8383612bc1565b90505f5f7f00000000000000000000000000000000000000000000000000000000000000008311612082578391508290506120d2565b6120ac857f0000000000000000000000000000000000000000000000000000000000000000612af0565b91507f000000000000000000000000000000000000000000000000000000000000000090505b8160075f3373ffffffffffffffffffffffffffffffffffffffff1673ffffffffffffffffffffffffffffffffffffffff1681526020019081526020015f205f8773ffffffffffffffffffffffffffffffffffffffff1673ffffffffffffffffffffffffffffffffffffffff1681526020019081526020015f205f828254612159919061391b565b925050819055508060035f828254612171919061391b565b9250508190555060055f81548092919061218a906139a8565b91905055505f73ffffffffffffffffffffffffffffffffffffffff168573ffffffffffffffffffffffffffffffffffffffff16036121d1576121cc3383612ee8565b6121fd565b6121fc33838773ffffffffffffffffffffffffffffffffffffffff16612f8c9092919063ffffffff16565b5b8473ffffffffffffffffffffffffffffffffffffffff163373ffffffffffffffffffffffffffffffffffffffff167fc2b4a290c20fb28939d29f102514fbffd2b73c059ffba8b78250c94161d5fcc6848460405161225c9291906139ef565b60405180910390a35050505061227061290d565b50565b5f5f60075f8573ffffffffffffffffffffffffffffffffffffffff1673ffffffffffffffffffffffffffffffffffffffff1681526020019081526020015f205f8473ffffffffffffffffffffffffffffffffffffffff1673ffffffffffffffffffffffffffffffffffffffff1681526020019081526020015f205490505f6122fb8483612bc1565b90507f0000000000000000000000000000000000000000000000000000000000000000811161232e57819250505061235d565b612358847f0000000000000000000000000000000000000000000000000000000000000000612af0565b925050505b92915050565b5f7f7965db0b000000000000000000000000000000000000000000000000000000007bffffffffffffffffffffffffffffffffffffffffffffffffffffffff1916827bffffffffffffffffffffffffffffffffffffffffffffffffffffffff191614806123d557506123d48261300b565b5b9050919050565b6123ed816123e86124d9565b613074565b50565b5f6123fb83836115f9565b6124cf5760015f5f8581526020019081526020015f205f015f8473ffffffffffffffffffffffffffffffffffffffff1673ffffffffffffffffffffffffffffffffffffffff1681526020019081526020015f205f6101000a81548160ff02191690831515021790555061246c6124d9565b73ffffffffffffffffffffffffffffffffffffffff168273ffffffffffffffffffffffffffffffffffffffff16847f2f8788117e7eff1d82e926ec794901d17c78024a50270940304540a733656f0d60405160405180910390a4600190506124d3565b5f90505b92915050565b5f33905090565b5f6124eb83836115f9565b156125bf575f5f5f8581526020019081526020015f205f015f8473ffffffffffffffffffffffffffffffffffffffff1673ffffffffffffffffffffffffffffffffffffffff1681526020019081526020015f205f6101000a81548160ff02191690831515021790555061255c6124d9565b73ffffffffffffffffffffffffffffffffffffffff168273ffffffffffffffffffffffffffffffffffffffff16847ff6391f5c32d9c69d2a47ea670b442974b53935d1edc7fd64eb21e047a839171b60405160405180910390a4600190506125c3565b5f90505b92915050565b6125d16130c5565b5f60025f6101000a81548160ff0219169083151502179055507f5db9ee0a495bf2e6ff9c91a7834c1ba4fdd244a5e8aa4e537bd38aeae4b073aa6126136124d9565b6040516126209190613502565b60405180910390a1565b6126326110e9565b15612669576040517fd93c066500000000000000000000000000000000000000000000000000000000815260040160405180910390fd5b565b6002600154036126a7576040517f3ee5aeb500000000000000000000000000000000000000000000000000000000815260040160405180910390fd5b6002600181905550565b61272d848573ffffffffffffffffffffffffffffffffffffffff166323b872dd8686866040516024016126e693929190613a16565b604051602081830303815290604052915060e01b6020820180517bffffffffffffffffffffffffffffffffffffffffffffffffffffffff8381831617835250505050613105565b50505050565b5f61273e8383612bc1565b9050620186a081101561277d576040517f6ba4a1c700000000000000000000000000000000000000000000000000000000815260040160405180910390fd5b7f0000000000000000000000000000000000000000000000000000000000000000816003546127ac9190613a4b565b11156127e4576040517f448f3ca800000000000000000000000000000000000000000000000000000000815260040160405180910390fd5b8160075f3373ffffffffffffffffffffffffffffffffffffffff1673ffffffffffffffffffffffffffffffffffffffff1681526020019081526020015f205f8573ffffffffffffffffffffffffffffffffffffffff1673ffffffffffffffffffffffffffffffffffffffff1681526020019081526020015f205f82825461286b9190613a4b565b925050819055508060035f8282546128839190613a4b565b9250508190555060045f81548092919061289c906139a8565b91905055508273ffffffffffffffffffffffffffffffffffffffff163373ffffffffffffffffffffffffffffffffffffffff167fdcbc1c05240f31ff3ad067ef1ee35ce4997762752e3a095284754544f4c709d784846040516129009291906139ef565b60405180910390a3505050565b60018081905550565b600160085f8573ffffffffffffffffffffffffffffffffffffffff1673ffffffffffffffffffffffffffffffffffffffff1681526020019081526020015f205f6101000a81548160ff0219169083151502179055508160095f8573ffffffffffffffffffffffffffffffffffffffff1673ffffffffffffffffffffffffffffffffffffffff1681526020019081526020015f205f6101000a81548160ff021916908360ff16021790555080600a5f8573ffffffffffffffffffffffffffffffffffffffff1673ffffffffffffffffffffffffffffffffffffffff1681526020019081526020015f205f6101000a81548173ffffffffffffffffffffffffffffffffffffffff021916908373ffffffffffffffffffffffffffffffffffffffff160217905550600683908060018154018082558091505060019003905f5260205f20015f9091909190916101000a81548173ffffffffffffffffffffffffffffffffffffffff021916908373ffffffffffffffffffffffffffffffffffffffff1602179055508273ffffffffffffffffffffffffffffffffffffffff167f71eedf6e504658772ec96be84d876ae5c35b713cfdbfb47fe2c0053e9bdfe37b8383604051612ae3929190613a7e565b60405180910390a2505050565b5f5f8203612b00575f9050612bbb565b5f612b0a84612cf4565b90505f60095f8673ffffffffffffffffffffffffffffffffffffffff1673ffffffffffffffffffffffffffffffffffffffff1681526020019081526020015f205f9054906101000a900460ff1690505f6008600a612b689190613bd4565b82600a612b759190613bd4565b86612b809190613c1e565b612b8a9190613c1e565b90505f6006600a612b9b9190613bd4565b84612ba69190613c1e565b90508082612bb49190613c8c565b9450505050505b92915050565b5f5f8203612bd1575f9050612c8c565b5f612bdb84612cf4565b90505f60095f8673ffffffffffffffffffffffffffffffffffffffff1673ffffffffffffffffffffffffffffffffffffffff1681526020019081526020015f205f9054906101000a900460ff1690505f6006600a612c399190613bd4565b8386612c459190613c1e565b612c4f9190613c1e565b90505f6008600a612c609190613bd4565b83600a612c6d9190613bd4565b612c779190613c1e565b90508082612c859190613c8c565b9450505050505b92915050565b612c9a61262a565b600160025f6101000a81548160ff0219169083151502179055507f62e78cea01bee320cd4e420270b5ea74000d11b0c9f74754ebdbfc544b05a258612cdd6124d9565b604051612cea9190613502565b60405180910390a1565b5f5f5f73ffffffffffffffffffffffffffffffffffffffff168373ffffffffffffffffffffffffffffffffffffffff1614612d8b57600a5f8473ffffffffffffffffffffffffffffffffffffffff1673ffffffffffffffffffffffffffffffffffffffff1681526020019081526020015f205f9054906101000a900473ffffffffffffffffffffffffffffffffffffffff16612dad565b7f00000000000000000000000000000000000000000000000000000000000000005b90505f5f8273ffffffffffffffffffffffffffffffffffffffff1663feaf968c6040518163ffffffff1660e01b815260040160a060405180830381865afa158015612dfa573d5f5f3e3d5ffd5b505050506040513d601f19601f82011682018060405250810190612e1e9190613d42565b509350509250505f8213612e5d576040517ebfc92100000000000000000000000000000000000000000000000000000000815260040160405180910390fd5b5f8103612e96576040517f19abf40e00000000000000000000000000000000000000000000000000000000815260040160405180910390fd5b610e108142612ea5919061391b565b1115612edd576040517f19abf40e00000000000000000000000000000000000000000000000000000000815260040160405180910390fd5b819350505050919050565b5f8273ffffffffffffffffffffffffffffffffffffffff1682604051612f0d90613de6565b5f6040518083038185875af1925050503d805f8114612f47576040519150601f19603f3d011682016040523d82523d5f602084013e612f4c565b606091505b5050905080612f87576040517f90b8ec1800000000000000000000000000000000000000000000000000000000815260040160405180910390fd5b505050565b613006838473ffffffffffffffffffffffffffffffffffffffff1663a9059cbb8585604051602401612fbf929190613dfa565b604051602081830303815290604052915060e01b6020820180517bffffffffffffffffffffffffffffffffffffffffffffffffffffffff8381831617835250505050613105565b505050565b5f7f01ffc9a7000000000000000000000000000000000000000000000000000000007bffffffffffffffffffffffffffffffffffffffffffffffffffffffff1916827bffffffffffffffffffffffffffffffffffffffffffffffffffffffff1916149050919050565b61307e82826115f9565b6130c15780826040517fe2517d3f0000000000000000000000000000000000000000000000000000000081526004016130b8929190613e21565b60405180910390fd5b5050565b6130cd6110e9565b613103576040517f8dfc202b00000000000000000000000000000000000000000000000000000000815260040160405180910390fd5b565b5f5f60205f8451602086015f885af180613124576040513d5f823e3d81fd5b3d92505f519150505f821461313d576001811415613158565b5f8473ffffffffffffffffffffffffffffffffffffffff163b145b1561319a57836040517f5274afe70000000000000000000000000000000000000000000000000000000081526004016131919190613502565b60405180910390fd5b50505050565b60405180608001604052805f73ffffffffffffffffffffffffffffffffffffffff1681526020015f60ff1681526020015f151581526020015f73ffffffffffffffffffffffffffffffffffffffff1681525090565b5f5ffd5b5f7fffffffff0000000000000000000000000000000000000000000000000000000082169050919050565b61322d816131f9565b8114613237575f5ffd5b50565b5f8135905061324881613224565b92915050565b5f60208284031215613263576132626131f5565b5b5f6132708482850161323a565b91505092915050565b5f8115159050919050565b61328d81613279565b82525050565b5f6020820190506132a65f830184613284565b92915050565b5f73ffffffffffffffffffffffffffffffffffffffff82169050919050565b5f6132d5826132ac565b9050919050565b6132e5816132cb565b81146132ef575f5ffd5b50565b5f81359050613300816132dc565b92915050565b5f6020828403121561331b5761331a6131f5565b5b5f613328848285016132f2565b91505092915050565b61333a816132cb565b82525050565b5f60ff82169050919050565b61335581613340565b82525050565b61336481613279565b82525050565b608082015f82015161337e5f850182613331565b506020820151613391602085018261334c565b5060408201516133a4604085018261335b565b5060608201516133b76060850182613331565b50505050565b5f6080820190506133d05f83018461336a565b92915050565b5f819050919050565b6133e8816133d6565b81146133f2575f5ffd5b50565b5f81359050613403816133df565b92915050565b5f6020828403121561341e5761341d6131f5565b5b5f61342b848285016133f5565b91505092915050565b61343d816133d6565b82525050565b5f6020820190506134565f830184613434565b92915050565b61346581613340565b82525050565b5f60208201905061347e5f83018461345c565b92915050565b5f819050919050565b61349681613484565b82525050565b5f6020820190506134af5f83018461348d565b92915050565b5f5f604083850312156134cb576134ca6131f5565b5b5f6134d8858286016133f5565b92505060206134e9858286016132f2565b9150509250929050565b6134fc816132cb565b82525050565b5f6020820190506135155f8301846134f3565b92915050565b5f819050919050565b5f61353e613539613534846132ac565b61351b565b6132ac565b9050919050565b5f61354f82613524565b9050919050565b5f61356082613545565b9050919050565b61357081613556565b82525050565b5f6020820190506135895f830184613567565b92915050565b61359881613484565b81146135a2575f5ffd5b50565b5f813590506135b38161358f565b92915050565b5f5f604083850312156135cf576135ce6131f5565b5b5f6135dc858286016132f2565b92505060206135ed858286016135a5565b9150509250929050565b5f5f6040838503121561360d5761360c6131f5565b5b5f61361a858286016132f2565b925050602061362b858286016132f2565b9150509250929050565b5f81519050919050565b5f82825260208201905092915050565b5f819050602082019050919050565b5f6136698383613331565b60208301905092915050565b5f602082019050919050565b5f61368b82613635565b613695818561363f565b93506136a08361364f565b805f5b838110156136d05781516136b7888261365e565b97506136c283613675565b9250506001810190506136a3565b5085935050505092915050565b5f81519050919050565b5f82825260208201905092915050565b5f819050602082019050919050565b61370f81613484565b82525050565b5f6137208383613706565b60208301905092915050565b5f602082019050919050565b5f613742826136dd565b61374c81856136e7565b9350613757836136f7565b805f5b8381101561378757815161376e8882613715565b97506137798361372c565b92505060018101905061375a565b5085935050505092915050565b5f6060820190508181035f8301526137ac8186613681565b905081810360208301526137c08185613738565b905081810360408301526137d48184613738565b9050949350505050565b5f602082840312156137f3576137f26131f5565b5b5f613800848285016135a5565b91505092915050565b5f60808201905061381c5f83018761348d565b613829602083018661348d565b613836604083018561348d565b613843606083018461348d565b95945050505050565b5f6020820190508181035f8301526138648184613681565b905092915050565b61387581613340565b811461387f575f5ffd5b50565b5f815190506138908161386c565b92915050565b5f602082840312156138ab576138aa6131f5565b5b5f6138b884828501613882565b91505092915050565b7f4e487b71000000000000000000000000000000000000000000000000000000005f52603260045260245ffd5b7f4e487b71000000000000000000000000000000000000000000000000000000005f52601160045260245ffd5b5f61392582613484565b915061393083613484565b9250828203905081811115613948576139476138ee565b5b92915050565b7f4e487b71000000000000000000000000000000000000000000000000000000005f52603160045260245ffd5b7f4e487b71000000000000000000000000000000000000000000000000000000005f52604160045260245ffd5b5f6139b282613484565b91507fffffffffffffffffffffffffffffffffffffffffffffffffffffffffffffffff82036139e4576139e36138ee565b5b600182019050919050565b5f604082019050613a025f83018561348d565b613a0f602083018461348d565b9392505050565b5f606082019050613a295f8301866134f3565b613a3660208301856134f3565b613a43604083018461348d565b949350505050565b5f613a5582613484565b9150613a6083613484565b9250828201905080821115613a7857613a776138ee565b5b92915050565b5f604082019050613a915f83018561345c565b613a9e60208301846134f3565b9392505050565b5f8160011c9050919050565b5f5f8291508390505b6001851115613afa57808604811115613ad657613ad56138ee565b5b6001851615613ae55780820291505b8081029050613af385613aa5565b9450613aba565b94509492505050565b5f82613b125760019050613bcd565b81613b1f575f9050613bcd565b8160018114613b355760028114613b3f57613b6e565b6001915050613bcd565b60ff841115613b5157613b506138ee565b5b8360020a915084821115613b6857613b676138ee565b5b50613bcd565b5060208310610133831016604e8410600b8410161715613ba35782820a905083811115613b9e57613b9d6138ee565b5b613bcd565b613bb08484846001613ab1565b92509050818404811115613bc757613bc66138ee565b5b81810290505b9392505050565b5f613bde82613484565b9150613be983613340565b9250613c167fffffffffffffffffffffffffffffffffffffffffffffffffffffffffffffffff8484613b03565b905092915050565b5f613c2882613484565b9150613c3383613484565b9250828202613c4181613484565b91508282048414831517613c5857613c576138ee565b5b5092915050565b7f4e487b71000000000000000000000000000000000000000000000000000000005f52601260045260245ffd5b5f613c9682613484565b9150613ca183613484565b925082613cb157613cb0613c5f565b5b828204905092915050565b5f69ffffffffffffffffffff82169050919050565b613cda81613cbc565b8114613ce4575f5ffd5b50565b5f81519050613cf581613cd1565b92915050565b5f819050919050565b613d0d81613cfb565b8114613d17575f5ffd5b50565b5f81519050613d2881613d04565b92915050565b5f81519050613d3c8161358f565b92915050565b5f5f5f5f5f60a08688031215613d5b57613d5a6131f5565b5b5f613d6888828901613ce7565b9550506020613d7988828901613d1a565b9450506040613d8a88828901613d2e565b9350506060613d9b88828901613d2e565b9250506080613dac88828901613ce7565b9150509295509295909350565b5f81905092915050565b50565b5f613dd15f83613db9565b9150613ddc82613dc3565b5f82019050919050565b5f613df082613dc6565b9150819050919050565b5f604082019050613e0d5f8301856134f3565b613e1a602083018461348d565b9392505050565b5f604082019050613e345f8301856134f3565b613e416020830184613434565b939250505056fea26469706673582212209529d26c2c3a1c5115eace0f389cc412bb573832c142f7a07c19e7d0812388c864736f6c634300081e0033",
					"opcodes": "PUSH1 0xE0 PUSH1 0x40 MSTORE CALLVALUE DUP1 ISZERO PUSH2 0xF JUMPI PUSH0 PUSH0 REVERT JUMPDEST POP PUSH1 0x40 MLOAD PUSH2 0x456E CODESIZE SUB DUP1 PUSH2 0x456E DUP4 CODECOPY DUP2 DUP2 ADD PUSH1 0x40 MSTORE DUP2 ADD SWAP1 PUSH2 0x31 SWAP2 SWAP1 PUSH2 0x5E6 JUMP JUMPDEST PUSH1 0x1 DUP1 DUP2 SWAP1 SSTORE POP PUSH0 PUSH20 0xFFFFFFFFFFFFFFFFFFFFFFFFFFFFFFFFFFFFFFFF AND DUP4 PUSH20 0xFFFFFFFFFFFFFFFFFFFFFFFFFFFFFFFFFFFFFFFF AND SUB PUSH2 0x9D JUMPI PUSH1 0x40 MLOAD PUSH32 0x52CC3F7D00000000000000000000000000000000000000000000000000000000 DUP2 MSTORE PUSH1 0x4 ADD PUSH1 0x40 MLOAD DUP1 SWAP2 SUB SWAP1 REVERT JUMPDEST PUSH0 DUP3 SUB PUSH2 0xD6 JUMPI PUSH1 0x40 MLOAD PUSH32 0x2C5211C600000000000000000000000000000000000000000000000000000000 DUP2 MSTORE PUSH1 0x4 ADD PUSH1 0x40 MLOAD DUP1 SWAP2 SUB SWAP1 REVERT JUMPDEST PUSH0 DUP2 SUB PUSH2 0x10F JUMPI PUSH1 0x40 MLOAD PUSH32 0x2C5211C600000000000000000000000000000000000000000000000000000000 DUP2 MSTORE PUSH1 0x4 ADD PUSH1 0x40 MLOAD DUP1 SWAP2 SUB SWAP1 REVERT JUMPDEST DUP2 DUP2 GT ISZERO PUSH2 0x149 JUMPI PUSH1 0x40 MLOAD PUSH32 0x4E6A369600000000000000000000000000000000000000000000000000000000 DUP2 MSTORE PUSH1 0x4 ADD PUSH1 0x40 MLOAD DUP1 SWAP2 SUB SWAP1 REVERT JUMPDEST DUP3 PUSH20 0xFFFFFFFFFFFFFFFFFFFFFFFFFFFFFFFFFFFFFFFF AND PUSH1 0x80 DUP2 PUSH20 0xFFFFFFFFFFFFFFFFFFFFFFFFFFFFFFFFFFFFFFFF AND DUP2 MSTORE POP POP DUP2 PUSH1 0xA0 DUP2 DUP2 MSTORE POP POP DUP1 PUSH1 0xC0 DUP2 DUP2 MSTORE POP POP PUSH2 0x19F PUSH0 PUSH0 SHL CALLER PUSH2 0x21C PUSH1 0x20 SHL PUSH1 0x20 SHR JUMP JUMPDEST POP PUSH2 0x1D0 PUSH32 0xA49807205CE4D355092EF5A8A18F56E8913CF4A201FBE287825B095693C21775 CALLER PUSH2 0x21C PUSH1 0x20 SHL PUSH1 0x20 SHR JUMP JUMPDEST POP PUSH2 0x201 PUSH32 0x97667070C54EF182B0F5858B034BEAC1B6F3089AA2D3188BB1E8929F4FA9B929 CALLER PUSH2 0x21C PUSH1 0x20 SHL PUSH1 0x20 SHR JUMP JUMPDEST POP PUSH2 0x214 PUSH0 PUSH1 0x12 DUP6 PUSH2 0x311 PUSH1 0x20 SHL PUSH1 0x20 SHR JUMP JUMPDEST POP POP POP PUSH2 0x687 JUMP JUMPDEST PUSH0 PUSH2 0x22D DUP4 DUP4 PUSH2 0x4EB PUSH1 0x20 SHL PUSH1 0x20 SHR JUMP JUMPDEST PUSH2 0x307 JUMPI PUSH1 0x1 PUSH0 PUSH0 DUP6 DUP2 MSTORE PUSH1 0x20 ADD SWAP1 DUP2 MSTORE PUSH1 0x20 ADD PUSH0 KECCAK256 PUSH0 ADD PUSH0 DUP5 PUSH20 0xFFFFFFFFFFFFFFFFFFFFFFFFFFFFFFFFFFFFFFFF AND PUSH20 0xFFFFFFFFFFFFFFFFFFFFFFFFFFFFFFFFFFFFFFFF AND DUP2 MSTORE PUSH1 0x20 ADD SWAP1 DUP2 MSTORE PUSH1 0x20 ADD PUSH0 KECCAK256 PUSH0 PUSH2 0x100 EXP DUP2 SLOAD DUP2 PUSH1 0xFF MUL NOT AND SWAP1 DUP4 ISZERO ISZERO MUL OR SWAP1 SSTORE POP PUSH2 0x2A4 PUSH2 0x54E PUSH1 0x20 SHL PUSH1 0x20 SHR JUMP JUMPDEST PUSH20 0xFFFFFFFFFFFFFFFFFFFFFFFFFFFFFFFFFFFFFFFF AND DUP3 PUSH20 0xFFFFFFFFFFFFFFFFFFFFFFFFFFFFFFFFFFFFFFFF AND DUP5 PUSH32 0x2F8788117E7EFF1D82E926EC794901D17C78024A50270940304540A733656F0D PUSH1 0x40 MLOAD PUSH1 0x40 MLOAD DUP1 SWAP2 SUB SWAP1 LOG4 PUSH1 0x1 SWAP1 POP PUSH2 0x30B JUMP JUMPDEST PUSH0 SWAP1 POP JUMPDEST SWAP3 SWAP2 POP POP JUMP JUMPDEST PUSH1 0x1 PUSH1 0x8 PUSH0 DUP6 PUSH20 0xFFFFFFFFFFFFFFFFFFFFFFFFFFFFFFFFFFFFFFFF AND PUSH20 0xFFFFFFFFFFFFFFFFFFFFFFFFFFFFFFFFFFFFFFFF AND DUP2 MSTORE PUSH1 0x20 ADD SWAP1 DUP2 MSTORE PUSH1 0x20 ADD PUSH0 KECCAK256 PUSH0 PUSH2 0x100 EXP DUP2 SLOAD DUP2 PUSH1 0xFF MUL NOT AND SWAP1 DUP4 ISZERO ISZERO MUL OR SWAP1 SSTORE POP DUP2 PUSH1 0x9 PUSH0 DUP6 PUSH20 0xFFFFFFFFFFFFFFFFFFFFFFFFFFFFFFFFFFFFFFFF AND PUSH20 0xFFFFFFFFFFFFFFFFFFFFFFFFFFFFFFFFFFFFFFFF AND DUP2 MSTORE PUSH1 0x20 ADD SWAP1 DUP2 MSTORE PUSH1 0x20 ADD PUSH0 KECCAK256 PUSH0 PUSH2 0x100 EXP DUP2 SLOAD DUP2 PUSH1 0xFF MUL NOT AND SWAP1 DUP4 PUSH1 0xFF AND MUL OR SWAP1 SSTORE POP DUP1 PUSH1 0xA PUSH0 DUP6 PUSH20 0xFFFFFFFFFFFFFFFFFFFFFFFFFFFFFFFFFFFFFFFF AND PUSH20 0xFFFFFFFFFFFFFFFFFFFFFFFFFFFFFFFFFFFFFFFF AND DUP2 MSTORE PUSH1 0x20 ADD SWAP1 DUP2 MSTORE PUSH1 0x20 ADD PUSH0 KECCAK256 PUSH0 PUSH2 0x100 EXP DUP2 SLOAD DUP2 PUSH20 0xFFFFFFFFFFFFFFFFFFFFFFFFFFFFFFFFFFFFFFFF MUL NOT AND SWAP1 DUP4 PUSH20 0xFFFFFFFFFFFFFFFFFFFFFFFFFFFFFFFFFFFFFFFF AND MUL OR SWAP1 SSTORE POP PUSH1 0x6 DUP4 SWAP1 DUP1 PUSH1 0x1 DUP2 SLOAD ADD DUP1 DUP3 SSTORE DUP1 SWAP2 POP POP PUSH1 0x1 SWAP1 SUB SWAP1 PUSH0 MSTORE PUSH1 0x20 PUSH0 KECCAK256 ADD PUSH0 SWAP1 SWAP2 SWAP1 SWAP2 SWAP1 SWAP2 PUSH2 0x100 EXP DUP2 SLOAD DUP2 PUSH20 0xFFFFFFFFFFFFFFFFFFFFFFFFFFFFFFFFFFFFFFFF MUL NOT AND SWAP1 DUP4 PUSH20 0xFFFFFFFFFFFFFFFFFFFFFFFFFFFFFFFFFFFFFFFF AND MUL OR SWAP1 SSTORE POP DUP3 PUSH20 0xFFFFFFFFFFFFFFFFFFFFFFFFFFFFFFFFFFFFFFFF AND PUSH32 0x71EEDF6E504658772EC96BE84D876AE5C35B713CFDBFB47FE2C0053E9BDFE37B DUP4 DUP4 PUSH1 0x40 MLOAD PUSH2 0x4DE SWAP3 SWAP2 SWAP1 PUSH2 0x660 JUMP JUMPDEST PUSH1 0x40 MLOAD DUP1 SWAP2 SUB SWAP1 LOG2 POP POP POP JUMP JUMPDEST PUSH0 PUSH0 PUSH0 DUP5 DUP2 MSTORE PUSH1 0x20 ADD SWAP1 DUP2 MSTORE PUSH1 0x20 ADD PUSH0 KECCAK256 PUSH0 ADD PUSH0 DUP4 PUSH20 0xFFFFFFFFFFFFFFFFFFFFFFFFFFFFFFFFFFFFFFFF AND PUSH20 0xFFFFFFFFFFFFFFFFFFFFFFFFFFFFFFFFFFFFFFFF AND DUP2 MSTORE PUSH1 0x20 ADD SWAP1 DUP2 MSTORE PUSH1 0x20 ADD PUSH0 KECCAK256 PUSH0 SWAP1 SLOAD SWAP1 PUSH2 0x100 EXP SWAP1 DIV PUSH1 0xFF AND SWAP1 POP SWAP3 SWAP2 POP POP JUMP JUMPDEST PUSH0 CALLER SWAP1 POP SWAP1 JUMP JUMPDEST PUSH0 PUSH0 REVERT JUMPDEST PUSH0 PUSH20 0xFFFFFFFFFFFFFFFFFFFFFFFFFFFFFFFFFFFFFFFF DUP3 AND SWAP1 POP SWAP2 SWAP1 POP JUMP JUMPDEST PUSH0 PUSH2 0x582 DUP3 PUSH2 0x559 JUMP JUMPDEST SWAP1 POP SWAP2 SWAP1 POP JUMP JUMPDEST PUSH2 0x592 DUP2 PUSH2 0x578 JUMP JUMPDEST DUP2 EQ PUSH2 0x59C JUMPI PUSH0 PUSH0 REVERT JUMPDEST POP JUMP JUMPDEST PUSH0 DUP2 MLOAD SWAP1 POP PUSH2 0x5AD DUP2 PUSH2 0x589 JUMP JUMPDEST SWAP3 SWAP2 POP POP JUMP JUMPDEST PUSH0 DUP2 SWAP1 POP SWAP2 SWAP1 POP JUMP JUMPDEST PUSH2 0x5C5 DUP2 PUSH2 0x5B3 JUMP JUMPDEST DUP2 EQ PUSH2 0x5CF JUMPI PUSH0 PUSH0 REVERT JUMPDEST POP JUMP JUMPDEST PUSH0 DUP2 MLOAD SWAP1 POP PUSH2 0x5E0 DUP2 PUSH2 0x5BC JUMP JUMPDEST SWAP3 SWAP2 POP POP JUMP JUMPDEST PUSH0 PUSH0 PUSH0 PUSH1 0x60 DUP5 DUP7 SUB SLT ISZERO PUSH2 0x5FD JUMPI PUSH2 0x5FC PUSH2 0x555 JUMP JUMPDEST JUMPDEST PUSH0 PUSH2 0x60A DUP7 DUP3 DUP8 ADD PUSH2 0x59F JUMP JUMPDEST SWAP4 POP POP PUSH1 0x20 PUSH2 0x61B DUP7 DUP3 DUP8 ADD PUSH2 0x5D2 JUMP JUMPDEST SWAP3 POP POP PUSH1 0x40 PUSH2 0x62C DUP7 DUP3 DUP8 ADD PUSH2 0x5D2 JUMP JUMPDEST SWAP2 POP POP SWAP3 POP SWAP3 POP SWAP3 JUMP JUMPDEST PUSH0 PUSH1 0xFF DUP3 AND SWAP1 POP SWAP2 SWAP1 POP JUMP JUMPDEST PUSH2 0x64B DUP2 PUSH2 0x636 JUMP JUMPDEST DUP3 MSTORE POP POP JUMP JUMPDEST PUSH2 0x65A DUP2 PUSH2 0x578 JUMP JUMPDEST DUP3 MSTORE POP POP JUMP JUMPDEST PUSH0 PUSH1 0x40 DUP3 ADD SWAP1 POP PUSH2 0x673 PUSH0 DUP4 ADD DUP6 PUSH2 0x642 JUMP JUMPDEST PUSH2 0x680 PUSH1 0x20 DUP4 ADD DUP5 PUSH2 0x651 JUMP JUMPDEST SWAP4 SWAP3 POP POP POP JUMP JUMPDEST PUSH1 0x80 MLOAD PUSH1 0xA0 MLOAD PUSH1 0xC0 MLOAD PUSH2 0x3E7E PUSH2 0x6F0 PUSH0 CODECOPY PUSH0 DUP2 DUP2 PUSH2 0xE59 ADD MSTORE DUP2 DUP2 PUSH2 0x1CE1 ADD MSTORE DUP2 DUP2 PUSH2 0x2052 ADD MSTORE DUP2 DUP2 PUSH2 0x2088 ADD MSTORE DUP2 DUP2 PUSH2 0x20B0 ADD MSTORE DUP2 DUP2 PUSH2 0x22FF ADD MSTORE PUSH2 0x2334 ADD MSTORE PUSH0 DUP2 DUP2 PUSH2 0x166B ADD MSTORE DUP2 DUP2 PUSH2 0x1970 ADD MSTORE PUSH2 0x277F ADD MSTORE PUSH0 DUP2 DUP2 PUSH2 0xC99 ADD MSTORE PUSH2 0x2D8D ADD MSTORE PUSH2 0x3E7E PUSH0 RETURN INVALID PUSH1 0x80 PUSH1 0x40 MSTORE PUSH1 0x4 CALLDATASIZE LT PUSH2 0x25B JUMPI PUSH0 CALLDATALOAD PUSH1 0xE0 SHR DUP1 PUSH4 0x75151B63 GT PUSH2 0x143 JUMPI DUP1 PUSH4 0xC6E8E38C GT PUSH2 0xB5 JUMPI DUP1 PUSH4 0xDB6B5246 GT PUSH2 0x79 JUMPI DUP1 PUSH4 0xDB6B5246 EQ PUSH2 0x93E JUMPI DUP1 PUSH4 0xEE957996 EQ PUSH2 0x948 JUMPI DUP1 PUSH4 0xF3FEF3A3 EQ PUSH2 0x984 JUMPI DUP1 PUSH4 0xF5B541A6 EQ PUSH2 0x9AC JUMPI DUP1 PUSH4 0xFA09E630 EQ PUSH2 0x9D6 JUMPI DUP1 PUSH4 0xFFECBC17 EQ PUSH2 0x9FE JUMPI PUSH2 0x25B JUMP JUMPDEST DUP1 PUSH4 0xC6E8E38C EQ PUSH2 0x847 JUMPI DUP1 PUSH4 0xD02641A0 EQ PUSH2 0x874 JUMPI DUP1 PUSH4 0xD3C7C2C7 EQ PUSH2 0x8B0 JUMPI DUP1 PUSH4 0xD4FAC45D EQ PUSH2 0x8DA JUMPI DUP1 PUSH4 0xD547741F EQ PUSH2 0x916 JUMPI PUSH2 0x25B JUMP JUMPDEST DUP1 PUSH4 0x965E12DC GT PUSH2 0x107 JUMPI DUP1 PUSH4 0x965E12DC EQ PUSH2 0x713 JUMPI DUP1 PUSH4 0xA217FDDF EQ PUSH2 0x73D JUMPI DUP1 PUSH4 0xAC4543BA EQ PUSH2 0x767 JUMPI DUP1 PUSH4 0xBD9C47E3 EQ PUSH2 0x791 JUMPI DUP1 PUSH4 0xC53D6CE1 EQ PUSH2 0x7CD JUMPI DUP1 PUSH4 0xC6255626 EQ PUSH2 0x80B JUMPI PUSH2 0x25B JUMP JUMPDEST DUP1 PUSH4 0x75151B63 EQ PUSH2 0x61F JUMPI DUP1 PUSH4 0x75B238FC EQ PUSH2 0x65B JUMPI DUP1 PUSH4 0x8456CB59 EQ PUSH2 0x685 JUMPI DUP1 PUSH4 0x8EE573AC EQ PUSH2 0x69B JUMPI DUP1 PUSH4 0x91D14854 EQ PUSH2 0x6D7 JUMPI PUSH2 0x25B JUMP JUMPDEST DUP1 PUSH4 0x45037AC9 GT PUSH2 0x1DC JUMPI DUP1 PUSH4 0x5476BD72 GT PUSH2 0x1A0 JUMPI DUP1 PUSH4 0x5476BD72 EQ PUSH2 0x503 JUMPI DUP1 PUSH4 0x57F1915D EQ PUSH2 0x52B JUMPI DUP1 PUSH4 0x5C975ABB EQ PUSH2 0x567 JUMPI DUP1 PUSH4 0x5FA7B584 EQ PUSH2 0x591 JUMPI DUP1 PUSH4 0x70D397E9 EQ PUSH2 0x5B9 JUMPI DUP1 PUSH4 0x71706CBE EQ PUSH2 0x5F5 JUMPI PUSH2 0x25B JUMP JUMPDEST DUP1 PUSH4 0x45037AC9 EQ PUSH2 0x421 JUMPI DUP1 PUSH4 0x47E7EF24 EQ PUSH2 0x44B JUMPI DUP1 PUSH4 0x4D635E70 EQ PUSH2 0x473 JUMPI DUP1 PUSH4 0x4ED94B24 EQ PUSH2 0x4AF JUMPI DUP1 PUSH4 0x51247424 EQ PUSH2 0x4D9 JUMPI PUSH2 0x25B JUMP JUMPDEST DUP1 PUSH4 0x2F2FF15D GT PUSH2 0x223 JUMPI DUP1 PUSH4 0x2F2FF15D EQ PUSH2 0x367 JUMPI DUP1 PUSH4 0x31F7D964 EQ PUSH2 0x38F JUMPI DUP1 PUSH4 0x36568ABE EQ PUSH2 0x3B9 JUMPI DUP1 PUSH4 0x3F4BA83A EQ PUSH2 0x3E1 JUMPI DUP1 PUSH4 0x42F6FB29 EQ PUSH2 0x3F7 JUMPI PUSH2 0x25B JUMP JUMPDEST DUP1 PUSH4 0x1FFC9A7 EQ PUSH2 0x25F JUMPI DUP1 PUSH4 0x1F69565F EQ PUSH2 0x29B JUMPI DUP1 PUSH4 0x248A9CA3 EQ PUSH2 0x2D7 JUMPI DUP1 PUSH4 0x2B825AD6 EQ PUSH2 0x313 JUMPI DUP1 PUSH4 0x2DFDF0B5 EQ PUSH2 0x33D JUMPI JUMPDEST PUSH0 PUSH0 REVERT JUMPDEST CALLVALUE DUP1 ISZERO PUSH2 0x26A JUMPI PUSH0 PUSH0 REVERT JUMPDEST POP PUSH2 0x285 PUSH1 0x4 DUP1 CALLDATASIZE SUB DUP2 ADD SWAP1 PUSH2 0x280 SWAP2 SWAP1 PUSH2 0x324E JUMP JUMPDEST PUSH2 0xA3A JUMP JUMPDEST PUSH1 0x40 MLOAD PUSH2 0x292 SWAP2 SWAP1 PUSH2 0x3293 JUMP JUMPDEST PUSH1 0x40 MLOAD DUP1 SWAP2 SUB SWAP1 RETURN JUMPDEST CALLVALUE DUP1 ISZERO PUSH2 0x2A6 JUMPI PUSH0 PUSH0 REVERT JUMPDEST POP PUSH2 0x2C1 PUSH1 0x4 DUP1 CALLDATASIZE SUB DUP2 ADD SWAP1 PUSH2 0x2BC SWAP2 SWAP1 PUSH2 0x3306 JUMP JUMPDEST PUSH2 0xA4B JUMP JUMPDEST PUSH1 0x40 MLOAD PUSH2 0x2CE SWAP2 SWAP1 PUSH2 0x33BD JUMP JUMPDEST PUSH1 0x40 MLOAD DUP1 SWAP2 SUB SWAP1 RETURN JUMPDEST CALLVALUE DUP1 ISZERO PUSH2 0x2E2 JUMPI PUSH0 PUSH0 REVERT JUMPDEST POP PUSH2 0x2FD PUSH1 0x4 DUP1 CALLDATASIZE SUB DUP2 ADD SWAP1 PUSH2 0x2F8 SWAP2 SWAP1 PUSH2 0x3409 JUMP JUMPDEST PUSH2 0xB9A JUMP JUMPDEST PUSH1 0x40 MLOAD PUSH2 0x30A SWAP2 SWAP1 PUSH2 0x3443 JUMP JUMPDEST PUSH1 0x40 MLOAD DUP1 SWAP2 SUB SWAP1 RETURN JUMPDEST CALLVALUE DUP1 ISZERO PUSH2 0x31E JUMPI PUSH0 PUSH0 REVERT JUMPDEST POP PUSH2 0x327 PUSH2 0xBB6 JUMP JUMPDEST PUSH1 0x40 MLOAD PUSH2 0x334 SWAP2 SWAP1 PUSH2 0x346B JUMP JUMPDEST PUSH1 0x40 MLOAD DUP1 SWAP2 SUB SWAP1 RETURN JUMPDEST CALLVALUE DUP1 ISZERO PUSH2 0x348 JUMPI PUSH0 PUSH0 REVERT JUMPDEST POP PUSH2 0x351 PUSH2 0xBBB JUMP JUMPDEST PUSH1 0x40 MLOAD PUSH2 0x35E SWAP2 SWAP1 PUSH2 0x349C JUMP JUMPDEST PUSH1 0x40 MLOAD DUP1 SWAP2 SUB SWAP1 RETURN JUMPDEST CALLVALUE DUP1 ISZERO PUSH2 0x372 JUMPI PUSH0 PUSH0 REVERT JUMPDEST POP PUSH2 0x38D PUSH1 0x4 DUP1 CALLDATASIZE SUB DUP2 ADD SWAP1 PUSH2 0x388 SWAP2 SWAP1 PUSH2 0x34B5 JUMP JUMPDEST PUSH2 0xBC1 JUMP JUMPDEST STOP JUMPDEST CALLVALUE DUP1 ISZERO PUSH2 0x39A JUMPI PUSH0 PUSH0 REVERT JUMPDEST POP PUSH2 0x3A3 PUSH2 0xBE3 JUMP JUMPDEST PUSH1 0x40 MLOAD PUSH2 0x3B0 SWAP2 SWAP1 PUSH2 0x3502 JUMP JUMPDEST PUSH1 0x40 MLOAD DUP1 SWAP2 SUB SWAP1 RETURN JUMPDEST CALLVALUE DUP1 ISZERO PUSH2 0x3C4 JUMPI PUSH0 PUSH0 REVERT JUMPDEST POP PUSH2 0x3DF PUSH1 0x4 DUP1 CALLDATASIZE SUB DUP2 ADD SWAP1 PUSH2 0x3DA SWAP2 SWAP1 PUSH2 0x34B5 JUMP JUMPDEST PUSH2 0xBE7 JUMP JUMPDEST STOP JUMPDEST CALLVALUE DUP1 ISZERO PUSH2 0x3EC JUMPI PUSH0 PUSH0 REVERT JUMPDEST POP PUSH2 0x3F5 PUSH2 0xC62 JUMP JUMPDEST STOP JUMPDEST CALLVALUE DUP1 ISZERO PUSH2 0x402 JUMPI PUSH0 PUSH0 REVERT JUMPDEST POP PUSH2 0x40B PUSH2 0xC97 JUMP JUMPDEST PUSH1 0x40 MLOAD PUSH2 0x418 SWAP2 SWAP1 PUSH2 0x3576 JUMP JUMPDEST PUSH1 0x40 MLOAD DUP1 SWAP2 SUB SWAP1 RETURN JUMPDEST CALLVALUE DUP1 ISZERO PUSH2 0x42C JUMPI PUSH0 PUSH0 REVERT JUMPDEST POP PUSH2 0x435 PUSH2 0xCBB JUMP JUMPDEST PUSH1 0x40 MLOAD PUSH2 0x442 SWAP2 SWAP1 PUSH2 0x349C JUMP JUMPDEST PUSH1 0x40 MLOAD DUP1 SWAP2 SUB SWAP1 RETURN JUMPDEST CALLVALUE DUP1 ISZERO PUSH2 0x456 JUMPI PUSH0 PUSH0 REVERT JUMPDEST POP PUSH2 0x471 PUSH1 0x4 DUP1 CALLDATASIZE SUB DUP2 ADD SWAP1 PUSH2 0x46C SWAP2 SWAP1 PUSH2 0x35B9 JUMP JUMPDEST PUSH2 0xCC1 JUMP JUMPDEST STOP JUMPDEST CALLVALUE DUP1 ISZERO PUSH2 0x47E JUMPI PUSH0 PUSH0 REVERT JUMPDEST POP PUSH2 0x499 PUSH1 0x4 DUP1 CALLDATASIZE SUB DUP2 ADD SWAP1 PUSH2 0x494 SWAP2 SWAP1 PUSH2 0x35F7 JUMP JUMPDEST PUSH2 0xE32 JUMP JUMPDEST PUSH1 0x40 MLOAD PUSH2 0x4A6 SWAP2 SWAP1 PUSH2 0x349C JUMP JUMPDEST PUSH1 0x40 MLOAD DUP1 SWAP2 SUB SWAP1 RETURN JUMPDEST CALLVALUE DUP1 ISZERO PUSH2 0x4BA JUMPI PUSH0 PUSH0 REVERT JUMPDEST POP PUSH2 0x4C3 PUSH2 0xE52 JUMP JUMPDEST PUSH1 0x40 MLOAD PUSH2 0x4D0 SWAP2 SWAP1 PUSH2 0x346B JUMP JUMPDEST PUSH1 0x40 MLOAD DUP1 SWAP2 SUB SWAP1 RETURN JUMPDEST CALLVALUE DUP1 ISZERO PUSH2 0x4E4 JUMPI PUSH0 PUSH0 REVERT JUMPDEST POP PUSH2 0x4ED PUSH2 0xE57 JUMP JUMPDEST PUSH1 0x40 MLOAD PUSH2 0x4FA SWAP2 SWAP1 PUSH2 0x349C JUMP JUMPDEST PUSH1 0x40 MLOAD DUP1 SWAP2 SUB SWAP1 RETURN JUMPDEST CALLVALUE DUP1 ISZERO PUSH2 0x50E JUMPI PUSH0 PUSH0 REVERT JUMPDEST POP PUSH2 0x529 PUSH1 0x4 DUP1 CALLDATASIZE SUB DUP2 ADD SWAP1 PUSH2 0x524 SWAP2 SWAP1 PUSH2 0x35F7 JUMP JUMPDEST PUSH2 0xE7B JUMP JUMPDEST STOP JUMPDEST CALLVALUE DUP1 ISZERO PUSH2 0x536 JUMPI PUSH0 PUSH0 REVERT JUMPDEST POP PUSH2 0x551 PUSH1 0x4 DUP1 CALLDATASIZE SUB DUP2 ADD SWAP1 PUSH2 0x54C SWAP2 SWAP1 PUSH2 0x35B9 JUMP JUMPDEST PUSH2 0x10D6 JUMP JUMPDEST PUSH1 0x40 MLOAD PUSH2 0x55E SWAP2 SWAP1 PUSH2 0x349C JUMP JUMPDEST PUSH1 0x40 MLOAD DUP1 SWAP2 SUB SWAP1 RETURN JUMPDEST CALLVALUE DUP1 ISZERO PUSH2 0x572 JUMPI PUSH0 PUSH0 REVERT JUMPDEST POP PUSH2 0x57B PUSH2 0x10E9 JUMP JUMPDEST PUSH1 0x40 MLOAD PUSH2 0x588 SWAP2 SWAP1 PUSH2 0x3293 JUMP JUMPDEST PUSH1 0x40 MLOAD DUP1 SWAP2 SUB SWAP1 RETURN JUMPDEST CALLVALUE DUP1 ISZERO PUSH2 0x59C JUMPI PUSH0 PUSH0 REVERT JUMPDEST POP PUSH2 0x5B7 PUSH1 0x4 DUP1 CALLDATASIZE SUB DUP2 ADD SWAP1 PUSH2 0x5B2 SWAP2 SWAP1 PUSH2 0x3306 JUMP JUMPDEST PUSH2 0x10FE JUMP JUMPDEST STOP JUMPDEST CALLVALUE DUP1 ISZERO PUSH2 0x5C4 JUMPI PUSH0 PUSH0 REVERT JUMPDEST POP PUSH2 0x5DF PUSH1 0x4 DUP1 CALLDATASIZE SUB DUP2 ADD SWAP1 PUSH2 0x5DA SWAP2 SWAP1 PUSH2 0x35F7 JUMP JUMPDEST PUSH2 0x14D0 JUMP JUMPDEST PUSH1 0x40 MLOAD PUSH2 0x5EC SWAP2 SWAP1 PUSH2 0x349C JUMP JUMPDEST PUSH1 0x40 MLOAD DUP1 SWAP2 SUB SWAP1 RETURN JUMPDEST CALLVALUE DUP1 ISZERO PUSH2 0x600 JUMPI PUSH0 PUSH0 REVERT JUMPDEST POP PUSH2 0x609 PUSH2 0x1560 JUMP JUMPDEST PUSH1 0x40 MLOAD PUSH2 0x616 SWAP2 SWAP1 PUSH2 0x349C JUMP JUMPDEST PUSH1 0x40 MLOAD DUP1 SWAP2 SUB SWAP1 RETURN JUMPDEST CALLVALUE DUP1 ISZERO PUSH2 0x62A JUMPI PUSH0 PUSH0 REVERT JUMPDEST POP PUSH2 0x645 PUSH1 0x4 DUP1 CALLDATASIZE SUB DUP2 ADD SWAP1 PUSH2 0x640 SWAP2 SWAP1 PUSH2 0x3306 JUMP JUMPDEST PUSH2 0x1566 JUMP JUMPDEST PUSH1 0x40 MLOAD PUSH2 0x652 SWAP2 SWAP1 PUSH2 0x3293 JUMP JUMPDEST PUSH1 0x40 MLOAD DUP1 SWAP2 SUB SWAP1 RETURN JUMPDEST CALLVALUE DUP1 ISZERO PUSH2 0x666 JUMPI PUSH0 PUSH0 REVERT JUMPDEST POP PUSH2 0x66F PUSH2 0x1583 JUMP JUMPDEST PUSH1 0x40 MLOAD PUSH2 0x67C SWAP2 SWAP1 PUSH2 0x3443 JUMP JUMPDEST PUSH1 0x40 MLOAD DUP1 SWAP2 SUB SWAP1 RETURN JUMPDEST CALLVALUE DUP1 ISZERO PUSH2 0x690 JUMPI PUSH0 PUSH0 REVERT JUMPDEST POP PUSH2 0x699 PUSH2 0x15A7 JUMP JUMPDEST STOP JUMPDEST CALLVALUE DUP1 ISZERO PUSH2 0x6A6 JUMPI PUSH0 PUSH0 REVERT JUMPDEST POP PUSH2 0x6C1 PUSH1 0x4 DUP1 CALLDATASIZE SUB DUP2 ADD SWAP1 PUSH2 0x6BC SWAP2 SWAP1 PUSH2 0x3306 JUMP JUMPDEST PUSH2 0x15DC JUMP JUMPDEST PUSH1 0x40 MLOAD PUSH2 0x6CE SWAP2 SWAP1 PUSH2 0x346B JUMP JUMPDEST PUSH1 0x40 MLOAD DUP1 SWAP2 SUB SWAP1 RETURN JUMPDEST CALLVALUE DUP1 ISZERO PUSH2 0x6E2 JUMPI PUSH0 PUSH0 REVERT JUMPDEST POP PUSH2 0x6FD PUSH1 0x4 DUP1 CALLDATASIZE SUB DUP2 ADD SWAP1 PUSH2 0x6F8 SWAP2 SWAP1 PUSH2 0x34B5 JUMP JUMPDEST PUSH2 0x15F9 JUMP JUMPDEST PUSH1 0x40 MLOAD PUSH2 0x70A SWAP2 SWAP1 PUSH2 0x3293 JUMP JUMPDEST PUSH1 0x40 MLOAD DUP1 SWAP2 SUB SWAP1 RETURN JUMPDEST CALLVALUE DUP1 ISZERO PUSH2 0x71E JUMPI PUSH0 PUSH0 REVERT JUMPDEST POP PUSH2 0x727 PUSH2 0x165C JUMP JUMPDEST PUSH1 0x40 MLOAD PUSH2 0x734 SWAP2 SWAP1 PUSH2 0x349C JUMP JUMPDEST PUSH1 0x40 MLOAD DUP1 SWAP2 SUB SWAP1 RETURN JUMPDEST CALLVALUE DUP1 ISZERO PUSH2 0x748 JUMPI PUSH0 PUSH0 REVERT JUMPDEST POP PUSH2 0x751 PUSH2 0x1663 JUMP JUMPDEST PUSH1 0x40 MLOAD PUSH2 0x75E SWAP2 SWAP1 PUSH2 0x3443 JUMP JUMPDEST PUSH1 0x40 MLOAD DUP1 SWAP2 SUB SWAP1 RETURN JUMPDEST CALLVALUE DUP1 ISZERO PUSH2 0x772 JUMPI PUSH0 PUSH0 REVERT JUMPDEST POP PUSH2 0x77B PUSH2 0x1669 JUMP JUMPDEST PUSH1 0x40 MLOAD PUSH2 0x788 SWAP2 SWAP1 PUSH2 0x349C JUMP JUMPDEST PUSH1 0x40 MLOAD DUP1 SWAP2 SUB SWAP1 RETURN JUMPDEST CALLVALUE DUP1 ISZERO PUSH2 0x79C JUMPI PUSH0 PUSH0 REVERT JUMPDEST POP PUSH2 0x7B7 PUSH1 0x4 DUP1 CALLDATASIZE SUB DUP2 ADD SWAP1 PUSH2 0x7B2 SWAP2 SWAP1 PUSH2 0x3306 JUMP JUMPDEST PUSH2 0x168D JUMP JUMPDEST PUSH1 0x40 MLOAD PUSH2 0x7C4 SWAP2 SWAP1 PUSH2 0x3576 JUMP JUMPDEST PUSH1 0x40 MLOAD DUP1 SWAP2 SUB SWAP1 RETURN JUMPDEST CALLVALUE DUP1 ISZERO PUSH2 0x7D8 JUMPI PUSH0 PUSH0 REVERT JUMPDEST POP PUSH2 0x7F3 PUSH1 0x4 DUP1 CALLDATASIZE SUB DUP2 ADD SWAP1 PUSH2 0x7EE SWAP2 SWAP1 PUSH2 0x3306 JUMP JUMPDEST PUSH2 0x16BD JUMP JUMPDEST PUSH1 0x40 MLOAD PUSH2 0x802 SWAP4 SWAP3 SWAP2 SWAP1 PUSH2 0x3794 JUMP JUMPDEST PUSH1 0x40 MLOAD DUP1 SWAP2 SUB SWAP1 RETURN JUMPDEST CALLVALUE DUP1 ISZERO PUSH2 0x816 JUMPI PUSH0 PUSH0 REVERT JUMPDEST POP PUSH2 0x831 PUSH1 0x4 DUP1 CALLDATASIZE SUB DUP2 ADD SWAP1 PUSH2 0x82C SWAP2 SWAP1 PUSH2 0x37DE JUMP JUMPDEST PUSH2 0x1923 JUMP JUMPDEST PUSH1 0x40 MLOAD PUSH2 0x83E SWAP2 SWAP1 PUSH2 0x3502 JUMP JUMPDEST PUSH1 0x40 MLOAD DUP1 SWAP2 SUB SWAP1 RETURN JUMPDEST CALLVALUE DUP1 ISZERO PUSH2 0x852 JUMPI PUSH0 PUSH0 REVERT JUMPDEST POP PUSH2 0x85B PUSH2 0x195E JUMP JUMPDEST PUSH1 0x40 MLOAD PUSH2 0x86B SWAP5 SWAP4 SWAP3 SWAP2 SWAP1 PUSH2 0x3809 JUMP JUMPDEST PUSH1 0x40 MLOAD DUP1 SWAP2 SUB SWAP1 RETURN JUMPDEST CALLVALUE DUP1 ISZERO PUSH2 0x87F JUMPI PUSH0 PUSH0 REVERT JUMPDEST POP PUSH2 0x89A PUSH1 0x4 DUP1 CALLDATASIZE SUB DUP2 ADD SWAP1 PUSH2 0x895 SWAP2 SWAP1 PUSH2 0x3306 JUMP JUMPDEST PUSH2 0x19A7 JUMP JUMPDEST PUSH1 0x40 MLOAD PUSH2 0x8A7 SWAP2 SWAP1 PUSH2 0x349C JUMP JUMPDEST PUSH1 0x40 MLOAD DUP1 SWAP2 SUB SWAP1 RETURN JUMPDEST CALLVALUE DUP1 ISZERO PUSH2 0x8BB JUMPI PUSH0 PUSH0 REVERT JUMPDEST POP PUSH2 0x8C4 PUSH2 0x19B8 JUMP JUMPDEST PUSH1 0x40 MLOAD PUSH2 0x8D1 SWAP2 SWAP1 PUSH2 0x384C JUMP JUMPDEST PUSH1 0x40 MLOAD DUP1 SWAP2 SUB SWAP1 RETURN JUMPDEST CALLVALUE DUP1 ISZERO PUSH2 0x8E5 JUMPI PUSH0 PUSH0 REVERT JUMPDEST POP PUSH2 0x900 PUSH1 0x4 DUP1 CALLDATASIZE SUB DUP2 ADD SWAP1 PUSH2 0x8FB SWAP2 SWAP1 PUSH2 0x35F7 JUMP JUMPDEST PUSH2 0x1A43 JUMP JUMPDEST PUSH1 0x40 MLOAD PUSH2 0x90D SWAP2 SWAP1 PUSH2 0x349C JUMP JUMPDEST PUSH1 0x40 MLOAD DUP1 SWAP2 SUB SWAP1 RETURN JUMPDEST CALLVALUE DUP1 ISZERO PUSH2 0x921 JUMPI PUSH0 PUSH0 REVERT JUMPDEST POP PUSH2 0x93C PUSH1 0x4 DUP1 CALLDATASIZE SUB DUP2 ADD SWAP1 PUSH2 0x937 SWAP2 SWAP1 PUSH2 0x34B5 JUMP JUMPDEST PUSH2 0x1AC5 JUMP JUMPDEST STOP JUMPDEST PUSH2 0x946 PUSH2 0x1AE7 JUMP JUMPDEST STOP JUMPDEST CALLVALUE DUP1 ISZERO PUSH2 0x953 JUMPI PUSH0 PUSH0 REVERT JUMPDEST POP PUSH2 0x96E PUSH1 0x4 DUP1 CALLDATASIZE SUB DUP2 ADD SWAP1 PUSH2 0x969 SWAP2 SWAP1 PUSH2 0x35B9 JUMP JUMPDEST PUSH2 0x1B44 JUMP JUMPDEST PUSH1 0x40 MLOAD PUSH2 0x97B SWAP2 SWAP1 PUSH2 0x349C JUMP JUMPDEST PUSH1 0x40 MLOAD DUP1 SWAP2 SUB SWAP1 RETURN JUMPDEST CALLVALUE DUP1 ISZERO PUSH2 0x98F JUMPI PUSH0 PUSH0 REVERT JUMPDEST POP PUSH2 0x9AA PUSH1 0x4 DUP1 CALLDATASIZE SUB DUP2 ADD SWAP1 PUSH2 0x9A5 SWAP2 SWAP1 PUSH2 0x35B9 JUMP JUMPDEST PUSH2 0x1B57 JUMP JUMPDEST STOP JUMPDEST CALLVALUE DUP1 ISZERO PUSH2 0x9B7 JUMPI PUSH0 PUSH0 REVERT JUMPDEST POP PUSH2 0x9C0 PUSH2 0x1ED8 JUMP JUMPDEST PUSH1 0x40 MLOAD PUSH2 0x9CD SWAP2 SWAP1 PUSH2 0x3443 JUMP JUMPDEST PUSH1 0x40 MLOAD DUP1 SWAP2 SUB SWAP1 RETURN JUMPDEST CALLVALUE DUP1 ISZERO PUSH2 0x9E1 JUMPI PUSH0 PUSH0 REVERT JUMPDEST POP PUSH2 0x9FC PUSH1 0x4 DUP1 CALLDATASIZE SUB DUP2 ADD SWAP1 PUSH2 0x9F7 SWAP2 SWAP1 PUSH2 0x3306 JUMP JUMPDEST PUSH2 0x1EFC JUMP JUMPDEST STOP JUMPDEST CALLVALUE DUP1 ISZERO PUSH2 0xA09 JUMPI PUSH0 PUSH0 REVERT JUMPDEST POP PUSH2 0xA24 PUSH1 0x4 DUP1 CALLDATASIZE SUB DUP2 ADD SWAP1 PUSH2 0xA1F SWAP2 SWAP1 PUSH2 0x35F7 JUMP JUMPDEST PUSH2 0x2273 JUMP JUMPDEST PUSH1 0x40 MLOAD PUSH2 0xA31 SWAP2 SWAP1 PUSH2 0x349C JUMP JUMPDEST PUSH1 0x40 MLOAD DUP1 SWAP2 SUB SWAP1 RETURN JUMPDEST PUSH0 PUSH2 0xA44 DUP3 PUSH2 0x2363 JUMP JUMPDEST SWAP1 POP SWAP2 SWAP1 POP JUMP JUMPDEST PUSH2 0xA53 PUSH2 0x31A0 JUMP JUMPDEST PUSH1 0x40 MLOAD DUP1 PUSH1 0x80 ADD PUSH1 0x40 MSTORE DUP1 DUP4 PUSH20 0xFFFFFFFFFFFFFFFFFFFFFFFFFFFFFFFFFFFFFFFF AND DUP2 MSTORE PUSH1 0x20 ADD PUSH1 0x9 PUSH0 DUP6 PUSH20 0xFFFFFFFFFFFFFFFFFFFFFFFFFFFFFFFFFFFFFFFF AND PUSH20 0xFFFFFFFFFFFFFFFFFFFFFFFFFFFFFFFFFFFFFFFF AND DUP2 MSTORE PUSH1 0x20 ADD SWAP1 DUP2 MSTORE PUSH1 0x20 ADD PUSH0 KECCAK256 PUSH0 SWAP1 SLOAD SWAP1 PUSH2 0x100 EXP SWAP1 DIV PUSH1 0xFF AND PUSH1 0xFF AND DUP2 MSTORE PUSH1 0x20 ADD PUSH1 0x8 PUSH0 DUP6 PUSH20 0xFFFFFFFFFFFFFFFFFFFFFFFFFFFFFFFFFFFFFFFF AND PUSH20 0xFFFFFFFFFFFFFFFFFFFFFFFFFFFFFFFFFFFFFFFF AND DUP2 MSTORE PUSH1 0x20 ADD SWAP1 DUP2 MSTORE PUSH1 0x20 ADD PUSH0 KECCAK256 PUSH0 SWAP1 SLOAD SWAP1 PUSH2 0x100 EXP SWAP1 DIV PUSH1 0xFF AND ISZERO ISZERO DUP2 MSTORE PUSH1 0x20 ADD PUSH1 0xA PUSH0 DUP6 PUSH20 0xFFFFFFFFFFFFFFFFFFFFFFFFFFFFFFFFFFFFFFFF AND PUSH20 0xFFFFFFFFFFFFFFFFFFFFFFFFFFFFFFFFFFFFFFFF AND DUP2 MSTORE PUSH1 0x20 ADD SWAP1 DUP2 MSTORE PUSH1 0x20 ADD PUSH0 KECCAK256 PUSH0 SWAP1 SLOAD SWAP1 PUSH2 0x100 EXP SWAP1 DIV PUSH20 0xFFFFFFFFFFFFFFFFFFFFFFFFFFFFFFFFFFFFFFFF AND PUSH20 0xFFFFFFFFFFFFFFFFFFFFFFFFFFFFFFFFFFFFFFFF AND DUP2 MSTORE POP SWAP1 POP SWAP2 SWAP1 POP JUMP JUMPDEST PUSH0 PUSH0 PUSH0 DUP4 DUP2 MSTORE PUSH1 0x20 ADD SWAP1 DUP2 MSTORE PUSH1 0x20 ADD PUSH0 KECCAK256 PUSH1 0x1 ADD SLOAD SWAP1 POP SWAP2 SWAP1 POP JUMP JUMPDEST PUSH1 0x6 DUP2 JUMP JUMPDEST PUSH1 0x4 SLOAD DUP2 JUMP JUMPDEST PUSH2 0xBCA DUP3 PUSH2 0xB9A JUMP JUMPDEST PUSH2 0xBD3 DUP2 PUSH2 0x23DC JUMP JUMPDEST PUSH2 0xBDD DUP4 DUP4 PUSH2 0x23F0 JUMP JUMPDEST POP POP POP POP JUMP JUMPDEST PUSH0 DUP2 JUMP JUMPDEST PUSH2 0xBEF PUSH2 0x24D9 JUMP JUMPDEST PUSH20 0xFFFFFFFFFFFFFFFFFFFFFFFFFFFFFFFFFFFFFFFF AND DUP2 PUSH20 0xFFFFFFFFFFFFFFFFFFFFFFFFFFFFFFFFFFFFFFFF AND EQ PUSH2 0xC53 JUMPI PUSH1 0x40 MLOAD PUSH32 0x6697B23200000000000000000000000000000000000000000000000000000000 DUP2 MSTORE PUSH1 0x4 ADD PUSH1 0x40 MLOAD DUP1 SWAP2 SUB SWAP1 REVERT JUMPDEST PUSH2 0xC5D DUP3 DUP3 PUSH2 0x24E0 JUMP JUMPDEST POP POP POP JUMP JUMPDEST PUSH32 0x97667070C54EF182B0F5858B034BEAC1B6F3089AA2D3188BB1E8929F4FA9B929 PUSH2 0xC8C DUP2 PUSH2 0x23DC JUMP JUMPDEST PUSH2 0xC94 PUSH2 0x25C9 JUMP JUMPDEST POP JUMP JUMPDEST PUSH32 0x0 DUP2 JUMP JUMPDEST PUSH1 0x3 SLOAD DUP2 JUMP JUMPDEST PUSH2 0xCC9 PUSH2 0x262A JUMP JUMPDEST PUSH2 0xCD1 PUSH2 0x266B JUMP JUMPDEST PUSH0 PUSH20 0xFFFFFFFFFFFFFFFFFFFFFFFFFFFFFFFFFFFFFFFF AND DUP3 PUSH20 0xFFFFFFFFFFFFFFFFFFFFFFFFFFFFFFFFFFFFFFFF AND SUB PUSH2 0xD36 JUMPI PUSH1 0x40 MLOAD PUSH32 0x1EB00B0600000000000000000000000000000000000000000000000000000000 DUP2 MSTORE PUSH1 0x4 ADD PUSH1 0x40 MLOAD DUP1 SWAP2 SUB SWAP1 REVERT JUMPDEST PUSH0 DUP2 SUB PUSH2 0xD6F JUMPI PUSH1 0x40 MLOAD PUSH32 0x2C5211C600000000000000000000000000000000000000000000000000000000 DUP2 MSTORE PUSH1 0x4 ADD PUSH1 0x40 MLOAD DUP1 SWAP2 SUB SWAP1 REVERT JUMPDEST PUSH1 0x8 PUSH0 DUP4 PUSH20 0xFFFFFFFFFFFFFFFFFFFFFFFFFFFFFFFFFFFFFFFF AND PUSH20 0xFFFFFFFFFFFFFFFFFFFFFFFFFFFFFFFFFFFFFFFF AND DUP2 MSTORE PUSH1 0x20 ADD SWAP1 DUP2 MSTORE PUSH1 0x20 ADD PUSH0 KECCAK256 PUSH0 SWAP1 SLOAD SWAP1 PUSH2 0x100 EXP SWAP1 DIV PUSH1 0xFF AND PUSH2 0xDEF JUMPI PUSH1 0x40 MLOAD PUSH32 0x3DD1B30500000000000000000000000000000000000000000000000000000000 DUP2 MSTORE PUSH1 0x4 ADD PUSH1 0x40 MLOAD DUP1 SWAP2 SUB SWAP1 REVERT JUMPDEST PUSH2 0xE1C CALLER ADDRESS DUP4 DUP6 PUSH20 0xFFFFFFFFFFFFFFFFFFFFFFFFFFFFFFFFFFFFFFFF AND PUSH2 0x26B1 SWAP1 SWAP4 SWAP3 SWAP2 SWAP1 PUSH4 0xFFFFFFFF AND JUMP JUMPDEST PUSH2 0xE26 DUP3 DUP3 PUSH2 0x2733 JUMP JUMPDEST PUSH2 0xE2E PUSH2 0x290D JUMP JUMPDEST POP POP JUMP JUMPDEST PUSH1 0x7 PUSH1 0x20 MSTORE DUP2 PUSH0 MSTORE PUSH1 0x40 PUSH0 KECCAK256 PUSH1 0x20 MSTORE DUP1 PUSH0 MSTORE PUSH1 0x40 PUSH0 KECCAK256 PUSH0 SWAP2 POP SWAP2 POP POP SLOAD DUP2 JUMP JUMPDEST PUSH1 0x8 DUP2 JUMP JUMPDEST PUSH32 0x0 DUP2 JUMP JUMPDEST PUSH32 0xA49807205CE4D355092EF5A8A18F56E8913CF4A201FBE287825B095693C21775 PUSH2 0xEA5 DUP2 PUSH2 0x23DC JUMP JUMPDEST PUSH0 PUSH20 0xFFFFFFFFFFFFFFFFFFFFFFFFFFFFFFFFFFFFFFFF AND DUP4 PUSH20 0xFFFFFFFFFFFFFFFFFFFFFFFFFFFFFFFFFFFFFFFF AND SUB PUSH2 0xF0A JUMPI PUSH1 0x40 MLOAD PUSH32 0x1EB00B0600000000000000000000000000000000000000000000000000000000 DUP2 MSTORE PUSH1 0x4 ADD PUSH1 0x40 MLOAD DUP1 SWAP2 SUB SWAP1 REVERT JUMPDEST PUSH0 PUSH20 0xFFFFFFFFFFFFFFFFFFFFFFFFFFFFFFFFFFFFFFFF AND DUP4 PUSH20 0xFFFFFFFFFFFFFFFFFFFFFFFFFFFFFFFFFFFFFFFF AND SUB PUSH2 0xF6F JUMPI PUSH1 0x40 MLOAD PUSH32 0xC78E82AD00000000000000000000000000000000000000000000000000000000 DUP2 MSTORE PUSH1 0x4 ADD PUSH1 0x40 MLOAD DUP1 SWAP2 SUB SWAP1 REVERT JUMPDEST PUSH0 PUSH20 0xFFFFFFFFFFFFFFFFFFFFFFFFFFFFFFFFFFFFFFFF AND DUP3 PUSH20 0xFFFFFFFFFFFFFFFFFFFFFFFFFFFFFFFFFFFFFFFF AND SUB PUSH2 0xFD4 JUMPI PUSH1 0x40 MLOAD PUSH32 0x52CC3F7D00000000000000000000000000000000000000000000000000000000 DUP2 MSTORE PUSH1 0x4 ADD PUSH1 0x40 MLOAD DUP1 SWAP2 SUB SWAP1 REVERT JUMPDEST PUSH1 0x8 PUSH0 DUP5 PUSH20 0xFFFFFFFFFFFFFFFFFFFFFFFFFFFFFFFFFFFFFFFF AND PUSH20 0xFFFFFFFFFFFFFFFFFFFFFFFFFFFFFFFFFFFFFFFF AND DUP2 MSTORE PUSH1 0x20 ADD SWAP1 DUP2 MSTORE PUSH1 0x20 ADD PUSH0 KECCAK256 PUSH0 SWAP1 SLOAD SWAP1 PUSH2 0x100 EXP SWAP1 DIV PUSH1 0xFF AND ISZERO PUSH2 0x1055 JUMPI PUSH1 0x40 MLOAD PUSH32 0xC78E82AD00000000000000000000000000000000000000000000000000000000 DUP2 MSTORE PUSH1 0x4 ADD PUSH1 0x40 MLOAD DUP1 SWAP2 SUB SWAP1 REVERT JUMPDEST PUSH0 DUP4 PUSH20 0xFFFFFFFFFFFFFFFFFFFFFFFFFFFFFFFFFFFFFFFF AND PUSH4 0x313CE567 PUSH1 0x40 MLOAD DUP2 PUSH4 0xFFFFFFFF AND PUSH1 0xE0 SHL DUP2 MSTORE PUSH1 0x4 ADD PUSH1 0x20 PUSH1 0x40 MLOAD DUP1 DUP4 SUB DUP2 DUP7 GAS STATICCALL ISZERO DUP1 ISZERO PUSH2 0x109F JUMPI RETURNDATASIZE PUSH0 PUSH0 RETURNDATACOPY RETURNDATASIZE PUSH0 REVERT JUMPDEST POP POP POP POP PUSH1 0x40 MLOAD RETURNDATASIZE PUSH1 0x1F NOT PUSH1 0x1F DUP3 ADD AND DUP3 ADD DUP1 PUSH1 0x40 MSTORE POP DUP2 ADD SWAP1 PUSH2 0x10C3 SWAP2 SWAP1 PUSH2 0x3896 JUMP JUMPDEST SWAP1 POP PUSH2 0x10D0 DUP5 DUP3 DUP6 PUSH2 0x2916 JUMP JUMPDEST POP POP POP POP JUMP JUMPDEST PUSH0 PUSH2 0x10E1 DUP4 DUP4 PUSH2 0x2AF0 JUMP JUMPDEST SWAP1 POP SWAP3 SWAP2 POP POP JUMP JUMPDEST PUSH0 PUSH1 0x2 PUSH0 SWAP1 SLOAD SWAP1 PUSH2 0x100 EXP SWAP1 DIV PUSH1 0xFF AND SWAP1 POP SWAP1 JUMP JUMPDEST PUSH32 0xA49807205CE4D355092EF5A8A18F56E8913CF4A201FBE287825B095693C21775 PUSH2 0x1128 DUP2 PUSH2 0x23DC JUMP JUMPDEST PUSH0 PUSH20 0xFFFFFFFFFFFFFFFFFFFFFFFFFFFFFFFFFFFFFFFF AND DUP3 PUSH20 0xFFFFFFFFFFFFFFFFFFFFFFFFFFFFFFFFFFFFFFFF AND SUB PUSH2 0x118D JUMPI PUSH1 0x40 MLOAD PUSH32 0x1EB00B0600000000000000000000000000000000000000000000000000000000 DUP2 MSTORE PUSH1 0x4 ADD PUSH1 0x40 MLOAD DUP1 SWAP2 SUB SWAP1 REVERT JUMPDEST PUSH1 0x8 PUSH0 DUP4 PUSH20 0xFFFFFFFFFFFFFFFFFFFFFFFFFFFFFFFFFFFFFFFF AND PUSH20 0xFFFFFFFFFFFFFFFFFFFFFFFFFFFFFFFFFFFFFFFF AND DUP2 MSTORE PUSH1 0x20 ADD SWAP1 DUP2 MSTORE PUSH1 0x20 ADD PUSH0 KECCAK256 PUSH0 SWAP1 SLOAD SWAP1 PUSH2 0x100 EXP SWAP1 DIV PUSH1 0xFF AND PUSH2 0x120D JUMPI PUSH1 0x40 MLOAD PUSH32 0x3DD1B30500000000000000000000000000000000000000000000000000000000 DUP2 MSTORE PUSH1 0x4 ADD PUSH1 0x40 MLOAD DUP1 SWAP2 SUB SWAP1 REVERT JUMPDEST PUSH0 PUSH1 0x8 PUSH0 DUP5 PUSH20 0xFFFFFFFFFFFFFFFFFFFFFFFFFFFFFFFFFFFFFFFF AND PUSH20 0xFFFFFFFFFFFFFFFFFFFFFFFFFFFFFFFFFFFFFFFF AND DUP2 MSTORE PUSH1 0x20 ADD SWAP1 DUP2 MSTORE PUSH1 0x20 ADD PUSH0 KECCAK256 PUSH0 PUSH2 0x100 EXP DUP2 SLOAD DUP2 PUSH1 0xFF MUL NOT AND SWAP1 DUP4 ISZERO ISZERO MUL OR SWAP1 SSTORE POP PUSH1 0x9 PUSH0 DUP4 PUSH20 0xFFFFFFFFFFFFFFFFFFFFFFFFFFFFFFFFFFFFFFFF AND PUSH20 0xFFFFFFFFFFFFFFFFFFFFFFFFFFFFFFFFFFFFFFFF AND DUP2 MSTORE PUSH1 0x20 ADD SWAP1 DUP2 MSTORE PUSH1 0x20 ADD PUSH0 KECCAK256 PUSH0 PUSH2 0x100 EXP DUP2 SLOAD SWAP1 PUSH1 0xFF MUL NOT AND SWAP1 SSTORE PUSH1 0xA PUSH0 DUP4 PUSH20 0xFFFFFFFFFFFFFFFFFFFFFFFFFFFFFFFFFFFFFFFF AND PUSH20 0xFFFFFFFFFFFFFFFFFFFFFFFFFFFFFFFFFFFFFFFF AND DUP2 MSTORE PUSH1 0x20 ADD SWAP1 DUP2 MSTORE PUSH1 0x20 ADD PUSH0 KECCAK256 PUSH0 PUSH2 0x100 EXP DUP2 SLOAD SWAP1 PUSH20 0xFFFFFFFFFFFFFFFFFFFFFFFFFFFFFFFFFFFFFFFF MUL NOT AND SWAP1 SSTORE PUSH0 PUSH0 SWAP1 POP JUMPDEST PUSH1 0x6 DUP1 SLOAD SWAP1 POP DUP2 LT ISZERO PUSH2 0x1488 JUMPI DUP3 PUSH20 0xFFFFFFFFFFFFFFFFFFFFFFFFFFFFFFFFFFFFFFFF AND PUSH1 0x6 DUP3 DUP2 SLOAD DUP2 LT PUSH2 0x1349 JUMPI PUSH2 0x1348 PUSH2 0x38C1 JUMP JUMPDEST JUMPDEST SWAP1 PUSH0 MSTORE PUSH1 0x20 PUSH0 KECCAK256 ADD PUSH0 SWAP1 SLOAD SWAP1 PUSH2 0x100 EXP SWAP1 DIV PUSH20 0xFFFFFFFFFFFFFFFFFFFFFFFFFFFFFFFFFFFFFFFF AND PUSH20 0xFFFFFFFFFFFFFFFFFFFFFFFFFFFFFFFFFFFFFFFF AND SUB PUSH2 0x147B JUMPI PUSH1 0x6 PUSH1 0x1 PUSH1 0x6 DUP1 SLOAD SWAP1 POP PUSH2 0x13A0 SWAP2 SWAP1 PUSH2 0x391B JUMP JUMPDEST DUP2 SLOAD DUP2 LT PUSH2 0x13B1 JUMPI PUSH2 0x13B0 PUSH2 0x38C1 JUMP JUMPDEST JUMPDEST SWAP1 PUSH0 MSTORE PUSH1 0x20 PUSH0 KECCAK256 ADD PUSH0 SWAP1 SLOAD SWAP1 PUSH2 0x100 EXP SWAP1 DIV PUSH20 0xFFFFFFFFFFFFFFFFFFFFFFFFFFFFFFFFFFFFFFFF AND PUSH1 0x6 DUP3 DUP2 SLOAD DUP2 LT PUSH2 0x13ED JUMPI PUSH2 0x13EC PUSH2 0x38C1 JUMP JUMPDEST JUMPDEST SWAP1 PUSH0 MSTORE PUSH1 0x20 PUSH0 KECCAK256 ADD PUSH0 PUSH2 0x100 EXP DUP2 SLOAD DUP2 PUSH20 0xFFFFFFFFFFFFFFFFFFFFFFFFFFFFFFFFFFFFFFFF MUL NOT AND SWAP1 DUP4 PUSH20 0xFFFFFFFFFFFFFFFFFFFFFFFFFFFFFFFFFFFFFFFF AND MUL OR SWAP1 SSTORE POP PUSH1 0x6 DUP1 SLOAD DUP1 PUSH2 0x1444 JUMPI PUSH2 0x1443 PUSH2 0x394E JUMP JUMPDEST JUMPDEST PUSH1 0x1 SWAP1 SUB DUP2 DUP2 SWAP1 PUSH0 MSTORE PUSH1 0x20 PUSH0 KECCAK256 ADD PUSH0 PUSH2 0x100 EXP DUP2 SLOAD SWAP1 PUSH20 0xFFFFFFFFFFFFFFFFFFFFFFFFFFFFFFFFFFFFFFFF MUL NOT AND SWAP1 SSTORE SWAP1 SSTORE PUSH2 0x1488 JUMP JUMPDEST DUP1 DUP1 PUSH1 0x1 ADD SWAP2 POP POP PUSH2 0x1311 JUMP JUMPDEST POP DUP2 PUSH20 0xFFFFFFFFFFFFFFFFFFFFFFFFFFFFFFFFFFFFFFFF AND PUSH32 0x4C910B69FE65A61F7531B9C5042B2329CA7179C77290AA7E2EB3AFA3C8511FD3 PUSH1 0x40 MLOAD PUSH1 0x40 MLOAD DUP1 SWAP2 SUB SWAP1 LOG2 POP POP JUMP JUMPDEST PUSH0 PUSH0 PUSH1 0x7 PUSH0 DUP6 PUSH20 0xFFFFFFFFFFFFFFFFFFFFFFFFFFFFFFFFFFFFFFFF AND PUSH20 0xFFFFFFFFFFFFFFFFFFFFFFFFFFFFFFFFFFFFFFFF AND DUP2 MSTORE PUSH1 0x20 ADD SWAP1 DUP2 MSTORE PUSH1 0x20 ADD PUSH0 KECCAK256 PUSH0 DUP5 PUSH20 0xFFFFFFFFFFFFFFFFFFFFFFFFFFFFFFFFFFFFFFFF AND PUSH20 0xFFFFFFFFFFFFFFFFFFFFFFFFFFFFFFFFFFFFFFFF AND DUP2 MSTORE PUSH1 0x20 ADD SWAP1 DUP2 MSTORE PUSH1 0x20 ADD PUSH0 KECCAK256 SLOAD SWAP1 POP PUSH2 0x1557 DUP4 DUP3 PUSH2 0x2BC1 JUMP JUMPDEST SWAP2 POP POP SWAP3 SWAP2 POP POP JUMP JUMPDEST PUSH1 0x5 SLOAD DUP2 JUMP JUMPDEST PUSH1 0x8 PUSH1 0x20 MSTORE DUP1 PUSH0 MSTORE PUSH1 0x40 PUSH0 KECCAK256 PUSH0 SWAP2 POP SLOAD SWAP1 PUSH2 0x100 EXP SWAP1 DIV PUSH1 0xFF AND DUP2 JUMP JUMPDEST PUSH32 0xA49807205CE4D355092EF5A8A18F56E8913CF4A201FBE287825B095693C21775 DUP2 JUMP JUMPDEST PUSH32 0x97667070C54EF182B0F5858B034BEAC1B6F3089AA2D3188BB1E8929F4FA9B929 PUSH2 0x15D1 DUP2 PUSH2 0x23DC JUMP JUMPDEST PUSH2 0x15D9 PUSH2 0x2C92 JUMP JUMPDEST POP JUMP JUMPDEST PUSH1 0x9 PUSH1 0x20 MSTORE DUP1 PUSH0 MSTORE PUSH1 0x40 PUSH0 KECCAK256 PUSH0 SWAP2 POP SLOAD SWAP1 PUSH2 0x100 EXP SWAP1 DIV PUSH1 0xFF AND DUP2 JUMP JUMPDEST PUSH0 PUSH0 PUSH0 DUP5 DUP2 MSTORE PUSH1 0x20 ADD SWAP1 DUP2 MSTORE PUSH1 0x20 ADD PUSH0 KECCAK256 PUSH0 ADD PUSH0 DUP4 PUSH20 0xFFFFFFFFFFFFFFFFFFFFFFFFFFFFFFFFFFFFFFFF AND PUSH20 0xFFFFFFFFFFFFFFFFFFFFFFFFFFFFFFFFFFFFFFFF AND DUP2 MSTORE PUSH1 0x20 ADD SWAP1 DUP2 MSTORE PUSH1 0x20 ADD PUSH0 KECCAK256 PUSH0 SWAP1 SLOAD SWAP1 PUSH2 0x100 EXP SWAP1 DIV PUSH1 0xFF AND SWAP1 POP SWAP3 SWAP2 POP POP JUMP JUMPDEST PUSH3 0x186A0 DUP2 JUMP JUMPDEST PUSH0 PUSH0 SHL DUP2 JUMP JUMPDEST PUSH32 0x0 DUP2 JUMP JUMPDEST PUSH1 0xA PUSH1 0x20 MSTORE DUP1 PUSH0 MSTORE PUSH1 0x40 PUSH0 KECCAK256 PUSH0 SWAP2 POP SLOAD SWAP1 PUSH2 0x100 EXP SWAP1 DIV PUSH20 0xFFFFFFFFFFFFFFFFFFFFFFFFFFFFFFFFFFFFFFFF AND DUP2 JUMP JUMPDEST PUSH1 0x60 DUP1 PUSH1 0x60 PUSH0 PUSH1 0x6 DUP1 SLOAD SWAP1 POP SWAP1 POP DUP1 PUSH8 0xFFFFFFFFFFFFFFFF DUP2 GT ISZERO PUSH2 0x16E5 JUMPI PUSH2 0x16E4 PUSH2 0x397B JUMP JUMPDEST JUMPDEST PUSH1 0x40 MLOAD SWAP1 DUP1 DUP3 MSTORE DUP1 PUSH1 0x20 MUL PUSH1 0x20 ADD DUP3 ADD PUSH1 0x40 MSTORE DUP1 ISZERO PUSH2 0x1713 JUMPI DUP2 PUSH1 0x20 ADD PUSH1 0x20 DUP3 MUL DUP1 CALLDATASIZE DUP4 CALLDATACOPY DUP1 DUP3 ADD SWAP2 POP POP SWAP1 POP JUMPDEST POP SWAP4 POP DUP1 PUSH8 0xFFFFFFFFFFFFFFFF DUP2 GT ISZERO PUSH2 0x1730 JUMPI PUSH2 0x172F PUSH2 0x397B JUMP JUMPDEST JUMPDEST PUSH1 0x40 MLOAD SWAP1 DUP1 DUP3 MSTORE DUP1 PUSH1 0x20 MUL PUSH1 0x20 ADD DUP3 ADD PUSH1 0x40 MSTORE DUP1 ISZERO PUSH2 0x175E JUMPI DUP2 PUSH1 0x20 ADD PUSH1 0x20 DUP3 MUL DUP1 CALLDATASIZE DUP4 CALLDATACOPY DUP1 DUP3 ADD SWAP2 POP POP SWAP1 POP JUMPDEST POP SWAP3 POP DUP1 PUSH8 0xFFFFFFFFFFFFFFFF DUP2 GT ISZERO PUSH2 0x177B JUMPI PUSH2 0x177A PUSH2 0x397B JUMP JUMPDEST JUMPDEST PUSH1 0x40 MLOAD SWAP1 DUP1 DUP3 MSTORE DUP1 PUSH1 0x20 MUL PUSH1 0x20 ADD DUP3 ADD PUSH1 0x40 MSTORE DUP1 ISZERO PUSH2 0x17A9 JUMPI DUP2 PUSH1 0x20 ADD PUSH1 0x20 DUP3 MUL DUP1 CALLDATASIZE DUP4 CALLDATACOPY DUP1 DUP3 ADD SWAP2 POP POP SWAP1 POP JUMPDEST POP SWAP2 POP PUSH0 PUSH0 SWAP1 POP JUMPDEST DUP2 DUP2 LT ISZERO PUSH2 0x191A JUMPI PUSH0 PUSH1 0x6 DUP3 DUP2 SLOAD DUP2 LT PUSH2 0x17CE JUMPI PUSH2 0x17CD PUSH2 0x38C1 JUMP JUMPDEST JUMPDEST SWAP1 PUSH0 MSTORE PUSH1 0x20 PUSH0 KECCAK256 ADD PUSH0 SWAP1 SLOAD SWAP1 PUSH2 0x100 EXP SWAP1 DIV PUSH20 0xFFFFFFFFFFFFFFFFFFFFFFFFFFFFFFFFFFFFFFFF AND SWAP1 POP PUSH0 PUSH1 0x7 PUSH0 DUP10 PUSH20 0xFFFFFFFFFFFFFFFFFFFFFFFFFFFFFFFFFFFFFFFF AND PUSH20 0xFFFFFFFFFFFFFFFFFFFFFFFFFFFFFFFFFFFFFFFF AND DUP2 MSTORE PUSH1 0x20 ADD SWAP1 DUP2 MSTORE PUSH1 0x20 ADD PUSH0 KECCAK256 PUSH0 DUP4 PUSH20 0xFFFFFFFFFFFFFFFFFFFFFFFFFFFFFFFFFFFFFFFF AND PUSH20 0xFFFFFFFFFFFFFFFFFFFFFFFFFFFFFFFFFFFFFFFF AND DUP2 MSTORE PUSH1 0x20 ADD SWAP1 DUP2 MSTORE PUSH1 0x20 ADD PUSH0 KECCAK256 SLOAD SWAP1 POP DUP2 DUP8 DUP5 DUP2 MLOAD DUP2 LT PUSH2 0x1888 JUMPI PUSH2 0x1887 PUSH2 0x38C1 JUMP JUMPDEST JUMPDEST PUSH1 0x20 MUL PUSH1 0x20 ADD ADD SWAP1 PUSH20 0xFFFFFFFFFFFFFFFFFFFFFFFFFFFFFFFFFFFFFFFF AND SWAP1 DUP2 PUSH20 0xFFFFFFFFFFFFFFFFFFFFFFFFFFFFFFFFFFFFFFFF AND DUP2 MSTORE POP POP DUP1 DUP7 DUP5 DUP2 MLOAD DUP2 LT PUSH2 0x18D6 JUMPI PUSH2 0x18D5 PUSH2 0x38C1 JUMP JUMPDEST JUMPDEST PUSH1 0x20 MUL PUSH1 0x20 ADD ADD DUP2 DUP2 MSTORE POP POP PUSH2 0x18EC DUP3 DUP3 PUSH2 0x2BC1 JUMP JUMPDEST DUP6 DUP5 DUP2 MLOAD DUP2 LT PUSH2 0x18FF JUMPI PUSH2 0x18FE PUSH2 0x38C1 JUMP JUMPDEST JUMPDEST PUSH1 0x20 MUL PUSH1 0x20 ADD ADD DUP2 DUP2 MSTORE POP POP POP POP DUP1 DUP1 PUSH1 0x1 ADD SWAP2 POP POP PUSH2 0x17B1 JUMP JUMPDEST POP POP SWAP2 SWAP4 SWAP1 SWAP3 POP JUMP JUMPDEST PUSH1 0x6 DUP2 DUP2 SLOAD DUP2 LT PUSH2 0x1932 JUMPI PUSH0 DUP1 REVERT JUMPDEST SWAP1 PUSH0 MSTORE PUSH1 0x20 PUSH0 KECCAK256 ADD PUSH0 SWAP2 POP SLOAD SWAP1 PUSH2 0x100 EXP SWAP1 DIV PUSH20 0xFFFFFFFFFFFFFFFFFFFFFFFFFFFFFFFFFFFFFFFF AND DUP2 JUMP JUMPDEST PUSH0 PUSH0 PUSH0 PUSH0 PUSH1 0x3 SLOAD PUSH1 0x4 SLOAD PUSH1 0x5 SLOAD PUSH1 0x3 SLOAD PUSH32 0x0 PUSH2 0x1999 SWAP2 SWAP1 PUSH2 0x391B JUMP JUMPDEST SWAP4 POP SWAP4 POP SWAP4 POP SWAP4 POP SWAP1 SWAP2 SWAP3 SWAP4 JUMP JUMPDEST PUSH0 PUSH2 0x19B1 DUP3 PUSH2 0x2CF4 JUMP JUMPDEST SWAP1 POP SWAP2 SWAP1 POP JUMP JUMPDEST PUSH1 0x60 PUSH1 0x6 DUP1 SLOAD DUP1 PUSH1 0x20 MUL PUSH1 0x20 ADD PUSH1 0x40 MLOAD SWAP1 DUP2 ADD PUSH1 0x40 MSTORE DUP1 SWAP3 SWAP2 SWAP1 DUP2 DUP2 MSTORE PUSH1 0x20 ADD DUP3 DUP1 SLOAD DUP1 ISZERO PUSH2 0x1A39 JUMPI PUSH1 0x20 MUL DUP3 ADD SWAP2 SWAP1 PUSH0 MSTORE PUSH1 0x20 PUSH0 KECCAK256 SWAP1 JUMPDEST DUP2 PUSH0 SWAP1 SLOAD SWAP1 PUSH2 0x100 EXP SWAP1 DIV PUSH20 0xFFFFFFFFFFFFFFFFFFFFFFFFFFFFFFFFFFFFFFFF AND PUSH20 0xFFFFFFFFFFFFFFFFFFFFFFFFFFFFFFFFFFFFFFFF AND DUP2 MSTORE PUSH1 0x20 ADD SWAP1 PUSH1 0x1 ADD SWAP1 DUP1 DUP4 GT PUSH2 0x19F0 JUMPI JUMPDEST POP POP POP POP POP SWAP1 POP SWAP1 JUMP JUMPDEST PUSH0 PUSH1 0x7 PUSH0 DUP5 PUSH20 0xFFFFFFFFFFFFFFFFFFFFFFFFFFFFFFFFFFFFFFFF AND PUSH20 0xFFFFFFFFFFFFFFFFFFFFFFFFFFFFFFFFFFFFFFFF AND DUP2 MSTORE PUSH1 0x20 ADD SWAP1 DUP2 MSTORE PUSH1 0x20 ADD PUSH0 KECCAK256 PUSH0 DUP4 PUSH20 0xFFFFFFFFFFFFFFFFFFFFFFFFFFFFFFFFFFFFFFFF AND PUSH20 0xFFFFFFFFFFFFFFFFFFFFFFFFFFFFFFFFFFFFFFFF AND DUP2 MSTORE PUSH1 0x20 ADD SWAP1 DUP2 MSTORE PUSH1 0x20 ADD PUSH0 KECCAK256 SLOAD SWAP1 POP SWAP3 SWAP2 POP POP JUMP JUMPDEST PUSH2 0x1ACE DUP3 PUSH2 0xB9A JUMP JUMPDEST PUSH2 0x1AD7 DUP2 PUSH2 0x23DC JUMP JUMPDEST PUSH2 0x1AE1 DUP4 DUP4 PUSH2 0x24E0 JUMP JUMPDEST POP POP POP POP JUMP JUMPDEST PUSH2 0x1AEF PUSH2 0x262A JUMP JUMPDEST PUSH2 0x1AF7 PUSH2 0x266B JUMP JUMPDEST PUSH0 CALLVALUE SUB PUSH2 0x1B30 JUMPI PUSH1 0x40 MLOAD PUSH32 0x2C5211C600000000000000000000000000000000000000000000000000000000 DUP2 MSTORE PUSH1 0x4 ADD PUSH1 0x40 MLOAD DUP1 SWAP2 SUB SWAP1 REVERT JUMPDEST PUSH2 0x1B3A PUSH0 CALLVALUE PUSH2 0x2733 JUMP JUMPDEST PUSH2 0x1B42 PUSH2 0x290D JUMP JUMPDEST JUMP JUMPDEST PUSH0 PUSH2 0x1B4F DUP4 DUP4 PUSH2 0x2BC1 JUMP JUMPDEST SWAP1 POP SWAP3 SWAP2 POP POP JUMP JUMPDEST PUSH2 0x1B5F PUSH2 0x262A JUMP JUMPDEST PUSH2 0x1B67 PUSH2 0x266B JUMP JUMPDEST PUSH0 DUP2 SUB PUSH2 0x1BA0 JUMPI PUSH1 0x40 MLOAD PUSH32 0x2C5211C600000000000000000000000000000000000000000000000000000000 DUP2 MSTORE PUSH1 0x4 ADD PUSH1 0x40 MLOAD DUP1 SWAP2 SUB SWAP1 REVERT JUMPDEST PUSH1 0x8 PUSH0 DUP4 PUSH20 0xFFFFFFFFFFFFFFFFFFFFFFFFFFFFFFFFFFFFFFFF AND PUSH20 0xFFFFFFFFFFFFFFFFFFFFFFFFFFFFFFFFFFFFFFFF AND DUP2 MSTORE PUSH1 0x20 ADD SWAP1 DUP2 MSTORE PUSH1 0x20 ADD PUSH0 KECCAK256 PUSH0 SWAP1 SLOAD SWAP1 PUSH2 0x100 EXP SWAP1 DIV PUSH1 0xFF AND PUSH2 0x1C20 JUMPI PUSH1 0x40 MLOAD PUSH32 0x3DD1B30500000000000000000000000000000000000000000000000000000000 DUP2 MSTORE PUSH1 0x4 ADD PUSH1 0x40 MLOAD DUP1 SWAP2 SUB SWAP1 REVERT JUMPDEST DUP1 PUSH1 0x7 PUSH0 CALLER PUSH20 0xFFFFFFFFFFFFFFFFFFFFFFFFFFFFFFFFFFFFFFFF AND PUSH20 0xFFFFFFFFFFFFFFFFFFFFFFFFFFFFFFFFFFFFFFFF AND DUP2 MSTORE PUSH1 0x20 ADD SWAP1 DUP2 MSTORE PUSH1 0x20 ADD PUSH0 KECCAK256 PUSH0 DUP5 PUSH20 0xFFFFFFFFFFFFFFFFFFFFFFFFFFFFFFFFFFFFFFFF AND PUSH20 0xFFFFFFFFFFFFFFFFFFFFFFFFFFFFFFFFFFFFFFFF AND DUP2 MSTORE PUSH1 0x20 ADD SWAP1 DUP2 MSTORE PUSH1 0x20 ADD PUSH0 KECCAK256 SLOAD LT ISZERO PUSH2 0x1CD2 JUMPI PUSH1 0x40 MLOAD PUSH32 0xF4D678B800000000000000000000000000000000000000000000000000000000 DUP2 MSTORE PUSH1 0x4 ADD PUSH1 0x40 MLOAD DUP1 SWAP2 SUB SWAP1 REVERT JUMPDEST PUSH0 PUSH2 0x1CDD DUP4 DUP4 PUSH2 0x2BC1 JUMP JUMPDEST SWAP1 POP PUSH32 0x0 DUP2 GT ISZERO PUSH2 0x1D39 JUMPI PUSH1 0x40 MLOAD PUSH32 0x4E6A369600000000000000000000000000000000000000000000000000000000 DUP2 MSTORE PUSH1 0x4 ADD PUSH1 0x40 MLOAD DUP1 SWAP2 SUB SWAP1 REVERT JUMPDEST DUP2 PUSH1 0x7 PUSH0 CALLER PUSH20 0xFFFFFFFFFFFFFFFFFFFFFFFFFFFFFFFFFFFFFFFF AND PUSH20 0xFFFFFFFFFFFFFFFFFFFFFFFFFFFFFFFFFFFFFFFF AND DUP2 MSTORE PUSH1 0x20 ADD SWAP1 DUP2 MSTORE PUSH1 0x20 ADD PUSH0 KECCAK256 PUSH0 DUP6 PUSH20 0xFFFFFFFFFFFFFFFFFFFFFFFFFFFFFFFFFFFFFFFF AND PUSH20 0xFFFFFFFFFFFFFFFFFFFFFFFFFFFFFFFFFFFFFFFF AND DUP2 MSTORE PUSH1 0x20 ADD SWAP1 DUP2 MSTORE PUSH1 0x20 ADD PUSH0 KECCAK256 PUSH0 DUP3 DUP3 SLOAD PUSH2 0x1DC0 SWAP2 SWAP1 PUSH2 0x391B JUMP JUMPDEST SWAP3 POP POP DUP2 SWAP1 SSTORE POP DUP1 PUSH1 0x3 PUSH0 DUP3 DUP3 SLOAD PUSH2 0x1DD8 SWAP2 SWAP1 PUSH2 0x391B JUMP JUMPDEST SWAP3 POP POP DUP2 SWAP1 SSTORE POP PUSH1 0x5 PUSH0 DUP2 SLOAD DUP1 SWAP3 SWAP2 SWAP1 PUSH2 0x1DF1 SWAP1 PUSH2 0x39A8 JUMP JUMPDEST SWAP2 SWAP1 POP SSTORE POP PUSH0 PUSH20 0xFFFFFFFFFFFFFFFFFFFFFFFFFFFFFFFFFFFFFFFF AND DUP4 PUSH20 0xFFFFFFFFFFFFFFFFFFFFFFFFFFFFFFFFFFFFFFFF AND SUB PUSH2 0x1E38 JUMPI PUSH2 0x1E33 CALLER DUP4 PUSH2 0x2EE8 JUMP JUMPDEST PUSH2 0x1E64 JUMP JUMPDEST PUSH2 0x1E63 CALLER DUP4 DUP6 PUSH20 0xFFFFFFFFFFFFFFFFFFFFFFFFFFFFFFFFFFFFFFFF AND PUSH2 0x2F8C SWAP1 SWAP3 SWAP2 SWAP1 PUSH4 0xFFFFFFFF AND JUMP JUMPDEST JUMPDEST DUP3 PUSH20 0xFFFFFFFFFFFFFFFFFFFFFFFFFFFFFFFFFFFFFFFF AND CALLER PUSH20 0xFFFFFFFFFFFFFFFFFFFFFFFFFFFFFFFFFFFFFFFF AND PUSH32 0xC2B4A290C20FB28939D29F102514FBFFD2B73C059FFBA8B78250C94161D5FCC6 DUP5 DUP5 PUSH1 0x40 MLOAD PUSH2 0x1EC3 SWAP3 SWAP2 SWAP1 PUSH2 0x39EF JUMP JUMPDEST PUSH1 0x40 MLOAD DUP1 SWAP2 SUB SWAP1 LOG3 POP PUSH2 0x1ED4 PUSH2 0x290D JUMP JUMPDEST POP POP JUMP JUMPDEST PUSH32 0x97667070C54EF182B0F5858B034BEAC1B6F3089AA2D3188BB1E8929F4FA9B929 DUP2 JUMP JUMPDEST PUSH2 0x1F04 PUSH2 0x262A JUMP JUMPDEST PUSH2 0x1F0C PUSH2 0x266B JUMP JUMPDEST PUSH1 0x8 PUSH0 DUP3 PUSH20 0xFFFFFFFFFFFFFFFFFFFFFFFFFFFFFFFFFFFFFFFF AND PUSH20 0xFFFFFFFFFFFFFFFFFFFFFFFFFFFFFFFFFFFFFFFF AND DUP2 MSTORE PUSH1 0x20 ADD SWAP1 DUP2 MSTORE PUSH1 0x20 ADD PUSH0 KECCAK256 PUSH0 SWAP1 SLOAD SWAP1 PUSH2 0x100 EXP SWAP1 DIV PUSH1 0xFF AND PUSH2 0x1F8C JUMPI PUSH1 0x40 MLOAD PUSH32 0x3DD1B30500000000000000000000000000000000000000000000000000000000 DUP2 MSTORE PUSH1 0x4 ADD PUSH1 0x40 MLOAD DUP1 SWAP2 SUB SWAP1 REVERT JUMPDEST PUSH0 PUSH1 0x7 PUSH0 CALLER PUSH20 0xFFFFFFFFFFFFFFFFFFFFFFFFFFFFFFFFFFFFFFFF AND PUSH20 0xFFFFFFFFFFFFFFFFFFFFFFFFFFFFFFFFFFFFFFFF AND DUP2 MSTORE PUSH1 0x20 ADD SWAP1 DUP2 MSTORE PUSH1 0x20 ADD PUSH0 KECCAK256 PUSH0 DUP4 PUSH20 0xFFFFFFFFFFFFFFFFFFFFFFFFFFFFFFFFFFFFFFFF AND PUSH20 0xFFFFFFFFFFFFFFFFFFFFFFFFFFFFFFFFFFFFFFFF AND DUP2 MSTORE PUSH1 0x20 ADD SWAP1 DUP2 MSTORE PUSH1 0x20 ADD PUSH0 KECCAK256 SLOAD SWAP1 POP PUSH0 DUP2 SUB PUSH2 0x2041 JUMPI PUSH1 0x40 MLOAD PUSH32 0xF4D678B800000000000000000000000000000000000000000000000000000000 DUP2 MSTORE PUSH1 0x4 ADD PUSH1 0x40 MLOAD DUP1 SWAP2 SUB SWAP1 REVERT JUMPDEST PUSH0 PUSH2 0x204C DUP4 DUP4 PUSH2 0x2BC1 JUMP JUMPDEST SWAP1 POP PUSH0 PUSH0 PUSH32 0x0 DUP4 GT PUSH2 0x2082 JUMPI DUP4 SWAP2 POP DUP3 SWAP1 POP PUSH2 0x20D2 JUMP JUMPDEST PUSH2 0x20AC DUP6 PUSH32 0x0 PUSH2 0x2AF0 JUMP JUMPDEST SWAP2 POP PUSH32 0x0 SWAP1 POP JUMPDEST DUP2 PUSH1 0x7 PUSH0 CALLER PUSH20 0xFFFFFFFFFFFFFFFFFFFFFFFFFFFFFFFFFFFFFFFF AND PUSH20 0xFFFFFFFFFFFFFFFFFFFFFFFFFFFFFFFFFFFFFFFF AND DUP2 MSTORE PUSH1 0x20 ADD SWAP1 DUP2 MSTORE PUSH1 0x20 ADD PUSH0 KECCAK256 PUSH0 DUP8 PUSH20 0xFFFFFFFFFFFFFFFFFFFFFFFFFFFFFFFFFFFFFFFF AND PUSH20 0xFFFFFFFFFFFFFFFFFFFFFFFFFFFFFFFFFFFFFFFF AND DUP2 MSTORE PUSH1 0x20 ADD SWAP1 DUP2 MSTORE PUSH1 0x20 ADD PUSH0 KECCAK256 PUSH0 DUP3 DUP3 SLOAD PUSH2 0x2159 SWAP2 SWAP1 PUSH2 0x391B JUMP JUMPDEST SWAP3 POP POP DUP2 SWAP1 SSTORE POP DUP1 PUSH1 0x3 PUSH0 DUP3 DUP3 SLOAD PUSH2 0x2171 SWAP2 SWAP1 PUSH2 0x391B JUMP JUMPDEST SWAP3 POP POP DUP2 SWAP1 SSTORE POP PUSH1 0x5 PUSH0 DUP2 SLOAD DUP1 SWAP3 SWAP2 SWAP1 PUSH2 0x218A SWAP1 PUSH2 0x39A8 JUMP JUMPDEST SWAP2 SWAP1 POP SSTORE POP PUSH0 PUSH20 0xFFFFFFFFFFFFFFFFFFFFFFFFFFFFFFFFFFFFFFFF AND DUP6 PUSH20 0xFFFFFFFFFFFFFFFFFFFFFFFFFFFFFFFFFFFFFFFF AND SUB PUSH2 0x21D1 JUMPI PUSH2 0x21CC CALLER DUP4 PUSH2 0x2EE8 JUMP JUMPDEST PUSH2 0x21FD JUMP JUMPDEST PUSH2 0x21FC CALLER DUP4 DUP8 PUSH20 0xFFFFFFFFFFFFFFFFFFFFFFFFFFFFFFFFFFFFFFFF AND PUSH2 0x2F8C SWAP1 SWAP3 SWAP2 SWAP1 PUSH4 0xFFFFFFFF AND JUMP JUMPDEST JUMPDEST DUP5 PUSH20 0xFFFFFFFFFFFFFFFFFFFFFFFFFFFFFFFFFFFFFFFF AND CALLER PUSH20 0xFFFFFFFFFFFFFFFFFFFFFFFFFFFFFFFFFFFFFFFF AND PUSH32 0xC2B4A290C20FB28939D29F102514FBFFD2B73C059FFBA8B78250C94161D5FCC6 DUP5 DUP5 PUSH1 0x40 MLOAD PUSH2 0x225C SWAP3 SWAP2 SWAP1 PUSH2 0x39EF JUMP JUMPDEST PUSH1 0x40 MLOAD DUP1 SWAP2 SUB SWAP1 LOG3 POP POP POP POP PUSH2 0x2270 PUSH2 0x290D JUMP JUMPDEST POP JUMP JUMPDEST PUSH0 PUSH0 PUSH1 0x7 PUSH0 DUP6 PUSH20 0xFFFFFFFFFFFFFFFFFFFFFFFFFFFFFFFFFFFFFFFF AND PUSH20 0xFFFFFFFFFFFFFFFFFFFFFFFFFFFFFFFFFFFFFFFF AND DUP2 MSTORE PUSH1 0x20 ADD SWAP1 DUP2 MSTORE PUSH1 0x20 ADD PUSH0 KECCAK256 PUSH0 DUP5 PUSH20 0xFFFFFFFFFFFFFFFFFFFFFFFFFFFFFFFFFFFFFFFF AND PUSH20 0xFFFFFFFFFFFFFFFFFFFFFFFFFFFFFFFFFFFFFFFF AND DUP2 MSTORE PUSH1 0x20 ADD SWAP1 DUP2 MSTORE PUSH1 0x20 ADD PUSH0 KECCAK256 SLOAD SWAP1 POP PUSH0 PUSH2 0x22FB DUP5 DUP4 PUSH2 0x2BC1 JUMP JUMPDEST SWAP1 POP PUSH32 0x0 DUP2 GT PUSH2 0x232E JUMPI DUP2 SWAP3 POP POP POP PUSH2 0x235D JUMP JUMPDEST PUSH2 0x2358 DUP5 PUSH32 0x0 PUSH2 0x2AF0 JUMP JUMPDEST SWAP3 POP POP POP JUMPDEST SWAP3 SWAP2 POP POP JUMP JUMPDEST PUSH0 PUSH32 0x7965DB0B00000000000000000000000000000000000000000000000000000000 PUSH28 0xFFFFFFFFFFFFFFFFFFFFFFFFFFFFFFFFFFFFFFFFFFFFFFFFFFFFFFFF NOT AND DUP3 PUSH28 0xFFFFFFFFFFFFFFFFFFFFFFFFFFFFFFFFFFFFFFFFFFFFFFFFFFFFFFFF NOT AND EQ DUP1 PUSH2 0x23D5 JUMPI POP PUSH2 0x23D4 DUP3 PUSH2 0x300B JUMP JUMPDEST JUMPDEST SWAP1 POP SWAP2 SWAP1 POP JUMP JUMPDEST PUSH2 0x23ED DUP2 PUSH2 0x23E8 PUSH2 0x24D9 JUMP JUMPDEST PUSH2 0x3074 JUMP JUMPDEST POP JUMP JUMPDEST PUSH0 PUSH2 0x23FB DUP4 DUP4 PUSH2 0x15F9 JUMP JUMPDEST PUSH2 0x24CF JUMPI PUSH1 0x1 PUSH0 PUSH0 DUP6 DUP2 MSTORE PUSH1 0x20 ADD SWAP1 DUP2 MSTORE PUSH1 0x20 ADD PUSH0 KECCAK256 PUSH0 ADD PUSH0 DUP5 PUSH20 0xFFFFFFFFFFFFFFFFFFFFFFFFFFFFFFFFFFFFFFFF AND PUSH20 0xFFFFFFFFFFFFFFFFFFFFFFFFFFFFFFFFFFFFFFFF AND DUP2 MSTORE PUSH1 0x20 ADD SWAP1 DUP2 MSTORE PUSH1 0x20 ADD PUSH0 KECCAK256 PUSH0 PUSH2 0x100 EXP DUP2 SLOAD DUP2 PUSH1 0xFF MUL NOT AND SWAP1 DUP4 ISZERO ISZERO MUL OR SWAP1 SSTORE POP PUSH2 0x246C PUSH2 0x24D9 JUMP JUMPDEST PUSH20 0xFFFFFFFFFFFFFFFFFFFFFFFFFFFFFFFFFFFFFFFF AND DUP3 PUSH20 0xFFFFFFFFFFFFFFFFFFFFFFFFFFFFFFFFFFFFFFFF AND DUP5 PUSH32 0x2F8788117E7EFF1D82E926EC794901D17C78024A50270940304540A733656F0D PUSH1 0x40 MLOAD PUSH1 0x40 MLOAD DUP1 SWAP2 SUB SWAP1 LOG4 PUSH1 0x1 SWAP1 POP PUSH2 0x24D3 JUMP JUMPDEST PUSH0 SWAP1 POP JUMPDEST SWAP3 SWAP2 POP POP JUMP JUMPDEST PUSH0 CALLER SWAP1 POP SWAP1 JUMP JUMPDEST PUSH0 PUSH2 0x24EB DUP4 DUP4 PUSH2 0x15F9 JUMP JUMPDEST ISZERO PUSH2 0x25BF JUMPI PUSH0 PUSH0 PUSH0 DUP6 DUP2 MSTORE PUSH1 0x20 ADD SWAP1 DUP2 MSTORE PUSH1 0x20 ADD PUSH0 KECCAK256 PUSH0 ADD PUSH0 DUP5 PUSH20 0xFFFFFFFFFFFFFFFFFFFFFFFFFFFFFFFFFFFFFFFF AND PUSH20 0xFFFFFFFFFFFFFFFFFFFFFFFFFFFFFFFFFFFFFFFF AND DUP2 MSTORE PUSH1 0x20 ADD SWAP1 DUP2 MSTORE PUSH1 0x20 ADD PUSH0 KECCAK256 PUSH0 PUSH2 0x100 EXP DUP2 SLOAD DUP2 PUSH1 0xFF MUL NOT AND SWAP1 DUP4 ISZERO ISZERO MUL OR SWAP1 SSTORE POP PUSH2 0x255C PUSH2 0x24D9 JUMP JUMPDEST PUSH20 0xFFFFFFFFFFFFFFFFFFFFFFFFFFFFFFFFFFFFFFFF AND DUP3 PUSH20 0xFFFFFFFFFFFFFFFFFFFFFFFFFFFFFFFFFFFFFFFF AND DUP5 PUSH32 0xF6391F5C32D9C69D2A47EA670B442974B53935D1EDC7FD64EB21E047A839171B PUSH1 0x40 MLOAD PUSH1 0x40 MLOAD DUP1 SWAP2 SUB SWAP1 LOG4 PUSH1 0x1 SWAP1 POP PUSH2 0x25C3 JUMP JUMPDEST PUSH0 SWAP1 POP JUMPDEST SWAP3 SWAP2 POP POP JUMP JUMPDEST PUSH2 0x25D1 PUSH2 0x30C5 JUMP JUMPDEST PUSH0 PUSH1 0x2 PUSH0 PUSH2 0x100 EXP DUP2 SLOAD DUP2 PUSH1 0xFF MUL NOT AND SWAP1 DUP4 ISZERO ISZERO MUL OR SWAP1 SSTORE POP PUSH32 0x5DB9EE0A495BF2E6FF9C91A7834C1BA4FDD244A5E8AA4E537BD38AEAE4B073AA PUSH2 0x2613 PUSH2 0x24D9 JUMP JUMPDEST PUSH1 0x40 MLOAD PUSH2 0x2620 SWAP2 SWAP1 PUSH2 0x3502 JUMP JUMPDEST PUSH1 0x40 MLOAD DUP1 SWAP2 SUB SWAP1 LOG1 JUMP JUMPDEST PUSH2 0x2632 PUSH2 0x10E9 JUMP JUMPDEST ISZERO PUSH2 0x2669 JUMPI PUSH1 0x40 MLOAD PUSH32 0xD93C066500000000000000000000000000000000000000000000000000000000 DUP2 MSTORE PUSH1 0x4 ADD PUSH1 0x40 MLOAD DUP1 SWAP2 SUB SWAP1 REVERT JUMPDEST JUMP JUMPDEST PUSH1 0x2 PUSH1 0x1 SLOAD SUB PUSH2 0x26A7 JUMPI PUSH1 0x40 MLOAD PUSH32 0x3EE5AEB500000000000000000000000000000000000000000000000000000000 DUP2 MSTORE PUSH1 0x4 ADD PUSH1 0x40 MLOAD DUP1 SWAP2 SUB SWAP1 REVERT JUMPDEST PUSH1 0x2 PUSH1 0x1 DUP2 SWAP1 SSTORE POP JUMP JUMPDEST PUSH2 0x272D DUP5 DUP6 PUSH20 0xFFFFFFFFFFFFFFFFFFFFFFFFFFFFFFFFFFFFFFFF AND PUSH4 0x23B872DD DUP7 DUP7 DUP7 PUSH1 0x40 MLOAD PUSH1 0x24 ADD PUSH2 0x26E6 SWAP4 SWAP3 SWAP2 SWAP1 PUSH2 0x3A16 JUMP JUMPDEST PUSH1 0x40 MLOAD PUSH1 0x20 DUP2 DUP4 SUB SUB DUP2 MSTORE SWAP1 PUSH1 0x40 MSTORE SWAP2 POP PUSH1 0xE0 SHL PUSH1 0x20 DUP3 ADD DUP1 MLOAD PUSH28 0xFFFFFFFFFFFFFFFFFFFFFFFFFFFFFFFFFFFFFFFFFFFFFFFFFFFFFFFF DUP4 DUP2 DUP4 AND OR DUP4 MSTORE POP POP POP POP PUSH2 0x3105 JUMP JUMPDEST POP POP POP POP JUMP JUMPDEST PUSH0 PUSH2 0x273E DUP4 DUP4 PUSH2 0x2BC1 JUMP JUMPDEST SWAP1 POP PUSH3 0x186A0 DUP2 LT ISZERO PUSH2 0x277D JUMPI PUSH1 0x40 MLOAD PUSH32 0x6BA4A1C700000000000000000000000000000000000000000000000000000000 DUP2 MSTORE PUSH1 0x4 ADD PUSH1 0x40 MLOAD DUP1 SWAP2 SUB SWAP1 REVERT JUMPDEST PUSH32 0x0 DUP2 PUSH1 0x3 SLOAD PUSH2 0x27AC SWAP2 SWAP1 PUSH2 0x3A4B JUMP JUMPDEST GT ISZERO PUSH2 0x27E4 JUMPI PUSH1 0x40 MLOAD PUSH32 0x448F3CA800000000000000000000000000000000000000000000000000000000 DUP2 MSTORE PUSH1 0x4 ADD PUSH1 0x40 MLOAD DUP1 SWAP2 SUB SWAP1 REVERT JUMPDEST DUP2 PUSH1 0x7 PUSH0 CALLER PUSH20 0xFFFFFFFFFFFFFFFFFFFFFFFFFFFFFFFFFFFFFFFF AND PUSH20 0xFFFFFFFFFFFFFFFFFFFFFFFFFFFFFFFFFFFFFFFF AND DUP2 MSTORE PUSH1 0x20 ADD SWAP1 DUP2 MSTORE PUSH1 0x20 ADD PUSH0 KECCAK256 PUSH0 DUP6 PUSH20 0xFFFFFFFFFFFFFFFFFFFFFFFFFFFFFFFFFFFFFFFF AND PUSH20 0xFFFFFFFFFFFFFFFFFFFFFFFFFFFFFFFFFFFFFFFF AND DUP2 MSTORE PUSH1 0x20 ADD SWAP1 DUP2 MSTORE PUSH1 0x20 ADD PUSH0 KECCAK256 PUSH0 DUP3 DUP3 SLOAD PUSH2 0x286B SWAP2 SWAP1 PUSH2 0x3A4B JUMP JUMPDEST SWAP3 POP POP DUP2 SWAP1 SSTORE POP DUP1 PUSH1 0x3 PUSH0 DUP3 DUP3 SLOAD PUSH2 0x2883 SWAP2 SWAP1 PUSH2 0x3A4B JUMP JUMPDEST SWAP3 POP POP DUP2 SWAP1 SSTORE POP PUSH1 0x4 PUSH0 DUP2 SLOAD DUP1 SWAP3 SWAP2 SWAP1 PUSH2 0x289C SWAP1 PUSH2 0x39A8 JUMP JUMPDEST SWAP2 SWAP1 POP SSTORE POP DUP3 PUSH20 0xFFFFFFFFFFFFFFFFFFFFFFFFFFFFFFFFFFFFFFFF AND CALLER PUSH20 0xFFFFFFFFFFFFFFFFFFFFFFFFFFFFFFFFFFFFFFFF AND PUSH32 0xDCBC1C05240F31FF3AD067EF1EE35CE4997762752E3A095284754544F4C709D7 DUP5 DUP5 PUSH1 0x40 MLOAD PUSH2 0x2900 SWAP3 SWAP2 SWAP1 PUSH2 0x39EF JUMP JUMPDEST PUSH1 0x40 MLOAD DUP1 SWAP2 SUB SWAP1 LOG3 POP POP POP JUMP JUMPDEST PUSH1 0x1 DUP1 DUP2 SWAP1 SSTORE POP JUMP JUMPDEST PUSH1 0x1 PUSH1 0x8 PUSH0 DUP6 PUSH20 0xFFFFFFFFFFFFFFFFFFFFFFFFFFFFFFFFFFFFFFFF AND PUSH20 0xFFFFFFFFFFFFFFFFFFFFFFFFFFFFFFFFFFFFFFFF AND DUP2 MSTORE PUSH1 0x20 ADD SWAP1 DUP2 MSTORE PUSH1 0x20 ADD PUSH0 KECCAK256 PUSH0 PUSH2 0x100 EXP DUP2 SLOAD DUP2 PUSH1 0xFF MUL NOT AND SWAP1 DUP4 ISZERO ISZERO MUL OR SWAP1 SSTORE POP DUP2 PUSH1 0x9 PUSH0 DUP6 PUSH20 0xFFFFFFFFFFFFFFFFFFFFFFFFFFFFFFFFFFFFFFFF AND PUSH20 0xFFFFFFFFFFFFFFFFFFFFFFFFFFFFFFFFFFFFFFFF AND DUP2 MSTORE PUSH1 0x20 ADD SWAP1 DUP2 MSTORE PUSH1 0x20 ADD PUSH0 KECCAK256 PUSH0 PUSH2 0x100 EXP DUP2 SLOAD DUP2 PUSH1 0xFF MUL NOT AND SWAP1 DUP4 PUSH1 0xFF AND MUL OR SWAP1 SSTORE POP DUP1 PUSH1 0xA PUSH0 DUP6 PUSH20 0xFFFFFFFFFFFFFFFFFFFFFFFFFFFFFFFFFFFFFFFF AND PUSH20 0xFFFFFFFFFFFFFFFFFFFFFFFFFFFFFFFFFFFFFFFF AND DUP2 MSTORE PUSH1 0x20 ADD SWAP1 DUP2 MSTORE PUSH1 0x20 ADD PUSH0 KECCAK256 PUSH0 PUSH2 0x100 EXP DUP2 SLOAD DUP2 PUSH20 0xFFFFFFFFFFFFFFFFFFFFFFFFFFFFFFFFFFFFFFFF MUL NOT AND SWAP1 DUP4 PUSH20 0xFFFFFFFFFFFFFFFFFFFFFFFFFFFFFFFFFFFFFFFF AND MUL OR SWAP1 SSTORE POP PUSH1 0x6 DUP4 SWAP1 DUP1 PUSH1 0x1 DUP2 SLOAD ADD DUP1 DUP3 SSTORE DUP1 SWAP2 POP POP PUSH1 0x1 SWAP1 SUB SWAP1 PUSH0 MSTORE PUSH1 0x20 PUSH0 KECCAK256 ADD PUSH0 SWAP1 SWAP2 SWAP1 SWAP2 SWAP1 SWAP2 PUSH2 0x100 EXP DUP2 SLOAD DUP2 PUSH20 0xFFFFFFFFFFFFFFFFFFFFFFFFFFFFFFFFFFFFFFFF MUL NOT AND SWAP1 DUP4 PUSH20 0xFFFFFFFFFFFFFFFFFFFFFFFFFFFFFFFFFFFFFFFF AND MUL OR SWAP1 SSTORE POP DUP3 PUSH20 0xFFFFFFFFFFFFFFFFFFFFFFFFFFFFFFFFFFFFFFFF AND PUSH32 0x71EEDF6E504658772EC96BE84D876AE5C35B713CFDBFB47FE2C0053E9BDFE37B DUP4 DUP4 PUSH1 0x40 MLOAD PUSH2 0x2AE3 SWAP3 SWAP2 SWAP1 PUSH2 0x3A7E JUMP JUMPDEST PUSH1 0x40 MLOAD DUP1 SWAP2 SUB SWAP1 LOG2 POP POP POP JUMP JUMPDEST PUSH0 PUSH0 DUP3 SUB PUSH2 0x2B00 JUMPI PUSH0 SWAP1 POP PUSH2 0x2BBB JUMP JUMPDEST PUSH0 PUSH2 0x2B0A DUP5 PUSH2 0x2CF4 JUMP JUMPDEST SWAP1 POP PUSH0 PUSH1 0x9 PUSH0 DUP7 PUSH20 0xFFFFFFFFFFFFFFFFFFFFFFFFFFFFFFFFFFFFFFFF AND PUSH20 0xFFFFFFFFFFFFFFFFFFFFFFFFFFFFFFFFFFFFFFFF AND DUP2 MSTORE PUSH1 0x20 ADD SWAP1 DUP2 MSTORE PUSH1 0x20 ADD PUSH0 KECCAK256 PUSH0 SWAP1 SLOAD SWAP1 PUSH2 0x100 EXP SWAP1 DIV PUSH1 0xFF AND SWAP1 POP PUSH0 PUSH1 0x8 PUSH1 0xA PUSH2 0x2B68 SWAP2 SWAP1 PUSH2 0x3BD4 JUMP JUMPDEST DUP3 PUSH1 0xA PUSH2 0x2B75 SWAP2 SWAP1 PUSH2 0x3BD4 JUMP JUMPDEST DUP7 PUSH2 0x2B80 SWAP2 SWAP1 PUSH2 0x3C1E JUMP JUMPDEST PUSH2 0x2B8A SWAP2 SWAP1 PUSH2 0x3C1E JUMP JUMPDEST SWAP1 POP PUSH0 PUSH1 0x6 PUSH1 0xA PUSH2 0x2B9B SWAP2 SWAP1 PUSH2 0x3BD4 JUMP JUMPDEST DUP5 PUSH2 0x2BA6 SWAP2 SWAP1 PUSH2 0x3C1E JUMP JUMPDEST SWAP1 POP DUP1 DUP3 PUSH2 0x2BB4 SWAP2 SWAP1 PUSH2 0x3C8C JUMP JUMPDEST SWAP5 POP POP POP POP POP JUMPDEST SWAP3 SWAP2 POP POP JUMP JUMPDEST PUSH0 PUSH0 DUP3 SUB PUSH2 0x2BD1 JUMPI PUSH0 SWAP1 POP PUSH2 0x2C8C JUMP JUMPDEST PUSH0 PUSH2 0x2BDB DUP5 PUSH2 0x2CF4 JUMP JUMPDEST SWAP1 POP PUSH0 PUSH1 0x9 PUSH0 DUP7 PUSH20 0xFFFFFFFFFFFFFFFFFFFFFFFFFFFFFFFFFFFFFFFF AND PUSH20 0xFFFFFFFFFFFFFFFFFFFFFFFFFFFFFFFFFFFFFFFF AND DUP2 MSTORE PUSH1 0x20 ADD SWAP1 DUP2 MSTORE PUSH1 0x20 ADD PUSH0 KECCAK256 PUSH0 SWAP1 SLOAD SWAP1 PUSH2 0x100 EXP SWAP1 DIV PUSH1 0xFF AND SWAP1 POP PUSH0 PUSH1 0x6 PUSH1 0xA PUSH2 0x2C39 SWAP2 SWAP1 PUSH2 0x3BD4 JUMP JUMPDEST DUP4 DUP7 PUSH2 0x2C45 SWAP2 SWAP1 PUSH2 0x3C1E JUMP JUMPDEST PUSH2 0x2C4F SWAP2 SWAP1 PUSH2 0x3C1E JUMP JUMPDEST SWAP1 POP PUSH0 PUSH1 0x8 PUSH1 0xA PUSH2 0x2C60 SWAP2 SWAP1 PUSH2 0x3BD4 JUMP JUMPDEST DUP4 PUSH1 0xA PUSH2 0x2C6D SWAP2 SWAP1 PUSH2 0x3BD4 JUMP JUMPDEST PUSH2 0x2C77 SWAP2 SWAP1 PUSH2 0x3C1E JUMP JUMPDEST SWAP1 POP DUP1 DUP3 PUSH2 0x2C85 SWAP2 SWAP1 PUSH2 0x3C8C JUMP JUMPDEST SWAP5 POP POP POP POP POP JUMPDEST SWAP3 SWAP2 POP POP JUMP JUMPDEST PUSH2 0x2C9A PUSH2 0x262A JUMP JUMPDEST PUSH1 0x1 PUSH1 0x2 PUSH0 PUSH2 0x100 EXP DUP2 SLOAD DUP2 PUSH1 0xFF MUL NOT AND SWAP1 DUP4 ISZERO ISZERO MUL OR SWAP1 SSTORE POP PUSH32 0x62E78CEA01BEE320CD4E420270B5EA74000D11B0C9F74754EBDBFC544B05A258 PUSH2 0x2CDD PUSH2 0x24D9 JUMP JUMPDEST PUSH1 0x40 MLOAD PUSH2 0x2CEA SWAP2 SWAP1 PUSH2 0x3502 JUMP JUMPDEST PUSH1 0x40 MLOAD DUP1 SWAP2 SUB SWAP1 LOG1 JUMP JUMPDEST PUSH0 PUSH0 PUSH0 PUSH20 0xFFFFFFFFFFFFFFFFFFFFFFFFFFFFFFFFFFFFFFFF AND DUP4 PUSH20 0xFFFFFFFFFFFFFFFFFFFFFFFFFFFFFFFFFFFFFFFF AND EQ PUSH2 0x2D8B JUMPI PUSH1 0xA PUSH0 DUP5 PUSH20 0xFFFFFFFFFFFFFFFFFFFFFFFFFFFFFFFFFFFFFFFF AND PUSH20 0xFFFFFFFFFFFFFFFFFFFFFFFFFFFFFFFFFFFFFFFF AND DUP2 MSTORE PUSH1 0x20 ADD SWAP1 DUP2 MSTORE PUSH1 0x20 ADD PUSH0 KECCAK256 PUSH0 SWAP1 SLOAD SWAP1 PUSH2 0x100 EXP SWAP1 DIV PUSH20 0xFFFFFFFFFFFFFFFFFFFFFFFFFFFFFFFFFFFFFFFF AND PUSH2 0x2DAD JUMP JUMPDEST PUSH32 0x0 JUMPDEST SWAP1 POP PUSH0 PUSH0 DUP3 PUSH20 0xFFFFFFFFFFFFFFFFFFFFFFFFFFFFFFFFFFFFFFFF AND PUSH4 0xFEAF968C PUSH1 0x40 MLOAD DUP2 PUSH4 0xFFFFFFFF AND PUSH1 0xE0 SHL DUP2 MSTORE PUSH1 0x4 ADD PUSH1 0xA0 PUSH1 0x40 MLOAD DUP1 DUP4 SUB DUP2 DUP7 GAS STATICCALL ISZERO DUP1 ISZERO PUSH2 0x2DFA JUMPI RETURNDATASIZE PUSH0 PUSH0 RETURNDATACOPY RETURNDATASIZE PUSH0 REVERT JUMPDEST POP POP POP POP PUSH1 0x40 MLOAD RETURNDATASIZE PUSH1 0x1F NOT PUSH1 0x1F DUP3 ADD AND DUP3 ADD DUP1 PUSH1 0x40 MSTORE POP DUP2 ADD SWAP1 PUSH2 0x2E1E SWAP2 SWAP1 PUSH2 0x3D42 JUMP JUMPDEST POP SWAP4 POP POP SWAP3 POP POP PUSH0 DUP3 SGT PUSH2 0x2E5D JUMPI PUSH1 0x40 MLOAD PUSH31 0xBFC92100000000000000000000000000000000000000000000000000000000 DUP2 MSTORE PUSH1 0x4 ADD PUSH1 0x40 MLOAD DUP1 SWAP2 SUB SWAP1 REVERT JUMPDEST PUSH0 DUP2 SUB PUSH2 0x2E96 JUMPI PUSH1 0x40 MLOAD PUSH32 0x19ABF40E00000000000000000000000000000000000000000000000000000000 DUP2 MSTORE PUSH1 0x4 ADD PUSH1 0x40 MLOAD DUP1 SWAP2 SUB SWAP1 REVERT JUMPDEST PUSH2 0xE10 DUP2 TIMESTAMP PUSH2 0x2EA5 SWAP2 SWAP1 PUSH2 0x391B JUMP JUMPDEST GT ISZERO PUSH2 0x2EDD JUMPI PUSH1 0x40 MLOAD PUSH32 0x19ABF40E00000000000000000000000000000000000000000000000000000000 DUP2 MSTORE PUSH1 0x4 ADD PUSH1 0x40 MLOAD DUP1 SWAP2 SUB SWAP1 REVERT JUMPDEST DUP2 SWAP4 POP POP POP POP SWAP2 SWAP1 POP JUMP JUMPDEST PUSH0 DUP3 PUSH20 0xFFFFFFFFFFFFFFFFFFFFFFFFFFFFFFFFFFFFFFFF AND DUP3 PUSH1 0x40 MLOAD PUSH2 0x2F0D SWAP1 PUSH2 0x3DE6 JUMP JUMPDEST PUSH0 PUSH1 0x40 MLOAD DUP1 DUP4 SUB DUP2 DUP6 DUP8 GAS CALL SWAP3 POP POP POP RETURNDATASIZE DUP1 PUSH0 DUP2 EQ PUSH2 0x2F47 JUMPI PUSH1 0x40 MLOAD SWAP2 POP PUSH1 0x1F NOT PUSH1 0x3F RETURNDATASIZE ADD AND DUP3 ADD PUSH1 0x40 MSTORE RETURNDATASIZE DUP3 MSTORE RETURNDATASIZE PUSH0 PUSH1 0x20 DUP5 ADD RETURNDATACOPY PUSH2 0x2F4C JUMP JUMPDEST PUSH1 0x60 SWAP2 POP JUMPDEST POP POP SWAP1 POP DUP1 PUSH2 0x2F87 JUMPI PUSH1 0x40 MLOAD PUSH32 0x90B8EC1800000000000000000000000000000000000000000000000000000000 DUP2 MSTORE PUSH1 0x4 ADD PUSH1 0x40 MLOAD DUP1 SWAP2 SUB SWAP1 REVERT JUMPDEST POP POP POP JUMP JUMPDEST PUSH2 0x3006 DUP4 DUP5 PUSH20 0xFFFFFFFFFFFFFFFFFFFFFFFFFFFFFFFFFFFFFFFF AND PUSH4 0xA9059CBB DUP6 DUP6 PUSH1 0x40 MLOAD PUSH1 0x24 ADD PUSH2 0x2FBF SWAP3 SWAP2 SWAP1 PUSH2 0x3DFA JUMP JUMPDEST PUSH1 0x40 MLOAD PUSH1 0x20 DUP2 DUP4 SUB SUB DUP2 MSTORE SWAP1 PUSH1 0x40 MSTORE SWAP2 POP PUSH1 0xE0 SHL PUSH1 0x20 DUP3 ADD DUP1 MLOAD PUSH28 0xFFFFFFFFFFFFFFFFFFFFFFFFFFFFFFFFFFFFFFFFFFFFFFFFFFFFFFFF DUP4 DUP2 DUP4 AND OR DUP4 MSTORE POP POP POP POP PUSH2 0x3105 JUMP JUMPDEST POP POP POP JUMP JUMPDEST PUSH0 PUSH32 0x1FFC9A700000000000000000000000000000000000000000000000000000000 PUSH28 0xFFFFFFFFFFFFFFFFFFFFFFFFFFFFFFFFFFFFFFFFFFFFFFFFFFFFFFFF NOT AND DUP3 PUSH28 0xFFFFFFFFFFFFFFFFFFFFFFFFFFFFFFFFFFFFFFFFFFFFFFFFFFFFFFFF NOT AND EQ SWAP1 POP SWAP2 SWAP1 POP JUMP JUMPDEST PUSH2 0x307E DUP3 DUP3 PUSH2 0x15F9 JUMP JUMPDEST PUSH2 0x30C1 JUMPI DUP1 DUP3 PUSH1 0x40 MLOAD PUSH32 0xE2517D3F00000000000000000000000000000000000000000000000000000000 DUP2 MSTORE PUSH1 0x4 ADD PUSH2 0x30B8 SWAP3 SWAP2 SWAP1 PUSH2 0x3E21 JUMP JUMPDEST PUSH1 0x40 MLOAD DUP1 SWAP2 SUB SWAP1 REVERT JUMPDEST POP POP JUMP JUMPDEST PUSH2 0x30CD PUSH2 0x10E9 JUMP JUMPDEST PUSH2 0x3103 JUMPI PUSH1 0x40 MLOAD PUSH32 0x8DFC202B00000000000000000000000000000000000000000000000000000000 DUP2 MSTORE PUSH1 0x4 ADD PUSH1 0x40 MLOAD DUP1 SWAP2 SUB SWAP1 REVERT JUMPDEST JUMP JUMPDEST PUSH0 PUSH0 PUSH1 0x20 PUSH0 DUP5 MLOAD PUSH1 0x20 DUP7 ADD PUSH0 DUP9 GAS CALL DUP1 PUSH2 0x3124 JUMPI PUSH1 0x40 MLOAD RETURNDATASIZE PUSH0 DUP3 RETURNDATACOPY RETURNDATASIZE DUP2 REVERT JUMPDEST RETURNDATASIZE SWAP3 POP PUSH0 MLOAD SWAP2 POP POP PUSH0 DUP3 EQ PUSH2 0x313D JUMPI PUSH1 0x1 DUP2 EQ ISZERO PUSH2 0x3158 JUMP JUMPDEST PUSH0 DUP5 PUSH20 0xFFFFFFFFFFFFFFFFFFFFFFFFFFFFFFFFFFFFFFFF AND EXTCODESIZE EQ JUMPDEST ISZERO PUSH2 0x319A JUMPI DUP4 PUSH1 0x40 MLOAD PUSH32 0x5274AFE700000000000000000000000000000000000000000000000000000000 DUP2 MSTORE PUSH1 0x4 ADD PUSH2 0x3191 SWAP2 SWAP1 PUSH2 0x3502 JUMP JUMPDEST PUSH1 0x40 MLOAD DUP1 SWAP2 SUB SWAP1 REVERT JUMPDEST POP POP POP POP JUMP JUMPDEST PUSH1 0x40 MLOAD DUP1 PUSH1 0x80 ADD PUSH1 0x40 MSTORE DUP1 PUSH0 PUSH20 0xFFFFFFFFFFFFFFFFFFFFFFFFFFFFFFFFFFFFFFFF AND DUP2 MSTORE PUSH1 0x20 ADD PUSH0 PUSH1 0xFF AND DUP2 MSTORE PUSH1 0x20 ADD PUSH0 ISZERO ISZERO DUP2 MSTORE PUSH1 0x20 ADD PUSH0 PUSH20 0xFFFFFFFFFFFFFFFFFFFFFFFFFFFFFFFFFFFFFFFF AND DUP2 MSTORE POP SWAP1 JUMP JUMPDEST PUSH0 PUSH0 REVERT JUMPDEST PUSH0 PUSH32 0xFFFFFFFF00000000000000000000000000000000000000000000000000000000 DUP3 AND SWAP1 POP SWAP2 SWAP1 POP JUMP JUMPDEST PUSH2 0x322D DUP2 PUSH2 0x31F9 JUMP JUMPDEST DUP2 EQ PUSH2 0x3237 JUMPI PUSH0 PUSH0 REVERT JUMPDEST POP JUMP JUMPDEST PUSH0 DUP2 CALLDATALOAD SWAP1 POP PUSH2 0x3248 DUP2 PUSH2 0x3224 JUMP JUMPDEST SWAP3 SWAP2 POP POP JUMP JUMPDEST PUSH0 PUSH1 0x20 DUP3 DUP5 SUB SLT ISZERO PUSH2 0x3263 JUMPI PUSH2 0x3262 PUSH2 0x31F5 JUMP JUMPDEST JUMPDEST PUSH0 PUSH2 0x3270 DUP5 DUP3 DUP6 ADD PUSH2 0x323A JUMP JUMPDEST SWAP2 POP POP SWAP3 SWAP2 POP POP JUMP JUMPDEST PUSH0 DUP2 ISZERO ISZERO SWAP1 POP SWAP2 SWAP1 POP JUMP JUMPDEST PUSH2 0x328D DUP2 PUSH2 0x3279 JUMP JUMPDEST DUP3 MSTORE POP POP JUMP JUMPDEST PUSH0 PUSH1 0x20 DUP3 ADD SWAP1 POP PUSH2 0x32A6 PUSH0 DUP4 ADD DUP5 PUSH2 0x3284 JUMP JUMPDEST SWAP3 SWAP2 POP POP JUMP JUMPDEST PUSH0 PUSH20 0xFFFFFFFFFFFFFFFFFFFFFFFFFFFFFFFFFFFFFFFF DUP3 AND SWAP1 POP SWAP2 SWAP1 POP JUMP JUMPDEST PUSH0 PUSH2 0x32D5 DUP3 PUSH2 0x32AC JUMP JUMPDEST SWAP1 POP SWAP2 SWAP1 POP JUMP JUMPDEST PUSH2 0x32E5 DUP2 PUSH2 0x32CB JUMP JUMPDEST DUP2 EQ PUSH2 0x32EF JUMPI PUSH0 PUSH0 REVERT JUMPDEST POP JUMP JUMPDEST PUSH0 DUP2 CALLDATALOAD SWAP1 POP PUSH2 0x3300 DUP2 PUSH2 0x32DC JUMP JUMPDEST SWAP3 SWAP2 POP POP JUMP JUMPDEST PUSH0 PUSH1 0x20 DUP3 DUP5 SUB SLT ISZERO PUSH2 0x331B JUMPI PUSH2 0x331A PUSH2 0x31F5 JUMP JUMPDEST JUMPDEST PUSH0 PUSH2 0x3328 DUP5 DUP3 DUP6 ADD PUSH2 0x32F2 JUMP JUMPDEST SWAP2 POP POP SWAP3 SWAP2 POP POP JUMP JUMPDEST PUSH2 0x333A DUP2 PUSH2 0x32CB JUMP JUMPDEST DUP3 MSTORE POP POP JUMP JUMPDEST PUSH0 PUSH1 0xFF DUP3 AND SWAP1 POP SWAP2 SWAP1 POP JUMP JUMPDEST PUSH2 0x3355 DUP2 PUSH2 0x3340 JUMP JUMPDEST DUP3 MSTORE POP POP JUMP JUMPDEST PUSH2 0x3364 DUP2 PUSH2 0x3279 JUMP JUMPDEST DUP3 MSTORE POP POP JUMP JUMPDEST PUSH1 0x80 DUP3 ADD PUSH0 DUP3 ADD MLOAD PUSH2 0x337E PUSH0 DUP6 ADD DUP3 PUSH2 0x3331 JUMP JUMPDEST POP PUSH1 0x20 DUP3 ADD MLOAD PUSH2 0x3391 PUSH1 0x20 DUP6 ADD DUP3 PUSH2 0x334C JUMP JUMPDEST POP PUSH1 0x40 DUP3 ADD MLOAD PUSH2 0x33A4 PUSH1 0x40 DUP6 ADD DUP3 PUSH2 0x335B JUMP JUMPDEST POP PUSH1 0x60 DUP3 ADD MLOAD PUSH2 0x33B7 PUSH1 0x60 DUP6 ADD DUP3 PUSH2 0x3331 JUMP JUMPDEST POP POP POP POP JUMP JUMPDEST PUSH0 PUSH1 0x80 DUP3 ADD SWAP1 POP PUSH2 0x33D0 PUSH0 DUP4 ADD DUP5 PUSH2 0x336A JUMP JUMPDEST SWAP3 SWAP2 POP POP JUMP JUMPDEST PUSH0 DUP2 SWAP1 POP SWAP2 SWAP1 POP JUMP JUMPDEST PUSH2 0x33E8 DUP2 PUSH2 0x33D6 JUMP JUMPDEST DUP2 EQ PUSH2 0x33F2 JUMPI PUSH0 PUSH0 REVERT JUMPDEST POP JUMP JUMPDEST PUSH0 DUP2 CALLDATALOAD SWAP1 POP PUSH2 0x3403 DUP2 PUSH2 0x33DF JUMP JUMPDEST SWAP3 SWAP2 POP POP JUMP JUMPDEST PUSH0 PUSH1 0x20 DUP3 DUP5 SUB SLT ISZERO PUSH2 0x341E JUMPI PUSH2 0x341D PUSH2 0x31F5 JUMP JUMPDEST JUMPDEST PUSH0 PUSH2 0x342B DUP5 DUP3 DUP6 ADD PUSH2 0x33F5 JUMP JUMPDEST SWAP2 POP POP SWAP3 SWAP2 POP POP JUMP JUMPDEST PUSH2 0x343D DUP2 PUSH2 0x33D6 JUMP JUMPDEST DUP3 MSTORE POP POP JUMP JUMPDEST PUSH0 PUSH1 0x20 DUP3 ADD SWAP1 POP PUSH2 0x3456 PUSH0 DUP4 ADD DUP5 PUSH2 0x3434 JUMP JUMPDEST SWAP3 SWAP2 POP POP JUMP JUMPDEST PUSH2 0x3465 DUP2 PUSH2 0x3340 JUMP JUMPDEST DUP3 MSTORE POP POP JUMP JUMPDEST PUSH0 PUSH1 0x20 DUP3 ADD SWAP1 POP PUSH2 0x347E PUSH0 DUP4 ADD DUP5 PUSH2 0x345C JUMP JUMPDEST SWAP3 SWAP2 POP POP JUMP JUMPDEST PUSH0 DUP2 SWAP1 POP SWAP2 SWAP1 POP JUMP JUMPDEST PUSH2 0x3496 DUP2 PUSH2 0x3484 JUMP JUMPDEST DUP3 MSTORE POP POP JUMP JUMPDEST PUSH0 PUSH1 0x20 DUP3 ADD SWAP1 POP PUSH2 0x34AF PUSH0 DUP4 ADD DUP5 PUSH2 0x348D JUMP JUMPDEST SWAP3 SWAP2 POP POP JUMP JUMPDEST PUSH0 PUSH0 PUSH1 0x40 DUP4 DUP6 SUB SLT ISZERO PUSH2 0x34CB JUMPI PUSH2 0x34CA PUSH2 0x31F5 JUMP JUMPDEST JUMPDEST PUSH0 PUSH2 0x34D8 DUP6 DUP3 DUP7 ADD PUSH2 0x33F5 JUMP JUMPDEST SWAP3 POP POP PUSH1 0x20 PUSH2 0x34E9 DUP6 DUP3 DUP7 ADD PUSH2 0x32F2 JUMP JUMPDEST SWAP2 POP POP SWAP3 POP SWAP3 SWAP1 POP JUMP JUMPDEST PUSH2 0x34FC DUP2 PUSH2 0x32CB JUMP JUMPDEST DUP3 MSTORE POP POP JUMP JUMPDEST PUSH0 PUSH1 0x20 DUP3 ADD SWAP1 POP PUSH2 0x3515 PUSH0 DUP4 ADD DUP5 PUSH2 0x34F3 JUMP JUMPDEST SWAP3 SWAP2 POP POP JUMP JUMPDEST PUSH0 DUP2 SWAP1 POP SWAP2 SWAP1 POP JUMP JUMPDEST PUSH0 PUSH2 0x353E PUSH2 0x3539 PUSH2 0x3534 DUP5 PUSH2 0x32AC JUMP JUMPDEST PUSH2 0x351B JUMP JUMPDEST PUSH2 0x32AC JUMP JUMPDEST SWAP1 POP SWAP2 SWAP1 POP JUMP JUMPDEST PUSH0 PUSH2 0x354F DUP3 PUSH2 0x3524 JUMP JUMPDEST SWAP1 POP SWAP2 SWAP1 POP JUMP JUMPDEST PUSH0 PUSH2 0x3560 DUP3 PUSH2 0x3545 JUMP JUMPDEST SWAP1 POP SWAP2 SWAP1 POP JUMP JUMPDEST PUSH2 0x3570 DUP2 PUSH2 0x3556 JUMP JUMPDEST DUP3 MSTORE POP POP JUMP JUMPDEST PUSH0 PUSH1 0x20 DUP3 ADD SWAP1 POP PUSH2 0x3589 PUSH0 DUP4 ADD DUP5 PUSH2 0x3567 JUMP JUMPDEST SWAP3 SWAP2 POP POP JUMP JUMPDEST PUSH2 0x3598 DUP2 PUSH2 0x3484 JUMP JUMPDEST DUP2 EQ PUSH2 0x35A2 JUMPI PUSH0 PUSH0 REVERT JUMPDEST POP JUMP JUMPDEST PUSH0 DUP2 CALLDATALOAD SWAP1 POP PUSH2 0x35B3 DUP2 PUSH2 0x358F JUMP JUMPDEST SWAP3 SWAP2 POP POP JUMP JUMPDEST PUSH0 PUSH0 PUSH1 0x40 DUP4 DUP6 SUB SLT ISZERO PUSH2 0x35CF JUMPI PUSH2 0x35CE PUSH2 0x31F5 JUMP JUMPDEST JUMPDEST PUSH0 PUSH2 0x35DC DUP6 DUP3 DUP7 ADD PUSH2 0x32F2 JUMP JUMPDEST SWAP3 POP POP PUSH1 0x20 PUSH2 0x35ED DUP6 DUP3 DUP7 ADD PUSH2 0x35A5 JUMP JUMPDEST SWAP2 POP POP SWAP3 POP SWAP3 SWAP1 POP JUMP JUMPDEST PUSH0 PUSH0 PUSH1 0x40 DUP4 DUP6 SUB SLT ISZERO PUSH2 0x360D JUMPI PUSH2 0x360C PUSH2 0x31F5 JUMP JUMPDEST JUMPDEST PUSH0 PUSH2 0x361A DUP6 DUP3 DUP7 ADD PUSH2 0x32F2 JUMP JUMPDEST SWAP3 POP POP PUSH1 0x20 PUSH2 0x362B DUP6 DUP3 DUP7 ADD PUSH2 0x32F2 JUMP JUMPDEST SWAP2 POP POP SWAP3 POP SWAP3 SWAP1 POP JUMP JUMPDEST PUSH0 DUP2 MLOAD SWAP1 POP SWAP2 SWAP1 POP JUMP JUMPDEST PUSH0 DUP3 DUP3 MSTORE PUSH1 0x20 DUP3 ADD SWAP1 POP SWAP3 SWAP2 POP POP JUMP JUMPDEST PUSH0 DUP2 SWAP1 POP PUSH1 0x20 DUP3 ADD SWAP1 POP SWAP2 SWAP1 POP JUMP JUMPDEST PUSH0 PUSH2 0x3669 DUP4 DUP4 PUSH2 0x3331 JUMP JUMPDEST PUSH1 0x20 DUP4 ADD SWAP1 POP SWAP3 SWAP2 POP POP JUMP JUMPDEST PUSH0 PUSH1 0x20 DUP3 ADD SWAP1 POP SWAP2 SWAP1 POP JUMP JUMPDEST PUSH0 PUSH2 0x368B DUP3 PUSH2 0x3635 JUMP JUMPDEST PUSH2 0x3695 DUP2 DUP6 PUSH2 0x363F JUMP JUMPDEST SWAP4 POP PUSH2 0x36A0 DUP4 PUSH2 0x364F JUMP JUMPDEST DUP1 PUSH0 JUMPDEST DUP4 DUP2 LT ISZERO PUSH2 0x36D0 JUMPI DUP2 MLOAD PUSH2 0x36B7 DUP9 DUP3 PUSH2 0x365E JUMP JUMPDEST SWAP8 POP PUSH2 0x36C2 DUP4 PUSH2 0x3675 JUMP JUMPDEST SWAP3 POP POP PUSH1 0x1 DUP2 ADD SWAP1 POP PUSH2 0x36A3 JUMP JUMPDEST POP DUP6 SWAP4 POP POP POP POP SWAP3 SWAP2 POP POP JUMP JUMPDEST PUSH0 DUP2 MLOAD SWAP1 POP SWAP2 SWAP1 POP JUMP JUMPDEST PUSH0 DUP3 DUP3 MSTORE PUSH1 0x20 DUP3 ADD SWAP1 POP SWAP3 SWAP2 POP POP JUMP JUMPDEST PUSH0 DUP2 SWAP1 POP PUSH1 0x20 DUP3 ADD SWAP1 POP SWAP2 SWAP1 POP JUMP JUMPDEST PUSH2 0x370F DUP2 PUSH2 0x3484 JUMP JUMPDEST DUP3 MSTORE POP POP JUMP JUMPDEST PUSH0 PUSH2 0x3720 DUP4 DUP4 PUSH2 0x3706 JUMP JUMPDEST PUSH1 0x20 DUP4 ADD SWAP1 POP SWAP3 SWAP2 POP POP JUMP JUMPDEST PUSH0 PUSH1 0x20 DUP3 ADD SWAP1 POP SWAP2 SWAP1 POP JUMP JUMPDEST PUSH0 PUSH2 0x3742 DUP3 PUSH2 0x36DD JUMP JUMPDEST PUSH2 0x374C DUP2 DUP6 PUSH2 0x36E7 JUMP JUMPDEST SWAP4 POP PUSH2 0x3757 DUP4 PUSH2 0x36F7 JUMP JUMPDEST DUP1 PUSH0 JUMPDEST DUP4 DUP2 LT ISZERO PUSH2 0x3787 JUMPI DUP2 MLOAD PUSH2 0x376E DUP9 DUP3 PUSH2 0x3715 JUMP JUMPDEST SWAP8 POP PUSH2 0x3779 DUP4 PUSH2 0x372C JUMP JUMPDEST SWAP3 POP POP PUSH1 0x1 DUP2 ADD SWAP1 POP PUSH2 0x375A JUMP JUMPDEST POP DUP6 SWAP4 POP POP POP POP SWAP3 SWAP2 POP POP JUMP JUMPDEST PUSH0 PUSH1 0x60 DUP3 ADD SWAP1 POP DUP2 DUP2 SUB PUSH0 DUP4 ADD MSTORE PUSH2 0x37AC DUP2 DUP7 PUSH2 0x3681 JUMP JUMPDEST SWAP1 POP DUP2 DUP2 SUB PUSH1 0x20 DUP4 ADD MSTORE PUSH2 0x37C0 DUP2 DUP6 PUSH2 0x3738 JUMP JUMPDEST SWAP1 POP DUP2 DUP2 SUB PUSH1 0x40 DUP4 ADD MSTORE PUSH2 0x37D4 DUP2 DUP5 PUSH2 0x3738 JUMP JUMPDEST SWAP1 POP SWAP5 SWAP4 POP POP POP POP JUMP JUMPDEST PUSH0 PUSH1 0x20 DUP3 DUP5 SUB SLT ISZERO PUSH2 0x37F3 JUMPI PUSH2 0x37F2 PUSH2 0x31F5 JUMP JUMPDEST JUMPDEST PUSH0 PUSH2 0x3800 DUP5 DUP3 DUP6 ADD PUSH2 0x35A5 JUMP JUMPDEST SWAP2 POP POP SWAP3 SWAP2 POP POP JUMP JUMPDEST PUSH0 PUSH1 0x80 DUP3 ADD SWAP1 POP PUSH2 0x381C PUSH0 DUP4 ADD DUP8 PUSH2 0x348D JUMP JUMPDEST PUSH2 0x3829 PUSH1 0x20 DUP4 ADD DUP7 PUSH2 0x348D JUMP JUMPDEST PUSH2 0x3836 PUSH1 0x40 DUP4 ADD DUP6 PUSH2 0x348D JUMP JUMPDEST PUSH2 0x3843 PUSH1 0x60 DUP4 ADD DUP5 PUSH2 0x348D JUMP JUMPDEST SWAP6 SWAP5 POP POP POP POP POP JUMP JUMPDEST PUSH0 PUSH1 0x20 DUP3 ADD SWAP1 POP DUP2 DUP2 SUB PUSH0 DUP4 ADD MSTORE PUSH2 0x3864 DUP2 DUP5 PUSH2 0x3681 JUMP JUMPDEST SWAP1 POP SWAP3 SWAP2 POP POP JUMP JUMPDEST PUSH2 0x3875 DUP2 PUSH2 0x3340 JUMP JUMPDEST DUP2 EQ PUSH2 0x387F JUMPI PUSH0 PUSH0 REVERT JUMPDEST POP JUMP JUMPDEST PUSH0 DUP2 MLOAD SWAP1 POP PUSH2 0x3890 DUP2 PUSH2 0x386C JUMP JUMPDEST SWAP3 SWAP2 POP POP JUMP JUMPDEST PUSH0 PUSH1 0x20 DUP3 DUP5 SUB SLT ISZERO PUSH2 0x38AB JUMPI PUSH2 0x38AA PUSH2 0x31F5 JUMP JUMPDEST JUMPDEST PUSH0 PUSH2 0x38B8 DUP5 DUP3 DUP6 ADD PUSH2 0x3882 JUMP JUMPDEST SWAP2 POP POP SWAP3 SWAP2 POP POP JUMP JUMPDEST PUSH32 0x4E487B7100000000000000000000000000000000000000000000000000000000 PUSH0 MSTORE PUSH1 0x32 PUSH1 0x4 MSTORE PUSH1 0x24 PUSH0 REVERT JUMPDEST PUSH32 0x4E487B7100000000000000000000000000000000000000000000000000000000 PUSH0 MSTORE PUSH1 0x11 PUSH1 0x4 MSTORE PUSH1 0x24 PUSH0 REVERT JUMPDEST PUSH0 PUSH2 0x3925 DUP3 PUSH2 0x3484 JUMP JUMPDEST SWAP2 POP PUSH2 0x3930 DUP4 PUSH2 0x3484 JUMP JUMPDEST SWAP3 POP DUP3 DUP3 SUB SWAP1 POP DUP2 DUP2 GT ISZERO PUSH2 0x3948 JUMPI PUSH2 0x3947 PUSH2 0x38EE JUMP JUMPDEST JUMPDEST SWAP3 SWAP2 POP POP JUMP JUMPDEST PUSH32 0x4E487B7100000000000000000000000000000000000000000000000000000000 PUSH0 MSTORE PUSH1 0x31 PUSH1 0x4 MSTORE PUSH1 0x24 PUSH0 REVERT JUMPDEST PUSH32 0x4E487B7100000000000000000000000000000000000000000000000000000000 PUSH0 MSTORE PUSH1 0x41 PUSH1 0x4 MSTORE PUSH1 0x24 PUSH0 REVERT JUMPDEST PUSH0 PUSH2 0x39B2 DUP3 PUSH2 0x3484 JUMP JUMPDEST SWAP2 POP PUSH32 0xFFFFFFFFFFFFFFFFFFFFFFFFFFFFFFFFFFFFFFFFFFFFFFFFFFFFFFFFFFFFFFFF DUP3 SUB PUSH2 0x39E4 JUMPI PUSH2 0x39E3 PUSH2 0x38EE JUMP JUMPDEST JUMPDEST PUSH1 0x1 DUP3 ADD SWAP1 POP SWAP2 SWAP1 POP JUMP JUMPDEST PUSH0 PUSH1 0x40 DUP3 ADD SWAP1 POP PUSH2 0x3A02 PUSH0 DUP4 ADD DUP6 PUSH2 0x348D JUMP JUMPDEST PUSH2 0x3A0F PUSH1 0x20 DUP4 ADD DUP5 PUSH2 0x348D JUMP JUMPDEST SWAP4 SWAP3 POP POP POP JUMP JUMPDEST PUSH0 PUSH1 0x60 DUP3 ADD SWAP1 POP PUSH2 0x3A29 PUSH0 DUP4 ADD DUP7 PUSH2 0x34F3 JUMP JUMPDEST PUSH2 0x3A36 PUSH1 0x20 DUP4 ADD DUP6 PUSH2 0x34F3 JUMP JUMPDEST PUSH2 0x3A43 PUSH1 0x40 DUP4 ADD DUP5 PUSH2 0x348D JUMP JUMPDEST SWAP5 SWAP4 POP POP POP POP JUMP JUMPDEST PUSH0 PUSH2 0x3A55 DUP3 PUSH2 0x3484 JUMP JUMPDEST SWAP2 POP PUSH2 0x3A60 DUP4 PUSH2 0x3484 JUMP JUMPDEST SWAP3 POP DUP3 DUP3 ADD SWAP1 POP DUP1 DUP3 GT ISZERO PUSH2 0x3A78 JUMPI PUSH2 0x3A77 PUSH2 0x38EE JUMP JUMPDEST JUMPDEST SWAP3 SWAP2 POP POP JUMP JUMPDEST PUSH0 PUSH1 0x40 DUP3 ADD SWAP1 POP PUSH2 0x3A91 PUSH0 DUP4 ADD DUP6 PUSH2 0x345C JUMP JUMPDEST PUSH2 0x3A9E PUSH1 0x20 DUP4 ADD DUP5 PUSH2 0x34F3 JUMP JUMPDEST SWAP4 SWAP3 POP POP POP JUMP JUMPDEST PUSH0 DUP2 PUSH1 0x1 SHR SWAP1 POP SWAP2 SWAP1 POP JUMP JUMPDEST PUSH0 PUSH0 DUP3 SWAP2 POP DUP4 SWAP1 POP JUMPDEST PUSH1 0x1 DUP6 GT ISZERO PUSH2 0x3AFA JUMPI DUP1 DUP7 DIV DUP2 GT ISZERO PUSH2 0x3AD6 JUMPI PUSH2 0x3AD5 PUSH2 0x38EE JUMP JUMPDEST JUMPDEST PUSH1 0x1 DUP6 AND ISZERO PUSH2 0x3AE5 JUMPI DUP1 DUP3 MUL SWAP2 POP JUMPDEST DUP1 DUP2 MUL SWAP1 POP PUSH2 0x3AF3 DUP6 PUSH2 0x3AA5 JUMP JUMPDEST SWAP5 POP PUSH2 0x3ABA JUMP JUMPDEST SWAP5 POP SWAP5 SWAP3 POP POP POP JUMP JUMPDEST PUSH0 DUP3 PUSH2 0x3B12 JUMPI PUSH1 0x1 SWAP1 POP PUSH2 0x3BCD JUMP JUMPDEST DUP2 PUSH2 0x3B1F JUMPI PUSH0 SWAP1 POP PUSH2 0x3BCD JUMP JUMPDEST DUP2 PUSH1 0x1 DUP2 EQ PUSH2 0x3B35 JUMPI PUSH1 0x2 DUP2 EQ PUSH2 0x3B3F JUMPI PUSH2 0x3B6E JUMP JUMPDEST PUSH1 0x1 SWAP2 POP POP PUSH2 0x3BCD JUMP JUMPDEST PUSH1 0xFF DUP5 GT ISZERO PUSH2 0x3B51 JUMPI PUSH2 0x3B50 PUSH2 0x38EE JUMP JUMPDEST JUMPDEST DUP4 PUSH1 0x2 EXP SWAP2 POP DUP5 DUP3 GT ISZERO PUSH2 0x3B68 JUMPI PUSH2 0x3B67 PUSH2 0x38EE JUMP JUMPDEST JUMPDEST POP PUSH2 0x3BCD JUMP JUMPDEST POP PUSH1 0x20 DUP4 LT PUSH2 0x133 DUP4 LT AND PUSH1 0x4E DUP5 LT PUSH1 0xB DUP5 LT AND OR ISZERO PUSH2 0x3BA3 JUMPI DUP3 DUP3 EXP SWAP1 POP DUP4 DUP2 GT ISZERO PUSH2 0x3B9E JUMPI PUSH2 0x3B9D PUSH2 0x38EE JUMP JUMPDEST JUMPDEST PUSH2 0x3BCD JUMP JUMPDEST PUSH2 0x3BB0 DUP5 DUP5 DUP5 PUSH1 0x1 PUSH2 0x3AB1 JUMP JUMPDEST SWAP3 POP SWAP1 POP DUP2 DUP5 DIV DUP2 GT ISZERO PUSH2 0x3BC7 JUMPI PUSH2 0x3BC6 PUSH2 0x38EE JUMP JUMPDEST JUMPDEST DUP2 DUP2 MUL SWAP1 POP JUMPDEST SWAP4 SWAP3 POP POP POP JUMP JUMPDEST PUSH0 PUSH2 0x3BDE DUP3 PUSH2 0x3484 JUMP JUMPDEST SWAP2 POP PUSH2 0x3BE9 DUP4 PUSH2 0x3340 JUMP JUMPDEST SWAP3 POP PUSH2 0x3C16 PUSH32 0xFFFFFFFFFFFFFFFFFFFFFFFFFFFFFFFFFFFFFFFFFFFFFFFFFFFFFFFFFFFFFFFF DUP5 DUP5 PUSH2 0x3B03 JUMP JUMPDEST SWAP1 POP SWAP3 SWAP2 POP POP JUMP JUMPDEST PUSH0 PUSH2 0x3C28 DUP3 PUSH2 0x3484 JUMP JUMPDEST SWAP2 POP PUSH2 0x3C33 DUP4 PUSH2 0x3484 JUMP JUMPDEST SWAP3 POP DUP3 DUP3 MUL PUSH2 0x3C41 DUP2 PUSH2 0x3484 JUMP JUMPDEST SWAP2 POP DUP3 DUP3 DIV DUP5 EQ DUP4 ISZERO OR PUSH2 0x3C58 JUMPI PUSH2 0x3C57 PUSH2 0x38EE JUMP JUMPDEST JUMPDEST POP SWAP3 SWAP2 POP POP JUMP JUMPDEST PUSH32 0x4E487B7100000000000000000000000000000000000000000000000000000000 PUSH0 MSTORE PUSH1 0x12 PUSH1 0x4 MSTORE PUSH1 0x24 PUSH0 REVERT JUMPDEST PUSH0 PUSH2 0x3C96 DUP3 PUSH2 0x3484 JUMP JUMPDEST SWAP2 POP PUSH2 0x3CA1 DUP4 PUSH2 0x3484 JUMP JUMPDEST SWAP3 POP DUP3 PUSH2 0x3CB1 JUMPI PUSH2 0x3CB0 PUSH2 0x3C5F JUMP JUMPDEST JUMPDEST DUP3 DUP3 DIV SWAP1 POP SWAP3 SWAP2 POP POP JUMP JUMPDEST PUSH0 PUSH10 0xFFFFFFFFFFFFFFFFFFFF DUP3 AND SWAP1 POP SWAP2 SWAP1 POP JUMP JUMPDEST PUSH2 0x3CDA DUP2 PUSH2 0x3CBC JUMP JUMPDEST DUP2 EQ PUSH2 0x3CE4 JUMPI PUSH0 PUSH0 REVERT JUMPDEST POP JUMP JUMPDEST PUSH0 DUP2 MLOAD SWAP1 POP PUSH2 0x3CF5 DUP2 PUSH2 0x3CD1 JUMP JUMPDEST SWAP3 SWAP2 POP POP JUMP JUMPDEST PUSH0 DUP2 SWAP1 POP SWAP2 SWAP1 POP JUMP JUMPDEST PUSH2 0x3D0D DUP2 PUSH2 0x3CFB JUMP JUMPDEST DUP2 EQ PUSH2 0x3D17 JUMPI PUSH0 PUSH0 REVERT JUMPDEST POP JUMP JUMPDEST PUSH0 DUP2 MLOAD SWAP1 POP PUSH2 0x3D28 DUP2 PUSH2 0x3D04 JUMP JUMPDEST SWAP3 SWAP2 POP POP JUMP JUMPDEST PUSH0 DUP2 MLOAD SWAP1 POP PUSH2 0x3D3C DUP2 PUSH2 0x358F JUMP JUMPDEST SWAP3 SWAP2 POP POP JUMP JUMPDEST PUSH0 PUSH0 PUSH0 PUSH0 PUSH0 PUSH1 0xA0 DUP7 DUP9 SUB SLT ISZERO PUSH2 0x3D5B JUMPI PUSH2 0x3D5A PUSH2 0x31F5 JUMP JUMPDEST JUMPDEST PUSH0 PUSH2 0x3D68 DUP9 DUP3 DUP10 ADD PUSH2 0x3CE7 JUMP JUMPDEST SWAP6 POP POP PUSH1 0x20 PUSH2 0x3D79 DUP9 DUP3 DUP10 ADD PUSH2 0x3D1A JUMP JUMPDEST SWAP5 POP POP PUSH1 0x40 PUSH2 0x3D8A DUP9 DUP3 DUP10 ADD PUSH2 0x3D2E JUMP JUMPDEST SWAP4 POP POP PUSH1 0x60 PUSH2 0x3D9B DUP9 DUP3 DUP10 ADD PUSH2 0x3D2E JUMP JUMPDEST SWAP3 POP POP PUSH1 0x80 PUSH2 0x3DAC DUP9 DUP3 DUP10 ADD PUSH2 0x3CE7 JUMP JUMPDEST SWAP2 POP POP SWAP3 SWAP6 POP SWAP3 SWAP6 SWAP1 SWAP4 POP JUMP JUMPDEST PUSH0 DUP2 SWAP1 POP SWAP3 SWAP2 POP POP JUMP JUMPDEST POP JUMP JUMPDEST PUSH0 PUSH2 0x3DD1 PUSH0 DUP4 PUSH2 0x3DB9 JUMP JUMPDEST SWAP2 POP PUSH2 0x3DDC DUP3 PUSH2 0x3DC3 JUMP JUMPDEST PUSH0 DUP3 ADD SWAP1 POP SWAP2 SWAP1 POP JUMP JUMPDEST PUSH0 PUSH2 0x3DF0 DUP3 PUSH2 0x3DC6 JUMP JUMPDEST SWAP2 POP DUP2 SWAP1 POP SWAP2 SWAP1 POP JUMP JUMPDEST PUSH0 PUSH1 0x40 DUP3 ADD SWAP1 POP PUSH2 0x3E0D PUSH0 DUP4 ADD DUP6 PUSH2 0x34F3 JUMP JUMPDEST PUSH2 0x3E1A PUSH1 0x20 DUP4 ADD DUP5 PUSH2 0x348D JUMP JUMPDEST SWAP4 SWAP3 POP POP POP JUMP JUMPDEST PUSH0 PUSH1 0x40 DUP3 ADD SWAP1 POP PUSH2 0x3E34 PUSH0 DUP4 ADD DUP6 PUSH2 0x34F3 JUMP JUMPDEST PUSH2 0x3E41 PUSH1 0x20 DUP4 ADD DUP5 PUSH2 0x3434 JUMP JUMPDEST SWAP4 SWAP3 POP POP POP JUMP INVALID LOG2 PUSH5 0x6970667358 0x22 SLT KECCAK256 SWAP6 0x29 0xD2 PUSH13 0x2C3A1C5115EACE0F389CC412BB JUMPI CODESIZE ORIGIN 0xC1 TIMESTAMP 0xF7 LOG0 PUSH29 0x19E7D0812388C864736F6C634300081E00330000000000000000000000 "
				},
				"gasEstimates": {
					"creation": {
						"codeDepositCost": "3199600",
						"executionCost": "infinite",
						"totalCost": "infinite"
					},
					"external": {
						"ACCOUNTING_DECIMALS()": "444",
						"ADMIN_ROLE()": "393",
						"DEFAULT_ADMIN_ROLE()": "396",
						"MINIMUM_DEPOSIT_USD()": "370",
						"NATIVE_TOKEN()": "440",
						"OPERATOR_ROLE()": "435",
						"PRICE_FEED_DECIMALS()": "443",
						"addToken(address,address)": "infinite",
						"bankCapUsd()": "infinite",
						"convertFromUsd(address,uint256)": "infinite",
						"convertToUsd(address,uint256)": "infinite",
						"deposit(address,uint256)": "infinite",
						"depositCount()": "2560",
						"depositNative()": "infinite",
						"ethUsdPriceFeed()": "infinite",
						"getAllBalances(address)": "infinite",
						"getBalance(address,address)": "infinite",
						"getBalanceInUsd(address,address)": "infinite",
						"getBankStats()": "infinite",
						"getMaxWithdrawal(address,address)": "infinite",
						"getRoleAdmin(bytes32)": "infinite",
						"getSupportedTokens()": "infinite",
						"getTokenInfo(address)": "infinite",
						"getTokenPrice(address)": "infinite",
						"grantRole(bytes32,address)": "infinite",
						"hasRole(bytes32,address)": "3254",
						"isTokenSupported(address)": "2879",
						"pause()": "infinite",
						"paused()": "2562",
						"removeToken(address)": "infinite",
						"renounceRole(bytes32,address)": "infinite",
						"revokeRole(bytes32,address)": "infinite",
						"supportedTokens(uint256)": "5099",
						"supportsInterface(bytes4)": "806",
						"tokenDecimals(address)": "2945",
						"tokenPriceFeeds(address)": "infinite",
						"totalDepositsUsd()": "2471",
						"unpause()": "infinite",
						"vaults(address,address)": "infinite",
						"withdraw(address,uint256)": "infinite",
						"withdrawAll(address)": "infinite",
						"withdrawalCount()": "2580",
						"withdrawalLimitUsd()": "infinite"
					},
					"internal": {
						"_addToken(address,uint8,address)": "infinite",
						"_convertFromUsd(address,uint256)": "infinite",
						"_convertToUsd(address,uint256)": "infinite",
						"_deposit(address,uint256)": "infinite",
						"_getPrice(address)": "infinite",
						"_sendNative(address,uint256)": "infinite"
					}
				},
				"methodIdentifiers": {
					"ACCOUNTING_DECIMALS()": "2b825ad6",
					"ADMIN_ROLE()": "75b238fc",
					"DEFAULT_ADMIN_ROLE()": "a217fddf",
					"MINIMUM_DEPOSIT_USD()": "965e12dc",
					"NATIVE_TOKEN()": "31f7d964",
					"OPERATOR_ROLE()": "f5b541a6",
					"PRICE_FEED_DECIMALS()": "4ed94b24",
					"addToken(address,address)": "5476bd72",
					"bankCapUsd()": "ac4543ba",
					"convertFromUsd(address,uint256)": "57f1915d",
					"convertToUsd(address,uint256)": "ee957996",
					"deposit(address,uint256)": "47e7ef24",
					"depositCount()": "2dfdf0b5",
					"depositNative()": "db6b5246",
					"ethUsdPriceFeed()": "42f6fb29",
					"getAllBalances(address)": "c53d6ce1",
					"getBalance(address,address)": "d4fac45d",
					"getBalanceInUsd(address,address)": "70d397e9",
					"getBankStats()": "c6e8e38c",
					"getMaxWithdrawal(address,address)": "ffecbc17",
					"getRoleAdmin(bytes32)": "248a9ca3",
					"getSupportedTokens()": "d3c7c2c7",
					"getTokenInfo(address)": "1f69565f",
					"getTokenPrice(address)": "d02641a0",
					"grantRole(bytes32,address)": "2f2ff15d",
					"hasRole(bytes32,address)": "91d14854",
					"isTokenSupported(address)": "75151b63",
					"pause()": "8456cb59",
					"paused()": "5c975abb",
					"removeToken(address)": "5fa7b584",
					"renounceRole(bytes32,address)": "36568abe",
					"revokeRole(bytes32,address)": "d547741f",
					"supportedTokens(uint256)": "c6255626",
					"supportsInterface(bytes4)": "01ffc9a7",
					"tokenDecimals(address)": "8ee573ac",
					"tokenPriceFeeds(address)": "bd9c47e3",
					"totalDepositsUsd()": "45037ac9",
					"unpause()": "3f4ba83a",
					"vaults(address,address)": "4d635e70",
					"withdraw(address,uint256)": "f3fef3a3",
					"withdrawAll(address)": "fa09e630",
					"withdrawalCount()": "71706cbe",
					"withdrawalLimitUsd()": "51247424"
				}
			},
			"storageLayout": {
				"storage": [
					{
						"astId": 73,
						"contract": "contracts/KipuBank.sol:KipuBankV2",
						"label": "_roles",
						"offset": 0,
						"slot": "0",
						"type": "t_mapping(t_bytes32,t_struct(RoleData)68_storage)"
					},
					{
						"astId": 1232,
						"contract": "contracts/KipuBank.sol:KipuBankV2",
						"label": "_status",
						"offset": 0,
						"slot": "1",
						"type": "t_uint256"
					},
					{
						"astId": 1122,
						"contract": "contracts/KipuBank.sol:KipuBankV2",
						"label": "_paused",
						"offset": 0,
						"slot": "2",
						"type": "t_bool"
					},
					{
						"astId": 1390,
						"contract": "contracts/KipuBank.sol:KipuBankV2",
						"label": "totalDepositsUsd",
						"offset": 0,
						"slot": "3",
						"type": "t_uint256"
					},
					{
						"astId": 1393,
						"contract": "contracts/KipuBank.sol:KipuBankV2",
						"label": "depositCount",
						"offset": 0,
						"slot": "4",
						"type": "t_uint256"
					},
					{
						"astId": 1396,
						"contract": "contracts/KipuBank.sol:KipuBankV2",
						"label": "withdrawalCount",
						"offset": 0,
						"slot": "5",
						"type": "t_uint256"
					},
					{
						"astId": 1400,
						"contract": "contracts/KipuBank.sol:KipuBankV2",
						"label": "supportedTokens",
						"offset": 0,
						"slot": "6",
						"type": "t_array(t_address)dyn_storage"
					},
					{
						"astId": 1407,
						"contract": "contracts/KipuBank.sol:KipuBankV2",
						"label": "vaults",
						"offset": 0,
						"slot": "7",
						"type": "t_mapping(t_address,t_mapping(t_address,t_uint256))"
					},
					{
						"astId": 1412,
						"contract": "contracts/KipuBank.sol:KipuBankV2",
						"label": "isTokenSupported",
						"offset": 0,
						"slot": "8",
						"type": "t_mapping(t_address,t_bool)"
					},
					{
						"astId": 1417,
						"contract": "contracts/KipuBank.sol:KipuBankV2",
						"label": "tokenDecimals",
						"offset": 0,
						"slot": "9",
						"type": "t_mapping(t_address,t_uint8)"
					},
					{
						"astId": 1423,
						"contract": "contracts/KipuBank.sol:KipuBankV2",
						"label": "tokenPriceFeeds",
						"offset": 0,
						"slot": "10",
						"type": "t_mapping(t_address,t_contract(AggregatorV3Interface)45)"
					}
				],
				"types": {
					"t_address": {
						"encoding": "inplace",
						"label": "address",
						"numberOfBytes": "20"
					},
					"t_array(t_address)dyn_storage": {
						"base": "t_address",
						"encoding": "dynamic_array",
						"label": "address[]",
						"numberOfBytes": "32"
					},
					"t_bool": {
						"encoding": "inplace",
						"label": "bool",
						"numberOfBytes": "1"
					},
					"t_bytes32": {
						"encoding": "inplace",
						"label": "bytes32",
						"numberOfBytes": "32"
					},
					"t_contract(AggregatorV3Interface)45": {
						"encoding": "inplace",
						"label": "contract AggregatorV3Interface",
						"numberOfBytes": "20"
					},
					"t_mapping(t_address,t_bool)": {
						"encoding": "mapping",
						"key": "t_address",
						"label": "mapping(address => bool)",
						"numberOfBytes": "32",
						"value": "t_bool"
					},
					"t_mapping(t_address,t_contract(AggregatorV3Interface)45)": {
						"encoding": "mapping",
						"key": "t_address",
						"label": "mapping(address => contract AggregatorV3Interface)",
						"numberOfBytes": "32",
						"value": "t_contract(AggregatorV3Interface)45"
					},
					"t_mapping(t_address,t_mapping(t_address,t_uint256))": {
						"encoding": "mapping",
						"key": "t_address",
						"label": "mapping(address => mapping(address => uint256))",
						"numberOfBytes": "32",
						"value": "t_mapping(t_address,t_uint256)"
					},
					"t_mapping(t_address,t_uint256)": {
						"encoding": "mapping",
						"key": "t_address",
						"label": "mapping(address => uint256)",
						"numberOfBytes": "32",
						"value": "t_uint256"
					},
					"t_mapping(t_address,t_uint8)": {
						"encoding": "mapping",
						"key": "t_address",
						"label": "mapping(address => uint8)",
						"numberOfBytes": "32",
						"value": "t_uint8"
					},
					"t_mapping(t_bytes32,t_struct(RoleData)68_storage)": {
						"encoding": "mapping",
						"key": "t_bytes32",
						"label": "mapping(bytes32 => struct AccessControl.RoleData)",
						"numberOfBytes": "32",
						"value": "t_struct(RoleData)68_storage"
					},
					"t_struct(RoleData)68_storage": {
						"encoding": "inplace",
						"label": "struct AccessControl.RoleData",
						"members": [
							{
								"astId": 65,
								"contract": "contracts/KipuBank.sol:KipuBankV2",
								"label": "hasRole",
								"offset": 0,
								"slot": "0",
								"type": "t_mapping(t_address,t_bool)"
							},
							{
								"astId": 67,
								"contract": "contracts/KipuBank.sol:KipuBankV2",
								"label": "adminRole",
								"offset": 0,
								"slot": "1",
								"type": "t_bytes32"
							}
						],
						"numberOfBytes": "64"
					},
					"t_uint256": {
						"encoding": "inplace",
						"label": "uint256",
						"numberOfBytes": "32"
					},
					"t_uint8": {
						"encoding": "inplace",
						"label": "uint8",
						"numberOfBytes": "1"
					}
				}
			},
			"userdoc": {
				"events": {
					"Deposit(address,address,uint256,uint256)": {
						"notice": "Emitido cuando un usuario deposita fondos"
					},
					"TokenAdded(address,uint8,address)": {
						"notice": "Emitido cuando se agrega un nuevo token soportado"
					},
					"TokenRemoved(address)": {
						"notice": "Emitido cuando se remueve un token"
					},
					"Withdrawal(address,address,uint256,uint256)": {
						"notice": "Emitido cuando un usuario retira fondos"
					}
				},
				"kind": "user",
				"methods": {
					"ACCOUNTING_DECIMALS()": {
						"notice": "Decimales de referencia para contabilidad interna (USDC standard)"
					},
					"ADMIN_ROLE()": {
						"notice": "Rol de administrador con permisos elevados"
					},
					"MINIMUM_DEPOSIT_USD()": {
						"notice": "Depósito mínimo en USD (0.10 USD con 6 decimales)"
					},
					"NATIVE_TOKEN()": {
						"notice": "Dirección especial que representa ETH nativo"
					},
					"OPERATOR_ROLE()": {
						"notice": "Rol de operador que puede pausar/despausar en emergencias"
					},
					"PRICE_FEED_DECIMALS()": {
						"notice": "Decimales del price feed de Chainlink (generalmente 8)"
					},
					"addToken(address,address)": {
						"notice": "Agrega un nuevo token ERC20 soportado"
					},
					"bankCapUsd()": {
						"notice": "Límite máximo del banco en USD (con ACCOUNTING_DECIMALS)"
					},
					"constructor": {
						"notice": "Inicializa KipuBankV2"
					},
					"convertFromUsd(address,uint256)": {
						"notice": "Convierte un monto en USD a cantidad de token"
					},
					"convertToUsd(address,uint256)": {
						"notice": "Convierte una cantidad de token a USD"
					},
					"deposit(address,uint256)": {
						"notice": "Deposita tokens ERC20 en la bóveda"
					},
					"depositCount()": {
						"notice": "Contador global de operaciones de depósito"
					},
					"depositNative()": {
						"notice": "Deposita ETH nativo en la bóveda"
					},
					"ethUsdPriceFeed()": {
						"notice": "Oracle de Chainlink para precio ETH/USD"
					},
					"getAllBalances(address)": {
						"notice": "Obtiene todos los balances de un usuario"
					},
					"getBalance(address,address)": {
						"notice": "Obtiene el balance de un usuario en un token específico"
					},
					"getBalanceInUsd(address,address)": {
						"notice": "Obtiene el balance de un usuario en USD"
					},
					"getBankStats()": {
						"notice": "Obtiene estadísticas generales del banco"
					},
					"getMaxWithdrawal(address,address)": {
						"notice": "Calcula el máximo que un usuario puede retirar"
					},
					"getSupportedTokens()": {
						"notice": "Obtiene la lista de tokens soportados"
					},
					"getTokenInfo(address)": {
						"notice": "Obtiene información completa de un token"
					},
					"getTokenPrice(address)": {
						"notice": "Obtiene el precio actual de un token en USD"
					},
					"isTokenSupported(address)": {
						"notice": "Verifica si un token está soportado"
					},
					"pause()": {
						"notice": "Pausa todas las operaciones del contrato"
					},
					"removeToken(address)": {
						"notice": "Remueve un token del sistema"
					},
					"supportedTokens(uint256)": {
						"notice": "Lista de tokens soportados por el banco"
					},
					"tokenDecimals(address)": {
						"notice": "Decimales de cada token soportado (0 para ETH = 18 decimales)"
					},
					"tokenPriceFeeds(address)": {
						"notice": "Oracle de precio para cada token ERC20: token => price feed"
					},
					"totalDepositsUsd()": {
						"notice": "Total de depósitos en el banco expresado en USD normalizado"
					},
					"unpause()": {
						"notice": "Despausa el contrato"
					},
					"vaults(address,address)": {
						"notice": "Balance de cada usuario por token: user => token => amount (en decimales nativos del token)"
					},
					"withdraw(address,uint256)": {
						"notice": "Retira tokens de la bóveda"
					},
					"withdrawAll(address)": {
						"notice": "Retira todo el balance disponible de un token"
					},
					"withdrawalCount()": {
						"notice": "Contador global de operaciones de retiro"
					},
					"withdrawalLimitUsd()": {
						"notice": "Límite de retiro por transacción en USD (con ACCOUNTING_DECIMALS)"
					}
				},
				"notice": "Sistema avanzado de bóveda bancaria descentralizada multi-token con oracle de precios",
				"version": 1
			}
		}
	}
}