{
	"contracts/Register.sol": {
		"AllTogether": {
			"abi": [
				{
					"inputs": [],
					"stateMutability": "nonpayable",
					"type": "constructor"
				},
				{
					"anonymous": false,
					"inputs": [
						{
							"indexed": false,
							"internalType": "address",
							"name": "person",
							"type": "address"
						},
						{
							"indexed": false,
							"internalType": "uint256",
							"name": "countChamges",
							"type": "uint256"
						},
						{
							"indexed": false,
							"internalType": "string",
							"name": "oldInfo",
							"type": "string"
						},
						{
							"indexed": false,
							"internalType": "string",
							"name": "newInfo",
							"type": "string"
						}
					],
					"name": "InfoChange",
					"type": "event"
				},
				{
					"inputs": [
						{
							"internalType": "enum AllTogether.Colors",
							"name": "myColor",
							"type": "uint8"
						},
						{
							"internalType": "string",
							"name": "myInfo",
							"type": "string"
						}
					],
					"name": "addInfo",
					"outputs": [
						{
							"internalType": "uint256",
							"name": "index",
							"type": "uint256"
						}
					],
					"stateMutability": "nonpayable",
					"type": "function"
				},
				{
					"inputs": [
						{
							"internalType": "uint256",
							"name": "index",
							"type": "uint256"
						}
					],
					"name": "getMyInfoAtIndex",
					"outputs": [
						{
							"components": [
								{
									"internalType": "string",
									"name": "info",
									"type": "string"
								},
								{
									"internalType": "enum AllTogether.Colors",
									"name": "color",
									"type": "uint8"
								},
								{
									"internalType": "uint256",
									"name": "countChanges",
									"type": "uint256"
								}
							],
							"internalType": "struct AllTogether.InfoStruct",
							"name": "",
							"type": "tuple"
						}
					],
					"stateMutability": "view",
					"type": "function"
				},
				{
					"inputs": [
						{
							"internalType": "address",
							"name": "account",
							"type": "address"
						},
						{
							"internalType": "uint256",
							"name": "index",
							"type": "uint256"
						}
					],
					"name": "getOneInfo",
					"outputs": [
						{
							"components": [
								{
									"internalType": "string",
									"name": "info",
									"type": "string"
								},
								{
									"internalType": "enum AllTogether.Colors",
									"name": "color",
									"type": "uint8"
								},
								{
									"internalType": "uint256",
									"name": "countChanges",
									"type": "uint256"
								}
							],
							"internalType": "struct AllTogether.InfoStruct",
							"name": "",
							"type": "tuple"
						}
					],
					"stateMutability": "view",
					"type": "function"
				},
				{
					"inputs": [
						{
							"internalType": "address",
							"name": "account",
							"type": "address"
						}
					],
					"name": "listAllInfo",
					"outputs": [
						{
							"components": [
								{
									"internalType": "string",
									"name": "info",
									"type": "string"
								},
								{
									"internalType": "enum AllTogether.Colors",
									"name": "color",
									"type": "uint8"
								},
								{
									"internalType": "uint256",
									"name": "countChanges",
									"type": "uint256"
								}
							],
							"internalType": "struct AllTogether.InfoStruct[]",
							"name": "",
							"type": "tuple[]"
						}
					],
					"stateMutability": "view",
					"type": "function"
				},
				{
					"inputs": [
						{
							"internalType": "uint256",
							"name": "index",
							"type": "uint256"
						},
						{
							"internalType": "enum AllTogether.Colors",
							"name": "myColor",
							"type": "uint8"
						}
					],
					"name": "setColor",
					"outputs": [],
					"stateMutability": "nonpayable",
					"type": "function"
				},
				{
					"inputs": [
						{
							"internalType": "uint256",
							"name": "index",
							"type": "uint256"
						},
						{
							"internalType": "string",
							"name": "newInfo",
							"type": "string"
						}
					],
					"name": "setInfo",
					"outputs": [],
					"stateMutability": "nonpayable",
					"type": "function"
				},
				{
					"inputs": [
						{
							"internalType": "address",
							"name": "",
							"type": "address"
						},
						{
							"internalType": "uint256",
							"name": "",
							"type": "uint256"
						}
					],
					"name": "storedInfos",
					"outputs": [
						{
							"internalType": "string",
							"name": "info",
							"type": "string"
						},
						{
							"internalType": "enum AllTogether.Colors",
							"name": "color",
							"type": "uint8"
						},
						{
							"internalType": "uint256",
							"name": "countChanges",
							"type": "uint256"
						}
					],
					"stateMutability": "view",
					"type": "function"
				}
			],
			"devdoc": {
				"author": "Imanol Valenzuela Eguez",
				"kind": "dev",
				"methods": {},
				"title": "Storage String",
				"version": 1
			},
			"evm": {
				"assembly": "    /* \"contracts/Register.sol\":126:2033  contract AllTogether{... */\n  mstore(0x40, 0x80)\n    /* \"contracts/Register.sol\":362:595  constructor(){... */\n  callvalue\n  dup1\n  iszero\n  tag_1\n  jumpi\n  revert(0x00, 0x00)\ntag_1:\n  pop\n    /* \"contracts/Register.sol\":386:411  InfoStruct memory auxInfo */\n  0x00\n    /* \"contracts/Register.sol\":414:539  InfoStruct({... */\n  mload(0x40)\n  dup1\n  0x60\n  add\n  0x40\n  mstore\n  dup1\n  mload(0x40)\n  dup1\n  0x40\n  add\n  0x40\n  mstore\n  dup1\n  0x0b\n  dup2\n  mstore\n  0x20\n  add\n  0x48656c6c6f20776f726c64000000000000000000000000000000000000000000\n  dup2\n  mstore\n  pop\n  dup2\n  mstore\n  0x20\n  add\n    /* \"contracts/Register.sol\":481:497  Colors.Undefined */\n  0x00\n    /* \"contracts/Register.sol\":414:539  InfoStruct({... */\n  0x02\n  dup2\n  gt\n  iszero\n  tag_4\n  jumpi\n  tag_5\n  tag_6\n  jump\t// in\ntag_5:\ntag_4:\n  dup2\n  mstore\n  0x20\n  add\n    /* \"contracts/Register.sol\":526:527  0 */\n  0x00\n    /* \"contracts/Register.sol\":414:539  InfoStruct({... */\n  dup2\n  mstore\n  pop\n    /* \"contracts/Register.sol\":386:539  InfoStruct memory auxInfo = InfoStruct({... */\n  swap1\n  pop\n    /* \"contracts/Register.sol\":550:561  storedInfos */\n  0x00\n    /* \"contracts/Register.sol\":550:573  storedInfos[msg.sender] */\n  0x00\n    /* \"contracts/Register.sol\":562:572  msg.sender */\n  caller\n    /* \"contracts/Register.sol\":550:573  storedInfos[msg.sender] */\n  0xffffffffffffffffffffffffffffffffffffffff\n  and\n  0xffffffffffffffffffffffffffffffffffffffff\n  and\n  dup2\n  mstore\n  0x20\n  add\n  swap1\n  dup2\n  mstore\n  0x20\n  add\n  0x00\n  keccak256\n    /* \"contracts/Register.sol\":579:586  auxInfo */\n  dup2\n    /* \"contracts/Register.sol\":550:587  storedInfos[msg.sender].push(auxInfo) */\n  swap1\n  dup1\n  0x01\n  dup2\n  sload\n  add\n  dup1\n  dup3\n  sstore\n  dup1\n  swap2\n  pop\n  pop\n  0x01\n  swap1\n  sub\n  swap1\n  0x00\n  mstore\n  keccak256(0x00, 0x20)\n  swap1\n  0x03\n  mul\n  add\n  0x00\n  swap1\n  swap2\n  swap1\n  swap2\n  swap1\n  swap2\n  pop\n  0x00\n  dup3\n  add\n  mload\n  dup2\n  0x00\n  add\n  swap1\n  dup2\n  tag_8\n  swap2\n  swap1\n  tag_9\n  jump\t// in\ntag_8:\n  pop\n  0x20\n  dup3\n  add\n  mload\n  dup2\n  0x01\n  add\n  exp(0x0100, 0x00)\n  dup2\n  sload\n  dup2\n  0xff\n  mul\n  not\n  and\n  swap1\n  dup4\n  0x02\n  dup2\n  gt\n  iszero\n  tag_10\n  jumpi\n  tag_11\n  tag_6\n  jump\t// in\ntag_11:\ntag_10:\n  mul\n  or\n  swap1\n  sstore\n  pop\n  0x40\n  dup3\n  add\n  mload\n  dup2\n  0x02\n  add\n  sstore\n  pop\n  pop\n    /* \"contracts/Register.sol\":375:595  {... */\n  pop\n    /* \"contracts/Register.sol\":126:2033  contract AllTogether{... */\n  jump(tag_12)\n    /* \"#utility.yul\":7:187   */\ntag_6:\n    /* \"#utility.yul\":55:132   */\n  0x4e487b7100000000000000000000000000000000000000000000000000000000\n    /* \"#utility.yul\":52:53   */\n  0x00\n    /* \"#utility.yul\":45:133   */\n  mstore\n    /* \"#utility.yul\":152:156   */\n  0x21\n    /* \"#utility.yul\":149:150   */\n  0x04\n    /* \"#utility.yul\":142:157   */\n  mstore\n    /* \"#utility.yul\":176:180   */\n  0x24\n    /* \"#utility.yul\":173:174   */\n  0x00\n    /* \"#utility.yul\":166:181   */\n  revert\n    /* \"#utility.yul\":193:292   */\ntag_13:\n    /* \"#utility.yul\":245:251   */\n  0x00\n    /* \"#utility.yul\":279:284   */\n  dup2\n    /* \"#utility.yul\":273:285   */\n  mload\n    /* \"#utility.yul\":263:285   */\n  swap1\n  pop\n    /* \"#utility.yul\":193:292   */\n  swap2\n  swap1\n  pop\n  jump\t// out\n    /* \"#utility.yul\":298:478   */\ntag_14:\n    /* \"#utility.yul\":346:423   */\n  0x4e487b7100000000000000000000000000000000000000000000000000000000\n    /* \"#utility.yul\":343:344   */\n  0x00\n    /* \"#utility.yul\":336:424   */\n  mstore\n    /* \"#utility.yul\":443:447   */\n  0x41\n    /* \"#utility.yul\":440:441   */\n  0x04\n    /* \"#utility.yul\":433:448   */\n  mstore\n    /* \"#utility.yul\":467:471   */\n  0x24\n    /* \"#utility.yul\":464:465   */\n  0x00\n    /* \"#utility.yul\":457:472   */\n  revert\n    /* \"#utility.yul\":484:664   */\ntag_15:\n    /* \"#utility.yul\":532:609   */\n  0x4e487b7100000000000000000000000000000000000000000000000000000000\n    /* \"#utility.yul\":529:530   */\n  0x00\n    /* \"#utility.yul\":522:610   */\n  mstore\n    /* \"#utility.yul\":629:633   */\n  0x22\n    /* \"#utility.yul\":626:627   */\n  0x04\n    /* \"#utility.yul\":619:634   */\n  mstore\n    /* \"#utility.yul\":653:657   */\n  0x24\n    /* \"#utility.yul\":650:651   */\n  0x00\n    /* \"#utility.yul\":643:658   */\n  revert\n    /* \"#utility.yul\":670:990   */\ntag_16:\n    /* \"#utility.yul\":714:720   */\n  0x00\n    /* \"#utility.yul\":751:752   */\n  0x02\n    /* \"#utility.yul\":745:749   */\n  dup3\n    /* \"#utility.yul\":741:753   */\n  div\n    /* \"#utility.yul\":731:753   */\n  swap1\n  pop\n    /* \"#utility.yul\":798:799   */\n  0x01\n    /* \"#utility.yul\":792:796   */\n  dup3\n    /* \"#utility.yul\":788:800   */\n  and\n    /* \"#utility.yul\":819:837   */\n  dup1\n    /* \"#utility.yul\":809:890   */\n  tag_39\n  jumpi\n    /* \"#utility.yul\":875:879   */\n  0x7f\n    /* \"#utility.yul\":867:873   */\n  dup3\n    /* \"#utility.yul\":863:880   */\n  and\n    /* \"#utility.yul\":853:880   */\n  swap2\n  pop\n    /* \"#utility.yul\":809:890   */\ntag_39:\n    /* \"#utility.yul\":937:939   */\n  0x20\n    /* \"#utility.yul\":929:935   */\n  dup3\n    /* \"#utility.yul\":926:940   */\n  lt\n    /* \"#utility.yul\":906:924   */\n  dup2\n    /* \"#utility.yul\":903:941   */\n  sub\n    /* \"#utility.yul\":900:984   */\n  tag_40\n  jumpi\n    /* \"#utility.yul\":956:974   */\n  tag_41\n  tag_15\n  jump\t// in\ntag_41:\n    /* \"#utility.yul\":900:984   */\ntag_40:\n    /* \"#utility.yul\":721:990   */\n  pop\n    /* \"#utility.yul\":670:990   */\n  swap2\n  swap1\n  pop\n  jump\t// out\n    /* \"#utility.yul\":996:1137   */\ntag_17:\n    /* \"#utility.yul\":1045:1049   */\n  0x00\n    /* \"#utility.yul\":1068:1071   */\n  dup2\n    /* \"#utility.yul\":1060:1071   */\n  swap1\n  pop\n    /* \"#utility.yul\":1091:1094   */\n  dup2\n    /* \"#utility.yul\":1088:1089   */\n  0x00\n    /* \"#utility.yul\":1081:1095   */\n  mstore\n    /* \"#utility.yul\":1125:1129   */\n  0x20\n    /* \"#utility.yul\":1122:1123   */\n  0x00\n    /* \"#utility.yul\":1112:1130   */\n  keccak256\n    /* \"#utility.yul\":1104:1130   */\n  swap1\n  pop\n    /* \"#utility.yul\":996:1137   */\n  swap2\n  swap1\n  pop\n  jump\t// out\n    /* \"#utility.yul\":1143:1236   */\ntag_18:\n    /* \"#utility.yul\":1180:1186   */\n  0x00\n    /* \"#utility.yul\":1227:1229   */\n  0x20\n    /* \"#utility.yul\":1222:1224   */\n  0x1f\n    /* \"#utility.yul\":1215:1220   */\n  dup4\n    /* \"#utility.yul\":1211:1225   */\n  add\n    /* \"#utility.yul\":1207:1230   */\n  div\n    /* \"#utility.yul\":1197:1230   */\n  swap1\n  pop\n    /* \"#utility.yul\":1143:1236   */\n  swap2\n  swap1\n  pop\n  jump\t// out\n    /* \"#utility.yul\":1242:1349   */\ntag_19:\n    /* \"#utility.yul\":1286:1294   */\n  0x00\n    /* \"#utility.yul\":1336:1341   */\n  dup3\n    /* \"#utility.yul\":1330:1334   */\n  dup3\n    /* \"#utility.yul\":1326:1342   */\n  shl\n    /* \"#utility.yul\":1305:1342   */\n  swap1\n  pop\n    /* \"#utility.yul\":1242:1349   */\n  swap3\n  swap2\n  pop\n  pop\n  jump\t// out\n    /* \"#utility.yul\":1355:1748   */\ntag_20:\n    /* \"#utility.yul\":1424:1430   */\n  0x00\n    /* \"#utility.yul\":1474:1475   */\n  0x08\n    /* \"#utility.yul\":1462:1472   */\n  dup4\n    /* \"#utility.yul\":1458:1476   */\n  mul\n    /* \"#utility.yul\":1497:1594   */\n  tag_46\n    /* \"#utility.yul\":1527:1593   */\n  0xffffffffffffffffffffffffffffffffffffffffffffffffffffffffffffffff\n    /* \"#utility.yul\":1516:1525   */\n  dup3\n    /* \"#utility.yul\":1497:1594   */\n  tag_19\n  jump\t// in\ntag_46:\n    /* \"#utility.yul\":1615:1654   */\n  tag_47\n    /* \"#utility.yul\":1645:1653   */\n  dup7\n    /* \"#utility.yul\":1634:1643   */\n  dup4\n    /* \"#utility.yul\":1615:1654   */\n  tag_19\n  jump\t// in\ntag_47:\n    /* \"#utility.yul\":1603:1654   */\n  swap6\n  pop\n    /* \"#utility.yul\":1687:1691   */\n  dup1\n    /* \"#utility.yul\":1683:1692   */\n  not\n    /* \"#utility.yul\":1676:1681   */\n  dup5\n    /* \"#utility.yul\":1672:1693   */\n  and\n    /* \"#utility.yul\":1663:1693   */\n  swap4\n  pop\n    /* \"#utility.yul\":1736:1740   */\n  dup1\n    /* \"#utility.yul\":1726:1734   */\n  dup7\n    /* \"#utility.yul\":1722:1741   */\n  and\n    /* \"#utility.yul\":1715:1720   */\n  dup5\n    /* \"#utility.yul\":1712:1742   */\n  or\n    /* \"#utility.yul\":1702:1742   */\n  swap3\n  pop\n    /* \"#utility.yul\":1431:1748   */\n  pop\n  pop\n    /* \"#utility.yul\":1355:1748   */\n  swap4\n  swap3\n  pop\n  pop\n  pop\n  jump\t// out\n    /* \"#utility.yul\":1754:1831   */\ntag_21:\n    /* \"#utility.yul\":1791:1798   */\n  0x00\n    /* \"#utility.yul\":1820:1825   */\n  dup2\n    /* \"#utility.yul\":1809:1825   */\n  swap1\n  pop\n    /* \"#utility.yul\":1754:1831   */\n  swap2\n  swap1\n  pop\n  jump\t// out\n    /* \"#utility.yul\":1837:1897   */\ntag_22:\n    /* \"#utility.yul\":1865:1868   */\n  0x00\n    /* \"#utility.yul\":1886:1891   */\n  dup2\n    /* \"#utility.yul\":1879:1891   */\n  swap1\n  pop\n    /* \"#utility.yul\":1837:1897   */\n  swap2\n  swap1\n  pop\n  jump\t// out\n    /* \"#utility.yul\":1903:2045   */\ntag_23:\n    /* \"#utility.yul\":1953:1962   */\n  0x00\n    /* \"#utility.yul\":1986:2039   */\n  tag_51\n    /* \"#utility.yul\":2004:2038   */\n  tag_52\n    /* \"#utility.yul\":2013:2037   */\n  tag_53\n    /* \"#utility.yul\":2031:2036   */\n  dup5\n    /* \"#utility.yul\":2013:2037   */\n  tag_21\n  jump\t// in\ntag_53:\n    /* \"#utility.yul\":2004:2038   */\n  tag_22\n  jump\t// in\ntag_52:\n    /* \"#utility.yul\":1986:2039   */\n  tag_21\n  jump\t// in\ntag_51:\n    /* \"#utility.yul\":1973:2039   */\n  swap1\n  pop\n    /* \"#utility.yul\":1903:2045   */\n  swap2\n  swap1\n  pop\n  jump\t// out\n    /* \"#utility.yul\":2051:2126   */\ntag_24:\n    /* \"#utility.yul\":2094:2097   */\n  0x00\n    /* \"#utility.yul\":2115:2120   */\n  dup2\n    /* \"#utility.yul\":2108:2120   */\n  swap1\n  pop\n    /* \"#utility.yul\":2051:2126   */\n  swap2\n  swap1\n  pop\n  jump\t// out\n    /* \"#utility.yul\":2132:2401   */\ntag_25:\n    /* \"#utility.yul\":2242:2281   */\n  tag_56\n    /* \"#utility.yul\":2273:2280   */\n  dup4\n    /* \"#utility.yul\":2242:2281   */\n  tag_23\n  jump\t// in\ntag_56:\n    /* \"#utility.yul\":2303:2394   */\n  tag_57\n    /* \"#utility.yul\":2352:2393   */\n  tag_58\n    /* \"#utility.yul\":2376:2392   */\n  dup3\n    /* \"#utility.yul\":2352:2393   */\n  tag_24\n  jump\t// in\ntag_58:\n    /* \"#utility.yul\":2344:2350   */\n  dup5\n    /* \"#utility.yul\":2337:2341   */\n  dup5\n    /* \"#utility.yul\":2331:2342   */\n  sload\n    /* \"#utility.yul\":2303:2394   */\n  tag_20\n  jump\t// in\ntag_57:\n    /* \"#utility.yul\":2297:2301   */\n  dup3\n    /* \"#utility.yul\":2290:2395   */\n  sstore\n    /* \"#utility.yul\":2208:2401   */\n  pop\n    /* \"#utility.yul\":2132:2401   */\n  pop\n  pop\n  pop\n  jump\t// out\n    /* \"#utility.yul\":2407:2480   */\ntag_26:\n    /* \"#utility.yul\":2452:2455   */\n  0x00\n    /* \"#utility.yul\":2473:2474   */\n  0x00\n    /* \"#utility.yul\":2466:2474   */\n  swap1\n  pop\n    /* \"#utility.yul\":2407:2480   */\n  swap1\n  jump\t// out\n    /* \"#utility.yul\":2486:2675   */\ntag_27:\n    /* \"#utility.yul\":2563:2595   */\n  tag_61\n  tag_26\n  jump\t// in\ntag_61:\n    /* \"#utility.yul\":2604:2669   */\n  tag_62\n    /* \"#utility.yul\":2662:2668   */\n  dup2\n    /* \"#utility.yul\":2654:2660   */\n  dup5\n    /* \"#utility.yul\":2648:2652   */\n  dup5\n    /* \"#utility.yul\":2604:2669   */\n  tag_25\n  jump\t// in\ntag_62:\n    /* \"#utility.yul\":2539:2675   */\n  pop\n    /* \"#utility.yul\":2486:2675   */\n  pop\n  pop\n  jump\t// out\n    /* \"#utility.yul\":2681:2867   */\ntag_28:\n    /* \"#utility.yul\":2741:2861   */\ntag_64:\n    /* \"#utility.yul\":2758:2761   */\n  dup2\n    /* \"#utility.yul\":2751:2756   */\n  dup2\n    /* \"#utility.yul\":2748:2762   */\n  lt\n    /* \"#utility.yul\":2741:2861   */\n  iszero\n  tag_66\n  jumpi\n    /* \"#utility.yul\":2812:2851   */\n  tag_67\n    /* \"#utility.yul\":2849:2850   */\n  0x00\n    /* \"#utility.yul\":2842:2847   */\n  dup3\n    /* \"#utility.yul\":2812:2851   */\n  tag_27\n  jump\t// in\ntag_67:\n    /* \"#utility.yul\":2785:2786   */\n  0x01\n    /* \"#utility.yul\":2778:2783   */\n  dup2\n    /* \"#utility.yul\":2774:2787   */\n  add\n    /* \"#utility.yul\":2765:2787   */\n  swap1\n  pop\n    /* \"#utility.yul\":2741:2861   */\n  jump(tag_64)\ntag_66:\n    /* \"#utility.yul\":2681:2867   */\n  pop\n  pop\n  jump\t// out\n    /* \"#utility.yul\":2873:3416   */\ntag_29:\n    /* \"#utility.yul\":2974:2976   */\n  0x1f\n    /* \"#utility.yul\":2969:2972   */\n  dup3\n    /* \"#utility.yul\":2966:2977   */\n  gt\n    /* \"#utility.yul\":2963:3409   */\n  iszero\n  tag_69\n  jumpi\n    /* \"#utility.yul\":3008:3046   */\n  tag_70\n    /* \"#utility.yul\":3040:3045   */\n  dup2\n    /* \"#utility.yul\":3008:3046   */\n  tag_17\n  jump\t// in\ntag_70:\n    /* \"#utility.yul\":3092:3121   */\n  tag_71\n    /* \"#utility.yul\":3110:3120   */\n  dup5\n    /* \"#utility.yul\":3092:3121   */\n  tag_18\n  jump\t// in\ntag_71:\n    /* \"#utility.yul\":3082:3090   */\n  dup2\n    /* \"#utility.yul\":3078:3122   */\n  add\n    /* \"#utility.yul\":3275:3277   */\n  0x20\n    /* \"#utility.yul\":3263:3273   */\n  dup6\n    /* \"#utility.yul\":3260:3278   */\n  lt\n    /* \"#utility.yul\":3257:3306   */\n  iszero\n  tag_72\n  jumpi\n    /* \"#utility.yul\":3296:3304   */\n  dup2\n    /* \"#utility.yul\":3281:3304   */\n  swap1\n  pop\n    /* \"#utility.yul\":3257:3306   */\ntag_72:\n    /* \"#utility.yul\":3319:3399   */\n  tag_73\n    /* \"#utility.yul\":3375:3397   */\n  tag_74\n    /* \"#utility.yul\":3393:3396   */\n  dup6\n    /* \"#utility.yul\":3375:3397   */\n  tag_18\n  jump\t// in\ntag_74:\n    /* \"#utility.yul\":3365:3373   */\n  dup4\n    /* \"#utility.yul\":3361:3398   */\n  add\n    /* \"#utility.yul\":3348:3359   */\n  dup3\n    /* \"#utility.yul\":3319:3399   */\n  tag_28\n  jump\t// in\ntag_73:\n    /* \"#utility.yul\":2978:3409   */\n  pop\n  pop\n    /* \"#utility.yul\":2963:3409   */\ntag_69:\n    /* \"#utility.yul\":2873:3416   */\n  pop\n  pop\n  pop\n  jump\t// out\n    /* \"#utility.yul\":3422:3539   */\ntag_30:\n    /* \"#utility.yul\":3476:3484   */\n  0x00\n    /* \"#utility.yul\":3526:3531   */\n  dup3\n    /* \"#utility.yul\":3520:3524   */\n  dup3\n    /* \"#utility.yul\":3516:3532   */\n  shr\n    /* \"#utility.yul\":3495:3532   */\n  swap1\n  pop\n    /* \"#utility.yul\":3422:3539   */\n  swap3\n  swap2\n  pop\n  pop\n  jump\t// out\n    /* \"#utility.yul\":3545:3714   */\ntag_31:\n    /* \"#utility.yul\":3589:3595   */\n  0x00\n    /* \"#utility.yul\":3622:3673   */\n  tag_77\n    /* \"#utility.yul\":3670:3671   */\n  0x00\n    /* \"#utility.yul\":3666:3672   */\n  not\n    /* \"#utility.yul\":3658:3663   */\n  dup5\n    /* \"#utility.yul\":3655:3656   */\n  0x08\n    /* \"#utility.yul\":3651:3664   */\n  mul\n    /* \"#utility.yul\":3622:3673   */\n  tag_30\n  jump\t// in\ntag_77:\n    /* \"#utility.yul\":3618:3674   */\n  not\n    /* \"#utility.yul\":3703:3707   */\n  dup1\n    /* \"#utility.yul\":3697:3701   */\n  dup4\n    /* \"#utility.yul\":3693:3708   */\n  and\n    /* \"#utility.yul\":3683:3708   */\n  swap2\n  pop\n    /* \"#utility.yul\":3596:3714   */\n  pop\n    /* \"#utility.yul\":3545:3714   */\n  swap3\n  swap2\n  pop\n  pop\n  jump\t// out\n    /* \"#utility.yul\":3719:4014   */\ntag_32:\n    /* \"#utility.yul\":3795:3799   */\n  0x00\n    /* \"#utility.yul\":3941:3970   */\n  tag_79\n    /* \"#utility.yul\":3966:3969   */\n  dup4\n    /* \"#utility.yul\":3960:3964   */\n  dup4\n    /* \"#utility.yul\":3941:3970   */\n  tag_31\n  jump\t// in\ntag_79:\n    /* \"#utility.yul\":3933:3970   */\n  swap2\n  pop\n    /* \"#utility.yul\":4003:4006   */\n  dup3\n    /* \"#utility.yul\":4000:4001   */\n  0x02\n    /* \"#utility.yul\":3996:4007   */\n  mul\n    /* \"#utility.yul\":3990:3994   */\n  dup3\n    /* \"#utility.yul\":3987:4008   */\n  or\n    /* \"#utility.yul\":3979:4008   */\n  swap1\n  pop\n    /* \"#utility.yul\":3719:4014   */\n  swap3\n  swap2\n  pop\n  pop\n  jump\t// out\n    /* \"#utility.yul\":4019:5414   */\ntag_9:\n    /* \"#utility.yul\":4136:4173   */\n  tag_81\n    /* \"#utility.yul\":4169:4172   */\n  dup3\n    /* \"#utility.yul\":4136:4173   */\n  tag_13\n  jump\t// in\ntag_81:\n    /* \"#utility.yul\":4238:4256   */\n  0xffffffffffffffff\n    /* \"#utility.yul\":4230:4236   */\n  dup2\n    /* \"#utility.yul\":4227:4257   */\n  gt\n    /* \"#utility.yul\":4224:4280   */\n  iszero\n  tag_82\n  jumpi\n    /* \"#utility.yul\":4260:4278   */\n  tag_83\n  tag_14\n  jump\t// in\ntag_83:\n    /* \"#utility.yul\":4224:4280   */\ntag_82:\n    /* \"#utility.yul\":4304:4342   */\n  tag_84\n    /* \"#utility.yul\":4336:4340   */\n  dup3\n    /* \"#utility.yul\":4330:4341   */\n  sload\n    /* \"#utility.yul\":4304:4342   */\n  tag_16\n  jump\t// in\ntag_84:\n    /* \"#utility.yul\":4389:4456   */\n  tag_85\n    /* \"#utility.yul\":4449:4455   */\n  dup3\n    /* \"#utility.yul\":4441:4447   */\n  dup3\n    /* \"#utility.yul\":4435:4439   */\n  dup6\n    /* \"#utility.yul\":4389:4456   */\n  tag_29\n  jump\t// in\ntag_85:\n    /* \"#utility.yul\":4483:4484   */\n  0x00\n    /* \"#utility.yul\":4507:4511   */\n  0x20\n    /* \"#utility.yul\":4494:4511   */\n  swap1\n  pop\n    /* \"#utility.yul\":4539:4541   */\n  0x1f\n    /* \"#utility.yul\":4531:4537   */\n  dup4\n    /* \"#utility.yul\":4528:4542   */\n  gt\n    /* \"#utility.yul\":4556:4557   */\n  0x01\n    /* \"#utility.yul\":4551:5169   */\n  dup2\n  eq\n  tag_87\n  jumpi\n    /* \"#utility.yul\":5213:5214   */\n  0x00\n    /* \"#utility.yul\":5230:5236   */\n  dup5\n    /* \"#utility.yul\":5227:5304   */\n  iszero\n  tag_88\n  jumpi\n    /* \"#utility.yul\":5279:5288   */\n  dup3\n    /* \"#utility.yul\":5274:5277   */\n  dup8\n    /* \"#utility.yul\":5270:5289   */\n  add\n    /* \"#utility.yul\":5264:5290   */\n  mload\n    /* \"#utility.yul\":5255:5290   */\n  swap1\n  pop\n    /* \"#utility.yul\":5227:5304   */\ntag_88:\n    /* \"#utility.yul\":5330:5397   */\n  tag_89\n    /* \"#utility.yul\":5390:5396   */\n  dup6\n    /* \"#utility.yul\":5383:5388   */\n  dup3\n    /* \"#utility.yul\":5330:5397   */\n  tag_32\n  jump\t// in\ntag_89:\n    /* \"#utility.yul\":5324:5328   */\n  dup7\n    /* \"#utility.yul\":5317:5398   */\n  sstore\n    /* \"#utility.yul\":5186:5408   */\n  pop\n    /* \"#utility.yul\":4521:5408   */\n  jump(tag_86)\n    /* \"#utility.yul\":4551:5169   */\ntag_87:\n    /* \"#utility.yul\":4603:4607   */\n  0x1f\n    /* \"#utility.yul\":4599:4608   */\n  not\n    /* \"#utility.yul\":4591:4597   */\n  dup5\n    /* \"#utility.yul\":4587:4609   */\n  and\n    /* \"#utility.yul\":4637:4674   */\n  tag_90\n    /* \"#utility.yul\":4669:4673   */\n  dup7\n    /* \"#utility.yul\":4637:4674   */\n  tag_17\n  jump\t// in\ntag_90:\n    /* \"#utility.yul\":4696:4697   */\n  0x00\n    /* \"#utility.yul\":4710:4918   */\ntag_91:\n    /* \"#utility.yul\":4724:4731   */\n  dup3\n    /* \"#utility.yul\":4721:4722   */\n  dup2\n    /* \"#utility.yul\":4718:4732   */\n  lt\n    /* \"#utility.yul\":4710:4918   */\n  iszero\n  tag_93\n  jumpi\n    /* \"#utility.yul\":4803:4812   */\n  dup5\n    /* \"#utility.yul\":4798:4801   */\n  dup10\n    /* \"#utility.yul\":4794:4813   */\n  add\n    /* \"#utility.yul\":4788:4814   */\n  mload\n    /* \"#utility.yul\":4780:4786   */\n  dup3\n    /* \"#utility.yul\":4773:4815   */\n  sstore\n    /* \"#utility.yul\":4854:4855   */\n  0x01\n    /* \"#utility.yul\":4846:4852   */\n  dup3\n    /* \"#utility.yul\":4842:4856   */\n  add\n    /* \"#utility.yul\":4832:4856   */\n  swap2\n  pop\n    /* \"#utility.yul\":4901:4903   */\n  0x20\n    /* \"#utility.yul\":4890:4899   */\n  dup6\n    /* \"#utility.yul\":4886:4904   */\n  add\n    /* \"#utility.yul\":4873:4904   */\n  swap5\n  pop\n    /* \"#utility.yul\":4747:4751   */\n  0x20\n    /* \"#utility.yul\":4744:4745   */\n  dup2\n    /* \"#utility.yul\":4740:4752   */\n  add\n    /* \"#utility.yul\":4735:4752   */\n  swap1\n  pop\n    /* \"#utility.yul\":4710:4918   */\n  jump(tag_91)\ntag_93:\n    /* \"#utility.yul\":4946:4952   */\n  dup7\n    /* \"#utility.yul\":4937:4944   */\n  dup4\n    /* \"#utility.yul\":4934:4953   */\n  lt\n    /* \"#utility.yul\":4931:5110   */\n  iszero\n  tag_94\n  jumpi\n    /* \"#utility.yul\":5004:5013   */\n  dup5\n    /* \"#utility.yul\":4999:5002   */\n  dup10\n    /* \"#utility.yul\":4995:5014   */\n  add\n    /* \"#utility.yul\":4989:5015   */\n  mload\n    /* \"#utility.yul\":5047:5095   */\n  tag_95\n    /* \"#utility.yul\":5089:5093   */\n  0x1f\n    /* \"#utility.yul\":5081:5087   */\n  dup10\n    /* \"#utility.yul\":5077:5094   */\n  and\n    /* \"#utility.yul\":5066:5075   */\n  dup3\n    /* \"#utility.yul\":5047:5095   */\n  tag_31\n  jump\t// in\ntag_95:\n    /* \"#utility.yul\":5039:5045   */\n  dup4\n    /* \"#utility.yul\":5032:5096   */\n  sstore\n    /* \"#utility.yul\":4954:5110   */\n  pop\n    /* \"#utility.yul\":4931:5110   */\ntag_94:\n    /* \"#utility.yul\":5156:5157   */\n  0x01\n    /* \"#utility.yul\":5152:5153   */\n  0x02\n    /* \"#utility.yul\":5144:5150   */\n  dup9\n    /* \"#utility.yul\":5140:5154   */\n  mul\n    /* \"#utility.yul\":5136:5158   */\n  add\n    /* \"#utility.yul\":5130:5134   */\n  dup9\n    /* \"#utility.yul\":5123:5159   */\n  sstore\n    /* \"#utility.yul\":4558:5169   */\n  pop\n  pop\n  pop\n    /* \"#utility.yul\":4521:5408   */\ntag_86:\n  pop\n    /* \"#utility.yul\":4111:5414   */\n  pop\n  pop\n  pop\n    /* \"#utility.yul\":4019:5414   */\n  pop\n  pop\n  jump\t// out\n    /* \"contracts/Register.sol\":126:2033  contract AllTogether{... */\ntag_12:\n  dataSize(sub_0)\n  dup1\n  dataOffset(sub_0)\n  0x00\n  codecopy\n  0x00\n  return\nstop\n\nsub_0: assembly {\n        /* \"contracts/Register.sol\":126:2033  contract AllTogether{... */\n      mstore(0x40, 0x80)\n      callvalue\n      dup1\n      iszero\n      tag_1\n      jumpi\n      revert(0x00, 0x00)\n    tag_1:\n      pop\n      jumpi(tag_2, lt(calldatasize, 0x04))\n      shr(0xe0, calldataload(0x00))\n      dup1\n      0x8cdd8902\n      gt\n      tag_10\n      jumpi\n      dup1\n      0x8cdd8902\n      eq\n      tag_6\n      jumpi\n      dup1\n      0x9ca3a5ed\n      eq\n      tag_7\n      jumpi\n      dup1\n      0xb6820002\n      eq\n      tag_8\n      jumpi\n      dup1\n      0xe8f36962\n      eq\n      tag_9\n      jumpi\n      jump(tag_2)\n    tag_10:\n      dup1\n      0x08c46711\n      eq\n      tag_3\n      jumpi\n      dup1\n      0x251101f5\n      eq\n      tag_4\n      jumpi\n      dup1\n      0x63ff1368\n      eq\n      tag_5\n      jumpi\n    tag_2:\n      revert(0x00, 0x00)\n        /* \"contracts/Register.sol\":1539:1753  function getOneInfo(address account, uint index) public view returns (InfoStruct memory) {... */\n    tag_3:\n      tag_11\n      0x04\n      dup1\n      calldatasize\n      sub\n      dup2\n      add\n      swap1\n      tag_12\n      swap2\n      swap1\n      tag_13\n      jump\t// in\n    tag_12:\n      tag_14\n      jump\t// in\n    tag_11:\n      mload(0x40)\n      tag_15\n      swap2\n      swap1\n      tag_16\n      jump\t// in\n    tag_15:\n      mload(0x40)\n      dup1\n      swap2\n      sub\n      swap1\n      return\n        /* \"contracts/Register.sol\":1903:2030  function listAllInfo(address account) external view returns (InfoStruct[] memory){... */\n    tag_4:\n      tag_17\n      0x04\n      dup1\n      calldatasize\n      sub\n      dup2\n      add\n      swap1\n      tag_18\n      swap2\n      swap1\n      tag_19\n      jump\t// in\n    tag_18:\n      tag_20\n      jump\t// in\n    tag_17:\n      mload(0x40)\n      tag_21\n      swap2\n      swap1\n      tag_22\n      jump\t// in\n    tag_21:\n      mload(0x40)\n      dup1\n      swap2\n      sub\n      swap1\n      return\n        /* \"contracts/Register.sol\":1357:1531  function setColor(uint index, Colors myColor) public {... */\n    tag_5:\n      tag_23\n      0x04\n      dup1\n      calldatasize\n      sub\n      dup2\n      add\n      swap1\n      tag_24\n      swap2\n      swap1\n      tag_25\n      jump\t// in\n    tag_24:\n      tag_26\n      jump\t// in\n    tag_23:\n      stop\n        /* \"contracts/Register.sol\":1761:1895  function getMyInfoAtIndex(uint index) external view returns (InfoStruct memory){... */\n    tag_6:\n      tag_27\n      0x04\n      dup1\n      calldatasize\n      sub\n      dup2\n      add\n      swap1\n      tag_28\n      swap2\n      swap1\n      tag_29\n      jump\t// in\n    tag_28:\n      tag_30\n      jump\t// in\n    tag_27:\n      mload(0x40)\n      tag_31\n      swap2\n      swap1\n      tag_16\n      jump\t// in\n    tag_31:\n      mload(0x40)\n      dup1\n      swap2\n      sub\n      swap1\n      return\n        /* \"contracts/Register.sol\":301:353  mapping (address => InfoStruct[]) public storedInfos */\n    tag_7:\n      tag_32\n      0x04\n      dup1\n      calldatasize\n      sub\n      dup2\n      add\n      swap1\n      tag_33\n      swap2\n      swap1\n      tag_13\n      jump\t// in\n    tag_33:\n      tag_34\n      jump\t// in\n    tag_32:\n      mload(0x40)\n      tag_35\n      swap4\n      swap3\n      swap2\n      swap1\n      tag_36\n      jump\t// in\n    tag_35:\n      mload(0x40)\n      dup1\n      swap2\n      sub\n      swap1\n      return\n        /* \"contracts/Register.sol\":1041:1349  function setInfo(uint index, string memory newInfo) public {... */\n    tag_8:\n      tag_37\n      0x04\n      dup1\n      calldatasize\n      sub\n      dup2\n      add\n      swap1\n      tag_38\n      swap2\n      swap1\n      tag_39\n      jump\t// in\n    tag_38:\n      tag_40\n      jump\t// in\n    tag_37:\n      stop\n        /* \"contracts/Register.sol\":695:1033  function addInfo(Colors myColor, string memory myInfo) public returns (uint index){... */\n    tag_9:\n      tag_41\n      0x04\n      dup1\n      calldatasize\n      sub\n      dup2\n      add\n      swap1\n      tag_42\n      swap2\n      swap1\n      tag_43\n      jump\t// in\n    tag_42:\n      tag_44\n      jump\t// in\n    tag_41:\n      mload(0x40)\n      tag_45\n      swap2\n      swap1\n      tag_46\n      jump\t// in\n    tag_45:\n      mload(0x40)\n      dup1\n      swap2\n      sub\n      swap1\n      return\n        /* \"contracts/Register.sol\":1539:1753  function getOneInfo(address account, uint index) public view returns (InfoStruct memory) {... */\n    tag_14:\n        /* \"contracts/Register.sol\":1609:1626  InfoStruct memory */\n      tag_47\n      tag_48\n      jump\t// in\n    tag_47:\n        /* \"contracts/Register.sol\":1655:1666  storedInfos */\n      0x00\n        /* \"contracts/Register.sol\":1655:1675  storedInfos[account] */\n      0x00\n        /* \"contracts/Register.sol\":1667:1674  account */\n      dup5\n        /* \"contracts/Register.sol\":1655:1675  storedInfos[account] */\n      0xffffffffffffffffffffffffffffffffffffffff\n      and\n      0xffffffffffffffffffffffffffffffffffffffff\n      and\n      dup2\n      mstore\n      0x20\n      add\n      swap1\n      dup2\n      mstore\n      0x20\n      add\n      0x00\n      keccak256\n        /* \"contracts/Register.sol\":1655:1682  storedInfos[account].length */\n      dup1\n      sload\n      swap1\n      pop\n        /* \"contracts/Register.sol\":1647:1652  index */\n      dup3\n        /* \"contracts/Register.sol\":1647:1682  index < storedInfos[account].length */\n      lt\n        /* \"contracts/Register.sol\":1639:1700  require(index < storedInfos[account].length, \"Invalid index\") */\n      tag_50\n      jumpi\n      mload(0x40)\n      0x08c379a000000000000000000000000000000000000000000000000000000000\n      dup2\n      mstore\n      0x04\n      add\n      tag_51\n      swap1\n      tag_52\n      jump\t// in\n    tag_51:\n      mload(0x40)\n      dup1\n      swap2\n      sub\n      swap1\n      revert\n    tag_50:\n        /* \"contracts/Register.sol\":1718:1729  storedInfos */\n      0x00\n        /* \"contracts/Register.sol\":1718:1738  storedInfos[account] */\n      0x00\n        /* \"contracts/Register.sol\":1730:1737  account */\n      dup5\n        /* \"contracts/Register.sol\":1718:1738  storedInfos[account] */\n      0xffffffffffffffffffffffffffffffffffffffff\n      and\n      0xffffffffffffffffffffffffffffffffffffffff\n      and\n      dup2\n      mstore\n      0x20\n      add\n      swap1\n      dup2\n      mstore\n      0x20\n      add\n      0x00\n      keccak256\n        /* \"contracts/Register.sol\":1739:1744  index */\n      dup3\n        /* \"contracts/Register.sol\":1718:1745  storedInfos[account][index] */\n      dup2\n      sload\n      dup2\n      lt\n      tag_53\n      jumpi\n      tag_54\n      tag_55\n      jump\t// in\n    tag_54:\n    tag_53:\n      swap1\n      0x00\n      mstore\n      keccak256(0x00, 0x20)\n      swap1\n      0x03\n      mul\n      add\n        /* \"contracts/Register.sol\":1711:1745  return storedInfos[account][index] */\n      mload(0x40)\n      dup1\n      0x60\n      add\n      0x40\n      mstore\n      swap1\n      dup2\n      0x00\n      dup3\n      add\n      dup1\n      sload\n      tag_57\n      swap1\n      tag_58\n      jump\t// in\n    tag_57:\n      dup1\n      0x1f\n      add\n      0x20\n      dup1\n      swap2\n      div\n      mul\n      0x20\n      add\n      mload(0x40)\n      swap1\n      dup2\n      add\n      0x40\n      mstore\n      dup1\n      swap3\n      swap2\n      swap1\n      dup2\n      dup2\n      mstore\n      0x20\n      add\n      dup3\n      dup1\n      sload\n      tag_59\n      swap1\n      tag_58\n      jump\t// in\n    tag_59:\n      dup1\n      iszero\n      tag_60\n      jumpi\n      dup1\n      0x1f\n      lt\n      tag_61\n      jumpi\n      0x0100\n      dup1\n      dup4\n      sload\n      div\n      mul\n      dup4\n      mstore\n      swap2\n      0x20\n      add\n      swap2\n      jump(tag_60)\n    tag_61:\n      dup3\n      add\n      swap2\n      swap1\n      0x00\n      mstore\n      keccak256(0x00, 0x20)\n      swap1\n    tag_62:\n      dup2\n      sload\n      dup2\n      mstore\n      swap1\n      0x01\n      add\n      swap1\n      0x20\n      add\n      dup1\n      dup4\n      gt\n      tag_62\n      jumpi\n      dup3\n      swap1\n      sub\n      0x1f\n      and\n      dup3\n      add\n      swap2\n    tag_60:\n      pop\n      pop\n      pop\n      pop\n      pop\n      dup2\n      mstore\n      0x20\n      add\n      0x01\n      dup3\n      add\n      0x00\n      swap1\n      sload\n      swap1\n      0x0100\n      exp\n      swap1\n      div\n      0xff\n      and\n      0x02\n      dup2\n      gt\n      iszero\n      tag_63\n      jumpi\n      tag_64\n      tag_65\n      jump\t// in\n    tag_64:\n    tag_63:\n      0x02\n      dup2\n      gt\n      iszero\n      tag_66\n      jumpi\n      tag_67\n      tag_65\n      jump\t// in\n    tag_67:\n    tag_66:\n      dup2\n      mstore\n      0x20\n      add\n      0x02\n      dup3\n      add\n      sload\n      dup2\n      mstore\n      pop\n      pop\n      swap1\n      pop\n        /* \"contracts/Register.sol\":1539:1753  function getOneInfo(address account, uint index) public view returns (InfoStruct memory) {... */\n      swap3\n      swap2\n      pop\n      pop\n      jump\t// out\n        /* \"contracts/Register.sol\":1903:2030  function listAllInfo(address account) external view returns (InfoStruct[] memory){... */\n    tag_20:\n        /* \"contracts/Register.sol\":1964:1983  InfoStruct[] memory */\n      0x60\n        /* \"contracts/Register.sol\":2002:2013  storedInfos */\n      0x00\n        /* \"contracts/Register.sol\":2002:2022  storedInfos[account] */\n      0x00\n        /* \"contracts/Register.sol\":2014:2021  account */\n      dup4\n        /* \"contracts/Register.sol\":2002:2022  storedInfos[account] */\n      0xffffffffffffffffffffffffffffffffffffffff\n      and\n      0xffffffffffffffffffffffffffffffffffffffff\n      and\n      dup2\n      mstore\n      0x20\n      add\n      swap1\n      dup2\n      mstore\n      0x20\n      add\n      0x00\n      keccak256\n        /* \"contracts/Register.sol\":1995:2022  return storedInfos[account] */\n      dup1\n      sload\n      dup1\n      0x20\n      mul\n      0x20\n      add\n      mload(0x40)\n      swap1\n      dup2\n      add\n      0x40\n      mstore\n      dup1\n      swap3\n      swap2\n      swap1\n      dup2\n      dup2\n      mstore\n      0x20\n      add\n      0x00\n      swap1\n    tag_69:\n      dup3\n      dup3\n      lt\n      iszero\n      tag_70\n      jumpi\n      dup4\n      dup3\n      swap1\n      0x00\n      mstore\n      keccak256(0x00, 0x20)\n      swap1\n      0x03\n      mul\n      add\n      mload(0x40)\n      dup1\n      0x60\n      add\n      0x40\n      mstore\n      swap1\n      dup2\n      0x00\n      dup3\n      add\n      dup1\n      sload\n      tag_72\n      swap1\n      tag_58\n      jump\t// in\n    tag_72:\n      dup1\n      0x1f\n      add\n      0x20\n      dup1\n      swap2\n      div\n      mul\n      0x20\n      add\n      mload(0x40)\n      swap1\n      dup2\n      add\n      0x40\n      mstore\n      dup1\n      swap3\n      swap2\n      swap1\n      dup2\n      dup2\n      mstore\n      0x20\n      add\n      dup3\n      dup1\n      sload\n      tag_73\n      swap1\n      tag_58\n      jump\t// in\n    tag_73:\n      dup1\n      iszero\n      tag_74\n      jumpi\n      dup1\n      0x1f\n      lt\n      tag_75\n      jumpi\n      0x0100\n      dup1\n      dup4\n      sload\n      div\n      mul\n      dup4\n      mstore\n      swap2\n      0x20\n      add\n      swap2\n      jump(tag_74)\n    tag_75:\n      dup3\n      add\n      swap2\n      swap1\n      0x00\n      mstore\n      keccak256(0x00, 0x20)\n      swap1\n    tag_76:\n      dup2\n      sload\n      dup2\n      mstore\n      swap1\n      0x01\n      add\n      swap1\n      0x20\n      add\n      dup1\n      dup4\n      gt\n      tag_76\n      jumpi\n      dup3\n      swap1\n      sub\n      0x1f\n      and\n      dup3\n      add\n      swap2\n    tag_74:\n      pop\n      pop\n      pop\n      pop\n      pop\n      dup2\n      mstore\n      0x20\n      add\n      0x01\n      dup3\n      add\n      0x00\n      swap1\n      sload\n      swap1\n      0x0100\n      exp\n      swap1\n      div\n      0xff\n      and\n      0x02\n      dup2\n      gt\n      iszero\n      tag_77\n      jumpi\n      tag_78\n      tag_65\n      jump\t// in\n    tag_78:\n    tag_77:\n      0x02\n      dup2\n      gt\n      iszero\n      tag_79\n      jumpi\n      tag_80\n      tag_65\n      jump\t// in\n    tag_80:\n    tag_79:\n      dup2\n      mstore\n      0x20\n      add\n      0x02\n      dup3\n      add\n      sload\n      dup2\n      mstore\n      pop\n      pop\n      dup2\n      mstore\n      0x20\n      add\n      swap1\n      0x01\n      add\n      swap1\n      jump(tag_69)\n    tag_70:\n      pop\n      pop\n      pop\n      pop\n      swap1\n      pop\n        /* \"contracts/Register.sol\":1903:2030  function listAllInfo(address account) external view returns (InfoStruct[] memory){... */\n      swap2\n      swap1\n      pop\n      jump\t// out\n        /* \"contracts/Register.sol\":1357:1531  function setColor(uint index, Colors myColor) public {... */\n    tag_26:\n        /* \"contracts/Register.sol\":1460:1467  myColor */\n      dup1\n        /* \"contracts/Register.sol\":1421:1432  storedInfos */\n      0x00\n        /* \"contracts/Register.sol\":1421:1444  storedInfos[msg.sender] */\n      0x00\n        /* \"contracts/Register.sol\":1433:1443  msg.sender */\n      caller\n        /* \"contracts/Register.sol\":1421:1444  storedInfos[msg.sender] */\n      0xffffffffffffffffffffffffffffffffffffffff\n      and\n      0xffffffffffffffffffffffffffffffffffffffff\n      and\n      dup2\n      mstore\n      0x20\n      add\n      swap1\n      dup2\n      mstore\n      0x20\n      add\n      0x00\n      keccak256\n        /* \"contracts/Register.sol\":1445:1450  index */\n      dup4\n        /* \"contracts/Register.sol\":1421:1451  storedInfos[msg.sender][index] */\n      dup2\n      sload\n      dup2\n      lt\n      tag_82\n      jumpi\n      tag_83\n      tag_55\n      jump\t// in\n    tag_83:\n    tag_82:\n      swap1\n      0x00\n      mstore\n      keccak256(0x00, 0x20)\n      swap1\n      0x03\n      mul\n      add\n        /* \"contracts/Register.sol\":1421:1457  storedInfos[msg.sender][index].color */\n      0x01\n      add\n      0x00\n        /* \"contracts/Register.sol\":1421:1467  storedInfos[msg.sender][index].color = myColor */\n      0x0100\n      exp\n      dup2\n      sload\n      dup2\n      0xff\n      mul\n      not\n      and\n      swap1\n      dup4\n      0x02\n      dup2\n      gt\n      iszero\n      tag_85\n      jumpi\n      tag_86\n      tag_65\n      jump\t// in\n    tag_86:\n    tag_85:\n      mul\n      or\n      swap1\n      sstore\n      pop\n        /* \"contracts/Register.sol\":1478:1489  storedInfos */\n      0x00\n        /* \"contracts/Register.sol\":1478:1501  storedInfos[msg.sender] */\n      0x00\n        /* \"contracts/Register.sol\":1490:1500  msg.sender */\n      caller\n        /* \"contracts/Register.sol\":1478:1501  storedInfos[msg.sender] */\n      0xffffffffffffffffffffffffffffffffffffffff\n      and\n      0xffffffffffffffffffffffffffffffffffffffff\n      and\n      dup2\n      mstore\n      0x20\n      add\n      swap1\n      dup2\n      mstore\n      0x20\n      add\n      0x00\n      keccak256\n        /* \"contracts/Register.sol\":1502:1507  index */\n      dup3\n        /* \"contracts/Register.sol\":1478:1508  storedInfos[msg.sender][index] */\n      dup2\n      sload\n      dup2\n      lt\n      tag_87\n      jumpi\n      tag_88\n      tag_55\n      jump\t// in\n    tag_88:\n    tag_87:\n      swap1\n      0x00\n      mstore\n      keccak256(0x00, 0x20)\n      swap1\n      0x03\n      mul\n      add\n        /* \"contracts/Register.sol\":1478:1521  storedInfos[msg.sender][index].countChanges */\n      0x02\n      add\n      0x00\n        /* \"contracts/Register.sol\":1478:1523  storedInfos[msg.sender][index].countChanges++ */\n      dup2\n      sload\n      dup1\n      swap3\n      swap2\n      swap1\n      tag_90\n      swap1\n      tag_91\n      jump\t// in\n    tag_90:\n      swap2\n      swap1\n      pop\n      sstore\n      pop\n        /* \"contracts/Register.sol\":1357:1531  function setColor(uint index, Colors myColor) public {... */\n      pop\n      pop\n      jump\t// out\n        /* \"contracts/Register.sol\":1761:1895  function getMyInfoAtIndex(uint index) external view returns (InfoStruct memory){... */\n    tag_30:\n        /* \"contracts/Register.sol\":1822:1839  InfoStruct memory */\n      tag_92\n      tag_48\n      jump\t// in\n    tag_92:\n        /* \"contracts/Register.sol\":1858:1887  getOneInfo(msg.sender, index) */\n      tag_94\n        /* \"contracts/Register.sol\":1869:1879  msg.sender */\n      caller\n        /* \"contracts/Register.sol\":1881:1886  index */\n      dup4\n        /* \"contracts/Register.sol\":1858:1868  getOneInfo */\n      tag_14\n        /* \"contracts/Register.sol\":1858:1887  getOneInfo(msg.sender, index) */\n      jump\t// in\n    tag_94:\n        /* \"contracts/Register.sol\":1851:1887  return getOneInfo(msg.sender, index) */\n      swap1\n      pop\n        /* \"contracts/Register.sol\":1761:1895  function getMyInfoAtIndex(uint index) external view returns (InfoStruct memory){... */\n      swap2\n      swap1\n      pop\n      jump\t// out\n        /* \"contracts/Register.sol\":301:353  mapping (address => InfoStruct[]) public storedInfos */\n    tag_34:\n      mstore(0x20, 0x00)\n      dup2\n      0x00\n      mstore\n      keccak256(0x00, 0x40)\n      dup2\n      dup2\n      sload\n      dup2\n      lt\n      tag_95\n      jumpi\n      0x00\n      dup1\n      revert\n    tag_95:\n      swap1\n      0x00\n      mstore\n      keccak256(0x00, 0x20)\n      swap1\n      0x03\n      mul\n      add\n      0x00\n      swap2\n      pop\n      swap2\n      pop\n      pop\n      dup1\n      0x00\n      add\n      dup1\n      sload\n      tag_97\n      swap1\n      tag_58\n      jump\t// in\n    tag_97:\n      dup1\n      0x1f\n      add\n      0x20\n      dup1\n      swap2\n      div\n      mul\n      0x20\n      add\n      mload(0x40)\n      swap1\n      dup2\n      add\n      0x40\n      mstore\n      dup1\n      swap3\n      swap2\n      swap1\n      dup2\n      dup2\n      mstore\n      0x20\n      add\n      dup3\n      dup1\n      sload\n      tag_98\n      swap1\n      tag_58\n      jump\t// in\n    tag_98:\n      dup1\n      iszero\n      tag_99\n      jumpi\n      dup1\n      0x1f\n      lt\n      tag_100\n      jumpi\n      0x0100\n      dup1\n      dup4\n      sload\n      div\n      mul\n      dup4\n      mstore\n      swap2\n      0x20\n      add\n      swap2\n      jump(tag_99)\n    tag_100:\n      dup3\n      add\n      swap2\n      swap1\n      0x00\n      mstore\n      keccak256(0x00, 0x20)\n      swap1\n    tag_101:\n      dup2\n      sload\n      dup2\n      mstore\n      swap1\n      0x01\n      add\n      swap1\n      0x20\n      add\n      dup1\n      dup4\n      gt\n      tag_101\n      jumpi\n      dup3\n      swap1\n      sub\n      0x1f\n      and\n      dup3\n      add\n      swap2\n    tag_99:\n      pop\n      pop\n      pop\n      pop\n      pop\n      swap1\n      dup1\n      0x01\n      add\n      0x00\n      swap1\n      sload\n      swap1\n      0x0100\n      exp\n      swap1\n      div\n      0xff\n      and\n      swap1\n      dup1\n      0x02\n      add\n      sload\n      swap1\n      pop\n      dup4\n      jump\t// out\n        /* \"contracts/Register.sol\":1041:1349  function setInfo(uint index, string memory newInfo) public {... */\n    tag_40:\n        /* \"contracts/Register.sol\":1111:1122  storedInfos */\n      0x00\n        /* \"contracts/Register.sol\":1111:1134  storedInfos[msg.sender] */\n      0x00\n        /* \"contracts/Register.sol\":1123:1133  msg.sender */\n      caller\n        /* \"contracts/Register.sol\":1111:1134  storedInfos[msg.sender] */\n      0xffffffffffffffffffffffffffffffffffffffff\n      and\n      0xffffffffffffffffffffffffffffffffffffffff\n      and\n      dup2\n      mstore\n      0x20\n      add\n      swap1\n      dup2\n      mstore\n      0x20\n      add\n      0x00\n      keccak256\n        /* \"contracts/Register.sol\":1135:1140  index */\n      dup3\n        /* \"contracts/Register.sol\":1111:1141  storedInfos[msg.sender][index] */\n      dup2\n      sload\n      dup2\n      lt\n      tag_103\n      jumpi\n      tag_104\n      tag_55\n      jump\t// in\n    tag_104:\n    tag_103:\n      swap1\n      0x00\n      mstore\n      keccak256(0x00, 0x20)\n      swap1\n      0x03\n      mul\n      add\n        /* \"contracts/Register.sol\":1111:1154  storedInfos[msg.sender][index].countChanges */\n      0x02\n      add\n      0x00\n        /* \"contracts/Register.sol\":1111:1156  storedInfos[msg.sender][index].countChanges++ */\n      dup2\n      sload\n      dup1\n      swap3\n      swap2\n      swap1\n      tag_106\n      swap1\n      tag_91\n      jump\t// in\n    tag_106:\n      swap2\n      swap1\n      pop\n      sstore\n      pop\n        /* \"contracts/Register.sol\":1172:1285  InfoChange(msg.sender, storedInfos[msg.sender][index].countChanges, storedInfos[msg.sender][index].info, newInfo) */\n      0xeb0c5cfcb1d1a12c404c7bfceac5a0dc8ec8c2da31abaf3536a58433b2c561ce\n        /* \"contracts/Register.sol\":1183:1193  msg.sender */\n      caller\n        /* \"contracts/Register.sol\":1195:1206  storedInfos */\n      0x00\n        /* \"contracts/Register.sol\":1195:1218  storedInfos[msg.sender] */\n      0x00\n        /* \"contracts/Register.sol\":1207:1217  msg.sender */\n      caller\n        /* \"contracts/Register.sol\":1195:1218  storedInfos[msg.sender] */\n      0xffffffffffffffffffffffffffffffffffffffff\n      and\n      0xffffffffffffffffffffffffffffffffffffffff\n      and\n      dup2\n      mstore\n      0x20\n      add\n      swap1\n      dup2\n      mstore\n      0x20\n      add\n      0x00\n      keccak256\n        /* \"contracts/Register.sol\":1219:1224  index */\n      dup5\n        /* \"contracts/Register.sol\":1195:1225  storedInfos[msg.sender][index] */\n      dup2\n      sload\n      dup2\n      lt\n      tag_107\n      jumpi\n      tag_108\n      tag_55\n      jump\t// in\n    tag_108:\n    tag_107:\n      swap1\n      0x00\n      mstore\n      keccak256(0x00, 0x20)\n      swap1\n      0x03\n      mul\n      add\n        /* \"contracts/Register.sol\":1195:1238  storedInfos[msg.sender][index].countChanges */\n      0x02\n      add\n      sload\n        /* \"contracts/Register.sol\":1240:1251  storedInfos */\n      0x00\n        /* \"contracts/Register.sol\":1240:1263  storedInfos[msg.sender] */\n      0x00\n        /* \"contracts/Register.sol\":1252:1262  msg.sender */\n      caller\n        /* \"contracts/Register.sol\":1240:1263  storedInfos[msg.sender] */\n      0xffffffffffffffffffffffffffffffffffffffff\n      and\n      0xffffffffffffffffffffffffffffffffffffffff\n      and\n      dup2\n      mstore\n      0x20\n      add\n      swap1\n      dup2\n      mstore\n      0x20\n      add\n      0x00\n      keccak256\n        /* \"contracts/Register.sol\":1264:1269  index */\n      dup6\n        /* \"contracts/Register.sol\":1240:1270  storedInfos[msg.sender][index] */\n      dup2\n      sload\n      dup2\n      lt\n      tag_110\n      jumpi\n      tag_111\n      tag_55\n      jump\t// in\n    tag_111:\n    tag_110:\n      swap1\n      0x00\n      mstore\n      keccak256(0x00, 0x20)\n      swap1\n      0x03\n      mul\n      add\n        /* \"contracts/Register.sol\":1240:1275  storedInfos[msg.sender][index].info */\n      0x00\n      add\n        /* \"contracts/Register.sol\":1277:1284  newInfo */\n      dup5\n        /* \"contracts/Register.sol\":1172:1285  InfoChange(msg.sender, storedInfos[msg.sender][index].countChanges, storedInfos[msg.sender][index].info, newInfo) */\n      mload(0x40)\n      tag_113\n      swap5\n      swap4\n      swap3\n      swap2\n      swap1\n      tag_114\n      jump\t// in\n    tag_113:\n      mload(0x40)\n      dup1\n      swap2\n      sub\n      swap1\n      log1\n        /* \"contracts/Register.sol\":1334:1341  newInfo */\n      dup1\n        /* \"contracts/Register.sol\":1296:1307  storedInfos */\n      0x00\n        /* \"contracts/Register.sol\":1296:1319  storedInfos[msg.sender] */\n      0x00\n        /* \"contracts/Register.sol\":1308:1318  msg.sender */\n      caller\n        /* \"contracts/Register.sol\":1296:1319  storedInfos[msg.sender] */\n      0xffffffffffffffffffffffffffffffffffffffff\n      and\n      0xffffffffffffffffffffffffffffffffffffffff\n      and\n      dup2\n      mstore\n      0x20\n      add\n      swap1\n      dup2\n      mstore\n      0x20\n      add\n      0x00\n      keccak256\n        /* \"contracts/Register.sol\":1320:1325  index */\n      dup4\n        /* \"contracts/Register.sol\":1296:1326  storedInfos[msg.sender][index] */\n      dup2\n      sload\n      dup2\n      lt\n      tag_115\n      jumpi\n      tag_116\n      tag_55\n      jump\t// in\n    tag_116:\n    tag_115:\n      swap1\n      0x00\n      mstore\n      keccak256(0x00, 0x20)\n      swap1\n      0x03\n      mul\n      add\n        /* \"contracts/Register.sol\":1296:1331  storedInfos[msg.sender][index].info */\n      0x00\n      add\n        /* \"contracts/Register.sol\":1296:1341  storedInfos[msg.sender][index].info = newInfo */\n      swap1\n      dup2\n      tag_118\n      swap2\n      swap1\n      tag_119\n      jump\t// in\n    tag_118:\n      pop\n        /* \"contracts/Register.sol\":1041:1349  function setInfo(uint index, string memory newInfo) public {... */\n      pop\n      pop\n      jump\t// out\n        /* \"contracts/Register.sol\":695:1033  function addInfo(Colors myColor, string memory myInfo) public returns (uint index){... */\n    tag_44:\n        /* \"contracts/Register.sol\":766:776  uint index */\n      0x00\n        /* \"contracts/Register.sol\":788:813  InfoStruct memory auxInfo */\n      0x00\n        /* \"contracts/Register.sol\":816:925  InfoStruct({... */\n      mload(0x40)\n      dup1\n      0x60\n      add\n      0x40\n      mstore\n      dup1\n        /* \"contracts/Register.sol\":848:854  myInfo */\n      dup5\n        /* \"contracts/Register.sol\":816:925  InfoStruct({... */\n      dup2\n      mstore\n      0x20\n      add\n        /* \"contracts/Register.sol\":876:883  myColor */\n      dup6\n        /* \"contracts/Register.sol\":816:925  InfoStruct({... */\n      0x02\n      dup2\n      gt\n      iszero\n      tag_121\n      jumpi\n      tag_122\n      tag_65\n      jump\t// in\n    tag_122:\n    tag_121:\n      dup2\n      mstore\n      0x20\n      add\n        /* \"contracts/Register.sol\":912:913  0 */\n      0x00\n        /* \"contracts/Register.sol\":816:925  InfoStruct({... */\n      dup2\n      mstore\n      pop\n        /* \"contracts/Register.sol\":788:925  InfoStruct memory auxInfo = InfoStruct({... */\n      swap1\n      pop\n        /* \"contracts/Register.sol\":936:947  storedInfos */\n      0x00\n        /* \"contracts/Register.sol\":936:959  storedInfos[msg.sender] */\n      0x00\n        /* \"contracts/Register.sol\":948:958  msg.sender */\n      caller\n        /* \"contracts/Register.sol\":936:959  storedInfos[msg.sender] */\n      0xffffffffffffffffffffffffffffffffffffffff\n      and\n      0xffffffffffffffffffffffffffffffffffffffff\n      and\n      dup2\n      mstore\n      0x20\n      add\n      swap1\n      dup2\n      mstore\n      0x20\n      add\n      0x00\n      keccak256\n        /* \"contracts/Register.sol\":965:972  auxInfo */\n      dup2\n        /* \"contracts/Register.sol\":936:973  storedInfos[msg.sender].push(auxInfo) */\n      swap1\n      dup1\n      0x01\n      dup2\n      sload\n      add\n      dup1\n      dup3\n      sstore\n      dup1\n      swap2\n      pop\n      pop\n      0x01\n      swap1\n      sub\n      swap1\n      0x00\n      mstore\n      keccak256(0x00, 0x20)\n      swap1\n      0x03\n      mul\n      add\n      0x00\n      swap1\n      swap2\n      swap1\n      swap2\n      swap1\n      swap2\n      pop\n      0x00\n      dup3\n      add\n      mload\n      dup2\n      0x00\n      add\n      swap1\n      dup2\n      tag_124\n      swap2\n      swap1\n      tag_119\n      jump\t// in\n    tag_124:\n      pop\n      0x20\n      dup3\n      add\n      mload\n      dup2\n      0x01\n      add\n      exp(0x0100, 0x00)\n      dup2\n      sload\n      dup2\n      0xff\n      mul\n      not\n      and\n      swap1\n      dup4\n      0x02\n      dup2\n      gt\n      iszero\n      tag_125\n      jumpi\n      tag_126\n      tag_65\n      jump\t// in\n    tag_126:\n    tag_125:\n      mul\n      or\n      swap1\n      sstore\n      pop\n      0x40\n      dup3\n      add\n      mload\n      dup2\n      0x02\n      add\n      sstore\n      pop\n      pop\n        /* \"contracts/Register.sol\":1024:1025  1 */\n      0x01\n        /* \"contracts/Register.sol\":991:1002  storedInfos */\n      0x00\n        /* \"contracts/Register.sol\":991:1014  storedInfos[msg.sender] */\n      0x00\n        /* \"contracts/Register.sol\":1003:1013  msg.sender */\n      caller\n        /* \"contracts/Register.sol\":991:1014  storedInfos[msg.sender] */\n      0xffffffffffffffffffffffffffffffffffffffff\n      and\n      0xffffffffffffffffffffffffffffffffffffffff\n      and\n      dup2\n      mstore\n      0x20\n      add\n      swap1\n      dup2\n      mstore\n      0x20\n      add\n      0x00\n      keccak256\n        /* \"contracts/Register.sol\":991:1021  storedInfos[msg.sender].length */\n      dup1\n      sload\n      swap1\n      pop\n        /* \"contracts/Register.sol\":991:1025  storedInfos[msg.sender].length - 1 */\n      tag_127\n      swap2\n      swap1\n      tag_128\n      jump\t// in\n    tag_127:\n        /* \"contracts/Register.sol\":984:1025  return storedInfos[msg.sender].length - 1 */\n      swap2\n      pop\n      pop\n        /* \"contracts/Register.sol\":695:1033  function addInfo(Colors myColor, string memory myInfo) public returns (uint index){... */\n      swap3\n      swap2\n      pop\n      pop\n      jump\t// out\n    tag_48:\n      mload(0x40)\n      dup1\n      0x60\n      add\n      0x40\n      mstore\n      dup1\n      0x60\n      dup2\n      mstore\n      0x20\n      add\n      0x00\n      0x02\n      dup2\n      gt\n      iszero\n      tag_129\n      jumpi\n      tag_130\n      tag_65\n      jump\t// in\n    tag_130:\n    tag_129:\n      dup2\n      mstore\n      0x20\n      add\n      0x00\n      dup2\n      mstore\n      pop\n      swap1\n      jump\t// out\n        /* \"#utility.yul\":7:82   */\n    tag_131:\n        /* \"#utility.yul\":40:46   */\n      0x00\n        /* \"#utility.yul\":73:75   */\n      0x40\n        /* \"#utility.yul\":67:76   */\n      mload\n        /* \"#utility.yul\":57:76   */\n      swap1\n      pop\n        /* \"#utility.yul\":7:82   */\n      swap1\n      jump\t// out\n        /* \"#utility.yul\":88:205   */\n    tag_132:\n        /* \"#utility.yul\":197:198   */\n      0x00\n        /* \"#utility.yul\":194:195   */\n      0x00\n        /* \"#utility.yul\":187:199   */\n      revert\n        /* \"#utility.yul\":211:328   */\n    tag_133:\n        /* \"#utility.yul\":320:321   */\n      0x00\n        /* \"#utility.yul\":317:318   */\n      0x00\n        /* \"#utility.yul\":310:322   */\n      revert\n        /* \"#utility.yul\":334:460   */\n    tag_134:\n        /* \"#utility.yul\":371:378   */\n      0x00\n        /* \"#utility.yul\":411:453   */\n      0xffffffffffffffffffffffffffffffffffffffff\n        /* \"#utility.yul\":404:409   */\n      dup3\n        /* \"#utility.yul\":400:454   */\n      and\n        /* \"#utility.yul\":389:454   */\n      swap1\n      pop\n        /* \"#utility.yul\":334:460   */\n      swap2\n      swap1\n      pop\n      jump\t// out\n        /* \"#utility.yul\":466:562   */\n    tag_135:\n        /* \"#utility.yul\":503:510   */\n      0x00\n        /* \"#utility.yul\":532:556   */\n      tag_201\n        /* \"#utility.yul\":550:555   */\n      dup3\n        /* \"#utility.yul\":532:556   */\n      tag_134\n      jump\t// in\n    tag_201:\n        /* \"#utility.yul\":521:556   */\n      swap1\n      pop\n        /* \"#utility.yul\":466:562   */\n      swap2\n      swap1\n      pop\n      jump\t// out\n        /* \"#utility.yul\":568:690   */\n    tag_136:\n        /* \"#utility.yul\":641:665   */\n      tag_203\n        /* \"#utility.yul\":659:664   */\n      dup2\n        /* \"#utility.yul\":641:665   */\n      tag_135\n      jump\t// in\n    tag_203:\n        /* \"#utility.yul\":634:639   */\n      dup2\n        /* \"#utility.yul\":631:666   */\n      eq\n        /* \"#utility.yul\":621:684   */\n      tag_204\n      jumpi\n        /* \"#utility.yul\":680:681   */\n      0x00\n        /* \"#utility.yul\":677:678   */\n      0x00\n        /* \"#utility.yul\":670:682   */\n      revert\n        /* \"#utility.yul\":621:684   */\n    tag_204:\n        /* \"#utility.yul\":568:690   */\n      pop\n      jump\t// out\n        /* \"#utility.yul\":696:835   */\n    tag_137:\n        /* \"#utility.yul\":742:747   */\n      0x00\n        /* \"#utility.yul\":780:786   */\n      dup2\n        /* \"#utility.yul\":767:787   */\n      calldataload\n        /* \"#utility.yul\":758:787   */\n      swap1\n      pop\n        /* \"#utility.yul\":796:829   */\n      tag_206\n        /* \"#utility.yul\":823:828   */\n      dup2\n        /* \"#utility.yul\":796:829   */\n      tag_136\n      jump\t// in\n    tag_206:\n        /* \"#utility.yul\":696:835   */\n      swap3\n      swap2\n      pop\n      pop\n      jump\t// out\n        /* \"#utility.yul\":841:918   */\n    tag_138:\n        /* \"#utility.yul\":878:885   */\n      0x00\n        /* \"#utility.yul\":907:912   */\n      dup2\n        /* \"#utility.yul\":896:912   */\n      swap1\n      pop\n        /* \"#utility.yul\":841:918   */\n      swap2\n      swap1\n      pop\n      jump\t// out\n        /* \"#utility.yul\":924:1046   */\n    tag_139:\n        /* \"#utility.yul\":997:1021   */\n      tag_209\n        /* \"#utility.yul\":1015:1020   */\n      dup2\n        /* \"#utility.yul\":997:1021   */\n      tag_138\n      jump\t// in\n    tag_209:\n        /* \"#utility.yul\":990:995   */\n      dup2\n        /* \"#utility.yul\":987:1022   */\n      eq\n        /* \"#utility.yul\":977:1040   */\n      tag_210\n      jumpi\n        /* \"#utility.yul\":1036:1037   */\n      0x00\n        /* \"#utility.yul\":1033:1034   */\n      0x00\n        /* \"#utility.yul\":1026:1038   */\n      revert\n        /* \"#utility.yul\":977:1040   */\n    tag_210:\n        /* \"#utility.yul\":924:1046   */\n      pop\n      jump\t// out\n        /* \"#utility.yul\":1052:1191   */\n    tag_140:\n        /* \"#utility.yul\":1098:1103   */\n      0x00\n        /* \"#utility.yul\":1136:1142   */\n      dup2\n        /* \"#utility.yul\":1123:1143   */\n      calldataload\n        /* \"#utility.yul\":1114:1143   */\n      swap1\n      pop\n        /* \"#utility.yul\":1152:1185   */\n      tag_212\n        /* \"#utility.yul\":1179:1184   */\n      dup2\n        /* \"#utility.yul\":1152:1185   */\n      tag_139\n      jump\t// in\n    tag_212:\n        /* \"#utility.yul\":1052:1191   */\n      swap3\n      swap2\n      pop\n      pop\n      jump\t// out\n        /* \"#utility.yul\":1197:1671   */\n    tag_13:\n        /* \"#utility.yul\":1265:1271   */\n      0x00\n        /* \"#utility.yul\":1273:1279   */\n      0x00\n        /* \"#utility.yul\":1322:1324   */\n      0x40\n        /* \"#utility.yul\":1310:1319   */\n      dup4\n        /* \"#utility.yul\":1301:1308   */\n      dup6\n        /* \"#utility.yul\":1297:1320   */\n      sub\n        /* \"#utility.yul\":1293:1325   */\n      slt\n        /* \"#utility.yul\":1290:1409   */\n      iszero\n      tag_214\n      jumpi\n        /* \"#utility.yul\":1328:1407   */\n      tag_215\n      tag_132\n      jump\t// in\n    tag_215:\n        /* \"#utility.yul\":1290:1409   */\n    tag_214:\n        /* \"#utility.yul\":1448:1449   */\n      0x00\n        /* \"#utility.yul\":1473:1526   */\n      tag_216\n        /* \"#utility.yul\":1518:1525   */\n      dup6\n        /* \"#utility.yul\":1509:1515   */\n      dup3\n        /* \"#utility.yul\":1498:1507   */\n      dup7\n        /* \"#utility.yul\":1494:1516   */\n      add\n        /* \"#utility.yul\":1473:1526   */\n      tag_137\n      jump\t// in\n    tag_216:\n        /* \"#utility.yul\":1463:1526   */\n      swap3\n      pop\n        /* \"#utility.yul\":1419:1536   */\n      pop\n        /* \"#utility.yul\":1575:1577   */\n      0x20\n        /* \"#utility.yul\":1601:1654   */\n      tag_217\n        /* \"#utility.yul\":1646:1653   */\n      dup6\n        /* \"#utility.yul\":1637:1643   */\n      dup3\n        /* \"#utility.yul\":1626:1635   */\n      dup7\n        /* \"#utility.yul\":1622:1644   */\n      add\n        /* \"#utility.yul\":1601:1654   */\n      tag_140\n      jump\t// in\n    tag_217:\n        /* \"#utility.yul\":1591:1654   */\n      swap2\n      pop\n        /* \"#utility.yul\":1546:1664   */\n      pop\n        /* \"#utility.yul\":1197:1671   */\n      swap3\n      pop\n      swap3\n      swap1\n      pop\n      jump\t// out\n        /* \"#utility.yul\":1677:1776   */\n    tag_141:\n        /* \"#utility.yul\":1729:1735   */\n      0x00\n        /* \"#utility.yul\":1763:1768   */\n      dup2\n        /* \"#utility.yul\":1757:1769   */\n      mload\n        /* \"#utility.yul\":1747:1769   */\n      swap1\n      pop\n        /* \"#utility.yul\":1677:1776   */\n      swap2\n      swap1\n      pop\n      jump\t// out\n        /* \"#utility.yul\":1782:1941   */\n    tag_142:\n        /* \"#utility.yul\":1856:1867   */\n      0x00\n        /* \"#utility.yul\":1890:1896   */\n      dup3\n        /* \"#utility.yul\":1885:1888   */\n      dup3\n        /* \"#utility.yul\":1878:1897   */\n      mstore\n        /* \"#utility.yul\":1930:1934   */\n      0x20\n        /* \"#utility.yul\":1925:1928   */\n      dup3\n        /* \"#utility.yul\":1921:1935   */\n      add\n        /* \"#utility.yul\":1906:1935   */\n      swap1\n      pop\n        /* \"#utility.yul\":1782:1941   */\n      swap3\n      swap2\n      pop\n      pop\n      jump\t// out\n        /* \"#utility.yul\":1947:2086   */\n    tag_143:\n        /* \"#utility.yul\":2036:2042   */\n      dup3\n        /* \"#utility.yul\":2031:2034   */\n      dup2\n        /* \"#utility.yul\":2026:2029   */\n      dup4\n        /* \"#utility.yul\":2020:2043   */\n      mcopy\n        /* \"#utility.yul\":2077:2078   */\n      0x00\n        /* \"#utility.yul\":2068:2074   */\n      dup4\n        /* \"#utility.yul\":2063:2066   */\n      dup4\n        /* \"#utility.yul\":2059:2075   */\n      add\n        /* \"#utility.yul\":2052:2079   */\n      mstore\n        /* \"#utility.yul\":1947:2086   */\n      pop\n      pop\n      pop\n      jump\t// out\n        /* \"#utility.yul\":2092:2194   */\n    tag_144:\n        /* \"#utility.yul\":2133:2139   */\n      0x00\n        /* \"#utility.yul\":2184:2186   */\n      0x1f\n        /* \"#utility.yul\":2180:2187   */\n      not\n        /* \"#utility.yul\":2175:2177   */\n      0x1f\n        /* \"#utility.yul\":2168:2173   */\n      dup4\n        /* \"#utility.yul\":2164:2178   */\n      add\n        /* \"#utility.yul\":2160:2188   */\n      and\n        /* \"#utility.yul\":2150:2188   */\n      swap1\n      pop\n        /* \"#utility.yul\":2092:2194   */\n      swap2\n      swap1\n      pop\n      jump\t// out\n        /* \"#utility.yul\":2200:2557   */\n    tag_145:\n        /* \"#utility.yul\":2278:2281   */\n      0x00\n        /* \"#utility.yul\":2306:2345   */\n      tag_223\n        /* \"#utility.yul\":2339:2344   */\n      dup3\n        /* \"#utility.yul\":2306:2345   */\n      tag_141\n      jump\t// in\n    tag_223:\n        /* \"#utility.yul\":2361:2422   */\n      tag_224\n        /* \"#utility.yul\":2415:2421   */\n      dup2\n        /* \"#utility.yul\":2410:2413   */\n      dup6\n        /* \"#utility.yul\":2361:2422   */\n      tag_142\n      jump\t// in\n    tag_224:\n        /* \"#utility.yul\":2354:2422   */\n      swap4\n      pop\n        /* \"#utility.yul\":2431:2496   */\n      tag_225\n        /* \"#utility.yul\":2489:2495   */\n      dup2\n        /* \"#utility.yul\":2484:2487   */\n      dup6\n        /* \"#utility.yul\":2477:2481   */\n      0x20\n        /* \"#utility.yul\":2470:2475   */\n      dup7\n        /* \"#utility.yul\":2466:2482   */\n      add\n        /* \"#utility.yul\":2431:2496   */\n      tag_143\n      jump\t// in\n    tag_225:\n        /* \"#utility.yul\":2521:2550   */\n      tag_226\n        /* \"#utility.yul\":2543:2549   */\n      dup2\n        /* \"#utility.yul\":2521:2550   */\n      tag_144\n      jump\t// in\n    tag_226:\n        /* \"#utility.yul\":2516:2519   */\n      dup5\n        /* \"#utility.yul\":2512:2551   */\n      add\n        /* \"#utility.yul\":2505:2551   */\n      swap2\n      pop\n        /* \"#utility.yul\":2282:2557   */\n      pop\n        /* \"#utility.yul\":2200:2557   */\n      swap3\n      swap2\n      pop\n      pop\n      jump\t// out\n        /* \"#utility.yul\":2563:2743   */\n    tag_65:\n        /* \"#utility.yul\":2611:2688   */\n      0x4e487b7100000000000000000000000000000000000000000000000000000000\n        /* \"#utility.yul\":2608:2609   */\n      0x00\n        /* \"#utility.yul\":2601:2689   */\n      mstore\n        /* \"#utility.yul\":2708:2712   */\n      0x21\n        /* \"#utility.yul\":2705:2706   */\n      0x04\n        /* \"#utility.yul\":2698:2713   */\n      mstore\n        /* \"#utility.yul\":2732:2736   */\n      0x24\n        /* \"#utility.yul\":2729:2730   */\n      0x00\n        /* \"#utility.yul\":2722:2737   */\n      revert\n        /* \"#utility.yul\":2749:2862   */\n    tag_146:\n        /* \"#utility.yul\":2830:2831   */\n      0x03\n        /* \"#utility.yul\":2823:2828   */\n      dup2\n        /* \"#utility.yul\":2820:2832   */\n      lt\n        /* \"#utility.yul\":2810:2856   */\n      tag_229\n      jumpi\n        /* \"#utility.yul\":2836:2854   */\n      tag_230\n      tag_65\n      jump\t// in\n    tag_230:\n        /* \"#utility.yul\":2810:2856   */\n    tag_229:\n        /* \"#utility.yul\":2749:2862   */\n      pop\n      jump\t// out\n        /* \"#utility.yul\":2868:2995   */\n    tag_147:\n        /* \"#utility.yul\":2913:2920   */\n      0x00\n        /* \"#utility.yul\":2942:2947   */\n      dup2\n        /* \"#utility.yul\":2931:2947   */\n      swap1\n      pop\n        /* \"#utility.yul\":2948:2989   */\n      tag_232\n        /* \"#utility.yul\":2983:2988   */\n      dup3\n        /* \"#utility.yul\":2948:2989   */\n      tag_146\n      jump\t// in\n    tag_232:\n        /* \"#utility.yul\":2868:2995   */\n      swap2\n      swap1\n      pop\n      jump\t// out\n        /* \"#utility.yul\":3001:3128   */\n    tag_148:\n        /* \"#utility.yul\":3057:3066   */\n      0x00\n        /* \"#utility.yul\":3090:3122   */\n      tag_234\n        /* \"#utility.yul\":3116:3121   */\n      dup3\n        /* \"#utility.yul\":3090:3122   */\n      tag_147\n      jump\t// in\n    tag_234:\n        /* \"#utility.yul\":3077:3122   */\n      swap1\n      pop\n        /* \"#utility.yul\":3001:3128   */\n      swap2\n      swap1\n      pop\n      jump\t// out\n        /* \"#utility.yul\":3134:3267   */\n    tag_149:\n        /* \"#utility.yul\":3217:3260   */\n      tag_236\n        /* \"#utility.yul\":3254:3259   */\n      dup2\n        /* \"#utility.yul\":3217:3260   */\n      tag_148\n      jump\t// in\n    tag_236:\n        /* \"#utility.yul\":3212:3215   */\n      dup3\n        /* \"#utility.yul\":3205:3261   */\n      mstore\n        /* \"#utility.yul\":3134:3267   */\n      pop\n      pop\n      jump\t// out\n        /* \"#utility.yul\":3273:3381   */\n    tag_150:\n        /* \"#utility.yul\":3350:3374   */\n      tag_238\n        /* \"#utility.yul\":3368:3373   */\n      dup2\n        /* \"#utility.yul\":3350:3374   */\n      tag_138\n      jump\t// in\n    tag_238:\n        /* \"#utility.yul\":3345:3348   */\n      dup3\n        /* \"#utility.yul\":3338:3375   */\n      mstore\n        /* \"#utility.yul\":3273:3381   */\n      pop\n      pop\n      jump\t// out\n        /* \"#utility.yul\":3457:4254   */\n    tag_151:\n        /* \"#utility.yul\":3578:3581   */\n      0x00\n        /* \"#utility.yul\":3614:3618   */\n      0x60\n        /* \"#utility.yul\":3609:3612   */\n      dup4\n        /* \"#utility.yul\":3605:3619   */\n      add\n        /* \"#utility.yul\":3701:3705   */\n      0x00\n        /* \"#utility.yul\":3694:3699   */\n      dup4\n        /* \"#utility.yul\":3690:3706   */\n      add\n        /* \"#utility.yul\":3684:3707   */\n      mload\n        /* \"#utility.yul\":3754:3757   */\n      dup5\n        /* \"#utility.yul\":3748:3752   */\n      dup3\n        /* \"#utility.yul\":3744:3758   */\n      sub\n        /* \"#utility.yul\":3737:3741   */\n      0x00\n        /* \"#utility.yul\":3732:3735   */\n      dup7\n        /* \"#utility.yul\":3728:3742   */\n      add\n        /* \"#utility.yul\":3721:3759   */\n      mstore\n        /* \"#utility.yul\":3780:3853   */\n      tag_240\n        /* \"#utility.yul\":3848:3852   */\n      dup3\n        /* \"#utility.yul\":3834:3846   */\n      dup3\n        /* \"#utility.yul\":3780:3853   */\n      tag_145\n      jump\t// in\n    tag_240:\n        /* \"#utility.yul\":3772:3853   */\n      swap2\n      pop\n        /* \"#utility.yul\":3629:3864   */\n      pop\n        /* \"#utility.yul\":3947:3951   */\n      0x20\n        /* \"#utility.yul\":3940:3945   */\n      dup4\n        /* \"#utility.yul\":3936:3952   */\n      add\n        /* \"#utility.yul\":3930:3953   */\n      mload\n        /* \"#utility.yul\":3966:4035   */\n      tag_241\n        /* \"#utility.yul\":4029:4033   */\n      0x20\n        /* \"#utility.yul\":4024:4027   */\n      dup7\n        /* \"#utility.yul\":4020:4034   */\n      add\n        /* \"#utility.yul\":4006:4018   */\n      dup3\n        /* \"#utility.yul\":3966:4035   */\n      tag_149\n      jump\t// in\n    tag_241:\n        /* \"#utility.yul\":3874:4045   */\n      pop\n        /* \"#utility.yul\":4135:4139   */\n      0x40\n        /* \"#utility.yul\":4128:4133   */\n      dup4\n        /* \"#utility.yul\":4124:4140   */\n      add\n        /* \"#utility.yul\":4118:4141   */\n      mload\n        /* \"#utility.yul\":4154:4217   */\n      tag_242\n        /* \"#utility.yul\":4211:4215   */\n      0x40\n        /* \"#utility.yul\":4206:4209   */\n      dup7\n        /* \"#utility.yul\":4202:4216   */\n      add\n        /* \"#utility.yul\":4188:4200   */\n      dup3\n        /* \"#utility.yul\":4154:4217   */\n      tag_150\n      jump\t// in\n    tag_242:\n        /* \"#utility.yul\":4055:4227   */\n      pop\n        /* \"#utility.yul\":4244:4248   */\n      dup1\n        /* \"#utility.yul\":4237:4248   */\n      swap2\n      pop\n        /* \"#utility.yul\":3583:4254   */\n      pop\n        /* \"#utility.yul\":3457:4254   */\n      swap3\n      swap2\n      pop\n      pop\n      jump\t// out\n        /* \"#utility.yul\":4260:4637   */\n    tag_16:\n        /* \"#utility.yul\":4405:4409   */\n      0x00\n        /* \"#utility.yul\":4443:4445   */\n      0x20\n        /* \"#utility.yul\":4432:4441   */\n      dup3\n        /* \"#utility.yul\":4428:4446   */\n      add\n        /* \"#utility.yul\":4420:4446   */\n      swap1\n      pop\n        /* \"#utility.yul\":4492:4501   */\n      dup2\n        /* \"#utility.yul\":4486:4490   */\n      dup2\n        /* \"#utility.yul\":4482:4502   */\n      sub\n        /* \"#utility.yul\":4478:4479   */\n      0x00\n        /* \"#utility.yul\":4467:4476   */\n      dup4\n        /* \"#utility.yul\":4463:4480   */\n      add\n        /* \"#utility.yul\":4456:4503   */\n      mstore\n        /* \"#utility.yul\":4520:4630   */\n      tag_244\n        /* \"#utility.yul\":4625:4629   */\n      dup2\n        /* \"#utility.yul\":4616:4622   */\n      dup5\n        /* \"#utility.yul\":4520:4630   */\n      tag_151\n      jump\t// in\n    tag_244:\n        /* \"#utility.yul\":4512:4630   */\n      swap1\n      pop\n        /* \"#utility.yul\":4260:4637   */\n      swap3\n      swap2\n      pop\n      pop\n      jump\t// out\n        /* \"#utility.yul\":4643:4972   */\n    tag_19:\n        /* \"#utility.yul\":4702:4708   */\n      0x00\n        /* \"#utility.yul\":4751:4753   */\n      0x20\n        /* \"#utility.yul\":4739:4748   */\n      dup3\n        /* \"#utility.yul\":4730:4737   */\n      dup5\n        /* \"#utility.yul\":4726:4749   */\n      sub\n        /* \"#utility.yul\":4722:4754   */\n      slt\n        /* \"#utility.yul\":4719:4838   */\n      iszero\n      tag_246\n      jumpi\n        /* \"#utility.yul\":4757:4836   */\n      tag_247\n      tag_132\n      jump\t// in\n    tag_247:\n        /* \"#utility.yul\":4719:4838   */\n    tag_246:\n        /* \"#utility.yul\":4877:4878   */\n      0x00\n        /* \"#utility.yul\":4902:4955   */\n      tag_248\n        /* \"#utility.yul\":4947:4954   */\n      dup5\n        /* \"#utility.yul\":4938:4944   */\n      dup3\n        /* \"#utility.yul\":4927:4936   */\n      dup6\n        /* \"#utility.yul\":4923:4945   */\n      add\n        /* \"#utility.yul\":4902:4955   */\n      tag_137\n      jump\t// in\n    tag_248:\n        /* \"#utility.yul\":4892:4955   */\n      swap2\n      pop\n        /* \"#utility.yul\":4848:4965   */\n      pop\n        /* \"#utility.yul\":4643:4972   */\n      swap3\n      swap2\n      pop\n      pop\n      jump\t// out\n        /* \"#utility.yul\":4978:5118   */\n    tag_152:\n        /* \"#utility.yul\":5071:5077   */\n      0x00\n        /* \"#utility.yul\":5105:5110   */\n      dup2\n        /* \"#utility.yul\":5099:5111   */\n      mload\n        /* \"#utility.yul\":5089:5111   */\n      swap1\n      pop\n        /* \"#utility.yul\":4978:5118   */\n      swap2\n      swap1\n      pop\n      jump\t// out\n        /* \"#utility.yul\":5124:5334   */\n    tag_153:\n        /* \"#utility.yul\":5249:5260   */\n      0x00\n        /* \"#utility.yul\":5283:5289   */\n      dup3\n        /* \"#utility.yul\":5278:5281   */\n      dup3\n        /* \"#utility.yul\":5271:5290   */\n      mstore\n        /* \"#utility.yul\":5323:5327   */\n      0x20\n        /* \"#utility.yul\":5318:5321   */\n      dup3\n        /* \"#utility.yul\":5314:5328   */\n      add\n        /* \"#utility.yul\":5299:5328   */\n      swap1\n      pop\n        /* \"#utility.yul\":5124:5334   */\n      swap3\n      swap2\n      pop\n      pop\n      jump\t// out\n        /* \"#utility.yul\":5340:5498   */\n    tag_154:\n        /* \"#utility.yul\":5433:5437   */\n      0x00\n        /* \"#utility.yul\":5456:5459   */\n      dup2\n        /* \"#utility.yul\":5448:5459   */\n      swap1\n      pop\n        /* \"#utility.yul\":5486:5490   */\n      0x20\n        /* \"#utility.yul\":5481:5484   */\n      dup3\n        /* \"#utility.yul\":5477:5491   */\n      add\n        /* \"#utility.yul\":5469:5491   */\n      swap1\n      pop\n        /* \"#utility.yul\":5340:5498   */\n      swap2\n      swap1\n      pop\n      jump\t// out\n        /* \"#utility.yul\":5574:6361   */\n    tag_155:\n        /* \"#utility.yul\":5685:5688   */\n      0x00\n        /* \"#utility.yul\":5721:5725   */\n      0x60\n        /* \"#utility.yul\":5716:5719   */\n      dup4\n        /* \"#utility.yul\":5712:5726   */\n      add\n        /* \"#utility.yul\":5808:5812   */\n      0x00\n        /* \"#utility.yul\":5801:5806   */\n      dup4\n        /* \"#utility.yul\":5797:5813   */\n      add\n        /* \"#utility.yul\":5791:5814   */\n      mload\n        /* \"#utility.yul\":5861:5864   */\n      dup5\n        /* \"#utility.yul\":5855:5859   */\n      dup3\n        /* \"#utility.yul\":5851:5865   */\n      sub\n        /* \"#utility.yul\":5844:5848   */\n      0x00\n        /* \"#utility.yul\":5839:5842   */\n      dup7\n        /* \"#utility.yul\":5835:5849   */\n      add\n        /* \"#utility.yul\":5828:5866   */\n      mstore\n        /* \"#utility.yul\":5887:5960   */\n      tag_253\n        /* \"#utility.yul\":5955:5959   */\n      dup3\n        /* \"#utility.yul\":5941:5953   */\n      dup3\n        /* \"#utility.yul\":5887:5960   */\n      tag_145\n      jump\t// in\n    tag_253:\n        /* \"#utility.yul\":5879:5960   */\n      swap2\n      pop\n        /* \"#utility.yul\":5736:5971   */\n      pop\n        /* \"#utility.yul\":6054:6058   */\n      0x20\n        /* \"#utility.yul\":6047:6052   */\n      dup4\n        /* \"#utility.yul\":6043:6059   */\n      add\n        /* \"#utility.yul\":6037:6060   */\n      mload\n        /* \"#utility.yul\":6073:6142   */\n      tag_254\n        /* \"#utility.yul\":6136:6140   */\n      0x20\n        /* \"#utility.yul\":6131:6134   */\n      dup7\n        /* \"#utility.yul\":6127:6141   */\n      add\n        /* \"#utility.yul\":6113:6125   */\n      dup3\n        /* \"#utility.yul\":6073:6142   */\n      tag_149\n      jump\t// in\n    tag_254:\n        /* \"#utility.yul\":5981:6152   */\n      pop\n        /* \"#utility.yul\":6242:6246   */\n      0x40\n        /* \"#utility.yul\":6235:6240   */\n      dup4\n        /* \"#utility.yul\":6231:6247   */\n      add\n        /* \"#utility.yul\":6225:6248   */\n      mload\n        /* \"#utility.yul\":6261:6324   */\n      tag_255\n        /* \"#utility.yul\":6318:6322   */\n      0x40\n        /* \"#utility.yul\":6313:6316   */\n      dup7\n        /* \"#utility.yul\":6309:6323   */\n      add\n        /* \"#utility.yul\":6295:6307   */\n      dup3\n        /* \"#utility.yul\":6261:6324   */\n      tag_150\n      jump\t// in\n    tag_255:\n        /* \"#utility.yul\":6162:6334   */\n      pop\n        /* \"#utility.yul\":6351:6355   */\n      dup1\n        /* \"#utility.yul\":6344:6355   */\n      swap2\n      pop\n        /* \"#utility.yul\":5690:6361   */\n      pop\n        /* \"#utility.yul\":5574:6361   */\n      swap3\n      swap2\n      pop\n      pop\n      jump\t// out\n        /* \"#utility.yul\":6367:6627   */\n    tag_156:\n        /* \"#utility.yul\":6488:6498   */\n      0x00\n        /* \"#utility.yul\":6523:6621   */\n      tag_257\n        /* \"#utility.yul\":6617:6620   */\n      dup4\n        /* \"#utility.yul\":6609:6615   */\n      dup4\n        /* \"#utility.yul\":6523:6621   */\n      tag_155\n      jump\t// in\n    tag_257:\n        /* \"#utility.yul\":6509:6621   */\n      swap1\n      pop\n        /* \"#utility.yul\":6367:6627   */\n      swap3\n      swap2\n      pop\n      pop\n      jump\t// out\n        /* \"#utility.yul\":6633:6772   */\n    tag_157:\n        /* \"#utility.yul\":6729:6733   */\n      0x00\n        /* \"#utility.yul\":6761:6765   */\n      0x20\n        /* \"#utility.yul\":6756:6759   */\n      dup3\n        /* \"#utility.yul\":6752:6766   */\n      add\n        /* \"#utility.yul\":6744:6766   */\n      swap1\n      pop\n        /* \"#utility.yul\":6633:6772   */\n      swap2\n      swap1\n      pop\n      jump\t// out\n        /* \"#utility.yul\":6852:7971   */\n    tag_158:\n        /* \"#utility.yul\":7023:7026   */\n      0x00\n        /* \"#utility.yul\":7052:7132   */\n      tag_260\n        /* \"#utility.yul\":7126:7131   */\n      dup3\n        /* \"#utility.yul\":7052:7132   */\n      tag_152\n      jump\t// in\n    tag_260:\n        /* \"#utility.yul\":7148:7260   */\n      tag_261\n        /* \"#utility.yul\":7253:7259   */\n      dup2\n        /* \"#utility.yul\":7248:7251   */\n      dup6\n        /* \"#utility.yul\":7148:7260   */\n      tag_153\n      jump\t// in\n    tag_261:\n        /* \"#utility.yul\":7141:7260   */\n      swap4\n      pop\n        /* \"#utility.yul\":7286:7289   */\n      dup4\n        /* \"#utility.yul\":7331:7335   */\n      0x20\n        /* \"#utility.yul\":7323:7329   */\n      dup3\n        /* \"#utility.yul\":7319:7336   */\n      mul\n        /* \"#utility.yul\":7314:7317   */\n      dup6\n        /* \"#utility.yul\":7310:7337   */\n      add\n        /* \"#utility.yul\":7361:7443   */\n      tag_262\n        /* \"#utility.yul\":7437:7442   */\n      dup6\n        /* \"#utility.yul\":7361:7443   */\n      tag_154\n      jump\t// in\n    tag_262:\n        /* \"#utility.yul\":7466:7473   */\n      dup1\n        /* \"#utility.yul\":7497:7498   */\n      0x00\n        /* \"#utility.yul\":7482:7926   */\n    tag_263:\n        /* \"#utility.yul\":7507:7513   */\n      dup6\n        /* \"#utility.yul\":7504:7505   */\n      dup2\n        /* \"#utility.yul\":7501:7514   */\n      lt\n        /* \"#utility.yul\":7482:7926   */\n      iszero\n      tag_265\n      jumpi\n        /* \"#utility.yul\":7578:7587   */\n      dup5\n        /* \"#utility.yul\":7572:7576   */\n      dup5\n        /* \"#utility.yul\":7568:7588   */\n      sub\n        /* \"#utility.yul\":7563:7566   */\n      dup10\n        /* \"#utility.yul\":7556:7589   */\n      mstore\n        /* \"#utility.yul\":7629:7635   */\n      dup2\n        /* \"#utility.yul\":7623:7636   */\n      mload\n        /* \"#utility.yul\":7657:7773   */\n      tag_266\n        /* \"#utility.yul\":7768:7772   */\n      dup6\n        /* \"#utility.yul\":7753:7766   */\n      dup3\n        /* \"#utility.yul\":7657:7773   */\n      tag_156\n      jump\t// in\n    tag_266:\n        /* \"#utility.yul\":7649:7773   */\n      swap5\n      pop\n        /* \"#utility.yul\":7796:7882   */\n      tag_267\n        /* \"#utility.yul\":7875:7881   */\n      dup4\n        /* \"#utility.yul\":7796:7882   */\n      tag_157\n      jump\t// in\n    tag_267:\n        /* \"#utility.yul\":7786:7882   */\n      swap3\n      pop\n        /* \"#utility.yul\":7911:7915   */\n      0x20\n        /* \"#utility.yul\":7906:7909   */\n      dup11\n        /* \"#utility.yul\":7902:7916   */\n      add\n        /* \"#utility.yul\":7895:7916   */\n      swap10\n      pop\n        /* \"#utility.yul\":7542:7926   */\n      pop\n        /* \"#utility.yul\":7529:7530   */\n      0x01\n        /* \"#utility.yul\":7526:7527   */\n      dup2\n        /* \"#utility.yul\":7522:7531   */\n      add\n        /* \"#utility.yul\":7517:7531   */\n      swap1\n      pop\n        /* \"#utility.yul\":7482:7926   */\n      jump(tag_263)\n    tag_265:\n        /* \"#utility.yul\":7486:7500   */\n      pop\n        /* \"#utility.yul\":7942:7946   */\n      dup3\n        /* \"#utility.yul\":7935:7946   */\n      swap8\n      pop\n        /* \"#utility.yul\":7962:7965   */\n      dup8\n        /* \"#utility.yul\":7955:7965   */\n      swap6\n      pop\n        /* \"#utility.yul\":7028:7971   */\n      pop\n      pop\n      pop\n      pop\n      pop\n        /* \"#utility.yul\":6852:7971   */\n      swap3\n      swap2\n      pop\n      pop\n      jump\t// out\n        /* \"#utility.yul\":7977:8454   */\n    tag_22:\n        /* \"#utility.yul\":8172:8176   */\n      0x00\n        /* \"#utility.yul\":8210:8212   */\n      0x20\n        /* \"#utility.yul\":8199:8208   */\n      dup3\n        /* \"#utility.yul\":8195:8213   */\n      add\n        /* \"#utility.yul\":8187:8213   */\n      swap1\n      pop\n        /* \"#utility.yul\":8259:8268   */\n      dup2\n        /* \"#utility.yul\":8253:8257   */\n      dup2\n        /* \"#utility.yul\":8249:8269   */\n      sub\n        /* \"#utility.yul\":8245:8246   */\n      0x00\n        /* \"#utility.yul\":8234:8243   */\n      dup4\n        /* \"#utility.yul\":8230:8247   */\n      add\n        /* \"#utility.yul\":8223:8270   */\n      mstore\n        /* \"#utility.yul\":8287:8447   */\n      tag_269\n        /* \"#utility.yul\":8442:8446   */\n      dup2\n        /* \"#utility.yul\":8433:8439   */\n      dup5\n        /* \"#utility.yul\":8287:8447   */\n      tag_158\n      jump\t// in\n    tag_269:\n        /* \"#utility.yul\":8279:8447   */\n      swap1\n      pop\n        /* \"#utility.yul\":7977:8454   */\n      swap3\n      swap2\n      pop\n      pop\n      jump\t// out\n        /* \"#utility.yul\":8460:8567   */\n    tag_159:\n        /* \"#utility.yul\":8541:8542   */\n      0x03\n        /* \"#utility.yul\":8534:8539   */\n      dup2\n        /* \"#utility.yul\":8531:8543   */\n      lt\n        /* \"#utility.yul\":8521:8561   */\n      tag_271\n      jumpi\n        /* \"#utility.yul\":8557:8558   */\n      0x00\n        /* \"#utility.yul\":8554:8555   */\n      0x00\n        /* \"#utility.yul\":8547:8559   */\n      revert\n        /* \"#utility.yul\":8521:8561   */\n    tag_271:\n        /* \"#utility.yul\":8460:8567   */\n      pop\n      jump\t// out\n        /* \"#utility.yul\":8573:8728   */\n    tag_160:\n        /* \"#utility.yul\":8627:8632   */\n      0x00\n        /* \"#utility.yul\":8665:8671   */\n      dup2\n        /* \"#utility.yul\":8652:8672   */\n      calldataload\n        /* \"#utility.yul\":8643:8672   */\n      swap1\n      pop\n        /* \"#utility.yul\":8681:8722   */\n      tag_273\n        /* \"#utility.yul\":8716:8721   */\n      dup2\n        /* \"#utility.yul\":8681:8722   */\n      tag_159\n      jump\t// in\n    tag_273:\n        /* \"#utility.yul\":8573:8728   */\n      swap3\n      swap2\n      pop\n      pop\n      jump\t// out\n        /* \"#utility.yul\":8734:9224   */\n    tag_25:\n        /* \"#utility.yul\":8810:8816   */\n      0x00\n        /* \"#utility.yul\":8818:8824   */\n      0x00\n        /* \"#utility.yul\":8867:8869   */\n      0x40\n        /* \"#utility.yul\":8855:8864   */\n      dup4\n        /* \"#utility.yul\":8846:8853   */\n      dup6\n        /* \"#utility.yul\":8842:8865   */\n      sub\n        /* \"#utility.yul\":8838:8870   */\n      slt\n        /* \"#utility.yul\":8835:8954   */\n      iszero\n      tag_275\n      jumpi\n        /* \"#utility.yul\":8873:8952   */\n      tag_276\n      tag_132\n      jump\t// in\n    tag_276:\n        /* \"#utility.yul\":8835:8954   */\n    tag_275:\n        /* \"#utility.yul\":8993:8994   */\n      0x00\n        /* \"#utility.yul\":9018:9071   */\n      tag_277\n        /* \"#utility.yul\":9063:9070   */\n      dup6\n        /* \"#utility.yul\":9054:9060   */\n      dup3\n        /* \"#utility.yul\":9043:9052   */\n      dup7\n        /* \"#utility.yul\":9039:9061   */\n      add\n        /* \"#utility.yul\":9018:9071   */\n      tag_140\n      jump\t// in\n    tag_277:\n        /* \"#utility.yul\":9008:9071   */\n      swap3\n      pop\n        /* \"#utility.yul\":8964:9081   */\n      pop\n        /* \"#utility.yul\":9120:9122   */\n      0x20\n        /* \"#utility.yul\":9146:9207   */\n      tag_278\n        /* \"#utility.yul\":9199:9206   */\n      dup6\n        /* \"#utility.yul\":9190:9196   */\n      dup3\n        /* \"#utility.yul\":9179:9188   */\n      dup7\n        /* \"#utility.yul\":9175:9197   */\n      add\n        /* \"#utility.yul\":9146:9207   */\n      tag_160\n      jump\t// in\n    tag_278:\n        /* \"#utility.yul\":9136:9207   */\n      swap2\n      pop\n        /* \"#utility.yul\":9091:9217   */\n      pop\n        /* \"#utility.yul\":8734:9224   */\n      swap3\n      pop\n      swap3\n      swap1\n      pop\n      jump\t// out\n        /* \"#utility.yul\":9230:9559   */\n    tag_29:\n        /* \"#utility.yul\":9289:9295   */\n      0x00\n        /* \"#utility.yul\":9338:9340   */\n      0x20\n        /* \"#utility.yul\":9326:9335   */\n      dup3\n        /* \"#utility.yul\":9317:9324   */\n      dup5\n        /* \"#utility.yul\":9313:9336   */\n      sub\n        /* \"#utility.yul\":9309:9341   */\n      slt\n        /* \"#utility.yul\":9306:9425   */\n      iszero\n      tag_280\n      jumpi\n        /* \"#utility.yul\":9344:9423   */\n      tag_281\n      tag_132\n      jump\t// in\n    tag_281:\n        /* \"#utility.yul\":9306:9425   */\n    tag_280:\n        /* \"#utility.yul\":9464:9465   */\n      0x00\n        /* \"#utility.yul\":9489:9542   */\n      tag_282\n        /* \"#utility.yul\":9534:9541   */\n      dup5\n        /* \"#utility.yul\":9525:9531   */\n      dup3\n        /* \"#utility.yul\":9514:9523   */\n      dup6\n        /* \"#utility.yul\":9510:9532   */\n      add\n        /* \"#utility.yul\":9489:9542   */\n      tag_140\n      jump\t// in\n    tag_282:\n        /* \"#utility.yul\":9479:9542   */\n      swap2\n      pop\n        /* \"#utility.yul\":9435:9552   */\n      pop\n        /* \"#utility.yul\":9230:9559   */\n      swap3\n      swap2\n      pop\n      pop\n      jump\t// out\n        /* \"#utility.yul\":9565:9734   */\n    tag_161:\n        /* \"#utility.yul\":9649:9660   */\n      0x00\n        /* \"#utility.yul\":9683:9689   */\n      dup3\n        /* \"#utility.yul\":9678:9681   */\n      dup3\n        /* \"#utility.yul\":9671:9690   */\n      mstore\n        /* \"#utility.yul\":9723:9727   */\n      0x20\n        /* \"#utility.yul\":9718:9721   */\n      dup3\n        /* \"#utility.yul\":9714:9728   */\n      add\n        /* \"#utility.yul\":9699:9728   */\n      swap1\n      pop\n        /* \"#utility.yul\":9565:9734   */\n      swap3\n      swap2\n      pop\n      pop\n      jump\t// out\n        /* \"#utility.yul\":9740:10117   */\n    tag_162:\n        /* \"#utility.yul\":9828:9831   */\n      0x00\n        /* \"#utility.yul\":9856:9895   */\n      tag_285\n        /* \"#utility.yul\":9889:9894   */\n      dup3\n        /* \"#utility.yul\":9856:9895   */\n      tag_141\n      jump\t// in\n    tag_285:\n        /* \"#utility.yul\":9911:9982   */\n      tag_286\n        /* \"#utility.yul\":9975:9981   */\n      dup2\n        /* \"#utility.yul\":9970:9973   */\n      dup6\n        /* \"#utility.yul\":9911:9982   */\n      tag_161\n      jump\t// in\n    tag_286:\n        /* \"#utility.yul\":9904:9982   */\n      swap4\n      pop\n        /* \"#utility.yul\":9991:10056   */\n      tag_287\n        /* \"#utility.yul\":10049:10055   */\n      dup2\n        /* \"#utility.yul\":10044:10047   */\n      dup6\n        /* \"#utility.yul\":10037:10041   */\n      0x20\n        /* \"#utility.yul\":10030:10035   */\n      dup7\n        /* \"#utility.yul\":10026:10042   */\n      add\n        /* \"#utility.yul\":9991:10056   */\n      tag_143\n      jump\t// in\n    tag_287:\n        /* \"#utility.yul\":10081:10110   */\n      tag_288\n        /* \"#utility.yul\":10103:10109   */\n      dup2\n        /* \"#utility.yul\":10081:10110   */\n      tag_144\n      jump\t// in\n    tag_288:\n        /* \"#utility.yul\":10076:10079   */\n      dup5\n        /* \"#utility.yul\":10072:10111   */\n      add\n        /* \"#utility.yul\":10065:10111   */\n      swap2\n      pop\n        /* \"#utility.yul\":9832:10117   */\n      pop\n        /* \"#utility.yul\":9740:10117   */\n      swap3\n      swap2\n      pop\n      pop\n      jump\t// out\n        /* \"#utility.yul\":10123:10266   */\n    tag_163:\n        /* \"#utility.yul\":10216:10259   */\n      tag_290\n        /* \"#utility.yul\":10253:10258   */\n      dup2\n        /* \"#utility.yul\":10216:10259   */\n      tag_148\n      jump\t// in\n    tag_290:\n        /* \"#utility.yul\":10211:10214   */\n      dup3\n        /* \"#utility.yul\":10204:10260   */\n      mstore\n        /* \"#utility.yul\":10123:10266   */\n      pop\n      pop\n      jump\t// out\n        /* \"#utility.yul\":10272:10390   */\n    tag_164:\n        /* \"#utility.yul\":10359:10383   */\n      tag_292\n        /* \"#utility.yul\":10377:10382   */\n      dup2\n        /* \"#utility.yul\":10359:10383   */\n      tag_138\n      jump\t// in\n    tag_292:\n        /* \"#utility.yul\":10354:10357   */\n      dup3\n        /* \"#utility.yul\":10347:10384   */\n      mstore\n        /* \"#utility.yul\":10272:10390   */\n      pop\n      pop\n      jump\t// out\n        /* \"#utility.yul\":10396:10941   */\n    tag_36:\n        /* \"#utility.yul\":10571:10575   */\n      0x00\n        /* \"#utility.yul\":10609:10611   */\n      0x60\n        /* \"#utility.yul\":10598:10607   */\n      dup3\n        /* \"#utility.yul\":10594:10612   */\n      add\n        /* \"#utility.yul\":10586:10612   */\n      swap1\n      pop\n        /* \"#utility.yul\":10658:10667   */\n      dup2\n        /* \"#utility.yul\":10652:10656   */\n      dup2\n        /* \"#utility.yul\":10648:10668   */\n      sub\n        /* \"#utility.yul\":10644:10645   */\n      0x00\n        /* \"#utility.yul\":10633:10642   */\n      dup4\n        /* \"#utility.yul\":10629:10646   */\n      add\n        /* \"#utility.yul\":10622:10669   */\n      mstore\n        /* \"#utility.yul\":10686:10764   */\n      tag_294\n        /* \"#utility.yul\":10759:10763   */\n      dup2\n        /* \"#utility.yul\":10750:10756   */\n      dup7\n        /* \"#utility.yul\":10686:10764   */\n      tag_162\n      jump\t// in\n    tag_294:\n        /* \"#utility.yul\":10678:10764   */\n      swap1\n      pop\n        /* \"#utility.yul\":10774:10852   */\n      tag_295\n        /* \"#utility.yul\":10848:10850   */\n      0x20\n        /* \"#utility.yul\":10837:10846   */\n      dup4\n        /* \"#utility.yul\":10833:10851   */\n      add\n        /* \"#utility.yul\":10824:10830   */\n      dup6\n        /* \"#utility.yul\":10774:10852   */\n      tag_163\n      jump\t// in\n    tag_295:\n        /* \"#utility.yul\":10862:10934   */\n      tag_296\n        /* \"#utility.yul\":10930:10932   */\n      0x40\n        /* \"#utility.yul\":10919:10928   */\n      dup4\n        /* \"#utility.yul\":10915:10933   */\n      add\n        /* \"#utility.yul\":10906:10912   */\n      dup5\n        /* \"#utility.yul\":10862:10934   */\n      tag_164\n      jump\t// in\n    tag_296:\n        /* \"#utility.yul\":10396:10941   */\n      swap5\n      swap4\n      pop\n      pop\n      pop\n      pop\n      jump\t// out\n        /* \"#utility.yul\":10947:11064   */\n    tag_165:\n        /* \"#utility.yul\":11056:11057   */\n      0x00\n        /* \"#utility.yul\":11053:11054   */\n      0x00\n        /* \"#utility.yul\":11046:11058   */\n      revert\n        /* \"#utility.yul\":11070:11187   */\n    tag_166:\n        /* \"#utility.yul\":11179:11180   */\n      0x00\n        /* \"#utility.yul\":11176:11177   */\n      0x00\n        /* \"#utility.yul\":11169:11181   */\n      revert\n        /* \"#utility.yul\":11193:11373   */\n    tag_167:\n        /* \"#utility.yul\":11241:11318   */\n      0x4e487b7100000000000000000000000000000000000000000000000000000000\n        /* \"#utility.yul\":11238:11239   */\n      0x00\n        /* \"#utility.yul\":11231:11319   */\n      mstore\n        /* \"#utility.yul\":11338:11342   */\n      0x41\n        /* \"#utility.yul\":11335:11336   */\n      0x04\n        /* \"#utility.yul\":11328:11343   */\n      mstore\n        /* \"#utility.yul\":11362:11366   */\n      0x24\n        /* \"#utility.yul\":11359:11360   */\n      0x00\n        /* \"#utility.yul\":11352:11367   */\n      revert\n        /* \"#utility.yul\":11379:11660   */\n    tag_168:\n        /* \"#utility.yul\":11462:11489   */\n      tag_301\n        /* \"#utility.yul\":11484:11488   */\n      dup3\n        /* \"#utility.yul\":11462:11489   */\n      tag_144\n      jump\t// in\n    tag_301:\n        /* \"#utility.yul\":11454:11460   */\n      dup2\n        /* \"#utility.yul\":11450:11490   */\n      add\n        /* \"#utility.yul\":11592:11598   */\n      dup2\n        /* \"#utility.yul\":11580:11590   */\n      dup2\n        /* \"#utility.yul\":11577:11599   */\n      lt\n        /* \"#utility.yul\":11556:11574   */\n      0xffffffffffffffff\n        /* \"#utility.yul\":11544:11554   */\n      dup3\n        /* \"#utility.yul\":11541:11575   */\n      gt\n        /* \"#utility.yul\":11538:11600   */\n      or\n        /* \"#utility.yul\":11535:11623   */\n      iszero\n      tag_302\n      jumpi\n        /* \"#utility.yul\":11603:11621   */\n      tag_303\n      tag_167\n      jump\t// in\n    tag_303:\n        /* \"#utility.yul\":11535:11623   */\n    tag_302:\n        /* \"#utility.yul\":11643:11653   */\n      dup1\n        /* \"#utility.yul\":11639:11641   */\n      0x40\n        /* \"#utility.yul\":11632:11654   */\n      mstore\n        /* \"#utility.yul\":11422:11660   */\n      pop\n        /* \"#utility.yul\":11379:11660   */\n      pop\n      pop\n      jump\t// out\n        /* \"#utility.yul\":11666:11795   */\n    tag_169:\n        /* \"#utility.yul\":11700:11706   */\n      0x00\n        /* \"#utility.yul\":11727:11747   */\n      tag_305\n      tag_131\n      jump\t// in\n    tag_305:\n        /* \"#utility.yul\":11717:11747   */\n      swap1\n      pop\n        /* \"#utility.yul\":11756:11789   */\n      tag_306\n        /* \"#utility.yul\":11784:11788   */\n      dup3\n        /* \"#utility.yul\":11776:11782   */\n      dup3\n        /* \"#utility.yul\":11756:11789   */\n      tag_168\n      jump\t// in\n    tag_306:\n        /* \"#utility.yul\":11666:11795   */\n      swap2\n      swap1\n      pop\n      jump\t// out\n        /* \"#utility.yul\":11801:12109   */\n    tag_170:\n        /* \"#utility.yul\":11863:11867   */\n      0x00\n        /* \"#utility.yul\":11953:11971   */\n      0xffffffffffffffff\n        /* \"#utility.yul\":11945:11951   */\n      dup3\n        /* \"#utility.yul\":11942:11972   */\n      gt\n        /* \"#utility.yul\":11939:11995   */\n      iszero\n      tag_308\n      jumpi\n        /* \"#utility.yul\":11975:11993   */\n      tag_309\n      tag_167\n      jump\t// in\n    tag_309:\n        /* \"#utility.yul\":11939:11995   */\n    tag_308:\n        /* \"#utility.yul\":12013:12042   */\n      tag_310\n        /* \"#utility.yul\":12035:12041   */\n      dup3\n        /* \"#utility.yul\":12013:12042   */\n      tag_144\n      jump\t// in\n    tag_310:\n        /* \"#utility.yul\":12005:12042   */\n      swap1\n      pop\n        /* \"#utility.yul\":12097:12101   */\n      0x20\n        /* \"#utility.yul\":12091:12095   */\n      dup2\n        /* \"#utility.yul\":12087:12102   */\n      add\n        /* \"#utility.yul\":12079:12102   */\n      swap1\n      pop\n        /* \"#utility.yul\":11801:12109   */\n      swap2\n      swap1\n      pop\n      jump\t// out\n        /* \"#utility.yul\":12115:12263   */\n    tag_171:\n        /* \"#utility.yul\":12213:12219   */\n      dup3\n        /* \"#utility.yul\":12208:12211   */\n      dup2\n        /* \"#utility.yul\":12203:12206   */\n      dup4\n        /* \"#utility.yul\":12190:12220   */\n      calldatacopy\n        /* \"#utility.yul\":12254:12255   */\n      0x00\n        /* \"#utility.yul\":12245:12251   */\n      dup4\n        /* \"#utility.yul\":12240:12243   */\n      dup4\n        /* \"#utility.yul\":12236:12252   */\n      add\n        /* \"#utility.yul\":12229:12256   */\n      mstore\n        /* \"#utility.yul\":12115:12263   */\n      pop\n      pop\n      pop\n      jump\t// out\n        /* \"#utility.yul\":12269:12694   */\n    tag_172:\n        /* \"#utility.yul\":12347:12352   */\n      0x00\n        /* \"#utility.yul\":12372:12438   */\n      tag_313\n        /* \"#utility.yul\":12388:12437   */\n      tag_314\n        /* \"#utility.yul\":12430:12436   */\n      dup5\n        /* \"#utility.yul\":12388:12437   */\n      tag_170\n      jump\t// in\n    tag_314:\n        /* \"#utility.yul\":12372:12438   */\n      tag_169\n      jump\t// in\n    tag_313:\n        /* \"#utility.yul\":12363:12438   */\n      swap1\n      pop\n        /* \"#utility.yul\":12461:12467   */\n      dup3\n        /* \"#utility.yul\":12454:12459   */\n      dup2\n        /* \"#utility.yul\":12447:12468   */\n      mstore\n        /* \"#utility.yul\":12499:12503   */\n      0x20\n        /* \"#utility.yul\":12492:12497   */\n      dup2\n        /* \"#utility.yul\":12488:12504   */\n      add\n        /* \"#utility.yul\":12537:12540   */\n      dup5\n        /* \"#utility.yul\":12528:12534   */\n      dup5\n        /* \"#utility.yul\":12523:12526   */\n      dup5\n        /* \"#utility.yul\":12519:12535   */\n      add\n        /* \"#utility.yul\":12516:12541   */\n      gt\n        /* \"#utility.yul\":12513:12625   */\n      iszero\n      tag_315\n      jumpi\n        /* \"#utility.yul\":12544:12623   */\n      tag_316\n      tag_166\n      jump\t// in\n    tag_316:\n        /* \"#utility.yul\":12513:12625   */\n    tag_315:\n        /* \"#utility.yul\":12634:12688   */\n      tag_317\n        /* \"#utility.yul\":12681:12687   */\n      dup5\n        /* \"#utility.yul\":12676:12679   */\n      dup3\n        /* \"#utility.yul\":12671:12674   */\n      dup6\n        /* \"#utility.yul\":12634:12688   */\n      tag_171\n      jump\t// in\n    tag_317:\n        /* \"#utility.yul\":12353:12694   */\n      pop\n        /* \"#utility.yul\":12269:12694   */\n      swap4\n      swap3\n      pop\n      pop\n      pop\n      jump\t// out\n        /* \"#utility.yul\":12714:13054   */\n    tag_173:\n        /* \"#utility.yul\":12770:12775   */\n      0x00\n        /* \"#utility.yul\":12819:12822   */\n      dup3\n        /* \"#utility.yul\":12812:12816   */\n      0x1f\n        /* \"#utility.yul\":12804:12810   */\n      dup4\n        /* \"#utility.yul\":12800:12817   */\n      add\n        /* \"#utility.yul\":12796:12823   */\n      slt\n        /* \"#utility.yul\":12786:12908   */\n      tag_319\n      jumpi\n        /* \"#utility.yul\":12827:12906   */\n      tag_320\n      tag_165\n      jump\t// in\n    tag_320:\n        /* \"#utility.yul\":12786:12908   */\n    tag_319:\n        /* \"#utility.yul\":12944:12950   */\n      dup2\n        /* \"#utility.yul\":12931:12951   */\n      calldataload\n        /* \"#utility.yul\":12969:13048   */\n      tag_321\n        /* \"#utility.yul\":13044:13047   */\n      dup5\n        /* \"#utility.yul\":13036:13042   */\n      dup3\n        /* \"#utility.yul\":13029:13033   */\n      0x20\n        /* \"#utility.yul\":13021:13027   */\n      dup7\n        /* \"#utility.yul\":13017:13034   */\n      add\n        /* \"#utility.yul\":12969:13048   */\n      tag_172\n      jump\t// in\n    tag_321:\n        /* \"#utility.yul\":12960:13048   */\n      swap2\n      pop\n        /* \"#utility.yul\":12776:13054   */\n      pop\n        /* \"#utility.yul\":12714:13054   */\n      swap3\n      swap2\n      pop\n      pop\n      jump\t// out\n        /* \"#utility.yul\":13060:13714   */\n    tag_39:\n        /* \"#utility.yul\":13138:13144   */\n      0x00\n        /* \"#utility.yul\":13146:13152   */\n      0x00\n        /* \"#utility.yul\":13195:13197   */\n      0x40\n        /* \"#utility.yul\":13183:13192   */\n      dup4\n        /* \"#utility.yul\":13174:13181   */\n      dup6\n        /* \"#utility.yul\":13170:13193   */\n      sub\n        /* \"#utility.yul\":13166:13198   */\n      slt\n        /* \"#utility.yul\":13163:13282   */\n      iszero\n      tag_323\n      jumpi\n        /* \"#utility.yul\":13201:13280   */\n      tag_324\n      tag_132\n      jump\t// in\n    tag_324:\n        /* \"#utility.yul\":13163:13282   */\n    tag_323:\n        /* \"#utility.yul\":13321:13322   */\n      0x00\n        /* \"#utility.yul\":13346:13399   */\n      tag_325\n        /* \"#utility.yul\":13391:13398   */\n      dup6\n        /* \"#utility.yul\":13382:13388   */\n      dup3\n        /* \"#utility.yul\":13371:13380   */\n      dup7\n        /* \"#utility.yul\":13367:13389   */\n      add\n        /* \"#utility.yul\":13346:13399   */\n      tag_140\n      jump\t// in\n    tag_325:\n        /* \"#utility.yul\":13336:13399   */\n      swap3\n      pop\n        /* \"#utility.yul\":13292:13409   */\n      pop\n        /* \"#utility.yul\":13476:13478   */\n      0x20\n        /* \"#utility.yul\":13465:13474   */\n      dup4\n        /* \"#utility.yul\":13461:13479   */\n      add\n        /* \"#utility.yul\":13448:13480   */\n      calldataload\n        /* \"#utility.yul\":13507:13525   */\n      0xffffffffffffffff\n        /* \"#utility.yul\":13499:13505   */\n      dup2\n        /* \"#utility.yul\":13496:13526   */\n      gt\n        /* \"#utility.yul\":13493:13610   */\n      iszero\n      tag_326\n      jumpi\n        /* \"#utility.yul\":13529:13608   */\n      tag_327\n      tag_133\n      jump\t// in\n    tag_327:\n        /* \"#utility.yul\":13493:13610   */\n    tag_326:\n        /* \"#utility.yul\":13634:13697   */\n      tag_328\n        /* \"#utility.yul\":13689:13696   */\n      dup6\n        /* \"#utility.yul\":13680:13686   */\n      dup3\n        /* \"#utility.yul\":13669:13678   */\n      dup7\n        /* \"#utility.yul\":13665:13687   */\n      add\n        /* \"#utility.yul\":13634:13697   */\n      tag_173\n      jump\t// in\n    tag_328:\n        /* \"#utility.yul\":13624:13697   */\n      swap2\n      pop\n        /* \"#utility.yul\":13419:13707   */\n      pop\n        /* \"#utility.yul\":13060:13714   */\n      swap3\n      pop\n      swap3\n      swap1\n      pop\n      jump\t// out\n        /* \"#utility.yul\":13720:14390   */\n    tag_43:\n        /* \"#utility.yul\":13806:13812   */\n      0x00\n        /* \"#utility.yul\":13814:13820   */\n      0x00\n        /* \"#utility.yul\":13863:13865   */\n      0x40\n        /* \"#utility.yul\":13851:13860   */\n      dup4\n        /* \"#utility.yul\":13842:13849   */\n      dup6\n        /* \"#utility.yul\":13838:13861   */\n      sub\n        /* \"#utility.yul\":13834:13866   */\n      slt\n        /* \"#utility.yul\":13831:13950   */\n      iszero\n      tag_330\n      jumpi\n        /* \"#utility.yul\":13869:13948   */\n      tag_331\n      tag_132\n      jump\t// in\n    tag_331:\n        /* \"#utility.yul\":13831:13950   */\n    tag_330:\n        /* \"#utility.yul\":13989:13990   */\n      0x00\n        /* \"#utility.yul\":14014:14075   */\n      tag_332\n        /* \"#utility.yul\":14067:14074   */\n      dup6\n        /* \"#utility.yul\":14058:14064   */\n      dup3\n        /* \"#utility.yul\":14047:14056   */\n      dup7\n        /* \"#utility.yul\":14043:14065   */\n      add\n        /* \"#utility.yul\":14014:14075   */\n      tag_160\n      jump\t// in\n    tag_332:\n        /* \"#utility.yul\":14004:14075   */\n      swap3\n      pop\n        /* \"#utility.yul\":13960:14085   */\n      pop\n        /* \"#utility.yul\":14152:14154   */\n      0x20\n        /* \"#utility.yul\":14141:14150   */\n      dup4\n        /* \"#utility.yul\":14137:14155   */\n      add\n        /* \"#utility.yul\":14124:14156   */\n      calldataload\n        /* \"#utility.yul\":14183:14201   */\n      0xffffffffffffffff\n        /* \"#utility.yul\":14175:14181   */\n      dup2\n        /* \"#utility.yul\":14172:14202   */\n      gt\n        /* \"#utility.yul\":14169:14286   */\n      iszero\n      tag_333\n      jumpi\n        /* \"#utility.yul\":14205:14284   */\n      tag_334\n      tag_133\n      jump\t// in\n    tag_334:\n        /* \"#utility.yul\":14169:14286   */\n    tag_333:\n        /* \"#utility.yul\":14310:14373   */\n      tag_335\n        /* \"#utility.yul\":14365:14372   */\n      dup6\n        /* \"#utility.yul\":14356:14362   */\n      dup3\n        /* \"#utility.yul\":14345:14354   */\n      dup7\n        /* \"#utility.yul\":14341:14363   */\n      add\n        /* \"#utility.yul\":14310:14373   */\n      tag_173\n      jump\t// in\n    tag_335:\n        /* \"#utility.yul\":14300:14373   */\n      swap2\n      pop\n        /* \"#utility.yul\":14095:14383   */\n      pop\n        /* \"#utility.yul\":13720:14390   */\n      swap3\n      pop\n      swap3\n      swap1\n      pop\n      jump\t// out\n        /* \"#utility.yul\":14396:14618   */\n    tag_46:\n        /* \"#utility.yul\":14489:14493   */\n      0x00\n        /* \"#utility.yul\":14527:14529   */\n      0x20\n        /* \"#utility.yul\":14516:14525   */\n      dup3\n        /* \"#utility.yul\":14512:14530   */\n      add\n        /* \"#utility.yul\":14504:14530   */\n      swap1\n      pop\n        /* \"#utility.yul\":14540:14611   */\n      tag_337\n        /* \"#utility.yul\":14608:14609   */\n      0x00\n        /* \"#utility.yul\":14597:14606   */\n      dup4\n        /* \"#utility.yul\":14593:14610   */\n      add\n        /* \"#utility.yul\":14584:14590   */\n      dup5\n        /* \"#utility.yul\":14540:14611   */\n      tag_164\n      jump\t// in\n    tag_337:\n        /* \"#utility.yul\":14396:14618   */\n      swap3\n      swap2\n      pop\n      pop\n      jump\t// out\n        /* \"#utility.yul\":14624:14787   */\n    tag_174:\n        /* \"#utility.yul\":14764:14779   */\n      0x496e76616c696420696e64657800000000000000000000000000000000000000\n        /* \"#utility.yul\":14760:14761   */\n      0x00\n        /* \"#utility.yul\":14752:14758   */\n      dup3\n        /* \"#utility.yul\":14748:14762   */\n      add\n        /* \"#utility.yul\":14741:14780   */\n      mstore\n        /* \"#utility.yul\":14624:14787   */\n      pop\n      jump\t// out\n        /* \"#utility.yul\":14793:15159   */\n    tag_175:\n        /* \"#utility.yul\":14935:14938   */\n      0x00\n        /* \"#utility.yul\":14956:15023   */\n      tag_340\n        /* \"#utility.yul\":15020:15022   */\n      0x0d\n        /* \"#utility.yul\":15015:15018   */\n      dup4\n        /* \"#utility.yul\":14956:15023   */\n      tag_161\n      jump\t// in\n    tag_340:\n        /* \"#utility.yul\":14949:15023   */\n      swap2\n      pop\n        /* \"#utility.yul\":15032:15125   */\n      tag_341\n        /* \"#utility.yul\":15121:15124   */\n      dup3\n        /* \"#utility.yul\":15032:15125   */\n      tag_174\n      jump\t// in\n    tag_341:\n        /* \"#utility.yul\":15150:15152   */\n      0x20\n        /* \"#utility.yul\":15145:15148   */\n      dup3\n        /* \"#utility.yul\":15141:15153   */\n      add\n        /* \"#utility.yul\":15134:15153   */\n      swap1\n      pop\n        /* \"#utility.yul\":14793:15159   */\n      swap2\n      swap1\n      pop\n      jump\t// out\n        /* \"#utility.yul\":15165:15584   */\n    tag_52:\n        /* \"#utility.yul\":15331:15335   */\n      0x00\n        /* \"#utility.yul\":15369:15371   */\n      0x20\n        /* \"#utility.yul\":15358:15367   */\n      dup3\n        /* \"#utility.yul\":15354:15372   */\n      add\n        /* \"#utility.yul\":15346:15372   */\n      swap1\n      pop\n        /* \"#utility.yul\":15418:15427   */\n      dup2\n        /* \"#utility.yul\":15412:15416   */\n      dup2\n        /* \"#utility.yul\":15408:15428   */\n      sub\n        /* \"#utility.yul\":15404:15405   */\n      0x00\n        /* \"#utility.yul\":15393:15402   */\n      dup4\n        /* \"#utility.yul\":15389:15406   */\n      add\n        /* \"#utility.yul\":15382:15429   */\n      mstore\n        /* \"#utility.yul\":15446:15577   */\n      tag_343\n        /* \"#utility.yul\":15572:15576   */\n      dup2\n        /* \"#utility.yul\":15446:15577   */\n      tag_175\n      jump\t// in\n    tag_343:\n        /* \"#utility.yul\":15438:15577   */\n      swap1\n      pop\n        /* \"#utility.yul\":15165:15584   */\n      swap2\n      swap1\n      pop\n      jump\t// out\n        /* \"#utility.yul\":15590:15770   */\n    tag_55:\n        /* \"#utility.yul\":15638:15715   */\n      0x4e487b7100000000000000000000000000000000000000000000000000000000\n        /* \"#utility.yul\":15635:15636   */\n      0x00\n        /* \"#utility.yul\":15628:15716   */\n      mstore\n        /* \"#utility.yul\":15735:15739   */\n      0x32\n        /* \"#utility.yul\":15732:15733   */\n      0x04\n        /* \"#utility.yul\":15725:15740   */\n      mstore\n        /* \"#utility.yul\":15759:15763   */\n      0x24\n        /* \"#utility.yul\":15756:15757   */\n      0x00\n        /* \"#utility.yul\":15749:15764   */\n      revert\n        /* \"#utility.yul\":15776:15956   */\n    tag_176:\n        /* \"#utility.yul\":15824:15901   */\n      0x4e487b7100000000000000000000000000000000000000000000000000000000\n        /* \"#utility.yul\":15821:15822   */\n      0x00\n        /* \"#utility.yul\":15814:15902   */\n      mstore\n        /* \"#utility.yul\":15921:15925   */\n      0x22\n        /* \"#utility.yul\":15918:15919   */\n      0x04\n        /* \"#utility.yul\":15911:15926   */\n      mstore\n        /* \"#utility.yul\":15945:15949   */\n      0x24\n        /* \"#utility.yul\":15942:15943   */\n      0x00\n        /* \"#utility.yul\":15935:15950   */\n      revert\n        /* \"#utility.yul\":15962:16282   */\n    tag_58:\n        /* \"#utility.yul\":16006:16012   */\n      0x00\n        /* \"#utility.yul\":16043:16044   */\n      0x02\n        /* \"#utility.yul\":16037:16041   */\n      dup3\n        /* \"#utility.yul\":16033:16045   */\n      div\n        /* \"#utility.yul\":16023:16045   */\n      swap1\n      pop\n        /* \"#utility.yul\":16090:16091   */\n      0x01\n        /* \"#utility.yul\":16084:16088   */\n      dup3\n        /* \"#utility.yul\":16080:16092   */\n      and\n        /* \"#utility.yul\":16111:16129   */\n      dup1\n        /* \"#utility.yul\":16101:16182   */\n      tag_347\n      jumpi\n        /* \"#utility.yul\":16167:16171   */\n      0x7f\n        /* \"#utility.yul\":16159:16165   */\n      dup3\n        /* \"#utility.yul\":16155:16172   */\n      and\n        /* \"#utility.yul\":16145:16172   */\n      swap2\n      pop\n        /* \"#utility.yul\":16101:16182   */\n    tag_347:\n        /* \"#utility.yul\":16229:16231   */\n      0x20\n        /* \"#utility.yul\":16221:16227   */\n      dup3\n        /* \"#utility.yul\":16218:16232   */\n      lt\n        /* \"#utility.yul\":16198:16216   */\n      dup2\n        /* \"#utility.yul\":16195:16233   */\n      sub\n        /* \"#utility.yul\":16192:16276   */\n      tag_348\n      jumpi\n        /* \"#utility.yul\":16248:16266   */\n      tag_349\n      tag_176\n      jump\t// in\n    tag_349:\n        /* \"#utility.yul\":16192:16276   */\n    tag_348:\n        /* \"#utility.yul\":16013:16282   */\n      pop\n        /* \"#utility.yul\":15962:16282   */\n      swap2\n      swap1\n      pop\n      jump\t// out\n        /* \"#utility.yul\":16288:16468   */\n    tag_177:\n        /* \"#utility.yul\":16336:16413   */\n      0x4e487b7100000000000000000000000000000000000000000000000000000000\n        /* \"#utility.yul\":16333:16334   */\n      0x00\n        /* \"#utility.yul\":16326:16414   */\n      mstore\n        /* \"#utility.yul\":16433:16437   */\n      0x11\n        /* \"#utility.yul\":16430:16431   */\n      0x04\n        /* \"#utility.yul\":16423:16438   */\n      mstore\n        /* \"#utility.yul\":16457:16461   */\n      0x24\n        /* \"#utility.yul\":16454:16455   */\n      0x00\n        /* \"#utility.yul\":16447:16462   */\n      revert\n        /* \"#utility.yul\":16474:16707   */\n    tag_91:\n        /* \"#utility.yul\":16513:16516   */\n      0x00\n        /* \"#utility.yul\":16536:16560   */\n      tag_352\n        /* \"#utility.yul\":16554:16559   */\n      dup3\n        /* \"#utility.yul\":16536:16560   */\n      tag_138\n      jump\t// in\n    tag_352:\n        /* \"#utility.yul\":16527:16560   */\n      swap2\n      pop\n        /* \"#utility.yul\":16582:16648   */\n      0xffffffffffffffffffffffffffffffffffffffffffffffffffffffffffffffff\n        /* \"#utility.yul\":16575:16580   */\n      dup3\n        /* \"#utility.yul\":16572:16649   */\n      sub\n        /* \"#utility.yul\":16569:16672   */\n      tag_353\n      jumpi\n        /* \"#utility.yul\":16652:16670   */\n      tag_354\n      tag_177\n      jump\t// in\n    tag_354:\n        /* \"#utility.yul\":16569:16672   */\n    tag_353:\n        /* \"#utility.yul\":16699:16700   */\n      0x01\n        /* \"#utility.yul\":16692:16697   */\n      dup3\n        /* \"#utility.yul\":16688:16701   */\n      add\n        /* \"#utility.yul\":16681:16701   */\n      swap1\n      pop\n        /* \"#utility.yul\":16474:16707   */\n      swap2\n      swap1\n      pop\n      jump\t// out\n        /* \"#utility.yul\":16713:16831   */\n    tag_178:\n        /* \"#utility.yul\":16800:16824   */\n      tag_356\n        /* \"#utility.yul\":16818:16823   */\n      dup2\n        /* \"#utility.yul\":16800:16824   */\n      tag_135\n      jump\t// in\n    tag_356:\n        /* \"#utility.yul\":16795:16798   */\n      dup3\n        /* \"#utility.yul\":16788:16825   */\n      mstore\n        /* \"#utility.yul\":16713:16831   */\n      pop\n      pop\n      jump\t// out\n        /* \"#utility.yul\":16837:16978   */\n    tag_179:\n        /* \"#utility.yul\":16886:16890   */\n      0x00\n        /* \"#utility.yul\":16909:16912   */\n      dup2\n        /* \"#utility.yul\":16901:16912   */\n      swap1\n      pop\n        /* \"#utility.yul\":16932:16935   */\n      dup2\n        /* \"#utility.yul\":16929:16930   */\n      0x00\n        /* \"#utility.yul\":16922:16936   */\n      mstore\n        /* \"#utility.yul\":16966:16970   */\n      0x20\n        /* \"#utility.yul\":16963:16964   */\n      0x00\n        /* \"#utility.yul\":16953:16971   */\n      keccak256\n        /* \"#utility.yul\":16945:16971   */\n      swap1\n      pop\n        /* \"#utility.yul\":16837:16978   */\n      swap2\n      swap1\n      pop\n      jump\t// out\n        /* \"#utility.yul\":17008:17839   */\n    tag_180:\n        /* \"#utility.yul\":17093:17096   */\n      0x00\n        /* \"#utility.yul\":17130:17135   */\n      dup2\n        /* \"#utility.yul\":17124:17136   */\n      sload\n        /* \"#utility.yul\":17159:17195   */\n      tag_359\n        /* \"#utility.yul\":17185:17194   */\n      dup2\n        /* \"#utility.yul\":17159:17195   */\n      tag_58\n      jump\t// in\n    tag_359:\n        /* \"#utility.yul\":17211:17282   */\n      tag_360\n        /* \"#utility.yul\":17275:17281   */\n      dup2\n        /* \"#utility.yul\":17270:17273   */\n      dup7\n        /* \"#utility.yul\":17211:17282   */\n      tag_161\n      jump\t// in\n    tag_360:\n        /* \"#utility.yul\":17204:17282   */\n      swap5\n      pop\n        /* \"#utility.yul\":17313:17314   */\n      0x01\n        /* \"#utility.yul\":17302:17311   */\n      dup3\n        /* \"#utility.yul\":17298:17315   */\n      and\n        /* \"#utility.yul\":17329:17330   */\n      0x00\n        /* \"#utility.yul\":17324:17488   */\n      dup2\n      eq\n      tag_362\n      jumpi\n        /* \"#utility.yul\":17502:17503   */\n      0x01\n        /* \"#utility.yul\":17497:17833   */\n      dup2\n      eq\n      tag_363\n      jumpi\n        /* \"#utility.yul\":17291:17833   */\n      jump(tag_361)\n        /* \"#utility.yul\":17324:17488   */\n    tag_362:\n        /* \"#utility.yul\":17408:17412   */\n      0xff\n        /* \"#utility.yul\":17404:17413   */\n      not\n        /* \"#utility.yul\":17393:17402   */\n      dup4\n        /* \"#utility.yul\":17389:17414   */\n      and\n        /* \"#utility.yul\":17384:17387   */\n      dup7\n        /* \"#utility.yul\":17377:17415   */\n      mstore\n        /* \"#utility.yul\":17468:17474   */\n      dup2\n        /* \"#utility.yul\":17461:17475   */\n      iszero\n        /* \"#utility.yul\":17454:17476   */\n      iszero\n        /* \"#utility.yul\":17448:17452   */\n      0x20\n        /* \"#utility.yul\":17444:17477   */\n      mul\n        /* \"#utility.yul\":17439:17442   */\n      dup7\n        /* \"#utility.yul\":17435:17478   */\n      add\n        /* \"#utility.yul\":17428:17478   */\n      swap4\n      pop\n        /* \"#utility.yul\":17324:17488   */\n      jump(tag_361)\n        /* \"#utility.yul\":17497:17833   */\n    tag_363:\n        /* \"#utility.yul\":17564:17602   */\n      tag_364\n        /* \"#utility.yul\":17596:17601   */\n      dup6\n        /* \"#utility.yul\":17564:17602   */\n      tag_179\n      jump\t// in\n    tag_364:\n        /* \"#utility.yul\":17624:17625   */\n      0x00\n        /* \"#utility.yul\":17638:17792   */\n    tag_365:\n        /* \"#utility.yul\":17652:17658   */\n      dup4\n        /* \"#utility.yul\":17649:17650   */\n      dup2\n        /* \"#utility.yul\":17646:17659   */\n      lt\n        /* \"#utility.yul\":17638:17792   */\n      iszero\n      tag_367\n      jumpi\n        /* \"#utility.yul\":17726:17733   */\n      dup2\n        /* \"#utility.yul\":17720:17734   */\n      sload\n        /* \"#utility.yul\":17716:17717   */\n      dup2\n        /* \"#utility.yul\":17711:17714   */\n      dup10\n        /* \"#utility.yul\":17707:17718   */\n      add\n        /* \"#utility.yul\":17700:17735   */\n      mstore\n        /* \"#utility.yul\":17776:17777   */\n      0x01\n        /* \"#utility.yul\":17767:17774   */\n      dup3\n        /* \"#utility.yul\":17763:17778   */\n      add\n        /* \"#utility.yul\":17752:17778   */\n      swap2\n      pop\n        /* \"#utility.yul\":17674:17678   */\n      0x20\n        /* \"#utility.yul\":17671:17672   */\n      dup2\n        /* \"#utility.yul\":17667:17679   */\n      add\n        /* \"#utility.yul\":17662:17679   */\n      swap1\n      pop\n        /* \"#utility.yul\":17638:17792   */\n      jump(tag_365)\n    tag_367:\n        /* \"#utility.yul\":17821:17822   */\n      dup1\n        /* \"#utility.yul\":17816:17819   */\n      dup9\n        /* \"#utility.yul\":17812:17823   */\n      add\n        /* \"#utility.yul\":17805:17823   */\n      swap6\n      pop\n        /* \"#utility.yul\":17504:17833   */\n      pop\n      pop\n        /* \"#utility.yul\":17291:17833   */\n    tag_361:\n      pop\n        /* \"#utility.yul\":17097:17839   */\n      pop\n      pop\n        /* \"#utility.yul\":17008:17839   */\n      swap3\n      swap2\n      pop\n      pop\n      jump\t// out\n        /* \"#utility.yul\":17845:18574   */\n    tag_114:\n        /* \"#utility.yul\":18059:18063   */\n      0x00\n        /* \"#utility.yul\":18097:18100   */\n      0x80\n        /* \"#utility.yul\":18086:18095   */\n      dup3\n        /* \"#utility.yul\":18082:18101   */\n      add\n        /* \"#utility.yul\":18074:18101   */\n      swap1\n      pop\n        /* \"#utility.yul\":18111:18182   */\n      tag_369\n        /* \"#utility.yul\":18179:18180   */\n      0x00\n        /* \"#utility.yul\":18168:18177   */\n      dup4\n        /* \"#utility.yul\":18164:18181   */\n      add\n        /* \"#utility.yul\":18155:18161   */\n      dup8\n        /* \"#utility.yul\":18111:18182   */\n      tag_178\n      jump\t// in\n    tag_369:\n        /* \"#utility.yul\":18192:18264   */\n      tag_370\n        /* \"#utility.yul\":18260:18262   */\n      0x20\n        /* \"#utility.yul\":18249:18258   */\n      dup4\n        /* \"#utility.yul\":18245:18263   */\n      add\n        /* \"#utility.yul\":18236:18242   */\n      dup7\n        /* \"#utility.yul\":18192:18264   */\n      tag_164\n      jump\t// in\n    tag_370:\n        /* \"#utility.yul\":18311:18320   */\n      dup2\n        /* \"#utility.yul\":18305:18309   */\n      dup2\n        /* \"#utility.yul\":18301:18321   */\n      sub\n        /* \"#utility.yul\":18296:18298   */\n      0x40\n        /* \"#utility.yul\":18285:18294   */\n      dup4\n        /* \"#utility.yul\":18281:18299   */\n      add\n        /* \"#utility.yul\":18274:18322   */\n      mstore\n        /* \"#utility.yul\":18339:18414   */\n      tag_371\n        /* \"#utility.yul\":18409:18413   */\n      dup2\n        /* \"#utility.yul\":18400:18406   */\n      dup6\n        /* \"#utility.yul\":18339:18414   */\n      tag_180\n      jump\t// in\n    tag_371:\n        /* \"#utility.yul\":18331:18414   */\n      swap1\n      pop\n        /* \"#utility.yul\":18461:18470   */\n      dup2\n        /* \"#utility.yul\":18455:18459   */\n      dup2\n        /* \"#utility.yul\":18451:18471   */\n      sub\n        /* \"#utility.yul\":18446:18448   */\n      0x60\n        /* \"#utility.yul\":18435:18444   */\n      dup4\n        /* \"#utility.yul\":18431:18449   */\n      add\n        /* \"#utility.yul\":18424:18472   */\n      mstore\n        /* \"#utility.yul\":18489:18567   */\n      tag_372\n        /* \"#utility.yul\":18562:18566   */\n      dup2\n        /* \"#utility.yul\":18553:18559   */\n      dup5\n        /* \"#utility.yul\":18489:18567   */\n      tag_162\n      jump\t// in\n    tag_372:\n        /* \"#utility.yul\":18481:18567   */\n      swap1\n      pop\n        /* \"#utility.yul\":17845:18574   */\n      swap6\n      swap5\n      pop\n      pop\n      pop\n      pop\n      pop\n      jump\t// out\n        /* \"#utility.yul\":18580:18673   */\n    tag_181:\n        /* \"#utility.yul\":18617:18623   */\n      0x00\n        /* \"#utility.yul\":18664:18666   */\n      0x20\n        /* \"#utility.yul\":18659:18661   */\n      0x1f\n        /* \"#utility.yul\":18652:18657   */\n      dup4\n        /* \"#utility.yul\":18648:18662   */\n      add\n        /* \"#utility.yul\":18644:18667   */\n      div\n        /* \"#utility.yul\":18634:18667   */\n      swap1\n      pop\n        /* \"#utility.yul\":18580:18673   */\n      swap2\n      swap1\n      pop\n      jump\t// out\n        /* \"#utility.yul\":18679:18786   */\n    tag_182:\n        /* \"#utility.yul\":18723:18731   */\n      0x00\n        /* \"#utility.yul\":18773:18778   */\n      dup3\n        /* \"#utility.yul\":18767:18771   */\n      dup3\n        /* \"#utility.yul\":18763:18779   */\n      shl\n        /* \"#utility.yul\":18742:18779   */\n      swap1\n      pop\n        /* \"#utility.yul\":18679:18786   */\n      swap3\n      swap2\n      pop\n      pop\n      jump\t// out\n        /* \"#utility.yul\":18792:19185   */\n    tag_183:\n        /* \"#utility.yul\":18861:18867   */\n      0x00\n        /* \"#utility.yul\":18911:18912   */\n      0x08\n        /* \"#utility.yul\":18899:18909   */\n      dup4\n        /* \"#utility.yul\":18895:18913   */\n      mul\n        /* \"#utility.yul\":18934:19031   */\n      tag_376\n        /* \"#utility.yul\":18964:19030   */\n      0xffffffffffffffffffffffffffffffffffffffffffffffffffffffffffffffff\n        /* \"#utility.yul\":18953:18962   */\n      dup3\n        /* \"#utility.yul\":18934:19031   */\n      tag_182\n      jump\t// in\n    tag_376:\n        /* \"#utility.yul\":19052:19091   */\n      tag_377\n        /* \"#utility.yul\":19082:19090   */\n      dup7\n        /* \"#utility.yul\":19071:19080   */\n      dup4\n        /* \"#utility.yul\":19052:19091   */\n      tag_182\n      jump\t// in\n    tag_377:\n        /* \"#utility.yul\":19040:19091   */\n      swap6\n      pop\n        /* \"#utility.yul\":19124:19128   */\n      dup1\n        /* \"#utility.yul\":19120:19129   */\n      not\n        /* \"#utility.yul\":19113:19118   */\n      dup5\n        /* \"#utility.yul\":19109:19130   */\n      and\n        /* \"#utility.yul\":19100:19130   */\n      swap4\n      pop\n        /* \"#utility.yul\":19173:19177   */\n      dup1\n        /* \"#utility.yul\":19163:19171   */\n      dup7\n        /* \"#utility.yul\":19159:19178   */\n      and\n        /* \"#utility.yul\":19152:19157   */\n      dup5\n        /* \"#utility.yul\":19149:19179   */\n      or\n        /* \"#utility.yul\":19139:19179   */\n      swap3\n      pop\n        /* \"#utility.yul\":18868:19185   */\n      pop\n      pop\n        /* \"#utility.yul\":18792:19185   */\n      swap4\n      swap3\n      pop\n      pop\n      pop\n      jump\t// out\n        /* \"#utility.yul\":19191:19251   */\n    tag_184:\n        /* \"#utility.yul\":19219:19222   */\n      0x00\n        /* \"#utility.yul\":19240:19245   */\n      dup2\n        /* \"#utility.yul\":19233:19245   */\n      swap1\n      pop\n        /* \"#utility.yul\":19191:19251   */\n      swap2\n      swap1\n      pop\n      jump\t// out\n        /* \"#utility.yul\":19257:19399   */\n    tag_185:\n        /* \"#utility.yul\":19307:19316   */\n      0x00\n        /* \"#utility.yul\":19340:19393   */\n      tag_380\n        /* \"#utility.yul\":19358:19392   */\n      tag_381\n        /* \"#utility.yul\":19367:19391   */\n      tag_382\n        /* \"#utility.yul\":19385:19390   */\n      dup5\n        /* \"#utility.yul\":19367:19391   */\n      tag_138\n      jump\t// in\n    tag_382:\n        /* \"#utility.yul\":19358:19392   */\n      tag_184\n      jump\t// in\n    tag_381:\n        /* \"#utility.yul\":19340:19393   */\n      tag_138\n      jump\t// in\n    tag_380:\n        /* \"#utility.yul\":19327:19393   */\n      swap1\n      pop\n        /* \"#utility.yul\":19257:19399   */\n      swap2\n      swap1\n      pop\n      jump\t// out\n        /* \"#utility.yul\":19405:19480   */\n    tag_186:\n        /* \"#utility.yul\":19448:19451   */\n      0x00\n        /* \"#utility.yul\":19469:19474   */\n      dup2\n        /* \"#utility.yul\":19462:19474   */\n      swap1\n      pop\n        /* \"#utility.yul\":19405:19480   */\n      swap2\n      swap1\n      pop\n      jump\t// out\n        /* \"#utility.yul\":19486:19755   */\n    tag_187:\n        /* \"#utility.yul\":19596:19635   */\n      tag_385\n        /* \"#utility.yul\":19627:19634   */\n      dup4\n        /* \"#utility.yul\":19596:19635   */\n      tag_185\n      jump\t// in\n    tag_385:\n        /* \"#utility.yul\":19657:19748   */\n      tag_386\n        /* \"#utility.yul\":19706:19747   */\n      tag_387\n        /* \"#utility.yul\":19730:19746   */\n      dup3\n        /* \"#utility.yul\":19706:19747   */\n      tag_186\n      jump\t// in\n    tag_387:\n        /* \"#utility.yul\":19698:19704   */\n      dup5\n        /* \"#utility.yul\":19691:19695   */\n      dup5\n        /* \"#utility.yul\":19685:19696   */\n      sload\n        /* \"#utility.yul\":19657:19748   */\n      tag_183\n      jump\t// in\n    tag_386:\n        /* \"#utility.yul\":19651:19655   */\n      dup3\n        /* \"#utility.yul\":19644:19749   */\n      sstore\n        /* \"#utility.yul\":19562:19755   */\n      pop\n        /* \"#utility.yul\":19486:19755   */\n      pop\n      pop\n      pop\n      jump\t// out\n        /* \"#utility.yul\":19761:19834   */\n    tag_188:\n        /* \"#utility.yul\":19806:19809   */\n      0x00\n        /* \"#utility.yul\":19827:19828   */\n      0x00\n        /* \"#utility.yul\":19820:19828   */\n      swap1\n      pop\n        /* \"#utility.yul\":19761:19834   */\n      swap1\n      jump\t// out\n        /* \"#utility.yul\":19840:20029   */\n    tag_189:\n        /* \"#utility.yul\":19917:19949   */\n      tag_390\n      tag_188\n      jump\t// in\n    tag_390:\n        /* \"#utility.yul\":19958:20023   */\n      tag_391\n        /* \"#utility.yul\":20016:20022   */\n      dup2\n        /* \"#utility.yul\":20008:20014   */\n      dup5\n        /* \"#utility.yul\":20002:20006   */\n      dup5\n        /* \"#utility.yul\":19958:20023   */\n      tag_187\n      jump\t// in\n    tag_391:\n        /* \"#utility.yul\":19893:20029   */\n      pop\n        /* \"#utility.yul\":19840:20029   */\n      pop\n      pop\n      jump\t// out\n        /* \"#utility.yul\":20035:20221   */\n    tag_190:\n        /* \"#utility.yul\":20095:20215   */\n    tag_393:\n        /* \"#utility.yul\":20112:20115   */\n      dup2\n        /* \"#utility.yul\":20105:20110   */\n      dup2\n        /* \"#utility.yul\":20102:20116   */\n      lt\n        /* \"#utility.yul\":20095:20215   */\n      iszero\n      tag_395\n      jumpi\n        /* \"#utility.yul\":20166:20205   */\n      tag_396\n        /* \"#utility.yul\":20203:20204   */\n      0x00\n        /* \"#utility.yul\":20196:20201   */\n      dup3\n        /* \"#utility.yul\":20166:20205   */\n      tag_189\n      jump\t// in\n    tag_396:\n        /* \"#utility.yul\":20139:20140   */\n      0x01\n        /* \"#utility.yul\":20132:20137   */\n      dup2\n        /* \"#utility.yul\":20128:20141   */\n      add\n        /* \"#utility.yul\":20119:20141   */\n      swap1\n      pop\n        /* \"#utility.yul\":20095:20215   */\n      jump(tag_393)\n    tag_395:\n        /* \"#utility.yul\":20035:20221   */\n      pop\n      pop\n      jump\t// out\n        /* \"#utility.yul\":20227:20770   */\n    tag_191:\n        /* \"#utility.yul\":20328:20330   */\n      0x1f\n        /* \"#utility.yul\":20323:20326   */\n      dup3\n        /* \"#utility.yul\":20320:20331   */\n      gt\n        /* \"#utility.yul\":20317:20763   */\n      iszero\n      tag_398\n      jumpi\n        /* \"#utility.yul\":20362:20400   */\n      tag_399\n        /* \"#utility.yul\":20394:20399   */\n      dup2\n        /* \"#utility.yul\":20362:20400   */\n      tag_179\n      jump\t// in\n    tag_399:\n        /* \"#utility.yul\":20446:20475   */\n      tag_400\n        /* \"#utility.yul\":20464:20474   */\n      dup5\n        /* \"#utility.yul\":20446:20475   */\n      tag_181\n      jump\t// in\n    tag_400:\n        /* \"#utility.yul\":20436:20444   */\n      dup2\n        /* \"#utility.yul\":20432:20476   */\n      add\n        /* \"#utility.yul\":20629:20631   */\n      0x20\n        /* \"#utility.yul\":20617:20627   */\n      dup6\n        /* \"#utility.yul\":20614:20632   */\n      lt\n        /* \"#utility.yul\":20611:20660   */\n      iszero\n      tag_401\n      jumpi\n        /* \"#utility.yul\":20650:20658   */\n      dup2\n        /* \"#utility.yul\":20635:20658   */\n      swap1\n      pop\n        /* \"#utility.yul\":20611:20660   */\n    tag_401:\n        /* \"#utility.yul\":20673:20753   */\n      tag_402\n        /* \"#utility.yul\":20729:20751   */\n      tag_403\n        /* \"#utility.yul\":20747:20750   */\n      dup6\n        /* \"#utility.yul\":20729:20751   */\n      tag_181\n      jump\t// in\n    tag_403:\n        /* \"#utility.yul\":20719:20727   */\n      dup4\n        /* \"#utility.yul\":20715:20752   */\n      add\n        /* \"#utility.yul\":20702:20713   */\n      dup3\n        /* \"#utility.yul\":20673:20753   */\n      tag_190\n      jump\t// in\n    tag_402:\n        /* \"#utility.yul\":20332:20763   */\n      pop\n      pop\n        /* \"#utility.yul\":20317:20763   */\n    tag_398:\n        /* \"#utility.yul\":20227:20770   */\n      pop\n      pop\n      pop\n      jump\t// out\n        /* \"#utility.yul\":20776:20893   */\n    tag_192:\n        /* \"#utility.yul\":20830:20838   */\n      0x00\n        /* \"#utility.yul\":20880:20885   */\n      dup3\n        /* \"#utility.yul\":20874:20878   */\n      dup3\n        /* \"#utility.yul\":20870:20886   */\n      shr\n        /* \"#utility.yul\":20849:20886   */\n      swap1\n      pop\n        /* \"#utility.yul\":20776:20893   */\n      swap3\n      swap2\n      pop\n      pop\n      jump\t// out\n        /* \"#utility.yul\":20899:21068   */\n    tag_193:\n        /* \"#utility.yul\":20943:20949   */\n      0x00\n        /* \"#utility.yul\":20976:21027   */\n      tag_406\n        /* \"#utility.yul\":21024:21025   */\n      0x00\n        /* \"#utility.yul\":21020:21026   */\n      not\n        /* \"#utility.yul\":21012:21017   */\n      dup5\n        /* \"#utility.yul\":21009:21010   */\n      0x08\n        /* \"#utility.yul\":21005:21018   */\n      mul\n        /* \"#utility.yul\":20976:21027   */\n      tag_192\n      jump\t// in\n    tag_406:\n        /* \"#utility.yul\":20972:21028   */\n      not\n        /* \"#utility.yul\":21057:21061   */\n      dup1\n        /* \"#utility.yul\":21051:21055   */\n      dup4\n        /* \"#utility.yul\":21047:21062   */\n      and\n        /* \"#utility.yul\":21037:21062   */\n      swap2\n      pop\n        /* \"#utility.yul\":20950:21068   */\n      pop\n        /* \"#utility.yul\":20899:21068   */\n      swap3\n      swap2\n      pop\n      pop\n      jump\t// out\n        /* \"#utility.yul\":21073:21368   */\n    tag_194:\n        /* \"#utility.yul\":21149:21153   */\n      0x00\n        /* \"#utility.yul\":21295:21324   */\n      tag_408\n        /* \"#utility.yul\":21320:21323   */\n      dup4\n        /* \"#utility.yul\":21314:21318   */\n      dup4\n        /* \"#utility.yul\":21295:21324   */\n      tag_193\n      jump\t// in\n    tag_408:\n        /* \"#utility.yul\":21287:21324   */\n      swap2\n      pop\n        /* \"#utility.yul\":21357:21360   */\n      dup3\n        /* \"#utility.yul\":21354:21355   */\n      0x02\n        /* \"#utility.yul\":21350:21361   */\n      mul\n        /* \"#utility.yul\":21344:21348   */\n      dup3\n        /* \"#utility.yul\":21341:21362   */\n      or\n        /* \"#utility.yul\":21333:21362   */\n      swap1\n      pop\n        /* \"#utility.yul\":21073:21368   */\n      swap3\n      swap2\n      pop\n      pop\n      jump\t// out\n        /* \"#utility.yul\":21373:22768   */\n    tag_119:\n        /* \"#utility.yul\":21490:21527   */\n      tag_410\n        /* \"#utility.yul\":21523:21526   */\n      dup3\n        /* \"#utility.yul\":21490:21527   */\n      tag_141\n      jump\t// in\n    tag_410:\n        /* \"#utility.yul\":21592:21610   */\n      0xffffffffffffffff\n        /* \"#utility.yul\":21584:21590   */\n      dup2\n        /* \"#utility.yul\":21581:21611   */\n      gt\n        /* \"#utility.yul\":21578:21634   */\n      iszero\n      tag_411\n      jumpi\n        /* \"#utility.yul\":21614:21632   */\n      tag_412\n      tag_167\n      jump\t// in\n    tag_412:\n        /* \"#utility.yul\":21578:21634   */\n    tag_411:\n        /* \"#utility.yul\":21658:21696   */\n      tag_413\n        /* \"#utility.yul\":21690:21694   */\n      dup3\n        /* \"#utility.yul\":21684:21695   */\n      sload\n        /* \"#utility.yul\":21658:21696   */\n      tag_58\n      jump\t// in\n    tag_413:\n        /* \"#utility.yul\":21743:21810   */\n      tag_414\n        /* \"#utility.yul\":21803:21809   */\n      dup3\n        /* \"#utility.yul\":21795:21801   */\n      dup3\n        /* \"#utility.yul\":21789:21793   */\n      dup6\n        /* \"#utility.yul\":21743:21810   */\n      tag_191\n      jump\t// in\n    tag_414:\n        /* \"#utility.yul\":21837:21838   */\n      0x00\n        /* \"#utility.yul\":21861:21865   */\n      0x20\n        /* \"#utility.yul\":21848:21865   */\n      swap1\n      pop\n        /* \"#utility.yul\":21893:21895   */\n      0x1f\n        /* \"#utility.yul\":21885:21891   */\n      dup4\n        /* \"#utility.yul\":21882:21896   */\n      gt\n        /* \"#utility.yul\":21910:21911   */\n      0x01\n        /* \"#utility.yul\":21905:22523   */\n      dup2\n      eq\n      tag_416\n      jumpi\n        /* \"#utility.yul\":22567:22568   */\n      0x00\n        /* \"#utility.yul\":22584:22590   */\n      dup5\n        /* \"#utility.yul\":22581:22658   */\n      iszero\n      tag_417\n      jumpi\n        /* \"#utility.yul\":22633:22642   */\n      dup3\n        /* \"#utility.yul\":22628:22631   */\n      dup8\n        /* \"#utility.yul\":22624:22643   */\n      add\n        /* \"#utility.yul\":22618:22644   */\n      mload\n        /* \"#utility.yul\":22609:22644   */\n      swap1\n      pop\n        /* \"#utility.yul\":22581:22658   */\n    tag_417:\n        /* \"#utility.yul\":22684:22751   */\n      tag_418\n        /* \"#utility.yul\":22744:22750   */\n      dup6\n        /* \"#utility.yul\":22737:22742   */\n      dup3\n        /* \"#utility.yul\":22684:22751   */\n      tag_194\n      jump\t// in\n    tag_418:\n        /* \"#utility.yul\":22678:22682   */\n      dup7\n        /* \"#utility.yul\":22671:22752   */\n      sstore\n        /* \"#utility.yul\":22540:22762   */\n      pop\n        /* \"#utility.yul\":21875:22762   */\n      jump(tag_415)\n        /* \"#utility.yul\":21905:22523   */\n    tag_416:\n        /* \"#utility.yul\":21957:21961   */\n      0x1f\n        /* \"#utility.yul\":21953:21962   */\n      not\n        /* \"#utility.yul\":21945:21951   */\n      dup5\n        /* \"#utility.yul\":21941:21963   */\n      and\n        /* \"#utility.yul\":21991:22028   */\n      tag_419\n        /* \"#utility.yul\":22023:22027   */\n      dup7\n        /* \"#utility.yul\":21991:22028   */\n      tag_179\n      jump\t// in\n    tag_419:\n        /* \"#utility.yul\":22050:22051   */\n      0x00\n        /* \"#utility.yul\":22064:22272   */\n    tag_420:\n        /* \"#utility.yul\":22078:22085   */\n      dup3\n        /* \"#utility.yul\":22075:22076   */\n      dup2\n        /* \"#utility.yul\":22072:22086   */\n      lt\n        /* \"#utility.yul\":22064:22272   */\n      iszero\n      tag_422\n      jumpi\n        /* \"#utility.yul\":22157:22166   */\n      dup5\n        /* \"#utility.yul\":22152:22155   */\n      dup10\n        /* \"#utility.yul\":22148:22167   */\n      add\n        /* \"#utility.yul\":22142:22168   */\n      mload\n        /* \"#utility.yul\":22134:22140   */\n      dup3\n        /* \"#utility.yul\":22127:22169   */\n      sstore\n        /* \"#utility.yul\":22208:22209   */\n      0x01\n        /* \"#utility.yul\":22200:22206   */\n      dup3\n        /* \"#utility.yul\":22196:22210   */\n      add\n        /* \"#utility.yul\":22186:22210   */\n      swap2\n      pop\n        /* \"#utility.yul\":22255:22257   */\n      0x20\n        /* \"#utility.yul\":22244:22253   */\n      dup6\n        /* \"#utility.yul\":22240:22258   */\n      add\n        /* \"#utility.yul\":22227:22258   */\n      swap5\n      pop\n        /* \"#utility.yul\":22101:22105   */\n      0x20\n        /* \"#utility.yul\":22098:22099   */\n      dup2\n        /* \"#utility.yul\":22094:22106   */\n      add\n        /* \"#utility.yul\":22089:22106   */\n      swap1\n      pop\n        /* \"#utility.yul\":22064:22272   */\n      jump(tag_420)\n    tag_422:\n        /* \"#utility.yul\":22300:22306   */\n      dup7\n        /* \"#utility.yul\":22291:22298   */\n      dup4\n        /* \"#utility.yul\":22288:22307   */\n      lt\n        /* \"#utility.yul\":22285:22464   */\n      iszero\n      tag_423\n      jumpi\n        /* \"#utility.yul\":22358:22367   */\n      dup5\n        /* \"#utility.yul\":22353:22356   */\n      dup10\n        /* \"#utility.yul\":22349:22368   */\n      add\n        /* \"#utility.yul\":22343:22369   */\n      mload\n        /* \"#utility.yul\":22401:22449   */\n      tag_424\n        /* \"#utility.yul\":22443:22447   */\n      0x1f\n        /* \"#utility.yul\":22435:22441   */\n      dup10\n        /* \"#utility.yul\":22431:22448   */\n      and\n        /* \"#utility.yul\":22420:22429   */\n      dup3\n        /* \"#utility.yul\":22401:22449   */\n      tag_193\n      jump\t// in\n    tag_424:\n        /* \"#utility.yul\":22393:22399   */\n      dup4\n        /* \"#utility.yul\":22386:22450   */\n      sstore\n        /* \"#utility.yul\":22308:22464   */\n      pop\n        /* \"#utility.yul\":22285:22464   */\n    tag_423:\n        /* \"#utility.yul\":22510:22511   */\n      0x01\n        /* \"#utility.yul\":22506:22507   */\n      0x02\n        /* \"#utility.yul\":22498:22504   */\n      dup9\n        /* \"#utility.yul\":22494:22508   */\n      mul\n        /* \"#utility.yul\":22490:22512   */\n      add\n        /* \"#utility.yul\":22484:22488   */\n      dup9\n        /* \"#utility.yul\":22477:22513   */\n      sstore\n        /* \"#utility.yul\":21912:22523   */\n      pop\n      pop\n      pop\n        /* \"#utility.yul\":21875:22762   */\n    tag_415:\n      pop\n        /* \"#utility.yul\":21465:22768   */\n      pop\n      pop\n      pop\n        /* \"#utility.yul\":21373:22768   */\n      pop\n      pop\n      jump\t// out\n        /* \"#utility.yul\":22774:22968   */\n    tag_128:\n        /* \"#utility.yul\":22814:22818   */\n      0x00\n        /* \"#utility.yul\":22834:22854   */\n      tag_426\n        /* \"#utility.yul\":22852:22853   */\n      dup3\n        /* \"#utility.yul\":22834:22854   */\n      tag_138\n      jump\t// in\n    tag_426:\n        /* \"#utility.yul\":22829:22854   */\n      swap2\n      pop\n        /* \"#utility.yul\":22868:22888   */\n      tag_427\n        /* \"#utility.yul\":22886:22887   */\n      dup4\n        /* \"#utility.yul\":22868:22888   */\n      tag_138\n      jump\t// in\n    tag_427:\n        /* \"#utility.yul\":22863:22888   */\n      swap3\n      pop\n        /* \"#utility.yul\":22912:22913   */\n      dup3\n        /* \"#utility.yul\":22909:22910   */\n      dup3\n        /* \"#utility.yul\":22905:22914   */\n      sub\n        /* \"#utility.yul\":22897:22914   */\n      swap1\n      pop\n        /* \"#utility.yul\":22936:22937   */\n      dup2\n        /* \"#utility.yul\":22930:22934   */\n      dup2\n        /* \"#utility.yul\":22927:22938   */\n      gt\n        /* \"#utility.yul\":22924:22961   */\n      iszero\n      tag_428\n      jumpi\n        /* \"#utility.yul\":22941:22959   */\n      tag_429\n      tag_177\n      jump\t// in\n    tag_429:\n        /* \"#utility.yul\":22924:22961   */\n    tag_428:\n        /* \"#utility.yul\":22774:22968   */\n      swap3\n      swap2\n      pop\n      pop\n      jump\t// out\n\n    auxdata: 0xa2646970667358221220f47c44dae27ce46b447becde80ac8a60bf4e42488a026bc1e65c8cdfc938d17164736f6c634300081e0033\n}\n",
				"bytecode": {
					"linkReferences": {},
					"object": "608060405234801561000f575f5ffd5b505f60405180606001604052806040518060400160405280600b81526020017f48656c6c6f20776f726c6400000000000000000000000000000000000000000081525081526020015f600281111561006a5761006961012d565b5b81526020015f81525090505f5f3373ffffffffffffffffffffffffffffffffffffffff1673ffffffffffffffffffffffffffffffffffffffff1681526020019081526020015f2081908060018154018082558091505060019003905f5260205f2090600302015f909190919091505f820151815f0190816100eb9190610397565b506020820151816001015f6101000a81548160ff021916908360028111156101165761011561012d565b5b021790555060408201518160020155505050610466565b7f4e487b71000000000000000000000000000000000000000000000000000000005f52602160045260245ffd5b5f81519050919050565b7f4e487b71000000000000000000000000000000000000000000000000000000005f52604160045260245ffd5b7f4e487b71000000000000000000000000000000000000000000000000000000005f52602260045260245ffd5b5f60028204905060018216806101d557607f821691505b6020821081036101e8576101e7610191565b5b50919050565b5f819050815f5260205f209050919050565b5f6020601f8301049050919050565b5f82821b905092915050565b5f6008830261024a7fffffffffffffffffffffffffffffffffffffffffffffffffffffffffffffffff8261020f565b610254868361020f565b95508019841693508086168417925050509392505050565b5f819050919050565b5f819050919050565b5f61029861029361028e8461026c565b610275565b61026c565b9050919050565b5f819050919050565b6102b18361027e565b6102c56102bd8261029f565b84845461021b565b825550505050565b5f5f905090565b6102dc6102cd565b6102e78184846102a8565b505050565b5b8181101561030a576102ff5f826102d4565b6001810190506102ed565b5050565b601f82111561034f57610320816101ee565b61032984610200565b81016020851015610338578190505b61034c61034485610200565b8301826102ec565b50505b505050565b5f82821c905092915050565b5f61036f5f1984600802610354565b1980831691505092915050565b5f6103878383610360565b9150826002028217905092915050565b6103a08261015a565b67ffffffffffffffff8111156103b9576103b8610164565b5b6103c382546101be565b6103ce82828561030e565b5f60209050601f8311600181146103ff575f84156103ed578287015190505b6103f7858261037c565b86555061045e565b601f19841661040d866101ee565b5f5b828110156104345784890151825560018201915060208501945060208101905061040f565b86831015610451578489015161044d601f891682610360565b8355505b6001600288020188555050505b505050505050565b6115d3806104735f395ff3fe608060405234801561000f575f5ffd5b506004361061007b575f3560e01c80638cdd8902116100595780638cdd8902146100fb5780639ca3a5ed1461012b578063b68200021461015d578063e8f36962146101795761007b565b806308c467111461007f578063251101f5146100af57806363ff1368146100df575b5f5ffd5b61009960048036038101906100949190610a9d565b6101a9565b6040516100a69190610c1a565b60405180910390f35b6100c960048036038101906100c49190610c3a565b610372565b6040516100d69190610d6d565b60405180910390f35b6100f960048036038101906100f49190610db0565b6104dd565b005b61011560048036038101906101109190610dee565b6105d7565b6040516101229190610c1a565b60405180910390f35b61014560048036038101906101409190610a9d565b6105f0565b60405161015493929190610e7f565b60405180910390f35b61017760048036038101906101729190610fe7565b6106c1565b005b610193600480360381019061018e9190611041565b610896565b6040516101a0919061109b565b60405180910390f35b6101b16109ce565b5f5f8473ffffffffffffffffffffffffffffffffffffffff1673ffffffffffffffffffffffffffffffffffffffff1681526020019081526020015f20805490508210610232576040517f08c379a0000000000000000000000000000000000000000000000000000000008152600401610229906110fe565b60405180910390fd5b5f5f8473ffffffffffffffffffffffffffffffffffffffff1673ffffffffffffffffffffffffffffffffffffffff1681526020019081526020015f2082815481106102805761027f61111c565b5b905f5260205f2090600302016040518060600160405290815f820180546102a690611176565b80601f01602080910402602001604051908101604052809291908181526020018280546102d290611176565b801561031d5780601f106102f45761010080835404028352916020019161031d565b820191905f5260205f20905b81548152906001019060200180831161030057829003601f168201915b50505050508152602001600182015f9054906101000a900460ff16600281111561034a57610349610b4b565b5b600281111561035c5761035b610b4b565b5b8152602001600282015481525050905092915050565b60605f5f8373ffffffffffffffffffffffffffffffffffffffff1673ffffffffffffffffffffffffffffffffffffffff1681526020019081526020015f20805480602002602001604051908101604052809291908181526020015f905b828210156104d2578382905f5260205f2090600302016040518060600160405290815f820180546103ff90611176565b80601f016020809104026020016040519081016040528092919081815260200182805461042b90611176565b80156104765780601f1061044d57610100808354040283529160200191610476565b820191905f5260205f20905b81548152906001019060200180831161045957829003601f168201915b50505050508152602001600182015f9054906101000a900460ff1660028111156104a3576104a2610b4b565b5b60028111156104b5576104b4610b4b565b5b8152602001600282015481525050815260200190600101906103cf565b505050509050919050565b805f5f3373ffffffffffffffffffffffffffffffffffffffff1673ffffffffffffffffffffffffffffffffffffffff1681526020019081526020015f20838154811061052c5761052b61111c565b5b905f5260205f2090600302016001015f6101000a81548160ff0219169083600281111561055c5761055b610b4b565b5b02179055505f5f3373ffffffffffffffffffffffffffffffffffffffff1673ffffffffffffffffffffffffffffffffffffffff1681526020019081526020015f2082815481106105af576105ae61111c565b5b905f5260205f2090600302016002015f8154809291906105ce906111d3565b91905055505050565b6105df6109ce565b6105e933836101a9565b9050919050565b5f602052815f5260405f208181548110610608575f80fd5b905f5260205f2090600302015f9150915050805f01805461062890611176565b80601f016020809104026020016040519081016040528092919081815260200182805461065490611176565b801561069f5780601f106106765761010080835404028352916020019161069f565b820191905f5260205f20905b81548152906001019060200180831161068257829003601f168201915b505050505090806001015f9054906101000a900460ff16908060020154905083565b5f5f3373ffffffffffffffffffffffffffffffffffffffff1673ffffffffffffffffffffffffffffffffffffffff1681526020019081526020015f20828154811061070f5761070e61111c565b5b905f5260205f2090600302016002015f81548092919061072e906111d3565b91905055507feb0c5cfcb1d1a12c404c7bfceac5a0dc8ec8c2da31abaf3536a58433b2c561ce335f5f3373ffffffffffffffffffffffffffffffffffffffff1673ffffffffffffffffffffffffffffffffffffffff1681526020019081526020015f2084815481106107a3576107a261111c565b5b905f5260205f209060030201600201545f5f3373ffffffffffffffffffffffffffffffffffffffff1673ffffffffffffffffffffffffffffffffffffffff1681526020019081526020015f2085815481106108015761080061111c565b5b905f5260205f2090600302015f018460405161082094939291906112bc565b60405180910390a1805f5f3373ffffffffffffffffffffffffffffffffffffffff1673ffffffffffffffffffffffffffffffffffffffff1681526020019081526020015f2083815481106108775761087661111c565b5b905f5260205f2090600302015f019081610891919061149b565b505050565b5f5f60405180606001604052808481526020018560028111156108bc576108bb610b4b565b5b81526020015f81525090505f5f3373ffffffffffffffffffffffffffffffffffffffff1673ffffffffffffffffffffffffffffffffffffffff1681526020019081526020015f2081908060018154018082558091505060019003905f5260205f2090600302015f909190919091505f820151815f01908161093d919061149b565b506020820151816001015f6101000a81548160ff0219169083600281111561096857610967610b4b565b5b021790555060408201518160020155505060015f5f3373ffffffffffffffffffffffffffffffffffffffff1673ffffffffffffffffffffffffffffffffffffffff1681526020019081526020015f20805490506109c5919061156a565b91505092915050565b6040518060600160405280606081526020015f60028111156109f3576109f2610b4b565b5b81526020015f81525090565b5f604051905090565b5f5ffd5b5f5ffd5b5f73ffffffffffffffffffffffffffffffffffffffff82169050919050565b5f610a3982610a10565b9050919050565b610a4981610a2f565b8114610a53575f5ffd5b50565b5f81359050610a6481610a40565b92915050565b5f819050919050565b610a7c81610a6a565b8114610a86575f5ffd5b50565b5f81359050610a9781610a73565b92915050565b5f5f60408385031215610ab357610ab2610a08565b5b5f610ac085828601610a56565b9250506020610ad185828601610a89565b9150509250929050565b5f81519050919050565b5f82825260208201905092915050565b8281835e5f83830152505050565b5f601f19601f8301169050919050565b5f610b1d82610adb565b610b278185610ae5565b9350610b37818560208601610af5565b610b4081610b03565b840191505092915050565b7f4e487b71000000000000000000000000000000000000000000000000000000005f52602160045260245ffd5b60038110610b8957610b88610b4b565b5b50565b5f819050610b9982610b78565b919050565b5f610ba882610b8c565b9050919050565b610bb881610b9e565b82525050565b610bc781610a6a565b82525050565b5f606083015f8301518482035f860152610be78282610b13565b9150506020830151610bfc6020860182610baf565b506040830151610c0f6040860182610bbe565b508091505092915050565b5f6020820190508181035f830152610c328184610bcd565b905092915050565b5f60208284031215610c4f57610c4e610a08565b5b5f610c5c84828501610a56565b91505092915050565b5f81519050919050565b5f82825260208201905092915050565b5f819050602082019050919050565b5f606083015f8301518482035f860152610ca88282610b13565b9150506020830151610cbd6020860182610baf565b506040830151610cd06040860182610bbe565b508091505092915050565b5f610ce68383610c8e565b905092915050565b5f602082019050919050565b5f610d0482610c65565b610d0e8185610c6f565b935083602082028501610d2085610c7f565b805f5b85811015610d5b5784840389528151610d3c8582610cdb565b9450610d4783610cee565b925060208a01995050600181019050610d23565b50829750879550505050505092915050565b5f6020820190508181035f830152610d858184610cfa565b905092915050565b60038110610d99575f5ffd5b50565b5f81359050610daa81610d8d565b92915050565b5f5f60408385031215610dc657610dc5610a08565b5b5f610dd385828601610a89565b9250506020610de485828601610d9c565b9150509250929050565b5f60208284031215610e0357610e02610a08565b5b5f610e1084828501610a89565b91505092915050565b5f82825260208201905092915050565b5f610e3382610adb565b610e3d8185610e19565b9350610e4d818560208601610af5565b610e5681610b03565b840191505092915050565b610e6a81610b9e565b82525050565b610e7981610a6a565b82525050565b5f6060820190508181035f830152610e978186610e29565b9050610ea66020830185610e61565b610eb36040830184610e70565b949350505050565b5f5ffd5b5f5ffd5b7f4e487b71000000000000000000000000000000000000000000000000000000005f52604160045260245ffd5b610ef982610b03565b810181811067ffffffffffffffff82111715610f1857610f17610ec3565b5b80604052505050565b5f610f2a6109ff565b9050610f368282610ef0565b919050565b5f67ffffffffffffffff821115610f5557610f54610ec3565b5b610f5e82610b03565b9050602081019050919050565b828183375f83830152505050565b5f610f8b610f8684610f3b565b610f21565b905082815260208101848484011115610fa757610fa6610ebf565b5b610fb2848285610f6b565b509392505050565b5f82601f830112610fce57610fcd610ebb565b5b8135610fde848260208601610f79565b91505092915050565b5f5f60408385031215610ffd57610ffc610a08565b5b5f61100a85828601610a89565b925050602083013567ffffffffffffffff81111561102b5761102a610a0c565b5b61103785828601610fba565b9150509250929050565b5f5f6040838503121561105757611056610a08565b5b5f61106485828601610d9c565b925050602083013567ffffffffffffffff81111561108557611084610a0c565b5b61109185828601610fba565b9150509250929050565b5f6020820190506110ae5f830184610e70565b92915050565b7f496e76616c696420696e646578000000000000000000000000000000000000005f82015250565b5f6110e8600d83610e19565b91506110f3826110b4565b602082019050919050565b5f6020820190508181035f830152611115816110dc565b9050919050565b7f4e487b71000000000000000000000000000000000000000000000000000000005f52603260045260245ffd5b7f4e487b71000000000000000000000000000000000000000000000000000000005f52602260045260245ffd5b5f600282049050600182168061118d57607f821691505b6020821081036111a05761119f611149565b5b50919050565b7f4e487b71000000000000000000000000000000000000000000000000000000005f52601160045260245ffd5b5f6111dd82610a6a565b91507fffffffffffffffffffffffffffffffffffffffffffffffffffffffffffffffff820361120f5761120e6111a6565b5b600182019050919050565b61122381610a2f565b82525050565b5f819050815f5260205f209050919050565b5f815461124781611176565b6112518186610e19565b9450600182165f811461126b5760018114611281576112b3565b60ff1983168652811515602002860193506112b3565b61128a85611229565b5f5b838110156112ab5781548189015260018201915060208101905061128c565b808801955050505b50505092915050565b5f6080820190506112cf5f83018761121a565b6112dc6020830186610e70565b81810360408301526112ee818561123b565b905081810360608301526113028184610e29565b905095945050505050565b5f6020601f8301049050919050565b5f82821b905092915050565b5f600883026113577fffffffffffffffffffffffffffffffffffffffffffffffffffffffffffffffff8261131c565b611361868361131c565b95508019841693508086168417925050509392505050565b5f819050919050565b5f61139c61139761139284610a6a565b611379565b610a6a565b9050919050565b5f819050919050565b6113b583611382565b6113c96113c1826113a3565b848454611328565b825550505050565b5f5f905090565b6113e06113d1565b6113eb8184846113ac565b505050565b5b8181101561140e576114035f826113d8565b6001810190506113f1565b5050565b601f8211156114535761142481611229565b61142d8461130d565b8101602085101561143c578190505b6114506114488561130d565b8301826113f0565b50505b505050565b5f82821c905092915050565b5f6114735f1984600802611458565b1980831691505092915050565b5f61148b8383611464565b9150826002028217905092915050565b6114a482610adb565b67ffffffffffffffff8111156114bd576114bc610ec3565b5b6114c78254611176565b6114d2828285611412565b5f60209050601f831160018114611503575f84156114f1578287015190505b6114fb8582611480565b865550611562565b601f19841661151186611229565b5f5b8281101561153857848901518255600182019150602085019450602081019050611513565b868310156115555784890151611551601f891682611464565b8355505b6001600288020188555050505b505050505050565b5f61157482610a6a565b915061157f83610a6a565b9250828203905081811115611597576115966111a6565b5b9291505056fea2646970667358221220f47c44dae27ce46b447becde80ac8a60bf4e42488a026bc1e65c8cdfc938d17164736f6c634300081e0033",
					"opcodes": "PUSH1 0x80 PUSH1 0x40 MSTORE CALLVALUE DUP1 ISZERO PUSH2 0xF JUMPI PUSH0 PUSH0 REVERT JUMPDEST POP PUSH0 PUSH1 0x40 MLOAD DUP1 PUSH1 0x60 ADD PUSH1 0x40 MSTORE DUP1 PUSH1 0x40 MLOAD DUP1 PUSH1 0x40 ADD PUSH1 0x40 MSTORE DUP1 PUSH1 0xB DUP2 MSTORE PUSH1 0x20 ADD PUSH32 0x48656C6C6F20776F726C64000000000000000000000000000000000000000000 DUP2 MSTORE POP DUP2 MSTORE PUSH1 0x20 ADD PUSH0 PUSH1 0x2 DUP2 GT ISZERO PUSH2 0x6A JUMPI PUSH2 0x69 PUSH2 0x12D JUMP JUMPDEST JUMPDEST DUP2 MSTORE PUSH1 0x20 ADD PUSH0 DUP2 MSTORE POP SWAP1 POP PUSH0 PUSH0 CALLER PUSH20 0xFFFFFFFFFFFFFFFFFFFFFFFFFFFFFFFFFFFFFFFF AND PUSH20 0xFFFFFFFFFFFFFFFFFFFFFFFFFFFFFFFFFFFFFFFF AND DUP2 MSTORE PUSH1 0x20 ADD SWAP1 DUP2 MSTORE PUSH1 0x20 ADD PUSH0 KECCAK256 DUP2 SWAP1 DUP1 PUSH1 0x1 DUP2 SLOAD ADD DUP1 DUP3 SSTORE DUP1 SWAP2 POP POP PUSH1 0x1 SWAP1 SUB SWAP1 PUSH0 MSTORE PUSH1 0x20 PUSH0 KECCAK256 SWAP1 PUSH1 0x3 MUL ADD PUSH0 SWAP1 SWAP2 SWAP1 SWAP2 SWAP1 SWAP2 POP PUSH0 DUP3 ADD MLOAD DUP2 PUSH0 ADD SWAP1 DUP2 PUSH2 0xEB SWAP2 SWAP1 PUSH2 0x397 JUMP JUMPDEST POP PUSH1 0x20 DUP3 ADD MLOAD DUP2 PUSH1 0x1 ADD PUSH0 PUSH2 0x100 EXP DUP2 SLOAD DUP2 PUSH1 0xFF MUL NOT AND SWAP1 DUP4 PUSH1 0x2 DUP2 GT ISZERO PUSH2 0x116 JUMPI PUSH2 0x115 PUSH2 0x12D JUMP JUMPDEST JUMPDEST MUL OR SWAP1 SSTORE POP PUSH1 0x40 DUP3 ADD MLOAD DUP2 PUSH1 0x2 ADD SSTORE POP POP POP PUSH2 0x466 JUMP JUMPDEST PUSH32 0x4E487B7100000000000000000000000000000000000000000000000000000000 PUSH0 MSTORE PUSH1 0x21 PUSH1 0x4 MSTORE PUSH1 0x24 PUSH0 REVERT JUMPDEST PUSH0 DUP2 MLOAD SWAP1 POP SWAP2 SWAP1 POP JUMP JUMPDEST PUSH32 0x4E487B7100000000000000000000000000000000000000000000000000000000 PUSH0 MSTORE PUSH1 0x41 PUSH1 0x4 MSTORE PUSH1 0x24 PUSH0 REVERT JUMPDEST PUSH32 0x4E487B7100000000000000000000000000000000000000000000000000000000 PUSH0 MSTORE PUSH1 0x22 PUSH1 0x4 MSTORE PUSH1 0x24 PUSH0 REVERT JUMPDEST PUSH0 PUSH1 0x2 DUP3 DIV SWAP1 POP PUSH1 0x1 DUP3 AND DUP1 PUSH2 0x1D5 JUMPI PUSH1 0x7F DUP3 AND SWAP2 POP JUMPDEST PUSH1 0x20 DUP3 LT DUP2 SUB PUSH2 0x1E8 JUMPI PUSH2 0x1E7 PUSH2 0x191 JUMP JUMPDEST JUMPDEST POP SWAP2 SWAP1 POP JUMP JUMPDEST PUSH0 DUP2 SWAP1 POP DUP2 PUSH0 MSTORE PUSH1 0x20 PUSH0 KECCAK256 SWAP1 POP SWAP2 SWAP1 POP JUMP JUMPDEST PUSH0 PUSH1 0x20 PUSH1 0x1F DUP4 ADD DIV SWAP1 POP SWAP2 SWAP1 POP JUMP JUMPDEST PUSH0 DUP3 DUP3 SHL SWAP1 POP SWAP3 SWAP2 POP POP JUMP JUMPDEST PUSH0 PUSH1 0x8 DUP4 MUL PUSH2 0x24A PUSH32 0xFFFFFFFFFFFFFFFFFFFFFFFFFFFFFFFFFFFFFFFFFFFFFFFFFFFFFFFFFFFFFFFF DUP3 PUSH2 0x20F JUMP JUMPDEST PUSH2 0x254 DUP7 DUP4 PUSH2 0x20F JUMP JUMPDEST SWAP6 POP DUP1 NOT DUP5 AND SWAP4 POP DUP1 DUP7 AND DUP5 OR SWAP3 POP POP POP SWAP4 SWAP3 POP POP POP JUMP JUMPDEST PUSH0 DUP2 SWAP1 POP SWAP2 SWAP1 POP JUMP JUMPDEST PUSH0 DUP2 SWAP1 POP SWAP2 SWAP1 POP JUMP JUMPDEST PUSH0 PUSH2 0x298 PUSH2 0x293 PUSH2 0x28E DUP5 PUSH2 0x26C JUMP JUMPDEST PUSH2 0x275 JUMP JUMPDEST PUSH2 0x26C JUMP JUMPDEST SWAP1 POP SWAP2 SWAP1 POP JUMP JUMPDEST PUSH0 DUP2 SWAP1 POP SWAP2 SWAP1 POP JUMP JUMPDEST PUSH2 0x2B1 DUP4 PUSH2 0x27E JUMP JUMPDEST PUSH2 0x2C5 PUSH2 0x2BD DUP3 PUSH2 0x29F JUMP JUMPDEST DUP5 DUP5 SLOAD PUSH2 0x21B JUMP JUMPDEST DUP3 SSTORE POP POP POP POP JUMP JUMPDEST PUSH0 PUSH0 SWAP1 POP SWAP1 JUMP JUMPDEST PUSH2 0x2DC PUSH2 0x2CD JUMP JUMPDEST PUSH2 0x2E7 DUP2 DUP5 DUP5 PUSH2 0x2A8 JUMP JUMPDEST POP POP POP JUMP JUMPDEST JUMPDEST DUP2 DUP2 LT ISZERO PUSH2 0x30A JUMPI PUSH2 0x2FF PUSH0 DUP3 PUSH2 0x2D4 JUMP JUMPDEST PUSH1 0x1 DUP2 ADD SWAP1 POP PUSH2 0x2ED JUMP JUMPDEST POP POP JUMP JUMPDEST PUSH1 0x1F DUP3 GT ISZERO PUSH2 0x34F JUMPI PUSH2 0x320 DUP2 PUSH2 0x1EE JUMP JUMPDEST PUSH2 0x329 DUP5 PUSH2 0x200 JUMP JUMPDEST DUP2 ADD PUSH1 0x20 DUP6 LT ISZERO PUSH2 0x338 JUMPI DUP2 SWAP1 POP JUMPDEST PUSH2 0x34C PUSH2 0x344 DUP6 PUSH2 0x200 JUMP JUMPDEST DUP4 ADD DUP3 PUSH2 0x2EC JUMP JUMPDEST POP POP JUMPDEST POP POP POP JUMP JUMPDEST PUSH0 DUP3 DUP3 SHR SWAP1 POP SWAP3 SWAP2 POP POP JUMP JUMPDEST PUSH0 PUSH2 0x36F PUSH0 NOT DUP5 PUSH1 0x8 MUL PUSH2 0x354 JUMP JUMPDEST NOT DUP1 DUP4 AND SWAP2 POP POP SWAP3 SWAP2 POP POP JUMP JUMPDEST PUSH0 PUSH2 0x387 DUP4 DUP4 PUSH2 0x360 JUMP JUMPDEST SWAP2 POP DUP3 PUSH1 0x2 MUL DUP3 OR SWAP1 POP SWAP3 SWAP2 POP POP JUMP JUMPDEST PUSH2 0x3A0 DUP3 PUSH2 0x15A JUMP JUMPDEST PUSH8 0xFFFFFFFFFFFFFFFF DUP2 GT ISZERO PUSH2 0x3B9 JUMPI PUSH2 0x3B8 PUSH2 0x164 JUMP JUMPDEST JUMPDEST PUSH2 0x3C3 DUP3 SLOAD PUSH2 0x1BE JUMP JUMPDEST PUSH2 0x3CE DUP3 DUP3 DUP6 PUSH2 0x30E JUMP JUMPDEST PUSH0 PUSH1 0x20 SWAP1 POP PUSH1 0x1F DUP4 GT PUSH1 0x1 DUP2 EQ PUSH2 0x3FF JUMPI PUSH0 DUP5 ISZERO PUSH2 0x3ED JUMPI DUP3 DUP8 ADD MLOAD SWAP1 POP JUMPDEST PUSH2 0x3F7 DUP6 DUP3 PUSH2 0x37C JUMP JUMPDEST DUP7 SSTORE POP PUSH2 0x45E JUMP JUMPDEST PUSH1 0x1F NOT DUP5 AND PUSH2 0x40D DUP7 PUSH2 0x1EE JUMP JUMPDEST PUSH0 JUMPDEST DUP3 DUP2 LT ISZERO PUSH2 0x434 JUMPI DUP5 DUP10 ADD MLOAD DUP3 SSTORE PUSH1 0x1 DUP3 ADD SWAP2 POP PUSH1 0x20 DUP6 ADD SWAP5 POP PUSH1 0x20 DUP2 ADD SWAP1 POP PUSH2 0x40F JUMP JUMPDEST DUP7 DUP4 LT ISZERO PUSH2 0x451 JUMPI DUP5 DUP10 ADD MLOAD PUSH2 0x44D PUSH1 0x1F DUP10 AND DUP3 PUSH2 0x360 JUMP JUMPDEST DUP4 SSTORE POP JUMPDEST PUSH1 0x1 PUSH1 0x2 DUP9 MUL ADD DUP9 SSTORE POP POP POP JUMPDEST POP POP POP POP POP POP JUMP JUMPDEST PUSH2 0x15D3 DUP1 PUSH2 0x473 PUSH0 CODECOPY PUSH0 RETURN INVALID PUSH1 0x80 PUSH1 0x40 MSTORE CALLVALUE DUP1 ISZERO PUSH2 0xF JUMPI PUSH0 PUSH0 REVERT JUMPDEST POP PUSH1 0x4 CALLDATASIZE LT PUSH2 0x7B JUMPI PUSH0 CALLDATALOAD PUSH1 0xE0 SHR DUP1 PUSH4 0x8CDD8902 GT PUSH2 0x59 JUMPI DUP1 PUSH4 0x8CDD8902 EQ PUSH2 0xFB JUMPI DUP1 PUSH4 0x9CA3A5ED EQ PUSH2 0x12B JUMPI DUP1 PUSH4 0xB6820002 EQ PUSH2 0x15D JUMPI DUP1 PUSH4 0xE8F36962 EQ PUSH2 0x179 JUMPI PUSH2 0x7B JUMP JUMPDEST DUP1 PUSH4 0x8C46711 EQ PUSH2 0x7F JUMPI DUP1 PUSH4 0x251101F5 EQ PUSH2 0xAF JUMPI DUP1 PUSH4 0x63FF1368 EQ PUSH2 0xDF JUMPI JUMPDEST PUSH0 PUSH0 REVERT JUMPDEST PUSH2 0x99 PUSH1 0x4 DUP1 CALLDATASIZE SUB DUP2 ADD SWAP1 PUSH2 0x94 SWAP2 SWAP1 PUSH2 0xA9D JUMP JUMPDEST PUSH2 0x1A9 JUMP JUMPDEST PUSH1 0x40 MLOAD PUSH2 0xA6 SWAP2 SWAP1 PUSH2 0xC1A JUMP JUMPDEST PUSH1 0x40 MLOAD DUP1 SWAP2 SUB SWAP1 RETURN JUMPDEST PUSH2 0xC9 PUSH1 0x4 DUP1 CALLDATASIZE SUB DUP2 ADD SWAP1 PUSH2 0xC4 SWAP2 SWAP1 PUSH2 0xC3A JUMP JUMPDEST PUSH2 0x372 JUMP JUMPDEST PUSH1 0x40 MLOAD PUSH2 0xD6 SWAP2 SWAP1 PUSH2 0xD6D JUMP JUMPDEST PUSH1 0x40 MLOAD DUP1 SWAP2 SUB SWAP1 RETURN JUMPDEST PUSH2 0xF9 PUSH1 0x4 DUP1 CALLDATASIZE SUB DUP2 ADD SWAP1 PUSH2 0xF4 SWAP2 SWAP1 PUSH2 0xDB0 JUMP JUMPDEST PUSH2 0x4DD JUMP JUMPDEST STOP JUMPDEST PUSH2 0x115 PUSH1 0x4 DUP1 CALLDATASIZE SUB DUP2 ADD SWAP1 PUSH2 0x110 SWAP2 SWAP1 PUSH2 0xDEE JUMP JUMPDEST PUSH2 0x5D7 JUMP JUMPDEST PUSH1 0x40 MLOAD PUSH2 0x122 SWAP2 SWAP1 PUSH2 0xC1A JUMP JUMPDEST PUSH1 0x40 MLOAD DUP1 SWAP2 SUB SWAP1 RETURN JUMPDEST PUSH2 0x145 PUSH1 0x4 DUP1 CALLDATASIZE SUB DUP2 ADD SWAP1 PUSH2 0x140 SWAP2 SWAP1 PUSH2 0xA9D JUMP JUMPDEST PUSH2 0x5F0 JUMP JUMPDEST PUSH1 0x40 MLOAD PUSH2 0x154 SWAP4 SWAP3 SWAP2 SWAP1 PUSH2 0xE7F JUMP JUMPDEST PUSH1 0x40 MLOAD DUP1 SWAP2 SUB SWAP1 RETURN JUMPDEST PUSH2 0x177 PUSH1 0x4 DUP1 CALLDATASIZE SUB DUP2 ADD SWAP1 PUSH2 0x172 SWAP2 SWAP1 PUSH2 0xFE7 JUMP JUMPDEST PUSH2 0x6C1 JUMP JUMPDEST STOP JUMPDEST PUSH2 0x193 PUSH1 0x4 DUP1 CALLDATASIZE SUB DUP2 ADD SWAP1 PUSH2 0x18E SWAP2 SWAP1 PUSH2 0x1041 JUMP JUMPDEST PUSH2 0x896 JUMP JUMPDEST PUSH1 0x40 MLOAD PUSH2 0x1A0 SWAP2 SWAP1 PUSH2 0x109B JUMP JUMPDEST PUSH1 0x40 MLOAD DUP1 SWAP2 SUB SWAP1 RETURN JUMPDEST PUSH2 0x1B1 PUSH2 0x9CE JUMP JUMPDEST PUSH0 PUSH0 DUP5 PUSH20 0xFFFFFFFFFFFFFFFFFFFFFFFFFFFFFFFFFFFFFFFF AND PUSH20 0xFFFFFFFFFFFFFFFFFFFFFFFFFFFFFFFFFFFFFFFF AND DUP2 MSTORE PUSH1 0x20 ADD SWAP1 DUP2 MSTORE PUSH1 0x20 ADD PUSH0 KECCAK256 DUP1 SLOAD SWAP1 POP DUP3 LT PUSH2 0x232 JUMPI PUSH1 0x40 MLOAD PUSH32 0x8C379A000000000000000000000000000000000000000000000000000000000 DUP2 MSTORE PUSH1 0x4 ADD PUSH2 0x229 SWAP1 PUSH2 0x10FE JUMP JUMPDEST PUSH1 0x40 MLOAD DUP1 SWAP2 SUB SWAP1 REVERT JUMPDEST PUSH0 PUSH0 DUP5 PUSH20 0xFFFFFFFFFFFFFFFFFFFFFFFFFFFFFFFFFFFFFFFF AND PUSH20 0xFFFFFFFFFFFFFFFFFFFFFFFFFFFFFFFFFFFFFFFF AND DUP2 MSTORE PUSH1 0x20 ADD SWAP1 DUP2 MSTORE PUSH1 0x20 ADD PUSH0 KECCAK256 DUP3 DUP2 SLOAD DUP2 LT PUSH2 0x280 JUMPI PUSH2 0x27F PUSH2 0x111C JUMP JUMPDEST JUMPDEST SWAP1 PUSH0 MSTORE PUSH1 0x20 PUSH0 KECCAK256 SWAP1 PUSH1 0x3 MUL ADD PUSH1 0x40 MLOAD DUP1 PUSH1 0x60 ADD PUSH1 0x40 MSTORE SWAP1 DUP2 PUSH0 DUP3 ADD DUP1 SLOAD PUSH2 0x2A6 SWAP1 PUSH2 0x1176 JUMP JUMPDEST DUP1 PUSH1 0x1F ADD PUSH1 0x20 DUP1 SWAP2 DIV MUL PUSH1 0x20 ADD PUSH1 0x40 MLOAD SWAP1 DUP2 ADD PUSH1 0x40 MSTORE DUP1 SWAP3 SWAP2 SWAP1 DUP2 DUP2 MSTORE PUSH1 0x20 ADD DUP3 DUP1 SLOAD PUSH2 0x2D2 SWAP1 PUSH2 0x1176 JUMP JUMPDEST DUP1 ISZERO PUSH2 0x31D JUMPI DUP1 PUSH1 0x1F LT PUSH2 0x2F4 JUMPI PUSH2 0x100 DUP1 DUP4 SLOAD DIV MUL DUP4 MSTORE SWAP2 PUSH1 0x20 ADD SWAP2 PUSH2 0x31D JUMP JUMPDEST DUP3 ADD SWAP2 SWAP1 PUSH0 MSTORE PUSH1 0x20 PUSH0 KECCAK256 SWAP1 JUMPDEST DUP2 SLOAD DUP2 MSTORE SWAP1 PUSH1 0x1 ADD SWAP1 PUSH1 0x20 ADD DUP1 DUP4 GT PUSH2 0x300 JUMPI DUP3 SWAP1 SUB PUSH1 0x1F AND DUP3 ADD SWAP2 JUMPDEST POP POP POP POP POP DUP2 MSTORE PUSH1 0x20 ADD PUSH1 0x1 DUP3 ADD PUSH0 SWAP1 SLOAD SWAP1 PUSH2 0x100 EXP SWAP1 DIV PUSH1 0xFF AND PUSH1 0x2 DUP2 GT ISZERO PUSH2 0x34A JUMPI PUSH2 0x349 PUSH2 0xB4B JUMP JUMPDEST JUMPDEST PUSH1 0x2 DUP2 GT ISZERO PUSH2 0x35C JUMPI PUSH2 0x35B PUSH2 0xB4B JUMP JUMPDEST JUMPDEST DUP2 MSTORE PUSH1 0x20 ADD PUSH1 0x2 DUP3 ADD SLOAD DUP2 MSTORE POP POP SWAP1 POP SWAP3 SWAP2 POP POP JUMP JUMPDEST PUSH1 0x60 PUSH0 PUSH0 DUP4 PUSH20 0xFFFFFFFFFFFFFFFFFFFFFFFFFFFFFFFFFFFFFFFF AND PUSH20 0xFFFFFFFFFFFFFFFFFFFFFFFFFFFFFFFFFFFFFFFF AND DUP2 MSTORE PUSH1 0x20 ADD SWAP1 DUP2 MSTORE PUSH1 0x20 ADD PUSH0 KECCAK256 DUP1 SLOAD DUP1 PUSH1 0x20 MUL PUSH1 0x20 ADD PUSH1 0x40 MLOAD SWAP1 DUP2 ADD PUSH1 0x40 MSTORE DUP1 SWAP3 SWAP2 SWAP1 DUP2 DUP2 MSTORE PUSH1 0x20 ADD PUSH0 SWAP1 JUMPDEST DUP3 DUP3 LT ISZERO PUSH2 0x4D2 JUMPI DUP4 DUP3 SWAP1 PUSH0 MSTORE PUSH1 0x20 PUSH0 KECCAK256 SWAP1 PUSH1 0x3 MUL ADD PUSH1 0x40 MLOAD DUP1 PUSH1 0x60 ADD PUSH1 0x40 MSTORE SWAP1 DUP2 PUSH0 DUP3 ADD DUP1 SLOAD PUSH2 0x3FF SWAP1 PUSH2 0x1176 JUMP JUMPDEST DUP1 PUSH1 0x1F ADD PUSH1 0x20 DUP1 SWAP2 DIV MUL PUSH1 0x20 ADD PUSH1 0x40 MLOAD SWAP1 DUP2 ADD PUSH1 0x40 MSTORE DUP1 SWAP3 SWAP2 SWAP1 DUP2 DUP2 MSTORE PUSH1 0x20 ADD DUP3 DUP1 SLOAD PUSH2 0x42B SWAP1 PUSH2 0x1176 JUMP JUMPDEST DUP1 ISZERO PUSH2 0x476 JUMPI DUP1 PUSH1 0x1F LT PUSH2 0x44D JUMPI PUSH2 0x100 DUP1 DUP4 SLOAD DIV MUL DUP4 MSTORE SWAP2 PUSH1 0x20 ADD SWAP2 PUSH2 0x476 JUMP JUMPDEST DUP3 ADD SWAP2 SWAP1 PUSH0 MSTORE PUSH1 0x20 PUSH0 KECCAK256 SWAP1 JUMPDEST DUP2 SLOAD DUP2 MSTORE SWAP1 PUSH1 0x1 ADD SWAP1 PUSH1 0x20 ADD DUP1 DUP4 GT PUSH2 0x459 JUMPI DUP3 SWAP1 SUB PUSH1 0x1F AND DUP3 ADD SWAP2 JUMPDEST POP POP POP POP POP DUP2 MSTORE PUSH1 0x20 ADD PUSH1 0x1 DUP3 ADD PUSH0 SWAP1 SLOAD SWAP1 PUSH2 0x100 EXP SWAP1 DIV PUSH1 0xFF AND PUSH1 0x2 DUP2 GT ISZERO PUSH2 0x4A3 JUMPI PUSH2 0x4A2 PUSH2 0xB4B JUMP JUMPDEST JUMPDEST PUSH1 0x2 DUP2 GT ISZERO PUSH2 0x4B5 JUMPI PUSH2 0x4B4 PUSH2 0xB4B JUMP JUMPDEST JUMPDEST DUP2 MSTORE PUSH1 0x20 ADD PUSH1 0x2 DUP3 ADD SLOAD DUP2 MSTORE POP POP DUP2 MSTORE PUSH1 0x20 ADD SWAP1 PUSH1 0x1 ADD SWAP1 PUSH2 0x3CF JUMP JUMPDEST POP POP POP POP SWAP1 POP SWAP2 SWAP1 POP JUMP JUMPDEST DUP1 PUSH0 PUSH0 CALLER PUSH20 0xFFFFFFFFFFFFFFFFFFFFFFFFFFFFFFFFFFFFFFFF AND PUSH20 0xFFFFFFFFFFFFFFFFFFFFFFFFFFFFFFFFFFFFFFFF AND DUP2 MSTORE PUSH1 0x20 ADD SWAP1 DUP2 MSTORE PUSH1 0x20 ADD PUSH0 KECCAK256 DUP4 DUP2 SLOAD DUP2 LT PUSH2 0x52C JUMPI PUSH2 0x52B PUSH2 0x111C JUMP JUMPDEST JUMPDEST SWAP1 PUSH0 MSTORE PUSH1 0x20 PUSH0 KECCAK256 SWAP1 PUSH1 0x3 MUL ADD PUSH1 0x1 ADD PUSH0 PUSH2 0x100 EXP DUP2 SLOAD DUP2 PUSH1 0xFF MUL NOT AND SWAP1 DUP4 PUSH1 0x2 DUP2 GT ISZERO PUSH2 0x55C JUMPI PUSH2 0x55B PUSH2 0xB4B JUMP JUMPDEST JUMPDEST MUL OR SWAP1 SSTORE POP PUSH0 PUSH0 CALLER PUSH20 0xFFFFFFFFFFFFFFFFFFFFFFFFFFFFFFFFFFFFFFFF AND PUSH20 0xFFFFFFFFFFFFFFFFFFFFFFFFFFFFFFFFFFFFFFFF AND DUP2 MSTORE PUSH1 0x20 ADD SWAP1 DUP2 MSTORE PUSH1 0x20 ADD PUSH0 KECCAK256 DUP3 DUP2 SLOAD DUP2 LT PUSH2 0x5AF JUMPI PUSH2 0x5AE PUSH2 0x111C JUMP JUMPDEST JUMPDEST SWAP1 PUSH0 MSTORE PUSH1 0x20 PUSH0 KECCAK256 SWAP1 PUSH1 0x3 MUL ADD PUSH1 0x2 ADD PUSH0 DUP2 SLOAD DUP1 SWAP3 SWAP2 SWAP1 PUSH2 0x5CE SWAP1 PUSH2 0x11D3 JUMP JUMPDEST SWAP2 SWAP1 POP SSTORE POP POP POP JUMP JUMPDEST PUSH2 0x5DF PUSH2 0x9CE JUMP JUMPDEST PUSH2 0x5E9 CALLER DUP4 PUSH2 0x1A9 JUMP JUMPDEST SWAP1 POP SWAP2 SWAP1 POP JUMP JUMPDEST PUSH0 PUSH1 0x20 MSTORE DUP2 PUSH0 MSTORE PUSH1 0x40 PUSH0 KECCAK256 DUP2 DUP2 SLOAD DUP2 LT PUSH2 0x608 JUMPI PUSH0 DUP1 REVERT JUMPDEST SWAP1 PUSH0 MSTORE PUSH1 0x20 PUSH0 KECCAK256 SWAP1 PUSH1 0x3 MUL ADD PUSH0 SWAP2 POP SWAP2 POP POP DUP1 PUSH0 ADD DUP1 SLOAD PUSH2 0x628 SWAP1 PUSH2 0x1176 JUMP JUMPDEST DUP1 PUSH1 0x1F ADD PUSH1 0x20 DUP1 SWAP2 DIV MUL PUSH1 0x20 ADD PUSH1 0x40 MLOAD SWAP1 DUP2 ADD PUSH1 0x40 MSTORE DUP1 SWAP3 SWAP2 SWAP1 DUP2 DUP2 MSTORE PUSH1 0x20 ADD DUP3 DUP1 SLOAD PUSH2 0x654 SWAP1 PUSH2 0x1176 JUMP JUMPDEST DUP1 ISZERO PUSH2 0x69F JUMPI DUP1 PUSH1 0x1F LT PUSH2 0x676 JUMPI PUSH2 0x100 DUP1 DUP4 SLOAD DIV MUL DUP4 MSTORE SWAP2 PUSH1 0x20 ADD SWAP2 PUSH2 0x69F JUMP JUMPDEST DUP3 ADD SWAP2 SWAP1 PUSH0 MSTORE PUSH1 0x20 PUSH0 KECCAK256 SWAP1 JUMPDEST DUP2 SLOAD DUP2 MSTORE SWAP1 PUSH1 0x1 ADD SWAP1 PUSH1 0x20 ADD DUP1 DUP4 GT PUSH2 0x682 JUMPI DUP3 SWAP1 SUB PUSH1 0x1F AND DUP3 ADD SWAP2 JUMPDEST POP POP POP POP POP SWAP1 DUP1 PUSH1 0x1 ADD PUSH0 SWAP1 SLOAD SWAP1 PUSH2 0x100 EXP SWAP1 DIV PUSH1 0xFF AND SWAP1 DUP1 PUSH1 0x2 ADD SLOAD SWAP1 POP DUP4 JUMP JUMPDEST PUSH0 PUSH0 CALLER PUSH20 0xFFFFFFFFFFFFFFFFFFFFFFFFFFFFFFFFFFFFFFFF AND PUSH20 0xFFFFFFFFFFFFFFFFFFFFFFFFFFFFFFFFFFFFFFFF AND DUP2 MSTORE PUSH1 0x20 ADD SWAP1 DUP2 MSTORE PUSH1 0x20 ADD PUSH0 KECCAK256 DUP3 DUP2 SLOAD DUP2 LT PUSH2 0x70F JUMPI PUSH2 0x70E PUSH2 0x111C JUMP JUMPDEST JUMPDEST SWAP1 PUSH0 MSTORE PUSH1 0x20 PUSH0 KECCAK256 SWAP1 PUSH1 0x3 MUL ADD PUSH1 0x2 ADD PUSH0 DUP2 SLOAD DUP1 SWAP3 SWAP2 SWAP1 PUSH2 0x72E SWAP1 PUSH2 0x11D3 JUMP JUMPDEST SWAP2 SWAP1 POP SSTORE POP PUSH32 0xEB0C5CFCB1D1A12C404C7BFCEAC5A0DC8EC8C2DA31ABAF3536A58433B2C561CE CALLER PUSH0 PUSH0 CALLER PUSH20 0xFFFFFFFFFFFFFFFFFFFFFFFFFFFFFFFFFFFFFFFF AND PUSH20 0xFFFFFFFFFFFFFFFFFFFFFFFFFFFFFFFFFFFFFFFF AND DUP2 MSTORE PUSH1 0x20 ADD SWAP1 DUP2 MSTORE PUSH1 0x20 ADD PUSH0 KECCAK256 DUP5 DUP2 SLOAD DUP2 LT PUSH2 0x7A3 JUMPI PUSH2 0x7A2 PUSH2 0x111C JUMP JUMPDEST JUMPDEST SWAP1 PUSH0 MSTORE PUSH1 0x20 PUSH0 KECCAK256 SWAP1 PUSH1 0x3 MUL ADD PUSH1 0x2 ADD SLOAD PUSH0 PUSH0 CALLER PUSH20 0xFFFFFFFFFFFFFFFFFFFFFFFFFFFFFFFFFFFFFFFF AND PUSH20 0xFFFFFFFFFFFFFFFFFFFFFFFFFFFFFFFFFFFFFFFF AND DUP2 MSTORE PUSH1 0x20 ADD SWAP1 DUP2 MSTORE PUSH1 0x20 ADD PUSH0 KECCAK256 DUP6 DUP2 SLOAD DUP2 LT PUSH2 0x801 JUMPI PUSH2 0x800 PUSH2 0x111C JUMP JUMPDEST JUMPDEST SWAP1 PUSH0 MSTORE PUSH1 0x20 PUSH0 KECCAK256 SWAP1 PUSH1 0x3 MUL ADD PUSH0 ADD DUP5 PUSH1 0x40 MLOAD PUSH2 0x820 SWAP5 SWAP4 SWAP3 SWAP2 SWAP1 PUSH2 0x12BC JUMP JUMPDEST PUSH1 0x40 MLOAD DUP1 SWAP2 SUB SWAP1 LOG1 DUP1 PUSH0 PUSH0 CALLER PUSH20 0xFFFFFFFFFFFFFFFFFFFFFFFFFFFFFFFFFFFFFFFF AND PUSH20 0xFFFFFFFFFFFFFFFFFFFFFFFFFFFFFFFFFFFFFFFF AND DUP2 MSTORE PUSH1 0x20 ADD SWAP1 DUP2 MSTORE PUSH1 0x20 ADD PUSH0 KECCAK256 DUP4 DUP2 SLOAD DUP2 LT PUSH2 0x877 JUMPI PUSH2 0x876 PUSH2 0x111C JUMP JUMPDEST JUMPDEST SWAP1 PUSH0 MSTORE PUSH1 0x20 PUSH0 KECCAK256 SWAP1 PUSH1 0x3 MUL ADD PUSH0 ADD SWAP1 DUP2 PUSH2 0x891 SWAP2 SWAP1 PUSH2 0x149B JUMP JUMPDEST POP POP POP JUMP JUMPDEST PUSH0 PUSH0 PUSH1 0x40 MLOAD DUP1 PUSH1 0x60 ADD PUSH1 0x40 MSTORE DUP1 DUP5 DUP2 MSTORE PUSH1 0x20 ADD DUP6 PUSH1 0x2 DUP2 GT ISZERO PUSH2 0x8BC JUMPI PUSH2 0x8BB PUSH2 0xB4B JUMP JUMPDEST JUMPDEST DUP2 MSTORE PUSH1 0x20 ADD PUSH0 DUP2 MSTORE POP SWAP1 POP PUSH0 PUSH0 CALLER PUSH20 0xFFFFFFFFFFFFFFFFFFFFFFFFFFFFFFFFFFFFFFFF AND PUSH20 0xFFFFFFFFFFFFFFFFFFFFFFFFFFFFFFFFFFFFFFFF AND DUP2 MSTORE PUSH1 0x20 ADD SWAP1 DUP2 MSTORE PUSH1 0x20 ADD PUSH0 KECCAK256 DUP2 SWAP1 DUP1 PUSH1 0x1 DUP2 SLOAD ADD DUP1 DUP3 SSTORE DUP1 SWAP2 POP POP PUSH1 0x1 SWAP1 SUB SWAP1 PUSH0 MSTORE PUSH1 0x20 PUSH0 KECCAK256 SWAP1 PUSH1 0x3 MUL ADD PUSH0 SWAP1 SWAP2 SWAP1 SWAP2 SWAP1 SWAP2 POP PUSH0 DUP3 ADD MLOAD DUP2 PUSH0 ADD SWAP1 DUP2 PUSH2 0x93D SWAP2 SWAP1 PUSH2 0x149B JUMP JUMPDEST POP PUSH1 0x20 DUP3 ADD MLOAD DUP2 PUSH1 0x1 ADD PUSH0 PUSH2 0x100 EXP DUP2 SLOAD DUP2 PUSH1 0xFF MUL NOT AND SWAP1 DUP4 PUSH1 0x2 DUP2 GT ISZERO PUSH2 0x968 JUMPI PUSH2 0x967 PUSH2 0xB4B JUMP JUMPDEST JUMPDEST MUL OR SWAP1 SSTORE POP PUSH1 0x40 DUP3 ADD MLOAD DUP2 PUSH1 0x2 ADD SSTORE POP POP PUSH1 0x1 PUSH0 PUSH0 CALLER PUSH20 0xFFFFFFFFFFFFFFFFFFFFFFFFFFFFFFFFFFFFFFFF AND PUSH20 0xFFFFFFFFFFFFFFFFFFFFFFFFFFFFFFFFFFFFFFFF AND DUP2 MSTORE PUSH1 0x20 ADD SWAP1 DUP2 MSTORE PUSH1 0x20 ADD PUSH0 KECCAK256 DUP1 SLOAD SWAP1 POP PUSH2 0x9C5 SWAP2 SWAP1 PUSH2 0x156A JUMP JUMPDEST SWAP2 POP POP SWAP3 SWAP2 POP POP JUMP JUMPDEST PUSH1 0x40 MLOAD DUP1 PUSH1 0x60 ADD PUSH1 0x40 MSTORE DUP1 PUSH1 0x60 DUP2 MSTORE PUSH1 0x20 ADD PUSH0 PUSH1 0x2 DUP2 GT ISZERO PUSH2 0x9F3 JUMPI PUSH2 0x9F2 PUSH2 0xB4B JUMP JUMPDEST JUMPDEST DUP2 MSTORE PUSH1 0x20 ADD PUSH0 DUP2 MSTORE POP SWAP1 JUMP JUMPDEST PUSH0 PUSH1 0x40 MLOAD SWAP1 POP SWAP1 JUMP JUMPDEST PUSH0 PUSH0 REVERT JUMPDEST PUSH0 PUSH0 REVERT JUMPDEST PUSH0 PUSH20 0xFFFFFFFFFFFFFFFFFFFFFFFFFFFFFFFFFFFFFFFF DUP3 AND SWAP1 POP SWAP2 SWAP1 POP JUMP JUMPDEST PUSH0 PUSH2 0xA39 DUP3 PUSH2 0xA10 JUMP JUMPDEST SWAP1 POP SWAP2 SWAP1 POP JUMP JUMPDEST PUSH2 0xA49 DUP2 PUSH2 0xA2F JUMP JUMPDEST DUP2 EQ PUSH2 0xA53 JUMPI PUSH0 PUSH0 REVERT JUMPDEST POP JUMP JUMPDEST PUSH0 DUP2 CALLDATALOAD SWAP1 POP PUSH2 0xA64 DUP2 PUSH2 0xA40 JUMP JUMPDEST SWAP3 SWAP2 POP POP JUMP JUMPDEST PUSH0 DUP2 SWAP1 POP SWAP2 SWAP1 POP JUMP JUMPDEST PUSH2 0xA7C DUP2 PUSH2 0xA6A JUMP JUMPDEST DUP2 EQ PUSH2 0xA86 JUMPI PUSH0 PUSH0 REVERT JUMPDEST POP JUMP JUMPDEST PUSH0 DUP2 CALLDATALOAD SWAP1 POP PUSH2 0xA97 DUP2 PUSH2 0xA73 JUMP JUMPDEST SWAP3 SWAP2 POP POP JUMP JUMPDEST PUSH0 PUSH0 PUSH1 0x40 DUP4 DUP6 SUB SLT ISZERO PUSH2 0xAB3 JUMPI PUSH2 0xAB2 PUSH2 0xA08 JUMP JUMPDEST JUMPDEST PUSH0 PUSH2 0xAC0 DUP6 DUP3 DUP7 ADD PUSH2 0xA56 JUMP JUMPDEST SWAP3 POP POP PUSH1 0x20 PUSH2 0xAD1 DUP6 DUP3 DUP7 ADD PUSH2 0xA89 JUMP JUMPDEST SWAP2 POP POP SWAP3 POP SWAP3 SWAP1 POP JUMP JUMPDEST PUSH0 DUP2 MLOAD SWAP1 POP SWAP2 SWAP1 POP JUMP JUMPDEST PUSH0 DUP3 DUP3 MSTORE PUSH1 0x20 DUP3 ADD SWAP1 POP SWAP3 SWAP2 POP POP JUMP JUMPDEST DUP3 DUP2 DUP4 MCOPY PUSH0 DUP4 DUP4 ADD MSTORE POP POP POP JUMP JUMPDEST PUSH0 PUSH1 0x1F NOT PUSH1 0x1F DUP4 ADD AND SWAP1 POP SWAP2 SWAP1 POP JUMP JUMPDEST PUSH0 PUSH2 0xB1D DUP3 PUSH2 0xADB JUMP JUMPDEST PUSH2 0xB27 DUP2 DUP6 PUSH2 0xAE5 JUMP JUMPDEST SWAP4 POP PUSH2 0xB37 DUP2 DUP6 PUSH1 0x20 DUP7 ADD PUSH2 0xAF5 JUMP JUMPDEST PUSH2 0xB40 DUP2 PUSH2 0xB03 JUMP JUMPDEST DUP5 ADD SWAP2 POP POP SWAP3 SWAP2 POP POP JUMP JUMPDEST PUSH32 0x4E487B7100000000000000000000000000000000000000000000000000000000 PUSH0 MSTORE PUSH1 0x21 PUSH1 0x4 MSTORE PUSH1 0x24 PUSH0 REVERT JUMPDEST PUSH1 0x3 DUP2 LT PUSH2 0xB89 JUMPI PUSH2 0xB88 PUSH2 0xB4B JUMP JUMPDEST JUMPDEST POP JUMP JUMPDEST PUSH0 DUP2 SWAP1 POP PUSH2 0xB99 DUP3 PUSH2 0xB78 JUMP JUMPDEST SWAP2 SWAP1 POP JUMP JUMPDEST PUSH0 PUSH2 0xBA8 DUP3 PUSH2 0xB8C JUMP JUMPDEST SWAP1 POP SWAP2 SWAP1 POP JUMP JUMPDEST PUSH2 0xBB8 DUP2 PUSH2 0xB9E JUMP JUMPDEST DUP3 MSTORE POP POP JUMP JUMPDEST PUSH2 0xBC7 DUP2 PUSH2 0xA6A JUMP JUMPDEST DUP3 MSTORE POP POP JUMP JUMPDEST PUSH0 PUSH1 0x60 DUP4 ADD PUSH0 DUP4 ADD MLOAD DUP5 DUP3 SUB PUSH0 DUP7 ADD MSTORE PUSH2 0xBE7 DUP3 DUP3 PUSH2 0xB13 JUMP JUMPDEST SWAP2 POP POP PUSH1 0x20 DUP4 ADD MLOAD PUSH2 0xBFC PUSH1 0x20 DUP7 ADD DUP3 PUSH2 0xBAF JUMP JUMPDEST POP PUSH1 0x40 DUP4 ADD MLOAD PUSH2 0xC0F PUSH1 0x40 DUP7 ADD DUP3 PUSH2 0xBBE JUMP JUMPDEST POP DUP1 SWAP2 POP POP SWAP3 SWAP2 POP POP JUMP JUMPDEST PUSH0 PUSH1 0x20 DUP3 ADD SWAP1 POP DUP2 DUP2 SUB PUSH0 DUP4 ADD MSTORE PUSH2 0xC32 DUP2 DUP5 PUSH2 0xBCD JUMP JUMPDEST SWAP1 POP SWAP3 SWAP2 POP POP JUMP JUMPDEST PUSH0 PUSH1 0x20 DUP3 DUP5 SUB SLT ISZERO PUSH2 0xC4F JUMPI PUSH2 0xC4E PUSH2 0xA08 JUMP JUMPDEST JUMPDEST PUSH0 PUSH2 0xC5C DUP5 DUP3 DUP6 ADD PUSH2 0xA56 JUMP JUMPDEST SWAP2 POP POP SWAP3 SWAP2 POP POP JUMP JUMPDEST PUSH0 DUP2 MLOAD SWAP1 POP SWAP2 SWAP1 POP JUMP JUMPDEST PUSH0 DUP3 DUP3 MSTORE PUSH1 0x20 DUP3 ADD SWAP1 POP SWAP3 SWAP2 POP POP JUMP JUMPDEST PUSH0 DUP2 SWAP1 POP PUSH1 0x20 DUP3 ADD SWAP1 POP SWAP2 SWAP1 POP JUMP JUMPDEST PUSH0 PUSH1 0x60 DUP4 ADD PUSH0 DUP4 ADD MLOAD DUP5 DUP3 SUB PUSH0 DUP7 ADD MSTORE PUSH2 0xCA8 DUP3 DUP3 PUSH2 0xB13 JUMP JUMPDEST SWAP2 POP POP PUSH1 0x20 DUP4 ADD MLOAD PUSH2 0xCBD PUSH1 0x20 DUP7 ADD DUP3 PUSH2 0xBAF JUMP JUMPDEST POP PUSH1 0x40 DUP4 ADD MLOAD PUSH2 0xCD0 PUSH1 0x40 DUP7 ADD DUP3 PUSH2 0xBBE JUMP JUMPDEST POP DUP1 SWAP2 POP POP SWAP3 SWAP2 POP POP JUMP JUMPDEST PUSH0 PUSH2 0xCE6 DUP4 DUP4 PUSH2 0xC8E JUMP JUMPDEST SWAP1 POP SWAP3 SWAP2 POP POP JUMP JUMPDEST PUSH0 PUSH1 0x20 DUP3 ADD SWAP1 POP SWAP2 SWAP1 POP JUMP JUMPDEST PUSH0 PUSH2 0xD04 DUP3 PUSH2 0xC65 JUMP JUMPDEST PUSH2 0xD0E DUP2 DUP6 PUSH2 0xC6F JUMP JUMPDEST SWAP4 POP DUP4 PUSH1 0x20 DUP3 MUL DUP6 ADD PUSH2 0xD20 DUP6 PUSH2 0xC7F JUMP JUMPDEST DUP1 PUSH0 JUMPDEST DUP6 DUP2 LT ISZERO PUSH2 0xD5B JUMPI DUP5 DUP5 SUB DUP10 MSTORE DUP2 MLOAD PUSH2 0xD3C DUP6 DUP3 PUSH2 0xCDB JUMP JUMPDEST SWAP5 POP PUSH2 0xD47 DUP4 PUSH2 0xCEE JUMP JUMPDEST SWAP3 POP PUSH1 0x20 DUP11 ADD SWAP10 POP POP PUSH1 0x1 DUP2 ADD SWAP1 POP PUSH2 0xD23 JUMP JUMPDEST POP DUP3 SWAP8 POP DUP8 SWAP6 POP POP POP POP POP POP SWAP3 SWAP2 POP POP JUMP JUMPDEST PUSH0 PUSH1 0x20 DUP3 ADD SWAP1 POP DUP2 DUP2 SUB PUSH0 DUP4 ADD MSTORE PUSH2 0xD85 DUP2 DUP5 PUSH2 0xCFA JUMP JUMPDEST SWAP1 POP SWAP3 SWAP2 POP POP JUMP JUMPDEST PUSH1 0x3 DUP2 LT PUSH2 0xD99 JUMPI PUSH0 PUSH0 REVERT JUMPDEST POP JUMP JUMPDEST PUSH0 DUP2 CALLDATALOAD SWAP1 POP PUSH2 0xDAA DUP2 PUSH2 0xD8D JUMP JUMPDEST SWAP3 SWAP2 POP POP JUMP JUMPDEST PUSH0 PUSH0 PUSH1 0x40 DUP4 DUP6 SUB SLT ISZERO PUSH2 0xDC6 JUMPI PUSH2 0xDC5 PUSH2 0xA08 JUMP JUMPDEST JUMPDEST PUSH0 PUSH2 0xDD3 DUP6 DUP3 DUP7 ADD PUSH2 0xA89 JUMP JUMPDEST SWAP3 POP POP PUSH1 0x20 PUSH2 0xDE4 DUP6 DUP3 DUP7 ADD PUSH2 0xD9C JUMP JUMPDEST SWAP2 POP POP SWAP3 POP SWAP3 SWAP1 POP JUMP JUMPDEST PUSH0 PUSH1 0x20 DUP3 DUP5 SUB SLT ISZERO PUSH2 0xE03 JUMPI PUSH2 0xE02 PUSH2 0xA08 JUMP JUMPDEST JUMPDEST PUSH0 PUSH2 0xE10 DUP5 DUP3 DUP6 ADD PUSH2 0xA89 JUMP JUMPDEST SWAP2 POP POP SWAP3 SWAP2 POP POP JUMP JUMPDEST PUSH0 DUP3 DUP3 MSTORE PUSH1 0x20 DUP3 ADD SWAP1 POP SWAP3 SWAP2 POP POP JUMP JUMPDEST PUSH0 PUSH2 0xE33 DUP3 PUSH2 0xADB JUMP JUMPDEST PUSH2 0xE3D DUP2 DUP6 PUSH2 0xE19 JUMP JUMPDEST SWAP4 POP PUSH2 0xE4D DUP2 DUP6 PUSH1 0x20 DUP7 ADD PUSH2 0xAF5 JUMP JUMPDEST PUSH2 0xE56 DUP2 PUSH2 0xB03 JUMP JUMPDEST DUP5 ADD SWAP2 POP POP SWAP3 SWAP2 POP POP JUMP JUMPDEST PUSH2 0xE6A DUP2 PUSH2 0xB9E JUMP JUMPDEST DUP3 MSTORE POP POP JUMP JUMPDEST PUSH2 0xE79 DUP2 PUSH2 0xA6A JUMP JUMPDEST DUP3 MSTORE POP POP JUMP JUMPDEST PUSH0 PUSH1 0x60 DUP3 ADD SWAP1 POP DUP2 DUP2 SUB PUSH0 DUP4 ADD MSTORE PUSH2 0xE97 DUP2 DUP7 PUSH2 0xE29 JUMP JUMPDEST SWAP1 POP PUSH2 0xEA6 PUSH1 0x20 DUP4 ADD DUP6 PUSH2 0xE61 JUMP JUMPDEST PUSH2 0xEB3 PUSH1 0x40 DUP4 ADD DUP5 PUSH2 0xE70 JUMP JUMPDEST SWAP5 SWAP4 POP POP POP POP JUMP JUMPDEST PUSH0 PUSH0 REVERT JUMPDEST PUSH0 PUSH0 REVERT JUMPDEST PUSH32 0x4E487B7100000000000000000000000000000000000000000000000000000000 PUSH0 MSTORE PUSH1 0x41 PUSH1 0x4 MSTORE PUSH1 0x24 PUSH0 REVERT JUMPDEST PUSH2 0xEF9 DUP3 PUSH2 0xB03 JUMP JUMPDEST DUP2 ADD DUP2 DUP2 LT PUSH8 0xFFFFFFFFFFFFFFFF DUP3 GT OR ISZERO PUSH2 0xF18 JUMPI PUSH2 0xF17 PUSH2 0xEC3 JUMP JUMPDEST JUMPDEST DUP1 PUSH1 0x40 MSTORE POP POP POP JUMP JUMPDEST PUSH0 PUSH2 0xF2A PUSH2 0x9FF JUMP JUMPDEST SWAP1 POP PUSH2 0xF36 DUP3 DUP3 PUSH2 0xEF0 JUMP JUMPDEST SWAP2 SWAP1 POP JUMP JUMPDEST PUSH0 PUSH8 0xFFFFFFFFFFFFFFFF DUP3 GT ISZERO PUSH2 0xF55 JUMPI PUSH2 0xF54 PUSH2 0xEC3 JUMP JUMPDEST JUMPDEST PUSH2 0xF5E DUP3 PUSH2 0xB03 JUMP JUMPDEST SWAP1 POP PUSH1 0x20 DUP2 ADD SWAP1 POP SWAP2 SWAP1 POP JUMP JUMPDEST DUP3 DUP2 DUP4 CALLDATACOPY PUSH0 DUP4 DUP4 ADD MSTORE POP POP POP JUMP JUMPDEST PUSH0 PUSH2 0xF8B PUSH2 0xF86 DUP5 PUSH2 0xF3B JUMP JUMPDEST PUSH2 0xF21 JUMP JUMPDEST SWAP1 POP DUP3 DUP2 MSTORE PUSH1 0x20 DUP2 ADD DUP5 DUP5 DUP5 ADD GT ISZERO PUSH2 0xFA7 JUMPI PUSH2 0xFA6 PUSH2 0xEBF JUMP JUMPDEST JUMPDEST PUSH2 0xFB2 DUP5 DUP3 DUP6 PUSH2 0xF6B JUMP JUMPDEST POP SWAP4 SWAP3 POP POP POP JUMP JUMPDEST PUSH0 DUP3 PUSH1 0x1F DUP4 ADD SLT PUSH2 0xFCE JUMPI PUSH2 0xFCD PUSH2 0xEBB JUMP JUMPDEST JUMPDEST DUP2 CALLDATALOAD PUSH2 0xFDE DUP5 DUP3 PUSH1 0x20 DUP7 ADD PUSH2 0xF79 JUMP JUMPDEST SWAP2 POP POP SWAP3 SWAP2 POP POP JUMP JUMPDEST PUSH0 PUSH0 PUSH1 0x40 DUP4 DUP6 SUB SLT ISZERO PUSH2 0xFFD JUMPI PUSH2 0xFFC PUSH2 0xA08 JUMP JUMPDEST JUMPDEST PUSH0 PUSH2 0x100A DUP6 DUP3 DUP7 ADD PUSH2 0xA89 JUMP JUMPDEST SWAP3 POP POP PUSH1 0x20 DUP4 ADD CALLDATALOAD PUSH8 0xFFFFFFFFFFFFFFFF DUP2 GT ISZERO PUSH2 0x102B JUMPI PUSH2 0x102A PUSH2 0xA0C JUMP JUMPDEST JUMPDEST PUSH2 0x1037 DUP6 DUP3 DUP7 ADD PUSH2 0xFBA JUMP JUMPDEST SWAP2 POP POP SWAP3 POP SWAP3 SWAP1 POP JUMP JUMPDEST PUSH0 PUSH0 PUSH1 0x40 DUP4 DUP6 SUB SLT ISZERO PUSH2 0x1057 JUMPI PUSH2 0x1056 PUSH2 0xA08 JUMP JUMPDEST JUMPDEST PUSH0 PUSH2 0x1064 DUP6 DUP3 DUP7 ADD PUSH2 0xD9C JUMP JUMPDEST SWAP3 POP POP PUSH1 0x20 DUP4 ADD CALLDATALOAD PUSH8 0xFFFFFFFFFFFFFFFF DUP2 GT ISZERO PUSH2 0x1085 JUMPI PUSH2 0x1084 PUSH2 0xA0C JUMP JUMPDEST JUMPDEST PUSH2 0x1091 DUP6 DUP3 DUP7 ADD PUSH2 0xFBA JUMP JUMPDEST SWAP2 POP POP SWAP3 POP SWAP3 SWAP1 POP JUMP JUMPDEST PUSH0 PUSH1 0x20 DUP3 ADD SWAP1 POP PUSH2 0x10AE PUSH0 DUP4 ADD DUP5 PUSH2 0xE70 JUMP JUMPDEST SWAP3 SWAP2 POP POP JUMP JUMPDEST PUSH32 0x496E76616C696420696E64657800000000000000000000000000000000000000 PUSH0 DUP3 ADD MSTORE POP JUMP JUMPDEST PUSH0 PUSH2 0x10E8 PUSH1 0xD DUP4 PUSH2 0xE19 JUMP JUMPDEST SWAP2 POP PUSH2 0x10F3 DUP3 PUSH2 0x10B4 JUMP JUMPDEST PUSH1 0x20 DUP3 ADD SWAP1 POP SWAP2 SWAP1 POP JUMP JUMPDEST PUSH0 PUSH1 0x20 DUP3 ADD SWAP1 POP DUP2 DUP2 SUB PUSH0 DUP4 ADD MSTORE PUSH2 0x1115 DUP2 PUSH2 0x10DC JUMP JUMPDEST SWAP1 POP SWAP2 SWAP1 POP JUMP JUMPDEST PUSH32 0x4E487B7100000000000000000000000000000000000000000000000000000000 PUSH0 MSTORE PUSH1 0x32 PUSH1 0x4 MSTORE PUSH1 0x24 PUSH0 REVERT JUMPDEST PUSH32 0x4E487B7100000000000000000000000000000000000000000000000000000000 PUSH0 MSTORE PUSH1 0x22 PUSH1 0x4 MSTORE PUSH1 0x24 PUSH0 REVERT JUMPDEST PUSH0 PUSH1 0x2 DUP3 DIV SWAP1 POP PUSH1 0x1 DUP3 AND DUP1 PUSH2 0x118D JUMPI PUSH1 0x7F DUP3 AND SWAP2 POP JUMPDEST PUSH1 0x20 DUP3 LT DUP2 SUB PUSH2 0x11A0 JUMPI PUSH2 0x119F PUSH2 0x1149 JUMP JUMPDEST JUMPDEST POP SWAP2 SWAP1 POP JUMP JUMPDEST PUSH32 0x4E487B7100000000000000000000000000000000000000000000000000000000 PUSH0 MSTORE PUSH1 0x11 PUSH1 0x4 MSTORE PUSH1 0x24 PUSH0 REVERT JUMPDEST PUSH0 PUSH2 0x11DD DUP3 PUSH2 0xA6A JUMP JUMPDEST SWAP2 POP PUSH32 0xFFFFFFFFFFFFFFFFFFFFFFFFFFFFFFFFFFFFFFFFFFFFFFFFFFFFFFFFFFFFFFFF DUP3 SUB PUSH2 0x120F JUMPI PUSH2 0x120E PUSH2 0x11A6 JUMP JUMPDEST JUMPDEST PUSH1 0x1 DUP3 ADD SWAP1 POP SWAP2 SWAP1 POP JUMP JUMPDEST PUSH2 0x1223 DUP2 PUSH2 0xA2F JUMP JUMPDEST DUP3 MSTORE POP POP JUMP JUMPDEST PUSH0 DUP2 SWAP1 POP DUP2 PUSH0 MSTORE PUSH1 0x20 PUSH0 KECCAK256 SWAP1 POP SWAP2 SWAP1 POP JUMP JUMPDEST PUSH0 DUP2 SLOAD PUSH2 0x1247 DUP2 PUSH2 0x1176 JUMP JUMPDEST PUSH2 0x1251 DUP2 DUP7 PUSH2 0xE19 JUMP JUMPDEST SWAP5 POP PUSH1 0x1 DUP3 AND PUSH0 DUP2 EQ PUSH2 0x126B JUMPI PUSH1 0x1 DUP2 EQ PUSH2 0x1281 JUMPI PUSH2 0x12B3 JUMP JUMPDEST PUSH1 0xFF NOT DUP4 AND DUP7 MSTORE DUP2 ISZERO ISZERO PUSH1 0x20 MUL DUP7 ADD SWAP4 POP PUSH2 0x12B3 JUMP JUMPDEST PUSH2 0x128A DUP6 PUSH2 0x1229 JUMP JUMPDEST PUSH0 JUMPDEST DUP4 DUP2 LT ISZERO PUSH2 0x12AB JUMPI DUP2 SLOAD DUP2 DUP10 ADD MSTORE PUSH1 0x1 DUP3 ADD SWAP2 POP PUSH1 0x20 DUP2 ADD SWAP1 POP PUSH2 0x128C JUMP JUMPDEST DUP1 DUP9 ADD SWAP6 POP POP POP JUMPDEST POP POP POP SWAP3 SWAP2 POP POP JUMP JUMPDEST PUSH0 PUSH1 0x80 DUP3 ADD SWAP1 POP PUSH2 0x12CF PUSH0 DUP4 ADD DUP8 PUSH2 0x121A JUMP JUMPDEST PUSH2 0x12DC PUSH1 0x20 DUP4 ADD DUP7 PUSH2 0xE70 JUMP JUMPDEST DUP2 DUP2 SUB PUSH1 0x40 DUP4 ADD MSTORE PUSH2 0x12EE DUP2 DUP6 PUSH2 0x123B JUMP JUMPDEST SWAP1 POP DUP2 DUP2 SUB PUSH1 0x60 DUP4 ADD MSTORE PUSH2 0x1302 DUP2 DUP5 PUSH2 0xE29 JUMP JUMPDEST SWAP1 POP SWAP6 SWAP5 POP POP POP POP POP JUMP JUMPDEST PUSH0 PUSH1 0x20 PUSH1 0x1F DUP4 ADD DIV SWAP1 POP SWAP2 SWAP1 POP JUMP JUMPDEST PUSH0 DUP3 DUP3 SHL SWAP1 POP SWAP3 SWAP2 POP POP JUMP JUMPDEST PUSH0 PUSH1 0x8 DUP4 MUL PUSH2 0x1357 PUSH32 0xFFFFFFFFFFFFFFFFFFFFFFFFFFFFFFFFFFFFFFFFFFFFFFFFFFFFFFFFFFFFFFFF DUP3 PUSH2 0x131C JUMP JUMPDEST PUSH2 0x1361 DUP7 DUP4 PUSH2 0x131C JUMP JUMPDEST SWAP6 POP DUP1 NOT DUP5 AND SWAP4 POP DUP1 DUP7 AND DUP5 OR SWAP3 POP POP POP SWAP4 SWAP3 POP POP POP JUMP JUMPDEST PUSH0 DUP2 SWAP1 POP SWAP2 SWAP1 POP JUMP JUMPDEST PUSH0 PUSH2 0x139C PUSH2 0x1397 PUSH2 0x1392 DUP5 PUSH2 0xA6A JUMP JUMPDEST PUSH2 0x1379 JUMP JUMPDEST PUSH2 0xA6A JUMP JUMPDEST SWAP1 POP SWAP2 SWAP1 POP JUMP JUMPDEST PUSH0 DUP2 SWAP1 POP SWAP2 SWAP1 POP JUMP JUMPDEST PUSH2 0x13B5 DUP4 PUSH2 0x1382 JUMP JUMPDEST PUSH2 0x13C9 PUSH2 0x13C1 DUP3 PUSH2 0x13A3 JUMP JUMPDEST DUP5 DUP5 SLOAD PUSH2 0x1328 JUMP JUMPDEST DUP3 SSTORE POP POP POP POP JUMP JUMPDEST PUSH0 PUSH0 SWAP1 POP SWAP1 JUMP JUMPDEST PUSH2 0x13E0 PUSH2 0x13D1 JUMP JUMPDEST PUSH2 0x13EB DUP2 DUP5 DUP5 PUSH2 0x13AC JUMP JUMPDEST POP POP POP JUMP JUMPDEST JUMPDEST DUP2 DUP2 LT ISZERO PUSH2 0x140E JUMPI PUSH2 0x1403 PUSH0 DUP3 PUSH2 0x13D8 JUMP JUMPDEST PUSH1 0x1 DUP2 ADD SWAP1 POP PUSH2 0x13F1 JUMP JUMPDEST POP POP JUMP JUMPDEST PUSH1 0x1F DUP3 GT ISZERO PUSH2 0x1453 JUMPI PUSH2 0x1424 DUP2 PUSH2 0x1229 JUMP JUMPDEST PUSH2 0x142D DUP5 PUSH2 0x130D JUMP JUMPDEST DUP2 ADD PUSH1 0x20 DUP6 LT ISZERO PUSH2 0x143C JUMPI DUP2 SWAP1 POP JUMPDEST PUSH2 0x1450 PUSH2 0x1448 DUP6 PUSH2 0x130D JUMP JUMPDEST DUP4 ADD DUP3 PUSH2 0x13F0 JUMP JUMPDEST POP POP JUMPDEST POP POP POP JUMP JUMPDEST PUSH0 DUP3 DUP3 SHR SWAP1 POP SWAP3 SWAP2 POP POP JUMP JUMPDEST PUSH0 PUSH2 0x1473 PUSH0 NOT DUP5 PUSH1 0x8 MUL PUSH2 0x1458 JUMP JUMPDEST NOT DUP1 DUP4 AND SWAP2 POP POP SWAP3 SWAP2 POP POP JUMP JUMPDEST PUSH0 PUSH2 0x148B DUP4 DUP4 PUSH2 0x1464 JUMP JUMPDEST SWAP2 POP DUP3 PUSH1 0x2 MUL DUP3 OR SWAP1 POP SWAP3 SWAP2 POP POP JUMP JUMPDEST PUSH2 0x14A4 DUP3 PUSH2 0xADB JUMP JUMPDEST PUSH8 0xFFFFFFFFFFFFFFFF DUP2 GT ISZERO PUSH2 0x14BD JUMPI PUSH2 0x14BC PUSH2 0xEC3 JUMP JUMPDEST JUMPDEST PUSH2 0x14C7 DUP3 SLOAD PUSH2 0x1176 JUMP JUMPDEST PUSH2 0x14D2 DUP3 DUP3 DUP6 PUSH2 0x1412 JUMP JUMPDEST PUSH0 PUSH1 0x20 SWAP1 POP PUSH1 0x1F DUP4 GT PUSH1 0x1 DUP2 EQ PUSH2 0x1503 JUMPI PUSH0 DUP5 ISZERO PUSH2 0x14F1 JUMPI DUP3 DUP8 ADD MLOAD SWAP1 POP JUMPDEST PUSH2 0x14FB DUP6 DUP3 PUSH2 0x1480 JUMP JUMPDEST DUP7 SSTORE POP PUSH2 0x1562 JUMP JUMPDEST PUSH1 0x1F NOT DUP5 AND PUSH2 0x1511 DUP7 PUSH2 0x1229 JUMP JUMPDEST PUSH0 JUMPDEST DUP3 DUP2 LT ISZERO PUSH2 0x1538 JUMPI DUP5 DUP10 ADD MLOAD DUP3 SSTORE PUSH1 0x1 DUP3 ADD SWAP2 POP PUSH1 0x20 DUP6 ADD SWAP5 POP PUSH1 0x20 DUP2 ADD SWAP1 POP PUSH2 0x1513 JUMP JUMPDEST DUP7 DUP4 LT ISZERO PUSH2 0x1555 JUMPI DUP5 DUP10 ADD MLOAD PUSH2 0x1551 PUSH1 0x1F DUP10 AND DUP3 PUSH2 0x1464 JUMP JUMPDEST DUP4 SSTORE POP JUMPDEST PUSH1 0x1 PUSH1 0x2 DUP9 MUL ADD DUP9 SSTORE POP POP POP JUMPDEST POP POP POP POP POP POP JUMP JUMPDEST PUSH0 PUSH2 0x1574 DUP3 PUSH2 0xA6A JUMP JUMPDEST SWAP2 POP PUSH2 0x157F DUP4 PUSH2 0xA6A JUMP JUMPDEST SWAP3 POP DUP3 DUP3 SUB SWAP1 POP DUP2 DUP2 GT ISZERO PUSH2 0x1597 JUMPI PUSH2 0x1596 PUSH2 0x11A6 JUMP JUMPDEST JUMPDEST SWAP3 SWAP2 POP POP JUMP INVALID LOG2 PUSH5 0x6970667358 0x22 SLT KECCAK256 DELEGATECALL PUSH29 0x44DAE27CE46B447BECDE80AC8A60BF4E42488A026BC1E65C8CDFC938D1 PUSH18 0x64736F6C634300081E003300000000000000 "
				},
				"gasEstimates": {
					"creation": {
						"codeDepositCost": "1117400",
						"executionCost": "infinite",
						"totalCost": "infinite"
					},
					"external": {
						"addInfo(uint8,string)": "infinite",
						"getMyInfoAtIndex(uint256)": "infinite",
						"getOneInfo(address,uint256)": "infinite",
						"listAllInfo(address)": "infinite",
						"setColor(uint256,uint8)": "infinite",
						"setInfo(uint256,string)": "infinite",
						"storedInfos(address,uint256)": "infinite"
					}
				},
				"methodIdentifiers": {
					"addInfo(uint8,string)": "e8f36962",
					"getMyInfoAtIndex(uint256)": "8cdd8902",
					"getOneInfo(address,uint256)": "08c46711",
					"listAllInfo(address)": "251101f5",
					"setColor(uint256,uint8)": "63ff1368",
					"setInfo(uint256,string)": "b6820002",
					"storedInfos(address,uint256)": "9ca3a5ed"
				}
			},
			"storageLayout": {
				"storage": [
					{
						"astId": 20,
						"contract": "contracts/Register.sol:AllTogether",
						"label": "storedInfos",
						"offset": 0,
						"slot": "0",
						"type": "t_mapping(t_address,t_array(t_struct(InfoStruct)14_storage)dyn_storage)"
					}
				],
				"types": {
					"t_address": {
						"encoding": "inplace",
						"label": "address",
						"numberOfBytes": "20"
					},
					"t_array(t_struct(InfoStruct)14_storage)dyn_storage": {
						"base": "t_struct(InfoStruct)14_storage",
						"encoding": "dynamic_array",
						"label": "struct AllTogether.InfoStruct[]",
						"numberOfBytes": "32"
					},
					"t_enum(Colors)6": {
						"encoding": "inplace",
						"label": "enum AllTogether.Colors",
						"numberOfBytes": "1"
					},
					"t_mapping(t_address,t_array(t_struct(InfoStruct)14_storage)dyn_storage)": {
						"encoding": "mapping",
						"key": "t_address",
						"label": "mapping(address => struct AllTogether.InfoStruct[])",
						"numberOfBytes": "32",
						"value": "t_array(t_struct(InfoStruct)14_storage)dyn_storage"
					},
					"t_string_storage": {
						"encoding": "bytes",
						"label": "string",
						"numberOfBytes": "32"
					},
					"t_struct(InfoStruct)14_storage": {
						"encoding": "inplace",
						"label": "struct AllTogether.InfoStruct",
						"members": [
							{
								"astId": 8,
								"contract": "contracts/Register.sol:AllTogether",
								"label": "info",
								"offset": 0,
								"slot": "0",
								"type": "t_string_storage"
							},
							{
								"astId": 11,
								"contract": "contracts/Register.sol:AllTogether",
								"label": "color",
								"offset": 0,
								"slot": "1",
								"type": "t_enum(Colors)6"
							},
							{
								"astId": 13,
								"contract": "contracts/Register.sol:AllTogether",
								"label": "countChanges",
								"offset": 0,
								"slot": "2",
								"type": "t_uint256"
							}
						],
						"numberOfBytes": "96"
					},
					"t_uint256": {
						"encoding": "inplace",
						"label": "uint256",
						"numberOfBytes": "32"
					}
				}
			},
			"userdoc": {
				"kind": "user",
				"methods": {},
				"version": 1
			}
		}
	}
}