{
	"data": {
		"bytecode": {
			"linkReferences": {},
			"object": "608060405234801561000f575f5ffd5b505f60405180606001604052806040518060400160405280600b81526020017f48656c6c6f20776f726c6400000000000000000000000000000000000000000081525081526020015f600281111561006a5761006961012d565b5b81526020015f81525090505f5f3373ffffffffffffffffffffffffffffffffffffffff1673ffffffffffffffffffffffffffffffffffffffff1681526020019081526020015f2081908060018154018082558091505060019003905f5260205f2090600302015f909190919091505f820151815f0190816100eb9190610397565b506020820151816001015f6101000a81548160ff021916908360028111156101165761011561012d565b5b021790555060408201518160020155505050610466565b7f4e487b71000000000000000000000000000000000000000000000000000000005f52602160045260245ffd5b5f81519050919050565b7f4e487b71000000000000000000000000000000000000000000000000000000005f52604160045260245ffd5b7f4e487b71000000000000000000000000000000000000000000000000000000005f52602260045260245ffd5b5f60028204905060018216806101d557607f821691505b6020821081036101e8576101e7610191565b5b50919050565b5f819050815f5260205f209050919050565b5f6020601f8301049050919050565b5f82821b905092915050565b5f6008830261024a7fffffffffffffffffffffffffffffffffffffffffffffffffffffffffffffffff8261020f565b610254868361020f565b95508019841693508086168417925050509392505050565b5f819050919050565b5f819050919050565b5f61029861029361028e8461026c565b610275565b61026c565b9050919050565b5f819050919050565b6102b18361027e565b6102c56102bd8261029f565b84845461021b565b825550505050565b5f5f905090565b6102dc6102cd565b6102e78184846102a8565b505050565b5b8181101561030a576102ff5f826102d4565b6001810190506102ed565b5050565b601f82111561034f57610320816101ee565b61032984610200565b81016020851015610338578190505b61034c61034485610200565b8301826102ec565b50505b505050565b5f82821c905092915050565b5f61036f5f1984600802610354565b1980831691505092915050565b5f6103878383610360565b9150826002028217905092915050565b6103a08261015a565b67ffffffffffffffff8111156103b9576103b8610164565b5b6103c382546101be565b6103ce82828561030e565b5f60209050601f8311600181146103ff575f84156103ed578287015190505b6103f7858261037c565b86555061045e565b601f19841661040d866101ee565b5f5b828110156104345784890151825560018201915060208501945060208101905061040f565b86831015610451578489015161044d601f891682610360565b8355505b6001600288020188555050505b505050505050565b6115d3806104735f395ff3fe608060405234801561000f575f5ffd5b506004361061007b575f3560e01c80638cdd8902116100595780638cdd8902146100fb5780639ca3a5ed1461012b578063b68200021461015d578063e8f36962146101795761007b565b806308c467111461007f578063251101f5146100af57806363ff1368146100df575b5f5ffd5b61009960048036038101906100949190610a9d565b6101a9565b6040516100a69190610c1a565b60405180910390f35b6100c960048036038101906100c49190610c3a565b610372565b6040516100d69190610d6d565b60405180910390f35b6100f960048036038101906100f49190610db0565b6104dd565b005b61011560048036038101906101109190610dee565b6105d7565b6040516101229190610c1a565b60405180910390f35b61014560048036038101906101409190610a9d565b6105f0565b60405161015493929190610e7f565b60405180910390f35b61017760048036038101906101729190610fe7565b6106c1565b005b610193600480360381019061018e9190611041565b610896565b6040516101a0919061109b565b60405180910390f35b6101b16109ce565b5f5f8473ffffffffffffffffffffffffffffffffffffffff1673ffffffffffffffffffffffffffffffffffffffff1681526020019081526020015f20805490508210610232576040517f08c379a0000000000000000000000000000000000000000000000000000000008152600401610229906110fe565b60405180910390fd5b5f5f8473ffffffffffffffffffffffffffffffffffffffff1673ffffffffffffffffffffffffffffffffffffffff1681526020019081526020015f2082815481106102805761027f61111c565b5b905f5260205f2090600302016040518060600160405290815f820180546102a690611176565b80601f01602080910402602001604051908101604052809291908181526020018280546102d290611176565b801561031d5780601f106102f45761010080835404028352916020019161031d565b820191905f5260205f20905b81548152906001019060200180831161030057829003601f168201915b50505050508152602001600182015f9054906101000a900460ff16600281111561034a57610349610b4b565b5b600281111561035c5761035b610b4b565b5b8152602001600282015481525050905092915050565b60605f5f8373ffffffffffffffffffffffffffffffffffffffff1673ffffffffffffffffffffffffffffffffffffffff1681526020019081526020015f20805480602002602001604051908101604052809291908181526020015f905b828210156104d2578382905f5260205f2090600302016040518060600160405290815f820180546103ff90611176565b80601f016020809104026020016040519081016040528092919081815260200182805461042b90611176565b80156104765780601f1061044d57610100808354040283529160200191610476565b820191905f5260205f20905b81548152906001019060200180831161045957829003601f168201915b50505050508152602001600182015f9054906101000a900460ff1660028111156104a3576104a2610b4b565b5b60028111156104b5576104b4610b4b565b5b8152602001600282015481525050815260200190600101906103cf565b505050509050919050565b805f5f3373ffffffffffffffffffffffffffffffffffffffff1673ffffffffffffffffffffffffffffffffffffffff1681526020019081526020015f20838154811061052c5761052b61111c565b5b905f5260205f2090600302016001015f6101000a81548160ff0219169083600281111561055c5761055b610b4b565b5b02179055505f5f3373ffffffffffffffffffffffffffffffffffffffff1673ffffffffffffffffffffffffffffffffffffffff1681526020019081526020015f2082815481106105af576105ae61111c565b5b905f5260205f2090600302016002015f8154809291906105ce906111d3565b91905055505050565b6105df6109ce565b6105e933836101a9565b9050919050565b5f602052815f5260405f208181548110610608575f80fd5b905f5260205f2090600302015f9150915050805f01805461062890611176565b80601f016020809104026020016040519081016040528092919081815260200182805461065490611176565b801561069f5780601f106106765761010080835404028352916020019161069f565b820191905f5260205f20905b81548152906001019060200180831161068257829003601f168201915b505050505090806001015f9054906101000a900460ff16908060020154905083565b5f5f3373ffffffffffffffffffffffffffffffffffffffff1673ffffffffffffffffffffffffffffffffffffffff1681526020019081526020015f20828154811061070f5761070e61111c565b5b905f5260205f2090600302016002015f81548092919061072e906111d3565b91905055507feb0c5cfcb1d1a12c404c7bfceac5a0dc8ec8c2da31abaf3536a58433b2c561ce335f5f3373ffffffffffffffffffffffffffffffffffffffff1673ffffffffffffffffffffffffffffffffffffffff1681526020019081526020015f2084815481106107a3576107a261111c565b5b905f5260205f209060030201600201545f5f3373ffffffffffffffffffffffffffffffffffffffff1673ffffffffffffffffffffffffffffffffffffffff1681526020019081526020015f2085815481106108015761080061111c565b5b905f5260205f2090600302015f018460405161082094939291906112bc565b60405180910390a1805f5f3373ffffffffffffffffffffffffffffffffffffffff1673ffffffffffffffffffffffffffffffffffffffff1681526020019081526020015f2083815481106108775761087661111c565b5b905f5260205f2090600302015f019081610891919061149b565b505050565b5f5f60405180606001604052808481526020018560028111156108bc576108bb610b4b565b5b81526020015f81525090505f5f3373ffffffffffffffffffffffffffffffffffffffff1673ffffffffffffffffffffffffffffffffffffffff1681526020019081526020015f2081908060018154018082558091505060019003905f5260205f2090600302015f909190919091505f820151815f01908161093d919061149b565b506020820151816001015f6101000a81548160ff0219169083600281111561096857610967610b4b565b5b021790555060408201518160020155505060015f5f3373ffffffffffffffffffffffffffffffffffffffff1673ffffffffffffffffffffffffffffffffffffffff1681526020019081526020015f20805490506109c5919061156a565b91505092915050565b6040518060600160405280606081526020015f60028111156109f3576109f2610b4b565b5b81526020015f81525090565b5f604051905090565b5f5ffd5b5f5ffd5b5f73ffffffffffffffffffffffffffffffffffffffff82169050919050565b5f610a3982610a10565b9050919050565b610a4981610a2f565b8114610a53575f5ffd5b50565b5f81359050610a6481610a40565b92915050565b5f819050919050565b610a7c81610a6a565b8114610a86575f5ffd5b50565b5f81359050610a9781610a73565b92915050565b5f5f60408385031215610ab357610ab2610a08565b5b5f610ac085828601610a56565b9250506020610ad185828601610a89565b9150509250929050565b5f81519050919050565b5f82825260208201905092915050565b8281835e5f83830152505050565b5f601f19601f8301169050919050565b5f610b1d82610adb565b610b278185610ae5565b9350610b37818560208601610af5565b610b4081610b03565b840191505092915050565b7f4e487b71000000000000000000000000000000000000000000000000000000005f52602160045260245ffd5b60038110610b8957610b88610b4b565b5b50565b5f819050610b9982610b78565b919050565b5f610ba882610b8c565b9050919050565b610bb881610b9e565b82525050565b610bc781610a6a565b82525050565b5f606083015f8301518482035f860152610be78282610b13565b9150506020830151610bfc6020860182610baf565b506040830151610c0f6040860182610bbe565b508091505092915050565b5f6020820190508181035f830152610c328184610bcd565b905092915050565b5f60208284031215610c4f57610c4e610a08565b5b5f610c5c84828501610a56565b91505092915050565b5f81519050919050565b5f82825260208201905092915050565b5f819050602082019050919050565b5f606083015f8301518482035f860152610ca88282610b13565b9150506020830151610cbd6020860182610baf565b506040830151610cd06040860182610bbe565b508091505092915050565b5f610ce68383610c8e565b905092915050565b5f602082019050919050565b5f610d0482610c65565b610d0e8185610c6f565b935083602082028501610d2085610c7f565b805f5b85811015610d5b5784840389528151610d3c8582610cdb565b9450610d4783610cee565b925060208a01995050600181019050610d23565b50829750879550505050505092915050565b5f6020820190508181035f830152610d858184610cfa565b905092915050565b60038110610d99575f5ffd5b50565b5f81359050610daa81610d8d565b92915050565b5f5f60408385031215610dc657610dc5610a08565b5b5f610dd385828601610a89565b9250506020610de485828601610d9c565b9150509250929050565b5f60208284031215610e0357610e02610a08565b5b5f610e1084828501610a89565b91505092915050565b5f82825260208201905092915050565b5f610e3382610adb565b610e3d8185610e19565b9350610e4d818560208601610af5565b610e5681610b03565b840191505092915050565b610e6a81610b9e565b82525050565b610e7981610a6a565b82525050565b5f6060820190508181035f830152610e978186610e29565b9050610ea66020830185610e61565b610eb36040830184610e70565b949350505050565b5f5ffd5b5f5ffd5b7f4e487b71000000000000000000000000000000000000000000000000000000005f52604160045260245ffd5b610ef982610b03565b810181811067ffffffffffffffff82111715610f1857610f17610ec3565b5b80604052505050565b5f610f2a6109ff565b9050610f368282610ef0565b919050565b5f67ffffffffffffffff821115610f5557610f54610ec3565b5b610f5e82610b03565b9050602081019050919050565b828183375f83830152505050565b5f610f8b610f8684610f3b565b610f21565b905082815260208101848484011115610fa757610fa6610ebf565b5b610fb2848285610f6b565b509392505050565b5f82601f830112610fce57610fcd610ebb565b5b8135610fde848260208601610f79565b91505092915050565b5f5f60408385031215610ffd57610ffc610a08565b5b5f61100a85828601610a89565b925050602083013567ffffffffffffffff81111561102b5761102a610a0c565b5b61103785828601610fba565b9150509250929050565b5f5f6040838503121561105757611056610a08565b5b5f61106485828601610d9c565b925050602083013567ffffffffffffffff81111561108557611084610a0c565b5b61109185828601610fba565b9150509250929050565b5f6020820190506110ae5f830184610e70565b92915050565b7f496e76616c696420696e646578000000000000000000000000000000000000005f82015250565b5f6110e8600d83610e19565b91506110f3826110b4565b602082019050919050565b5f6020820190508181035f830152611115816110dc565b9050919050565b7f4e487b71000000000000000000000000000000000000000000000000000000005f52603260045260245ffd5b7f4e487b71000000000000000000000000000000000000000000000000000000005f52602260045260245ffd5b5f600282049050600182168061118d57607f821691505b6020821081036111a05761119f611149565b5b50919050565b7f4e487b71000000000000000000000000000000000000000000000000000000005f52601160045260245ffd5b5f6111dd82610a6a565b91507fffffffffffffffffffffffffffffffffffffffffffffffffffffffffffffffff820361120f5761120e6111a6565b5b600182019050919050565b61122381610a2f565b82525050565b5f819050815f5260205f209050919050565b5f815461124781611176565b6112518186610e19565b9450600182165f811461126b5760018114611281576112b3565b60ff1983168652811515602002860193506112b3565b61128a85611229565b5f5b838110156112ab5781548189015260018201915060208101905061128c565b808801955050505b50505092915050565b5f6080820190506112cf5f83018761121a565b6112dc6020830186610e70565b81810360408301526112ee818561123b565b905081810360608301526113028184610e29565b905095945050505050565b5f6020601f8301049050919050565b5f82821b905092915050565b5f600883026113577fffffffffffffffffffffffffffffffffffffffffffffffffffffffffffffffff8261131c565b611361868361131c565b95508019841693508086168417925050509392505050565b5f819050919050565b5f61139c61139761139284610a6a565b611379565b610a6a565b9050919050565b5f819050919050565b6113b583611382565b6113c96113c1826113a3565b848454611328565b825550505050565b5f5f905090565b6113e06113d1565b6113eb8184846113ac565b505050565b5b8181101561140e576114035f826113d8565b6001810190506113f1565b5050565b601f8211156114535761142481611229565b61142d8461130d565b8101602085101561143c578190505b6114506114488561130d565b8301826113f0565b50505b505050565b5f82821c905092915050565b5f6114735f1984600802611458565b1980831691505092915050565b5f61148b8383611464565b9150826002028217905092915050565b6114a482610adb565b67ffffffffffffffff8111156114bd576114bc610ec3565b5b6114c78254611176565b6114d2828285611412565b5f60209050601f831160018114611503575f84156114f1578287015190505b6114fb8582611480565b865550611562565b601f19841661151186611229565b5f5b8281101561153857848901518255600182019150602085019450602081019050611513565b868310156115555784890151611551601f891682611464565b8355505b6001600288020188555050505b505050505050565b5f61157482610a6a565b915061157f83610a6a565b9250828203905081811115611597576115966111a6565b5b9291505056fea2646970667358221220f47c44dae27ce46b447becde80ac8a60bf4e42488a026bc1e65c8cdfc938d17164736f6c634300081e0033",
			"opcodes": "PUSH1 0x80 PUSH1 0x40 MSTORE CALLVALUE DUP1 ISZERO PUSH2 0xF JUMPI PUSH0 PUSH0 REVERT JUMPDEST POP PUSH0 PUSH1 0x40 MLOAD DUP1 PUSH1 0x60 ADD PUSH1 0x40 MSTORE DUP1 PUSH1 0x40 MLOAD DUP1 PUSH1 0x40 ADD PUSH1 0x40 MSTORE DUP1 PUSH1 0xB DUP2 MSTORE PUSH1 0x20 ADD PUSH32 0x48656C6C6F20776F726C64000000000000000000000000000000000000000000 DUP2 MSTORE POP DUP2 MSTORE PUSH1 0x20 ADD PUSH0 PUSH1 0x2 DUP2 GT ISZERO PUSH2 0x6A JUMPI PUSH2 0x69 PUSH2 0x12D JUMP JUMPDEST JUMPDEST DUP2 MSTORE PUSH1 0x20 ADD PUSH0 DUP2 MSTORE POP SWAP1 POP PUSH0 PUSH0 CALLER PUSH20 0xFFFFFFFFFFFFFFFFFFFFFFFFFFFFFFFFFFFFFFFF AND PUSH20 0xFFFFFFFFFFFFFFFFFFFFFFFFFFFFFFFFFFFFFFFF AND DUP2 MSTORE PUSH1 0x20 ADD SWAP1 DUP2 MSTORE PUSH1 0x20 ADD PUSH0 KECCAK256 DUP2 SWAP1 DUP1 PUSH1 0x1 DUP2 SLOAD ADD DUP1 DUP3 SSTORE DUP1 SWAP2 POP POP PUSH1 0x1 SWAP1 SUB SWAP1 PUSH0 MSTORE PUSH1 0x20 PUSH0 KECCAK256 SWAP1 PUSH1 0x3 MUL ADD PUSH0 SWAP1 SWAP2 SWAP1 SWAP2 SWAP1 SWAP2 POP PUSH0 DUP3 ADD MLOAD DUP2 PUSH0 ADD SWAP1 DUP2 PUSH2 0xEB SWAP2 SWAP1 PUSH2 0x397 JUMP JUMPDEST POP PUSH1 0x20 DUP3 ADD MLOAD DUP2 PUSH1 0x1 ADD PUSH0 PUSH2 0x100 EXP DUP2 SLOAD DUP2 PUSH1 0xFF MUL NOT AND SWAP1 DUP4 PUSH1 0x2 DUP2 GT ISZERO PUSH2 0x116 JUMPI PUSH2 0x115 PUSH2 0x12D JUMP JUMPDEST JUMPDEST MUL OR SWAP1 SSTORE POP PUSH1 0x40 DUP3 ADD MLOAD DUP2 PUSH1 0x2 ADD SSTORE POP POP POP PUSH2 0x466 JUMP JUMPDEST PUSH32 0x4E487B7100000000000000000000000000000000000000000000000000000000 PUSH0 MSTORE PUSH1 0x21 PUSH1 0x4 MSTORE PUSH1 0x24 PUSH0 REVERT JUMPDEST PUSH0 DUP2 MLOAD SWAP1 POP SWAP2 SWAP1 POP JUMP JUMPDEST PUSH32 0x4E487B7100000000000000000000000000000000000000000000000000000000 PUSH0 MSTORE PUSH1 0x41 PUSH1 0x4 MSTORE PUSH1 0x24 PUSH0 REVERT JUMPDEST PUSH32 0x4E487B7100000000000000000000000000000000000000000000000000000000 PUSH0 MSTORE PUSH1 0x22 PUSH1 0x4 MSTORE PUSH1 0x24 PUSH0 REVERT JUMPDEST PUSH0 PUSH1 0x2 DUP3 DIV SWAP1 POP PUSH1 0x1 DUP3 AND DUP1 PUSH2 0x1D5 JUMPI PUSH1 0x7F DUP3 AND SWAP2 POP JUMPDEST PUSH1 0x20 DUP3 LT DUP2 SUB PUSH2 0x1E8 JUMPI PUSH2 0x1E7 PUSH2 0x191 JUMP JUMPDEST JUMPDEST POP SWAP2 SWAP1 POP JUMP JUMPDEST PUSH0 DUP2 SWAP1 POP DUP2 PUSH0 MSTORE PUSH1 0x20 PUSH0 KECCAK256 SWAP1 POP SWAP2 SWAP1 POP JUMP JUMPDEST PUSH0 PUSH1 0x20 PUSH1 0x1F DUP4 ADD DIV SWAP1 POP SWAP2 SWAP1 POP JUMP JUMPDEST PUSH0 DUP3 DUP3 SHL SWAP1 POP SWAP3 SWAP2 POP POP JUMP JUMPDEST PUSH0 PUSH1 0x8 DUP4 MUL PUSH2 0x24A PUSH32 0xFFFFFFFFFFFFFFFFFFFFFFFFFFFFFFFFFFFFFFFFFFFFFFFFFFFFFFFFFFFFFFFF DUP3 PUSH2 0x20F JUMP JUMPDEST PUSH2 0x254 DUP7 DUP4 PUSH2 0x20F JUMP JUMPDEST SWAP6 POP DUP1 NOT DUP5 AND SWAP4 POP DUP1 DUP7 AND DUP5 OR SWAP3 POP POP POP SWAP4 SWAP3 POP POP POP JUMP JUMPDEST PUSH0 DUP2 SWAP1 POP SWAP2 SWAP1 POP JUMP JUMPDEST PUSH0 DUP2 SWAP1 POP SWAP2 SWAP1 POP JUMP JUMPDEST PUSH0 PUSH2 0x298 PUSH2 0x293 PUSH2 0x28E DUP5 PUSH2 0x26C JUMP JUMPDEST PUSH2 0x275 JUMP JUMPDEST PUSH2 0x26C JUMP JUMPDEST SWAP1 POP SWAP2 SWAP1 POP JUMP JUMPDEST PUSH0 DUP2 SWAP1 POP SWAP2 SWAP1 POP JUMP JUMPDEST PUSH2 0x2B1 DUP4 PUSH2 0x27E JUMP JUMPDEST PUSH2 0x2C5 PUSH2 0x2BD DUP3 PUSH2 0x29F JUMP JUMPDEST DUP5 DUP5 SLOAD PUSH2 0x21B JUMP JUMPDEST DUP3 SSTORE POP POP POP POP JUMP JUMPDEST PUSH0 PUSH0 SWAP1 POP SWAP1 JUMP JUMPDEST PUSH2 0x2DC PUSH2 0x2CD JUMP JUMPDEST PUSH2 0x2E7 DUP2 DUP5 DUP5 PUSH2 0x2A8 JUMP JUMPDEST POP POP POP JUMP JUMPDEST JUMPDEST DUP2 DUP2 LT ISZERO PUSH2 0x30A JUMPI PUSH2 0x2FF PUSH0 DUP3 PUSH2 0x2D4 JUMP JUMPDEST PUSH1 0x1 DUP2 ADD SWAP1 POP PUSH2 0x2ED JUMP JUMPDEST POP POP JUMP JUMPDEST PUSH1 0x1F DUP3 GT ISZERO PUSH2 0x34F JUMPI PUSH2 0x320 DUP2 PUSH2 0x1EE JUMP JUMPDEST PUSH2 0x329 DUP5 PUSH2 0x200 JUMP JUMPDEST DUP2 ADD PUSH1 0x20 DUP6 LT ISZERO PUSH2 0x338 JUMPI DUP2 SWAP1 POP JUMPDEST PUSH2 0x34C PUSH2 0x344 DUP6 PUSH2 0x200 JUMP JUMPDEST DUP4 ADD DUP3 PUSH2 0x2EC JUMP JUMPDEST POP POP JUMPDEST POP POP POP JUMP JUMPDEST PUSH0 DUP3 DUP3 SHR SWAP1 POP SWAP3 SWAP2 POP POP JUMP JUMPDEST PUSH0 PUSH2 0x36F PUSH0 NOT DUP5 PUSH1 0x8 MUL PUSH2 0x354 JUMP JUMPDEST NOT DUP1 DUP4 AND SWAP2 POP POP SWAP3 SWAP2 POP POP JUMP JUMPDEST PUSH0 PUSH2 0x387 DUP4 DUP4 PUSH2 0x360 JUMP JUMPDEST SWAP2 POP DUP3 PUSH1 0x2 MUL DUP3 OR SWAP1 POP SWAP3 SWAP2 POP POP JUMP JUMPDEST PUSH2 0x3A0 DUP3 PUSH2 0x15A JUMP JUMPDEST PUSH8 0xFFFFFFFFFFFFFFFF DUP2 GT ISZERO PUSH2 0x3B9 JUMPI PUSH2 0x3B8 PUSH2 0x164 JUMP JUMPDEST JUMPDEST PUSH2 0x3C3 DUP3 SLOAD PUSH2 0x1BE JUMP JUMPDEST PUSH2 0x3CE DUP3 DUP3 DUP6 PUSH2 0x30E JUMP JUMPDEST PUSH0 PUSH1 0x20 SWAP1 POP PUSH1 0x1F DUP4 GT PUSH1 0x1 DUP2 EQ PUSH2 0x3FF JUMPI PUSH0 DUP5 ISZERO PUSH2 0x3ED JUMPI DUP3 DUP8 ADD MLOAD SWAP1 POP JUMPDEST PUSH2 0x3F7 DUP6 DUP3 PUSH2 0x37C JUMP JUMPDEST DUP7 SSTORE POP PUSH2 0x45E JUMP JUMPDEST PUSH1 0x1F NOT DUP5 AND PUSH2 0x40D DUP7 PUSH2 0x1EE JUMP JUMPDEST PUSH0 JUMPDEST DUP3 DUP2 LT ISZERO PUSH2 0x434 JUMPI DUP5 DUP10 ADD MLOAD DUP3 SSTORE PUSH1 0x1 DUP3 ADD SWAP2 POP PUSH1 0x20 DUP6 ADD SWAP5 POP PUSH1 0x20 DUP2 ADD SWAP1 POP PUSH2 0x40F JUMP JUMPDEST DUP7 DUP4 LT ISZERO PUSH2 0x451 JUMPI DUP5 DUP10 ADD MLOAD PUSH2 0x44D PUSH1 0x1F DUP10 AND DUP3 PUSH2 0x360 JUMP JUMPDEST DUP4 SSTORE POP JUMPDEST PUSH1 0x1 PUSH1 0x2 DUP9 MUL ADD DUP9 SSTORE POP POP POP JUMPDEST POP POP POP POP POP POP JUMP JUMPDEST PUSH2 0x15D3 DUP1 PUSH2 0x473 PUSH0 CODECOPY PUSH0 RETURN INVALID PUSH1 0x80 PUSH1 0x40 MSTORE CALLVALUE DUP1 ISZERO PUSH2 0xF JUMPI PUSH0 PUSH0 REVERT JUMPDEST POP PUSH1 0x4 CALLDATASIZE LT PUSH2 0x7B JUMPI PUSH0 CALLDATALOAD PUSH1 0xE0 SHR DUP1 PUSH4 0x8CDD8902 GT PUSH2 0x59 JUMPI DUP1 PUSH4 0x8CDD8902 EQ PUSH2 0xFB JUMPI DUP1 PUSH4 0x9CA3A5ED EQ PUSH2 0x12B JUMPI DUP1 PUSH4 0xB6820002 EQ PUSH2 0x15D JUMPI DUP1 PUSH4 0xE8F36962 EQ PUSH2 0x179 JUMPI PUSH2 0x7B JUMP JUMPDEST DUP1 PUSH4 0x8C46711 EQ PUSH2 0x7F JUMPI DUP1 PUSH4 0x251101F5 EQ PUSH2 0xAF JUMPI DUP1 PUSH4 0x63FF1368 EQ PUSH2 0xDF JUMPI JUMPDEST PUSH0 PUSH0 REVERT JUMPDEST PUSH2 0x99 PUSH1 0x4 DUP1 CALLDATASIZE SUB DUP2 ADD SWAP1 PUSH2 0x94 SWAP2 SWAP1 PUSH2 0xA9D JUMP JUMPDEST PUSH2 0x1A9 JUMP JUMPDEST PUSH1 0x40 MLOAD PUSH2 0xA6 SWAP2 SWAP1 PUSH2 0xC1A JUMP JUMPDEST PUSH1 0x40 MLOAD DUP1 SWAP2 SUB SWAP1 RETURN JUMPDEST PUSH2 0xC9 PUSH1 0x4 DUP1 CALLDATASIZE SUB DUP2 ADD SWAP1 PUSH2 0xC4 SWAP2 SWAP1 PUSH2 0xC3A JUMP JUMPDEST PUSH2 0x372 JUMP JUMPDEST PUSH1 0x40 MLOAD PUSH2 0xD6 SWAP2 SWAP1 PUSH2 0xD6D JUMP JUMPDEST PUSH1 0x40 MLOAD DUP1 SWAP2 SUB SWAP1 RETURN JUMPDEST PUSH2 0xF9 PUSH1 0x4 DUP1 CALLDATASIZE SUB DUP2 ADD SWAP1 PUSH2 0xF4 SWAP2 SWAP1 PUSH2 0xDB0 JUMP JUMPDEST PUSH2 0x4DD JUMP JUMPDEST STOP JUMPDEST PUSH2 0x115 PUSH1 0x4 DUP1 CALLDATASIZE SUB DUP2 ADD SWAP1 PUSH2 0x110 SWAP2 SWAP1 PUSH2 0xDEE JUMP JUMPDEST PUSH2 0x5D7 JUMP JUMPDEST PUSH1 0x40 MLOAD PUSH2 0x122 SWAP2 SWAP1 PUSH2 0xC1A JUMP JUMPDEST PUSH1 0x40 MLOAD DUP1 SWAP2 SUB SWAP1 RETURN JUMPDEST PUSH2 0x145 PUSH1 0x4 DUP1 CALLDATASIZE SUB DUP2 ADD SWAP1 PUSH2 0x140 SWAP2 SWAP1 PUSH2 0xA9D JUMP JUMPDEST PUSH2 0x5F0 JUMP JUMPDEST PUSH1 0x40 MLOAD PUSH2 0x154 SWAP4 SWAP3 SWAP2 SWAP1 PUSH2 0xE7F JUMP JUMPDEST PUSH1 0x40 MLOAD DUP1 SWAP2 SUB SWAP1 RETURN JUMPDEST PUSH2 0x177 PUSH1 0x4 DUP1 CALLDATASIZE SUB DUP2 ADD SWAP1 PUSH2 0x172 SWAP2 SWAP1 PUSH2 0xFE7 JUMP JUMPDEST PUSH2 0x6C1 JUMP JUMPDEST STOP JUMPDEST PUSH2 0x193 PUSH1 0x4 DUP1 CALLDATASIZE SUB DUP2 ADD SWAP1 PUSH2 0x18E SWAP2 SWAP1 PUSH2 0x1041 JUMP JUMPDEST PUSH2 0x896 JUMP JUMPDEST PUSH1 0x40 MLOAD PUSH2 0x1A0 SWAP2 SWAP1 PUSH2 0x109B JUMP JUMPDEST PUSH1 0x40 MLOAD DUP1 SWAP2 SUB SWAP1 RETURN JUMPDEST PUSH2 0x1B1 PUSH2 0x9CE JUMP JUMPDEST PUSH0 PUSH0 DUP5 PUSH20 0xFFFFFFFFFFFFFFFFFFFFFFFFFFFFFFFFFFFFFFFF AND PUSH20 0xFFFFFFFFFFFFFFFFFFFFFFFFFFFFFFFFFFFFFFFF AND DUP2 MSTORE PUSH1 0x20 ADD SWAP1 DUP2 MSTORE PUSH1 0x20 ADD PUSH0 KECCAK256 DUP1 SLOAD SWAP1 POP DUP3 LT PUSH2 0x232 JUMPI PUSH1 0x40 MLOAD PUSH32 0x8C379A000000000000000000000000000000000000000000000000000000000 DUP2 MSTORE PUSH1 0x4 ADD PUSH2 0x229 SWAP1 PUSH2 0x10FE JUMP JUMPDEST PUSH1 0x40 MLOAD DUP1 SWAP2 SUB SWAP1 REVERT JUMPDEST PUSH0 PUSH0 DUP5 PUSH20 0xFFFFFFFFFFFFFFFFFFFFFFFFFFFFFFFFFFFFFFFF AND PUSH20 0xFFFFFFFFFFFFFFFFFFFFFFFFFFFFFFFFFFFFFFFF AND DUP2 MSTORE PUSH1 0x20 ADD SWAP1 DUP2 MSTORE PUSH1 0x20 ADD PUSH0 KECCAK256 DUP3 DUP2 SLOAD DUP2 LT PUSH2 0x280 JUMPI PUSH2 0x27F PUSH2 0x111C JUMP JUMPDEST JUMPDEST SWAP1 PUSH0 MSTORE PUSH1 0x20 PUSH0 KECCAK256 SWAP1 PUSH1 0x3 MUL ADD PUSH1 0x40 MLOAD DUP1 PUSH1 0x60 ADD PUSH1 0x40 MSTORE SWAP1 DUP2 PUSH0 DUP3 ADD DUP1 SLOAD PUSH2 0x2A6 SWAP1 PUSH2 0x1176 JUMP JUMPDEST DUP1 PUSH1 0x1F ADD PUSH1 0x20 DUP1 SWAP2 DIV MUL PUSH1 0x20 ADD PUSH1 0x40 MLOAD SWAP1 DUP2 ADD PUSH1 0x40 MSTORE DUP1 SWAP3 SWAP2 SWAP1 DUP2 DUP2 MSTORE PUSH1 0x20 ADD DUP3 DUP1 SLOAD PUSH2 0x2D2 SWAP1 PUSH2 0x1176 JUMP JUMPDEST DUP1 ISZERO PUSH2 0x31D JUMPI DUP1 PUSH1 0x1F LT PUSH2 0x2F4 JUMPI PUSH2 0x100 DUP1 DUP4 SLOAD DIV MUL DUP4 MSTORE SWAP2 PUSH1 0x20 ADD SWAP2 PUSH2 0x31D JUMP JUMPDEST DUP3 ADD SWAP2 SWAP1 PUSH0 MSTORE PUSH1 0x20 PUSH0 KECCAK256 SWAP1 JUMPDEST DUP2 SLOAD DUP2 MSTORE SWAP1 PUSH1 0x1 ADD SWAP1 PUSH1 0x20 ADD DUP1 DUP4 GT PUSH2 0x300 JUMPI DUP3 SWAP1 SUB PUSH1 0x1F AND DUP3 ADD SWAP2 JUMPDEST POP POP POP POP POP DUP2 MSTORE PUSH1 0x20 ADD PUSH1 0x1 DUP3 ADD PUSH0 SWAP1 SLOAD SWAP1 PUSH2 0x100 EXP SWAP1 DIV PUSH1 0xFF AND PUSH1 0x2 DUP2 GT ISZERO PUSH2 0x34A JUMPI PUSH2 0x349 PUSH2 0xB4B JUMP JUMPDEST JUMPDEST PUSH1 0x2 DUP2 GT ISZERO PUSH2 0x35C JUMPI PUSH2 0x35B PUSH2 0xB4B JUMP JUMPDEST JUMPDEST DUP2 MSTORE PUSH1 0x20 ADD PUSH1 0x2 DUP3 ADD SLOAD DUP2 MSTORE POP POP SWAP1 POP SWAP3 SWAP2 POP POP JUMP JUMPDEST PUSH1 0x60 PUSH0 PUSH0 DUP4 PUSH20 0xFFFFFFFFFFFFFFFFFFFFFFFFFFFFFFFFFFFFFFFF AND PUSH20 0xFFFFFFFFFFFFFFFFFFFFFFFFFFFFFFFFFFFFFFFF AND DUP2 MSTORE PUSH1 0x20 ADD SWAP1 DUP2 MSTORE PUSH1 0x20 ADD PUSH0 KECCAK256 DUP1 SLOAD DUP1 PUSH1 0x20 MUL PUSH1 0x20 ADD PUSH1 0x40 MLOAD SWAP1 DUP2 ADD PUSH1 0x40 MSTORE DUP1 SWAP3 SWAP2 SWAP1 DUP2 DUP2 MSTORE PUSH1 0x20 ADD PUSH0 SWAP1 JUMPDEST DUP3 DUP3 LT ISZERO PUSH2 0x4D2 JUMPI DUP4 DUP3 SWAP1 PUSH0 MSTORE PUSH1 0x20 PUSH0 KECCAK256 SWAP1 PUSH1 0x3 MUL ADD PUSH1 0x40 MLOAD DUP1 PUSH1 0x60 ADD PUSH1 0x40 MSTORE SWAP1 DUP2 PUSH0 DUP3 ADD DUP1 SLOAD PUSH2 0x3FF SWAP1 PUSH2 0x1176 JUMP JUMPDEST DUP1 PUSH1 0x1F ADD PUSH1 0x20 DUP1 SWAP2 DIV MUL PUSH1 0x20 ADD PUSH1 0x40 MLOAD SWAP1 DUP2 ADD PUSH1 0x40 MSTORE DUP1 SWAP3 SWAP2 SWAP1 DUP2 DUP2 MSTORE PUSH1 0x20 ADD DUP3 DUP1 SLOAD PUSH2 0x42B SWAP1 PUSH2 0x1176 JUMP JUMPDEST DUP1 ISZERO PUSH2 0x476 JUMPI DUP1 PUSH1 0x1F LT PUSH2 0x44D JUMPI PUSH2 0x100 DUP1 DUP4 SLOAD DIV MUL DUP4 MSTORE SWAP2 PUSH1 0x20 ADD SWAP2 PUSH2 0x476 JUMP JUMPDEST DUP3 ADD SWAP2 SWAP1 PUSH0 MSTORE PUSH1 0x20 PUSH0 KECCAK256 SWAP1 JUMPDEST DUP2 SLOAD DUP2 MSTORE SWAP1 PUSH1 0x1 ADD SWAP1 PUSH1 0x20 ADD DUP1 DUP4 GT PUSH2 0x459 JUMPI DUP3 SWAP1 SUB PUSH1 0x1F AND DUP3 ADD SWAP2 JUMPDEST POP POP POP POP POP DUP2 MSTORE PUSH1 0x20 ADD PUSH1 0x1 DUP3 ADD PUSH0 SWAP1 SLOAD SWAP1 PUSH2 0x100 EXP SWAP1 DIV PUSH1 0xFF AND PUSH1 0x2 DUP2 GT ISZERO PUSH2 0x4A3 JUMPI PUSH2 0x4A2 PUSH2 0xB4B JUMP JUMPDEST JUMPDEST PUSH1 0x2 DUP2 GT ISZERO PUSH2 0x4B5 JUMPI PUSH2 0x4B4 PUSH2 0xB4B JUMP JUMPDEST JUMPDEST DUP2 MSTORE PUSH1 0x20 ADD PUSH1 0x2 DUP3 ADD SLOAD DUP2 MSTORE POP POP DUP2 MSTORE PUSH1 0x20 ADD SWAP1 PUSH1 0x1 ADD SWAP1 PUSH2 0x3CF JUMP JUMPDEST POP POP POP POP SWAP1 POP SWAP2 SWAP1 POP JUMP JUMPDEST DUP1 PUSH0 PUSH0 CALLER PUSH20 0xFFFFFFFFFFFFFFFFFFFFFFFFFFFFFFFFFFFFFFFF AND PUSH20 0xFFFFFFFFFFFFFFFFFFFFFFFFFFFFFFFFFFFFFFFF AND DUP2 MSTORE PUSH1 0x20 ADD SWAP1 DUP2 MSTORE PUSH1 0x20 ADD PUSH0 KECCAK256 DUP4 DUP2 SLOAD DUP2 LT PUSH2 0x52C JUMPI PUSH2 0x52B PUSH2 0x111C JUMP JUMPDEST JUMPDEST SWAP1 PUSH0 MSTORE PUSH1 0x20 PUSH0 KECCAK256 SWAP1 PUSH1 0x3 MUL ADD PUSH1 0x1 ADD PUSH0 PUSH2 0x100 EXP DUP2 SLOAD DUP2 PUSH1 0xFF MUL NOT AND SWAP1 DUP4 PUSH1 0x2 DUP2 GT ISZERO PUSH2 0x55C JUMPI PUSH2 0x55B PUSH2 0xB4B JUMP JUMPDEST JUMPDEST MUL OR SWAP1 SSTORE POP PUSH0 PUSH0 CALLER PUSH20 0xFFFFFFFFFFFFFFFFFFFFFFFFFFFFFFFFFFFFFFFF AND PUSH20 0xFFFFFFFFFFFFFFFFFFFFFFFFFFFFFFFFFFFFFFFF AND DUP2 MSTORE PUSH1 0x20 ADD SWAP1 DUP2 MSTORE PUSH1 0x20 ADD PUSH0 KECCAK256 DUP3 DUP2 SLOAD DUP2 LT PUSH2 0x5AF JUMPI PUSH2 0x5AE PUSH2 0x111C JUMP JUMPDEST JUMPDEST SWAP1 PUSH0 MSTORE PUSH1 0x20 PUSH0 KECCAK256 SWAP1 PUSH1 0x3 MUL ADD PUSH1 0x2 ADD PUSH0 DUP2 SLOAD DUP1 SWAP3 SWAP2 SWAP1 PUSH2 0x5CE SWAP1 PUSH2 0x11D3 JUMP JUMPDEST SWAP2 SWAP1 POP SSTORE POP POP POP JUMP JUMPDEST PUSH2 0x5DF PUSH2 0x9CE JUMP JUMPDEST PUSH2 0x5E9 CALLER DUP4 PUSH2 0x1A9 JUMP JUMPDEST SWAP1 POP SWAP2 SWAP1 POP JUMP JUMPDEST PUSH0 PUSH1 0x20 MSTORE DUP2 PUSH0 MSTORE PUSH1 0x40 PUSH0 KECCAK256 DUP2 DUP2 SLOAD DUP2 LT PUSH2 0x608 JUMPI PUSH0 DUP1 REVERT JUMPDEST SWAP1 PUSH0 MSTORE PUSH1 0x20 PUSH0 KECCAK256 SWAP1 PUSH1 0x3 MUL ADD PUSH0 SWAP2 POP SWAP2 POP POP DUP1 PUSH0 ADD DUP1 SLOAD PUSH2 0x628 SWAP1 PUSH2 0x1176 JUMP JUMPDEST DUP1 PUSH1 0x1F ADD PUSH1 0x20 DUP1 SWAP2 DIV MUL PUSH1 0x20 ADD PUSH1 0x40 MLOAD SWAP1 DUP2 ADD PUSH1 0x40 MSTORE DUP1 SWAP3 SWAP2 SWAP1 DUP2 DUP2 MSTORE PUSH1 0x20 ADD DUP3 DUP1 SLOAD PUSH2 0x654 SWAP1 PUSH2 0x1176 JUMP JUMPDEST DUP1 ISZERO PUSH2 0x69F JUMPI DUP1 PUSH1 0x1F LT PUSH2 0x676 JUMPI PUSH2 0x100 DUP1 DUP4 SLOAD DIV MUL DUP4 MSTORE SWAP2 PUSH1 0x20 ADD SWAP2 PUSH2 0x69F JUMP JUMPDEST DUP3 ADD SWAP2 SWAP1 PUSH0 MSTORE PUSH1 0x20 PUSH0 KECCAK256 SWAP1 JUMPDEST DUP2 SLOAD DUP2 MSTORE SWAP1 PUSH1 0x1 ADD SWAP1 PUSH1 0x20 ADD DUP1 DUP4 GT PUSH2 0x682 JUMPI DUP3 SWAP1 SUB PUSH1 0x1F AND DUP3 ADD SWAP2 JUMPDEST POP POP POP POP POP SWAP1 DUP1 PUSH1 0x1 ADD PUSH0 SWAP1 SLOAD SWAP1 PUSH2 0x100 EXP SWAP1 DIV PUSH1 0xFF AND SWAP1 DUP1 PUSH1 0x2 ADD SLOAD SWAP1 POP DUP4 JUMP JUMPDEST PUSH0 PUSH0 CALLER PUSH20 0xFFFFFFFFFFFFFFFFFFFFFFFFFFFFFFFFFFFFFFFF AND PUSH20 0xFFFFFFFFFFFFFFFFFFFFFFFFFFFFFFFFFFFFFFFF AND DUP2 MSTORE PUSH1 0x20 ADD SWAP1 DUP2 MSTORE PUSH1 0x20 ADD PUSH0 KECCAK256 DUP3 DUP2 SLOAD DUP2 LT PUSH2 0x70F JUMPI PUSH2 0x70E PUSH2 0x111C JUMP JUMPDEST JUMPDEST SWAP1 PUSH0 MSTORE PUSH1 0x20 PUSH0 KECCAK256 SWAP1 PUSH1 0x3 MUL ADD PUSH1 0x2 ADD PUSH0 DUP2 SLOAD DUP1 SWAP3 SWAP2 SWAP1 PUSH2 0x72E SWAP1 PUSH2 0x11D3 JUMP JUMPDEST SWAP2 SWAP1 POP SSTORE POP PUSH32 0xEB0C5CFCB1D1A12C404C7BFCEAC5A0DC8EC8C2DA31ABAF3536A58433B2C561CE CALLER PUSH0 PUSH0 CALLER PUSH20 0xFFFFFFFFFFFFFFFFFFFFFFFFFFFFFFFFFFFFFFFF AND PUSH20 0xFFFFFFFFFFFFFFFFFFFFFFFFFFFFFFFFFFFFFFFF AND DUP2 MSTORE PUSH1 0x20 ADD SWAP1 DUP2 MSTORE PUSH1 0x20 ADD PUSH0 KECCAK256 DUP5 DUP2 SLOAD DUP2 LT PUSH2 0x7A3 JUMPI PUSH2 0x7A2 PUSH2 0x111C JUMP JUMPDEST JUMPDEST SWAP1 PUSH0 MSTORE PUSH1 0x20 PUSH0 KECCAK256 SWAP1 PUSH1 0x3 MUL ADD PUSH1 0x2 ADD SLOAD PUSH0 PUSH0 CALLER PUSH20 0xFFFFFFFFFFFFFFFFFFFFFFFFFFFFFFFFFFFFFFFF AND PUSH20 0xFFFFFFFFFFFFFFFFFFFFFFFFFFFFFFFFFFFFFFFF AND DUP2 MSTORE PUSH1 0x20 ADD SWAP1 DUP2 MSTORE PUSH1 0x20 ADD PUSH0 KECCAK256 DUP6 DUP2 SLOAD DUP2 LT PUSH2 0x801 JUMPI PUSH2 0x800 PUSH2 0x111C JUMP JUMPDEST JUMPDEST SWAP1 PUSH0 MSTORE PUSH1 0x20 PUSH0 KECCAK256 SWAP1 PUSH1 0x3 MUL ADD PUSH0 ADD DUP5 PUSH1 0x40 MLOAD PUSH2 0x820 SWAP5 SWAP4 SWAP3 SWAP2 SWAP1 PUSH2 0x12BC JUMP JUMPDEST PUSH1 0x40 MLOAD DUP1 SWAP2 SUB SWAP1 LOG1 DUP1 PUSH0 PUSH0 CALLER PUSH20 0xFFFFFFFFFFFFFFFFFFFFFFFFFFFFFFFFFFFFFFFF AND PUSH20 0xFFFFFFFFFFFFFFFFFFFFFFFFFFFFFFFFFFFFFFFF AND DUP2 MSTORE PUSH1 0x20 ADD SWAP1 DUP2 MSTORE PUSH1 0x20 ADD PUSH0 KECCAK256 DUP4 DUP2 SLOAD DUP2 LT PUSH2 0x877 JUMPI PUSH2 0x876 PUSH2 0x111C JUMP JUMPDEST JUMPDEST SWAP1 PUSH0 MSTORE PUSH1 0x20 PUSH0 KECCAK256 SWAP1 PUSH1 0x3 MUL ADD PUSH0 ADD SWAP1 DUP2 PUSH2 0x891 SWAP2 SWAP1 PUSH2 0x149B JUMP JUMPDEST POP POP POP JUMP JUMPDEST PUSH0 PUSH0 PUSH1 0x40 MLOAD DUP1 PUSH1 0x60 ADD PUSH1 0x40 MSTORE DUP1 DUP5 DUP2 MSTORE PUSH1 0x20 ADD DUP6 PUSH1 0x2 DUP2 GT ISZERO PUSH2 0x8BC JUMPI PUSH2 0x8BB PUSH2 0xB4B JUMP JUMPDEST JUMPDEST DUP2 MSTORE PUSH1 0x20 ADD PUSH0 DUP2 MSTORE POP SWAP1 POP PUSH0 PUSH0 CALLER PUSH20 0xFFFFFFFFFFFFFFFFFFFFFFFFFFFFFFFFFFFFFFFF AND PUSH20 0xFFFFFFFFFFFFFFFFFFFFFFFFFFFFFFFFFFFFFFFF AND DUP2 MSTORE PUSH1 0x20 ADD SWAP1 DUP2 MSTORE PUSH1 0x20 ADD PUSH0 KECCAK256 DUP2 SWAP1 DUP1 PUSH1 0x1 DUP2 SLOAD ADD DUP1 DUP3 SSTORE DUP1 SWAP2 POP POP PUSH1 0x1 SWAP1 SUB SWAP1 PUSH0 MSTORE PUSH1 0x20 PUSH0 KECCAK256 SWAP1 PUSH1 0x3 MUL ADD PUSH0 SWAP1 SWAP2 SWAP1 SWAP2 SWAP1 SWAP2 POP PUSH0 DUP3 ADD MLOAD DUP2 PUSH0 ADD SWAP1 DUP2 PUSH2 0x93D SWAP2 SWAP1 PUSH2 0x149B JUMP JUMPDEST POP PUSH1 0x20 DUP3 ADD MLOAD DUP2 PUSH1 0x1 ADD PUSH0 PUSH2 0x100 EXP DUP2 SLOAD DUP2 PUSH1 0xFF MUL NOT AND SWAP1 DUP4 PUSH1 0x2 DUP2 GT ISZERO PUSH2 0x968 JUMPI PUSH2 0x967 PUSH2 0xB4B JUMP JUMPDEST JUMPDEST MUL OR SWAP1 SSTORE POP PUSH1 0x40 DUP3 ADD MLOAD DUP2 PUSH1 0x2 ADD SSTORE POP POP PUSH1 0x1 PUSH0 PUSH0 CALLER PUSH20 0xFFFFFFFFFFFFFFFFFFFFFFFFFFFFFFFFFFFFFFFF AND PUSH20 0xFFFFFFFFFFFFFFFFFFFFFFFFFFFFFFFFFFFFFFFF AND DUP2 MSTORE PUSH1 0x20 ADD SWAP1 DUP2 MSTORE PUSH1 0x20 ADD PUSH0 KECCAK256 DUP1 SLOAD SWAP1 POP PUSH2 0x9C5 SWAP2 SWAP1 PUSH2 0x156A JUMP JUMPDEST SWAP2 POP POP SWAP3 SWAP2 POP POP JUMP JUMPDEST PUSH1 0x40 MLOAD DUP1 PUSH1 0x60 ADD PUSH1 0x40 MSTORE DUP1 PUSH1 0x60 DUP2 MSTORE PUSH1 0x20 ADD PUSH0 PUSH1 0x2 DUP2 GT ISZERO PUSH2 0x9F3 JUMPI PUSH2 0x9F2 PUSH2 0xB4B JUMP JUMPDEST JUMPDEST DUP2 MSTORE PUSH1 0x20 ADD PUSH0 DUP2 MSTORE POP SWAP1 JUMP JUMPDEST PUSH0 PUSH1 0x40 MLOAD SWAP1 POP SWAP1 JUMP JUMPDEST PUSH0 PUSH0 REVERT JUMPDEST PUSH0 PUSH0 REVERT JUMPDEST PUSH0 PUSH20 0xFFFFFFFFFFFFFFFFFFFFFFFFFFFFFFFFFFFFFFFF DUP3 AND SWAP1 POP SWAP2 SWAP1 POP JUMP JUMPDEST PUSH0 PUSH2 0xA39 DUP3 PUSH2 0xA10 JUMP JUMPDEST SWAP1 POP SWAP2 SWAP1 POP JUMP JUMPDEST PUSH2 0xA49 DUP2 PUSH2 0xA2F JUMP JUMPDEST DUP2 EQ PUSH2 0xA53 JUMPI PUSH0 PUSH0 REVERT JUMPDEST POP JUMP JUMPDEST PUSH0 DUP2 CALLDATALOAD SWAP1 POP PUSH2 0xA64 DUP2 PUSH2 0xA40 JUMP JUMPDEST SWAP3 SWAP2 POP POP JUMP JUMPDEST PUSH0 DUP2 SWAP1 POP SWAP2 SWAP1 POP JUMP JUMPDEST PUSH2 0xA7C DUP2 PUSH2 0xA6A JUMP JUMPDEST DUP2 EQ PUSH2 0xA86 JUMPI PUSH0 PUSH0 REVERT JUMPDEST POP JUMP JUMPDEST PUSH0 DUP2 CALLDATALOAD SWAP1 POP PUSH2 0xA97 DUP2 PUSH2 0xA73 JUMP JUMPDEST SWAP3 SWAP2 POP POP JUMP JUMPDEST PUSH0 PUSH0 PUSH1 0x40 DUP4 DUP6 SUB SLT ISZERO PUSH2 0xAB3 JUMPI PUSH2 0xAB2 PUSH2 0xA08 JUMP JUMPDEST JUMPDEST PUSH0 PUSH2 0xAC0 DUP6 DUP3 DUP7 ADD PUSH2 0xA56 JUMP JUMPDEST SWAP3 POP POP PUSH1 0x20 PUSH2 0xAD1 DUP6 DUP3 DUP7 ADD PUSH2 0xA89 JUMP JUMPDEST SWAP2 POP POP SWAP3 POP SWAP3 SWAP1 POP JUMP JUMPDEST PUSH0 DUP2 MLOAD SWAP1 POP SWAP2 SWAP1 POP JUMP JUMPDEST PUSH0 DUP3 DUP3 MSTORE PUSH1 0x20 DUP3 ADD SWAP1 POP SWAP3 SWAP2 POP POP JUMP JUMPDEST DUP3 DUP2 DUP4 MCOPY PUSH0 DUP4 DUP4 ADD MSTORE POP POP POP JUMP JUMPDEST PUSH0 PUSH1 0x1F NOT PUSH1 0x1F DUP4 ADD AND SWAP1 POP SWAP2 SWAP1 POP JUMP JUMPDEST PUSH0 PUSH2 0xB1D DUP3 PUSH2 0xADB JUMP JUMPDEST PUSH2 0xB27 DUP2 DUP6 PUSH2 0xAE5 JUMP JUMPDEST SWAP4 POP PUSH2 0xB37 DUP2 DUP6 PUSH1 0x20 DUP7 ADD PUSH2 0xAF5 JUMP JUMPDEST PUSH2 0xB40 DUP2 PUSH2 0xB03 JUMP JUMPDEST DUP5 ADD SWAP2 POP POP SWAP3 SWAP2 POP POP JUMP JUMPDEST PUSH32 0x4E487B7100000000000000000000000000000000000000000000000000000000 PUSH0 MSTORE PUSH1 0x21 PUSH1 0x4 MSTORE PUSH1 0x24 PUSH0 REVERT JUMPDEST PUSH1 0x3 DUP2 LT PUSH2 0xB89 JUMPI PUSH2 0xB88 PUSH2 0xB4B JUMP JUMPDEST JUMPDEST POP JUMP JUMPDEST PUSH0 DUP2 SWAP1 POP PUSH2 0xB99 DUP3 PUSH2 0xB78 JUMP JUMPDEST SWAP2 SWAP1 POP JUMP JUMPDEST PUSH0 PUSH2 0xBA8 DUP3 PUSH2 0xB8C JUMP JUMPDEST SWAP1 POP SWAP2 SWAP1 POP JUMP JUMPDEST PUSH2 0xBB8 DUP2 PUSH2 0xB9E JUMP JUMPDEST DUP3 MSTORE POP POP JUMP JUMPDEST PUSH2 0xBC7 DUP2 PUSH2 0xA6A JUMP JUMPDEST DUP3 MSTORE POP POP JUMP JUMPDEST PUSH0 PUSH1 0x60 DUP4 ADD PUSH0 DUP4 ADD MLOAD DUP5 DUP3 SUB PUSH0 DUP7 ADD MSTORE PUSH2 0xBE7 DUP3 DUP3 PUSH2 0xB13 JUMP JUMPDEST SWAP2 POP POP PUSH1 0x20 DUP4 ADD MLOAD PUSH2 0xBFC PUSH1 0x20 DUP7 ADD DUP3 PUSH2 0xBAF JUMP JUMPDEST POP PUSH1 0x40 DUP4 ADD MLOAD PUSH2 0xC0F PUSH1 0x40 DUP7 ADD DUP3 PUSH2 0xBBE JUMP JUMPDEST POP DUP1 SWAP2 POP POP SWAP3 SWAP2 POP POP JUMP JUMPDEST PUSH0 PUSH1 0x20 DUP3 ADD SWAP1 POP DUP2 DUP2 SUB PUSH0 DUP4 ADD MSTORE PUSH2 0xC32 DUP2 DUP5 PUSH2 0xBCD JUMP JUMPDEST SWAP1 POP SWAP3 SWAP2 POP POP JUMP JUMPDEST PUSH0 PUSH1 0x20 DUP3 DUP5 SUB SLT ISZERO PUSH2 0xC4F JUMPI PUSH2 0xC4E PUSH2 0xA08 JUMP JUMPDEST JUMPDEST PUSH0 PUSH2 0xC5C DUP5 DUP3 DUP6 ADD PUSH2 0xA56 JUMP JUMPDEST SWAP2 POP POP SWAP3 SWAP2 POP POP JUMP JUMPDEST PUSH0 DUP2 MLOAD SWAP1 POP SWAP2 SWAP1 POP JUMP JUMPDEST PUSH0 DUP3 DUP3 MSTORE PUSH1 0x20 DUP3 ADD SWAP1 POP SWAP3 SWAP2 POP POP JUMP JUMPDEST PUSH0 DUP2 SWAP1 POP PUSH1 0x20 DUP3 ADD SWAP1 POP SWAP2 SWAP1 POP JUMP JUMPDEST PUSH0 PUSH1 0x60 DUP4 ADD PUSH0 DUP4 ADD MLOAD DUP5 DUP3 SUB PUSH0 DUP7 ADD MSTORE PUSH2 0xCA8 DUP3 DUP3 PUSH2 0xB13 JUMP JUMPDEST SWAP2 POP POP PUSH1 0x20 DUP4 ADD MLOAD PUSH2 0xCBD PUSH1 0x20 DUP7 ADD DUP3 PUSH2 0xBAF JUMP JUMPDEST POP PUSH1 0x40 DUP4 ADD MLOAD PUSH2 0xCD0 PUSH1 0x40 DUP7 ADD DUP3 PUSH2 0xBBE JUMP JUMPDEST POP DUP1 SWAP2 POP POP SWAP3 SWAP2 POP POP JUMP JUMPDEST PUSH0 PUSH2 0xCE6 DUP4 DUP4 PUSH2 0xC8E JUMP JUMPDEST SWAP1 POP SWAP3 SWAP2 POP POP JUMP JUMPDEST PUSH0 PUSH1 0x20 DUP3 ADD SWAP1 POP SWAP2 SWAP1 POP JUMP JUMPDEST PUSH0 PUSH2 0xD04 DUP3 PUSH2 0xC65 JUMP JUMPDEST PUSH2 0xD0E DUP2 DUP6 PUSH2 0xC6F JUMP JUMPDEST SWAP4 POP DUP4 PUSH1 0x20 DUP3 MUL DUP6 ADD PUSH2 0xD20 DUP6 PUSH2 0xC7F JUMP JUMPDEST DUP1 PUSH0 JUMPDEST DUP6 DUP2 LT ISZERO PUSH2 0xD5B JUMPI DUP5 DUP5 SUB DUP10 MSTORE DUP2 MLOAD PUSH2 0xD3C DUP6 DUP3 PUSH2 0xCDB JUMP JUMPDEST SWAP5 POP PUSH2 0xD47 DUP4 PUSH2 0xCEE JUMP JUMPDEST SWAP3 POP PUSH1 0x20 DUP11 ADD SWAP10 POP POP PUSH1 0x1 DUP2 ADD SWAP1 POP PUSH2 0xD23 JUMP JUMPDEST POP DUP3 SWAP8 POP DUP8 SWAP6 POP POP POP POP POP POP SWAP3 SWAP2 POP POP JUMP JUMPDEST PUSH0 PUSH1 0x20 DUP3 ADD SWAP1 POP DUP2 DUP2 SUB PUSH0 DUP4 ADD MSTORE PUSH2 0xD85 DUP2 DUP5 PUSH2 0xCFA JUMP JUMPDEST SWAP1 POP SWAP3 SWAP2 POP POP JUMP JUMPDEST PUSH1 0x3 DUP2 LT PUSH2 0xD99 JUMPI PUSH0 PUSH0 REVERT JUMPDEST POP JUMP JUMPDEST PUSH0 DUP2 CALLDATALOAD SWAP1 POP PUSH2 0xDAA DUP2 PUSH2 0xD8D JUMP JUMPDEST SWAP3 SWAP2 POP POP JUMP JUMPDEST PUSH0 PUSH0 PUSH1 0x40 DUP4 DUP6 SUB SLT ISZERO PUSH2 0xDC6 JUMPI PUSH2 0xDC5 PUSH2 0xA08 JUMP JUMPDEST JUMPDEST PUSH0 PUSH2 0xDD3 DUP6 DUP3 DUP7 ADD PUSH2 0xA89 JUMP JUMPDEST SWAP3 POP POP PUSH1 0x20 PUSH2 0xDE4 DUP6 DUP3 DUP7 ADD PUSH2 0xD9C JUMP JUMPDEST SWAP2 POP POP SWAP3 POP SWAP3 SWAP1 POP JUMP JUMPDEST PUSH0 PUSH1 0x20 DUP3 DUP5 SUB SLT ISZERO PUSH2 0xE03 JUMPI PUSH2 0xE02 PUSH2 0xA08 JUMP JUMPDEST JUMPDEST PUSH0 PUSH2 0xE10 DUP5 DUP3 DUP6 ADD PUSH2 0xA89 JUMP JUMPDEST SWAP2 POP POP SWAP3 SWAP2 POP POP JUMP JUMPDEST PUSH0 DUP3 DUP3 MSTORE PUSH1 0x20 DUP3 ADD SWAP1 POP SWAP3 SWAP2 POP POP JUMP JUMPDEST PUSH0 PUSH2 0xE33 DUP3 PUSH2 0xADB JUMP JUMPDEST PUSH2 0xE3D DUP2 DUP6 PUSH2 0xE19 JUMP JUMPDEST SWAP4 POP PUSH2 0xE4D DUP2 DUP6 PUSH1 0x20 DUP7 ADD PUSH2 0xAF5 JUMP JUMPDEST PUSH2 0xE56 DUP2 PUSH2 0xB03 JUMP JUMPDEST DUP5 ADD SWAP2 POP POP SWAP3 SWAP2 POP POP JUMP JUMPDEST PUSH2 0xE6A DUP2 PUSH2 0xB9E JUMP JUMPDEST DUP3 MSTORE POP POP JUMP JUMPDEST PUSH2 0xE79 DUP2 PUSH2 0xA6A JUMP JUMPDEST DUP3 MSTORE POP POP JUMP JUMPDEST PUSH0 PUSH1 0x60 DUP3 ADD SWAP1 POP DUP2 DUP2 SUB PUSH0 DUP4 ADD MSTORE PUSH2 0xE97 DUP2 DUP7 PUSH2 0xE29 JUMP JUMPDEST SWAP1 POP PUSH2 0xEA6 PUSH1 0x20 DUP4 ADD DUP6 PUSH2 0xE61 JUMP JUMPDEST PUSH2 0xEB3 PUSH1 0x40 DUP4 ADD DUP5 PUSH2 0xE70 JUMP JUMPDEST SWAP5 SWAP4 POP POP POP POP JUMP JUMPDEST PUSH0 PUSH0 REVERT JUMPDEST PUSH0 PUSH0 REVERT JUMPDEST PUSH32 0x4E487B7100000000000000000000000000000000000000000000000000000000 PUSH0 MSTORE PUSH1 0x41 PUSH1 0x4 MSTORE PUSH1 0x24 PUSH0 REVERT JUMPDEST PUSH2 0xEF9 DUP3 PUSH2 0xB03 JUMP JUMPDEST DUP2 ADD DUP2 DUP2 LT PUSH8 0xFFFFFFFFFFFFFFFF DUP3 GT OR ISZERO PUSH2 0xF18 JUMPI PUSH2 0xF17 PUSH2 0xEC3 JUMP JUMPDEST JUMPDEST DUP1 PUSH1 0x40 MSTORE POP POP POP JUMP JUMPDEST PUSH0 PUSH2 0xF2A PUSH2 0x9FF JUMP JUMPDEST SWAP1 POP PUSH2 0xF36 DUP3 DUP3 PUSH2 0xEF0 JUMP JUMPDEST SWAP2 SWAP1 POP JUMP JUMPDEST PUSH0 PUSH8 0xFFFFFFFFFFFFFFFF DUP3 GT ISZERO PUSH2 0xF55 JUMPI PUSH2 0xF54 PUSH2 0xEC3 JUMP JUMPDEST JUMPDEST PUSH2 0xF5E DUP3 PUSH2 0xB03 JUMP JUMPDEST SWAP1 POP PUSH1 0x20 DUP2 ADD SWAP1 POP SWAP2 SWAP1 POP JUMP JUMPDEST DUP3 DUP2 DUP4 CALLDATACOPY PUSH0 DUP4 DUP4 ADD MSTORE POP POP POP JUMP JUMPDEST PUSH0 PUSH2 0xF8B PUSH2 0xF86 DUP5 PUSH2 0xF3B JUMP JUMPDEST PUSH2 0xF21 JUMP JUMPDEST SWAP1 POP DUP3 DUP2 MSTORE PUSH1 0x20 DUP2 ADD DUP5 DUP5 DUP5 ADD GT ISZERO PUSH2 0xFA7 JUMPI PUSH2 0xFA6 PUSH2 0xEBF JUMP JUMPDEST JUMPDEST PUSH2 0xFB2 DUP5 DUP3 DUP6 PUSH2 0xF6B JUMP JUMPDEST POP SWAP4 SWAP3 POP POP POP JUMP JUMPDEST PUSH0 DUP3 PUSH1 0x1F DUP4 ADD SLT PUSH2 0xFCE JUMPI PUSH2 0xFCD PUSH2 0xEBB JUMP JUMPDEST JUMPDEST DUP2 CALLDATALOAD PUSH2 0xFDE DUP5 DUP3 PUSH1 0x20 DUP7 ADD PUSH2 0xF79 JUMP JUMPDEST SWAP2 POP POP SWAP3 SWAP2 POP POP JUMP JUMPDEST PUSH0 PUSH0 PUSH1 0x40 DUP4 DUP6 SUB SLT ISZERO PUSH2 0xFFD JUMPI PUSH2 0xFFC PUSH2 0xA08 JUMP JUMPDEST JUMPDEST PUSH0 PUSH2 0x100A DUP6 DUP3 DUP7 ADD PUSH2 0xA89 JUMP JUMPDEST SWAP3 POP POP PUSH1 0x20 DUP4 ADD CALLDATALOAD PUSH8 0xFFFFFFFFFFFFFFFF DUP2 GT ISZERO PUSH2 0x102B JUMPI PUSH2 0x102A PUSH2 0xA0C JUMP JUMPDEST JUMPDEST PUSH2 0x1037 DUP6 DUP3 DUP7 ADD PUSH2 0xFBA JUMP JUMPDEST SWAP2 POP POP SWAP3 POP SWAP3 SWAP1 POP JUMP JUMPDEST PUSH0 PUSH0 PUSH1 0x40 DUP4 DUP6 SUB SLT ISZERO PUSH2 0x1057 JUMPI PUSH2 0x1056 PUSH2 0xA08 JUMP JUMPDEST JUMPDEST PUSH0 PUSH2 0x1064 DUP6 DUP3 DUP7 ADD PUSH2 0xD9C JUMP JUMPDEST SWAP3 POP POP PUSH1 0x20 DUP4 ADD CALLDATALOAD PUSH8 0xFFFFFFFFFFFFFFFF DUP2 GT ISZERO PUSH2 0x1085 JUMPI PUSH2 0x1084 PUSH2 0xA0C JUMP JUMPDEST JUMPDEST PUSH2 0x1091 DUP6 DUP3 DUP7 ADD PUSH2 0xFBA JUMP JUMPDEST SWAP2 POP POP SWAP3 POP SWAP3 SWAP1 POP JUMP JUMPDEST PUSH0 PUSH1 0x20 DUP3 ADD SWAP1 POP PUSH2 0x10AE PUSH0 DUP4 ADD DUP5 PUSH2 0xE70 JUMP JUMPDEST SWAP3 SWAP2 POP POP JUMP JUMPDEST PUSH32 0x496E76616C696420696E64657800000000000000000000000000000000000000 PUSH0 DUP3 ADD MSTORE POP JUMP JUMPDEST PUSH0 PUSH2 0x10E8 PUSH1 0xD DUP4 PUSH2 0xE19 JUMP JUMPDEST SWAP2 POP PUSH2 0x10F3 DUP3 PUSH2 0x10B4 JUMP JUMPDEST PUSH1 0x20 DUP3 ADD SWAP1 POP SWAP2 SWAP1 POP JUMP JUMPDEST PUSH0 PUSH1 0x20 DUP3 ADD SWAP1 POP DUP2 DUP2 SUB PUSH0 DUP4 ADD MSTORE PUSH2 0x1115 DUP2 PUSH2 0x10DC JUMP JUMPDEST SWAP1 POP SWAP2 SWAP1 POP JUMP JUMPDEST PUSH32 0x4E487B7100000000000000000000000000000000000000000000000000000000 PUSH0 MSTORE PUSH1 0x32 PUSH1 0x4 MSTORE PUSH1 0x24 PUSH0 REVERT JUMPDEST PUSH32 0x4E487B7100000000000000000000000000000000000000000000000000000000 PUSH0 MSTORE PUSH1 0x22 PUSH1 0x4 MSTORE PUSH1 0x24 PUSH0 REVERT JUMPDEST PUSH0 PUSH1 0x2 DUP3 DIV SWAP1 POP PUSH1 0x1 DUP3 AND DUP1 PUSH2 0x118D JUMPI PUSH1 0x7F DUP3 AND SWAP2 POP JUMPDEST PUSH1 0x20 DUP3 LT DUP2 SUB PUSH2 0x11A0 JUMPI PUSH2 0x119F PUSH2 0x1149 JUMP JUMPDEST JUMPDEST POP SWAP2 SWAP1 POP JUMP JUMPDEST PUSH32 0x4E487B7100000000000000000000000000000000000000000000000000000000 PUSH0 MSTORE PUSH1 0x11 PUSH1 0x4 MSTORE PUSH1 0x24 PUSH0 REVERT JUMPDEST PUSH0 PUSH2 0x11DD DUP3 PUSH2 0xA6A JUMP JUMPDEST SWAP2 POP PUSH32 0xFFFFFFFFFFFFFFFFFFFFFFFFFFFFFFFFFFFFFFFFFFFFFFFFFFFFFFFFFFFFFFFF DUP3 SUB PUSH2 0x120F JUMPI PUSH2 0x120E PUSH2 0x11A6 JUMP JUMPDEST JUMPDEST PUSH1 0x1 DUP3 ADD SWAP1 POP SWAP2 SWAP1 POP JUMP JUMPDEST PUSH2 0x1223 DUP2 PUSH2 0xA2F JUMP JUMPDEST DUP3 MSTORE POP POP JUMP JUMPDEST PUSH0 DUP2 SWAP1 POP DUP2 PUSH0 MSTORE PUSH1 0x20 PUSH0 KECCAK256 SWAP1 POP SWAP2 SWAP1 POP JUMP JUMPDEST PUSH0 DUP2 SLOAD PUSH2 0x1247 DUP2 PUSH2 0x1176 JUMP JUMPDEST PUSH2 0x1251 DUP2 DUP7 PUSH2 0xE19 JUMP JUMPDEST SWAP5 POP PUSH1 0x1 DUP3 AND PUSH0 DUP2 EQ PUSH2 0x126B JUMPI PUSH1 0x1 DUP2 EQ PUSH2 0x1281 JUMPI PUSH2 0x12B3 JUMP JUMPDEST PUSH1 0xFF NOT DUP4 AND DUP7 MSTORE DUP2 ISZERO ISZERO PUSH1 0x20 MUL DUP7 ADD SWAP4 POP PUSH2 0x12B3 JUMP JUMPDEST PUSH2 0x128A DUP6 PUSH2 0x1229 JUMP JUMPDEST PUSH0 JUMPDEST DUP4 DUP2 LT ISZERO PUSH2 0x12AB JUMPI DUP2 SLOAD DUP2 DUP10 ADD MSTORE PUSH1 0x1 DUP3 ADD SWAP2 POP PUSH1 0x20 DUP2 ADD SWAP1 POP PUSH2 0x128C JUMP JUMPDEST DUP1 DUP9 ADD SWAP6 POP POP POP JUMPDEST POP POP POP SWAP3 SWAP2 POP POP JUMP JUMPDEST PUSH0 PUSH1 0x80 DUP3 ADD SWAP1 POP PUSH2 0x12CF PUSH0 DUP4 ADD DUP8 PUSH2 0x121A JUMP JUMPDEST PUSH2 0x12DC PUSH1 0x20 DUP4 ADD DUP7 PUSH2 0xE70 JUMP JUMPDEST DUP2 DUP2 SUB PUSH1 0x40 DUP4 ADD MSTORE PUSH2 0x12EE DUP2 DUP6 PUSH2 0x123B JUMP JUMPDEST SWAP1 POP DUP2 DUP2 SUB PUSH1 0x60 DUP4 ADD MSTORE PUSH2 0x1302 DUP2 DUP5 PUSH2 0xE29 JUMP JUMPDEST SWAP1 POP SWAP6 SWAP5 POP POP POP POP POP JUMP JUMPDEST PUSH0 PUSH1 0x20 PUSH1 0x1F DUP4 ADD DIV SWAP1 POP SWAP2 SWAP1 POP JUMP JUMPDEST PUSH0 DUP3 DUP3 SHL SWAP1 POP SWAP3 SWAP2 POP POP JUMP JUMPDEST PUSH0 PUSH1 0x8 DUP4 MUL PUSH2 0x1357 PUSH32 0xFFFFFFFFFFFFFFFFFFFFFFFFFFFFFFFFFFFFFFFFFFFFFFFFFFFFFFFFFFFFFFFF DUP3 PUSH2 0x131C JUMP JUMPDEST PUSH2 0x1361 DUP7 DUP4 PUSH2 0x131C JUMP JUMPDEST SWAP6 POP DUP1 NOT DUP5 AND SWAP4 POP DUP1 DUP7 AND DUP5 OR SWAP3 POP POP POP SWAP4 SWAP3 POP POP POP JUMP JUMPDEST PUSH0 DUP2 SWAP1 POP SWAP2 SWAP1 POP JUMP JUMPDEST PUSH0 PUSH2 0x139C PUSH2 0x1397 PUSH2 0x1392 DUP5 PUSH2 0xA6A JUMP JUMPDEST PUSH2 0x1379 JUMP JUMPDEST PUSH2 0xA6A JUMP JUMPDEST SWAP1 POP SWAP2 SWAP1 POP JUMP JUMPDEST PUSH0 DUP2 SWAP1 POP SWAP2 SWAP1 POP JUMP JUMPDEST PUSH2 0x13B5 DUP4 PUSH2 0x1382 JUMP JUMPDEST PUSH2 0x13C9 PUSH2 0x13C1 DUP3 PUSH2 0x13A3 JUMP JUMPDEST DUP5 DUP5 SLOAD PUSH2 0x1328 JUMP JUMPDEST DUP3 SSTORE POP POP POP POP JUMP JUMPDEST PUSH0 PUSH0 SWAP1 POP SWAP1 JUMP JUMPDEST PUSH2 0x13E0 PUSH2 0x13D1 JUMP JUMPDEST PUSH2 0x13EB DUP2 DUP5 DUP5 PUSH2 0x13AC JUMP JUMPDEST POP POP POP JUMP JUMPDEST JUMPDEST DUP2 DUP2 LT ISZERO PUSH2 0x140E JUMPI PUSH2 0x1403 PUSH0 DUP3 PUSH2 0x13D8 JUMP JUMPDEST PUSH1 0x1 DUP2 ADD SWAP1 POP PUSH2 0x13F1 JUMP JUMPDEST POP POP JUMP JUMPDEST PUSH1 0x1F DUP3 GT ISZERO PUSH2 0x1453 JUMPI PUSH2 0x1424 DUP2 PUSH2 0x1229 JUMP JUMPDEST PUSH2 0x142D DUP5 PUSH2 0x130D JUMP JUMPDEST DUP2 ADD PUSH1 0x20 DUP6 LT ISZERO PUSH2 0x143C JUMPI DUP2 SWAP1 POP JUMPDEST PUSH2 0x1450 PUSH2 0x1448 DUP6 PUSH2 0x130D JUMP JUMPDEST DUP4 ADD DUP3 PUSH2 0x13F0 JUMP JUMPDEST POP POP JUMPDEST POP POP POP JUMP JUMPDEST PUSH0 DUP3 DUP3 SHR SWAP1 POP SWAP3 SWAP2 POP POP JUMP JUMPDEST PUSH0 PUSH2 0x1473 PUSH0 NOT DUP5 PUSH1 0x8 MUL PUSH2 0x1458 JUMP JUMPDEST NOT DUP1 DUP4 AND SWAP2 POP POP SWAP3 SWAP2 POP POP JUMP JUMPDEST PUSH0 PUSH2 0x148B DUP4 DUP4 PUSH2 0x1464 JUMP JUMPDEST SWAP2 POP DUP3 PUSH1 0x2 MUL DUP3 OR SWAP1 POP SWAP3 SWAP2 POP POP JUMP JUMPDEST PUSH2 0x14A4 DUP3 PUSH2 0xADB JUMP JUMPDEST PUSH8 0xFFFFFFFFFFFFFFFF DUP2 GT ISZERO PUSH2 0x14BD JUMPI PUSH2 0x14BC PUSH2 0xEC3 JUMP JUMPDEST JUMPDEST PUSH2 0x14C7 DUP3 SLOAD PUSH2 0x1176 JUMP JUMPDEST PUSH2 0x14D2 DUP3 DUP3 DUP6 PUSH2 0x1412 JUMP JUMPDEST PUSH0 PUSH1 0x20 SWAP1 POP PUSH1 0x1F DUP4 GT PUSH1 0x1 DUP2 EQ PUSH2 0x1503 JUMPI PUSH0 DUP5 ISZERO PUSH2 0x14F1 JUMPI DUP3 DUP8 ADD MLOAD SWAP1 POP JUMPDEST PUSH2 0x14FB DUP6 DUP3 PUSH2 0x1480 JUMP JUMPDEST DUP7 SSTORE POP PUSH2 0x1562 JUMP JUMPDEST PUSH1 0x1F NOT DUP5 AND PUSH2 0x1511 DUP7 PUSH2 0x1229 JUMP JUMPDEST PUSH0 JUMPDEST DUP3 DUP2 LT ISZERO PUSH2 0x1538 JUMPI DUP5 DUP10 ADD MLOAD DUP3 SSTORE PUSH1 0x1 DUP3 ADD SWAP2 POP PUSH1 0x20 DUP6 ADD SWAP5 POP PUSH1 0x20 DUP2 ADD SWAP1 POP PUSH2 0x1513 JUMP JUMPDEST DUP7 DUP4 LT ISZERO PUSH2 0x1555 JUMPI DUP5 DUP10 ADD MLOAD PUSH2 0x1551 PUSH1 0x1F DUP10 AND DUP3 PUSH2 0x1464 JUMP JUMPDEST DUP4 SSTORE POP JUMPDEST PUSH1 0x1 PUSH1 0x2 DUP9 MUL ADD DUP9 SSTORE POP POP POP JUMPDEST POP POP POP POP POP POP JUMP JUMPDEST PUSH0 PUSH2 0x1574 DUP3 PUSH2 0xA6A JUMP JUMPDEST SWAP2 POP PUSH2 0x157F DUP4 PUSH2 0xA6A JUMP JUMPDEST SWAP3 POP DUP3 DUP3 SUB SWAP1 POP DUP2 DUP2 GT ISZERO PUSH2 0x1597 JUMPI PUSH2 0x1596 PUSH2 0x11A6 JUMP JUMPDEST JUMPDEST SWAP3 SWAP2 POP POP JUMP INVALID LOG2 PUSH5 0x6970667358 0x22 SLT KECCAK256 DELEGATECALL PUSH29 0x44DAE27CE46B447BECDE80AC8A60BF4E42488A026BC1E65C8CDFC938D1 PUSH18 0x64736F6C634300081E003300000000000000 "
		},
		"gasEstimates": {
			"creation": {
				"codeDepositCost": "1117400",
				"executionCost": "infinite",
				"totalCost": "infinite"
			},
			"external": {
				"addInfo(uint8,string)": "infinite",
				"getMyInfoAtIndex(uint256)": "infinite",
				"getOneInfo(address,uint256)": "infinite",
				"listAllInfo(address)": "infinite",
				"setColor(uint256,uint8)": "infinite",
				"setInfo(uint256,string)": "infinite",
				"storedInfos(address,uint256)": "infinite"
			}
		},
		"methodIdentifiers": {
			"addInfo(uint8,string)": "e8f36962",
			"getMyInfoAtIndex(uint256)": "8cdd8902",
			"getOneInfo(address,uint256)": "08c46711",
			"listAllInfo(address)": "251101f5",
			"setColor(uint256,uint8)": "63ff1368",
			"setInfo(uint256,string)": "b6820002",
			"storedInfos(address,uint256)": "9ca3a5ed"
		}
	},
	"abi": [
		{
			"inputs": [],
			"stateMutability": "nonpayable",
			"type": "constructor"
		},
		{
			"anonymous": false,
			"inputs": [
				{
					"indexed": false,
					"internalType": "address",
					"name": "person",
					"type": "address"
				},
				{
					"indexed": false,
					"internalType": "uint256",
					"name": "countChamges",
					"type": "uint256"
				},
				{
					"indexed": false,
					"internalType": "string",
					"name": "oldInfo",
					"type": "string"
				},
				{
					"indexed": false,
					"internalType": "string",
					"name": "newInfo",
					"type": "string"
				}
			],
			"name": "InfoChange",
			"type": "event"
		},
		{
			"inputs": [
				{
					"internalType": "enum AllTogether.Colors",
					"name": "myColor",
					"type": "uint8"
				},
				{
					"internalType": "string",
					"name": "myInfo",
					"type": "string"
				}
			],
			"name": "addInfo",
			"outputs": [
				{
					"internalType": "uint256",
					"name": "index",
					"type": "uint256"
				}
			],
			"stateMutability": "nonpayable",
			"type": "function"
		},
		{
			"inputs": [
				{
					"internalType": "uint256",
					"name": "index",
					"type": "uint256"
				}
			],
			"name": "getMyInfoAtIndex",
			"outputs": [
				{
					"components": [
						{
							"internalType": "string",
							"name": "info",
							"type": "string"
						},
						{
							"internalType": "enum AllTogether.Colors",
							"name": "color",
							"type": "uint8"
						},
						{
							"internalType": "uint256",
							"name": "countChanges",
							"type": "uint256"
						}
					],
					"internalType": "struct AllTogether.InfoStruct",
					"name": "",
					"type": "tuple"
				}
			],
			"stateMutability": "view",
			"type": "function"
		},
		{
			"inputs": [
				{
					"internalType": "address",
					"name": "account",
					"type": "address"
				},
				{
					"internalType": "uint256",
					"name": "index",
					"type": "uint256"
				}
			],
			"name": "getOneInfo",
			"outputs": [
				{
					"components": [
						{
							"internalType": "string",
							"name": "info",
							"type": "string"
						},
						{
							"internalType": "enum AllTogether.Colors",
							"name": "color",
							"type": "uint8"
						},
						{
							"internalType": "uint256",
							"name": "countChanges",
							"type": "uint256"
						}
					],
					"internalType": "struct AllTogether.InfoStruct",
					"name": "",
					"type": "tuple"
				}
			],
			"stateMutability": "view",
			"type": "function"
		},
		{
			"inputs": [
				{
					"internalType": "address",
					"name": "account",
					"type": "address"
				}
			],
			"name": "listAllInfo",
			"outputs": [
				{
					"components": [
						{
							"internalType": "string",
							"name": "info",
							"type": "string"
						},
						{
							"internalType": "enum AllTogether.Colors",
							"name": "color",
							"type": "uint8"
						},
						{
							"internalType": "uint256",
							"name": "countChanges",
							"type": "uint256"
						}
					],
					"internalType": "struct AllTogether.InfoStruct[]",
					"name": "",
					"type": "tuple[]"
				}
			],
			"stateMutability": "view",
			"type": "function"
		},
		{
			"inputs": [
				{
					"internalType": "uint256",
					"name": "index",
					"type": "uint256"
				},
				{
					"internalType": "enum AllTogether.Colors",
					"name": "myColor",
					"type": "uint8"
				}
			],
			"name": "setColor",
			"outputs": [],
			"stateMutability": "nonpayable",
			"type": "function"
		},
		{
			"inputs": [
				{
					"internalType": "uint256",
					"name": "index",
					"type": "uint256"
				},
				{
					"internalType": "string",
					"name": "newInfo",
					"type": "string"
				}
			],
			"name": "setInfo",
			"outputs": [],
			"stateMutability": "nonpayable",
			"type": "function"
		},
		{
			"inputs": [
				{
					"internalType": "address",
					"name": "",
					"type": "address"
				},
				{
					"internalType": "uint256",
					"name": "",
					"type": "uint256"
				}
			],
			"name": "storedInfos",
			"outputs": [
				{
					"internalType": "string",
					"name": "info",
					"type": "string"
				},
				{
					"internalType": "enum AllTogether.Colors",
					"name": "color",
					"type": "uint8"
				},
				{
					"internalType": "uint256",
					"name": "countChanges",
					"type": "uint256"
				}
			],
			"stateMutability": "view",
			"type": "function"
		}
	]
}