{
	"data": {
		"bytecode": {
			"linkReferences": {},
			"object": "60e060405234801561000f575f5ffd5b5060405161456e38038061456e833981810160405281019061003191906105e6565b600180819055505f73ffffffffffffffffffffffffffffffffffffffff168373ffffffffffffffffffffffffffffffffffffffff160361009d576040517f52cc3f7d00000000000000000000000000000000000000000000000000000000815260040160405180910390fd5b5f82036100d6576040517f2c5211c600000000000000000000000000000000000000000000000000000000815260040160405180910390fd5b5f810361010f576040517f2c5211c600000000000000000000000000000000000000000000000000000000815260040160405180910390fd5b81811115610149576040517f4e6a369600000000000000000000000000000000000000000000000000000000815260040160405180910390fd5b8273ffffffffffffffffffffffffffffffffffffffff1660808173ffffffffffffffffffffffffffffffffffffffff16815250508160a081815250508060c0818152505061019f5f5f1b3361021c60201b60201c565b506101d07fa49807205ce4d355092ef5a8a18f56e8913cf4a201fbe287825b095693c217753361021c60201b60201c565b506102017f97667070c54ef182b0f5858b034beac1b6f3089aa2d3188bb1e8929f4fa9b9293361021c60201b60201c565b506102145f60128561031160201b60201c565b505050610687565b5f61022d83836104eb60201b60201c565b6103075760015f5f8581526020019081526020015f205f015f8473ffffffffffffffffffffffffffffffffffffffff1673ffffffffffffffffffffffffffffffffffffffff1681526020019081526020015f205f6101000a81548160ff0219169083151502179055506102a461054e60201b60201c565b73ffffffffffffffffffffffffffffffffffffffff168273ffffffffffffffffffffffffffffffffffffffff16847f2f8788117e7eff1d82e926ec794901d17c78024a50270940304540a733656f0d60405160405180910390a46001905061030b565b5f90505b92915050565b600160085f8573ffffffffffffffffffffffffffffffffffffffff1673ffffffffffffffffffffffffffffffffffffffff1681526020019081526020015f205f6101000a81548160ff0219169083151502179055508160095f8573ffffffffffffffffffffffffffffffffffffffff1673ffffffffffffffffffffffffffffffffffffffff1681526020019081526020015f205f6101000a81548160ff021916908360ff16021790555080600a5f8573ffffffffffffffffffffffffffffffffffffffff1673ffffffffffffffffffffffffffffffffffffffff1681526020019081526020015f205f6101000a81548173ffffffffffffffffffffffffffffffffffffffff021916908373ffffffffffffffffffffffffffffffffffffffff160217905550600683908060018154018082558091505060019003905f5260205f20015f9091909190916101000a81548173ffffffffffffffffffffffffffffffffffffffff021916908373ffffffffffffffffffffffffffffffffffffffff1602179055508273ffffffffffffffffffffffffffffffffffffffff167f71eedf6e504658772ec96be84d876ae5c35b713cfdbfb47fe2c0053e9bdfe37b83836040516104de929190610660565b60405180910390a2505050565b5f5f5f8481526020019081526020015f205f015f8373ffffffffffffffffffffffffffffffffffffffff1673ffffffffffffffffffffffffffffffffffffffff1681526020019081526020015f205f9054906101000a900460ff16905092915050565b5f33905090565b5f5ffd5b5f73ffffffffffffffffffffffffffffffffffffffff82169050919050565b5f61058282610559565b9050919050565b61059281610578565b811461059c575f5ffd5b50565b5f815190506105ad81610589565b92915050565b5f819050919050565b6105c5816105b3565b81146105cf575f5ffd5b50565b5f815190506105e0816105bc565b92915050565b5f5f5f606084860312156105fd576105fc610555565b5b5f61060a8682870161059f565b935050602061061b868287016105d2565b925050604061062c868287016105d2565b9150509250925092565b5f60ff82169050919050565b61064b81610636565b82525050565b61065a81610578565b82525050565b5f6040820190506106735f830185610642565b6106806020830184610651565b9392505050565b60805160a05160c051613e7e6106f05f395f8181610e5901528181611ce10152818161205201528181612088015281816120b0015281816122ff015261233401525f818161166b01528181611970015261277f01525f8181610c990152612d8d0152613e7e5ff3fe60806040526004361061025b575f3560e01c806375151b6311610143578063c6e8e38c116100b5578063db6b524611610079578063db6b52461461093e578063ee95799614610948578063f3fef3a314610984578063f5b541a6146109ac578063fa09e630146109d6578063ffecbc17146109fe5761025b565b8063c6e8e38c14610847578063d02641a014610874578063d3c7c2c7146108b0578063d4fac45d146108da578063d547741f146109165761025b565b8063965e12dc11610107578063965e12dc14610713578063a217fddf1461073d578063ac4543ba14610767578063bd9c47e314610791578063c53d6ce1146107cd578063c62556261461080b5761025b565b806375151b631461061f57806375b238fc1461065b5780638456cb59146106855780638ee573ac1461069b57806391d14854146106d75761025b565b806345037ac9116101dc5780635476bd72116101a05780635476bd721461050357806357f1915d1461052b5780635c975abb146105675780635fa7b5841461059157806370d397e9146105b957806371706cbe146105f55761025b565b806345037ac91461042157806347e7ef241461044b5780634d635e70146104735780634ed94b24146104af57806351247424146104d95761025b565b80632f2ff15d116102235780632f2ff15d1461036757806331f7d9641461038f57806336568abe146103b95780633f4ba83a146103e157806342f6fb29146103f75761025b565b806301ffc9a71461025f5780631f69565f1461029b578063248a9ca3146102d75780632b825ad6146103135780632dfdf0b51461033d575b5f5ffd5b34801561026a575f5ffd5b506102856004803603810190610280919061324e565b610a3a565b6040516102929190613293565b60405180910390f35b3480156102a6575f5ffd5b506102c160048036038101906102bc9190613306565b610a4b565b6040516102ce91906133bd565b60405180910390f35b3480156102e2575f5ffd5b506102fd60048036038101906102f89190613409565b610b9a565b60405161030a9190613443565b60405180910390f35b34801561031e575f5ffd5b50610327610bb6565b604051610334919061346b565b60405180910390f35b348015610348575f5ffd5b50610351610bbb565b60405161035e919061349c565b60405180910390f35b348015610372575f5ffd5b5061038d600480360381019061038891906134b5565b610bc1565b005b34801561039a575f5ffd5b506103a3610be3565b6040516103b09190613502565b60405180910390f35b3480156103c4575f5ffd5b506103df60048036038101906103da91906134b5565b610be7565b005b3480156103ec575f5ffd5b506103f5610c62565b005b348015610402575f5ffd5b5061040b610c97565b6040516104189190613576565b60405180910390f35b34801561042c575f5ffd5b50610435610cbb565b604051610442919061349c565b60405180910390f35b348015610456575f5ffd5b50610471600480360381019061046c91906135b9565b610cc1565b005b34801561047e575f5ffd5b50610499600480360381019061049491906135f7565b610e32565b6040516104a6919061349c565b60405180910390f35b3480156104ba575f5ffd5b506104c3610e52565b6040516104d0919061346b565b60405180910390f35b3480156104e4575f5ffd5b506104ed610e57565b6040516104fa919061349c565b60405180910390f35b34801561050e575f5ffd5b50610529600480360381019061052491906135f7565b610e7b565b005b348015610536575f5ffd5b50610551600480360381019061054c91906135b9565b6110d6565b60405161055e919061349c565b60405180910390f35b348015610572575f5ffd5b5061057b6110e9565b6040516105889190613293565b60405180910390f35b34801561059c575f5ffd5b506105b760048036038101906105b29190613306565b6110fe565b005b3480156105c4575f5ffd5b506105df60048036038101906105da91906135f7565b6114d0565b6040516105ec919061349c565b60405180910390f35b348015610600575f5ffd5b50610609611560565b604051610616919061349c565b60405180910390f35b34801561062a575f5ffd5b5061064560048036038101906106409190613306565b611566565b6040516106529190613293565b60405180910390f35b348015610666575f5ffd5b5061066f611583565b60405161067c9190613443565b60405180910390f35b348015610690575f5ffd5b506106996115a7565b005b3480156106a6575f5ffd5b506106c160048036038101906106bc9190613306565b6115dc565b6040516106ce919061346b565b60405180910390f35b3480156106e2575f5ffd5b506106fd60048036038101906106f891906134b5565b6115f9565b60405161070a9190613293565b60405180910390f35b34801561071e575f5ffd5b5061072761165c565b604051610734919061349c565b60405180910390f35b348015610748575f5ffd5b50610751611663565b60405161075e9190613443565b60405180910390f35b348015610772575f5ffd5b5061077b611669565b604051610788919061349c565b60405180910390f35b34801561079c575f5ffd5b506107b760048036038101906107b29190613306565b61168d565b6040516107c49190613576565b60405180910390f35b3480156107d8575f5ffd5b506107f360048036038101906107ee9190613306565b6116bd565b60405161080293929190613794565b60405180910390f35b348015610816575f5ffd5b50610831600480360381019061082c91906137de565b611923565b60405161083e9190613502565b60405180910390f35b348015610852575f5ffd5b5061085b61195e565b60405161086b9493929190613809565b60405180910390f35b34801561087f575f5ffd5b5061089a60048036038101906108959190613306565b6119a7565b6040516108a7919061349c565b60405180910390f35b3480156108bb575f5ffd5b506108c46119b8565b6040516108d1919061384c565b60405180910390f35b3480156108e5575f5ffd5b5061090060048036038101906108fb91906135f7565b611a43565b60405161090d919061349c565b60405180910390f35b348015610921575f5ffd5b5061093c600480360381019061093791906134b5565b611ac5565b005b610946611ae7565b005b348015610953575f5ffd5b5061096e600480360381019061096991906135b9565b611b44565b60405161097b919061349c565b60405180910390f35b34801561098f575f5ffd5b506109aa60048036038101906109a591906135b9565b611b57565b005b3480156109b7575f5ffd5b506109c0611ed8565b6040516109cd9190613443565b60405180910390f35b3480156109e1575f5ffd5b506109fc60048036038101906109f79190613306565b611efc565b005b348015610a09575f5ffd5b50610a246004803603810190610a1f91906135f7565b612273565b604051610a31919061349c565b60405180910390f35b5f610a4482612363565b9050919050565b610a536131a0565b60405180608001604052808373ffffffffffffffffffffffffffffffffffffffff16815260200160095f8573ffffffffffffffffffffffffffffffffffffffff1673ffffffffffffffffffffffffffffffffffffffff1681526020019081526020015f205f9054906101000a900460ff1660ff16815260200160085f8573ffffffffffffffffffffffffffffffffffffffff1673ffffffffffffffffffffffffffffffffffffffff1681526020019081526020015f205f9054906101000a900460ff1615158152602001600a5f8573ffffffffffffffffffffffffffffffffffffffff1673ffffffffffffffffffffffffffffffffffffffff1681526020019081526020015f205f9054906101000a900473ffffffffffffffffffffffffffffffffffffffff1673ffffffffffffffffffffffffffffffffffffffff168152509050919050565b5f5f5f8381526020019081526020015f20600101549050919050565b600681565b60045481565b610bca82610b9a565b610bd3816123dc565b610bdd83836123f0565b50505050565b5f81565b610bef6124d9565b73ffffffffffffffffffffffffffffffffffffffff168173ffffffffffffffffffffffffffffffffffffffff1614610c53576040517f6697b23200000000000000000000000000000000000000000000000000000000815260040160405180910390fd5b610c5d82826124e0565b505050565b7f97667070c54ef182b0f5858b034beac1b6f3089aa2d3188bb1e8929f4fa9b929610c8c816123dc565b610c946125c9565b50565b7f000000000000000000000000000000000000000000000000000000000000000081565b60035481565b610cc961262a565b610cd161266b565b5f73ffffffffffffffffffffffffffffffffffffffff168273ffffffffffffffffffffffffffffffffffffffff1603610d36576040517f1eb00b0600000000000000000000000000000000000000000000000000000000815260040160405180910390fd5b5f8103610d6f576040517f2c5211c600000000000000000000000000000000000000000000000000000000815260040160405180910390fd5b60085f8373ffffffffffffffffffffffffffffffffffffffff1673ffffffffffffffffffffffffffffffffffffffff1681526020019081526020015f205f9054906101000a900460ff16610def576040517f3dd1b30500000000000000000000000000000000000000000000000000000000815260040160405180910390fd5b610e1c3330838573ffffffffffffffffffffffffffffffffffffffff166126b1909392919063ffffffff16565b610e268282612733565b610e2e61290d565b5050565b6007602052815f5260405f20602052805f5260405f205f91509150505481565b600881565b7f000000000000000000000000000000000000000000000000000000000000000081565b7fa49807205ce4d355092ef5a8a18f56e8913cf4a201fbe287825b095693c21775610ea5816123dc565b5f73ffffffffffffffffffffffffffffffffffffffff168373ffffffffffffffffffffffffffffffffffffffff1603610f0a576040517f1eb00b0600000000000000000000000000000000000000000000000000000000815260040160405180910390fd5b5f73ffffffffffffffffffffffffffffffffffffffff168373ffffffffffffffffffffffffffffffffffffffff1603610f6f576040517fc78e82ad00000000000000000000000000000000000000000000000000000000815260040160405180910390fd5b5f73ffffffffffffffffffffffffffffffffffffffff168273ffffffffffffffffffffffffffffffffffffffff1603610fd4576040517f52cc3f7d00000000000000000000000000000000000000000000000000000000815260040160405180910390fd5b60085f8473ffffffffffffffffffffffffffffffffffffffff1673ffffffffffffffffffffffffffffffffffffffff1681526020019081526020015f205f9054906101000a900460ff1615611055576040517fc78e82ad00000000000000000000000000000000000000000000000000000000815260040160405180910390fd5b5f8373ffffffffffffffffffffffffffffffffffffffff1663313ce5676040518163ffffffff1660e01b8152600401602060405180830381865afa15801561109f573d5f5f3e3d5ffd5b505050506040513d601f19601f820116820180604052508101906110c39190613896565b90506110d0848285612916565b50505050565b5f6110e18383612af0565b905092915050565b5f60025f9054906101000a900460ff16905090565b7fa49807205ce4d355092ef5a8a18f56e8913cf4a201fbe287825b095693c21775611128816123dc565b5f73ffffffffffffffffffffffffffffffffffffffff168273ffffffffffffffffffffffffffffffffffffffff160361118d576040517f1eb00b0600000000000000000000000000000000000000000000000000000000815260040160405180910390fd5b60085f8373ffffffffffffffffffffffffffffffffffffffff1673ffffffffffffffffffffffffffffffffffffffff1681526020019081526020015f205f9054906101000a900460ff1661120d576040517f3dd1b30500000000000000000000000000000000000000000000000000000000815260040160405180910390fd5b5f60085f8473ffffffffffffffffffffffffffffffffffffffff1673ffffffffffffffffffffffffffffffffffffffff1681526020019081526020015f205f6101000a81548160ff02191690831515021790555060095f8373ffffffffffffffffffffffffffffffffffffffff1673ffffffffffffffffffffffffffffffffffffffff1681526020019081526020015f205f6101000a81549060ff0219169055600a5f8373ffffffffffffffffffffffffffffffffffffffff1673ffffffffffffffffffffffffffffffffffffffff1681526020019081526020015f205f6101000a81549073ffffffffffffffffffffffffffffffffffffffff02191690555f5f90505b600680549050811015611488578273ffffffffffffffffffffffffffffffffffffffff1660068281548110611349576113486138c1565b5b905f5260205f20015f9054906101000a900473ffffffffffffffffffffffffffffffffffffffff1673ffffffffffffffffffffffffffffffffffffffff160361147b57600660016006805490506113a0919061391b565b815481106113b1576113b06138c1565b5b905f5260205f20015f9054906101000a900473ffffffffffffffffffffffffffffffffffffffff16600682815481106113ed576113ec6138c1565b5b905f5260205f20015f6101000a81548173ffffffffffffffffffffffffffffffffffffffff021916908373ffffffffffffffffffffffffffffffffffffffff16021790555060068054806114445761144361394e565b5b600190038181905f5260205f20015f6101000a81549073ffffffffffffffffffffffffffffffffffffffff02191690559055611488565b8080600101915050611311565b508173ffffffffffffffffffffffffffffffffffffffff167f4c910b69fe65a61f7531b9c5042b2329ca7179c77290aa7e2eb3afa3c8511fd360405160405180910390a25050565b5f5f60075f8573ffffffffffffffffffffffffffffffffffffffff1673ffffffffffffffffffffffffffffffffffffffff1681526020019081526020015f205f8473ffffffffffffffffffffffffffffffffffffffff1673ffffffffffffffffffffffffffffffffffffffff1681526020019081526020015f205490506115578382612bc1565b91505092915050565b60055481565b6008602052805f5260405f205f915054906101000a900460ff1681565b7fa49807205ce4d355092ef5a8a18f56e8913cf4a201fbe287825b095693c2177581565b7f97667070c54ef182b0f5858b034beac1b6f3089aa2d3188bb1e8929f4fa9b9296115d1816123dc565b6115d9612c92565b50565b6009602052805f5260405f205f915054906101000a900460ff1681565b5f5f5f8481526020019081526020015f205f015f8373ffffffffffffffffffffffffffffffffffffffff1673ffffffffffffffffffffffffffffffffffffffff1681526020019081526020015f205f9054906101000a900460ff16905092915050565b620186a081565b5f5f1b81565b7f000000000000000000000000000000000000000000000000000000000000000081565b600a602052805f5260405f205f915054906101000a900473ffffffffffffffffffffffffffffffffffffffff1681565b60608060605f60068054905090508067ffffffffffffffff8111156116e5576116e461397b565b5b6040519080825280602002602001820160405280156117135781602001602082028036833780820191505090505b5093508067ffffffffffffffff8111156117305761172f61397b565b5b60405190808252806020026020018201604052801561175e5781602001602082028036833780820191505090505b5092508067ffffffffffffffff81111561177b5761177a61397b565b5b6040519080825280602002602001820160405280156117a95781602001602082028036833780820191505090505b5091505f5f90505b8181101561191a575f600682815481106117ce576117cd6138c1565b5b905f5260205f20015f9054906101000a900473ffffffffffffffffffffffffffffffffffffffff1690505f60075f8973ffffffffffffffffffffffffffffffffffffffff1673ffffffffffffffffffffffffffffffffffffffff1681526020019081526020015f205f8373ffffffffffffffffffffffffffffffffffffffff1673ffffffffffffffffffffffffffffffffffffffff1681526020019081526020015f2054905081878481518110611888576118876138c1565b5b602002602001019073ffffffffffffffffffffffffffffffffffffffff16908173ffffffffffffffffffffffffffffffffffffffff1681525050808684815181106118d6576118d56138c1565b5b6020026020010181815250506118ec8282612bc1565b8584815181106118ff576118fe6138c1565b5b602002602001018181525050505080806001019150506117b1565b50509193909250565b60068181548110611932575f80fd5b905f5260205f20015f915054906101000a900473ffffffffffffffffffffffffffffffffffffffff1681565b5f5f5f5f6003546004546005546003547f0000000000000000000000000000000000000000000000000000000000000000611999919061391b565b935093509350935090919293565b5f6119b182612cf4565b9050919050565b60606006805480602002602001604051908101604052809291908181526020018280548015611a3957602002820191905f5260205f20905b815f9054906101000a900473ffffffffffffffffffffffffffffffffffffffff1673ffffffffffffffffffffffffffffffffffffffff16815260200190600101908083116119f0575b5050505050905090565b5f60075f8473ffffffffffffffffffffffffffffffffffffffff1673ffffffffffffffffffffffffffffffffffffffff1681526020019081526020015f205f8373ffffffffffffffffffffffffffffffffffffffff1673ffffffffffffffffffffffffffffffffffffffff1681526020019081526020015f2054905092915050565b611ace82610b9a565b611ad7816123dc565b611ae183836124e0565b50505050565b611aef61262a565b611af761266b565b5f3403611b30576040517f2c5211c600000000000000000000000000000000000000000000000000000000815260040160405180910390fd5b611b3a5f34612733565b611b4261290d565b565b5f611b4f8383612bc1565b905092915050565b611b5f61262a565b611b6761266b565b5f8103611ba0576040517f2c5211c600000000000000000000000000000000000000000000000000000000815260040160405180910390fd5b60085f8373ffffffffffffffffffffffffffffffffffffffff1673ffffffffffffffffffffffffffffffffffffffff1681526020019081526020015f205f9054906101000a900460ff16611c20576040517f3dd1b30500000000000000000000000000000000000000000000000000000000815260040160405180910390fd5b8060075f3373ffffffffffffffffffffffffffffffffffffffff1673ffffffffffffffffffffffffffffffffffffffff1681526020019081526020015f205f8473ffffffffffffffffffffffffffffffffffffffff1673ffffffffffffffffffffffffffffffffffffffff1681526020019081526020015f20541015611cd2576040517ff4d678b800000000000000000000000000000000000000000000000000000000815260040160405180910390fd5b5f611cdd8383612bc1565b90507f0000000000000000000000000000000000000000000000000000000000000000811115611d39576040517f4e6a369600000000000000000000000000000000000000000000000000000000815260040160405180910390fd5b8160075f3373ffffffffffffffffffffffffffffffffffffffff1673ffffffffffffffffffffffffffffffffffffffff1681526020019081526020015f205f8573ffffffffffffffffffffffffffffffffffffffff1673ffffffffffffffffffffffffffffffffffffffff1681526020019081526020015f205f828254611dc0919061391b565b925050819055508060035f828254611dd8919061391b565b9250508190555060055f815480929190611df1906139a8565b91905055505f73ffffffffffffffffffffffffffffffffffffffff168373ffffffffffffffffffffffffffffffffffffffff1603611e3857611e333383612ee8565b611e64565b611e6333838573ffffffffffffffffffffffffffffffffffffffff16612f8c9092919063ffffffff16565b5b8273ffffffffffffffffffffffffffffffffffffffff163373ffffffffffffffffffffffffffffffffffffffff167fc2b4a290c20fb28939d29f102514fbffd2b73c059ffba8b78250c94161d5fcc68484604051611ec39291906139ef565b60405180910390a350611ed461290d565b5050565b7f97667070c54ef182b0f5858b034beac1b6f3089aa2d3188bb1e8929f4fa9b92981565b611f0461262a565b611f0c61266b565b60085f8273ffffffffffffffffffffffffffffffffffffffff1673ffffffffffffffffffffffffffffffffffffffff1681526020019081526020015f205f9054906101000a900460ff16611f8c576040517f3dd1b30500000000000000000000000000000000000000000000000000000000815260040160405180910390fd5b5f60075f3373ffffffffffffffffffffffffffffffffffffffff1673ffffffffffffffffffffffffffffffffffffffff1681526020019081526020015f205f8373ffffffffffffffffffffffffffffffffffffffff1673ffffffffffffffffffffffffffffffffffffffff1681526020019081526020015f205490505f8103612041576040517ff4d678b800000000000000000000000000000000000000000000000000000000815260040160405180910390fd5b5f61204c8383612bc1565b90505f5f7f00000000000000000000000000000000000000000000000000000000000000008311612082578391508290506120d2565b6120ac857f0000000000000000000000000000000000000000000000000000000000000000612af0565b91507f000000000000000000000000000000000000000000000000000000000000000090505b8160075f3373ffffffffffffffffffffffffffffffffffffffff1673ffffffffffffffffffffffffffffffffffffffff1681526020019081526020015f205f8773ffffffffffffffffffffffffffffffffffffffff1673ffffffffffffffffffffffffffffffffffffffff1681526020019081526020015f205f828254612159919061391b565b925050819055508060035f828254612171919061391b565b9250508190555060055f81548092919061218a906139a8565b91905055505f73ffffffffffffffffffffffffffffffffffffffff168573ffffffffffffffffffffffffffffffffffffffff16036121d1576121cc3383612ee8565b6121fd565b6121fc33838773ffffffffffffffffffffffffffffffffffffffff16612f8c9092919063ffffffff16565b5b8473ffffffffffffffffffffffffffffffffffffffff163373ffffffffffffffffffffffffffffffffffffffff167fc2b4a290c20fb28939d29f102514fbffd2b73c059ffba8b78250c94161d5fcc6848460405161225c9291906139ef565b60405180910390a35050505061227061290d565b50565b5f5f60075f8573ffffffffffffffffffffffffffffffffffffffff1673ffffffffffffffffffffffffffffffffffffffff1681526020019081526020015f205f8473ffffffffffffffffffffffffffffffffffffffff1673ffffffffffffffffffffffffffffffffffffffff1681526020019081526020015f205490505f6122fb8483612bc1565b90507f0000000000000000000000000000000000000000000000000000000000000000811161232e57819250505061235d565b612358847f0000000000000000000000000000000000000000000000000000000000000000612af0565b925050505b92915050565b5f7f7965db0b000000000000000000000000000000000000000000000000000000007bffffffffffffffffffffffffffffffffffffffffffffffffffffffff1916827bffffffffffffffffffffffffffffffffffffffffffffffffffffffff191614806123d557506123d48261300b565b5b9050919050565b6123ed816123e86124d9565b613074565b50565b5f6123fb83836115f9565b6124cf5760015f5f8581526020019081526020015f205f015f8473ffffffffffffffffffffffffffffffffffffffff1673ffffffffffffffffffffffffffffffffffffffff1681526020019081526020015f205f6101000a81548160ff02191690831515021790555061246c6124d9565b73ffffffffffffffffffffffffffffffffffffffff168273ffffffffffffffffffffffffffffffffffffffff16847f2f8788117e7eff1d82e926ec794901d17c78024a50270940304540a733656f0d60405160405180910390a4600190506124d3565b5f90505b92915050565b5f33905090565b5f6124eb83836115f9565b156125bf575f5f5f8581526020019081526020015f205f015f8473ffffffffffffffffffffffffffffffffffffffff1673ffffffffffffffffffffffffffffffffffffffff1681526020019081526020015f205f6101000a81548160ff02191690831515021790555061255c6124d9565b73ffffffffffffffffffffffffffffffffffffffff168273ffffffffffffffffffffffffffffffffffffffff16847ff6391f5c32d9c69d2a47ea670b442974b53935d1edc7fd64eb21e047a839171b60405160405180910390a4600190506125c3565b5f90505b92915050565b6125d16130c5565b5f60025f6101000a81548160ff0219169083151502179055507f5db9ee0a495bf2e6ff9c91a7834c1ba4fdd244a5e8aa4e537bd38aeae4b073aa6126136124d9565b6040516126209190613502565b60405180910390a1565b6126326110e9565b15612669576040517fd93c066500000000000000000000000000000000000000000000000000000000815260040160405180910390fd5b565b6002600154036126a7576040517f3ee5aeb500000000000000000000000000000000000000000000000000000000815260040160405180910390fd5b6002600181905550565b61272d848573ffffffffffffffffffffffffffffffffffffffff166323b872dd8686866040516024016126e693929190613a16565b604051602081830303815290604052915060e01b6020820180517bffffffffffffffffffffffffffffffffffffffffffffffffffffffff8381831617835250505050613105565b50505050565b5f61273e8383612bc1565b9050620186a081101561277d576040517f6ba4a1c700000000000000000000000000000000000000000000000000000000815260040160405180910390fd5b7f0000000000000000000000000000000000000000000000000000000000000000816003546127ac9190613a4b565b11156127e4576040517f448f3ca800000000000000000000000000000000000000000000000000000000815260040160405180910390fd5b8160075f3373ffffffffffffffffffffffffffffffffffffffff1673ffffffffffffffffffffffffffffffffffffffff1681526020019081526020015f205f8573ffffffffffffffffffffffffffffffffffffffff1673ffffffffffffffffffffffffffffffffffffffff1681526020019081526020015f205f82825461286b9190613a4b565b925050819055508060035f8282546128839190613a4b565b9250508190555060045f81548092919061289c906139a8565b91905055508273ffffffffffffffffffffffffffffffffffffffff163373ffffffffffffffffffffffffffffffffffffffff167fdcbc1c05240f31ff3ad067ef1ee35ce4997762752e3a095284754544f4c709d784846040516129009291906139ef565b60405180910390a3505050565b60018081905550565b600160085f8573ffffffffffffffffffffffffffffffffffffffff1673ffffffffffffffffffffffffffffffffffffffff1681526020019081526020015f205f6101000a81548160ff0219169083151502179055508160095f8573ffffffffffffffffffffffffffffffffffffffff1673ffffffffffffffffffffffffffffffffffffffff1681526020019081526020015f205f6101000a81548160ff021916908360ff16021790555080600a5f8573ffffffffffffffffffffffffffffffffffffffff1673ffffffffffffffffffffffffffffffffffffffff1681526020019081526020015f205f6101000a81548173ffffffffffffffffffffffffffffffffffffffff021916908373ffffffffffffffffffffffffffffffffffffffff160217905550600683908060018154018082558091505060019003905f5260205f20015f9091909190916101000a81548173ffffffffffffffffffffffffffffffffffffffff021916908373ffffffffffffffffffffffffffffffffffffffff1602179055508273ffffffffffffffffffffffffffffffffffffffff167f71eedf6e504658772ec96be84d876ae5c35b713cfdbfb47fe2c0053e9bdfe37b8383604051612ae3929190613a7e565b60405180910390a2505050565b5f5f8203612b00575f9050612bbb565b5f612b0a84612cf4565b90505f60095f8673ffffffffffffffffffffffffffffffffffffffff1673ffffffffffffffffffffffffffffffffffffffff1681526020019081526020015f205f9054906101000a900460ff1690505f6008600a612b689190613bd4565b82600a612b759190613bd4565b86612b809190613c1e565b612b8a9190613c1e565b90505f6006600a612b9b9190613bd4565b84612ba69190613c1e565b90508082612bb49190613c8c565b9450505050505b92915050565b5f5f8203612bd1575f9050612c8c565b5f612bdb84612cf4565b90505f60095f8673ffffffffffffffffffffffffffffffffffffffff1673ffffffffffffffffffffffffffffffffffffffff1681526020019081526020015f205f9054906101000a900460ff1690505f6006600a612c399190613bd4565b8386612c459190613c1e565b612c4f9190613c1e565b90505f6008600a612c609190613bd4565b83600a612c6d9190613bd4565b612c779190613c1e565b90508082612c859190613c8c565b9450505050505b92915050565b612c9a61262a565b600160025f6101000a81548160ff0219169083151502179055507f62e78cea01bee320cd4e420270b5ea74000d11b0c9f74754ebdbfc544b05a258612cdd6124d9565b604051612cea9190613502565b60405180910390a1565b5f5f5f73ffffffffffffffffffffffffffffffffffffffff168373ffffffffffffffffffffffffffffffffffffffff1614612d8b57600a5f8473ffffffffffffffffffffffffffffffffffffffff1673ffffffffffffffffffffffffffffffffffffffff1681526020019081526020015f205f9054906101000a900473ffffffffffffffffffffffffffffffffffffffff16612dad565b7f00000000000000000000000000000000000000000000000000000000000000005b90505f5f8273ffffffffffffffffffffffffffffffffffffffff1663feaf968c6040518163ffffffff1660e01b815260040160a060405180830381865afa158015612dfa573d5f5f3e3d5ffd5b505050506040513d601f19601f82011682018060405250810190612e1e9190613d42565b509350509250505f8213612e5d576040517ebfc92100000000000000000000000000000000000000000000000000000000815260040160405180910390fd5b5f8103612e96576040517f19abf40e00000000000000000000000000000000000000000000000000000000815260040160405180910390fd5b610e108142612ea5919061391b565b1115612edd576040517f19abf40e00000000000000000000000000000000000000000000000000000000815260040160405180910390fd5b819350505050919050565b5f8273ffffffffffffffffffffffffffffffffffffffff1682604051612f0d90613de6565b5f6040518083038185875af1925050503d805f8114612f47576040519150601f19603f3d011682016040523d82523d5f602084013e612f4c565b606091505b5050905080612f87576040517f90b8ec1800000000000000000000000000000000000000000000000000000000815260040160405180910390fd5b505050565b613006838473ffffffffffffffffffffffffffffffffffffffff1663a9059cbb8585604051602401612fbf929190613dfa565b604051602081830303815290604052915060e01b6020820180517bffffffffffffffffffffffffffffffffffffffffffffffffffffffff8381831617835250505050613105565b505050565b5f7f01ffc9a7000000000000000000000000000000000000000000000000000000007bffffffffffffffffffffffffffffffffffffffffffffffffffffffff1916827bffffffffffffffffffffffffffffffffffffffffffffffffffffffff1916149050919050565b61307e82826115f9565b6130c15780826040517fe2517d3f0000000000000000000000000000000000000000000000000000000081526004016130b8929190613e21565b60405180910390fd5b5050565b6130cd6110e9565b613103576040517f8dfc202b00000000000000000000000000000000000000000000000000000000815260040160405180910390fd5b565b5f5f60205f8451602086015f885af180613124576040513d5f823e3d81fd5b3d92505f519150505f821461313d576001811415613158565b5f8473ffffffffffffffffffffffffffffffffffffffff163b145b1561319a57836040517f5274afe70000000000000000000000000000000000000000000000000000000081526004016131919190613502565b60405180910390fd5b50505050565b60405180608001604052805f73ffffffffffffffffffffffffffffffffffffffff1681526020015f60ff1681526020015f151581526020015f73ffffffffffffffffffffffffffffffffffffffff1681525090565b5f5ffd5b5f7fffffffff0000000000000000000000000000000000000000000000000000000082169050919050565b61322d816131f9565b8114613237575f5ffd5b50565b5f8135905061324881613224565b92915050565b5f60208284031215613263576132626131f5565b5b5f6132708482850161323a565b91505092915050565b5f8115159050919050565b61328d81613279565b82525050565b5f6020820190506132a65f830184613284565b92915050565b5f73ffffffffffffffffffffffffffffffffffffffff82169050919050565b5f6132d5826132ac565b9050919050565b6132e5816132cb565b81146132ef575f5ffd5b50565b5f81359050613300816132dc565b92915050565b5f6020828403121561331b5761331a6131f5565b5b5f613328848285016132f2565b91505092915050565b61333a816132cb565b82525050565b5f60ff82169050919050565b61335581613340565b82525050565b61336481613279565b82525050565b608082015f82015161337e5f850182613331565b506020820151613391602085018261334c565b5060408201516133a4604085018261335b565b5060608201516133b76060850182613331565b50505050565b5f6080820190506133d05f83018461336a565b92915050565b5f819050919050565b6133e8816133d6565b81146133f2575f5ffd5b50565b5f81359050613403816133df565b92915050565b5f6020828403121561341e5761341d6131f5565b5b5f61342b848285016133f5565b91505092915050565b61343d816133d6565b82525050565b5f6020820190506134565f830184613434565b92915050565b61346581613340565b82525050565b5f60208201905061347e5f83018461345c565b92915050565b5f819050919050565b61349681613484565b82525050565b5f6020820190506134af5f83018461348d565b92915050565b5f5f604083850312156134cb576134ca6131f5565b5b5f6134d8858286016133f5565b92505060206134e9858286016132f2565b9150509250929050565b6134fc816132cb565b82525050565b5f6020820190506135155f8301846134f3565b92915050565b5f819050919050565b5f61353e613539613534846132ac565b61351b565b6132ac565b9050919050565b5f61354f82613524565b9050919050565b5f61356082613545565b9050919050565b61357081613556565b82525050565b5f6020820190506135895f830184613567565b92915050565b61359881613484565b81146135a2575f5ffd5b50565b5f813590506135b38161358f565b92915050565b5f5f604083850312156135cf576135ce6131f5565b5b5f6135dc858286016132f2565b92505060206135ed858286016135a5565b9150509250929050565b5f5f6040838503121561360d5761360c6131f5565b5b5f61361a858286016132f2565b925050602061362b858286016132f2565b9150509250929050565b5f81519050919050565b5f82825260208201905092915050565b5f819050602082019050919050565b5f6136698383613331565b60208301905092915050565b5f602082019050919050565b5f61368b82613635565b613695818561363f565b93506136a08361364f565b805f5b838110156136d05781516136b7888261365e565b97506136c283613675565b9250506001810190506136a3565b5085935050505092915050565b5f81519050919050565b5f82825260208201905092915050565b5f819050602082019050919050565b61370f81613484565b82525050565b5f6137208383613706565b60208301905092915050565b5f602082019050919050565b5f613742826136dd565b61374c81856136e7565b9350613757836136f7565b805f5b8381101561378757815161376e8882613715565b97506137798361372c565b92505060018101905061375a565b5085935050505092915050565b5f6060820190508181035f8301526137ac8186613681565b905081810360208301526137c08185613738565b905081810360408301526137d48184613738565b9050949350505050565b5f602082840312156137f3576137f26131f5565b5b5f613800848285016135a5565b91505092915050565b5f60808201905061381c5f83018761348d565b613829602083018661348d565b613836604083018561348d565b613843606083018461348d565b95945050505050565b5f6020820190508181035f8301526138648184613681565b905092915050565b61387581613340565b811461387f575f5ffd5b50565b5f815190506138908161386c565b92915050565b5f602082840312156138ab576138aa6131f5565b5b5f6138b884828501613882565b91505092915050565b7f4e487b71000000000000000000000000000000000000000000000000000000005f52603260045260245ffd5b7f4e487b71000000000000000000000000000000000000000000000000000000005f52601160045260245ffd5b5f61392582613484565b915061393083613484565b9250828203905081811115613948576139476138ee565b5b92915050565b7f4e487b71000000000000000000000000000000000000000000000000000000005f52603160045260245ffd5b7f4e487b71000000000000000000000000000000000000000000000000000000005f52604160045260245ffd5b5f6139b282613484565b91507fffffffffffffffffffffffffffffffffffffffffffffffffffffffffffffffff82036139e4576139e36138ee565b5b600182019050919050565b5f604082019050613a025f83018561348d565b613a0f602083018461348d565b9392505050565b5f606082019050613a295f8301866134f3565b613a3660208301856134f3565b613a43604083018461348d565b949350505050565b5f613a5582613484565b9150613a6083613484565b9250828201905080821115613a7857613a776138ee565b5b92915050565b5f604082019050613a915f83018561345c565b613a9e60208301846134f3565b9392505050565b5f8160011c9050919050565b5f5f8291508390505b6001851115613afa57808604811115613ad657613ad56138ee565b5b6001851615613ae55780820291505b8081029050613af385613aa5565b9450613aba565b94509492505050565b5f82613b125760019050613bcd565b81613b1f575f9050613bcd565b8160018114613b355760028114613b3f57613b6e565b6001915050613bcd565b60ff841115613b5157613b506138ee565b5b8360020a915084821115613b6857613b676138ee565b5b50613bcd565b5060208310610133831016604e8410600b8410161715613ba35782820a905083811115613b9e57613b9d6138ee565b5b613bcd565b613bb08484846001613ab1565b92509050818404811115613bc757613bc66138ee565b5b81810290505b9392505050565b5f613bde82613484565b9150613be983613340565b9250613c167fffffffffffffffffffffffffffffffffffffffffffffffffffffffffffffffff8484613b03565b905092915050565b5f613c2882613484565b9150613c3383613484565b9250828202613c4181613484565b91508282048414831517613c5857613c576138ee565b5b5092915050565b7f4e487b71000000000000000000000000000000000000000000000000000000005f52601260045260245ffd5b5f613c9682613484565b9150613ca183613484565b925082613cb157613cb0613c5f565b5b828204905092915050565b5f69ffffffffffffffffffff82169050919050565b613cda81613cbc565b8114613ce4575f5ffd5b50565b5f81519050613cf581613cd1565b92915050565b5f819050919050565b613d0d81613cfb565b8114613d17575f5ffd5b50565b5f81519050613d2881613d04565b92915050565b5f81519050613d3c8161358f565b92915050565b5f5f5f5f5f60a08688031215613d5b57613d5a6131f5565b5b5f613d6888828901613ce7565b9550506020613d7988828901613d1a565b9450506040613d8a88828901613d2e565b9350506060613d9b88828901613d2e565b9250506080613dac88828901613ce7565b9150509295509295909350565b5f81905092915050565b50565b5f613dd15f83613db9565b9150613ddc82613dc3565b5f82019050919050565b5f613df082613dc6565b9150819050919050565b5f604082019050613e0d5f8301856134f3565b613e1a602083018461348d565b9392505050565b5f604082019050613e345f8301856134f3565b613e416020830184613434565b939250505056fea26469706673582212209529d26c2c3a1c5115eace0f389cc412bb573832c142f7a07c19e7d0812388c864736f6c634300081e0033",
			"opcodes": "PUSH1 0xE0 PUSH1 0x40 MSTORE CALLVALUE DUP1 ISZERO PUSH2 0xF JUMPI PUSH0 PUSH0 REVERT JUMPDEST POP PUSH1 0x40 MLOAD PUSH2 0x456E CODESIZE SUB DUP1 PUSH2 0x456E DUP4 CODECOPY DUP2 DUP2 ADD PUSH1 0x40 MSTORE DUP2 ADD SWAP1 PUSH2 0x31 SWAP2 SWAP1 PUSH2 0x5E6 JUMP JUMPDEST PUSH1 0x1 DUP1 DUP2 SWAP1 SSTORE POP PUSH0 PUSH20 0xFFFFFFFFFFFFFFFFFFFFFFFFFFFFFFFFFFFFFFFF AND DUP4 PUSH20 0xFFFFFFFFFFFFFFFFFFFFFFFFFFFFFFFFFFFFFFFF AND SUB PUSH2 0x9D JUMPI PUSH1 0x40 MLOAD PUSH32 0x52CC3F7D00000000000000000000000000000000000000000000000000000000 DUP2 MSTORE PUSH1 0x4 ADD PUSH1 0x40 MLOAD DUP1 SWAP2 SUB SWAP1 REVERT JUMPDEST PUSH0 DUP3 SUB PUSH2 0xD6 JUMPI PUSH1 0x40 MLOAD PUSH32 0x2C5211C600000000000000000000000000000000000000000000000000000000 DUP2 MSTORE PUSH1 0x4 ADD PUSH1 0x40 MLOAD DUP1 SWAP2 SUB SWAP1 REVERT JUMPDEST PUSH0 DUP2 SUB PUSH2 0x10F JUMPI PUSH1 0x40 MLOAD PUSH32 0x2C5211C600000000000000000000000000000000000000000000000000000000 DUP2 MSTORE PUSH1 0x4 ADD PUSH1 0x40 MLOAD DUP1 SWAP2 SUB SWAP1 REVERT JUMPDEST DUP2 DUP2 GT ISZERO PUSH2 0x149 JUMPI PUSH1 0x40 MLOAD PUSH32 0x4E6A369600000000000000000000000000000000000000000000000000000000 DUP2 MSTORE PUSH1 0x4 ADD PUSH1 0x40 MLOAD DUP1 SWAP2 SUB SWAP1 REVERT JUMPDEST DUP3 PUSH20 0xFFFFFFFFFFFFFFFFFFFFFFFFFFFFFFFFFFFFFFFF AND PUSH1 0x80 DUP2 PUSH20 0xFFFFFFFFFFFFFFFFFFFFFFFFFFFFFFFFFFFFFFFF AND DUP2 MSTORE POP POP DUP2 PUSH1 0xA0 DUP2 DUP2 MSTORE POP POP DUP1 PUSH1 0xC0 DUP2 DUP2 MSTORE POP POP PUSH2 0x19F PUSH0 PUSH0 SHL CALLER PUSH2 0x21C PUSH1 0x20 SHL PUSH1 0x20 SHR JUMP JUMPDEST POP PUSH2 0x1D0 PUSH32 0xA49807205CE4D355092EF5A8A18F56E8913CF4A201FBE287825B095693C21775 CALLER PUSH2 0x21C PUSH1 0x20 SHL PUSH1 0x20 SHR JUMP JUMPDEST POP PUSH2 0x201 PUSH32 0x97667070C54EF182B0F5858B034BEAC1B6F3089AA2D3188BB1E8929F4FA9B929 CALLER PUSH2 0x21C PUSH1 0x20 SHL PUSH1 0x20 SHR JUMP JUMPDEST POP PUSH2 0x214 PUSH0 PUSH1 0x12 DUP6 PUSH2 0x311 PUSH1 0x20 SHL PUSH1 0x20 SHR JUMP JUMPDEST POP POP POP PUSH2 0x687 JUMP JUMPDEST PUSH0 PUSH2 0x22D DUP4 DUP4 PUSH2 0x4EB PUSH1 0x20 SHL PUSH1 0x20 SHR JUMP JUMPDEST PUSH2 0x307 JUMPI PUSH1 0x1 PUSH0 PUSH0 DUP6 DUP2 MSTORE PUSH1 0x20 ADD SWAP1 DUP2 MSTORE PUSH1 0x20 ADD PUSH0 KECCAK256 PUSH0 ADD PUSH0 DUP5 PUSH20 0xFFFFFFFFFFFFFFFFFFFFFFFFFFFFFFFFFFFFFFFF AND PUSH20 0xFFFFFFFFFFFFFFFFFFFFFFFFFFFFFFFFFFFFFFFF AND DUP2 MSTORE PUSH1 0x20 ADD SWAP1 DUP2 MSTORE PUSH1 0x20 ADD PUSH0 KECCAK256 PUSH0 PUSH2 0x100 EXP DUP2 SLOAD DUP2 PUSH1 0xFF MUL NOT AND SWAP1 DUP4 ISZERO ISZERO MUL OR SWAP1 SSTORE POP PUSH2 0x2A4 PUSH2 0x54E PUSH1 0x20 SHL PUSH1 0x20 SHR JUMP JUMPDEST PUSH20 0xFFFFFFFFFFFFFFFFFFFFFFFFFFFFFFFFFFFFFFFF AND DUP3 PUSH20 0xFFFFFFFFFFFFFFFFFFFFFFFFFFFFFFFFFFFFFFFF AND DUP5 PUSH32 0x2F8788117E7EFF1D82E926EC794901D17C78024A50270940304540A733656F0D PUSH1 0x40 MLOAD PUSH1 0x40 MLOAD DUP1 SWAP2 SUB SWAP1 LOG4 PUSH1 0x1 SWAP1 POP PUSH2 0x30B JUMP JUMPDEST PUSH0 SWAP1 POP JUMPDEST SWAP3 SWAP2 POP POP JUMP JUMPDEST PUSH1 0x1 PUSH1 0x8 PUSH0 DUP6 PUSH20 0xFFFFFFFFFFFFFFFFFFFFFFFFFFFFFFFFFFFFFFFF AND PUSH20 0xFFFFFFFFFFFFFFFFFFFFFFFFFFFFFFFFFFFFFFFF AND DUP2 MSTORE PUSH1 0x20 ADD SWAP1 DUP2 MSTORE PUSH1 0x20 ADD PUSH0 KECCAK256 PUSH0 PUSH2 0x100 EXP DUP2 SLOAD DUP2 PUSH1 0xFF MUL NOT AND SWAP1 DUP4 ISZERO ISZERO MUL OR SWAP1 SSTORE POP DUP2 PUSH1 0x9 PUSH0 DUP6 PUSH20 0xFFFFFFFFFFFFFFFFFFFFFFFFFFFFFFFFFFFFFFFF AND PUSH20 0xFFFFFFFFFFFFFFFFFFFFFFFFFFFFFFFFFFFFFFFF AND DUP2 MSTORE PUSH1 0x20 ADD SWAP1 DUP2 MSTORE PUSH1 0x20 ADD PUSH0 KECCAK256 PUSH0 PUSH2 0x100 EXP DUP2 SLOAD DUP2 PUSH1 0xFF MUL NOT AND SWAP1 DUP4 PUSH1 0xFF AND MUL OR SWAP1 SSTORE POP DUP1 PUSH1 0xA PUSH0 DUP6 PUSH20 0xFFFFFFFFFFFFFFFFFFFFFFFFFFFFFFFFFFFFFFFF AND PUSH20 0xFFFFFFFFFFFFFFFFFFFFFFFFFFFFFFFFFFFFFFFF AND DUP2 MSTORE PUSH1 0x20 ADD SWAP1 DUP2 MSTORE PUSH1 0x20 ADD PUSH0 KECCAK256 PUSH0 PUSH2 0x100 EXP DUP2 SLOAD DUP2 PUSH20 0xFFFFFFFFFFFFFFFFFFFFFFFFFFFFFFFFFFFFFFFF MUL NOT AND SWAP1 DUP4 PUSH20 0xFFFFFFFFFFFFFFFFFFFFFFFFFFFFFFFFFFFFFFFF AND MUL OR SWAP1 SSTORE POP PUSH1 0x6 DUP4 SWAP1 DUP1 PUSH1 0x1 DUP2 SLOAD ADD DUP1 DUP3 SSTORE DUP1 SWAP2 POP POP PUSH1 0x1 SWAP1 SUB SWAP1 PUSH0 MSTORE PUSH1 0x20 PUSH0 KECCAK256 ADD PUSH0 SWAP1 SWAP2 SWAP1 SWAP2 SWAP1 SWAP2 PUSH2 0x100 EXP DUP2 SLOAD DUP2 PUSH20 0xFFFFFFFFFFFFFFFFFFFFFFFFFFFFFFFFFFFFFFFF MUL NOT AND SWAP1 DUP4 PUSH20 0xFFFFFFFFFFFFFFFFFFFFFFFFFFFFFFFFFFFFFFFF AND MUL OR SWAP1 SSTORE POP DUP3 PUSH20 0xFFFFFFFFFFFFFFFFFFFFFFFFFFFFFFFFFFFFFFFF AND PUSH32 0x71EEDF6E504658772EC96BE84D876AE5C35B713CFDBFB47FE2C0053E9BDFE37B DUP4 DUP4 PUSH1 0x40 MLOAD PUSH2 0x4DE SWAP3 SWAP2 SWAP1 PUSH2 0x660 JUMP JUMPDEST PUSH1 0x40 MLOAD DUP1 SWAP2 SUB SWAP1 LOG2 POP POP POP JUMP JUMPDEST PUSH0 PUSH0 PUSH0 DUP5 DUP2 MSTORE PUSH1 0x20 ADD SWAP1 DUP2 MSTORE PUSH1 0x20 ADD PUSH0 KECCAK256 PUSH0 ADD PUSH0 DUP4 PUSH20 0xFFFFFFFFFFFFFFFFFFFFFFFFFFFFFFFFFFFFFFFF AND PUSH20 0xFFFFFFFFFFFFFFFFFFFFFFFFFFFFFFFFFFFFFFFF AND DUP2 MSTORE PUSH1 0x20 ADD SWAP1 DUP2 MSTORE PUSH1 0x20 ADD PUSH0 KECCAK256 PUSH0 SWAP1 SLOAD SWAP1 PUSH2 0x100 EXP SWAP1 DIV PUSH1 0xFF AND SWAP1 POP SWAP3 SWAP2 POP POP JUMP JUMPDEST PUSH0 CALLER SWAP1 POP SWAP1 JUMP JUMPDEST PUSH0 PUSH0 REVERT JUMPDEST PUSH0 PUSH20 0xFFFFFFFFFFFFFFFFFFFFFFFFFFFFFFFFFFFFFFFF DUP3 AND SWAP1 POP SWAP2 SWAP1 POP JUMP JUMPDEST PUSH0 PUSH2 0x582 DUP3 PUSH2 0x559 JUMP JUMPDEST SWAP1 POP SWAP2 SWAP1 POP JUMP JUMPDEST PUSH2 0x592 DUP2 PUSH2 0x578 JUMP JUMPDEST DUP2 EQ PUSH2 0x59C JUMPI PUSH0 PUSH0 REVERT JUMPDEST POP JUMP JUMPDEST PUSH0 DUP2 MLOAD SWAP1 POP PUSH2 0x5AD DUP2 PUSH2 0x589 JUMP JUMPDEST SWAP3 SWAP2 POP POP JUMP JUMPDEST PUSH0 DUP2 SWAP1 POP SWAP2 SWAP1 POP JUMP JUMPDEST PUSH2 0x5C5 DUP2 PUSH2 0x5B3 JUMP JUMPDEST DUP2 EQ PUSH2 0x5CF JUMPI PUSH0 PUSH0 REVERT JUMPDEST POP JUMP JUMPDEST PUSH0 DUP2 MLOAD SWAP1 POP PUSH2 0x5E0 DUP2 PUSH2 0x5BC JUMP JUMPDEST SWAP3 SWAP2 POP POP JUMP JUMPDEST PUSH0 PUSH0 PUSH0 PUSH1 0x60 DUP5 DUP7 SUB SLT ISZERO PUSH2 0x5FD JUMPI PUSH2 0x5FC PUSH2 0x555 JUMP JUMPDEST JUMPDEST PUSH0 PUSH2 0x60A DUP7 DUP3 DUP8 ADD PUSH2 0x59F JUMP JUMPDEST SWAP4 POP POP PUSH1 0x20 PUSH2 0x61B DUP7 DUP3 DUP8 ADD PUSH2 0x5D2 JUMP JUMPDEST SWAP3 POP POP PUSH1 0x40 PUSH2 0x62C DUP7 DUP3 DUP8 ADD PUSH2 0x5D2 JUMP JUMPDEST SWAP2 POP POP SWAP3 POP SWAP3 POP SWAP3 JUMP JUMPDEST PUSH0 PUSH1 0xFF DUP3 AND SWAP1 POP SWAP2 SWAP1 POP JUMP JUMPDEST PUSH2 0x64B DUP2 PUSH2 0x636 JUMP JUMPDEST DUP3 MSTORE POP POP JUMP JUMPDEST PUSH2 0x65A DUP2 PUSH2 0x578 JUMP JUMPDEST DUP3 MSTORE POP POP JUMP JUMPDEST PUSH0 PUSH1 0x40 DUP3 ADD SWAP1 POP PUSH2 0x673 PUSH0 DUP4 ADD DUP6 PUSH2 0x642 JUMP JUMPDEST PUSH2 0x680 PUSH1 0x20 DUP4 ADD DUP5 PUSH2 0x651 JUMP JUMPDEST SWAP4 SWAP3 POP POP POP JUMP JUMPDEST PUSH1 0x80 MLOAD PUSH1 0xA0 MLOAD PUSH1 0xC0 MLOAD PUSH2 0x3E7E PUSH2 0x6F0 PUSH0 CODECOPY PUSH0 DUP2 DUP2 PUSH2 0xE59 ADD MSTORE DUP2 DUP2 PUSH2 0x1CE1 ADD MSTORE DUP2 DUP2 PUSH2 0x2052 ADD MSTORE DUP2 DUP2 PUSH2 0x2088 ADD MSTORE DUP2 DUP2 PUSH2 0x20B0 ADD MSTORE DUP2 DUP2 PUSH2 0x22FF ADD MSTORE PUSH2 0x2334 ADD MSTORE PUSH0 DUP2 DUP2 PUSH2 0x166B ADD MSTORE DUP2 DUP2 PUSH2 0x1970 ADD MSTORE PUSH2 0x277F ADD MSTORE PUSH0 DUP2 DUP2 PUSH2 0xC99 ADD MSTORE PUSH2 0x2D8D ADD MSTORE PUSH2 0x3E7E PUSH0 RETURN INVALID PUSH1 0x80 PUSH1 0x40 MSTORE PUSH1 0x4 CALLDATASIZE LT PUSH2 0x25B JUMPI PUSH0 CALLDATALOAD PUSH1 0xE0 SHR DUP1 PUSH4 0x75151B63 GT PUSH2 0x143 JUMPI DUP1 PUSH4 0xC6E8E38C GT PUSH2 0xB5 JUMPI DUP1 PUSH4 0xDB6B5246 GT PUSH2 0x79 JUMPI DUP1 PUSH4 0xDB6B5246 EQ PUSH2 0x93E JUMPI DUP1 PUSH4 0xEE957996 EQ PUSH2 0x948 JUMPI DUP1 PUSH4 0xF3FEF3A3 EQ PUSH2 0x984 JUMPI DUP1 PUSH4 0xF5B541A6 EQ PUSH2 0x9AC JUMPI DUP1 PUSH4 0xFA09E630 EQ PUSH2 0x9D6 JUMPI DUP1 PUSH4 0xFFECBC17 EQ PUSH2 0x9FE JUMPI PUSH2 0x25B JUMP JUMPDEST DUP1 PUSH4 0xC6E8E38C EQ PUSH2 0x847 JUMPI DUP1 PUSH4 0xD02641A0 EQ PUSH2 0x874 JUMPI DUP1 PUSH4 0xD3C7C2C7 EQ PUSH2 0x8B0 JUMPI DUP1 PUSH4 0xD4FAC45D EQ PUSH2 0x8DA JUMPI DUP1 PUSH4 0xD547741F EQ PUSH2 0x916 JUMPI PUSH2 0x25B JUMP JUMPDEST DUP1 PUSH4 0x965E12DC GT PUSH2 0x107 JUMPI DUP1 PUSH4 0x965E12DC EQ PUSH2 0x713 JUMPI DUP1 PUSH4 0xA217FDDF EQ PUSH2 0x73D JUMPI DUP1 PUSH4 0xAC4543BA EQ PUSH2 0x767 JUMPI DUP1 PUSH4 0xBD9C47E3 EQ PUSH2 0x791 JUMPI DUP1 PUSH4 0xC53D6CE1 EQ PUSH2 0x7CD JUMPI DUP1 PUSH4 0xC6255626 EQ PUSH2 0x80B JUMPI PUSH2 0x25B JUMP JUMPDEST DUP1 PUSH4 0x75151B63 EQ PUSH2 0x61F JUMPI DUP1 PUSH4 0x75B238FC EQ PUSH2 0x65B JUMPI DUP1 PUSH4 0x8456CB59 EQ PUSH2 0x685 JUMPI DUP1 PUSH4 0x8EE573AC EQ PUSH2 0x69B JUMPI DUP1 PUSH4 0x91D14854 EQ PUSH2 0x6D7 JUMPI PUSH2 0x25B JUMP JUMPDEST DUP1 PUSH4 0x45037AC9 GT PUSH2 0x1DC JUMPI DUP1 PUSH4 0x5476BD72 GT PUSH2 0x1A0 JUMPI DUP1 PUSH4 0x5476BD72 EQ PUSH2 0x503 JUMPI DUP1 PUSH4 0x57F1915D EQ PUSH2 0x52B JUMPI DUP1 PUSH4 0x5C975ABB EQ PUSH2 0x567 JUMPI DUP1 PUSH4 0x5FA7B584 EQ PUSH2 0x591 JUMPI DUP1 PUSH4 0x70D397E9 EQ PUSH2 0x5B9 JUMPI DUP1 PUSH4 0x71706CBE EQ PUSH2 0x5F5 JUMPI PUSH2 0x25B JUMP JUMPDEST DUP1 PUSH4 0x45037AC9 EQ PUSH2 0x421 JUMPI DUP1 PUSH4 0x47E7EF24 EQ PUSH2 0x44B JUMPI DUP1 PUSH4 0x4D635E70 EQ PUSH2 0x473 JUMPI DUP1 PUSH4 0x4ED94B24 EQ PUSH2 0x4AF JUMPI DUP1 PUSH4 0x51247424 EQ PUSH2 0x4D9 JUMPI PUSH2 0x25B JUMP JUMPDEST DUP1 PUSH4 0x2F2FF15D GT PUSH2 0x223 JUMPI DUP1 PUSH4 0x2F2FF15D EQ PUSH2 0x367 JUMPI DUP1 PUSH4 0x31F7D964 EQ PUSH2 0x38F JUMPI DUP1 PUSH4 0x36568ABE EQ PUSH2 0x3B9 JUMPI DUP1 PUSH4 0x3F4BA83A EQ PUSH2 0x3E1 JUMPI DUP1 PUSH4 0x42F6FB29 EQ PUSH2 0x3F7 JUMPI PUSH2 0x25B JUMP JUMPDEST DUP1 PUSH4 0x1FFC9A7 EQ PUSH2 0x25F JUMPI DUP1 PUSH4 0x1F69565F EQ PUSH2 0x29B JUMPI DUP1 PUSH4 0x248A9CA3 EQ PUSH2 0x2D7 JUMPI DUP1 PUSH4 0x2B825AD6 EQ PUSH2 0x313 JUMPI DUP1 PUSH4 0x2DFDF0B5 EQ PUSH2 0x33D JUMPI JUMPDEST PUSH0 PUSH0 REVERT JUMPDEST CALLVALUE DUP1 ISZERO PUSH2 0x26A JUMPI PUSH0 PUSH0 REVERT JUMPDEST POP PUSH2 0x285 PUSH1 0x4 DUP1 CALLDATASIZE SUB DUP2 ADD SWAP1 PUSH2 0x280 SWAP2 SWAP1 PUSH2 0x324E JUMP JUMPDEST PUSH2 0xA3A JUMP JUMPDEST PUSH1 0x40 MLOAD PUSH2 0x292 SWAP2 SWAP1 PUSH2 0x3293 JUMP JUMPDEST PUSH1 0x40 MLOAD DUP1 SWAP2 SUB SWAP1 RETURN JUMPDEST CALLVALUE DUP1 ISZERO PUSH2 0x2A6 JUMPI PUSH0 PUSH0 REVERT JUMPDEST POP PUSH2 0x2C1 PUSH1 0x4 DUP1 CALLDATASIZE SUB DUP2 ADD SWAP1 PUSH2 0x2BC SWAP2 SWAP1 PUSH2 0x3306 JUMP JUMPDEST PUSH2 0xA4B JUMP JUMPDEST PUSH1 0x40 MLOAD PUSH2 0x2CE SWAP2 SWAP1 PUSH2 0x33BD JUMP JUMPDEST PUSH1 0x40 MLOAD DUP1 SWAP2 SUB SWAP1 RETURN JUMPDEST CALLVALUE DUP1 ISZERO PUSH2 0x2E2 JUMPI PUSH0 PUSH0 REVERT JUMPDEST POP PUSH2 0x2FD PUSH1 0x4 DUP1 CALLDATASIZE SUB DUP2 ADD SWAP1 PUSH2 0x2F8 SWAP2 SWAP1 PUSH2 0x3409 JUMP JUMPDEST PUSH2 0xB9A JUMP JUMPDEST PUSH1 0x40 MLOAD PUSH2 0x30A SWAP2 SWAP1 PUSH2 0x3443 JUMP JUMPDEST PUSH1 0x40 MLOAD DUP1 SWAP2 SUB SWAP1 RETURN JUMPDEST CALLVALUE DUP1 ISZERO PUSH2 0x31E JUMPI PUSH0 PUSH0 REVERT JUMPDEST POP PUSH2 0x327 PUSH2 0xBB6 JUMP JUMPDEST PUSH1 0x40 MLOAD PUSH2 0x334 SWAP2 SWAP1 PUSH2 0x346B JUMP JUMPDEST PUSH1 0x40 MLOAD DUP1 SWAP2 SUB SWAP1 RETURN JUMPDEST CALLVALUE DUP1 ISZERO PUSH2 0x348 JUMPI PUSH0 PUSH0 REVERT JUMPDEST POP PUSH2 0x351 PUSH2 0xBBB JUMP JUMPDEST PUSH1 0x40 MLOAD PUSH2 0x35E SWAP2 SWAP1 PUSH2 0x349C JUMP JUMPDEST PUSH1 0x40 MLOAD DUP1 SWAP2 SUB SWAP1 RETURN JUMPDEST CALLVALUE DUP1 ISZERO PUSH2 0x372 JUMPI PUSH0 PUSH0 REVERT JUMPDEST POP PUSH2 0x38D PUSH1 0x4 DUP1 CALLDATASIZE SUB DUP2 ADD SWAP1 PUSH2 0x388 SWAP2 SWAP1 PUSH2 0x34B5 JUMP JUMPDEST PUSH2 0xBC1 JUMP JUMPDEST STOP JUMPDEST CALLVALUE DUP1 ISZERO PUSH2 0x39A JUMPI PUSH0 PUSH0 REVERT JUMPDEST POP PUSH2 0x3A3 PUSH2 0xBE3 JUMP JUMPDEST PUSH1 0x40 MLOAD PUSH2 0x3B0 SWAP2 SWAP1 PUSH2 0x3502 JUMP JUMPDEST PUSH1 0x40 MLOAD DUP1 SWAP2 SUB SWAP1 RETURN JUMPDEST CALLVALUE DUP1 ISZERO PUSH2 0x3C4 JUMPI PUSH0 PUSH0 REVERT JUMPDEST POP PUSH2 0x3DF PUSH1 0x4 DUP1 CALLDATASIZE SUB DUP2 ADD SWAP1 PUSH2 0x3DA SWAP2 SWAP1 PUSH2 0x34B5 JUMP JUMPDEST PUSH2 0xBE7 JUMP JUMPDEST STOP JUMPDEST CALLVALUE DUP1 ISZERO PUSH2 0x3EC JUMPI PUSH0 PUSH0 REVERT JUMPDEST POP PUSH2 0x3F5 PUSH2 0xC62 JUMP JUMPDEST STOP JUMPDEST CALLVALUE DUP1 ISZERO PUSH2 0x402 JUMPI PUSH0 PUSH0 REVERT JUMPDEST POP PUSH2 0x40B PUSH2 0xC97 JUMP JUMPDEST PUSH1 0x40 MLOAD PUSH2 0x418 SWAP2 SWAP1 PUSH2 0x3576 JUMP JUMPDEST PUSH1 0x40 MLOAD DUP1 SWAP2 SUB SWAP1 RETURN JUMPDEST CALLVALUE DUP1 ISZERO PUSH2 0x42C JUMPI PUSH0 PUSH0 REVERT JUMPDEST POP PUSH2 0x435 PUSH2 0xCBB JUMP JUMPDEST PUSH1 0x40 MLOAD PUSH2 0x442 SWAP2 SWAP1 PUSH2 0x349C JUMP JUMPDEST PUSH1 0x40 MLOAD DUP1 SWAP2 SUB SWAP1 RETURN JUMPDEST CALLVALUE DUP1 ISZERO PUSH2 0x456 JUMPI PUSH0 PUSH0 REVERT JUMPDEST POP PUSH2 0x471 PUSH1 0x4 DUP1 CALLDATASIZE SUB DUP2 ADD SWAP1 PUSH2 0x46C SWAP2 SWAP1 PUSH2 0x35B9 JUMP JUMPDEST PUSH2 0xCC1 JUMP JUMPDEST STOP JUMPDEST CALLVALUE DUP1 ISZERO PUSH2 0x47E JUMPI PUSH0 PUSH0 REVERT JUMPDEST POP PUSH2 0x499 PUSH1 0x4 DUP1 CALLDATASIZE SUB DUP2 ADD SWAP1 PUSH2 0x494 SWAP2 SWAP1 PUSH2 0x35F7 JUMP JUMPDEST PUSH2 0xE32 JUMP JUMPDEST PUSH1 0x40 MLOAD PUSH2 0x4A6 SWAP2 SWAP1 PUSH2 0x349C JUMP JUMPDEST PUSH1 0x40 MLOAD DUP1 SWAP2 SUB SWAP1 RETURN JUMPDEST CALLVALUE DUP1 ISZERO PUSH2 0x4BA JUMPI PUSH0 PUSH0 REVERT JUMPDEST POP PUSH2 0x4C3 PUSH2 0xE52 JUMP JUMPDEST PUSH1 0x40 MLOAD PUSH2 0x4D0 SWAP2 SWAP1 PUSH2 0x346B JUMP JUMPDEST PUSH1 0x40 MLOAD DUP1 SWAP2 SUB SWAP1 RETURN JUMPDEST CALLVALUE DUP1 ISZERO PUSH2 0x4E4 JUMPI PUSH0 PUSH0 REVERT JUMPDEST POP PUSH2 0x4ED PUSH2 0xE57 JUMP JUMPDEST PUSH1 0x40 MLOAD PUSH2 0x4FA SWAP2 SWAP1 PUSH2 0x349C JUMP JUMPDEST PUSH1 0x40 MLOAD DUP1 SWAP2 SUB SWAP1 RETURN JUMPDEST CALLVALUE DUP1 ISZERO PUSH2 0x50E JUMPI PUSH0 PUSH0 REVERT JUMPDEST POP PUSH2 0x529 PUSH1 0x4 DUP1 CALLDATASIZE SUB DUP2 ADD SWAP1 PUSH2 0x524 SWAP2 SWAP1 PUSH2 0x35F7 JUMP JUMPDEST PUSH2 0xE7B JUMP JUMPDEST STOP JUMPDEST CALLVALUE DUP1 ISZERO PUSH2 0x536 JUMPI PUSH0 PUSH0 REVERT JUMPDEST POP PUSH2 0x551 PUSH1 0x4 DUP1 CALLDATASIZE SUB DUP2 ADD SWAP1 PUSH2 0x54C SWAP2 SWAP1 PUSH2 0x35B9 JUMP JUMPDEST PUSH2 0x10D6 JUMP JUMPDEST PUSH1 0x40 MLOAD PUSH2 0x55E SWAP2 SWAP1 PUSH2 0x349C JUMP JUMPDEST PUSH1 0x40 MLOAD DUP1 SWAP2 SUB SWAP1 RETURN JUMPDEST CALLVALUE DUP1 ISZERO PUSH2 0x572 JUMPI PUSH0 PUSH0 REVERT JUMPDEST POP PUSH2 0x57B PUSH2 0x10E9 JUMP JUMPDEST PUSH1 0x40 MLOAD PUSH2 0x588 SWAP2 SWAP1 PUSH2 0x3293 JUMP JUMPDEST PUSH1 0x40 MLOAD DUP1 SWAP2 SUB SWAP1 RETURN JUMPDEST CALLVALUE DUP1 ISZERO PUSH2 0x59C JUMPI PUSH0 PUSH0 REVERT JUMPDEST POP PUSH2 0x5B7 PUSH1 0x4 DUP1 CALLDATASIZE SUB DUP2 ADD SWAP1 PUSH2 0x5B2 SWAP2 SWAP1 PUSH2 0x3306 JUMP JUMPDEST PUSH2 0x10FE JUMP JUMPDEST STOP JUMPDEST CALLVALUE DUP1 ISZERO PUSH2 0x5C4 JUMPI PUSH0 PUSH0 REVERT JUMPDEST POP PUSH2 0x5DF PUSH1 0x4 DUP1 CALLDATASIZE SUB DUP2 ADD SWAP1 PUSH2 0x5DA SWAP2 SWAP1 PUSH2 0x35F7 JUMP JUMPDEST PUSH2 0x14D0 JUMP JUMPDEST PUSH1 0x40 MLOAD PUSH2 0x5EC SWAP2 SWAP1 PUSH2 0x349C JUMP JUMPDEST PUSH1 0x40 MLOAD DUP1 SWAP2 SUB SWAP1 RETURN JUMPDEST CALLVALUE DUP1 ISZERO PUSH2 0x600 JUMPI PUSH0 PUSH0 REVERT JUMPDEST POP PUSH2 0x609 PUSH2 0x1560 JUMP JUMPDEST PUSH1 0x40 MLOAD PUSH2 0x616 SWAP2 SWAP1 PUSH2 0x349C JUMP JUMPDEST PUSH1 0x40 MLOAD DUP1 SWAP2 SUB SWAP1 RETURN JUMPDEST CALLVALUE DUP1 ISZERO PUSH2 0x62A JUMPI PUSH0 PUSH0 REVERT JUMPDEST POP PUSH2 0x645 PUSH1 0x4 DUP1 CALLDATASIZE SUB DUP2 ADD SWAP1 PUSH2 0x640 SWAP2 SWAP1 PUSH2 0x3306 JUMP JUMPDEST PUSH2 0x1566 JUMP JUMPDEST PUSH1 0x40 MLOAD PUSH2 0x652 SWAP2 SWAP1 PUSH2 0x3293 JUMP JUMPDEST PUSH1 0x40 MLOAD DUP1 SWAP2 SUB SWAP1 RETURN JUMPDEST CALLVALUE DUP1 ISZERO PUSH2 0x666 JUMPI PUSH0 PUSH0 REVERT JUMPDEST POP PUSH2 0x66F PUSH2 0x1583 JUMP JUMPDEST PUSH1 0x40 MLOAD PUSH2 0x67C SWAP2 SWAP1 PUSH2 0x3443 JUMP JUMPDEST PUSH1 0x40 MLOAD DUP1 SWAP2 SUB SWAP1 RETURN JUMPDEST CALLVALUE DUP1 ISZERO PUSH2 0x690 JUMPI PUSH0 PUSH0 REVERT JUMPDEST POP PUSH2 0x699 PUSH2 0x15A7 JUMP JUMPDEST STOP JUMPDEST CALLVALUE DUP1 ISZERO PUSH2 0x6A6 JUMPI PUSH0 PUSH0 REVERT JUMPDEST POP PUSH2 0x6C1 PUSH1 0x4 DUP1 CALLDATASIZE SUB DUP2 ADD SWAP1 PUSH2 0x6BC SWAP2 SWAP1 PUSH2 0x3306 JUMP JUMPDEST PUSH2 0x15DC JUMP JUMPDEST PUSH1 0x40 MLOAD PUSH2 0x6CE SWAP2 SWAP1 PUSH2 0x346B JUMP JUMPDEST PUSH1 0x40 MLOAD DUP1 SWAP2 SUB SWAP1 RETURN JUMPDEST CALLVALUE DUP1 ISZERO PUSH2 0x6E2 JUMPI PUSH0 PUSH0 REVERT JUMPDEST POP PUSH2 0x6FD PUSH1 0x4 DUP1 CALLDATASIZE SUB DUP2 ADD SWAP1 PUSH2 0x6F8 SWAP2 SWAP1 PUSH2 0x34B5 JUMP JUMPDEST PUSH2 0x15F9 JUMP JUMPDEST PUSH1 0x40 MLOAD PUSH2 0x70A SWAP2 SWAP1 PUSH2 0x3293 JUMP JUMPDEST PUSH1 0x40 MLOAD DUP1 SWAP2 SUB SWAP1 RETURN JUMPDEST CALLVALUE DUP1 ISZERO PUSH2 0x71E JUMPI PUSH0 PUSH0 REVERT JUMPDEST POP PUSH2 0x727 PUSH2 0x165C JUMP JUMPDEST PUSH1 0x40 MLOAD PUSH2 0x734 SWAP2 SWAP1 PUSH2 0x349C JUMP JUMPDEST PUSH1 0x40 MLOAD DUP1 SWAP2 SUB SWAP1 RETURN JUMPDEST CALLVALUE DUP1 ISZERO PUSH2 0x748 JUMPI PUSH0 PUSH0 REVERT JUMPDEST POP PUSH2 0x751 PUSH2 0x1663 JUMP JUMPDEST PUSH1 0x40 MLOAD PUSH2 0x75E SWAP2 SWAP1 PUSH2 0x3443 JUMP JUMPDEST PUSH1 0x40 MLOAD DUP1 SWAP2 SUB SWAP1 RETURN JUMPDEST CALLVALUE DUP1 ISZERO PUSH2 0x772 JUMPI PUSH0 PUSH0 REVERT JUMPDEST POP PUSH2 0x77B PUSH2 0x1669 JUMP JUMPDEST PUSH1 0x40 MLOAD PUSH2 0x788 SWAP2 SWAP1 PUSH2 0x349C JUMP JUMPDEST PUSH1 0x40 MLOAD DUP1 SWAP2 SUB SWAP1 RETURN JUMPDEST CALLVALUE DUP1 ISZERO PUSH2 0x79C JUMPI PUSH0 PUSH0 REVERT JUMPDEST POP PUSH2 0x7B7 PUSH1 0x4 DUP1 CALLDATASIZE SUB DUP2 ADD SWAP1 PUSH2 0x7B2 SWAP2 SWAP1 PUSH2 0x3306 JUMP JUMPDEST PUSH2 0x168D JUMP JUMPDEST PUSH1 0x40 MLOAD PUSH2 0x7C4 SWAP2 SWAP1 PUSH2 0x3576 JUMP JUMPDEST PUSH1 0x40 MLOAD DUP1 SWAP2 SUB SWAP1 RETURN JUMPDEST CALLVALUE DUP1 ISZERO PUSH2 0x7D8 JUMPI PUSH0 PUSH0 REVERT JUMPDEST POP PUSH2 0x7F3 PUSH1 0x4 DUP1 CALLDATASIZE SUB DUP2 ADD SWAP1 PUSH2 0x7EE SWAP2 SWAP1 PUSH2 0x3306 JUMP JUMPDEST PUSH2 0x16BD JUMP JUMPDEST PUSH1 0x40 MLOAD PUSH2 0x802 SWAP4 SWAP3 SWAP2 SWAP1 PUSH2 0x3794 JUMP JUMPDEST PUSH1 0x40 MLOAD DUP1 SWAP2 SUB SWAP1 RETURN JUMPDEST CALLVALUE DUP1 ISZERO PUSH2 0x816 JUMPI PUSH0 PUSH0 REVERT JUMPDEST POP PUSH2 0x831 PUSH1 0x4 DUP1 CALLDATASIZE SUB DUP2 ADD SWAP1 PUSH2 0x82C SWAP2 SWAP1 PUSH2 0x37DE JUMP JUMPDEST PUSH2 0x1923 JUMP JUMPDEST PUSH1 0x40 MLOAD PUSH2 0x83E SWAP2 SWAP1 PUSH2 0x3502 JUMP JUMPDEST PUSH1 0x40 MLOAD DUP1 SWAP2 SUB SWAP1 RETURN JUMPDEST CALLVALUE DUP1 ISZERO PUSH2 0x852 JUMPI PUSH0 PUSH0 REVERT JUMPDEST POP PUSH2 0x85B PUSH2 0x195E JUMP JUMPDEST PUSH1 0x40 MLOAD PUSH2 0x86B SWAP5 SWAP4 SWAP3 SWAP2 SWAP1 PUSH2 0x3809 JUMP JUMPDEST PUSH1 0x40 MLOAD DUP1 SWAP2 SUB SWAP1 RETURN JUMPDEST CALLVALUE DUP1 ISZERO PUSH2 0x87F JUMPI PUSH0 PUSH0 REVERT JUMPDEST POP PUSH2 0x89A PUSH1 0x4 DUP1 CALLDATASIZE SUB DUP2 ADD SWAP1 PUSH2 0x895 SWAP2 SWAP1 PUSH2 0x3306 JUMP JUMPDEST PUSH2 0x19A7 JUMP JUMPDEST PUSH1 0x40 MLOAD PUSH2 0x8A7 SWAP2 SWAP1 PUSH2 0x349C JUMP JUMPDEST PUSH1 0x40 MLOAD DUP1 SWAP2 SUB SWAP1 RETURN JUMPDEST CALLVALUE DUP1 ISZERO PUSH2 0x8BB JUMPI PUSH0 PUSH0 REVERT JUMPDEST POP PUSH2 0x8C4 PUSH2 0x19B8 JUMP JUMPDEST PUSH1 0x40 MLOAD PUSH2 0x8D1 SWAP2 SWAP1 PUSH2 0x384C JUMP JUMPDEST PUSH1 0x40 MLOAD DUP1 SWAP2 SUB SWAP1 RETURN JUMPDEST CALLVALUE DUP1 ISZERO PUSH2 0x8E5 JUMPI PUSH0 PUSH0 REVERT JUMPDEST POP PUSH2 0x900 PUSH1 0x4 DUP1 CALLDATASIZE SUB DUP2 ADD SWAP1 PUSH2 0x8FB SWAP2 SWAP1 PUSH2 0x35F7 JUMP JUMPDEST PUSH2 0x1A43 JUMP JUMPDEST PUSH1 0x40 MLOAD PUSH2 0x90D SWAP2 SWAP1 PUSH2 0x349C JUMP JUMPDEST PUSH1 0x40 MLOAD DUP1 SWAP2 SUB SWAP1 RETURN JUMPDEST CALLVALUE DUP1 ISZERO PUSH2 0x921 JUMPI PUSH0 PUSH0 REVERT JUMPDEST POP PUSH2 0x93C PUSH1 0x4 DUP1 CALLDATASIZE SUB DUP2 ADD SWAP1 PUSH2 0x937 SWAP2 SWAP1 PUSH2 0x34B5 JUMP JUMPDEST PUSH2 0x1AC5 JUMP JUMPDEST STOP JUMPDEST PUSH2 0x946 PUSH2 0x1AE7 JUMP JUMPDEST STOP JUMPDEST CALLVALUE DUP1 ISZERO PUSH2 0x953 JUMPI PUSH0 PUSH0 REVERT JUMPDEST POP PUSH2 0x96E PUSH1 0x4 DUP1 CALLDATASIZE SUB DUP2 ADD SWAP1 PUSH2 0x969 SWAP2 SWAP1 PUSH2 0x35B9 JUMP JUMPDEST PUSH2 0x1B44 JUMP JUMPDEST PUSH1 0x40 MLOAD PUSH2 0x97B SWAP2 SWAP1 PUSH2 0x349C JUMP JUMPDEST PUSH1 0x40 MLOAD DUP1 SWAP2 SUB SWAP1 RETURN JUMPDEST CALLVALUE DUP1 ISZERO PUSH2 0x98F JUMPI PUSH0 PUSH0 REVERT JUMPDEST POP PUSH2 0x9AA PUSH1 0x4 DUP1 CALLDATASIZE SUB DUP2 ADD SWAP1 PUSH2 0x9A5 SWAP2 SWAP1 PUSH2 0x35B9 JUMP JUMPDEST PUSH2 0x1B57 JUMP JUMPDEST STOP JUMPDEST CALLVALUE DUP1 ISZERO PUSH2 0x9B7 JUMPI PUSH0 PUSH0 REVERT JUMPDEST POP PUSH2 0x9C0 PUSH2 0x1ED8 JUMP JUMPDEST PUSH1 0x40 MLOAD PUSH2 0x9CD SWAP2 SWAP1 PUSH2 0x3443 JUMP JUMPDEST PUSH1 0x40 MLOAD DUP1 SWAP2 SUB SWAP1 RETURN JUMPDEST CALLVALUE DUP1 ISZERO PUSH2 0x9E1 JUMPI PUSH0 PUSH0 REVERT JUMPDEST POP PUSH2 0x9FC PUSH1 0x4 DUP1 CALLDATASIZE SUB DUP2 ADD SWAP1 PUSH2 0x9F7 SWAP2 SWAP1 PUSH2 0x3306 JUMP JUMPDEST PUSH2 0x1EFC JUMP JUMPDEST STOP JUMPDEST CALLVALUE DUP1 ISZERO PUSH2 0xA09 JUMPI PUSH0 PUSH0 REVERT JUMPDEST POP PUSH2 0xA24 PUSH1 0x4 DUP1 CALLDATASIZE SUB DUP2 ADD SWAP1 PUSH2 0xA1F SWAP2 SWAP1 PUSH2 0x35F7 JUMP JUMPDEST PUSH2 0x2273 JUMP JUMPDEST PUSH1 0x40 MLOAD PUSH2 0xA31 SWAP2 SWAP1 PUSH2 0x349C JUMP JUMPDEST PUSH1 0x40 MLOAD DUP1 SWAP2 SUB SWAP1 RETURN JUMPDEST PUSH0 PUSH2 0xA44 DUP3 PUSH2 0x2363 JUMP JUMPDEST SWAP1 POP SWAP2 SWAP1 POP JUMP JUMPDEST PUSH2 0xA53 PUSH2 0x31A0 JUMP JUMPDEST PUSH1 0x40 MLOAD DUP1 PUSH1 0x80 ADD PUSH1 0x40 MSTORE DUP1 DUP4 PUSH20 0xFFFFFFFFFFFFFFFFFFFFFFFFFFFFFFFFFFFFFFFF AND DUP2 MSTORE PUSH1 0x20 ADD PUSH1 0x9 PUSH0 DUP6 PUSH20 0xFFFFFFFFFFFFFFFFFFFFFFFFFFFFFFFFFFFFFFFF AND PUSH20 0xFFFFFFFFFFFFFFFFFFFFFFFFFFFFFFFFFFFFFFFF AND DUP2 MSTORE PUSH1 0x20 ADD SWAP1 DUP2 MSTORE PUSH1 0x20 ADD PUSH0 KECCAK256 PUSH0 SWAP1 SLOAD SWAP1 PUSH2 0x100 EXP SWAP1 DIV PUSH1 0xFF AND PUSH1 0xFF AND DUP2 MSTORE PUSH1 0x20 ADD PUSH1 0x8 PUSH0 DUP6 PUSH20 0xFFFFFFFFFFFFFFFFFFFFFFFFFFFFFFFFFFFFFFFF AND PUSH20 0xFFFFFFFFFFFFFFFFFFFFFFFFFFFFFFFFFFFFFFFF AND DUP2 MSTORE PUSH1 0x20 ADD SWAP1 DUP2 MSTORE PUSH1 0x20 ADD PUSH0 KECCAK256 PUSH0 SWAP1 SLOAD SWAP1 PUSH2 0x100 EXP SWAP1 DIV PUSH1 0xFF AND ISZERO ISZERO DUP2 MSTORE PUSH1 0x20 ADD PUSH1 0xA PUSH0 DUP6 PUSH20 0xFFFFFFFFFFFFFFFFFFFFFFFFFFFFFFFFFFFFFFFF AND PUSH20 0xFFFFFFFFFFFFFFFFFFFFFFFFFFFFFFFFFFFFFFFF AND DUP2 MSTORE PUSH1 0x20 ADD SWAP1 DUP2 MSTORE PUSH1 0x20 ADD PUSH0 KECCAK256 PUSH0 SWAP1 SLOAD SWAP1 PUSH2 0x100 EXP SWAP1 DIV PUSH20 0xFFFFFFFFFFFFFFFFFFFFFFFFFFFFFFFFFFFFFFFF AND PUSH20 0xFFFFFFFFFFFFFFFFFFFFFFFFFFFFFFFFFFFFFFFF AND DUP2 MSTORE POP SWAP1 POP SWAP2 SWAP1 POP JUMP JUMPDEST PUSH0 PUSH0 PUSH0 DUP4 DUP2 MSTORE PUSH1 0x20 ADD SWAP1 DUP2 MSTORE PUSH1 0x20 ADD PUSH0 KECCAK256 PUSH1 0x1 ADD SLOAD SWAP1 POP SWAP2 SWAP1 POP JUMP JUMPDEST PUSH1 0x6 DUP2 JUMP JUMPDEST PUSH1 0x4 SLOAD DUP2 JUMP JUMPDEST PUSH2 0xBCA DUP3 PUSH2 0xB9A JUMP JUMPDEST PUSH2 0xBD3 DUP2 PUSH2 0x23DC JUMP JUMPDEST PUSH2 0xBDD DUP4 DUP4 PUSH2 0x23F0 JUMP JUMPDEST POP POP POP POP JUMP JUMPDEST PUSH0 DUP2 JUMP JUMPDEST PUSH2 0xBEF PUSH2 0x24D9 JUMP JUMPDEST PUSH20 0xFFFFFFFFFFFFFFFFFFFFFFFFFFFFFFFFFFFFFFFF AND DUP2 PUSH20 0xFFFFFFFFFFFFFFFFFFFFFFFFFFFFFFFFFFFFFFFF AND EQ PUSH2 0xC53 JUMPI PUSH1 0x40 MLOAD PUSH32 0x6697B23200000000000000000000000000000000000000000000000000000000 DUP2 MSTORE PUSH1 0x4 ADD PUSH1 0x40 MLOAD DUP1 SWAP2 SUB SWAP1 REVERT JUMPDEST PUSH2 0xC5D DUP3 DUP3 PUSH2 0x24E0 JUMP JUMPDEST POP POP POP JUMP JUMPDEST PUSH32 0x97667070C54EF182B0F5858B034BEAC1B6F3089AA2D3188BB1E8929F4FA9B929 PUSH2 0xC8C DUP2 PUSH2 0x23DC JUMP JUMPDEST PUSH2 0xC94 PUSH2 0x25C9 JUMP JUMPDEST POP JUMP JUMPDEST PUSH32 0x0 DUP2 JUMP JUMPDEST PUSH1 0x3 SLOAD DUP2 JUMP JUMPDEST PUSH2 0xCC9 PUSH2 0x262A JUMP JUMPDEST PUSH2 0xCD1 PUSH2 0x266B JUMP JUMPDEST PUSH0 PUSH20 0xFFFFFFFFFFFFFFFFFFFFFFFFFFFFFFFFFFFFFFFF AND DUP3 PUSH20 0xFFFFFFFFFFFFFFFFFFFFFFFFFFFFFFFFFFFFFFFF AND SUB PUSH2 0xD36 JUMPI PUSH1 0x40 MLOAD PUSH32 0x1EB00B0600000000000000000000000000000000000000000000000000000000 DUP2 MSTORE PUSH1 0x4 ADD PUSH1 0x40 MLOAD DUP1 SWAP2 SUB SWAP1 REVERT JUMPDEST PUSH0 DUP2 SUB PUSH2 0xD6F JUMPI PUSH1 0x40 MLOAD PUSH32 0x2C5211C600000000000000000000000000000000000000000000000000000000 DUP2 MSTORE PUSH1 0x4 ADD PUSH1 0x40 MLOAD DUP1 SWAP2 SUB SWAP1 REVERT JUMPDEST PUSH1 0x8 PUSH0 DUP4 PUSH20 0xFFFFFFFFFFFFFFFFFFFFFFFFFFFFFFFFFFFFFFFF AND PUSH20 0xFFFFFFFFFFFFFFFFFFFFFFFFFFFFFFFFFFFFFFFF AND DUP2 MSTORE PUSH1 0x20 ADD SWAP1 DUP2 MSTORE PUSH1 0x20 ADD PUSH0 KECCAK256 PUSH0 SWAP1 SLOAD SWAP1 PUSH2 0x100 EXP SWAP1 DIV PUSH1 0xFF AND PUSH2 0xDEF JUMPI PUSH1 0x40 MLOAD PUSH32 0x3DD1B30500000000000000000000000000000000000000000000000000000000 DUP2 MSTORE PUSH1 0x4 ADD PUSH1 0x40 MLOAD DUP1 SWAP2 SUB SWAP1 REVERT JUMPDEST PUSH2 0xE1C CALLER ADDRESS DUP4 DUP6 PUSH20 0xFFFFFFFFFFFFFFFFFFFFFFFFFFFFFFFFFFFFFFFF AND PUSH2 0x26B1 SWAP1 SWAP4 SWAP3 SWAP2 SWAP1 PUSH4 0xFFFFFFFF AND JUMP JUMPDEST PUSH2 0xE26 DUP3 DUP3 PUSH2 0x2733 JUMP JUMPDEST PUSH2 0xE2E PUSH2 0x290D JUMP JUMPDEST POP POP JUMP JUMPDEST PUSH1 0x7 PUSH1 0x20 MSTORE DUP2 PUSH0 MSTORE PUSH1 0x40 PUSH0 KECCAK256 PUSH1 0x20 MSTORE DUP1 PUSH0 MSTORE PUSH1 0x40 PUSH0 KECCAK256 PUSH0 SWAP2 POP SWAP2 POP POP SLOAD DUP2 JUMP JUMPDEST PUSH1 0x8 DUP2 JUMP JUMPDEST PUSH32 0x0 DUP2 JUMP JUMPDEST PUSH32 0xA49807205CE4D355092EF5A8A18F56E8913CF4A201FBE287825B095693C21775 PUSH2 0xEA5 DUP2 PUSH2 0x23DC JUMP JUMPDEST PUSH0 PUSH20 0xFFFFFFFFFFFFFFFFFFFFFFFFFFFFFFFFFFFFFFFF AND DUP4 PUSH20 0xFFFFFFFFFFFFFFFFFFFFFFFFFFFFFFFFFFFFFFFF AND SUB PUSH2 0xF0A JUMPI PUSH1 0x40 MLOAD PUSH32 0x1EB00B0600000000000000000000000000000000000000000000000000000000 DUP2 MSTORE PUSH1 0x4 ADD PUSH1 0x40 MLOAD DUP1 SWAP2 SUB SWAP1 REVERT JUMPDEST PUSH0 PUSH20 0xFFFFFFFFFFFFFFFFFFFFFFFFFFFFFFFFFFFFFFFF AND DUP4 PUSH20 0xFFFFFFFFFFFFFFFFFFFFFFFFFFFFFFFFFFFFFFFF AND SUB PUSH2 0xF6F JUMPI PUSH1 0x40 MLOAD PUSH32 0xC78E82AD00000000000000000000000000000000000000000000000000000000 DUP2 MSTORE PUSH1 0x4 ADD PUSH1 0x40 MLOAD DUP1 SWAP2 SUB SWAP1 REVERT JUMPDEST PUSH0 PUSH20 0xFFFFFFFFFFFFFFFFFFFFFFFFFFFFFFFFFFFFFFFF AND DUP3 PUSH20 0xFFFFFFFFFFFFFFFFFFFFFFFFFFFFFFFFFFFFFFFF AND SUB PUSH2 0xFD4 JUMPI PUSH1 0x40 MLOAD PUSH32 0x52CC3F7D00000000000000000000000000000000000000000000000000000000 DUP2 MSTORE PUSH1 0x4 ADD PUSH1 0x40 MLOAD DUP1 SWAP2 SUB SWAP1 REVERT JUMPDEST PUSH1 0x8 PUSH0 DUP5 PUSH20 0xFFFFFFFFFFFFFFFFFFFFFFFFFFFFFFFFFFFFFFFF AND PUSH20 0xFFFFFFFFFFFFFFFFFFFFFFFFFFFFFFFFFFFFFFFF AND DUP2 MSTORE PUSH1 0x20 ADD SWAP1 DUP2 MSTORE PUSH1 0x20 ADD PUSH0 KECCAK256 PUSH0 SWAP1 SLOAD SWAP1 PUSH2 0x100 EXP SWAP1 DIV PUSH1 0xFF AND ISZERO PUSH2 0x1055 JUMPI PUSH1 0x40 MLOAD PUSH32 0xC78E82AD00000000000000000000000000000000000000000000000000000000 DUP2 MSTORE PUSH1 0x4 ADD PUSH1 0x40 MLOAD DUP1 SWAP2 SUB SWAP1 REVERT JUMPDEST PUSH0 DUP4 PUSH20 0xFFFFFFFFFFFFFFFFFFFFFFFFFFFFFFFFFFFFFFFF AND PUSH4 0x313CE567 PUSH1 0x40 MLOAD DUP2 PUSH4 0xFFFFFFFF AND PUSH1 0xE0 SHL DUP2 MSTORE PUSH1 0x4 ADD PUSH1 0x20 PUSH1 0x40 MLOAD DUP1 DUP4 SUB DUP2 DUP7 GAS STATICCALL ISZERO DUP1 ISZERO PUSH2 0x109F JUMPI RETURNDATASIZE PUSH0 PUSH0 RETURNDATACOPY RETURNDATASIZE PUSH0 REVERT JUMPDEST POP POP POP POP PUSH1 0x40 MLOAD RETURNDATASIZE PUSH1 0x1F NOT PUSH1 0x1F DUP3 ADD AND DUP3 ADD DUP1 PUSH1 0x40 MSTORE POP DUP2 ADD SWAP1 PUSH2 0x10C3 SWAP2 SWAP1 PUSH2 0x3896 JUMP JUMPDEST SWAP1 POP PUSH2 0x10D0 DUP5 DUP3 DUP6 PUSH2 0x2916 JUMP JUMPDEST POP POP POP POP JUMP JUMPDEST PUSH0 PUSH2 0x10E1 DUP4 DUP4 PUSH2 0x2AF0 JUMP JUMPDEST SWAP1 POP SWAP3 SWAP2 POP POP JUMP JUMPDEST PUSH0 PUSH1 0x2 PUSH0 SWAP1 SLOAD SWAP1 PUSH2 0x100 EXP SWAP1 DIV PUSH1 0xFF AND SWAP1 POP SWAP1 JUMP JUMPDEST PUSH32 0xA49807205CE4D355092EF5A8A18F56E8913CF4A201FBE287825B095693C21775 PUSH2 0x1128 DUP2 PUSH2 0x23DC JUMP JUMPDEST PUSH0 PUSH20 0xFFFFFFFFFFFFFFFFFFFFFFFFFFFFFFFFFFFFFFFF AND DUP3 PUSH20 0xFFFFFFFFFFFFFFFFFFFFFFFFFFFFFFFFFFFFFFFF AND SUB PUSH2 0x118D JUMPI PUSH1 0x40 MLOAD PUSH32 0x1EB00B0600000000000000000000000000000000000000000000000000000000 DUP2 MSTORE PUSH1 0x4 ADD PUSH1 0x40 MLOAD DUP1 SWAP2 SUB SWAP1 REVERT JUMPDEST PUSH1 0x8 PUSH0 DUP4 PUSH20 0xFFFFFFFFFFFFFFFFFFFFFFFFFFFFFFFFFFFFFFFF AND PUSH20 0xFFFFFFFFFFFFFFFFFFFFFFFFFFFFFFFFFFFFFFFF AND DUP2 MSTORE PUSH1 0x20 ADD SWAP1 DUP2 MSTORE PUSH1 0x20 ADD PUSH0 KECCAK256 PUSH0 SWAP1 SLOAD SWAP1 PUSH2 0x100 EXP SWAP1 DIV PUSH1 0xFF AND PUSH2 0x120D JUMPI PUSH1 0x40 MLOAD PUSH32 0x3DD1B30500000000000000000000000000000000000000000000000000000000 DUP2 MSTORE PUSH1 0x4 ADD PUSH1 0x40 MLOAD DUP1 SWAP2 SUB SWAP1 REVERT JUMPDEST PUSH0 PUSH1 0x8 PUSH0 DUP5 PUSH20 0xFFFFFFFFFFFFFFFFFFFFFFFFFFFFFFFFFFFFFFFF AND PUSH20 0xFFFFFFFFFFFFFFFFFFFFFFFFFFFFFFFFFFFFFFFF AND DUP2 MSTORE PUSH1 0x20 ADD SWAP1 DUP2 MSTORE PUSH1 0x20 ADD PUSH0 KECCAK256 PUSH0 PUSH2 0x100 EXP DUP2 SLOAD DUP2 PUSH1 0xFF MUL NOT AND SWAP1 DUP4 ISZERO ISZERO MUL OR SWAP1 SSTORE POP PUSH1 0x9 PUSH0 DUP4 PUSH20 0xFFFFFFFFFFFFFFFFFFFFFFFFFFFFFFFFFFFFFFFF AND PUSH20 0xFFFFFFFFFFFFFFFFFFFFFFFFFFFFFFFFFFFFFFFF AND DUP2 MSTORE PUSH1 0x20 ADD SWAP1 DUP2 MSTORE PUSH1 0x20 ADD PUSH0 KECCAK256 PUSH0 PUSH2 0x100 EXP DUP2 SLOAD SWAP1 PUSH1 0xFF MUL NOT AND SWAP1 SSTORE PUSH1 0xA PUSH0 DUP4 PUSH20 0xFFFFFFFFFFFFFFFFFFFFFFFFFFFFFFFFFFFFFFFF AND PUSH20 0xFFFFFFFFFFFFFFFFFFFFFFFFFFFFFFFFFFFFFFFF AND DUP2 MSTORE PUSH1 0x20 ADD SWAP1 DUP2 MSTORE PUSH1 0x20 ADD PUSH0 KECCAK256 PUSH0 PUSH2 0x100 EXP DUP2 SLOAD SWAP1 PUSH20 0xFFFFFFFFFFFFFFFFFFFFFFFFFFFFFFFFFFFFFFFF MUL NOT AND SWAP1 SSTORE PUSH0 PUSH0 SWAP1 POP JUMPDEST PUSH1 0x6 DUP1 SLOAD SWAP1 POP DUP2 LT ISZERO PUSH2 0x1488 JUMPI DUP3 PUSH20 0xFFFFFFFFFFFFFFFFFFFFFFFFFFFFFFFFFFFFFFFF AND PUSH1 0x6 DUP3 DUP2 SLOAD DUP2 LT PUSH2 0x1349 JUMPI PUSH2 0x1348 PUSH2 0x38C1 JUMP JUMPDEST JUMPDEST SWAP1 PUSH0 MSTORE PUSH1 0x20 PUSH0 KECCAK256 ADD PUSH0 SWAP1 SLOAD SWAP1 PUSH2 0x100 EXP SWAP1 DIV PUSH20 0xFFFFFFFFFFFFFFFFFFFFFFFFFFFFFFFFFFFFFFFF AND PUSH20 0xFFFFFFFFFFFFFFFFFFFFFFFFFFFFFFFFFFFFFFFF AND SUB PUSH2 0x147B JUMPI PUSH1 0x6 PUSH1 0x1 PUSH1 0x6 DUP1 SLOAD SWAP1 POP PUSH2 0x13A0 SWAP2 SWAP1 PUSH2 0x391B JUMP JUMPDEST DUP2 SLOAD DUP2 LT PUSH2 0x13B1 JUMPI PUSH2 0x13B0 PUSH2 0x38C1 JUMP JUMPDEST JUMPDEST SWAP1 PUSH0 MSTORE PUSH1 0x20 PUSH0 KECCAK256 ADD PUSH0 SWAP1 SLOAD SWAP1 PUSH2 0x100 EXP SWAP1 DIV PUSH20 0xFFFFFFFFFFFFFFFFFFFFFFFFFFFFFFFFFFFFFFFF AND PUSH1 0x6 DUP3 DUP2 SLOAD DUP2 LT PUSH2 0x13ED JUMPI PUSH2 0x13EC PUSH2 0x38C1 JUMP JUMPDEST JUMPDEST SWAP1 PUSH0 MSTORE PUSH1 0x20 PUSH0 KECCAK256 ADD PUSH0 PUSH2 0x100 EXP DUP2 SLOAD DUP2 PUSH20 0xFFFFFFFFFFFFFFFFFFFFFFFFFFFFFFFFFFFFFFFF MUL NOT AND SWAP1 DUP4 PUSH20 0xFFFFFFFFFFFFFFFFFFFFFFFFFFFFFFFFFFFFFFFF AND MUL OR SWAP1 SSTORE POP PUSH1 0x6 DUP1 SLOAD DUP1 PUSH2 0x1444 JUMPI PUSH2 0x1443 PUSH2 0x394E JUMP JUMPDEST JUMPDEST PUSH1 0x1 SWAP1 SUB DUP2 DUP2 SWAP1 PUSH0 MSTORE PUSH1 0x20 PUSH0 KECCAK256 ADD PUSH0 PUSH2 0x100 EXP DUP2 SLOAD SWAP1 PUSH20 0xFFFFFFFFFFFFFFFFFFFFFFFFFFFFFFFFFFFFFFFF MUL NOT AND SWAP1 SSTORE SWAP1 SSTORE PUSH2 0x1488 JUMP JUMPDEST DUP1 DUP1 PUSH1 0x1 ADD SWAP2 POP POP PUSH2 0x1311 JUMP JUMPDEST POP DUP2 PUSH20 0xFFFFFFFFFFFFFFFFFFFFFFFFFFFFFFFFFFFFFFFF AND PUSH32 0x4C910B69FE65A61F7531B9C5042B2329CA7179C77290AA7E2EB3AFA3C8511FD3 PUSH1 0x40 MLOAD PUSH1 0x40 MLOAD DUP1 SWAP2 SUB SWAP1 LOG2 POP POP JUMP JUMPDEST PUSH0 PUSH0 PUSH1 0x7 PUSH0 DUP6 PUSH20 0xFFFFFFFFFFFFFFFFFFFFFFFFFFFFFFFFFFFFFFFF AND PUSH20 0xFFFFFFFFFFFFFFFFFFFFFFFFFFFFFFFFFFFFFFFF AND DUP2 MSTORE PUSH1 0x20 ADD SWAP1 DUP2 MSTORE PUSH1 0x20 ADD PUSH0 KECCAK256 PUSH0 DUP5 PUSH20 0xFFFFFFFFFFFFFFFFFFFFFFFFFFFFFFFFFFFFFFFF AND PUSH20 0xFFFFFFFFFFFFFFFFFFFFFFFFFFFFFFFFFFFFFFFF AND DUP2 MSTORE PUSH1 0x20 ADD SWAP1 DUP2 MSTORE PUSH1 0x20 ADD PUSH0 KECCAK256 SLOAD SWAP1 POP PUSH2 0x1557 DUP4 DUP3 PUSH2 0x2BC1 JUMP JUMPDEST SWAP2 POP POP SWAP3 SWAP2 POP POP JUMP JUMPDEST PUSH1 0x5 SLOAD DUP2 JUMP JUMPDEST PUSH1 0x8 PUSH1 0x20 MSTORE DUP1 PUSH0 MSTORE PUSH1 0x40 PUSH0 KECCAK256 PUSH0 SWAP2 POP SLOAD SWAP1 PUSH2 0x100 EXP SWAP1 DIV PUSH1 0xFF AND DUP2 JUMP JUMPDEST PUSH32 0xA49807205CE4D355092EF5A8A18F56E8913CF4A201FBE287825B095693C21775 DUP2 JUMP JUMPDEST PUSH32 0x97667070C54EF182B0F5858B034BEAC1B6F3089AA2D3188BB1E8929F4FA9B929 PUSH2 0x15D1 DUP2 PUSH2 0x23DC JUMP JUMPDEST PUSH2 0x15D9 PUSH2 0x2C92 JUMP JUMPDEST POP JUMP JUMPDEST PUSH1 0x9 PUSH1 0x20 MSTORE DUP1 PUSH0 MSTORE PUSH1 0x40 PUSH0 KECCAK256 PUSH0 SWAP2 POP SLOAD SWAP1 PUSH2 0x100 EXP SWAP1 DIV PUSH1 0xFF AND DUP2 JUMP JUMPDEST PUSH0 PUSH0 PUSH0 DUP5 DUP2 MSTORE PUSH1 0x20 ADD SWAP1 DUP2 MSTORE PUSH1 0x20 ADD PUSH0 KECCAK256 PUSH0 ADD PUSH0 DUP4 PUSH20 0xFFFFFFFFFFFFFFFFFFFFFFFFFFFFFFFFFFFFFFFF AND PUSH20 0xFFFFFFFFFFFFFFFFFFFFFFFFFFFFFFFFFFFFFFFF AND DUP2 MSTORE PUSH1 0x20 ADD SWAP1 DUP2 MSTORE PUSH1 0x20 ADD PUSH0 KECCAK256 PUSH0 SWAP1 SLOAD SWAP1 PUSH2 0x100 EXP SWAP1 DIV PUSH1 0xFF AND SWAP1 POP SWAP3 SWAP2 POP POP JUMP JUMPDEST PUSH3 0x186A0 DUP2 JUMP JUMPDEST PUSH0 PUSH0 SHL DUP2 JUMP JUMPDEST PUSH32 0x0 DUP2 JUMP JUMPDEST PUSH1 0xA PUSH1 0x20 MSTORE DUP1 PUSH0 MSTORE PUSH1 0x40 PUSH0 KECCAK256 PUSH0 SWAP2 POP SLOAD SWAP1 PUSH2 0x100 EXP SWAP1 DIV PUSH20 0xFFFFFFFFFFFFFFFFFFFFFFFFFFFFFFFFFFFFFFFF AND DUP2 JUMP JUMPDEST PUSH1 0x60 DUP1 PUSH1 0x60 PUSH0 PUSH1 0x6 DUP1 SLOAD SWAP1 POP SWAP1 POP DUP1 PUSH8 0xFFFFFFFFFFFFFFFF DUP2 GT ISZERO PUSH2 0x16E5 JUMPI PUSH2 0x16E4 PUSH2 0x397B JUMP JUMPDEST JUMPDEST PUSH1 0x40 MLOAD SWAP1 DUP1 DUP3 MSTORE DUP1 PUSH1 0x20 MUL PUSH1 0x20 ADD DUP3 ADD PUSH1 0x40 MSTORE DUP1 ISZERO PUSH2 0x1713 JUMPI DUP2 PUSH1 0x20 ADD PUSH1 0x20 DUP3 MUL DUP1 CALLDATASIZE DUP4 CALLDATACOPY DUP1 DUP3 ADD SWAP2 POP POP SWAP1 POP JUMPDEST POP SWAP4 POP DUP1 PUSH8 0xFFFFFFFFFFFFFFFF DUP2 GT ISZERO PUSH2 0x1730 JUMPI PUSH2 0x172F PUSH2 0x397B JUMP JUMPDEST JUMPDEST PUSH1 0x40 MLOAD SWAP1 DUP1 DUP3 MSTORE DUP1 PUSH1 0x20 MUL PUSH1 0x20 ADD DUP3 ADD PUSH1 0x40 MSTORE DUP1 ISZERO PUSH2 0x175E JUMPI DUP2 PUSH1 0x20 ADD PUSH1 0x20 DUP3 MUL DUP1 CALLDATASIZE DUP4 CALLDATACOPY DUP1 DUP3 ADD SWAP2 POP POP SWAP1 POP JUMPDEST POP SWAP3 POP DUP1 PUSH8 0xFFFFFFFFFFFFFFFF DUP2 GT ISZERO PUSH2 0x177B JUMPI PUSH2 0x177A PUSH2 0x397B JUMP JUMPDEST JUMPDEST PUSH1 0x40 MLOAD SWAP1 DUP1 DUP3 MSTORE DUP1 PUSH1 0x20 MUL PUSH1 0x20 ADD DUP3 ADD PUSH1 0x40 MSTORE DUP1 ISZERO PUSH2 0x17A9 JUMPI DUP2 PUSH1 0x20 ADD PUSH1 0x20 DUP3 MUL DUP1 CALLDATASIZE DUP4 CALLDATACOPY DUP1 DUP3 ADD SWAP2 POP POP SWAP1 POP JUMPDEST POP SWAP2 POP PUSH0 PUSH0 SWAP1 POP JUMPDEST DUP2 DUP2 LT ISZERO PUSH2 0x191A JUMPI PUSH0 PUSH1 0x6 DUP3 DUP2 SLOAD DUP2 LT PUSH2 0x17CE JUMPI PUSH2 0x17CD PUSH2 0x38C1 JUMP JUMPDEST JUMPDEST SWAP1 PUSH0 MSTORE PUSH1 0x20 PUSH0 KECCAK256 ADD PUSH0 SWAP1 SLOAD SWAP1 PUSH2 0x100 EXP SWAP1 DIV PUSH20 0xFFFFFFFFFFFFFFFFFFFFFFFFFFFFFFFFFFFFFFFF AND SWAP1 POP PUSH0 PUSH1 0x7 PUSH0 DUP10 PUSH20 0xFFFFFFFFFFFFFFFFFFFFFFFFFFFFFFFFFFFFFFFF AND PUSH20 0xFFFFFFFFFFFFFFFFFFFFFFFFFFFFFFFFFFFFFFFF AND DUP2 MSTORE PUSH1 0x20 ADD SWAP1 DUP2 MSTORE PUSH1 0x20 ADD PUSH0 KECCAK256 PUSH0 DUP4 PUSH20 0xFFFFFFFFFFFFFFFFFFFFFFFFFFFFFFFFFFFFFFFF AND PUSH20 0xFFFFFFFFFFFFFFFFFFFFFFFFFFFFFFFFFFFFFFFF AND DUP2 MSTORE PUSH1 0x20 ADD SWAP1 DUP2 MSTORE PUSH1 0x20 ADD PUSH0 KECCAK256 SLOAD SWAP1 POP DUP2 DUP8 DUP5 DUP2 MLOAD DUP2 LT PUSH2 0x1888 JUMPI PUSH2 0x1887 PUSH2 0x38C1 JUMP JUMPDEST JUMPDEST PUSH1 0x20 MUL PUSH1 0x20 ADD ADD SWAP1 PUSH20 0xFFFFFFFFFFFFFFFFFFFFFFFFFFFFFFFFFFFFFFFF AND SWAP1 DUP2 PUSH20 0xFFFFFFFFFFFFFFFFFFFFFFFFFFFFFFFFFFFFFFFF AND DUP2 MSTORE POP POP DUP1 DUP7 DUP5 DUP2 MLOAD DUP2 LT PUSH2 0x18D6 JUMPI PUSH2 0x18D5 PUSH2 0x38C1 JUMP JUMPDEST JUMPDEST PUSH1 0x20 MUL PUSH1 0x20 ADD ADD DUP2 DUP2 MSTORE POP POP PUSH2 0x18EC DUP3 DUP3 PUSH2 0x2BC1 JUMP JUMPDEST DUP6 DUP5 DUP2 MLOAD DUP2 LT PUSH2 0x18FF JUMPI PUSH2 0x18FE PUSH2 0x38C1 JUMP JUMPDEST JUMPDEST PUSH1 0x20 MUL PUSH1 0x20 ADD ADD DUP2 DUP2 MSTORE POP POP POP POP DUP1 DUP1 PUSH1 0x1 ADD SWAP2 POP POP PUSH2 0x17B1 JUMP JUMPDEST POP POP SWAP2 SWAP4 SWAP1 SWAP3 POP JUMP JUMPDEST PUSH1 0x6 DUP2 DUP2 SLOAD DUP2 LT PUSH2 0x1932 JUMPI PUSH0 DUP1 REVERT JUMPDEST SWAP1 PUSH0 MSTORE PUSH1 0x20 PUSH0 KECCAK256 ADD PUSH0 SWAP2 POP SLOAD SWAP1 PUSH2 0x100 EXP SWAP1 DIV PUSH20 0xFFFFFFFFFFFFFFFFFFFFFFFFFFFFFFFFFFFFFFFF AND DUP2 JUMP JUMPDEST PUSH0 PUSH0 PUSH0 PUSH0 PUSH1 0x3 SLOAD PUSH1 0x4 SLOAD PUSH1 0x5 SLOAD PUSH1 0x3 SLOAD PUSH32 0x0 PUSH2 0x1999 SWAP2 SWAP1 PUSH2 0x391B JUMP JUMPDEST SWAP4 POP SWAP4 POP SWAP4 POP SWAP4 POP SWAP1 SWAP2 SWAP3 SWAP4 JUMP JUMPDEST PUSH0 PUSH2 0x19B1 DUP3 PUSH2 0x2CF4 JUMP JUMPDEST SWAP1 POP SWAP2 SWAP1 POP JUMP JUMPDEST PUSH1 0x60 PUSH1 0x6 DUP1 SLOAD DUP1 PUSH1 0x20 MUL PUSH1 0x20 ADD PUSH1 0x40 MLOAD SWAP1 DUP2 ADD PUSH1 0x40 MSTORE DUP1 SWAP3 SWAP2 SWAP1 DUP2 DUP2 MSTORE PUSH1 0x20 ADD DUP3 DUP1 SLOAD DUP1 ISZERO PUSH2 0x1A39 JUMPI PUSH1 0x20 MUL DUP3 ADD SWAP2 SWAP1 PUSH0 MSTORE PUSH1 0x20 PUSH0 KECCAK256 SWAP1 JUMPDEST DUP2 PUSH0 SWAP1 SLOAD SWAP1 PUSH2 0x100 EXP SWAP1 DIV PUSH20 0xFFFFFFFFFFFFFFFFFFFFFFFFFFFFFFFFFFFFFFFF AND PUSH20 0xFFFFFFFFFFFFFFFFFFFFFFFFFFFFFFFFFFFFFFFF AND DUP2 MSTORE PUSH1 0x20 ADD SWAP1 PUSH1 0x1 ADD SWAP1 DUP1 DUP4 GT PUSH2 0x19F0 JUMPI JUMPDEST POP POP POP POP POP SWAP1 POP SWAP1 JUMP JUMPDEST PUSH0 PUSH1 0x7 PUSH0 DUP5 PUSH20 0xFFFFFFFFFFFFFFFFFFFFFFFFFFFFFFFFFFFFFFFF AND PUSH20 0xFFFFFFFFFFFFFFFFFFFFFFFFFFFFFFFFFFFFFFFF AND DUP2 MSTORE PUSH1 0x20 ADD SWAP1 DUP2 MSTORE PUSH1 0x20 ADD PUSH0 KECCAK256 PUSH0 DUP4 PUSH20 0xFFFFFFFFFFFFFFFFFFFFFFFFFFFFFFFFFFFFFFFF AND PUSH20 0xFFFFFFFFFFFFFFFFFFFFFFFFFFFFFFFFFFFFFFFF AND DUP2 MSTORE PUSH1 0x20 ADD SWAP1 DUP2 MSTORE PUSH1 0x20 ADD PUSH0 KECCAK256 SLOAD SWAP1 POP SWAP3 SWAP2 POP POP JUMP JUMPDEST PUSH2 0x1ACE DUP3 PUSH2 0xB9A JUMP JUMPDEST PUSH2 0x1AD7 DUP2 PUSH2 0x23DC JUMP JUMPDEST PUSH2 0x1AE1 DUP4 DUP4 PUSH2 0x24E0 JUMP JUMPDEST POP POP POP POP JUMP JUMPDEST PUSH2 0x1AEF PUSH2 0x262A JUMP JUMPDEST PUSH2 0x1AF7 PUSH2 0x266B JUMP JUMPDEST PUSH0 CALLVALUE SUB PUSH2 0x1B30 JUMPI PUSH1 0x40 MLOAD PUSH32 0x2C5211C600000000000000000000000000000000000000000000000000000000 DUP2 MSTORE PUSH1 0x4 ADD PUSH1 0x40 MLOAD DUP1 SWAP2 SUB SWAP1 REVERT JUMPDEST PUSH2 0x1B3A PUSH0 CALLVALUE PUSH2 0x2733 JUMP JUMPDEST PUSH2 0x1B42 PUSH2 0x290D JUMP JUMPDEST JUMP JUMPDEST PUSH0 PUSH2 0x1B4F DUP4 DUP4 PUSH2 0x2BC1 JUMP JUMPDEST SWAP1 POP SWAP3 SWAP2 POP POP JUMP JUMPDEST PUSH2 0x1B5F PUSH2 0x262A JUMP JUMPDEST PUSH2 0x1B67 PUSH2 0x266B JUMP JUMPDEST PUSH0 DUP2 SUB PUSH2 0x1BA0 JUMPI PUSH1 0x40 MLOAD PUSH32 0x2C5211C600000000000000000000000000000000000000000000000000000000 DUP2 MSTORE PUSH1 0x4 ADD PUSH1 0x40 MLOAD DUP1 SWAP2 SUB SWAP1 REVERT JUMPDEST PUSH1 0x8 PUSH0 DUP4 PUSH20 0xFFFFFFFFFFFFFFFFFFFFFFFFFFFFFFFFFFFFFFFF AND PUSH20 0xFFFFFFFFFFFFFFFFFFFFFFFFFFFFFFFFFFFFFFFF AND DUP2 MSTORE PUSH1 0x20 ADD SWAP1 DUP2 MSTORE PUSH1 0x20 ADD PUSH0 KECCAK256 PUSH0 SWAP1 SLOAD SWAP1 PUSH2 0x100 EXP SWAP1 DIV PUSH1 0xFF AND PUSH2 0x1C20 JUMPI PUSH1 0x40 MLOAD PUSH32 0x3DD1B30500000000000000000000000000000000000000000000000000000000 DUP2 MSTORE PUSH1 0x4 ADD PUSH1 0x40 MLOAD DUP1 SWAP2 SUB SWAP1 REVERT JUMPDEST DUP1 PUSH1 0x7 PUSH0 CALLER PUSH20 0xFFFFFFFFFFFFFFFFFFFFFFFFFFFFFFFFFFFFFFFF AND PUSH20 0xFFFFFFFFFFFFFFFFFFFFFFFFFFFFFFFFFFFFFFFF AND DUP2 MSTORE PUSH1 0x20 ADD SWAP1 DUP2 MSTORE PUSH1 0x20 ADD PUSH0 KECCAK256 PUSH0 DUP5 PUSH20 0xFFFFFFFFFFFFFFFFFFFFFFFFFFFFFFFFFFFFFFFF AND PUSH20 0xFFFFFFFFFFFFFFFFFFFFFFFFFFFFFFFFFFFFFFFF AND DUP2 MSTORE PUSH1 0x20 ADD SWAP1 DUP2 MSTORE PUSH1 0x20 ADD PUSH0 KECCAK256 SLOAD LT ISZERO PUSH2 0x1CD2 JUMPI PUSH1 0x40 MLOAD PUSH32 0xF4D678B800000000000000000000000000000000000000000000000000000000 DUP2 MSTORE PUSH1 0x4 ADD PUSH1 0x40 MLOAD DUP1 SWAP2 SUB SWAP1 REVERT JUMPDEST PUSH0 PUSH2 0x1CDD DUP4 DUP4 PUSH2 0x2BC1 JUMP JUMPDEST SWAP1 POP PUSH32 0x0 DUP2 GT ISZERO PUSH2 0x1D39 JUMPI PUSH1 0x40 MLOAD PUSH32 0x4E6A369600000000000000000000000000000000000000000000000000000000 DUP2 MSTORE PUSH1 0x4 ADD PUSH1 0x40 MLOAD DUP1 SWAP2 SUB SWAP1 REVERT JUMPDEST DUP2 PUSH1 0x7 PUSH0 CALLER PUSH20 0xFFFFFFFFFFFFFFFFFFFFFFFFFFFFFFFFFFFFFFFF AND PUSH20 0xFFFFFFFFFFFFFFFFFFFFFFFFFFFFFFFFFFFFFFFF AND DUP2 MSTORE PUSH1 0x20 ADD SWAP1 DUP2 MSTORE PUSH1 0x20 ADD PUSH0 KECCAK256 PUSH0 DUP6 PUSH20 0xFFFFFFFFFFFFFFFFFFFFFFFFFFFFFFFFFFFFFFFF AND PUSH20 0xFFFFFFFFFFFFFFFFFFFFFFFFFFFFFFFFFFFFFFFF AND DUP2 MSTORE PUSH1 0x20 ADD SWAP1 DUP2 MSTORE PUSH1 0x20 ADD PUSH0 KECCAK256 PUSH0 DUP3 DUP3 SLOAD PUSH2 0x1DC0 SWAP2 SWAP1 PUSH2 0x391B JUMP JUMPDEST SWAP3 POP POP DUP2 SWAP1 SSTORE POP DUP1 PUSH1 0x3 PUSH0 DUP3 DUP3 SLOAD PUSH2 0x1DD8 SWAP2 SWAP1 PUSH2 0x391B JUMP JUMPDEST SWAP3 POP POP DUP2 SWAP1 SSTORE POP PUSH1 0x5 PUSH0 DUP2 SLOAD DUP1 SWAP3 SWAP2 SWAP1 PUSH2 0x1DF1 SWAP1 PUSH2 0x39A8 JUMP JUMPDEST SWAP2 SWAP1 POP SSTORE POP PUSH0 PUSH20 0xFFFFFFFFFFFFFFFFFFFFFFFFFFFFFFFFFFFFFFFF AND DUP4 PUSH20 0xFFFFFFFFFFFFFFFFFFFFFFFFFFFFFFFFFFFFFFFF AND SUB PUSH2 0x1E38 JUMPI PUSH2 0x1E33 CALLER DUP4 PUSH2 0x2EE8 JUMP JUMPDEST PUSH2 0x1E64 JUMP JUMPDEST PUSH2 0x1E63 CALLER DUP4 DUP6 PUSH20 0xFFFFFFFFFFFFFFFFFFFFFFFFFFFFFFFFFFFFFFFF AND PUSH2 0x2F8C SWAP1 SWAP3 SWAP2 SWAP1 PUSH4 0xFFFFFFFF AND JUMP JUMPDEST JUMPDEST DUP3 PUSH20 0xFFFFFFFFFFFFFFFFFFFFFFFFFFFFFFFFFFFFFFFF AND CALLER PUSH20 0xFFFFFFFFFFFFFFFFFFFFFFFFFFFFFFFFFFFFFFFF AND PUSH32 0xC2B4A290C20FB28939D29F102514FBFFD2B73C059FFBA8B78250C94161D5FCC6 DUP5 DUP5 PUSH1 0x40 MLOAD PUSH2 0x1EC3 SWAP3 SWAP2 SWAP1 PUSH2 0x39EF JUMP JUMPDEST PUSH1 0x40 MLOAD DUP1 SWAP2 SUB SWAP1 LOG3 POP PUSH2 0x1ED4 PUSH2 0x290D JUMP JUMPDEST POP POP JUMP JUMPDEST PUSH32 0x97667070C54EF182B0F5858B034BEAC1B6F3089AA2D3188BB1E8929F4FA9B929 DUP2 JUMP JUMPDEST PUSH2 0x1F04 PUSH2 0x262A JUMP JUMPDEST PUSH2 0x1F0C PUSH2 0x266B JUMP JUMPDEST PUSH1 0x8 PUSH0 DUP3 PUSH20 0xFFFFFFFFFFFFFFFFFFFFFFFFFFFFFFFFFFFFFFFF AND PUSH20 0xFFFFFFFFFFFFFFFFFFFFFFFFFFFFFFFFFFFFFFFF AND DUP2 MSTORE PUSH1 0x20 ADD SWAP1 DUP2 MSTORE PUSH1 0x20 ADD PUSH0 KECCAK256 PUSH0 SWAP1 SLOAD SWAP1 PUSH2 0x100 EXP SWAP1 DIV PUSH1 0xFF AND PUSH2 0x1F8C JUMPI PUSH1 0x40 MLOAD PUSH32 0x3DD1B30500000000000000000000000000000000000000000000000000000000 DUP2 MSTORE PUSH1 0x4 ADD PUSH1 0x40 MLOAD DUP1 SWAP2 SUB SWAP1 REVERT JUMPDEST PUSH0 PUSH1 0x7 PUSH0 CALLER PUSH20 0xFFFFFFFFFFFFFFFFFFFFFFFFFFFFFFFFFFFFFFFF AND PUSH20 0xFFFFFFFFFFFFFFFFFFFFFFFFFFFFFFFFFFFFFFFF AND DUP2 MSTORE PUSH1 0x20 ADD SWAP1 DUP2 MSTORE PUSH1 0x20 ADD PUSH0 KECCAK256 PUSH0 DUP4 PUSH20 0xFFFFFFFFFFFFFFFFFFFFFFFFFFFFFFFFFFFFFFFF AND PUSH20 0xFFFFFFFFFFFFFFFFFFFFFFFFFFFFFFFFFFFFFFFF AND DUP2 MSTORE PUSH1 0x20 ADD SWAP1 DUP2 MSTORE PUSH1 0x20 ADD PUSH0 KECCAK256 SLOAD SWAP1 POP PUSH0 DUP2 SUB PUSH2 0x2041 JUMPI PUSH1 0x40 MLOAD PUSH32 0xF4D678B800000000000000000000000000000000000000000000000000000000 DUP2 MSTORE PUSH1 0x4 ADD PUSH1 0x40 MLOAD DUP1 SWAP2 SUB SWAP1 REVERT JUMPDEST PUSH0 PUSH2 0x204C DUP4 DUP4 PUSH2 0x2BC1 JUMP JUMPDEST SWAP1 POP PUSH0 PUSH0 PUSH32 0x0 DUP4 GT PUSH2 0x2082 JUMPI DUP4 SWAP2 POP DUP3 SWAP1 POP PUSH2 0x20D2 JUMP JUMPDEST PUSH2 0x20AC DUP6 PUSH32 0x0 PUSH2 0x2AF0 JUMP JUMPDEST SWAP2 POP PUSH32 0x0 SWAP1 POP JUMPDEST DUP2 PUSH1 0x7 PUSH0 CALLER PUSH20 0xFFFFFFFFFFFFFFFFFFFFFFFFFFFFFFFFFFFFFFFF AND PUSH20 0xFFFFFFFFFFFFFFFFFFFFFFFFFFFFFFFFFFFFFFFF AND DUP2 MSTORE PUSH1 0x20 ADD SWAP1 DUP2 MSTORE PUSH1 0x20 ADD PUSH0 KECCAK256 PUSH0 DUP8 PUSH20 0xFFFFFFFFFFFFFFFFFFFFFFFFFFFFFFFFFFFFFFFF AND PUSH20 0xFFFFFFFFFFFFFFFFFFFFFFFFFFFFFFFFFFFFFFFF AND DUP2 MSTORE PUSH1 0x20 ADD SWAP1 DUP2 MSTORE PUSH1 0x20 ADD PUSH0 KECCAK256 PUSH0 DUP3 DUP3 SLOAD PUSH2 0x2159 SWAP2 SWAP1 PUSH2 0x391B JUMP JUMPDEST SWAP3 POP POP DUP2 SWAP1 SSTORE POP DUP1 PUSH1 0x3 PUSH0 DUP3 DUP3 SLOAD PUSH2 0x2171 SWAP2 SWAP1 PUSH2 0x391B JUMP JUMPDEST SWAP3 POP POP DUP2 SWAP1 SSTORE POP PUSH1 0x5 PUSH0 DUP2 SLOAD DUP1 SWAP3 SWAP2 SWAP1 PUSH2 0x218A SWAP1 PUSH2 0x39A8 JUMP JUMPDEST SWAP2 SWAP1 POP SSTORE POP PUSH0 PUSH20 0xFFFFFFFFFFFFFFFFFFFFFFFFFFFFFFFFFFFFFFFF AND DUP6 PUSH20 0xFFFFFFFFFFFFFFFFFFFFFFFFFFFFFFFFFFFFFFFF AND SUB PUSH2 0x21D1 JUMPI PUSH2 0x21CC CALLER DUP4 PUSH2 0x2EE8 JUMP JUMPDEST PUSH2 0x21FD JUMP JUMPDEST PUSH2 0x21FC CALLER DUP4 DUP8 PUSH20 0xFFFFFFFFFFFFFFFFFFFFFFFFFFFFFFFFFFFFFFFF AND PUSH2 0x2F8C SWAP1 SWAP3 SWAP2 SWAP1 PUSH4 0xFFFFFFFF AND JUMP JUMPDEST JUMPDEST DUP5 PUSH20 0xFFFFFFFFFFFFFFFFFFFFFFFFFFFFFFFFFFFFFFFF AND CALLER PUSH20 0xFFFFFFFFFFFFFFFFFFFFFFFFFFFFFFFFFFFFFFFF AND PUSH32 0xC2B4A290C20FB28939D29F102514FBFFD2B73C059FFBA8B78250C94161D5FCC6 DUP5 DUP5 PUSH1 0x40 MLOAD PUSH2 0x225C SWAP3 SWAP2 SWAP1 PUSH2 0x39EF JUMP JUMPDEST PUSH1 0x40 MLOAD DUP1 SWAP2 SUB SWAP1 LOG3 POP POP POP POP PUSH2 0x2270 PUSH2 0x290D JUMP JUMPDEST POP JUMP JUMPDEST PUSH0 PUSH0 PUSH1 0x7 PUSH0 DUP6 PUSH20 0xFFFFFFFFFFFFFFFFFFFFFFFFFFFFFFFFFFFFFFFF AND PUSH20 0xFFFFFFFFFFFFFFFFFFFFFFFFFFFFFFFFFFFFFFFF AND DUP2 MSTORE PUSH1 0x20 ADD SWAP1 DUP2 MSTORE PUSH1 0x20 ADD PUSH0 KECCAK256 PUSH0 DUP5 PUSH20 0xFFFFFFFFFFFFFFFFFFFFFFFFFFFFFFFFFFFFFFFF AND PUSH20 0xFFFFFFFFFFFFFFFFFFFFFFFFFFFFFFFFFFFFFFFF AND DUP2 MSTORE PUSH1 0x20 ADD SWAP1 DUP2 MSTORE PUSH1 0x20 ADD PUSH0 KECCAK256 SLOAD SWAP1 POP PUSH0 PUSH2 0x22FB DUP5 DUP4 PUSH2 0x2BC1 JUMP JUMPDEST SWAP1 POP PUSH32 0x0 DUP2 GT PUSH2 0x232E JUMPI DUP2 SWAP3 POP POP POP PUSH2 0x235D JUMP JUMPDEST PUSH2 0x2358 DUP5 PUSH32 0x0 PUSH2 0x2AF0 JUMP JUMPDEST SWAP3 POP POP POP JUMPDEST SWAP3 SWAP2 POP POP JUMP JUMPDEST PUSH0 PUSH32 0x7965DB0B00000000000000000000000000000000000000000000000000000000 PUSH28 0xFFFFFFFFFFFFFFFFFFFFFFFFFFFFFFFFFFFFFFFFFFFFFFFFFFFFFFFF NOT AND DUP3 PUSH28 0xFFFFFFFFFFFFFFFFFFFFFFFFFFFFFFFFFFFFFFFFFFFFFFFFFFFFFFFF NOT AND EQ DUP1 PUSH2 0x23D5 JUMPI POP PUSH2 0x23D4 DUP3 PUSH2 0x300B JUMP JUMPDEST JUMPDEST SWAP1 POP SWAP2 SWAP1 POP JUMP JUMPDEST PUSH2 0x23ED DUP2 PUSH2 0x23E8 PUSH2 0x24D9 JUMP JUMPDEST PUSH2 0x3074 JUMP JUMPDEST POP JUMP JUMPDEST PUSH0 PUSH2 0x23FB DUP4 DUP4 PUSH2 0x15F9 JUMP JUMPDEST PUSH2 0x24CF JUMPI PUSH1 0x1 PUSH0 PUSH0 DUP6 DUP2 MSTORE PUSH1 0x20 ADD SWAP1 DUP2 MSTORE PUSH1 0x20 ADD PUSH0 KECCAK256 PUSH0 ADD PUSH0 DUP5 PUSH20 0xFFFFFFFFFFFFFFFFFFFFFFFFFFFFFFFFFFFFFFFF AND PUSH20 0xFFFFFFFFFFFFFFFFFFFFFFFFFFFFFFFFFFFFFFFF AND DUP2 MSTORE PUSH1 0x20 ADD SWAP1 DUP2 MSTORE PUSH1 0x20 ADD PUSH0 KECCAK256 PUSH0 PUSH2 0x100 EXP DUP2 SLOAD DUP2 PUSH1 0xFF MUL NOT AND SWAP1 DUP4 ISZERO ISZERO MUL OR SWAP1 SSTORE POP PUSH2 0x246C PUSH2 0x24D9 JUMP JUMPDEST PUSH20 0xFFFFFFFFFFFFFFFFFFFFFFFFFFFFFFFFFFFFFFFF AND DUP3 PUSH20 0xFFFFFFFFFFFFFFFFFFFFFFFFFFFFFFFFFFFFFFFF AND DUP5 PUSH32 0x2F8788117E7EFF1D82E926EC794901D17C78024A50270940304540A733656F0D PUSH1 0x40 MLOAD PUSH1 0x40 MLOAD DUP1 SWAP2 SUB SWAP1 LOG4 PUSH1 0x1 SWAP1 POP PUSH2 0x24D3 JUMP JUMPDEST PUSH0 SWAP1 POP JUMPDEST SWAP3 SWAP2 POP POP JUMP JUMPDEST PUSH0 CALLER SWAP1 POP SWAP1 JUMP JUMPDEST PUSH0 PUSH2 0x24EB DUP4 DUP4 PUSH2 0x15F9 JUMP JUMPDEST ISZERO PUSH2 0x25BF JUMPI PUSH0 PUSH0 PUSH0 DUP6 DUP2 MSTORE PUSH1 0x20 ADD SWAP1 DUP2 MSTORE PUSH1 0x20 ADD PUSH0 KECCAK256 PUSH0 ADD PUSH0 DUP5 PUSH20 0xFFFFFFFFFFFFFFFFFFFFFFFFFFFFFFFFFFFFFFFF AND PUSH20 0xFFFFFFFFFFFFFFFFFFFFFFFFFFFFFFFFFFFFFFFF AND DUP2 MSTORE PUSH1 0x20 ADD SWAP1 DUP2 MSTORE PUSH1 0x20 ADD PUSH0 KECCAK256 PUSH0 PUSH2 0x100 EXP DUP2 SLOAD DUP2 PUSH1 0xFF MUL NOT AND SWAP1 DUP4 ISZERO ISZERO MUL OR SWAP1 SSTORE POP PUSH2 0x255C PUSH2 0x24D9 JUMP JUMPDEST PUSH20 0xFFFFFFFFFFFFFFFFFFFFFFFFFFFFFFFFFFFFFFFF AND DUP3 PUSH20 0xFFFFFFFFFFFFFFFFFFFFFFFFFFFFFFFFFFFFFFFF AND DUP5 PUSH32 0xF6391F5C32D9C69D2A47EA670B442974B53935D1EDC7FD64EB21E047A839171B PUSH1 0x40 MLOAD PUSH1 0x40 MLOAD DUP1 SWAP2 SUB SWAP1 LOG4 PUSH1 0x1 SWAP1 POP PUSH2 0x25C3 JUMP JUMPDEST PUSH0 SWAP1 POP JUMPDEST SWAP3 SWAP2 POP POP JUMP JUMPDEST PUSH2 0x25D1 PUSH2 0x30C5 JUMP JUMPDEST PUSH0 PUSH1 0x2 PUSH0 PUSH2 0x100 EXP DUP2 SLOAD DUP2 PUSH1 0xFF MUL NOT AND SWAP1 DUP4 ISZERO ISZERO MUL OR SWAP1 SSTORE POP PUSH32 0x5DB9EE0A495BF2E6FF9C91A7834C1BA4FDD244A5E8AA4E537BD38AEAE4B073AA PUSH2 0x2613 PUSH2 0x24D9 JUMP JUMPDEST PUSH1 0x40 MLOAD PUSH2 0x2620 SWAP2 SWAP1 PUSH2 0x3502 JUMP JUMPDEST PUSH1 0x40 MLOAD DUP1 SWAP2 SUB SWAP1 LOG1 JUMP JUMPDEST PUSH2 0x2632 PUSH2 0x10E9 JUMP JUMPDEST ISZERO PUSH2 0x2669 JUMPI PUSH1 0x40 MLOAD PUSH32 0xD93C066500000000000000000000000000000000000000000000000000000000 DUP2 MSTORE PUSH1 0x4 ADD PUSH1 0x40 MLOAD DUP1 SWAP2 SUB SWAP1 REVERT JUMPDEST JUMP JUMPDEST PUSH1 0x2 PUSH1 0x1 SLOAD SUB PUSH2 0x26A7 JUMPI PUSH1 0x40 MLOAD PUSH32 0x3EE5AEB500000000000000000000000000000000000000000000000000000000 DUP2 MSTORE PUSH1 0x4 ADD PUSH1 0x40 MLOAD DUP1 SWAP2 SUB SWAP1 REVERT JUMPDEST PUSH1 0x2 PUSH1 0x1 DUP2 SWAP1 SSTORE POP JUMP JUMPDEST PUSH2 0x272D DUP5 DUP6 PUSH20 0xFFFFFFFFFFFFFFFFFFFFFFFFFFFFFFFFFFFFFFFF AND PUSH4 0x23B872DD DUP7 DUP7 DUP7 PUSH1 0x40 MLOAD PUSH1 0x24 ADD PUSH2 0x26E6 SWAP4 SWAP3 SWAP2 SWAP1 PUSH2 0x3A16 JUMP JUMPDEST PUSH1 0x40 MLOAD PUSH1 0x20 DUP2 DUP4 SUB SUB DUP2 MSTORE SWAP1 PUSH1 0x40 MSTORE SWAP2 POP PUSH1 0xE0 SHL PUSH1 0x20 DUP3 ADD DUP1 MLOAD PUSH28 0xFFFFFFFFFFFFFFFFFFFFFFFFFFFFFFFFFFFFFFFFFFFFFFFFFFFFFFFF DUP4 DUP2 DUP4 AND OR DUP4 MSTORE POP POP POP POP PUSH2 0x3105 JUMP JUMPDEST POP POP POP POP JUMP JUMPDEST PUSH0 PUSH2 0x273E DUP4 DUP4 PUSH2 0x2BC1 JUMP JUMPDEST SWAP1 POP PUSH3 0x186A0 DUP2 LT ISZERO PUSH2 0x277D JUMPI PUSH1 0x40 MLOAD PUSH32 0x6BA4A1C700000000000000000000000000000000000000000000000000000000 DUP2 MSTORE PUSH1 0x4 ADD PUSH1 0x40 MLOAD DUP1 SWAP2 SUB SWAP1 REVERT JUMPDEST PUSH32 0x0 DUP2 PUSH1 0x3 SLOAD PUSH2 0x27AC SWAP2 SWAP1 PUSH2 0x3A4B JUMP JUMPDEST GT ISZERO PUSH2 0x27E4 JUMPI PUSH1 0x40 MLOAD PUSH32 0x448F3CA800000000000000000000000000000000000000000000000000000000 DUP2 MSTORE PUSH1 0x4 ADD PUSH1 0x40 MLOAD DUP1 SWAP2 SUB SWAP1 REVERT JUMPDEST DUP2 PUSH1 0x7 PUSH0 CALLER PUSH20 0xFFFFFFFFFFFFFFFFFFFFFFFFFFFFFFFFFFFFFFFF AND PUSH20 0xFFFFFFFFFFFFFFFFFFFFFFFFFFFFFFFFFFFFFFFF AND DUP2 MSTORE PUSH1 0x20 ADD SWAP1 DUP2 MSTORE PUSH1 0x20 ADD PUSH0 KECCAK256 PUSH0 DUP6 PUSH20 0xFFFFFFFFFFFFFFFFFFFFFFFFFFFFFFFFFFFFFFFF AND PUSH20 0xFFFFFFFFFFFFFFFFFFFFFFFFFFFFFFFFFFFFFFFF AND DUP2 MSTORE PUSH1 0x20 ADD SWAP1 DUP2 MSTORE PUSH1 0x20 ADD PUSH0 KECCAK256 PUSH0 DUP3 DUP3 SLOAD PUSH2 0x286B SWAP2 SWAP1 PUSH2 0x3A4B JUMP JUMPDEST SWAP3 POP POP DUP2 SWAP1 SSTORE POP DUP1 PUSH1 0x3 PUSH0 DUP3 DUP3 SLOAD PUSH2 0x2883 SWAP2 SWAP1 PUSH2 0x3A4B JUMP JUMPDEST SWAP3 POP POP DUP2 SWAP1 SSTORE POP PUSH1 0x4 PUSH0 DUP2 SLOAD DUP1 SWAP3 SWAP2 SWAP1 PUSH2 0x289C SWAP1 PUSH2 0x39A8 JUMP JUMPDEST SWAP2 SWAP1 POP SSTORE POP DUP3 PUSH20 0xFFFFFFFFFFFFFFFFFFFFFFFFFFFFFFFFFFFFFFFF AND CALLER PUSH20 0xFFFFFFFFFFFFFFFFFFFFFFFFFFFFFFFFFFFFFFFF AND PUSH32 0xDCBC1C05240F31FF3AD067EF1EE35CE4997762752E3A095284754544F4C709D7 DUP5 DUP5 PUSH1 0x40 MLOAD PUSH2 0x2900 SWAP3 SWAP2 SWAP1 PUSH2 0x39EF JUMP JUMPDEST PUSH1 0x40 MLOAD DUP1 SWAP2 SUB SWAP1 LOG3 POP POP POP JUMP JUMPDEST PUSH1 0x1 DUP1 DUP2 SWAP1 SSTORE POP JUMP JUMPDEST PUSH1 0x1 PUSH1 0x8 PUSH0 DUP6 PUSH20 0xFFFFFFFFFFFFFFFFFFFFFFFFFFFFFFFFFFFFFFFF AND PUSH20 0xFFFFFFFFFFFFFFFFFFFFFFFFFFFFFFFFFFFFFFFF AND DUP2 MSTORE PUSH1 0x20 ADD SWAP1 DUP2 MSTORE PUSH1 0x20 ADD PUSH0 KECCAK256 PUSH0 PUSH2 0x100 EXP DUP2 SLOAD DUP2 PUSH1 0xFF MUL NOT AND SWAP1 DUP4 ISZERO ISZERO MUL OR SWAP1 SSTORE POP DUP2 PUSH1 0x9 PUSH0 DUP6 PUSH20 0xFFFFFFFFFFFFFFFFFFFFFFFFFFFFFFFFFFFFFFFF AND PUSH20 0xFFFFFFFFFFFFFFFFFFFFFFFFFFFFFFFFFFFFFFFF AND DUP2 MSTORE PUSH1 0x20 ADD SWAP1 DUP2 MSTORE PUSH1 0x20 ADD PUSH0 KECCAK256 PUSH0 PUSH2 0x100 EXP DUP2 SLOAD DUP2 PUSH1 0xFF MUL NOT AND SWAP1 DUP4 PUSH1 0xFF AND MUL OR SWAP1 SSTORE POP DUP1 PUSH1 0xA PUSH0 DUP6 PUSH20 0xFFFFFFFFFFFFFFFFFFFFFFFFFFFFFFFFFFFFFFFF AND PUSH20 0xFFFFFFFFFFFFFFFFFFFFFFFFFFFFFFFFFFFFFFFF AND DUP2 MSTORE PUSH1 0x20 ADD SWAP1 DUP2 MSTORE PUSH1 0x20 ADD PUSH0 KECCAK256 PUSH0 PUSH2 0x100 EXP DUP2 SLOAD DUP2 PUSH20 0xFFFFFFFFFFFFFFFFFFFFFFFFFFFFFFFFFFFFFFFF MUL NOT AND SWAP1 DUP4 PUSH20 0xFFFFFFFFFFFFFFFFFFFFFFFFFFFFFFFFFFFFFFFF AND MUL OR SWAP1 SSTORE POP PUSH1 0x6 DUP4 SWAP1 DUP1 PUSH1 0x1 DUP2 SLOAD ADD DUP1 DUP3 SSTORE DUP1 SWAP2 POP POP PUSH1 0x1 SWAP1 SUB SWAP1 PUSH0 MSTORE PUSH1 0x20 PUSH0 KECCAK256 ADD PUSH0 SWAP1 SWAP2 SWAP1 SWAP2 SWAP1 SWAP2 PUSH2 0x100 EXP DUP2 SLOAD DUP2 PUSH20 0xFFFFFFFFFFFFFFFFFFFFFFFFFFFFFFFFFFFFFFFF MUL NOT AND SWAP1 DUP4 PUSH20 0xFFFFFFFFFFFFFFFFFFFFFFFFFFFFFFFFFFFFFFFF AND MUL OR SWAP1 SSTORE POP DUP3 PUSH20 0xFFFFFFFFFFFFFFFFFFFFFFFFFFFFFFFFFFFFFFFF AND PUSH32 0x71EEDF6E504658772EC96BE84D876AE5C35B713CFDBFB47FE2C0053E9BDFE37B DUP4 DUP4 PUSH1 0x40 MLOAD PUSH2 0x2AE3 SWAP3 SWAP2 SWAP1 PUSH2 0x3A7E JUMP JUMPDEST PUSH1 0x40 MLOAD DUP1 SWAP2 SUB SWAP1 LOG2 POP POP POP JUMP JUMPDEST PUSH0 PUSH0 DUP3 SUB PUSH2 0x2B00 JUMPI PUSH0 SWAP1 POP PUSH2 0x2BBB JUMP JUMPDEST PUSH0 PUSH2 0x2B0A DUP5 PUSH2 0x2CF4 JUMP JUMPDEST SWAP1 POP PUSH0 PUSH1 0x9 PUSH0 DUP7 PUSH20 0xFFFFFFFFFFFFFFFFFFFFFFFFFFFFFFFFFFFFFFFF AND PUSH20 0xFFFFFFFFFFFFFFFFFFFFFFFFFFFFFFFFFFFFFFFF AND DUP2 MSTORE PUSH1 0x20 ADD SWAP1 DUP2 MSTORE PUSH1 0x20 ADD PUSH0 KECCAK256 PUSH0 SWAP1 SLOAD SWAP1 PUSH2 0x100 EXP SWAP1 DIV PUSH1 0xFF AND SWAP1 POP PUSH0 PUSH1 0x8 PUSH1 0xA PUSH2 0x2B68 SWAP2 SWAP1 PUSH2 0x3BD4 JUMP JUMPDEST DUP3 PUSH1 0xA PUSH2 0x2B75 SWAP2 SWAP1 PUSH2 0x3BD4 JUMP JUMPDEST DUP7 PUSH2 0x2B80 SWAP2 SWAP1 PUSH2 0x3C1E JUMP JUMPDEST PUSH2 0x2B8A SWAP2 SWAP1 PUSH2 0x3C1E JUMP JUMPDEST SWAP1 POP PUSH0 PUSH1 0x6 PUSH1 0xA PUSH2 0x2B9B SWAP2 SWAP1 PUSH2 0x3BD4 JUMP JUMPDEST DUP5 PUSH2 0x2BA6 SWAP2 SWAP1 PUSH2 0x3C1E JUMP JUMPDEST SWAP1 POP DUP1 DUP3 PUSH2 0x2BB4 SWAP2 SWAP1 PUSH2 0x3C8C JUMP JUMPDEST SWAP5 POP POP POP POP POP JUMPDEST SWAP3 SWAP2 POP POP JUMP JUMPDEST PUSH0 PUSH0 DUP3 SUB PUSH2 0x2BD1 JUMPI PUSH0 SWAP1 POP PUSH2 0x2C8C JUMP JUMPDEST PUSH0 PUSH2 0x2BDB DUP5 PUSH2 0x2CF4 JUMP JUMPDEST SWAP1 POP PUSH0 PUSH1 0x9 PUSH0 DUP7 PUSH20 0xFFFFFFFFFFFFFFFFFFFFFFFFFFFFFFFFFFFFFFFF AND PUSH20 0xFFFFFFFFFFFFFFFFFFFFFFFFFFFFFFFFFFFFFFFF AND DUP2 MSTORE PUSH1 0x20 ADD SWAP1 DUP2 MSTORE PUSH1 0x20 ADD PUSH0 KECCAK256 PUSH0 SWAP1 SLOAD SWAP1 PUSH2 0x100 EXP SWAP1 DIV PUSH1 0xFF AND SWAP1 POP PUSH0 PUSH1 0x6 PUSH1 0xA PUSH2 0x2C39 SWAP2 SWAP1 PUSH2 0x3BD4 JUMP JUMPDEST DUP4 DUP7 PUSH2 0x2C45 SWAP2 SWAP1 PUSH2 0x3C1E JUMP JUMPDEST PUSH2 0x2C4F SWAP2 SWAP1 PUSH2 0x3C1E JUMP JUMPDEST SWAP1 POP PUSH0 PUSH1 0x8 PUSH1 0xA PUSH2 0x2C60 SWAP2 SWAP1 PUSH2 0x3BD4 JUMP JUMPDEST DUP4 PUSH1 0xA PUSH2 0x2C6D SWAP2 SWAP1 PUSH2 0x3BD4 JUMP JUMPDEST PUSH2 0x2C77 SWAP2 SWAP1 PUSH2 0x3C1E JUMP JUMPDEST SWAP1 POP DUP1 DUP3 PUSH2 0x2C85 SWAP2 SWAP1 PUSH2 0x3C8C JUMP JUMPDEST SWAP5 POP POP POP POP POP JUMPDEST SWAP3 SWAP2 POP POP JUMP JUMPDEST PUSH2 0x2C9A PUSH2 0x262A JUMP JUMPDEST PUSH1 0x1 PUSH1 0x2 PUSH0 PUSH2 0x100 EXP DUP2 SLOAD DUP2 PUSH1 0xFF MUL NOT AND SWAP1 DUP4 ISZERO ISZERO MUL OR SWAP1 SSTORE POP PUSH32 0x62E78CEA01BEE320CD4E420270B5EA74000D11B0C9F74754EBDBFC544B05A258 PUSH2 0x2CDD PUSH2 0x24D9 JUMP JUMPDEST PUSH1 0x40 MLOAD PUSH2 0x2CEA SWAP2 SWAP1 PUSH2 0x3502 JUMP JUMPDEST PUSH1 0x40 MLOAD DUP1 SWAP2 SUB SWAP1 LOG1 JUMP JUMPDEST PUSH0 PUSH0 PUSH0 PUSH20 0xFFFFFFFFFFFFFFFFFFFFFFFFFFFFFFFFFFFFFFFF AND DUP4 PUSH20 0xFFFFFFFFFFFFFFFFFFFFFFFFFFFFFFFFFFFFFFFF AND EQ PUSH2 0x2D8B JUMPI PUSH1 0xA PUSH0 DUP5 PUSH20 0xFFFFFFFFFFFFFFFFFFFFFFFFFFFFFFFFFFFFFFFF AND PUSH20 0xFFFFFFFFFFFFFFFFFFFFFFFFFFFFFFFFFFFFFFFF AND DUP2 MSTORE PUSH1 0x20 ADD SWAP1 DUP2 MSTORE PUSH1 0x20 ADD PUSH0 KECCAK256 PUSH0 SWAP1 SLOAD SWAP1 PUSH2 0x100 EXP SWAP1 DIV PUSH20 0xFFFFFFFFFFFFFFFFFFFFFFFFFFFFFFFFFFFFFFFF AND PUSH2 0x2DAD JUMP JUMPDEST PUSH32 0x0 JUMPDEST SWAP1 POP PUSH0 PUSH0 DUP3 PUSH20 0xFFFFFFFFFFFFFFFFFFFFFFFFFFFFFFFFFFFFFFFF AND PUSH4 0xFEAF968C PUSH1 0x40 MLOAD DUP2 PUSH4 0xFFFFFFFF AND PUSH1 0xE0 SHL DUP2 MSTORE PUSH1 0x4 ADD PUSH1 0xA0 PUSH1 0x40 MLOAD DUP1 DUP4 SUB DUP2 DUP7 GAS STATICCALL ISZERO DUP1 ISZERO PUSH2 0x2DFA JUMPI RETURNDATASIZE PUSH0 PUSH0 RETURNDATACOPY RETURNDATASIZE PUSH0 REVERT JUMPDEST POP POP POP POP PUSH1 0x40 MLOAD RETURNDATASIZE PUSH1 0x1F NOT PUSH1 0x1F DUP3 ADD AND DUP3 ADD DUP1 PUSH1 0x40 MSTORE POP DUP2 ADD SWAP1 PUSH2 0x2E1E SWAP2 SWAP1 PUSH2 0x3D42 JUMP JUMPDEST POP SWAP4 POP POP SWAP3 POP POP PUSH0 DUP3 SGT PUSH2 0x2E5D JUMPI PUSH1 0x40 MLOAD PUSH31 0xBFC92100000000000000000000000000000000000000000000000000000000 DUP2 MSTORE PUSH1 0x4 ADD PUSH1 0x40 MLOAD DUP1 SWAP2 SUB SWAP1 REVERT JUMPDEST PUSH0 DUP2 SUB PUSH2 0x2E96 JUMPI PUSH1 0x40 MLOAD PUSH32 0x19ABF40E00000000000000000000000000000000000000000000000000000000 DUP2 MSTORE PUSH1 0x4 ADD PUSH1 0x40 MLOAD DUP1 SWAP2 SUB SWAP1 REVERT JUMPDEST PUSH2 0xE10 DUP2 TIMESTAMP PUSH2 0x2EA5 SWAP2 SWAP1 PUSH2 0x391B JUMP JUMPDEST GT ISZERO PUSH2 0x2EDD JUMPI PUSH1 0x40 MLOAD PUSH32 0x19ABF40E00000000000000000000000000000000000000000000000000000000 DUP2 MSTORE PUSH1 0x4 ADD PUSH1 0x40 MLOAD DUP1 SWAP2 SUB SWAP1 REVERT JUMPDEST DUP2 SWAP4 POP POP POP POP SWAP2 SWAP1 POP JUMP JUMPDEST PUSH0 DUP3 PUSH20 0xFFFFFFFFFFFFFFFFFFFFFFFFFFFFFFFFFFFFFFFF AND DUP3 PUSH1 0x40 MLOAD PUSH2 0x2F0D SWAP1 PUSH2 0x3DE6 JUMP JUMPDEST PUSH0 PUSH1 0x40 MLOAD DUP1 DUP4 SUB DUP2 DUP6 DUP8 GAS CALL SWAP3 POP POP POP RETURNDATASIZE DUP1 PUSH0 DUP2 EQ PUSH2 0x2F47 JUMPI PUSH1 0x40 MLOAD SWAP2 POP PUSH1 0x1F NOT PUSH1 0x3F RETURNDATASIZE ADD AND DUP3 ADD PUSH1 0x40 MSTORE RETURNDATASIZE DUP3 MSTORE RETURNDATASIZE PUSH0 PUSH1 0x20 DUP5 ADD RETURNDATACOPY PUSH2 0x2F4C JUMP JUMPDEST PUSH1 0x60 SWAP2 POP JUMPDEST POP POP SWAP1 POP DUP1 PUSH2 0x2F87 JUMPI PUSH1 0x40 MLOAD PUSH32 0x90B8EC1800000000000000000000000000000000000000000000000000000000 DUP2 MSTORE PUSH1 0x4 ADD PUSH1 0x40 MLOAD DUP1 SWAP2 SUB SWAP1 REVERT JUMPDEST POP POP POP JUMP JUMPDEST PUSH2 0x3006 DUP4 DUP5 PUSH20 0xFFFFFFFFFFFFFFFFFFFFFFFFFFFFFFFFFFFFFFFF AND PUSH4 0xA9059CBB DUP6 DUP6 PUSH1 0x40 MLOAD PUSH1 0x24 ADD PUSH2 0x2FBF SWAP3 SWAP2 SWAP1 PUSH2 0x3DFA JUMP JUMPDEST PUSH1 0x40 MLOAD PUSH1 0x20 DUP2 DUP4 SUB SUB DUP2 MSTORE SWAP1 PUSH1 0x40 MSTORE SWAP2 POP PUSH1 0xE0 SHL PUSH1 0x20 DUP3 ADD DUP1 MLOAD PUSH28 0xFFFFFFFFFFFFFFFFFFFFFFFFFFFFFFFFFFFFFFFFFFFFFFFFFFFFFFFF DUP4 DUP2 DUP4 AND OR DUP4 MSTORE POP POP POP POP PUSH2 0x3105 JUMP JUMPDEST POP POP POP JUMP JUMPDEST PUSH0 PUSH32 0x1FFC9A700000000000000000000000000000000000000000000000000000000 PUSH28 0xFFFFFFFFFFFFFFFFFFFFFFFFFFFFFFFFFFFFFFFFFFFFFFFFFFFFFFFF NOT AND DUP3 PUSH28 0xFFFFFFFFFFFFFFFFFFFFFFFFFFFFFFFFFFFFFFFFFFFFFFFFFFFFFFFF NOT AND EQ SWAP1 POP SWAP2 SWAP1 POP JUMP JUMPDEST PUSH2 0x307E DUP3 DUP3 PUSH2 0x15F9 JUMP JUMPDEST PUSH2 0x30C1 JUMPI DUP1 DUP3 PUSH1 0x40 MLOAD PUSH32 0xE2517D3F00000000000000000000000000000000000000000000000000000000 DUP2 MSTORE PUSH1 0x4 ADD PUSH2 0x30B8 SWAP3 SWAP2 SWAP1 PUSH2 0x3E21 JUMP JUMPDEST PUSH1 0x40 MLOAD DUP1 SWAP2 SUB SWAP1 REVERT JUMPDEST POP POP JUMP JUMPDEST PUSH2 0x30CD PUSH2 0x10E9 JUMP JUMPDEST PUSH2 0x3103 JUMPI PUSH1 0x40 MLOAD PUSH32 0x8DFC202B00000000000000000000000000000000000000000000000000000000 DUP2 MSTORE PUSH1 0x4 ADD PUSH1 0x40 MLOAD DUP1 SWAP2 SUB SWAP1 REVERT JUMPDEST JUMP JUMPDEST PUSH0 PUSH0 PUSH1 0x20 PUSH0 DUP5 MLOAD PUSH1 0x20 DUP7 ADD PUSH0 DUP9 GAS CALL DUP1 PUSH2 0x3124 JUMPI PUSH1 0x40 MLOAD RETURNDATASIZE PUSH0 DUP3 RETURNDATACOPY RETURNDATASIZE DUP2 REVERT JUMPDEST RETURNDATASIZE SWAP3 POP PUSH0 MLOAD SWAP2 POP POP PUSH0 DUP3 EQ PUSH2 0x313D JUMPI PUSH1 0x1 DUP2 EQ ISZERO PUSH2 0x3158 JUMP JUMPDEST PUSH0 DUP5 PUSH20 0xFFFFFFFFFFFFFFFFFFFFFFFFFFFFFFFFFFFFFFFF AND EXTCODESIZE EQ JUMPDEST ISZERO PUSH2 0x319A JUMPI DUP4 PUSH1 0x40 MLOAD PUSH32 0x5274AFE700000000000000000000000000000000000000000000000000000000 DUP2 MSTORE PUSH1 0x4 ADD PUSH2 0x3191 SWAP2 SWAP1 PUSH2 0x3502 JUMP JUMPDEST PUSH1 0x40 MLOAD DUP1 SWAP2 SUB SWAP1 REVERT JUMPDEST POP POP POP POP JUMP JUMPDEST PUSH1 0x40 MLOAD DUP1 PUSH1 0x80 ADD PUSH1 0x40 MSTORE DUP1 PUSH0 PUSH20 0xFFFFFFFFFFFFFFFFFFFFFFFFFFFFFFFFFFFFFFFF AND DUP2 MSTORE PUSH1 0x20 ADD PUSH0 PUSH1 0xFF AND DUP2 MSTORE PUSH1 0x20 ADD PUSH0 ISZERO ISZERO DUP2 MSTORE PUSH1 0x20 ADD PUSH0 PUSH20 0xFFFFFFFFFFFFFFFFFFFFFFFFFFFFFFFFFFFFFFFF AND DUP2 MSTORE POP SWAP1 JUMP JUMPDEST PUSH0 PUSH0 REVERT JUMPDEST PUSH0 PUSH32 0xFFFFFFFF00000000000000000000000000000000000000000000000000000000 DUP3 AND SWAP1 POP SWAP2 SWAP1 POP JUMP JUMPDEST PUSH2 0x322D DUP2 PUSH2 0x31F9 JUMP JUMPDEST DUP2 EQ PUSH2 0x3237 JUMPI PUSH0 PUSH0 REVERT JUMPDEST POP JUMP JUMPDEST PUSH0 DUP2 CALLDATALOAD SWAP1 POP PUSH2 0x3248 DUP2 PUSH2 0x3224 JUMP JUMPDEST SWAP3 SWAP2 POP POP JUMP JUMPDEST PUSH0 PUSH1 0x20 DUP3 DUP5 SUB SLT ISZERO PUSH2 0x3263 JUMPI PUSH2 0x3262 PUSH2 0x31F5 JUMP JUMPDEST JUMPDEST PUSH0 PUSH2 0x3270 DUP5 DUP3 DUP6 ADD PUSH2 0x323A JUMP JUMPDEST SWAP2 POP POP SWAP3 SWAP2 POP POP JUMP JUMPDEST PUSH0 DUP2 ISZERO ISZERO SWAP1 POP SWAP2 SWAP1 POP JUMP JUMPDEST PUSH2 0x328D DUP2 PUSH2 0x3279 JUMP JUMPDEST DUP3 MSTORE POP POP JUMP JUMPDEST PUSH0 PUSH1 0x20 DUP3 ADD SWAP1 POP PUSH2 0x32A6 PUSH0 DUP4 ADD DUP5 PUSH2 0x3284 JUMP JUMPDEST SWAP3 SWAP2 POP POP JUMP JUMPDEST PUSH0 PUSH20 0xFFFFFFFFFFFFFFFFFFFFFFFFFFFFFFFFFFFFFFFF DUP3 AND SWAP1 POP SWAP2 SWAP1 POP JUMP JUMPDEST PUSH0 PUSH2 0x32D5 DUP3 PUSH2 0x32AC JUMP JUMPDEST SWAP1 POP SWAP2 SWAP1 POP JUMP JUMPDEST PUSH2 0x32E5 DUP2 PUSH2 0x32CB JUMP JUMPDEST DUP2 EQ PUSH2 0x32EF JUMPI PUSH0 PUSH0 REVERT JUMPDEST POP JUMP JUMPDEST PUSH0 DUP2 CALLDATALOAD SWAP1 POP PUSH2 0x3300 DUP2 PUSH2 0x32DC JUMP JUMPDEST SWAP3 SWAP2 POP POP JUMP JUMPDEST PUSH0 PUSH1 0x20 DUP3 DUP5 SUB SLT ISZERO PUSH2 0x331B JUMPI PUSH2 0x331A PUSH2 0x31F5 JUMP JUMPDEST JUMPDEST PUSH0 PUSH2 0x3328 DUP5 DUP3 DUP6 ADD PUSH2 0x32F2 JUMP JUMPDEST SWAP2 POP POP SWAP3 SWAP2 POP POP JUMP JUMPDEST PUSH2 0x333A DUP2 PUSH2 0x32CB JUMP JUMPDEST DUP3 MSTORE POP POP JUMP JUMPDEST PUSH0 PUSH1 0xFF DUP3 AND SWAP1 POP SWAP2 SWAP1 POP JUMP JUMPDEST PUSH2 0x3355 DUP2 PUSH2 0x3340 JUMP JUMPDEST DUP3 MSTORE POP POP JUMP JUMPDEST PUSH2 0x3364 DUP2 PUSH2 0x3279 JUMP JUMPDEST DUP3 MSTORE POP POP JUMP JUMPDEST PUSH1 0x80 DUP3 ADD PUSH0 DUP3 ADD MLOAD PUSH2 0x337E PUSH0 DUP6 ADD DUP3 PUSH2 0x3331 JUMP JUMPDEST POP PUSH1 0x20 DUP3 ADD MLOAD PUSH2 0x3391 PUSH1 0x20 DUP6 ADD DUP3 PUSH2 0x334C JUMP JUMPDEST POP PUSH1 0x40 DUP3 ADD MLOAD PUSH2 0x33A4 PUSH1 0x40 DUP6 ADD DUP3 PUSH2 0x335B JUMP JUMPDEST POP PUSH1 0x60 DUP3 ADD MLOAD PUSH2 0x33B7 PUSH1 0x60 DUP6 ADD DUP3 PUSH2 0x3331 JUMP JUMPDEST POP POP POP POP JUMP JUMPDEST PUSH0 PUSH1 0x80 DUP3 ADD SWAP1 POP PUSH2 0x33D0 PUSH0 DUP4 ADD DUP5 PUSH2 0x336A JUMP JUMPDEST SWAP3 SWAP2 POP POP JUMP JUMPDEST PUSH0 DUP2 SWAP1 POP SWAP2 SWAP1 POP JUMP JUMPDEST PUSH2 0x33E8 DUP2 PUSH2 0x33D6 JUMP JUMPDEST DUP2 EQ PUSH2 0x33F2 JUMPI PUSH0 PUSH0 REVERT JUMPDEST POP JUMP JUMPDEST PUSH0 DUP2 CALLDATALOAD SWAP1 POP PUSH2 0x3403 DUP2 PUSH2 0x33DF JUMP JUMPDEST SWAP3 SWAP2 POP POP JUMP JUMPDEST PUSH0 PUSH1 0x20 DUP3 DUP5 SUB SLT ISZERO PUSH2 0x341E JUMPI PUSH2 0x341D PUSH2 0x31F5 JUMP JUMPDEST JUMPDEST PUSH0 PUSH2 0x342B DUP5 DUP3 DUP6 ADD PUSH2 0x33F5 JUMP JUMPDEST SWAP2 POP POP SWAP3 SWAP2 POP POP JUMP JUMPDEST PUSH2 0x343D DUP2 PUSH2 0x33D6 JUMP JUMPDEST DUP3 MSTORE POP POP JUMP JUMPDEST PUSH0 PUSH1 0x20 DUP3 ADD SWAP1 POP PUSH2 0x3456 PUSH0 DUP4 ADD DUP5 PUSH2 0x3434 JUMP JUMPDEST SWAP3 SWAP2 POP POP JUMP JUMPDEST PUSH2 0x3465 DUP2 PUSH2 0x3340 JUMP JUMPDEST DUP3 MSTORE POP POP JUMP JUMPDEST PUSH0 PUSH1 0x20 DUP3 ADD SWAP1 POP PUSH2 0x347E PUSH0 DUP4 ADD DUP5 PUSH2 0x345C JUMP JUMPDEST SWAP3 SWAP2 POP POP JUMP JUMPDEST PUSH0 DUP2 SWAP1 POP SWAP2 SWAP1 POP JUMP JUMPDEST PUSH2 0x3496 DUP2 PUSH2 0x3484 JUMP JUMPDEST DUP3 MSTORE POP POP JUMP JUMPDEST PUSH0 PUSH1 0x20 DUP3 ADD SWAP1 POP PUSH2 0x34AF PUSH0 DUP4 ADD DUP5 PUSH2 0x348D JUMP JUMPDEST SWAP3 SWAP2 POP POP JUMP JUMPDEST PUSH0 PUSH0 PUSH1 0x40 DUP4 DUP6 SUB SLT ISZERO PUSH2 0x34CB JUMPI PUSH2 0x34CA PUSH2 0x31F5 JUMP JUMPDEST JUMPDEST PUSH0 PUSH2 0x34D8 DUP6 DUP3 DUP7 ADD PUSH2 0x33F5 JUMP JUMPDEST SWAP3 POP POP PUSH1 0x20 PUSH2 0x34E9 DUP6 DUP3 DUP7 ADD PUSH2 0x32F2 JUMP JUMPDEST SWAP2 POP POP SWAP3 POP SWAP3 SWAP1 POP JUMP JUMPDEST PUSH2 0x34FC DUP2 PUSH2 0x32CB JUMP JUMPDEST DUP3 MSTORE POP POP JUMP JUMPDEST PUSH0 PUSH1 0x20 DUP3 ADD SWAP1 POP PUSH2 0x3515 PUSH0 DUP4 ADD DUP5 PUSH2 0x34F3 JUMP JUMPDEST SWAP3 SWAP2 POP POP JUMP JUMPDEST PUSH0 DUP2 SWAP1 POP SWAP2 SWAP1 POP JUMP JUMPDEST PUSH0 PUSH2 0x353E PUSH2 0x3539 PUSH2 0x3534 DUP5 PUSH2 0x32AC JUMP JUMPDEST PUSH2 0x351B JUMP JUMPDEST PUSH2 0x32AC JUMP JUMPDEST SWAP1 POP SWAP2 SWAP1 POP JUMP JUMPDEST PUSH0 PUSH2 0x354F DUP3 PUSH2 0x3524 JUMP JUMPDEST SWAP1 POP SWAP2 SWAP1 POP JUMP JUMPDEST PUSH0 PUSH2 0x3560 DUP3 PUSH2 0x3545 JUMP JUMPDEST SWAP1 POP SWAP2 SWAP1 POP JUMP JUMPDEST PUSH2 0x3570 DUP2 PUSH2 0x3556 JUMP JUMPDEST DUP3 MSTORE POP POP JUMP JUMPDEST PUSH0 PUSH1 0x20 DUP3 ADD SWAP1 POP PUSH2 0x3589 PUSH0 DUP4 ADD DUP5 PUSH2 0x3567 JUMP JUMPDEST SWAP3 SWAP2 POP POP JUMP JUMPDEST PUSH2 0x3598 DUP2 PUSH2 0x3484 JUMP JUMPDEST DUP2 EQ PUSH2 0x35A2 JUMPI PUSH0 PUSH0 REVERT JUMPDEST POP JUMP JUMPDEST PUSH0 DUP2 CALLDATALOAD SWAP1 POP PUSH2 0x35B3 DUP2 PUSH2 0x358F JUMP JUMPDEST SWAP3 SWAP2 POP POP JUMP JUMPDEST PUSH0 PUSH0 PUSH1 0x40 DUP4 DUP6 SUB SLT ISZERO PUSH2 0x35CF JUMPI PUSH2 0x35CE PUSH2 0x31F5 JUMP JUMPDEST JUMPDEST PUSH0 PUSH2 0x35DC DUP6 DUP3 DUP7 ADD PUSH2 0x32F2 JUMP JUMPDEST SWAP3 POP POP PUSH1 0x20 PUSH2 0x35ED DUP6 DUP3 DUP7 ADD PUSH2 0x35A5 JUMP JUMPDEST SWAP2 POP POP SWAP3 POP SWAP3 SWAP1 POP JUMP JUMPDEST PUSH0 PUSH0 PUSH1 0x40 DUP4 DUP6 SUB SLT ISZERO PUSH2 0x360D JUMPI PUSH2 0x360C PUSH2 0x31F5 JUMP JUMPDEST JUMPDEST PUSH0 PUSH2 0x361A DUP6 DUP3 DUP7 ADD PUSH2 0x32F2 JUMP JUMPDEST SWAP3 POP POP PUSH1 0x20 PUSH2 0x362B DUP6 DUP3 DUP7 ADD PUSH2 0x32F2 JUMP JUMPDEST SWAP2 POP POP SWAP3 POP SWAP3 SWAP1 POP JUMP JUMPDEST PUSH0 DUP2 MLOAD SWAP1 POP SWAP2 SWAP1 POP JUMP JUMPDEST PUSH0 DUP3 DUP3 MSTORE PUSH1 0x20 DUP3 ADD SWAP1 POP SWAP3 SWAP2 POP POP JUMP JUMPDEST PUSH0 DUP2 SWAP1 POP PUSH1 0x20 DUP3 ADD SWAP1 POP SWAP2 SWAP1 POP JUMP JUMPDEST PUSH0 PUSH2 0x3669 DUP4 DUP4 PUSH2 0x3331 JUMP JUMPDEST PUSH1 0x20 DUP4 ADD SWAP1 POP SWAP3 SWAP2 POP POP JUMP JUMPDEST PUSH0 PUSH1 0x20 DUP3 ADD SWAP1 POP SWAP2 SWAP1 POP JUMP JUMPDEST PUSH0 PUSH2 0x368B DUP3 PUSH2 0x3635 JUMP JUMPDEST PUSH2 0x3695 DUP2 DUP6 PUSH2 0x363F JUMP JUMPDEST SWAP4 POP PUSH2 0x36A0 DUP4 PUSH2 0x364F JUMP JUMPDEST DUP1 PUSH0 JUMPDEST DUP4 DUP2 LT ISZERO PUSH2 0x36D0 JUMPI DUP2 MLOAD PUSH2 0x36B7 DUP9 DUP3 PUSH2 0x365E JUMP JUMPDEST SWAP8 POP PUSH2 0x36C2 DUP4 PUSH2 0x3675 JUMP JUMPDEST SWAP3 POP POP PUSH1 0x1 DUP2 ADD SWAP1 POP PUSH2 0x36A3 JUMP JUMPDEST POP DUP6 SWAP4 POP POP POP POP SWAP3 SWAP2 POP POP JUMP JUMPDEST PUSH0 DUP2 MLOAD SWAP1 POP SWAP2 SWAP1 POP JUMP JUMPDEST PUSH0 DUP3 DUP3 MSTORE PUSH1 0x20 DUP3 ADD SWAP1 POP SWAP3 SWAP2 POP POP JUMP JUMPDEST PUSH0 DUP2 SWAP1 POP PUSH1 0x20 DUP3 ADD SWAP1 POP SWAP2 SWAP1 POP JUMP JUMPDEST PUSH2 0x370F DUP2 PUSH2 0x3484 JUMP JUMPDEST DUP3 MSTORE POP POP JUMP JUMPDEST PUSH0 PUSH2 0x3720 DUP4 DUP4 PUSH2 0x3706 JUMP JUMPDEST PUSH1 0x20 DUP4 ADD SWAP1 POP SWAP3 SWAP2 POP POP JUMP JUMPDEST PUSH0 PUSH1 0x20 DUP3 ADD SWAP1 POP SWAP2 SWAP1 POP JUMP JUMPDEST PUSH0 PUSH2 0x3742 DUP3 PUSH2 0x36DD JUMP JUMPDEST PUSH2 0x374C DUP2 DUP6 PUSH2 0x36E7 JUMP JUMPDEST SWAP4 POP PUSH2 0x3757 DUP4 PUSH2 0x36F7 JUMP JUMPDEST DUP1 PUSH0 JUMPDEST DUP4 DUP2 LT ISZERO PUSH2 0x3787 JUMPI DUP2 MLOAD PUSH2 0x376E DUP9 DUP3 PUSH2 0x3715 JUMP JUMPDEST SWAP8 POP PUSH2 0x3779 DUP4 PUSH2 0x372C JUMP JUMPDEST SWAP3 POP POP PUSH1 0x1 DUP2 ADD SWAP1 POP PUSH2 0x375A JUMP JUMPDEST POP DUP6 SWAP4 POP POP POP POP SWAP3 SWAP2 POP POP JUMP JUMPDEST PUSH0 PUSH1 0x60 DUP3 ADD SWAP1 POP DUP2 DUP2 SUB PUSH0 DUP4 ADD MSTORE PUSH2 0x37AC DUP2 DUP7 PUSH2 0x3681 JUMP JUMPDEST SWAP1 POP DUP2 DUP2 SUB PUSH1 0x20 DUP4 ADD MSTORE PUSH2 0x37C0 DUP2 DUP6 PUSH2 0x3738 JUMP JUMPDEST SWAP1 POP DUP2 DUP2 SUB PUSH1 0x40 DUP4 ADD MSTORE PUSH2 0x37D4 DUP2 DUP5 PUSH2 0x3738 JUMP JUMPDEST SWAP1 POP SWAP5 SWAP4 POP POP POP POP JUMP JUMPDEST PUSH0 PUSH1 0x20 DUP3 DUP5 SUB SLT ISZERO PUSH2 0x37F3 JUMPI PUSH2 0x37F2 PUSH2 0x31F5 JUMP JUMPDEST JUMPDEST PUSH0 PUSH2 0x3800 DUP5 DUP3 DUP6 ADD PUSH2 0x35A5 JUMP JUMPDEST SWAP2 POP POP SWAP3 SWAP2 POP POP JUMP JUMPDEST PUSH0 PUSH1 0x80 DUP3 ADD SWAP1 POP PUSH2 0x381C PUSH0 DUP4 ADD DUP8 PUSH2 0x348D JUMP JUMPDEST PUSH2 0x3829 PUSH1 0x20 DUP4 ADD DUP7 PUSH2 0x348D JUMP JUMPDEST PUSH2 0x3836 PUSH1 0x40 DUP4 ADD DUP6 PUSH2 0x348D JUMP JUMPDEST PUSH2 0x3843 PUSH1 0x60 DUP4 ADD DUP5 PUSH2 0x348D JUMP JUMPDEST SWAP6 SWAP5 POP POP POP POP POP JUMP JUMPDEST PUSH0 PUSH1 0x20 DUP3 ADD SWAP1 POP DUP2 DUP2 SUB PUSH0 DUP4 ADD MSTORE PUSH2 0x3864 DUP2 DUP5 PUSH2 0x3681 JUMP JUMPDEST SWAP1 POP SWAP3 SWAP2 POP POP JUMP JUMPDEST PUSH2 0x3875 DUP2 PUSH2 0x3340 JUMP JUMPDEST DUP2 EQ PUSH2 0x387F JUMPI PUSH0 PUSH0 REVERT JUMPDEST POP JUMP JUMPDEST PUSH0 DUP2 MLOAD SWAP1 POP PUSH2 0x3890 DUP2 PUSH2 0x386C JUMP JUMPDEST SWAP3 SWAP2 POP POP JUMP JUMPDEST PUSH0 PUSH1 0x20 DUP3 DUP5 SUB SLT ISZERO PUSH2 0x38AB JUMPI PUSH2 0x38AA PUSH2 0x31F5 JUMP JUMPDEST JUMPDEST PUSH0 PUSH2 0x38B8 DUP5 DUP3 DUP6 ADD PUSH2 0x3882 JUMP JUMPDEST SWAP2 POP POP SWAP3 SWAP2 POP POP JUMP JUMPDEST PUSH32 0x4E487B7100000000000000000000000000000000000000000000000000000000 PUSH0 MSTORE PUSH1 0x32 PUSH1 0x4 MSTORE PUSH1 0x24 PUSH0 REVERT JUMPDEST PUSH32 0x4E487B7100000000000000000000000000000000000000000000000000000000 PUSH0 MSTORE PUSH1 0x11 PUSH1 0x4 MSTORE PUSH1 0x24 PUSH0 REVERT JUMPDEST PUSH0 PUSH2 0x3925 DUP3 PUSH2 0x3484 JUMP JUMPDEST SWAP2 POP PUSH2 0x3930 DUP4 PUSH2 0x3484 JUMP JUMPDEST SWAP3 POP DUP3 DUP3 SUB SWAP1 POP DUP2 DUP2 GT ISZERO PUSH2 0x3948 JUMPI PUSH2 0x3947 PUSH2 0x38EE JUMP JUMPDEST JUMPDEST SWAP3 SWAP2 POP POP JUMP JUMPDEST PUSH32 0x4E487B7100000000000000000000000000000000000000000000000000000000 PUSH0 MSTORE PUSH1 0x31 PUSH1 0x4 MSTORE PUSH1 0x24 PUSH0 REVERT JUMPDEST PUSH32 0x4E487B7100000000000000000000000000000000000000000000000000000000 PUSH0 MSTORE PUSH1 0x41 PUSH1 0x4 MSTORE PUSH1 0x24 PUSH0 REVERT JUMPDEST PUSH0 PUSH2 0x39B2 DUP3 PUSH2 0x3484 JUMP JUMPDEST SWAP2 POP PUSH32 0xFFFFFFFFFFFFFFFFFFFFFFFFFFFFFFFFFFFFFFFFFFFFFFFFFFFFFFFFFFFFFFFF DUP3 SUB PUSH2 0x39E4 JUMPI PUSH2 0x39E3 PUSH2 0x38EE JUMP JUMPDEST JUMPDEST PUSH1 0x1 DUP3 ADD SWAP1 POP SWAP2 SWAP1 POP JUMP JUMPDEST PUSH0 PUSH1 0x40 DUP3 ADD SWAP1 POP PUSH2 0x3A02 PUSH0 DUP4 ADD DUP6 PUSH2 0x348D JUMP JUMPDEST PUSH2 0x3A0F PUSH1 0x20 DUP4 ADD DUP5 PUSH2 0x348D JUMP JUMPDEST SWAP4 SWAP3 POP POP POP JUMP JUMPDEST PUSH0 PUSH1 0x60 DUP3 ADD SWAP1 POP PUSH2 0x3A29 PUSH0 DUP4 ADD DUP7 PUSH2 0x34F3 JUMP JUMPDEST PUSH2 0x3A36 PUSH1 0x20 DUP4 ADD DUP6 PUSH2 0x34F3 JUMP JUMPDEST PUSH2 0x3A43 PUSH1 0x40 DUP4 ADD DUP5 PUSH2 0x348D JUMP JUMPDEST SWAP5 SWAP4 POP POP POP POP JUMP JUMPDEST PUSH0 PUSH2 0x3A55 DUP3 PUSH2 0x3484 JUMP JUMPDEST SWAP2 POP PUSH2 0x3A60 DUP4 PUSH2 0x3484 JUMP JUMPDEST SWAP3 POP DUP3 DUP3 ADD SWAP1 POP DUP1 DUP3 GT ISZERO PUSH2 0x3A78 JUMPI PUSH2 0x3A77 PUSH2 0x38EE JUMP JUMPDEST JUMPDEST SWAP3 SWAP2 POP POP JUMP JUMPDEST PUSH0 PUSH1 0x40 DUP3 ADD SWAP1 POP PUSH2 0x3A91 PUSH0 DUP4 ADD DUP6 PUSH2 0x345C JUMP JUMPDEST PUSH2 0x3A9E PUSH1 0x20 DUP4 ADD DUP5 PUSH2 0x34F3 JUMP JUMPDEST SWAP4 SWAP3 POP POP POP JUMP JUMPDEST PUSH0 DUP2 PUSH1 0x1 SHR SWAP1 POP SWAP2 SWAP1 POP JUMP JUMPDEST PUSH0 PUSH0 DUP3 SWAP2 POP DUP4 SWAP1 POP JUMPDEST PUSH1 0x1 DUP6 GT ISZERO PUSH2 0x3AFA JUMPI DUP1 DUP7 DIV DUP2 GT ISZERO PUSH2 0x3AD6 JUMPI PUSH2 0x3AD5 PUSH2 0x38EE JUMP JUMPDEST JUMPDEST PUSH1 0x1 DUP6 AND ISZERO PUSH2 0x3AE5 JUMPI DUP1 DUP3 MUL SWAP2 POP JUMPDEST DUP1 DUP2 MUL SWAP1 POP PUSH2 0x3AF3 DUP6 PUSH2 0x3AA5 JUMP JUMPDEST SWAP5 POP PUSH2 0x3ABA JUMP JUMPDEST SWAP5 POP SWAP5 SWAP3 POP POP POP JUMP JUMPDEST PUSH0 DUP3 PUSH2 0x3B12 JUMPI PUSH1 0x1 SWAP1 POP PUSH2 0x3BCD JUMP JUMPDEST DUP2 PUSH2 0x3B1F JUMPI PUSH0 SWAP1 POP PUSH2 0x3BCD JUMP JUMPDEST DUP2 PUSH1 0x1 DUP2 EQ PUSH2 0x3B35 JUMPI PUSH1 0x2 DUP2 EQ PUSH2 0x3B3F JUMPI PUSH2 0x3B6E JUMP JUMPDEST PUSH1 0x1 SWAP2 POP POP PUSH2 0x3BCD JUMP JUMPDEST PUSH1 0xFF DUP5 GT ISZERO PUSH2 0x3B51 JUMPI PUSH2 0x3B50 PUSH2 0x38EE JUMP JUMPDEST JUMPDEST DUP4 PUSH1 0x2 EXP SWAP2 POP DUP5 DUP3 GT ISZERO PUSH2 0x3B68 JUMPI PUSH2 0x3B67 PUSH2 0x38EE JUMP JUMPDEST JUMPDEST POP PUSH2 0x3BCD JUMP JUMPDEST POP PUSH1 0x20 DUP4 LT PUSH2 0x133 DUP4 LT AND PUSH1 0x4E DUP5 LT PUSH1 0xB DUP5 LT AND OR ISZERO PUSH2 0x3BA3 JUMPI DUP3 DUP3 EXP SWAP1 POP DUP4 DUP2 GT ISZERO PUSH2 0x3B9E JUMPI PUSH2 0x3B9D PUSH2 0x38EE JUMP JUMPDEST JUMPDEST PUSH2 0x3BCD JUMP JUMPDEST PUSH2 0x3BB0 DUP5 DUP5 DUP5 PUSH1 0x1 PUSH2 0x3AB1 JUMP JUMPDEST SWAP3 POP SWAP1 POP DUP2 DUP5 DIV DUP2 GT ISZERO PUSH2 0x3BC7 JUMPI PUSH2 0x3BC6 PUSH2 0x38EE JUMP JUMPDEST JUMPDEST DUP2 DUP2 MUL SWAP1 POP JUMPDEST SWAP4 SWAP3 POP POP POP JUMP JUMPDEST PUSH0 PUSH2 0x3BDE DUP3 PUSH2 0x3484 JUMP JUMPDEST SWAP2 POP PUSH2 0x3BE9 DUP4 PUSH2 0x3340 JUMP JUMPDEST SWAP3 POP PUSH2 0x3C16 PUSH32 0xFFFFFFFFFFFFFFFFFFFFFFFFFFFFFFFFFFFFFFFFFFFFFFFFFFFFFFFFFFFFFFFF DUP5 DUP5 PUSH2 0x3B03 JUMP JUMPDEST SWAP1 POP SWAP3 SWAP2 POP POP JUMP JUMPDEST PUSH0 PUSH2 0x3C28 DUP3 PUSH2 0x3484 JUMP JUMPDEST SWAP2 POP PUSH2 0x3C33 DUP4 PUSH2 0x3484 JUMP JUMPDEST SWAP3 POP DUP3 DUP3 MUL PUSH2 0x3C41 DUP2 PUSH2 0x3484 JUMP JUMPDEST SWAP2 POP DUP3 DUP3 DIV DUP5 EQ DUP4 ISZERO OR PUSH2 0x3C58 JUMPI PUSH2 0x3C57 PUSH2 0x38EE JUMP JUMPDEST JUMPDEST POP SWAP3 SWAP2 POP POP JUMP JUMPDEST PUSH32 0x4E487B7100000000000000000000000000000000000000000000000000000000 PUSH0 MSTORE PUSH1 0x12 PUSH1 0x4 MSTORE PUSH1 0x24 PUSH0 REVERT JUMPDEST PUSH0 PUSH2 0x3C96 DUP3 PUSH2 0x3484 JUMP JUMPDEST SWAP2 POP PUSH2 0x3CA1 DUP4 PUSH2 0x3484 JUMP JUMPDEST SWAP3 POP DUP3 PUSH2 0x3CB1 JUMPI PUSH2 0x3CB0 PUSH2 0x3C5F JUMP JUMPDEST JUMPDEST DUP3 DUP3 DIV SWAP1 POP SWAP3 SWAP2 POP POP JUMP JUMPDEST PUSH0 PUSH10 0xFFFFFFFFFFFFFFFFFFFF DUP3 AND SWAP1 POP SWAP2 SWAP1 POP JUMP JUMPDEST PUSH2 0x3CDA DUP2 PUSH2 0x3CBC JUMP JUMPDEST DUP2 EQ PUSH2 0x3CE4 JUMPI PUSH0 PUSH0 REVERT JUMPDEST POP JUMP JUMPDEST PUSH0 DUP2 MLOAD SWAP1 POP PUSH2 0x3CF5 DUP2 PUSH2 0x3CD1 JUMP JUMPDEST SWAP3 SWAP2 POP POP JUMP JUMPDEST PUSH0 DUP2 SWAP1 POP SWAP2 SWAP1 POP JUMP JUMPDEST PUSH2 0x3D0D DUP2 PUSH2 0x3CFB JUMP JUMPDEST DUP2 EQ PUSH2 0x3D17 JUMPI PUSH0 PUSH0 REVERT JUMPDEST POP JUMP JUMPDEST PUSH0 DUP2 MLOAD SWAP1 POP PUSH2 0x3D28 DUP2 PUSH2 0x3D04 JUMP JUMPDEST SWAP3 SWAP2 POP POP JUMP JUMPDEST PUSH0 DUP2 MLOAD SWAP1 POP PUSH2 0x3D3C DUP2 PUSH2 0x358F JUMP JUMPDEST SWAP3 SWAP2 POP POP JUMP JUMPDEST PUSH0 PUSH0 PUSH0 PUSH0 PUSH0 PUSH1 0xA0 DUP7 DUP9 SUB SLT ISZERO PUSH2 0x3D5B JUMPI PUSH2 0x3D5A PUSH2 0x31F5 JUMP JUMPDEST JUMPDEST PUSH0 PUSH2 0x3D68 DUP9 DUP3 DUP10 ADD PUSH2 0x3CE7 JUMP JUMPDEST SWAP6 POP POP PUSH1 0x20 PUSH2 0x3D79 DUP9 DUP3 DUP10 ADD PUSH2 0x3D1A JUMP JUMPDEST SWAP5 POP POP PUSH1 0x40 PUSH2 0x3D8A DUP9 DUP3 DUP10 ADD PUSH2 0x3D2E JUMP JUMPDEST SWAP4 POP POP PUSH1 0x60 PUSH2 0x3D9B DUP9 DUP3 DUP10 ADD PUSH2 0x3D2E JUMP JUMPDEST SWAP3 POP POP PUSH1 0x80 PUSH2 0x3DAC DUP9 DUP3 DUP10 ADD PUSH2 0x3CE7 JUMP JUMPDEST SWAP2 POP POP SWAP3 SWAP6 POP SWAP3 SWAP6 SWAP1 SWAP4 POP JUMP JUMPDEST PUSH0 DUP2 SWAP1 POP SWAP3 SWAP2 POP POP JUMP JUMPDEST POP JUMP JUMPDEST PUSH0 PUSH2 0x3DD1 PUSH0 DUP4 PUSH2 0x3DB9 JUMP JUMPDEST SWAP2 POP PUSH2 0x3DDC DUP3 PUSH2 0x3DC3 JUMP JUMPDEST PUSH0 DUP3 ADD SWAP1 POP SWAP2 SWAP1 POP JUMP JUMPDEST PUSH0 PUSH2 0x3DF0 DUP3 PUSH2 0x3DC6 JUMP JUMPDEST SWAP2 POP DUP2 SWAP1 POP SWAP2 SWAP1 POP JUMP JUMPDEST PUSH0 PUSH1 0x40 DUP3 ADD SWAP1 POP PUSH2 0x3E0D PUSH0 DUP4 ADD DUP6 PUSH2 0x34F3 JUMP JUMPDEST PUSH2 0x3E1A PUSH1 0x20 DUP4 ADD DUP5 PUSH2 0x348D JUMP JUMPDEST SWAP4 SWAP3 POP POP POP JUMP JUMPDEST PUSH0 PUSH1 0x40 DUP3 ADD SWAP1 POP PUSH2 0x3E34 PUSH0 DUP4 ADD DUP6 PUSH2 0x34F3 JUMP JUMPDEST PUSH2 0x3E41 PUSH1 0x20 DUP4 ADD DUP5 PUSH2 0x3434 JUMP JUMPDEST SWAP4 SWAP3 POP POP POP JUMP INVALID LOG2 PUSH5 0x6970667358 0x22 SLT KECCAK256 SWAP6 0x29 0xD2 PUSH13 0x2C3A1C5115EACE0F389CC412BB JUMPI CODESIZE ORIGIN 0xC1 TIMESTAMP 0xF7 LOG0 PUSH29 0x19E7D0812388C864736F6C634300081E00330000000000000000000000 "
		},
		"gasEstimates": {
			"creation": {
				"codeDepositCost": "3199600",
				"executionCost": "infinite",
				"totalCost": "infinite"
			},
			"external": {
				"ACCOUNTING_DECIMALS()": "444",
				"ADMIN_ROLE()": "393",
				"DEFAULT_ADMIN_ROLE()": "396",
				"MINIMUM_DEPOSIT_USD()": "370",
				"NATIVE_TOKEN()": "440",
				"OPERATOR_ROLE()": "435",
				"PRICE_FEED_DECIMALS()": "443",
				"addToken(address,address)": "infinite",
				"bankCapUsd()": "infinite",
				"convertFromUsd(address,uint256)": "infinite",
				"convertToUsd(address,uint256)": "infinite",
				"deposit(address,uint256)": "infinite",
				"depositCount()": "2560",
				"depositNative()": "infinite",
				"ethUsdPriceFeed()": "infinite",
				"getAllBalances(address)": "infinite",
				"getBalance(address,address)": "infinite",
				"getBalanceInUsd(address,address)": "infinite",
				"getBankStats()": "infinite",
				"getMaxWithdrawal(address,address)": "infinite",
				"getRoleAdmin(bytes32)": "infinite",
				"getSupportedTokens()": "infinite",
				"getTokenInfo(address)": "infinite",
				"getTokenPrice(address)": "infinite",
				"grantRole(bytes32,address)": "infinite",
				"hasRole(bytes32,address)": "3254",
				"isTokenSupported(address)": "2879",
				"pause()": "infinite",
				"paused()": "2562",
				"removeToken(address)": "infinite",
				"renounceRole(bytes32,address)": "infinite",
				"revokeRole(bytes32,address)": "infinite",
				"supportedTokens(uint256)": "5099",
				"supportsInterface(bytes4)": "806",
				"tokenDecimals(address)": "2945",
				"tokenPriceFeeds(address)": "infinite",
				"totalDepositsUsd()": "2471",
				"unpause()": "infinite",
				"vaults(address,address)": "infinite",
				"withdraw(address,uint256)": "infinite",
				"withdrawAll(address)": "infinite",
				"withdrawalCount()": "2580",
				"withdrawalLimitUsd()": "infinite"
			},
			"internal": {
				"_addToken(address,uint8,address)": "infinite",
				"_convertFromUsd(address,uint256)": "infinite",
				"_convertToUsd(address,uint256)": "infinite",
				"_deposit(address,uint256)": "infinite",
				"_getPrice(address)": "infinite",
				"_sendNative(address,uint256)": "infinite"
			}
		},
		"methodIdentifiers": {
			"ACCOUNTING_DECIMALS()": "2b825ad6",
			"ADMIN_ROLE()": "75b238fc",
			"DEFAULT_ADMIN_ROLE()": "a217fddf",
			"MINIMUM_DEPOSIT_USD()": "965e12dc",
			"NATIVE_TOKEN()": "31f7d964",
			"OPERATOR_ROLE()": "f5b541a6",
			"PRICE_FEED_DECIMALS()": "4ed94b24",
			"addToken(address,address)": "5476bd72",
			"bankCapUsd()": "ac4543ba",
			"convertFromUsd(address,uint256)": "57f1915d",
			"convertToUsd(address,uint256)": "ee957996",
			"deposit(address,uint256)": "47e7ef24",
			"depositCount()": "2dfdf0b5",
			"depositNative()": "db6b5246",
			"ethUsdPriceFeed()": "42f6fb29",
			"getAllBalances(address)": "c53d6ce1",
			"getBalance(address,address)": "d4fac45d",
			"getBalanceInUsd(address,address)": "70d397e9",
			"getBankStats()": "c6e8e38c",
			"getMaxWithdrawal(address,address)": "ffecbc17",
			"getRoleAdmin(bytes32)": "248a9ca3",
			"getSupportedTokens()": "d3c7c2c7",
			"getTokenInfo(address)": "1f69565f",
			"getTokenPrice(address)": "d02641a0",
			"grantRole(bytes32,address)": "2f2ff15d",
			"hasRole(bytes32,address)": "91d14854",
			"isTokenSupported(address)": "75151b63",
			"pause()": "8456cb59",
			"paused()": "5c975abb",
			"removeToken(address)": "5fa7b584",
			"renounceRole(bytes32,address)": "36568abe",
			"revokeRole(bytes32,address)": "d547741f",
			"supportedTokens(uint256)": "c6255626",
			"supportsInterface(bytes4)": "01ffc9a7",
			"tokenDecimals(address)": "8ee573ac",
			"tokenPriceFeeds(address)": "bd9c47e3",
			"totalDepositsUsd()": "45037ac9",
			"unpause()": "3f4ba83a",
			"vaults(address,address)": "4d635e70",
			"withdraw(address,uint256)": "f3fef3a3",
			"withdrawAll(address)": "fa09e630",
			"withdrawalCount()": "71706cbe",
			"withdrawalLimitUsd()": "51247424"
		}
	},
	"abi": [
		{
			"inputs": [
				{
					"internalType": "address",
					"name": "_ethUsdPriceFeed",
					"type": "address"
				},
				{
					"internalType": "uint256",
					"name": "_bankCapUsd",
					"type": "uint256"
				},
				{
					"internalType": "uint256",
					"name": "_withdrawalLimitUsd",
					"type": "uint256"
				}
			],
			"stateMutability": "nonpayable",
			"type": "constructor"
		},
		{
			"inputs": [],
			"name": "AccessControlBadConfirmation",
			"type": "error"
		},
		{
			"inputs": [
				{
					"internalType": "address",
					"name": "account",
					"type": "address"
				},
				{
					"internalType": "bytes32",
					"name": "neededRole",
					"type": "bytes32"
				}
			],
			"name": "AccessControlUnauthorizedAccount",
			"type": "error"
		},
		{
			"inputs": [],
			"name": "BankCapExceeded",
			"type": "error"
		},
		{
			"inputs": [],
			"name": "DepositTooSmall",
			"type": "error"
		},
		{
			"inputs": [],
			"name": "EnforcedPause",
			"type": "error"
		},
		{
			"inputs": [],
			"name": "ExpectedPause",
			"type": "error"
		},
		{
			"inputs": [],
			"name": "InsufficientBalance",
			"type": "error"
		},
		{
			"inputs": [],
			"name": "InvalidAmount",
			"type": "error"
		},
		{
			"inputs": [],
			"name": "InvalidPrice",
			"type": "error"
		},
		{
			"inputs": [],
			"name": "InvalidPriceFeed",
			"type": "error"
		},
		{
			"inputs": [],
			"name": "InvalidTokenAddress",
			"type": "error"
		},
		{
			"inputs": [],
			"name": "ReentrancyGuardReentrantCall",
			"type": "error"
		},
		{
			"inputs": [
				{
					"internalType": "address",
					"name": "token",
					"type": "address"
				}
			],
			"name": "SafeERC20FailedOperation",
			"type": "error"
		},
		{
			"inputs": [],
			"name": "StalePrice",
			"type": "error"
		},
		{
			"inputs": [],
			"name": "TokenAlreadySupported",
			"type": "error"
		},
		{
			"inputs": [],
			"name": "TokenNotSupported",
			"type": "error"
		},
		{
			"inputs": [],
			"name": "TransferFailed",
			"type": "error"
		},
		{
			"inputs": [],
			"name": "WithdrawalLimitExceeded",
			"type": "error"
		},
		{
			"anonymous": false,
			"inputs": [
				{
					"indexed": true,
					"internalType": "address",
					"name": "user",
					"type": "address"
				},
				{
					"indexed": true,
					"internalType": "address",
					"name": "token",
					"type": "address"
				},
				{
					"indexed": false,
					"internalType": "uint256",
					"name": "amount",
					"type": "uint256"
				},
				{
					"indexed": false,
					"internalType": "uint256",
					"name": "amountUsd",
					"type": "uint256"
				}
			],
			"name": "Deposit",
			"type": "event"
		},
		{
			"anonymous": false,
			"inputs": [
				{
					"indexed": false,
					"internalType": "address",
					"name": "account",
					"type": "address"
				}
			],
			"name": "Paused",
			"type": "event"
		},
		{
			"anonymous": false,
			"inputs": [
				{
					"indexed": true,
					"internalType": "bytes32",
					"name": "role",
					"type": "bytes32"
				},
				{
					"indexed": true,
					"internalType": "bytes32",
					"name": "previousAdminRole",
					"type": "bytes32"
				},
				{
					"indexed": true,
					"internalType": "bytes32",
					"name": "newAdminRole",
					"type": "bytes32"
				}
			],
			"name": "RoleAdminChanged",
			"type": "event"
		},
		{
			"anonymous": false,
			"inputs": [
				{
					"indexed": true,
					"internalType": "bytes32",
					"name": "role",
					"type": "bytes32"
				},
				{
					"indexed": true,
					"internalType": "address",
					"name": "account",
					"type": "address"
				},
				{
					"indexed": true,
					"internalType": "address",
					"name": "sender",
					"type": "address"
				}
			],
			"name": "RoleGranted",
			"type": "event"
		},
		{
			"anonymous": false,
			"inputs": [
				{
					"indexed": true,
					"internalType": "bytes32",
					"name": "role",
					"type": "bytes32"
				},
				{
					"indexed": true,
					"internalType": "address",
					"name": "account",
					"type": "address"
				},
				{
					"indexed": true,
					"internalType": "address",
					"name": "sender",
					"type": "address"
				}
			],
			"name": "RoleRevoked",
			"type": "event"
		},
		{
			"anonymous": false,
			"inputs": [
				{
					"indexed": true,
					"internalType": "address",
					"name": "token",
					"type": "address"
				},
				{
					"indexed": false,
					"internalType": "uint8",
					"name": "decimals",
					"type": "uint8"
				},
				{
					"indexed": false,
					"internalType": "address",
					"name": "priceFeed",
					"type": "address"
				}
			],
			"name": "TokenAdded",
			"type": "event"
		},
		{
			"anonymous": false,
			"inputs": [
				{
					"indexed": true,
					"internalType": "address",
					"name": "token",
					"type": "address"
				}
			],
			"name": "TokenRemoved",
			"type": "event"
		},
		{
			"anonymous": false,
			"inputs": [
				{
					"indexed": false,
					"internalType": "address",
					"name": "account",
					"type": "address"
				}
			],
			"name": "Unpaused",
			"type": "event"
		},
		{
			"anonymous": false,
			"inputs": [
				{
					"indexed": true,
					"internalType": "address",
					"name": "user",
					"type": "address"
				},
				{
					"indexed": true,
					"internalType": "address",
					"name": "token",
					"type": "address"
				},
				{
					"indexed": false,
					"internalType": "uint256",
					"name": "amount",
					"type": "uint256"
				},
				{
					"indexed": false,
					"internalType": "uint256",
					"name": "amountUsd",
					"type": "uint256"
				}
			],
			"name": "Withdrawal",
			"type": "event"
		},
		{
			"inputs": [],
			"name": "ACCOUNTING_DECIMALS",
			"outputs": [
				{
					"internalType": "uint8",
					"name": "",
					"type": "uint8"
				}
			],
			"stateMutability": "view",
			"type": "function"
		},
		{
			"inputs": [],
			"name": "ADMIN_ROLE",
			"outputs": [
				{
					"internalType": "bytes32",
					"name": "",
					"type": "bytes32"
				}
			],
			"stateMutability": "view",
			"type": "function"
		},
		{
			"inputs": [],
			"name": "DEFAULT_ADMIN_ROLE",
			"outputs": [
				{
					"internalType": "bytes32",
					"name": "",
					"type": "bytes32"
				}
			],
			"stateMutability": "view",
			"type": "function"
		},
		{
			"inputs": [],
			"name": "MINIMUM_DEPOSIT_USD",
			"outputs": [
				{
					"internalType": "uint256",
					"name": "",
					"type": "uint256"
				}
			],
			"stateMutability": "view",
			"type": "function"
		},
		{
			"inputs": [],
			"name": "NATIVE_TOKEN",
			"outputs": [
				{
					"internalType": "address",
					"name": "",
					"type": "address"
				}
			],
			"stateMutability": "view",
			"type": "function"
		},
		{
			"inputs": [],
			"name": "OPERATOR_ROLE",
			"outputs": [
				{
					"internalType": "bytes32",
					"name": "",
					"type": "bytes32"
				}
			],
			"stateMutability": "view",
			"type": "function"
		},
		{
			"inputs": [],
			"name": "PRICE_FEED_DECIMALS",
			"outputs": [
				{
					"internalType": "uint8",
					"name": "",
					"type": "uint8"
				}
			],
			"stateMutability": "view",
			"type": "function"
		},
		{
			"inputs": [
				{
					"internalType": "address",
					"name": "token",
					"type": "address"
				},
				{
					"internalType": "address",
					"name": "priceFeed",
					"type": "address"
				}
			],
			"name": "addToken",
			"outputs": [],
			"stateMutability": "nonpayable",
			"type": "function"
		},
		{
			"inputs": [],
			"name": "bankCapUsd",
			"outputs": [
				{
					"internalType": "uint256",
					"name": "",
					"type": "uint256"
				}
			],
			"stateMutability": "view",
			"type": "function"
		},
		{
			"inputs": [
				{
					"internalType": "address",
					"name": "token",
					"type": "address"
				},
				{
					"internalType": "uint256",
					"name": "amountUsd",
					"type": "uint256"
				}
			],
			"name": "convertFromUsd",
			"outputs": [
				{
					"internalType": "uint256",
					"name": "",
					"type": "uint256"
				}
			],
			"stateMutability": "view",
			"type": "function"
		},
		{
			"inputs": [
				{
					"internalType": "address",
					"name": "token",
					"type": "address"
				},
				{
					"internalType": "uint256",
					"name": "amount",
					"type": "uint256"
				}
			],
			"name": "convertToUsd",
			"outputs": [
				{
					"internalType": "uint256",
					"name": "",
					"type": "uint256"
				}
			],
			"stateMutability": "view",
			"type": "function"
		},
		{
			"inputs": [
				{
					"internalType": "address",
					"name": "token",
					"type": "address"
				},
				{
					"internalType": "uint256",
					"name": "amount",
					"type": "uint256"
				}
			],
			"name": "deposit",
			"outputs": [],
			"stateMutability": "nonpayable",
			"type": "function"
		},
		{
			"inputs": [],
			"name": "depositCount",
			"outputs": [
				{
					"internalType": "uint256",
					"name": "",
					"type": "uint256"
				}
			],
			"stateMutability": "view",
			"type": "function"
		},
		{
			"inputs": [],
			"name": "depositNative",
			"outputs": [],
			"stateMutability": "payable",
			"type": "function"
		},
		{
			"inputs": [],
			"name": "ethUsdPriceFeed",
			"outputs": [
				{
					"internalType": "contract AggregatorV3Interface",
					"name": "",
					"type": "address"
				}
			],
			"stateMutability": "view",
			"type": "function"
		},
		{
			"inputs": [
				{
					"internalType": "address",
					"name": "user",
					"type": "address"
				}
			],
			"name": "getAllBalances",
			"outputs": [
				{
					"internalType": "address[]",
					"name": "tokens",
					"type": "address[]"
				},
				{
					"internalType": "uint256[]",
					"name": "balances",
					"type": "uint256[]"
				},
				{
					"internalType": "uint256[]",
					"name": "balancesUsd",
					"type": "uint256[]"
				}
			],
			"stateMutability": "view",
			"type": "function"
		},
		{
			"inputs": [
				{
					"internalType": "address",
					"name": "user",
					"type": "address"
				},
				{
					"internalType": "address",
					"name": "token",
					"type": "address"
				}
			],
			"name": "getBalance",
			"outputs": [
				{
					"internalType": "uint256",
					"name": "",
					"type": "uint256"
				}
			],
			"stateMutability": "view",
			"type": "function"
		},
		{
			"inputs": [
				{
					"internalType": "address",
					"name": "user",
					"type": "address"
				},
				{
					"internalType": "address",
					"name": "token",
					"type": "address"
				}
			],
			"name": "getBalanceInUsd",
			"outputs": [
				{
					"internalType": "uint256",
					"name": "",
					"type": "uint256"
				}
			],
			"stateMutability": "view",
			"type": "function"
		},
		{
			"inputs": [],
			"name": "getBankStats",
			"outputs": [
				{
					"internalType": "uint256",
					"name": "_totalDepositsUsd",
					"type": "uint256"
				},
				{
					"internalType": "uint256",
					"name": "_depositCount",
					"type": "uint256"
				},
				{
					"internalType": "uint256",
					"name": "_withdrawalCount",
					"type": "uint256"
				},
				{
					"internalType": "uint256",
					"name": "_availableCapacityUsd",
					"type": "uint256"
				}
			],
			"stateMutability": "view",
			"type": "function"
		},
		{
			"inputs": [
				{
					"internalType": "address",
					"name": "user",
					"type": "address"
				},
				{
					"internalType": "address",
					"name": "token",
					"type": "address"
				}
			],
			"name": "getMaxWithdrawal",
			"outputs": [
				{
					"internalType": "uint256",
					"name": "",
					"type": "uint256"
				}
			],
			"stateMutability": "view",
			"type": "function"
		},
		{
			"inputs": [
				{
					"internalType": "bytes32",
					"name": "role",
					"type": "bytes32"
				}
			],
			"name": "getRoleAdmin",
			"outputs": [
				{
					"internalType": "bytes32",
					"name": "",
					"type": "bytes32"
				}
			],
			"stateMutability": "view",
			"type": "function"
		},
		{
			"inputs": [],
			"name": "getSupportedTokens",
			"outputs": [
				{
					"internalType": "address[]",
					"name": "",
					"type": "address[]"
				}
			],
			"stateMutability": "view",
			"type": "function"
		},
		{
			"inputs": [
				{
					"internalType": "address",
					"name": "token",
					"type": "address"
				}
			],
			"name": "getTokenInfo",
			"outputs": [
				{
					"components": [
						{
							"internalType": "address",
							"name": "tokenAddress",
							"type": "address"
						},
						{
							"internalType": "uint8",
							"name": "decimals",
							"type": "uint8"
						},
						{
							"internalType": "bool",
							"name": "isSupported",
							"type": "bool"
						},
						{
							"internalType": "address",
							"name": "priceFeed",
							"type": "address"
						}
					],
					"internalType": "struct KipuBankV2.TokenInfo",
					"name": "info",
					"type": "tuple"
				}
			],
			"stateMutability": "view",
			"type": "function"
		},
		{
			"inputs": [
				{
					"internalType": "address",
					"name": "token",
					"type": "address"
				}
			],
			"name": "getTokenPrice",
			"outputs": [
				{
					"internalType": "uint256",
					"name": "",
					"type": "uint256"
				}
			],
			"stateMutability": "view",
			"type": "function"
		},
		{
			"inputs": [
				{
					"internalType": "bytes32",
					"name": "role",
					"type": "bytes32"
				},
				{
					"internalType": "address",
					"name": "account",
					"type": "address"
				}
			],
			"name": "grantRole",
			"outputs": [],
			"stateMutability": "nonpayable",
			"type": "function"
		},
		{
			"inputs": [
				{
					"internalType": "bytes32",
					"name": "role",
					"type": "bytes32"
				},
				{
					"internalType": "address",
					"name": "account",
					"type": "address"
				}
			],
			"name": "hasRole",
			"outputs": [
				{
					"internalType": "bool",
					"name": "",
					"type": "bool"
				}
			],
			"stateMutability": "view",
			"type": "function"
		},
		{
			"inputs": [
				{
					"internalType": "address",
					"name": "",
					"type": "address"
				}
			],
			"name": "isTokenSupported",
			"outputs": [
				{
					"internalType": "bool",
					"name": "",
					"type": "bool"
				}
			],
			"stateMutability": "view",
			"type": "function"
		},
		{
			"inputs": [],
			"name": "pause",
			"outputs": [],
			"stateMutability": "nonpayable",
			"type": "function"
		},
		{
			"inputs": [],
			"name": "paused",
			"outputs": [
				{
					"internalType": "bool",
					"name": "",
					"type": "bool"
				}
			],
			"stateMutability": "view",
			"type": "function"
		},
		{
			"inputs": [
				{
					"internalType": "address",
					"name": "token",
					"type": "address"
				}
			],
			"name": "removeToken",
			"outputs": [],
			"stateMutability": "nonpayable",
			"type": "function"
		},
		{
			"inputs": [
				{
					"internalType": "bytes32",
					"name": "role",
					"type": "bytes32"
				},
				{
					"internalType": "address",
					"name": "callerConfirmation",
					"type": "address"
				}
			],
			"name": "renounceRole",
			"outputs": [],
			"stateMutability": "nonpayable",
			"type": "function"
		},
		{
			"inputs": [
				{
					"internalType": "bytes32",
					"name": "role",
					"type": "bytes32"
				},
				{
					"internalType": "address",
					"name": "account",
					"type": "address"
				}
			],
			"name": "revokeRole",
			"outputs": [],
			"stateMutability": "nonpayable",
			"type": "function"
		},
		{
			"inputs": [
				{
					"internalType": "uint256",
					"name": "",
					"type": "uint256"
				}
			],
			"name": "supportedTokens",
			"outputs": [
				{
					"internalType": "address",
					"name": "",
					"type": "address"
				}
			],
			"stateMutability": "view",
			"type": "function"
		},
		{
			"inputs": [
				{
					"internalType": "bytes4",
					"name": "interfaceId",
					"type": "bytes4"
				}
			],
			"name": "supportsInterface",
			"outputs": [
				{
					"internalType": "bool",
					"name": "",
					"type": "bool"
				}
			],
			"stateMutability": "view",
			"type": "function"
		},
		{
			"inputs": [
				{
					"internalType": "address",
					"name": "",
					"type": "address"
				}
			],
			"name": "tokenDecimals",
			"outputs": [
				{
					"internalType": "uint8",
					"name": "",
					"type": "uint8"
				}
			],
			"stateMutability": "view",
			"type": "function"
		},
		{
			"inputs": [
				{
					"internalType": "address",
					"name": "",
					"type": "address"
				}
			],
			"name": "tokenPriceFeeds",
			"outputs": [
				{
					"internalType": "contract AggregatorV3Interface",
					"name": "",
					"type": "address"
				}
			],
			"stateMutability": "view",
			"type": "function"
		},
		{
			"inputs": [],
			"name": "totalDepositsUsd",
			"outputs": [
				{
					"internalType": "uint256",
					"name": "",
					"type": "uint256"
				}
			],
			"stateMutability": "view",
			"type": "function"
		},
		{
			"inputs": [],
			"name": "unpause",
			"outputs": [],
			"stateMutability": "nonpayable",
			"type": "function"
		},
		{
			"inputs": [
				{
					"internalType": "address",
					"name": "",
					"type": "address"
				},
				{
					"internalType": "address",
					"name": "",
					"type": "address"
				}
			],
			"name": "vaults",
			"outputs": [
				{
					"internalType": "uint256",
					"name": "",
					"type": "uint256"
				}
			],
			"stateMutability": "view",
			"type": "function"
		},
		{
			"inputs": [
				{
					"internalType": "address",
					"name": "token",
					"type": "address"
				},
				{
					"internalType": "uint256",
					"name": "amount",
					"type": "uint256"
				}
			],
			"name": "withdraw",
			"outputs": [],
			"stateMutability": "nonpayable",
			"type": "function"
		},
		{
			"inputs": [
				{
					"internalType": "address",
					"name": "token",
					"type": "address"
				}
			],
			"name": "withdrawAll",
			"outputs": [],
			"stateMutability": "nonpayable",
			"type": "function"
		},
		{
			"inputs": [],
			"name": "withdrawalCount",
			"outputs": [
				{
					"internalType": "uint256",
					"name": "",
					"type": "uint256"
				}
			],
			"stateMutability": "view",
			"type": "function"
		},
		{
			"inputs": [],
			"name": "withdrawalLimitUsd",
			"outputs": [
				{
					"internalType": "uint256",
					"name": "",
					"type": "uint256"
				}
			],
			"stateMutability": "view",
			"type": "function"
		}
	]
}